:100000000C9489020C94B1020C94B1020C94B102CC
:100010000C94B1020C94B1020C94B1020C94B10294
:100020000C94B1020C94B1020C94B1020C94BD1466
:100030000C94B1020C94B1020C94B1020C94B10274
:100040000C9473140C94B1020C94B1020C94B10290
:100050000C94B1020C94B1020C94B1020C94B10254
:100060000C94B1020C94B1020101FF030101F703EA
:100070004C494E4553006C0068000000000024000D
:1000800027002A0000000000250028002B000500A2
:100090008930080238024978681400001753440078
:1000A00016137800161314001510200015201000E8
:1000B000540A03E181867F3E186D830F0F0E018382
:1000C000866033186DC3198F1803C38E6033186DA3
:1000D000E330CF1803C39E603630CDE360CF3006E7
:1000E000C79E7E3E30CDB360CF300CC6F660333055
:1000F000D9B660CF33CFCCF66061B0DB1E60CF30B5
:10010000D86CE6C061B0DB1E618F19986CC6C06305
:10011000B19B0E330F0FB078C6FF7E1F1B061E0F5C
:100120000040243E61F7DB7C0000003F61F7DB7C90
:100130000000003361B61B600000003F61B61C6028
:10014000CAAB803E61B61C7CAA3A803F61B61C0CEB
:10015000CAAA80337DF7DB7CAAAA803F7DF7DB7CCF
:10016000CEAB803E7DF7DB7C00000000000000008D
:1001700000000000000800002000000000080380CC
:10018000200000000008028020000000000803801A
:10019000200000000008028020000000000803800A
:1001A00020000000000802802000000000080380FA
:1001B00020000000000802802000000000080380EA
:1001C000200000000008000020000000000FE07088
:1001D00020000000000FE07020000000000FE07021
:1001E00020000000000F1C7020000000000F1C7099
:1001F00020000000000F1C7020000000000F1C7E7B
:1002000020000000000F1C7E20000000000F1C7E5C
:1002100020000000000FFC7FE0000000000FFC7FCA
:10022000E0000000000FFC7FE00000000008FFFF7E
:10023000E00000000008FFFFE00000000008FFFFF2
:10024000E000000500680138010000153A616363B1
:1002500065707420163A63616E63656C002D4348C7
:100260004F4F53452047414D45204C4556454C2D59
:10027000000500380168010000163A61636365708B
:1002800074002147414D45204F56455221000A0A2E
:10029000153A49676E6F7265006D560A0A504C45F3
:1002A000415345205455524E204F464620004C4F56
:1002B00057204241545445525921200003053F2103
:1002C0003F1208120A100A0E1C0E0C1E0C141A14EF
:1002D000161F161E131E1E1B1E1E1F1E3F213F3AF9
:1002E0002F3A173D173F213F181F02040A041F0E23
:1002F00004040E1F0A1F0A0E0E1F04110E2E252EB7
:100300002F2A2E262929021F02081F08150E040471
:100310000E150E15151B151B040604040C04000015
:10032000000017000300031F0A1F16371A190413D1
:100330000A153A000300000E11110E000A040A0407
:100340000E040030000404040010001804031F1100
:100350001F121F101D151711151F07041F17151D3C
:100360001F151D01011F1F151F17151F000A000073
:100370003200040A110A0A0A110A040115020E11B8
:10038000171E051E1F150A0E110A1F110E1F15112B
:100390001F05010E111D1F041F111F1108100F1F33
:1003A000041B1F10101F061F1E040F0E110E1F0925
:1003B000060E112E1F051A121509011F011F101F0D
:1003C0000F180F1F0C1F1B041B031C031915130010
:1003D0001F11030418111F00020102202020000138
:1003E000020C121E1F120C0C12120C121F0C1A14EB
:1003F000041E05242A1E1F021C141D1020201D1F70
:100400000814111F101E041E1E021C0C120C3E0AA2
:10041000040C123E1E040214160A020F120E101EC5
:100420000E100E1E081E120C1226281E322A26043A
:100430001E21001F00211E040102013F213FF6E89A
:10044000DBCFC3B8AEA49B928A827B746E68625C79
:1004500057524E4945413E3A3734312E2C292725F3
:100460002321450068010000172B152010204C4F58
:100470004144455200172B16201314000A4E6F20DA
:1004800053442063617264206F720A6E6F204C4F78
:10049000414445522E4845580A0A153A4578697430
:1004A000001D20466C617368696E670A20206C6FBE
:1004B000616465722E2E2E0A0A444F4E2754205432
:1004C00055524E204F4646210000000000230026D2
:1004D00000290004040404040404040202020202C9
:1004E00002030303030303010204081020408001F8
:1004F0000204081020010204081020000000080077
:1005000002010000030407000000000000000000DA
:10051000B92211241FBECFEFD8E0DEBFCDBF11E05E
:10052000A0E0B1E0E4EEF4E502C005900D92AA3B34
:10053000B107D9F725E0AAEBB1E001C01D92A033C5
:10054000B207E1F712E0C9E8D2E004C02197FE014A
:100550000E94E826C838D107C9F70E94FE140C94FF
:10056000702A0C9400007F928F929F92AF92BF925C
:10057000CF92DF92EF92FF920F931F93CF93DF936F
:10058000FB01249131964491022E000C330B12167C
:1005900013060CF0D0C080330CF0CDC0E82F082E2D
:1005A000000CFF0BDF01A40FB11D47FDBA951A1611
:1005B0001B060CF0C0C06E5F7F4F8901095F1F4FA3
:1005C000A3E015950795AA95E1F787FF0BC0480FA3
:1005D0000E9FC0010F9F900D1E9F900D1124681B50
:1005E000790B80E0A42F042E000CBB0BA80FB11DCB
:1005F00087FDBA95D19714F040E3481BF09013059E
:100600002535310514F024E530E0A091FF04A8273A
:10061000982F977031E001C0330F9A95EAF78595CE
:1006200085958595F4E58F02C00111248B559D4F6A
:10063000B0E0042E000C550BEE24E394B41715061D
:100640000CF079C0FB017490F1E0FF121FC06B0148
:10065000EC01E0E8BE2EB72019F0B880B32AB882CA
:10066000E69531F4EFEFCE1ADE0AF6017490E0E879
:100670002196BC2EB81AB21668F3330F19F48C5AAF
:100680009F4F31E0BF5F600F711FD8CFF11019C0CD
:10069000A32EA0946B01EC01E0E8BE2EB72019F068
:1006A000B880BA20B882E69531F4FFEFCF1ADF0A9E
:1006B000F6017490E0E82196BC2EB81AB21668F3E1
:1006C000DCCFF3E06B01EC01E0E8FF1220C0932ED9
:1006D0009094F0E8BF2EA12CEB2DE72139F0E881B2
:1006E0008A2E8A2480FE11C0E32BE883B69439F465
:1006F000EFEFCE1ADE0AF6017490E0E8BE2EA39466
:100700002196A21648F3AE25B8CFE921EECFBE2E32
:10071000B72019F0B880B326B882E69531F4FFEF20
:10072000CF1ADF0AF6017490E0E82196BC2EB81AC1
:10073000B21668F3A2CFDF91CF911F910F91FF9076
:10074000EF90DF90CF90BF90AF909F908F907F9071
:100750000895ECE9F2E08081918101979183808393
:10076000E8E9F2E080819181019791838083E4E957
:10077000F2E080819181019791838083E0E9F2E04A
:10078000808191810197918380830895EF92FF92F8
:100790000F931F93CF93DF938C017B01D0E0C0E0D8
:1007A000F701EC0FFD1F6491662361F0D801ED9114
:1007B000FC910190F081E02DC8010995892B11F081
:1007C0002196EECFCE01DF91CF911F910F91FF9037
:1007D000EF900895AF92BF92CF92DF92EF92FF9287
:1007E0000F931F93CF93DF936C017B018B01040F59
:1007F000151FEB015E01AE18BF08C017D10759F0F5
:100800006991D601ED91FC910190F081E02DC60136
:100810000995892B79F7C501DF91CF911F910F9130
:10082000FF90EF90DF90CF90BF90AF900895FC01C4
:10083000448155816081718183EF94E00C94EA03D7
:10084000833081F028F4813099F08230A9F0089546
:100850008730A9F08830C9F08430B1F480918000ED
:100860008F7D03C0809180008F77809380000895F2
:1008700084B58F7784BD089584B58F7DFBCF80913B
:10088000B0008F778093B00008958091B0008F7D85
:10089000F9CF1F93CF93DF93282F30E0F901E55074
:1008A000FB4F8491F901E951FB4FD491F901ED52CD
:1008B000FB4FC491CC23A9F0162F81110E94200474
:1008C000EC2FF0E0EE0FFF1FEC57FF4FA591B49116
:1008D0008FB7F894EC91111108C0D095DE23DC930A
:1008E0008FBFDF91CF911F910895DE2BF8CFCF936B
:1008F000C82FF89460E0809102050E94490480911D
:10090000030518161CF460E00E944904CEBD0000E7
:100910000DB407FEFDCF8EB58091030518161CF4AB
:1009200061E00E9449047894CF9108950F931F933A
:10093000CF938091FF048F5F8093FF0405EA12E05C
:10094000C0E08C2F80640E94770480E80E947704C6
:1009500061E0809102050E94490480910305181608
:100960001CF460E00E944904F80184E591919EBD69
:1009700000000DB407FEFDCF9EB58150B9F7809100
:10098000030518161CF461E00E944904CF5F0C5A5D
:100990001F4FC630B1F680E4CF911F910F910C9498
:1009A0007704CF93DF9390E0FC01E951FB4F249152
:1009B0008D529B4FFC0184918823C9F090E0880FF1
:1009C000991FFC01E658FF4FA591B491FC01EC572B
:1009D000FF4FC591D49161110DC09FB7F8948C91D0
:1009E000209582238C938881282328839FBFDF91C1
:1009F000CF910895623051F49FB7F8943C91822FC3
:100A0000809583238C93E8812E2BEFCF8FB7F894BA
:100A1000EC912E2B2C938FBFEACFFF920F931F9355
:100A2000CF93DF93C5EAD4E0FF24FA9462E08A858D
:100A30000E94D1042A8530E0F901E550FB4F8491F2
:100A4000F901E951FB4F0491F901ED52FB4F14916B
:100A50001123E1F081110E942004E12FF0E0EE0F5C
:100A6000FF1FE753FB4FA591B491EC9189890E23A9
:100A700069F0811113C0219684E0CC3AD807B1F611
:100A8000DF91CF911F910F91FF90089589898F5F1A
:100A9000898B60E08A850E94D104EDCF8F3F11F4ED
:100AA000198AF7CFF98AF5CF1F93CF93DF93182FC9
:100AB000EB0161E00E94D104209739F460E0812FBE
:100AC000DF91CF911F910C944904CF3FD10511F4D0
:100AD00061E0F5CFE12FF0E0E550FB4FE491E3302A
:100AE00031F140F4E130B1F0E230E1F0C038D1054D
:100AF0007CF7E4CFE73029F1E83059F1E430B1F781
:100B000080918000806280938000D0938B00C0939E
:100B10008A0004C084B5806884BDC7BDDF91CF91D1
:100B20001F91089584B5806284BDC8BDF7CF8091C0
:100B30008000806880938000D0938900C0938800F3
:100B4000EDCF8091B00080688093B000C093B30077
:100B5000E5CF8091B00080628093B000C093B40074
:100B6000DDCF8E50806480937C0080917A00806419
:100B700080937A0080917A0086FDFCCF8091780086
:100B80009091790008958091C9048F7149F584E1AD
:100B90000E94B105BC01990F880B990B0E94F624A5
:100BA00026EE3FE34EEC50E40E9431250E94892658
:100BB0009B017093C0046093BF04672BB9F084E07D
:100BC0008093BE04E1ECF4E080E041915191241760
:100BD000350718F48093BE0408958F5F8430A9F719
:100BE0008091C9048F5F8093C90408958FEF80932B
:100BF000BE04F6CF3FB7F8948091C0019091C10137
:100C0000A091C201B091C30126B5A89B05C02F3F9A
:100C100019F00196A11DB11D3FBFBA2FA92F982F22
:100C20008827BC01CD01620F711D811D911D42E01D
:100C3000660F771F881F991F4A95D1F708958F92E5
:100C40009F92AF92BF92CF92DF92EF92FF924B01B1
:100C50005C010E94FA056B017C010E94FA056C1987
:100C60007D098E099F09683E734081059105A8F3AF
:100C700021E0821A9108A108B10888EEC80E83E02D
:100C8000D81EE11CF11C81149104A104B10429F7C0
:100C9000FF90EF90DF90CF90BF90AF909F908F909C
:100CA00008952FB7F8946091BC017091BD018091B7
:100CB000BE019091BF012FBF0895FC01178A158ACC
:100CC00014A213A2108E1092A0021092A1021092F0
:100CD000A4021092B40008950F931F93CF93DF9353
:100CE000EC018B010E945D061E870D871B8A1A8A04
:100CF00081E0898389E08E8B198E1B8E1D8EDF919A
:100D0000CF911F910F910895E091D3048E2F90E021
:100D1000880F991FE091D104F091D204E80FF91FD8
:100D2000859194918F3F980719F41092CA04089501
:100D30009093D6049927880F991FE091D404F091DD
:100D4000D504E80FF91F659174918AEC94E00E9434
:100D50006C068091D3048F5F8093D3040895CF9362
:100D6000DF93DC0170E0660F771F1F96ED91FC9119
:100D70005097E60FF71F2591349190963C932E9350
:100D80005F97F9014591549114968C911497849F23
:100D9000402D112491964C939197F901C591D491CE
:100DA0006D2F70E04617170629F020F0F901259104
:100DB0003491432F849F402D112492964C93DF91C0
:100DC000CF910895DC01643570F5403360F590965D
:100DD0008C919097E62F062E000CFF0B242F259563
:100DE0002595259594E52902E00DF11D1124EB557B
:100DF000FD4F2081342F37708230B1F4822F90E084
:100E0000032E02C0959587950A94E2F7809581702C
:100E1000811114C081E090E001C0880F3A95EAF793
:100E20008095822380830895833091F71C968C915E
:100E300081706427609561708613ECCF81E090E04B
:100E400001C0880F3A95EAF7822BECCFAF92BF92A0
:100E5000CF92DF92EF92FF920F931F93CF93DF9386
:100E6000182F062FC0E0D3E08AEFD82E9EEFE92E90
:100E7000842F8470C82E842F8270B82E842F88709F
:100E8000A82E4170F42ECF5F8C2F880F8F5FE80E55
:100E9000CC2081F0402F4D0F612F6C0F83EF94E039
:100EA0000E94E206402F4C0F6D2F610F83EF94E0FC
:100EB0000E94E206BB2081F0402F4D1B612F6C0F7A
:100EC00083EF94E00E94E206402F4C1B6D2F610FD0
:100ED00083EF94E00E94E206AA2081F0402F4C0F9D
:100EE000612F6D1B83EF94E00E94E206402F4D0FAF
:100EF000612F6C1B83EF94E00E94E206FF2081F0DB
:100F0000402F4C1B612F6D1B83EF94E00E94E20683
:100F1000402F4D1B612F6C1B83EF94E00E94E20673
:100F2000CD173CF4E7FCAFCFD150D394D394ED0C64
:100F3000AACFDF91CF911F910F91FF90EF90DF909B
:100F4000CF90BF90AF900895EF92FF920F931F93B1
:100F5000CF93DF938C01F62ED42FE22EC0E0CE1576
:100F600044F46F2D6C0F4D2FC8010E94E206CF5F35
:100F7000F6CFDF91CF911F910F91FF90EF900895E1
:100F80003F924F925F927F928F929F92AF92BF92C9
:100F9000CF92DF92EF92FF921F93CF93DF93CDB763
:100FA000DEB72C970FB6F894DEBF0FBECDBF8B8790
:100FB000362E742E68170CF0FBC048170CF403C1D2
:100FC00086170CF416C12EE12C8719E163E2371065
:100FD00033C03C85398331170CF419833B86611784
:100FE0002CF0898186170CF46983612F99819F5FAA
:100FF000292F261B4B8583EF94E02C960FB6F8948F
:10100000DEBF0FBECDBFDF91CF911F91FF90EF905C
:10101000DF90CF90BF90AF909F908F907F905F9028
:101020004F903F900C94A4074EE1498319E1D7CF2C
:101030005EE1598319E1D5CF8B853B86382E212F70
:10104000012E000C330B4C85842F440F990BAC01FF
:10105000421B530B5E834D83C32C032C000CDD0815
:101060005B85E52E550FFF08A6014E195F095887CD
:101070004F83462E660F5508A201421B530B5A831D
:101080004983272D072C000C330BA9014E195F094A
:101090005C834B83481A590AC9018C199D099A87A8
:1010A0008987371409F440C03A94912C812CB12CD3
:1010B000A12C9B853916D4F1C5016F8178850E94DA
:1010C000D426312F360FC4016B817C810E94D42637
:1010D000610F4D815E81A40EB51E89819A81880EB3
:1010E000991E63171CF4832F362F682F6F5F262FEE
:1010F000231B4B85632F83EF94E00E94A4079B85FD
:101100009F5F9B87D6CF3B86372C782E6EE123E2FC
:101110002C8719E194CF8B857B86732C382E69E15F
:101120003EE13C8713E28BCF372CBFCF2B85822F3C
:10113000220F990B9C012C193D09249D6001259DCE
:10114000D00C349DD00C11248E199F0949815A81ED
:10115000849F7001859FF00C949FF00C11245B8597
:1011600075160CF44EC0C60169857A850E94D42696
:101170003C85360FC7016B817C810E94D426610FAC
:10118000C40CD51C89819A81E80EF91E63171CF4E2
:10119000832F362F682F6F5F262F231B4B85632FDE
:1011A00083EF94E00E94A4079B859F5F9B87D7CF26
:1011B00046179CF05B8563E2541709F439CF89E147
:1011C0008C871EE13CCF8B8546170CF09CCF4B875C
:1011D000782E6EE129E12C87A5CF3B8543170CF4CF
:1011E0009ACF332E4B87762E43E24C871EE169E17E
:1011F000EECE9B8563E2941709F416CF29E12C8784
:10120000E0CF2C960FB6F894DEBF0FBECDBFDF91B6
:10121000CF911F91FF90EF90DF90CF90BF90AF9054
:101220009F908F907F905F904F903F900895DF92B6
:10123000EF92FF920F931F93CF93DF937C01D62FF2
:10124000D22EC42F002E000C110B040F111D47FDD0
:101250001A958C2F0C2E000C990B8017910744F4D3
:101260002D2D4C2F6D2FC7010E94A407CF5FF1CF0A
:10127000DF91CF911F910F91FF90EF90DF90089534
:101280004F925F926F927F928F929F92AF92BF9296
:10129000CF92DF92EF92FF920F931F93CF93DF9342
:1012A000EC016A3049F428859D818A85299F800D4B
:1012B00011248A871986A6C06D3009F4A3C08984D9
:1012C00083E588150CF487C0DA848FE28D150CF461
:1012D00082C018852C812150330B129FC001139FAF
:1012E000900D1124880D911D87FC9A9518161906EA
:1012F0000CF071C02D818D2D0D2C000C990B129FBF
:10130000800D911D1124181619060CF064C078A0E8
:10131000C82C912CE62EF12C292D092C000C330B16
:101320008C8190E0281739070CF054C00197E0E059
:101330002817390771F0E89EF001E99EF00DF89E3C
:10134000F00D11242E0F3F1FEE8DFF8DE20FF31FC6
:10135000E4915D2C612C492C480C2D81862D062CA6
:10136000000C990B2817190691F18CF1AE2EB12CB7
:10137000E0FF16C0113061F4462D4D0D642DCE01F5
:101380000E94E206F501F595E7956394510EE5CFCD
:10139000012F212F452D6C2DCE010E941709F2CF70
:1013A00089A198A1891771F388A3113041F4462DC2
:1013B0004D0D642DCE010E94E20678A2E3CF012FED
:1013C000212F452D6C2DCE010E941709F6CF939445
:1013D000C10EA2CF78A228853C818985239F800DEC
:1013E000112489879F81992369F0082E000C990B9D
:1013F00044E550E0239F401951091124481759072B
:101400000CF452CF81E090E0DF91CF911F910F91CA
:10141000FF90EF90DF90CF90BF90AF909F908F9014
:101420007F906F905F904F900895682F83EF94E0C6
:101430000C944009EF92FF920F931F93CF93DF9389
:101440008C01D62FF42EE22EC0E0CE1544F44F2DA1
:101450004C0F6D2FC8010E94E206CF5FF6CFDF91DF
:10146000CF911F910F91FF90EF9008958F929F92CF
:10147000AF92BF92CF92DF92EF92FF920F931F93A2
:10148000CF93DF93082FB62E942EA22E83E0F82E52
:10149000D0E0C3E09AEFE92E1EEFCC24C394C20E35
:1014A000DF5F1F0D2C2F220F4B2D4C1B8A2C8F0C16
:1014B000DB2CDD1A81E02C0D602F981218C06D0F07
:1014C00083EF94E00E941A0A282D4D2D6C2F600F97
:1014D00083EF94E00E941A0ADC179CF417FD04C005
:1014E000C150E394E3941E0DF394F394D9CF6D1B94
:1014F00083EF94E00E941A0A282D4D2D602F6C1B5B
:10150000E7CFDF91CF911F910F91FF90EF90DF9088
:10151000CF90BF90AF909F908F9008950F931F939F
:10152000CF93DF93182FD62FC42F022F242F462FAF
:10153000682F83EF94E00E94A4074FEF400F4D0FF8
:101540002C2F612F83EF94E00E94A407202F4D2FB2
:10155000612F83EF94E00E941A0A6FEF6C0F610F06
:10156000202F4D2F83EF94E0DF91CF911F910F91AA
:101570000C941A0A9C01019601F580919E029091AB
:101580009F02181619060CF0A6C080919A0290913D
:101590009B02181619060CF09EC08091960290913D
:1015A0009702181619060CF096C08091920290913D
:1015B0009302181619060CF08EC080919C0290912F
:1015C0009D026F3F7607E1F4181619060CF083C0F0
:1015D0004091980250919902141615060CF07BC0A8
:1015E0004091940250919502141615060CF073C0A8
:1015F0004091900250919102141615060CF06BC0A8
:1016000080319105ACF4860F971F4AE0489FF001A6
:10161000499FF00D1124E952FE4F80919E02909156
:101620009F02E80FF91FE20FF31F8081811156C05E
:10163000809198029091990280319105ACF4860FC7
:10164000971F4AE0489FF001499FF00D1124E9528D
:10165000FE4F80919A0290919B02E80FF91FE20FD2
:10166000F31F808181113AC080919402909195027C
:1016700080319105ACF4860F971F4AE0489FD00156
:10168000499FB00D1124A952BE4F809196029091AE
:101690009702A80FB91FA20FB31F8C9181111EC012
:1016A000809190029091910280319105B4F4680F7D
:1016B000791F8AE0869FF001879FF00D1124E9527F
:1016C000FE4F8091920290919302E80FF91FE20F72
:1016D000F31F8081089581E0089580E008958A30A5
:1016E000910570F477FD0CC02AE0269FF001279F3A
:1016F000F00D1124E952FE4FE80FF91F8081089583
:1017000081E008952FEC40E261E38AE10E948E0AB5
:101710002FEC44E261E388E10C948E0ACF92DF92D1
:10172000EF92FF920F93CF93DF9387EDE82E81E046
:10173000F82ECDE2DBE1D12CC12CF701EC0DFD1D23
:101740008081882341F003E023E04C2F6D2F83EF4D
:1017500094E00E9417098FEFC81AD80ADD5FD933C9
:1017600061F78AE0E80EF11CC350CD3F19F7DF9115
:10177000CF910F91FF90EF90DF90CF900895ECE91B
:10178000F2E022813381280F391F33832283E8E975
:10179000F2E022813381280F391F33832283E4E969
:1017A000F2E022813381280F391F33832283E0E95D
:1017B000F2E022813381820F931F93838283089505
:1017C000089590E080E00895CF93DF93EC0184E0EA
:1017D000CC0FDD1F8A95E1F7FE01EE5CFE4F94858C
:1017E0009B3008F09AE09093E004CE5CDE4F688175
:1017F0008AEC94E00E94AF06888581959091CE0492
:101800002A85299F202D11242093E3048093E4044A
:101810008C818A532E81299F202D11242093E50449
:101820008093E6048E852A812093DE04899F802D93
:1018300011248093DF041092EF041092EE041092B2
:10184000ED0481E08093E1048093A4021092E2040D
:10185000DF91CF91089581E090E00C94E40BFB01BF
:1018600001900020E9F73197AF01461B570BDC01CF
:10187000ED91FC910280F381E02D09948F929F926B
:10188000AF92BF920F931F93CF93DF93CDB7DEB785
:10189000A1970FB6F894DEBF0FBECDBF19A242309C
:1018A00008F44AE08E010F5D1F4F842E912CB12C5D
:1018B000A12CA50194010E945826E62FB901CA0166
:1018C000EA3004F5E05DD801EE938D01232B242B43
:1018D000252B79F790E080E0109729F0BD0183EF88
:1018E00094E00E942F0CA1960FB6F894DEBF0FBEB5
:1018F000CDBFDF91CF911F910F91BF90AF909F907F
:101900008F900895E95CDFCFCF93DF93BC0183EF25
:1019100094E00E94C603EC0162E771E083EF94E07B
:101920000E942F0C8C0F9D1FDF91CF910895E5EA47
:10193000F2E088EF91E0DF019C011D9221503040E0
:10194000E1F71092FC041092FD0461EA74E083EF69
:1019500094E00E94C6030E9496048CB583608CBDFF
:101960008DB58E7F8DBD85E791E0EEEFFFE30995A4
:101970001092F9048CE794E00E94840C0E94960473
:101980000E940D058091BA04813039F062E370E065
:1019900080E090E00E941F06F3CF08954F925F927F
:1019A0006F927F928F929F92AF92BF92CF92DF926F
:1019B000EF92FF920F931F93CF93DF9300D000D04D
:1019C0001F92CDB7DEB7C0902505D0902605E090D8
:1019D0002705F09028050E945106C61AD70AE80A82
:1019E000F90A8091240590E0B0E0A0E04091200544
:1019F0005091210560912205709123058C159D055C
:101A0000AE05BF0508F0C5C041155105610571055A
:101A100009F4BFC00E94510620912405620F711D78
:101A2000811D911D609325057093260580932705E0
:101A3000909328058091160590911705A09118059F
:101A4000B09119050196A11DB11D809316059093C3
:101A50001705A0931805B093190510922005109250
:101A6000210510922205109223050E94FA05609329
:101A70001C0570931D0580931E0590931F05809192
:101A8000A6049091A7042FE0289FA001299F500D44
:101A900011245A83498385E10E94B105A981BA8145
:101AA0008A0F9B1FB4E096958795BA95E1F79093BE
:101AB000A7048093A6042091A504222309F448C01A
:101AC0006091A904262F30E050E040E029833A835A
:101AD0004B835C83C090AA04D12CF12CE12C409163
:101AE000AD045091AE044A01B12CA12C2091AB045D
:101AF0003091AC042901712C612C8217930728F0D6
:101B00009C014817590708F49A0150E040E0241955
:101B100035094609570969817A818B819C816C1945
:101B20007D098E099F090E94B826A50194012419F8
:101B30003509460957090E94EF25C20ED31EE41E3F
:101B4000F51EC092A8046C2D70E085E00E9454053B
:101B50000E940D058091C1049091C204892B11F05F
:101B60000E94C30581E00F900F900F900F900F908F
:101B7000DF91CF911F910F91FF90EF90DF90CF9069
:101B8000BF90AF909F908F907F906F905F904F909D
:101B90000895452B462B472B09F06DC18091BC045D
:101BA00081508E3F28F58091BB04813009F58091EA
:101BB000CF048F5F6091D00487FD09C0082E000C10
:101BC000990B70E06F5F7F4F0E94D426682F60935F
:101BD000CF0485E794E090932A058093290588E453
:101BE00080932B0562E674E08AEC94E00E946C0618
:101BF0008091BC0481508E3F70F48091BA04813092
:101C000009F021C388E694E090932A058093290582
:101C100088E480932B058091CA04882331F0809159
:101C2000CB04811102C00E9484068091CB048823DA
:101C300009F43DC08091DF04811139C02091D7049F
:101C40003091D804E091DC04F091DD04EE0FFF1F29
:101C5000E20FF31F85919491009709F465C19C01EF
:101C60003695279536952795422F80FD06C14F73EF
:101C70004093DE048091CE04899F802D11248093AF
:101C8000DF041092EF041092EE041092ED0481E054
:101C90008093E1048093A4021092E2048091DC041A
:101CA0009091DD0401969093DD048093DC04809193
:101CB000E104882341F08091DF04811151C18AEC55
:101CC00094E00E945D0680912B05882309F489C069
:101CD0008C3008F02FC23CE0381B3983FF24F3948A
:101CE000F092FB0410921305109214054091F80431
:101CF0004D831981141B042F0D5F4DE2410F2EE41B
:101D000063E083EF94E00E9417095D8154505D8386
:101D1000105D252F41E0612F80E50E94360A2D815C
:101D200042E0612F83E00E94360AF0921305F092A0
:101D300014050091F8041981101B8DE2F82EF10EA4
:101D40002EE44F2D63E083EF94E00E94A40783E02C
:101D5000800F8F0D8D83482F41502EE463E083EF79
:101D600094E00E94A4070350105D202F412F60E0F3
:101D700083EF94E00E941A0A202F412F63E583EF3E
:101D800094E00E941A0A41E0612F83E00E94260736
:101D900042E0612F80E50E9426079D8194509D833B
:101DA00044E0692F80E50E94260748E06D8183E0CA
:101DB0000E94260784E08093FC048091F804A981A6
:101DC000A81BA15DA093FD046091290570912A05CF
:101DD00083EF94E00E94C60380912B05815080938D
:101DE0002B058091C1049091C204892BE1F0B1E0F0
:101DF000B0931305109214059091F70485E5891BA3
:101E00008093FC041092FD048091BE04813009F49B
:101E1000FFC108F491C19091BD04853008F00EC255
:101E20008B5F911106C20E9496048091F904811182
:101E30000EC0E5EAF2E088EF91E0DF019C011D921F
:101E400021503040E1F71092FC041092FD040E94F2
:101E5000FA056093200570932105809322059093E5
:101E6000230520911C0530911D05621B730B709397
:101E70001B0560931A0580E076CEBC01E6E07695FE
:101E80006795EA95E1F76F71892F86958695869516
:101E900080512F70223099F1D0F4222309F43EC0F2
:101EA0002130B9F1E091DC04F091DD043196F0933A
:101EB000DD04E093DC04CF01880F991FE091D70483
:101EC000F091D804E80FF91F85919491C8CE233082
:101ED00061F0243039F79091CE04969F602D112443
:101EE0006093E7048093E804DDCF9091CE04969F41
:101EF000602D11246093E5048093E604D3CF909184
:101F0000CE04969F602D11246093E3048093E40433
:101F1000C9CF8AEC94E00E94AF06C4CF6B3008F0C2
:101F20006AE06093E004BECF8091DB04811112C0AF
:101F30001092CB048091CA04811105C08AEC94E010
:101F40000E945D06B4CE0E9484068091DC049091CC
:101F5000DD04B2CF1092DD041092DC04F901B4CF9D
:101F600081508093DF048091EF04811142C0209161
:101F7000ED043091EE042F5F3F4FC901880F991F88
:101F8000E091E904F091EA04E80FF91F859194913A
:101F9000482F47704093F004492F4695469540934B
:101FA000F104AC0164E0569547956A95E1F74F73EB
:101FB0009091CE04499F402D11244093EF0483FB60
:101FC000882780F98093A3023093EE042093ED04D8
:101FD0008091EB0490E02817390758F02091EC0429
:101FE000222309F49FC0821B91099093EE048093F1
:101FF000ED048091EF0481508093EF048091E2041E
:1020000031E0380F3093E2044091DE042091F10476
:10201000240F8091D604280F2093CC046091E5040E
:10202000662371F070E0832F032E000C990B0E9441
:10203000D4268091E604869F200D11242093CC04A1
:102040008091CC0490E0849664E270E00E94D426F3
:102050008093CC042091E0042093CD046091E304AC
:10206000662381F0062E000C770B832F032E000CC5
:10207000990B0E94D4268091E404869F200D1124A0
:102080002093CD046091E7046623A1F0832F330FE2
:10209000990B70E00E94D426CB0162E070E00E94B0
:1020A000D4262091E8049091CD04289F900D11240E
:1020B0009093CD044F3309F43AC08091CD048A3017
:1020C0000CF089E087FD80E08093CD04F894E091E6
:1020D000CC04F0E0E25CFB4FE491E093A20220919B
:1020E000F2043091CD043203900111244091F004A8
:1020F0004203C001439F900D11242091CF0402C0E0
:10210000880F991F2A95E2F797FF02C081589F4FC9
:10211000880F892F881F990B8093A1028093A002BA
:102120007894D1CD8AEC94E00E945D0662CF109243
:10213000CD04CCCF1982D2CD8AEC94E00E945D060A
:102140001092CB0421E02093FB04ECEBF2E0E4914D
:10215000EF5FE093F704EDEBF2E0E491EF5FE093E3
:10216000F8048EEB92E09093120580931105109283
:10217000C2041092C1041092F90438EA39830E9413
:10218000CE0C8823E1F36EEA72E083EF94E00E94C4
:10219000C6036091BF047091C00490E080E04AE003
:1021A0000E943E0C69E972E083EF94E00E94C6034E
:1021B000698162956F7070E090E080E04AE00E9473
:1021C0003E0C6EE872E083EF94E00E94C6038091BB
:1021D000BA04813009F427CE498141504983411125
:1021E000CECF70E060E085E00E94540583B7817F28
:1021F000846083BF83B7816083BF83B7816083BFFF
:10220000889583B78E7F83BF83B78E7F83BFB7CF19
:102210008091160590911705A0911805B0911905A8
:102220008F709927AA27BB270897A105B10520F42D
:1022300087E00E94150AF7CD88E7FBCF992309F4C0
:10224000F2CD8FE2F6CF893209F0E5CC0E94970CEF
:10225000E2CCCF93DF930E941704EC0162E771E0B8
:1022600083EF94E00E942F0C8C0F9D1FDF91CF9184
:1022700008950F931F93CF93DF93EC018881998189
:10228000009759F02A813B812617370730F081E00B
:10229000DF91CF911F910F9108958B016F5F7F4F59
:1022A0000E940227009759F0998388831B830A8331
:1022B0002C813D81232B59F7FC011082E8CF80E06F
:1022C000E7CFEF92FF920F931F93CF93DF936115A8
:1022D000710541F480E0DF91CF911F910F91FF9044
:1022E000EF90089541155105B1F07B01EC010C818F
:1022F0001D81040F151FB8010E943911882351F365
:10230000288139818C819D81B701820F931F0E94A2
:10231000C8271D830C8381E0DECFCF93DF93EC01D0
:1023200088819981009711F00E9492231982188266
:102330001D821C821B821A82DF91CF910895CF9358
:10234000DF93EC01FB0144815581608171810E9422
:102350006111811103C0CE010E948D11CE01DF9168
:10236000CF910895EF92FF920F931F93CF93DF9336
:10237000EC017B018A01BA010E94391181110BC065
:10238000CE010E948D11CE01DF91CF911F910F914F
:10239000FF90EF9008951D830C83B7018881998188
:1023A0000E94C827F0CFEF92FF920F931F93CF9315
:1023B000DF93CDB7DEB762970FB6F894DEBF0FBEDE
:1023C000CDBF8C01CB01F8011182108213821282E1
:1023D000158214824AE09E012F5F3F4F7901B901B7
:1023E0000E94BF24F70101900020E9F73197AF0167
:1023F0004E195F09B701C8010E94B21162960FB66B
:10240000F894DEBF0FBECDBFDF91CF911F910F912A
:10241000FF90EF900895FB01DC0111961C921E9233
:1024200013961C921E92129715961C921E92149748
:102430008617970749F0608171816115710521F058
:10244000448155810C94B2110895FC0111821082CF
:102450001382128215821482FB0101900020E9F799
:102460003197AF01461B570B0C94B211FC018081D0
:102470009181009711F00C94922308957F928F928E
:102480009F92AF92BF92CF92DF92EF92FF920F9303
:102490001F93CF93DF93CDB7DEB7AF970FB6F89406
:1024A000DEBF0FBECDBF772473947092FC0485E02D
:1024B0008093FD046CE771E0CE0101960E94251225
:1024C000CE0101960E942911CE0101960E9436127A
:1024D0007092FC048DE08093FD04809189029091BC
:1024E0008A029F938F9382E891E09F938F93CE010E
:1024F0008B969F938F930E94CF27EBA40E2C000CFA
:10250000FF0880E3E81AF1080CA5002E000C110B5F
:1025100000531109CDA40C2C000CDD0880E3C81A6F
:10252000D1088EA4082C000C990880E3881A910821
:102530006FA5062E000C770B60537109CE01019632
:102540000E94D311B401CE0107960E94D311B601A7
:10255000CE010D960E94D311B801CE0143960E9480
:10256000D3118E01015E1F4FB701C8010E94D31124
:10257000B801CE0149960E940B12BE016D5E7F4FDD
:10258000CE0149960E949F11BE01635F7F4F0E945A
:102590009F11BE01695F7F4F0E949F11BE016F5F57
:1025A0007F4F0E949F11BC01CE0185960E940B12A5
:1025B000CE0149960E943612C8010E943612CE0101
:1025C00043960E943612CE010D960E943612CE011D
:1025D00007960E943612CE0101960E9436120FB65F
:1025E000F894DEBF0FBECDBFCE0185960E942911A3
:1025F000CE0185960E9436127092FC0485E180938C
:10260000FD0467E871E083EF94E00E942F0C809155
:102610000301909104018430910509F42DC1ECF47B
:102620008130910599F1039709F410C123E043E04B
:1026300062E28BE00E948E0A23E043E065E28BE0D9
:102640000E948E0A23E043E062E28EE00E948E0A3E
:1026500023E043E065E28EE02FC08630910509F467
:1026600038C10CF420C1079709F723E043E062E288
:102670008BE00E948E0A23E043E065E28BE00E943B
:102680008E0A23E043E062E28EE01DC123E043E0D6
:1026900062E28BE00E948E0A23E043E06FE18BE070
:1026A0000E948E0A23E043E065E28BE00E948E0ADE
:1026B00023E043E068E28BE00E948E0A8EE3809381
:1026C000FC0485E08093FD0460910801709109018C
:1026D000CE010D960E94D3116CE871E0CE010196F7
:1026E0000E942512BE016F5F7F4FCE0107960E94A8
:1026F0000B1250E040E064E771E0CE0107960E94C3
:102700006111811104C0CE0107960E948D11BE0196
:10271000635F7F4FCE0107960E949F110E941704AE
:10272000CE0107960E943612CE0101960E94361203
:10273000CE010D960E9436128EE3F82EF092FC0424
:102740008FE08093FD0460E770E083EF94E00E94E7
:10275000C603F092FC0486E18093FD0480918B0215
:1027600090918C029F938F9381E991E09F938F9337
:102770001F930F930E94CF270F8D002E000C110B7B
:1027800000531109E8A00E2C000CFF0880E3E81AA2
:10279000F10869A1062E000C770B60537109CE0178
:1027A00001960E94D311B701CE0107960E94D31162
:1027B000B801CE0143960E94D311BE016D5E7F4FDA
:1027C000CE010D960E940B12BE01695F7F4FCE01B4
:1027D0000D960E949F11BE016F5F7F4F0E949F1157
:1027E000BC01CE0149960E940B12CE010D960E94AB
:1027F0003612CE0143960E943612CE0107960E94F1
:102800003612CE0101960E9436120FB6F894DEBF42
:102810000FBECDBFCE0149960E942911CE01499627
:102820000E943612AF960FB6F894DEBF0FBECDBF32
:10283000DF91CF911F910F91FF90EF90DF90CF909C
:10284000BF90AF909F908F907F90089523E043E0DA
:1028500062E28BE00E948E0A23E043E062E288E0BD
:102860000E948E0A23E043E065E28BE00E948E0A1C
:1028700023E043E06FE11FCF23E043E062E28BE01F
:102880000E948E0A23E043E065E28BE00E948E0AFC
:1028900023E043E06FE18BE00E948E0A23E043E0F7
:1028A0006FE188E009CF23E043E062E28BE00E9421
:1028B0008E0A23E043E065E28BE00E948E0A23E06B
:1028C00043E06FE18BE00E948E0A23E043E06FE17A
:1028D000C2CE23E043E062E28BE00E948E0A23E056
:1028E00043E06FE1ACCE1F920F920FB60F9211240E
:1028F0002F933F938F939F93AF93BF938091BC018E
:102900009091BD01A091BE01B091BF013091BB017A
:1029100023E0230F2D3758F50196A11DB11D2093FB
:10292000BB018093BC019093BD01A093BE01B09305
:10293000BF018091C0019091C101A091C201B091ED
:10294000C3010196A11DB11D8093C0019093C101E7
:10295000A093C201B093C301BF91AF919F918F919A
:102960003F912F910F900FBE0F901F90189526E862
:10297000230F0296A11DB11DD2CF1F920F920FB649
:102980000F9211242F936F937F938F939F93609156
:10299000A102662349F18091BA018F5F8093BA0149
:1029A0009091A202891700F12091A40281E02827CA
:1029B0002093A4021092BA018091A302882369F0A7
:1029C0008091000193E4899F802D1124895B80937D
:1029D00000010E94C8269093A0028091A0022111BC
:1029E00001C080E08093B4009F918F917F916F919F
:1029F0002F910F900FBE0F901F901895CF93DF93DC
:102A0000CDB7DEB72F970FB6F894DEBF0FBECDBFA0
:102A1000789484B5826084BD84B5816084BD85B5B9
:102A2000826085BD85B5816085BD80916E008160C5
:102A300080936E001092810080918100826080936B
:102A4000810080918100816080938100809180006D
:102A50008160809380008091B10084608093B10098
:102A60008091B00081608093B00080917A00846092
:102A700080937A0080917A00826080937A008091BE
:102A80007A00816080937A0080917A0080688093D8
:102A90007A001092C10082E38093240581E090E0E7
:102AA000A0E0B0E08093200590932105A09322053B
:102AB000B09323058FEF80931505E0E8F7E72591A4
:102AC00034912130304C09F0D0C2E6E9F7E7E491C7
:102AD000E093FE04E7E9F7E7E491E093A904E8E96D
:102AE000F7E7E491E093AA04E9E9F7E78591949187
:102AF0009093AC048093AB04EBE9F7E78591949154
:102B00009093AE048093AD0487E08093D004EEE907
:102B1000F7E7E491E093CF04EFE9F7E7E491E0937E
:102B20001505E0EAF7E7859194919093C2048093AC
:102B3000C104E2EAF7E7859194919093C4048093ED
:102B4000C304E4EAF7E7859194919093C6048093D7
:102B5000C504E6EAF7E7859194919093C8048093C1
:102B6000C70411E01093A5046FEF70E085E00E94A8
:102B7000540588E08093AF0489E08093B00487E037
:102B80008093B10486E08093B20404E00093B30420
:102B900082E08093B40481E18093B5040E940D0526
:102BA0008CE39FE09093C0048093BF040093BE0425
:102BB0001093C9048BE0809301058DE0809300059C
:102BC00080E1809302058EE0809304058FE080937E
:102BD00003051093FB041093130510921405109332
:102BE000FA04ECEBF2E0E491EF5FE093F704EDEB35
:102BF000F2E0E491EF5FE093F8048EEB92E09093C3
:102C00001205809311051FB7F8948091C4018111BA
:102C100027C0EDEDF4E08491E1EFF4E09491E82F2A
:102C2000F0E0EE0FFF1FE658FF4FA591B491EC9135
:102C3000E92321F461E08AE00E94490461E08AE02E
:102C40000E94D1048CB580618CBD8CB580648CBD34
:102C500061E08DE00E94D10461E08BE00E94D1042C
:102C60008091C4018F5F8093C4011FBF8CB58F7D9D
:102C70008CBD8CB58C7F81608CBD8DB581608DBD28
:102C80008CB58C608CBD61E0809101050E94D104FF
:102C900061E0809100050E94D10461E0809102050D
:102CA0000E94D1048091040518161CF461E00E9472
:102CB000D1048091030518161CF461E00E94D10430
:102CC00080910405181674F460E00E9449046AE0DB
:102CD00070E080E090E00E941F0661E080910405B2
:102CE0000E94490480910005082E000C990BFC01FC
:102CF000ED52FB4FE491F0E0EE0FFF1FEC57FF4F5A
:102D0000259134913093080520930705FC01E95182
:102D1000FB4FE491E0930E0580910105082E000C15
:102D2000990BFC01ED52FB4FE491F0E0EE0FFF1F19
:102D3000EC57FF4F259134913093060520930505FC
:102D4000FC01E951FB4FE491E0930D0580910305EF
:102D5000082E000C990BFC01ED52FB4FE491F0E0C2
:102D6000EE0FFF1FEC57FF4F2591349130930A056A
:102D700020930905FC01E951FB4FE491E0930F0515
:102D800080910205082E000C990BFC01ED52FB4FBF
:102D9000E491F0E0EE0FFF1FEC57FF4F25913491C7
:102DA00030930C0520930B05FC01E951FB4FE49196
:102DB000E093100581E20E94770484E10E94770489
:102DC0008091FE0487FF03C08FE78093FE0480910B
:102DD000FE0480680E94770480E20E9477048CE001
:102DE0000E9477040E94960481E08093CE0484E0E0
:102DF0008093F20486E790E09093DA048093D904FC
:102E000060E08AEC94E00E94AF0661E070E083E04D
:102E10000E9454058091B100887F81608093B10049
:102E2000F894109280001092810010928500109208
:102E3000840088E191E090938900809388008091DC
:102E400081008860809381008091810081608093FF
:102E5000810080916F00826080936F0078948091F0
:102E6000C1049091C204892B11F00E94C305809186
:102E7000BB04813009F426C18091BE04882309F483
:102E800021C16EE870E08AEC94E00E946C06C0906C
:102E9000BF04D090C004C094D094F12CE12C0E94C7
:102EA000FA054B015C010E94FA05A50194012095E9
:102EB00030954095509560957095809590950E94BD
:102EC000B8269B01AC01C701B6010E94B8264B0190
:102ED0005C01C090A604D090A704F12CE12C0E94C4
:102EE000FA056C0D7D1D8E1D9F1D680D791D8A1DB7
:102EF0009B1D611571058105910511F00E94B62495
:102F000080911505882309F4F5C081E08093FB04C6
:102F10001092FA041092F9041092BD0480931305E4
:102F20008093140500E211E0ECE0FE2E0E94CE0C2E
:102F30008823E1F3F801E490E110E090F80460EBFD
:102F400070E080E00E94B30261E271E08CE08E0DDF
:102F50000E94B3021092FC04F092FD0460E271E062
:102F600083EF94E00E94C6038091F704982F990F95
:102F7000990F891B8D5A8093FC048091F804982F37
:102F8000990F990F891B835D8093FD04809116052D
:102F900084FF9BC08CEA90E00E94840C8091F7042F
:102FA000982F990F990F891B8D5A8093FC0480915B
:102FB000FD048F5F8093FD048091CF04882309F482
:102FC00087C084EA90E00E94840C8091F704982FD7
:102FD000990F990F891B8D5A8093FC048091FD04F1
:102FE0008F5F8093FD048CE990E00E94840C8091B7
:102FF000BB048130C1F48091CF048F5F6091D00415
:1030000087FD09C0082E000C990B70E06F5F7F4FA1
:103010000E94D426682F6093CF0462E674E08AECA5
:1030200094E00E946C068091BA04813009F453C088
:1030300080911505482F50E070E060E08090160503
:1030400090901705A0901805B09019058416950664
:10305000A606B70610F08F3FF1F58091BC048130D1
:1030600009F064CF0E94970C61CF9CE39093FE041B
:103070001092A9048093AA0480E293E09093AC0498
:103080008093AB0484ED93E09093AE048093AD0401
:1030900087E08093D0048093CF048CEA9DE09093E6
:1030A000C2048093C1048EED9DE09093C40480938C
:1030B000C30484E79EE09093C6048093C5048CE328
:1030C0009FE04BCD1092CF04E2CE88EA90E064CF2F
:1030D00080EA90E078CF8FEF809315058AEC94E03A
:1030E0000E945D061092CB0461E772E08AEC94E0E6
:1030F0000E946C061092BD0460E1262E312C75E012
:10310000472E512C80918F0281115EC081E0809307
:10311000070187ED91E030E020E0FC01E20FF31FB2
:1031200010822F5F3F4F2A303105B9F70A96F2E03F
:1031300087379F0781F7E7ECF1E0119221E0E73D47
:10314000F207D9F710928602109285020E94672436
:1031500027E030E040E050E00E94EF256F5F7F4FB6
:103160008F4F9F4F709304016093030141E050E043
:10317000509306014093050110928C0210928B022D
:1031800010928A021092890280918702909188029F
:103190009093090180930801880F991FFC01E25E5A
:1031A000FE4F80819181092E000CAA0BBB0B8093EE
:1031B000770290937802A0937902B0937A021092EA
:1031C0008E0281E080938F020E94CE0C182F8823FC
:1031D00009F4F8C050918D025F8780918E028111B1
:1031E0000C94142251110C9475210091BC040130EF
:1031F00041F463E472E08AEC94E00E946C06009370
:103200008D0280918502909186029E878D87181687
:1032100019060CF046C10E945106C0908102D09060
:103220008202E0908302F09084026C197D098E097D
:103230009F09683E73408105910508F4CBC047ECB7
:10324000A42E41E0B42E47ED51E0F50190E080E07E
:103250000AE0D190089F7001099FF00C112460E0F2
:1032600030E020E0D1100DC0BA01620F731FDB0106
:10327000CC90B701620F731F69527E4FDB01CC9275
:10328000612F2F5F3F4F2A30310561F761110196A1
:10329000465F5F4F27ED31E02E173F07D1F64AE03A
:1032A000489F9001499F300D112429523E4F803193
:1032B000910584F450E040E0B901640F751FDB0113
:1032C0001C924F5F5F4F4A305105B1F70196265F60
:1032D0003F4FEDCFD5011D925D01EA17FB07D1F7F6
:1032E00020918B0230918C02ED85FE852E0F3F1FC1
:1032F00030938C0220938B028091080190910901F8
:1033000061E070E0E130F10551F0AC014F5F5F4FDB
:103310004E9FB0014F9F700D5E9F700D1124409124
:10332000890250918A02460F571F50938A02409398
:1033300089026AE0689FA001699F500D112424173B
:103340003507F4F0893091052CF40196909309012A
:1033500080930801E0910801F0910901EE0FFF1F31
:10336000E25EFE4F80819181092E000CAA0BBB0BFF
:103370008093770290937802A0937902B0937A02B7
:1033800010928602109285020E943E120E94820BC9
:103390000E948E0B0E9451066093810270938202FC
:1033A00080938302909384028CE390E09093800258
:1033B00080937F0280918E02882321F082E090E04A
:1033C0000E94E40B80E090E0892B09F49BCE0E94E0
:1033D000000098CE0E943E120E94820B80917F02D4
:1033E00080FD0EC081E090E02091C5013091C601C2
:1033F000232B11F090E080E09093C6018093C501EB
:1034000097ECA92E91E0B92E27EDE22E21E0F22EC5
:103410001DE2D5018D915D01811126C08BE1982EB1
:10342000D12CC12CF701EC0DFD1D8081882341F0CA
:1034300003E023E0412F692D83EF94E00E941709F8
:10344000BFEFCB1ADB0AE3E09E0EF9E39F12EACF4F
:103450001350FAE0EF0EF11C1D3FD9F680917F0268
:10346000909180020197A2CF0BE1D02E8091C501EF
:103470009091C601892B61F423E043E0612F8D2DEB
:103480000E948E0A23E0D20E39E3D312EFCFE0CFB1
:1034900003E023E0412F6D2D83EF94E00E94170994
:1034A000F1CF8091B8048F3F51F163E00E94C826AC
:1034B000913029F580919E0290919F020997FCF42A
:1034C00080919A0290919B020997CCF48091960288
:1034D0009091970209979CF48091920290919302A7
:1034E00009976CF470E060E081E090E00E94BA0A15
:1034F000811105C081E090E00E94BF0B1F87809181
:10350000B6048F3F91F063E00E94C826913069F4C1
:1035100070E060E08FEF9FEF0E94BA0A811105C052
:103520008FEF9FEF0E94BF0B1F878091B9048150DE
:103530008E3F90F480919C0290919D02181619067E
:103540005CF46FEF7FEF90E080E00E94BA0A811197
:1035500003C00E94A9031F878091BA048130E9F457
:10356000609005017090060144E0641671040CF04F
:1035700073C05FEF651A750A809101019091020195
:103580008430910509F426C20CF06AC0813091059F
:1035900009F494C0039709F408C10E9451066B0115
:1035A0007C01BF85B11131C080917B0290917C027A
:1035B000A0917D02B0917E02B701A601481B590B74
:1035C0006A0B7B0B8091770290917802A09179022F
:1035D000B0917A02481759076A077B07B0F08091CB
:1035E0000701811108C06FEF7FEF90E080E00E943B
:1035F000BA0A81112DC40E94A903C0927B02D09205
:103600007C02E0927D02F0927E0280918502909190
:103610008602892B09F0DFC480910701882309F411
:10362000DAC4A1E0B0E0B0930601A0930501809157
:10363000030190910401FC013197E730F10508F096
:103640002FC6EB5DF44E0C94E826AF1F7C209D2026
:10365000C020E7200E212D2166246394712C8CCF8D
:103660008630910509F446C30CF474C2079709F03B
:1036700094CFC3018D7F019709F0C1C3E0909C02F4
:10368000F0909D0247013FEF831A930AC0909E027B
:10369000D0909F02B401C6010E946F0B81117DCFB3
:1036A000860101501109B701C8010E946F0B8111F9
:1036B00074CF570141E0A41AB1083FC3E0909C02C7
:1036C000F0909D0200919E0210919F0282E0681688
:1036D000710421F094E069167104A9F55801AFEF67
:1036E000AA1ABA0AB701C5010E946F0B811155CF02
:1036F0006801B1E0CB1AD108B701C6010E946F0B77
:1037000081114BCF02501109B701C8010E946F0B04
:10371000811143CFF0929902E0929802B0929B02FD
:10372000A0929A02F0929502E0929402D0929702AF
:10373000C0929602F0929102E0929002109393024E
:1037400000939202A8C06701E2E0CE0ED11CB60140
:10375000C8010E946F0B811120CF5701FFEFAF1AF4
:10376000BF0AB501C8010E946F0B811116CF21E07D
:10377000E21AF108B701C8010E946F0B81110DCF49
:10378000F0929902E092980210939B0200939A02A1
:10379000B0929502A0929402109397020093960221
:1037A000D0929102C0929002C9CF31E063167104A9
:1037B00079F5E0909C02F0909D0200919E0210919C
:1037C0009F02480141E0841A9108B701C4010E9498
:1037D0006F0B8111E2CE57015FEFA51AB50AB50153
:1037E000C8010E946F0B8111D8CE670181E0C81A11
:1037F000D108B601C8010E946F0B8111CECEF092A4
:103800009902E092980290929B0280929A02C0CF15
:1038100092E06916710409F045C000919C02109174
:103820009D02E0909E02F0909F024701A1E08A1A5B
:103830009108B801C4010E946F0B8111AECE5701EF
:10384000BFEFAB1ABB0AB801C5010E946F0B811113
:10385000A4CE6801EFEFCE1ADE0AB601C7010E94BE
:103860006F0B81119ACE1093990200939802909257
:103870009B0280929A021093950200939402B09258
:103880009702A0929602D0929102C0929002F0927A
:103890009302E09292020E942B0C709206016092B9
:1038A00005017BCEF3E06F16710409F047C0E0908C
:1038B0009C02F0909D0247012FEF821A920A00911C
:1038C0009E0210919F02B401C8010E946F0B8111EA
:1038D00064CE570131E0A31AB108B501C8010E94B6
:1038E0006F0B81115ACE68014FEFC41AD40AB70189
:1038F000C6010E946F0B811150CE90929902809266
:10390000980210939B0200939A02B0929502A092A3
:1039100094021093970200939602F0929102E09223
:103920009002D0929302C09292020E942B0C83E0EC
:1039300090E090930601809305012FCE54E0651628
:10394000710409F02ACE00919C0210919D02E09032
:103950009E02F0909F02470181E0881A9108B80109
:10396000C4010E946F0B811118CE57019FEFA91A55
:10397000B90AB801C5010E946F0B81110ECE680112
:10398000A1E0CA1AD108B601C7010E946F0B8111CC
:1039900004CE109399020093980290929B02809219
:1039A0009A021093950200939402B0929702A0920B
:1039B0009602D0929102C0929002F0929302E0920D
:1039C00092020E942B0CE4E0F0E0F0930601E093F9
:1039D0000501E3CDF1E06F16710409F03DC00091DF
:1039E0009C0210919D02580121E0A21AB108E090BA
:1039F0009E02F0909F02B501C7010E946F0B8111DA
:103A0000CCCD0F5F1F4FB801C7010E946F0B67013C
:103A100031E0C31AD1088111C0CDB801C6010E949E
:103A20006F0B8111BACDB0929902A0929802F092D8
:103A30009B02E0929A021093950200939402F092F6
:103A40009702E09296021093910200939002D09216
:103A50009302C09292021FCF42E06416710489F56E
:103A6000E0909C02F0909D0200919E0210919F02B6
:103A7000580151E0A51AB108B701C5010E946F0BAA
:103A800081118BCD0F5F1F4FB701C8010E946F0BD3
:103A9000811183CD67018FEFC81AD80AB601C8011A
:103AA0000E946F0B811179CDF0929902E0929802F9
:103AB000B0929B02A0929A02F0929502E092940238
:103AC0006BCE93E06916710401F500919C02109190
:103AD0009D025801AFEFAA1ABA0AE0909E02F09038
:103AE0009F02B501C7010E946F0B811156CD015095
:103AF0001109B801C7010E946F0B6701BFEFCB1A14
:103B0000DB0A882309F489CF48CDE4E06E167104FE
:103B100009F043CDE0909C02F0909D0200919E023E
:103B200010919F025801FFEFAF1ABF0AB701C501FC
:103B30000E946F0B811131CD01501109B701C801ED
:103B40000E946F0B670121E0C21AD108882309F493
:103B5000A5CF23CD31E063167104F9F400919C02E6
:103B600010919D02580141E0A41AB108E0909E0214
:103B7000F0909F02B501C7010E946F0B81110DCD1E
:103B80000F5F1F4FB801C7010E946F0B811105CD58
:103B900067015FEFC51AD50A40CF82E0681671044D
:103BA00001F5E0909C02F0909D0200919E02109120
:103BB0009F02580191E0A91AB108B701C5010E94FE
:103BC0006F0B8111EACC0F5F1F4FB701C8010E9434
:103BD0006F0B6701A1E0CA1AD108882309F45ECFF0
:103BE000DCCCB3E06B16710409F03DC000919C027F
:103BF00010919D026801EFEFCE1ADE0AE0909E025E
:103C0000F0909F02B601C7010E946F0B8111C5CCD5
:103C100001501109B801C7010E946F0B8111BDCC81
:103C20005701F1E0AF1AB108B801C5010E946F0B4E
:103C30008111B3CCD0929902C0929802F0929B026B
:103C4000E0929A021093950200939402F0929702E8
:103C5000E09296021093910200939002B092930228
:103C6000A092920262CE24E06216710409F095CC13
:103C700000919C0210919D02E0909E02F0909F02A4
:103C800067013FEFC31AD30AB801C6010E946F0B48
:103C9000811183CC41E0E41AF108B801C7010E9408
:103CA0006F0B81117ACCB80161507109C6010E9475
:103CB0006F0B811172CC1093990200939802D092ED
:103CC0009B02C0929A021093950200939402F09284
:103CD0009702E09296020F5F1F4F1093910200939C
:103CE0009002F0929302E09292020E942B0C84E0E8
:103CF00090E01FCEC3018D7F0197D1F5E0909C022B
:103D0000F0909D0247019FEF891A990AC0909E0288
:103D1000D0909F02B401C6010E946F0B81113DCC6F
:103D200086010F5F1F4FB701C8010E946F0B57013B
:103D3000A1E0AA1AB108811130CCB501C8010E94D6
:103D40006F0B81112ACC9092990280929802D092A6
:103D50009B02C0929A02F0929502E0929402109314
:103D6000970200939602B0929102A0929002E6CC44
:103D7000B2E06B16710429F0E4E06E16710409F0EC
:103D80000CCCC0909C02D0909D02E0909E02F090DE
:103D90009F024701FFEF8F1A9F0AB601C4010E94DC
:103DA0006F0B8111FACB860101501109B801C701CF
:103DB0000E946F0B570121E0A21AB1088111EDCBCF
:103DC000B801C5010E946F0B8111E7CBD092990217
:103DD000C092980290929B0280929A021093950250
:103DE00000939402F0929702E0929602109391024F
:103DF00000939002B0929302A09292024CCD52E0B6
:103E00006516710429F084E06816710409F0C5CBC9
:103E1000C0909C02D0909D02E0909E02F0909F0284
:103E200047019FEF891A990AB601C4010E946F0BDE
:103E30008111B3CB86010F5F1F4FB801C7010E94EC
:103E40006F0B8111AACB5701A1E0AA1AB108B8CF14
:103E500000919C0210919D020F30110524F081E029
:103E600080938E02CACB83E090E00E94E40B9AE03C
:103E7000909FF001919FF00D1124E952FE4F209187
:103E80009E0230919F02E20FF31F81E08083209118
:103E9000980230919902929FF001939FF00D1124A6
:103EA000E952FE4F20919A0230919B02E20FF31FDC
:103EB00080832091940230919502929FF001939F0C
:103EC000F00D1124E952FE4F209196023091970295
:103ED000E20FF31F80832091900230919102929F14
:103EE000F001939FF00D1124E952FE4F20919202B0
:103EF00030919302E20FF31F808380930701E7EC78
:103F0000F1E027ED31E090E080E0D901A80FB91F82
:103F10004C91442361F001968A309105B1F74D85AB
:103F20005E854F5F5F4F5E874D8781E001C080E017
:103F30008193265F3F4F47ED51E04E175F0719F71A
:103F40008D859E85909386028093850218161906AA
:103F50000CF053CB90E080E00E94E40B4ECBE2E10A
:103F6000F0E0F0939D02E0939C0250929F024092F9
:103F70009E0223E130E03093990220939802509200
:103F80009B0240929A0241E150E050939502409387
:103F9000940250929702409296023092910220929F
:103FA0009002509293024092920290930201809369
:103FB00001010E94672427E030E040E050E00E94C9
:103FC000EF256F5F7F4F8F4F9F4F7093040160937A
:103FD0000301109207010E943E120E94820B609121
:103FE0009C0270919D0260317105CCF46F5F7F4F30
:103FF000CB01880F991F880F991F681B790B605D93
:104000007F4F20919E0230919F02C901880F991F16
:10401000820F931F23E043E0855E0E948E0A609129
:1040200098027091990260317105CCF46F5F7F4FF7
:10403000CB01880F991F880F991F681B790B605D52
:104040007F4F20919A0230919B02C901880F991FDE
:10405000820F931F23E043E0855E0E948E0A6091E9
:1040600094027091950260317105CCF46F5F7F4FBF
:10407000CB01880F991F880F991F681B790B605D12
:104080007F4F2091960230919702C901880F991FA6
:10409000820F931F23E043E0855E0E948E0A6091A9
:1040A00090027091910260317105CCF46F5F7F4F87
:1040B000CB01880F991F880F991F681B790B605DD2
:1040C0007F4F2091920230919302C901880F991F6E
:1040D000820F931F23E043E0855E0E948E0A0E94B8
:1040E0008E0B0E945106609381027093820280932E
:1040F0008302909384025EC930929D0220929C02BA
:10410000A4E0B0E0B0939F02A0939E023092990287
:104110002092980250929B0240929A02E1E1F0E0D4
:10412000F0939502E0939402B0939702A0939602C5
:10413000F0939102E093900234CF30929D0220924E
:104140009C0250929F0240929E02309299022092CD
:10415000980224E030E030939B0220939A0241E1E0
:1041600050E05093950240939402509297024092EF
:104170009602AFE0B0E0B0939102A093900211CF0D
:10418000E1E1F0E0F0939D02E0939C0250929F02E7
:1041900040929E02309299022092980250929B0285
:1041A00040929A0222E130E03093950220939402EB
:1041B000509297024092960230939102209390027F
:1041C00044E050E05093930240939202EECEA1E17E
:1041D000B0E0B0939D02A0939C0250929F02409247
:1041E0009E02309299022092980250929B02409235
:1041F0009A02E2E1F0E0F0939502E093940250928B
:10420000970240929602F0939102E093900226E08A
:1042100030E03093930220939202C7CE30929D02F9
:1042200020929C0244E050E050939F0240939E02F3
:10423000A1E1B0E0B0939902A093980250939B0241
:1042400040939A02309295022092940250929702E3
:1042500040929602EFE0F0E06BCF30929D02209208
:104260009C0250929F0240929E0221E130E03093E6
:1042700099022093980250929B0240929A023092A7
:1042800095022092940244E050E0509397024093AC
:104290009602AFE0B0E0B0939102A093900292CF6B
:1042A00030929D0220929C0250929F0240929E0268
:1042B0003092990220929802E6E0F0E0F0939B029F
:1042C000E0939A0221E130E030939502209394022A
:1042D000509297024092960230939102209390025E
:1042E000F0939302E093920260CE85E08093FC0409
:1042F00081E08093FD046DE572E083EF94E00E941D
:10430000C6034FE06FE08AE00E94C00747E167E123
:104310008CE10E94C0071092FC0481E18093FD04AF
:104320006091870270918802CE0101960E94D3119C
:1043300066E971E0CE0107960E942512BE016F5F0B
:104340007F4FCE0107960E949F110E941704CE0155
:1043500007960E943612CE0101960E9436121092E4
:10436000FC0488E28093FD046BE472E083EF94E048
:104370000E94C6038091B704813061F48091870266
:1043800090918802893091052CF4019690938802CF
:10439000809387028091B904813061F48091870213
:1043A00090918802823091052CF0019790938802B9
:1043B000809387028091BA04813091F461E772E0C2
:1043C0008AEC94E00E946C068091870290918802AA
:1043D000909309018093080110928F0210928D0230
:1043E0008091BB04813081F461E772E08AEC94E053
:1043F0000E946C06809108019091090190938802B7
:104400008093870210928D028091BC04813011F05C
:104410000C94E21961E772E08AEC94E00E946C0669
:104420000E94970C0C94E2195F8551115ECF86E1D2
:104430008093FC0481E08093FD0462E872E083EFE6
:1044400094E00E94C6031092FC048AE08093FD046D
:104450006091080170910901CE0101960E94D3116B
:104460006EE971E0CE0107960E942512BE016F5FD2
:104470007F4FCE0107960E949F118C0141E050E0D2
:1044800067EA71E00E946111811103C0C8010E94B6
:104490008D11C8010E941704CE0107960E943612A2
:1044A000CE0101960E9436121092FC0484E18093A2
:1044B000FD0460918B0270918C02CE0101960E94E6
:1044C000D31169EA71E0CE0107960E942512BE0160
:1044D0006F5F7F4FCE0107960E949F110E941704C5
:1044E000CE0107960E943612CE0101960E94361226
:1044F0001092FC048EE18093FD046091890270911A
:104500008A02CE0101960E94D31161EB71E0CE01C7
:1045100007960E942512BE016F5F7F4FCE0107965E
:104520000E949F110E941704CE0107960E94361226
:10453000CE0101960E9436121092FC0488E280930C
:10454000FD0469E772E083EF94E00E94C603809166
:10455000BB04813011F00C94E21961E772E08AEC3F
:1045600094E00E946C0610928F0210928E020C94BE
:10457000E21987E8E5EAF4E0DF011D928A95E9F7A0
:104580001092F6041092F50488E191E09093F404FF
:104590008093F3048091080190910901909388021F
:1045A00080938702880F991FFC01E05EFE4F808197
:1045B0009181092E000CAA0BBB0B8093770290937C
:1045C0007802A0937902B0937A028CE390E0909302
:1045D000800280937F020E94510660938102709353
:1045E0008202809383029093840208950F931F9315
:1045F000CF93DF938230910510F482E090E0E09158
:104600002E05F0912F0530E020E0B0E0A0E03097DB
:1046100099F42115310509F44AC0281B390B2430BF
:104620003105D8F58A819B816115710589F1FB01FE
:1046300093838283FE0111C04081518102811381E5
:1046400048175907E0F04817590799F4109761F097
:1046500012960C93129713961C933296CF01DF910A
:10466000CF911F910F91089500932E0510932F0560
:10467000F4CF2115310551F04217530738F0A90145
:10468000DB019A01BD01DF01F801C1CFEF01F9CFD4
:1046900090932F0580932E05CDCFFE01E20FF31FDF
:1046A000819391932250310939832883D7CF209168
:1046B0002C0530912D05232B41F420910C013091D4
:1046C0000D0130932D0520932C0520910A01309186
:1046D0000B012115310541F42DB73EB740910E0174
:1046E00050910F01241B350BE0912C05F0912D0505
:1046F000E217F307A0F42E1B3F0B2817390778F0B9
:10470000AC014E5F5F4F2417350748F04E0F5F1F17
:1047100050932D0540932C05819391939FCFF0E00A
:10472000E0E09CCFCF93DF930097E9F0FC01329754
:1047300013821282A0912E05B0912F05ED0130E079
:1047400020E01097A1F420813181820F931F2091E6
:104750002C0530912D052817390709F061C0F09319
:104760002D05E0932C05DF91CF910895EA01CE1736
:10477000DF07E8F54A815B819E0141155105B1F7DC
:10478000E901FB83EA8349915991C40FD51FEC17C6
:10479000FD0761F4808191810296840F951FE901E4
:1047A00099838883828193819B838A83F0E0E0E010
:1047B00012968D919C9113970097B9F52D913C918C
:1047C0001197CD010296820F931F20912C053091F5
:1047D0002D052817390739F6309751F510922F0516
:1047E00010922E05B0932D05A0932C05BCCFD3833A
:1047F000C28340815181840F951FC817D90761F486
:104800004E5F5F4F88819981480F591F51834083C4
:104810008A819B81938382832115310509F0B0CF72
:10482000F0932F05E0932E059ECFFD01DC01C0CF54
:1048300013821282D7CF8F929F92AF92BF92CF9264
:10484000DF92EF92FF92CF93DF93EC016881798141
:104850008A819B81611571058105910521F464E2CE
:1048600079ED8BE597E02DE133EF41E050E00E94D8
:10487000EF2549015A019B01AC01A7EAB1E40E946E
:104880000E266B017C01ACEEB4EFA50194010E94F1
:104890001C26C60ED71EE81EF91EF7FE06C081E0D4
:1048A000C81AD108E10880E8F80AC882D982EA82E9
:1048B000FB82C701B6019F77DF91CF91FF90EF9008
:1048C000DF90CF90BF90AF909F908F9008958F9280
:1048D0009F92AF92BF92CF92DF92EF92FF92609140
:1048E00010017091110180911201909113016115D5
:1048F00071058105910521F464E279ED8BE597E07E
:104900002DE133EF41E050E00E94EF2549015A01CB
:104910009B01AC01A7EAB1E40E940E266B017C0169
:10492000ACEEB4EFA50194010E941C26C60ED71E62
:10493000E81EF91EF7FE06C081E0C81AD108E1089A
:1049400080E8F80AC0921001D0921101E0921201A1
:10495000F0921301C701B6019F77FF90EF90DF90AF
:10496000CF90BF90AF909F908F900895609310016B
:104970007093110180931201909313010895BB2746
:104980004A3031F4992322F4BDE2909581959F4FEE
:104990000C94CB24BB27FB015527AA27880F991F0E
:1049A000AA1FA41710F0A41B83955051B9F7A05D5E
:1049B000AA3308F0A95DA193009779F7B111B193DB
:1049C0001192CB010C94E424DC01FC01672F71915E
:1049D0007723E1F7329704C07C916D9370836291E5
:1049E000AE17BF07C8F30895E89409C097FB3EF4DB
:1049F00090958095709561957F4F8F4F9F4F99232C
:104A0000A9F0F92F96E9BB279395F69587957795A9
:104A10006795B795F111F8CFFAF4BB0F11F460FF69
:104A20001BC06F5F7F4F8F4F9F4F16C0882311F0C1
:104A300096E911C0772321F09EE8872F762F05C0D5
:104A4000662371F096E8862F70E060E02AF09A9570
:104A5000660F771F881FDAF7880F9695879597F965
:104A600008950E9444250C94B5250E94A72538F08E
:104A70000E94AE2520F0952311F00C949E250C94F5
:104A8000A42511240C94E9250E94C62570F3959F56
:104A9000C1F3950F50E0551F629FF001729FBB2735
:104AA000F00DB11D639FAA27F00DB11DAA1F649FD1
:104AB0006627B00DA11D661F829F2227B00DA11D84
:104AC000621F739FB00DA11D621F839FA00D611D0A
:104AD000221F749F3327A00D611D231F849F600D2B
:104AE000211D822F762F6A2F11249F5750409AF054
:104AF000F1F088234AF0EE0FFF1FBB1F661F771FE0
:104B0000881F91505040A9F79E3F510580F00C94AA
:104B10009E250C94E9255F3FE4F3983ED4F38695F7
:104B200077956795B795F795E7959F5FC1F7FE2B4A
:104B3000880F911D9695879597F9089597F99F6726
:104B400080E870E060E008959FEF80EC0895002415
:104B50000A941616170618060906089500240A94E2
:104B600012161306140605060895092E0394000C68
:104B700011F4882352F0BB0F40F4BF2B11F460FFF7
:104B800004C06F5F7F4F8F4F9F4F089557FD905820
:104B9000440F551F59F05F3F71F04795880F97FB01
:104BA000991F61F09F3F79F08795089512161306BB
:104BB0001406551FF2CF4695F1DF08C016161706EA
:104BC0001806991FF1CF869571056105089408951F
:104BD000E894BB2766277727CB0197F90895052E20
:104BE00097FB1EF400940E94062657FD07D00E94F2
:104BF000582607FC03D04EF40C9406265095409599
:104C0000309521953F4F4F4F5F4F08959095809578
:104C1000709561957F4F8F4F9F4F08950E947A2620
:104C2000A59F900DB49F900DA49F800D911D112400
:104C30000895B7FF0C940E260E940E26821B930B3C
:104C400008952F923F924F925F926F927F928F9230
:104C50009F92AF92BF92CF92DF92EF92FF920F930B
:104C60001F93CF93DF93CDB7DEB7CA1BDB0B0FB615
:104C7000F894DEBF0FBECDBF09942A8839884888D2
:104C80005F846E847D848C849B84AA84B984C88468
:104C9000DF80EE80FD800C811B81AA81B981CE0F5F
:104CA000D11D0FB6F894DEBF0FBECDBFED01089544
:104CB000A1E21A2EAA1BBB1BFD010DC0AA1FBB1F20
:104CC000EE1FFF1FA217B307E407F50720F0A21B92
:104CD000B30BE40BF50B661F771F881F991F1A94FF
:104CE00069F760957095809590959B01AC01BD0129
:104CF000CF010895A29FB001B39FC001A39F700D83
:104D0000811D1124911DB29F700D811D1124911DD3
:104D100008950E94CE2588F09F5798F0B92F9927C3
:104D2000B751B0F0E1F0660F771F881F991F1AF096
:104D3000BA95C9F714C0B13091F00E94E825B1E0EE
:104D400008950C94E825672F782F8827B85F39F0ED
:104D5000B93FCCF3869577956795B395D9F73EF42F
:104D600090958095709561957F4F8F4F9F4F0895D7
:104D7000DB018F939F930E940E26BF91AF91A29F5C
:104D8000800D911DA39F900DB29F900D1124089549
:104D9000991B79E004C0991F961708F0961B881F8D
:104DA0007A95C9F78095089597FB072E16F400941D
:104DB00007D077FD09D00E94EE2607FC05D03EF40F
:104DC000909581959F4F0895709561957F4F0895B7
:104DD000EE0FFF1F0590F491E02D0994AA1BBB1B59
:104DE00051E107C0AA1FBB1FA617B70710F0A61BEB
:104DF000B70B881F991F5A95A9F780959095BC010C
:104E0000CD010895B0E0A0E0E8E0F7E20C9423269D
:104E10008C01009751F4CB010E94F6228C01C8014D
:104E2000CDB7DEB7E0E10C943F26FC01E60FF71F9B
:104E30009C0122503109E217F30708F49DC0D90103
:104E4000CD91DC911197C617D70798F0C530D105E1
:104E500030F3CE0104978617970708F3C61BD70BCC
:104E60002297C193D1936D937C93CF010E9492239B
:104E7000D6CF5B01AC1ABD0A4C018C0E9D1EA091D1
:104E80002E05B0912F05512C412CF12CE12C1097BF
:104E900031F580912C0590912D058815990509F023
:104EA0005CC04616570608F058C080910A019091E0
:104EB0000B01009741F48DB79EB740910E015091C0
:104EC0000F01841B950BE817F90708F055C0F09304
:104ED0002D05E0932C05F90171836083A0CF8D919E
:104EE0009C91119712966C90129713967C90139741
:104EF000A815B90559F56C0142E0C40ED11CCA14BD
:104F0000DB0420F1AC014A195B09DA01129615970E
:104F100080F06282738251834083D9016D937C93C8
:104F2000E114F10471F0D7011396FC93EE931297FC
:104F300076CF22968C0F9D1FF90191838083F30118
:104F4000EFCFF0932F05E0932E0569CF4816590651
:104F500008F42C017D01D3019ACFCB010E94F622E7
:104F60007C01009749F0AE01B8010E94BF27C8013B
:104F70000E949223870153CF10E000E050CFFB0145
:104F8000DC0102C001900D9241505040D8F70895C5
:104F9000FB01DC0101900D920020E1F70895AEE0E5
:104FA000B0E0E5EDF7E20C942F260D891E8986E02E
:104FB0008C831A8309838FEF9FE79E838D83AE01D5
:104FC000475E5F4F6F89788DCE0101960E94F22770
:104FD0002F813885020F131FF80110822E96E4E00E
:104FE0000C944B26ABE0B0E0E8EFF7E20C942126FE
:104FF0007C013B018A01FC0117821682838181FFBB
:10500000C8C1CE0101965C01F7019381F30193FDC4
:10501000859193FF81913F01882309F453C1853223
:1050200039F493FD859193FF81913F01853229F4F5
:10503000B70190E00E94E229E7CF912C212C312C7E
:10504000FFE1F31538F08B3211F190F4803209F161
:10505000833229F137FC3CC020ED280F2A3050F56F
:1050600036FE20C08AE0989E200D1124922E06C0A4
:105070008D3291F0803371F7689430F8F30193FD2D
:10508000859193FF81913F018111DACF21C068940E
:1050900031F8689432F8F2CF689433F8EFCF68941F
:1050A00034F8ECCFEAE02E9E200D1124222E6894D5
:1050B00035F8E4CF8E3229F436FC04C1689436F812
:1050C000DDCF8C3619F4689437F8D8CF8836B1F232
:1050D000982F9F7D95549330E0F08336A1F183376C
:1050E000C1F1833509F063C02801F2E04F0E511C75
:1050F000F801C080D180692D70E036FC02C06FEFEE
:105100007FEFC6010E94CC294C01689437F88201D8
:105110000AC00C5F1F4FFFE3F98388248394912C0E
:105120006501E89437F833FE2DC0522C81149104A8
:1051300071F5552009F468CFB70180E290E00E9434
:10514000E2295A94F6CFF801808189830E5F1F4FC0
:10515000E4CF2801F2E04F0E511CF801C080D1804D
:10516000692D70E036FC02C06FEF7FEFC6010E9430
:10517000D7294C018201D5CFB70180E290E00E948F
:10518000E2292A942814190409F0B0F7CECFF601C9
:1051900037FC859137FE81916F01B70190E00E9445
:1051A000E22951105A94F1E08F1A9108BFCF84364A
:1051B00019F0893609F077C0F80137FE6BC06081BD
:1051C0007181828193810C5F1F4FF32DFF763F2EFB
:1051D00097FF09C090958095709561957F4F8F4F8F
:1051E0009F4F689437F82AE030E0A5010E94122A08
:1051F000C82ECA188C2C432C36FE0CC0E89440F8FC
:10520000C91440F434FE05C032FC03C0F32DFE7E09
:105210004F2E892C44FE95C0FE01EC0DF11D8081BE
:10522000803309F087C0242D297E422E842D88707A
:10523000582E43FC95C040FE8FC09C2C821418F45D
:105240002C0C922C981844FE91C0B70180E390E09A
:105250000E94E22942FE09C088E790E041FE02C0B8
:1052600088E590E0B7010E94E229C91408F48AC0D9
:10527000CA94D12C9FEFC91AD90ACA0CDB1CF601BB
:1052800082916F01B70190E00E94E229AC14BD0445
:10529000B1F74FCF60817181072E000C880B990BFD
:1052A0000E5F1F4F92CFD32CE894D4F82AE030E061
:1052B000853739F1232D297FD22E8F3601F148F41D
:1052C0008835A9F0F701868197812B96E2E10C944D
:1052D0003D26803749F08837A9F7D4FE02C068948C
:1052E000D2F820E130E00DC06894D4F8F6CF34FE57
:1052F00003C0822F8660D82E20E132E002C028E071
:1053000030E0F801D7FE0FC0608171818281938106
:105310000C5F1F4FA5010E94122AC82ECA183D2CEF
:10532000E89437F867CF6081718190E080E00E5F8C
:105330001F4FF0CF42FC02C0839478CF83948394B4
:1053400075CF842D867809F471CFF6CFB70180E24E
:1053500090E00E94E22983948214C0F3512C73CF11
:10536000522C5818821408F46ECFF8CF842D86780A
:1053700009F47BCF8BE241FE80E247FC8DE2B7016E
:1053800090E071CFB70180E390E00E94E2299A9407
:105390006CCF8FEF9FEF99CFFC010590615070406B
:1053A0000110D8F7809590958E0F9F1F0895FC01EE
:1053B0006150704001900110D8F7809590958E0F44
:1053C0009F1F08950F931F93CF93DF93182F092FDB
:1053D000EB018B8181FD09C01FEF0FEF812F902F13
:1053E000DF91CF911F910F91089582FF14C02E81FC
:1053F0003F818C819D81281739073CF4E881F98130
:10540000CF0101969983888310838E819F810196B5
:105410009F838E83E3CFE885F985812F0995892BBA
:10542000A1F3DACFFA01AA27283051F1203181F116
:10543000E8946F936E7F6E5F7F4F8F4F9F4FAF4F9C
:10544000B1E03ED0B4E03CD0670F781F891F9A1FAF
:10545000A11D680F791F8A1F911DA11D6A0F711D63
:10546000811D911DA11D20D009F468943F912AE06F
:10547000269F11243019305D3193DEF6CF01089557
:10548000462F4770405D4193B3E00FD0C9F7F6CF88
:10549000462F4F70405D4A3318F0495D31FD405250
:1054A000419302D0A9F7EACFB4E0A69597958795E6
:1054B00077956795BA95C9F70097610571050895C5
:1054C0009B01AC010A2E0694579547953795279571
:1054D000BA95C9F7620F731F841F951FA01D089509
:0454E000F894FFCF6E
:1054E40001010001000100010100000030058000FD
:1054F40001000000000000004009EA03E10BE00B9A
:105504002003EE02BC028A025802F40190012C012D
:10551400C800000022004B00010000000100070049
:105524000B00000021003500010000000500070009
:10553400030000001E0022000A0000000100070012
:105544001900010001000000000000000000070035
:1055540002000D0A004C4F414445520053434F5240
:10556400450025303569004E455854004C766C2E64
:105574000025303369004C4556454C3A20004C65B3
:1055840076656C3A205B005D004C696E65733A2069
:0A5594000053636F72653A200000B7
:00000001FF
