:100000000C945F100C9487100C9487100C9487103C
:100010000C9487100C9487100C9487100C94871004
:100020000C9487100C9487100C9487100C94662104
:100030000C9487100C9487100C9487100C948710E4
:100040000C941C210C9487100C9487100C9487102E
:100050000C9487100C9487100C9487100C948710C4
:100060000C9487100C9487100101FF030101F70322
:100070002020202020202020203E20202020202062
:100080002323232020202020202020202020203453
:1000900020202020202023236F6F20402023232393
:1000A0002323232323232323232323232323232320
:1000B0002020202020202020203E20202020202022
:1000C0002323232020202020202020202020203413
:1000D00020202020202023236F6F2040202020205C
:1000E00023232323232323232323232323232323E0
:1000F00020202020202020202020202034202020EC
:100100002020482323234820202048202020482046
:100110002020482020202020402048206F206F20D1
:10012000232323232323232323232323232323239F
:1001300020202020202020202020202034202020AB
:100140002020202323234820202020202020482056
:100150002020202020202020402020206F206F20E1
:10016000232323232323232323232323232323235F
:10017000202020202020202020202020202020207F
:1001800040202020202020206F2020202020202000
:100190006F6F2020202034206F6F6F2020232323B7
:1001A0006F6F6F6F202323232323232323232323F2
:1001B000202020202020202020202020202020203F
:1001C000202020202020202020202020202020202F
:1001D00040202020202034206F2020202023232393
:1001E0006F2020202023232323232323232323239F
:1001F00034202020202020202348202020202020C0
:1002000020482023206F202020482023206F2020FA
:100210002323232323234823202020202020482079
:100220006F2040202320482023232323232323231C
:100230004020202020202020234820202020202073
:100240006F482023202020206F48202320202020BA
:100250002323232323234823202020202020482039
:100260002020342023204820232323232323232337
:100270003420202020202020232323232323232055
:10028000206F6F20202020202023232323232323BB
:1002900020202020206F6F202323232323232320AB
:1002A000406F6F2020202020232323232323232378
:1002B00034202020202020202323232323236F20C9
:1002C00020206F2020202020206F2323232323237E
:1002D00020202020206F20202323232323236F206E
:1002E00040206F2020202020232323232323232387
:1002F00020202020203420202020202023232348B9
:100300006F202020202323486F20402020205848A1
:100310002323232323482323232323232348232363
:1003200023232D2020482323232323232323232374
:100330002020202020342020202020202323234878
:100340006F202020202323486F2040202020584861
:100350002323232323482323232323232348232323
:1003600023236F20204823232323232323232323F2
:10037000202020202020342020202020402023481E
:10038000202023202D2023482020232323232348FB
:100390002020202058202048206F2D202320204876
:1003A000232323232323232323232323232323231D
:1003B00020202020202334202020582040202348A3
:1003C000202023206F6F234820202323232323482A
:1003D00020202020582020482D6F2D202320202051
:1003E00023232323232323232323232323232323DD
:1003F000202020202020202020203D2020202020E0
:100400004823232020202020482020202020202096
:1004100048403D202020342023232323202323234E
:10042000232323232023232323232323232323239F
:1004300020203D202020202020206F202020202050
:100440004823232020202020482020202020202056
:10045000484020202020342023232323202323232B
:10046000232323232023232323232323232323235F
:10047000202020202034202020482323202323480C
:1004800020482023202020482048202320202048C6
:100490004048202320206F202320202320206F206D
:1004A000232020232020206F2323232323232323DF
:1004B000202020582034582020482323202323485C
:1004C0002048202320202D48204820232020204879
:1004D0004048202320206F206F20202320206F20E1
:1004E0006F202D232020206F232323232323232346
:1004F000202D20203420202048232320232023487F
:100500004820202023232348202D2020202020485D
:10051000202348232020204820204820402020203D
:1005200023232323234820206F6F6F585848232309
:10053000202D202034205820482323202320234806
:100540004820202023232348202D2020202020481D
:1005500020234823202020482020482040202020FD
:1005600023232323234820206F6F6F5858482D23BF
:10057000202020206F2020202020206F20202320DA
:1005800020206F2020232320206F202023232020C1
:100590006F202023232020206F4023232020202091
:1005A000202323202020202023233420202020202B
:1005B000202020206F2020202020206F202023209A
:1005C00020206F2020232320206F20202323202081
:1005D0002D202023232020206F4023232020202093
:1005E00020232320202020202323345820202020B3
:1005F0002020202020202020206F202020202320A9
:1006000020206F2040202320232323232323232063
:10061000202020202020202020342020203D2020A9
:100620002323232023234823232020203D6F4823F6
:100630002D20202020205820206F20202020232023
:1006400020206F2040202320232323232323232023
:10065000202020202020202020342020203D202069
:100660002323202023234823232020203D6F4823B9
:10067000232323232323232323232323232323234A
:100680002323232323232323202020202020202052
:100690006F2040203E2020342323232323232023A4
:1006A000232323232323232323232323232323231A
:1006B000232323232323232323232323232323230A
:1006C00023232323232323236F2020203D202020A6
:1006D0006F2040203E202034232323232323202364
:1006E00023232323232320232323232323232023E0
:1006F0002D203C20203E202020232348232323207C
:100700002040204820206F20232323232020232340
:1007100020202020202020202020232323232323C7
:100720002020202058203420232323202323232368
:100730002D203C20203E202020232348232323203B
:100740002040204820206F20232323232020232300
:100750002020202020202020202023232323232387
:10076000202020203D20342023232320582323230E
:10077000202020202020202020202020203D20205C
:1007800034203D20203D202023233D23233D2348AA
:1007900020203D20203D204820203D20206F204863
:1007A00020206F204020204823232323232323239A
:1007B000202020202020202020202020203D20201C
:1007C00034203D20203D202023233D23203D23486D
:1007D00020203D20203D204820203D20206F204823
:1007E00020206F204020204823232323232323235A
:1007F00020403D202020202048232320202020208E
:10080000482020202020202048232320202034207E
:10081000482020202023232348202020202020207F
:1008200048203D206F206F20484848484823232314
:1008300020203D2020202020482023202020202070
:10084000484020202020202048232320202034201E
:10085000482020202023232348202020202020203F
:1008600048203D206F206F204823484848232323F9
:100870002020202020202020204848484848482088
:100880002048202020204820204820484820482078
:100890002048203448204820204820204820482054
:1008A0002048484848204820202020202020484038
:1008B0002020202020202020206F6F6F6F6F6F205E
:1008C000206F202020206F20206F206F6F206F204E
:1008D000206F20346F206F20206F20206F206F202A
:1008E000206F6F6F6F206F202020202020206F400E
:1008F00020403D202020202D232348484820206FE1
:10090000202020202323206F20202020232020208F
:100910002020202023232323202D202020232323B5
:10092000202020202058583420202020202323233A
:1009300020403D202020206F202348484820206F61
:10094000202020202323206F20202020232D202042
:10095000202D202023232323202020202023232375
:1009600020202020205858342020202020232323FA
:1009700023232323232323232D2020206F20202003
:1009800020482023232048204820232034232048A7
:10099000204823582023482048206F2348202048FF
:1009A00048202020402020482323232323232323BF
:1009B00023232323232323236F2020232D202020C0
:1009C0002048202323204820482023203423204867
:1009D000204823582023482048206F2348202048BF
:1009E000482020204020204823232323232323237F
:1009F00020202020202020202020202020202020F7
:100A0000202020402020202020206F6F6F6F20208A
:100A1000206F6F206F6F6F206F6F206F6F6F6F6F22
:100A20006F6F6F6F6F346F6F232323232323232371
:100A300020202020202020202020202020202020B6
:100A4000202020402020202020206F6F6F6F20204A
:100A50006F6F6F3C6F6F6F20206F3E6F6F6F6F6FA8
:100A60006F6F6F6F6F346F6F232323232323232331
:100A7000202D20202D206F20202D2D2D2D346F2076
:100A8000202D20202D6F6F20202D2D2D2D406F200B
:100A900020204820204820202020482323482020B0
:100AA0002020482020482020202048484848202056
:100AB000206F20206F202320206F6F6F6F34232042
:100AC000206F20206F232320206F6F6F6F40232023
:100AD00020203D20203D202020203D23233D20209C
:100AE00020203D20203D202020203D3D3D3D202058
:100AF00023232323232323232323232323232323C6
:100B000023232323232020202020206F6F6F6F6F4B
:100B100040206F6F6F6F6F342323232323232323FE
:100B20002323232323232323232323232323232395
:100B30002323232323232323232323232323232385
:100B4000202020232323232320206F6F6F6F6F200B
:100B5000406F6F6F6F6F6F3423232323232323236F
:100B60002323232323232323232323232323232355
:100B700023232323202020202D2040202020206FED
:100B80002323232320202020202020232048232328
:100B9000202020232048206F20203D58202048205E
:100BA0002023232320202020202034232323232319
:100BB00023232323202020202D2040202020206FAD
:100BC0002323232320202020206F20232048232399
:100BD0006F6F20232048206F20203D582020482080
:100BE0002023232320202020206F3423232323238A
:100BF0002323232323232040202020586F6F2023EA
:100C0000206F2323232320346F6F202020232048AC
:100C10002323234820232048202020202D23204840
:100C2000482323232323202048202020203C202049
:100C30002323232323232040202020206F2320232D
:100C400020202323232320346F6F2020206F202394
:100C50002323234820232048202020206F232048BE
:100C60004823232323232020482020202020202025
:100C7000406F202020202020486F3D203D203D3423
:100C8000486F3D203D203D20486F3D203D203D20C8
:100C9000486F3D203D203D20486F3D203D203D20B8
:100CA000486F3D203D203D20486F3D203D203D20A8
:100CB000406F202020202020486F3D203D203D20F7
:100CC000486F3D203D203D3448203D203D203D20C3
:100CD000483D3D203D203D20483D3D203D203D20DC
:100CE000483D3D3D3D203D20483D3D3D3D203D2092
:100CF0002020202D2020202020206F6F6F202020FA
:100D0000206F6F6F6F6F202023202020202023482A
:100D1000202320582023204820202334232020482B
:100D20002020202320202048402020202020204850
:100D30002020202D2020202020206F6F6F202020B9
:100D4000206F2020206F20202320202020202348D7
:100D500020232058202320482020233423202048EB
:100D600020202023202020484020206F20202048C1
:100D70002020204820342023202020482023232303
:100D80002020204820202020202020482320202010
:100D90002020204820202020202020482020202003
:100DA00020206F482020202020206F484020202035
:100DB00020202048203420232020204820232323C3
:100DC00020202048202020202020204820202020D3
:100DD00020202048202020202020204820202020C3
:100DE00020206F482020202020206F4840202020F5
:100DF00023202020202020202323202020202023E7
:100E0000232323202020232334582020202323237E
:100E100023232348203D204023232048202323232D
:100E2000232020202020232320206F6F6F202D23BC
:100E300023202020202020202323202020202023A6
:100E4000232323202020232334582020202323233E
:100E500023232348203D20402323204820232323ED
:100E6000232020202020232320206F6F2D202023CB
:100E700020205834202020202348232323202020F2
:100E80002048202020202020204820202020202012
:100E9000204820202020202D2020202020206F20CE
:100EA000204020206F6F6F6F2323232323232323CE
:100EB00020205834202020202323232323202020D7
:100EC00020482020202020202048202020202020D2
:100ED000204820202020202D2020202020206F208E
:100EE000204020206F6F6F6F23232323232323238E
:100EF0002020202020203D20203D2020202323488A
:100F000048232320202020484820203D20402048FE
:100F10004823202320232048482323232323204819
:100F200048202323232D20484820583423202048BC
:100F30002020202D20203D20202D2020202323484C
:100F40004823236F20206F4848202020204020483D
:100F500048232020202320484823232023232048DF
:100F600048202323232D204848585858342320480C
:100F70002048484848482020204820203D203D2047
:100F8000204820202323232320483D2020202020E8
:100F900020482320202020204048202020202034CA
:100FA000232323202020232323232323232323231A
:100FB0002048484848482020204820203D206F20D5
:100FC000204820202323232320483D2020202020A8
:100FD000204823202020202040482020202020348A
:100FE00023232320202023232323232020232323E0
:100FF000202320202D2020202023202020202020DE
:101000002058202020234823202323232020482049
:1010100020232020402048202023206F2320482008
:101020003423206F2020482023232323232323231A
:10103000202323202D202020202323202020206F48
:1010400020585820202348232023232320204820D1
:1010500020232D20402048202023206F23204820BB
:101060003423202020204820232323232323232329
:10107000206F202020202020206F3D2020203D2098
:101080004823232020232348486F20202020204865
:1010900048202020232323234840202020202034C0
:1010A000232320232023232323232023202323231C
:1010B000206F202020202D20206F3D2020203D204B
:1010C0004823232020232348482D20202020204867
:1010D0004820202023232323484020202058583410
:1010E00023232023202323232323202320232323DC
:1010F000346F6F6F6F6F6F6F6F6F20206F6F6F6FD9
:10110000206F6F6F6F206F206F206F6F6F6F206F7A
:101110006F6F6F206F6F6F6F6F6F6F206F206F6FCC
:10112000206F6F6F6F6F6F6F206F6F406F6F206FEB
:10113000346F6F6F6F6F6F6F6F6F20206F6F6F6F98
:1011400020236F6F6F206F206F206F6F6F6F206F86
:101150006F6F6F206F6F6F6F6F6F6F206F206F6F8C
:10116000206F6F6F6F6F6F6F206F6F406F6F206FAB
:101170002020202034202020202020204820202033
:10118000206F206F206F2020202320232023202366
:101190006F206F206F202020232023202320232056
:1011A00020402020206F6F20232323232323232369
:1011B00020202020342020202020202048202020F3
:1011C0006F202020202020202023202320232023C4
:1011D0006F206F2020202020232023202320232065
:1011E00020402020206F6F20232323232323232329
:1011F000202020203D202020202020203D202020B5
:10120000203D20203D202020482320482320232348
:1012100048202048202058344823204823202323D6
:10122000484020482020202D23232023232023232F
:10123000203D20203D202020203D20203D2020203A
:10124000203D20203D202020482320482320232308
:1012500048202048202058344823202323202023BE
:101260004840206F2020202D2323202323202323C8
:101270002020202020202034202020202023232351
:101280002020206F206F20202020206F2020202071
:1012900020202020206F2020206F202020202020B0
:1012A000402020206F2020202323232323232323B7
:1012B0002020202020202034202020202023232311
:1012C0002020202020206F20202020206F6F6F20E2
:1012D00020206F206F6F2020206F6F202020202083
:1012E000402020206F202020232323232323232377
:1012F0006F20202023203420204823202320232057
:1013000048202D2023205820482020206F232348C8
:101310002048206F2020204848206F20202020488F
:10132000482020202020204023232323232323235D
:101330002020202023203420204823202320232065
:1013400048202D2023205820482020206F23234888
:101350002048206F2020204848206F20202020484F
:10136000482020202020204023232323232323231D
:10137000402020202020203423236F2020202323DE
:1013800020206F202020202020206F2020202020BF
:1013900020206F202020202020206F2020202020AF
:1013A00020206F202020202020206F20202020209F
:1013B00040202020202020342323202020202323ED
:1013C000202020202020202020202020202020201D
:1013D000202020202020202020202020202020200D
:1013E00020202020202020206F6F6F6F6F6F6F20D4
:1013F00020202020203D202020202023233D2320AA
:1014000020202323233D2323206F2323233D232335
:10141000203D4020206F2034206F232323202323CE
:1014200020202023232023206F2020202020202064
:1014300020202020203D202020202023233D232069
:1014400020202323233D2323206F2323233D2323F5
:10145000203D4020206F5834206F23232320232356
:1014600020202023232023206F202020202D202017
:1014700040202D582D582D58582D2D58582D2D20A1
:1014800020582D2D2D585858232323232323232040
:101490002D2D2D2D2020202020202D20202020200B
:1014A00020202323232323232020585858585834FE
:1014B000406F2D582D582D58582D2D58582D2D2012
:1014C00020582D2D2D585858232323232323232000
:1014D0002D2D2D2D2020202020202D2020202020CB
:1014E00020202020202020232020585858585834CD
:1014F000205858585858583448232323232323234B
:101500004820202D2D20202048202020202D202064
:10151000482020202D2D2020482020202D20202054
:101520006F20202020202020402020206F202020FD
:101530002058583E58585834482323232323232324
:101540004820202D2D20202048202020202D202024
:10155000482020203C2D2020482020202D20202005
:101560006F20202020202020402020206F202020BD
:101570004020203E206F2020236F482320206F2012
:1015800023232323232023202034233D232323200C
:101590004823233D20203C2048233D58202323205E
:1015A00020206F20482D2320202023204823232380
:1015B0004020203E206F2020232D482320202D2056
:1015C00023232323232023202034233D23232320CC
:1015D0004823233D20203C2020236F582023232014
:1015E00020206F20482D582020202320486F2323BF
:1015F00040202020202020346F6F6F6F6F6F2020DD
:101600002020202020202020206F6F6F6F6F6F6FB1
:1016100020202020202020206F6F6F6F6F6F6F20A1
:101620002020202020202020206F6F6F6F6F6F6F91
:1016300040202020202020346F236F236F23202080
:101640002020202020202020206F6F6F236F236F09
:1016500020202020202020206F236F236F6F6F20F9
:101660002020202020202020206F6F6F236F236FE9
:10167000202020203420202020202020482020202E
:101680002020202020202020206F20202020206FBC
:10169000206F20232023206F6F20202320236F2002
:1016A00020482323202323482048203C403E204834
:1016B0002020202034202020202020202020202016
:1016C0002020202020202020206F20202020206F7C
:1016D000206F203D203D206F6F20202320236F208E
:1016E00020486F6F206F6F482048203C403E2048C4
:1016F0002034202323202020202D232323202020BA
:1017000020202023234020202020232023232020AA
:1017100020202320232320202020232023232320B4
:101720002020206F6F20202020206F6F6F6F2020DF
:101730002040206F2320202020232323232020202B
:1017400020202D232320202020202320232320207D
:101750002020232023233420202023202323232060
:101760002020206F6F20202020206F6F6F6F20209F
:1017700023232323402323232323232048202323FD
:101780003458202048202058232323204820482351
:101790002D2023204820486F2348206F6F204823A6
:1017A00023482020202048232348232323232323A6
:1017B00023232323402323232323232048202323BD
:1017C0003458202048202058232323204820482311
:1017D0002D2023204820486F234820206F204823B5
:1017E0002348202020204823234823232323232366
:1017F000202020203D20342020204823232023485F
:10180000206F486F23202348206F206F3C202348FF
:1018100048232323232023484820203E3D202048DE
:101820004823232323202023482040232320202330
:101830002D2020203D203420202048232320234811
:10184000202D482D23202348206F206F3C20234843
:1018500048232323202023484820203E3D20205891
:1018600048232323232020234820402323202023F0
:101870002D20202023202D2020206F2058202020C4
:101880002020232023232348482323236F4848482C
:1018900048202020232023204820206F232023239A
:1018A0002040206F23205834232323232323232362
:1018B0002D20202023202D2020206F205820202084
:1018C0002020232023232320482323236F4848203C
:1018D00048202020202048204820206F202023233B
:1018E0002040206F20205834232323232320232328
:1018F00020202020202020342020202020202323CE
:1019000020202020202020202020202023232020D1
:10191000202020202020202020202323206F6F6FD4
:1019200040202020206F6F6F232323232323232392
:101930002D20202020205834202020202020232348
:101940002020202020202020202020202323202091
:10195000202020202020202020202323206F6F6F94
:1019600040202020206F6F6F232323232323232352
:101970000008078244281028448208070204884887
:101980005030206C00680000000000240027002A6E
:101990000000000000250028002B00050089300809
:1019A00002380249786814000008060C3E7ADE8886
:1019B000DC08063810785C38EE05077F4141417F2E
:1019C0003E5B4F5B3E3E6B4F6B3E183C783C1818BD
:1019D0003C7E3C181C577D571C1C5E7F5E1C007EA5
:1019E00043437E007E73737E007E7F7F7E7F414116
:1019F000417F30483A060E06297929067F41414148
:101A00007F60703F02042A1C361C2A7F3E1C08009F
:101A100000081C3E7F14227F22143C3C3C7EFF18B1
:101A2000423C817E3E6375633E3E616B633E3E6336
:101A30006B6B3E04027F020410207F201008082AEE
:101A40001C08081C2A0808143E5541226375697554
:101A50006310181C1810040C1C0C0400000000007B
:101A600000005F00000007000700147F147F1404CB
:101A70002A7F2A1023130864623649562050000832
:101A8000070300001C2241000041221C002A1C3ECA
:101A90001C2A08083E080800E06000000808080842
:101AA00008006060000060100804033E5149453E94
:101AB00000427F400062514949462141494D331857
:101AC00014127F1027454545393C4A494930412188
:101AD0001109073649494936064949291E0000249B
:101AE0000000008064000008142241001414141443
:101AF00014004122140802015909063E415D594E65
:101B00007C1211127C7F494949363E414141227F76
:101B10004141221C7F494949417F090909013E4150
:101B20004151327F0808087F00417F410020414138
:101B30003F017F081422417F404040407F020C0259
:101B40007F7F0204087F3E4141413E7F090909062B
:101B50003E416141BE7F0919294626494949320162
:101B6000017F01013F4040403F1F2040201F3F4078
:101B700038403F6314081463030478040361514937
:101B80004543007F41410003040810600041417F4C
:101B900000040201020480808080800003070800A6
:101BA00020545478407F28444438384444442838EA
:101BB0004444287F3854545418087E09090218A454
:101BC000A49C787F0804047800447D400000608075
:101BD000847D7F1010284400417F40007C047804FD
:101BE000787C080404783844444438FC18242418C9
:101BF00018242418FC7C08040408085454542004B5
:101C00003F4444203C4040207C1C2040201C3C4061
:101C100020403C44281028444C9090907C446454CC
:101C20004C44000836410000007F000000413608A7
:101C300000180408100C7F4141417F0806181E1847
:101C400010103808067E425A42427E0806182E427C
:101C50002E1818080618744274181808063E636394
:101C600077777F08060060F0BFF2670806427E4281
:101C7000427E42080600FEFE00EFEF08061C2241ED
:101C800041221C080638697F3928EE0500380168B2
:101C900001000017534400161378001613140015A2
:101CA00010200015201000540A03E181867F3E18A1
:101CB0006D830F0F0E0183866033186DC3198F1863
:101CC00003C38E6033186DE330CF1803C39E6036B4
:101CD00030CDE360CF3006C79E7E3E30CDB360CFBF
:101CE000300CC6F6603330D9B660CF33CFCCF66057
:101CF00061B0DB1E60CF30D86CE6C061B0DB1E6126
:101D00008F19986CC6C063B19B0E330F0FB078C6A5
:101D1000FF7E1F1B061E0F40240FFF80F00F0FFFDA
:101D2000800FFFC0F00F0FFFC00FFFE0F00F0FFF9D
:101D3000E00FFFF0F00F0FFFF00FF8F0F00F0FF8CB
:101D4000F00FF9F0F00F0FF9F00FFFE0F00F0FFFB9
:101D5000E00FFFC0FFFF0FFFC00FFFC0FFFF0FFF2F
:101D6000C00FFFE0FFFF0FFFE00FF9F0FFFF0FF9DB
:101D7000F00FF8F0FFFF0FF8F00FFFF0FFFF0FFF7D
:101D8000F00FFFE07FFE0FFFE00FFFC03FFC0FFFF3
:101D9000C00FFF801FF80FFF800000000000000050
:101DA00000007E000030000000018181C35B000064
:101DB00000020042269C800000040022A586180034
:101DC000000400259E49240000080015003444004A
:101DD000000800147C0744000008001384048800F5
:101DE00000090090020B08000004C320011C9000B1
:101DF00000047E2000E0600000020040012000009E
:101E00000C018180024000003C007E0001200000A7
:101E10000C0000000CA000001600000013A0000041
:101E200016000000202000001700000020400000E5
:101E30000C0000001F8000001E000A0A153A4967C6
:101E40006E6F7265006D560A0A504C45415345202D
:101E50005455524E204F464620004C4F5720424189
:101E6000545445525921200003053F213F120812C6
:101E70000A100A0E1C0E0C1E0C141A14161F161E25
:101E8000131E1E1B1E1E1F1E3F213F3A2F3A173DD9
:101E9000173F213F181F02040A041F0E04040E1FDF
:101EA0000A1F0A0E0E1F04110E2E252E2F2A2E2673
:101EB0002929021F02081F08150E04040E150E150D
:101EC000151B151B040604040C0400000000170079
:101ED0000300031F0A1F16371A1904130A153A00C4
:101EE0000300000E11110E000A040A040E04003053
:101EF000000404040010001804031F111F121F1017
:101F00001D151711151F07041F17151D1F151D017E
:101F1000011F1F151F17151F000A00003200040AB9
:101F2000110A0A0A110A040115020E11171E051ED4
:101F30001F150A0E110A1F110E1F15111F05010E84
:101F4000111D1F041F111F1108100F1F041B1F104C
:101F5000101F061F1E040F0E110E1F09060E112E54
:101F60001F051A121509011F011F101F0F180F1F3F
:101F70000C1F1B041B031C03191513001F11030462
:101F800018111F000201022020200001020C121E65
:101F90001F120C0C12120C121F0C1A14041E052412
:101FA0002A1E1F021C141D1020201D1F0814111FA3
:101FB000101E041E1E021C0C120C3E0A040C123EC3
:101FC0001E040214160A020F120E101E0E100E1E10
:101FD000081E120C1226281E322A26041E21001F5B
:101FE00000211E040102013F213FF6E8DBCFC3B808
:101FF000AEA49B928A827B746E68625C57524E4993
:1020000045413E3A3734312E2C29272523214500DE
:1020100068010000172B152010204C4F41444552F9
:1020200000172B16201314000A4E6F205344206310
:10203000617264206F720A6E6F204C4F41444552AA
:102040002E4845580A0A153A45786974001D2046FD
:102050006C617368696E670A20206C6F61646572D9
:102060002E2E2E0A0A444F4E2754205455524E20ED
:102070004F464621000000000023002600290004EE
:10208000040404040404040202020202020303031F
:102090000303030102040810204080010204081019
:1020A00020010204081020000000080002010000C6
:1020B000030407000000000000000000172811249E
:1020C0001FBECFEFD8E0DEBFCDBF11E0A0E0B1E092
:1020D000E0E2F4E502C005900D92AA3BB107D9F702
:1020E00024E0AAEBB1E001C01D92A03BB207E1F7EA
:1020F00010E1CFE5D0E104C02197FE010E94012A42
:10210000CE35D107C9F70E94A7210C940E2A0C9452
:102110000000E9E2F4E014AE12AE109272041092E4
:10212000710415AE10922702109226021092280414
:102130001092B4000895CF93DF93E09157048E2F4F
:1021400090E0880F991FE0915504F0915604E80F34
:10215000F91F859194918F3F980729F410924E04AE
:10216000DF91CF91089590935A049927880F991F72
:10217000E0915804F0915904E80FF91FC591D491EA
:102180000E948910D0935C04C0935B041092610498
:102190001092600481E080934F0489E0809364048E
:1021A000109267041092690410926B048091570496
:1021B0008F5F80935704D4CFDC01ED91FC910190A7
:1021C000F081E02D0994AF92BF92CF92DF92EF920F
:1021D000FF920F931F93CF93DF936C017B018B01D1
:1021E000040F151FEB015E01AE18BF08C017D10721
:1021F00059F06991D601ED91FC910190F081E02DAB
:10220000C6010995892B79F7C501DF91CF911F91FF
:102210000F91FF90EF90DF90CF90BF90AF90089517
:10222000833081F028F4813099F08230A9F008954C
:102230008730A9F08830C9F08430B1F480918000F3
:102240008F7D03C0809180008F77809380000895F8
:1022500084B58F7784BD089584B58F7DFBCF809141
:10226000B0008F778093B00008958091B0008F7D8B
:10227000F9CF1F93CF93DF93282F30E0F901E95571
:10228000FF4D8491F901ED56FF4DD491F901E158CC
:10229000FF4DC491CC23A9F0162F81110E9410117B
:1022A000EC2FF0E0EE0FFF1FEF56F64EA591B49124
:1022B0008FB7F894EC91111108C0D095DE23DC9310
:1022C0008FBFDF91CF911F910895DE2BF8CFCF9371
:1022D000C82FF89460E0809186040E9439118091A3
:1022E000870418161CF460E00E943911CEBD00006E
:1022F0000DB407FEFDCF8EB58091870418161CF42F
:1023000061E00E9439117894CF9108950F931F9343
:10231000CF93809183048F5F8093830408E212E05F
:10232000C0E08C2F80640E94671180E80E946711D2
:1023300061E0809186040E9439118091870418160B
:102340001CF460E00E943911F80184E591919EBD72
:1023500000000DB407FEFDCF9EB58150B9F7809106
:10236000870418161CF461E00E943911CF5F0C5AE3
:102370001F4FC630B1F680E4CF911F910F910C949E
:102380006711CF93DF9390E0FC01ED56FF4D249150
:1023900081589F4DFC0184918823C9F090E0880FFB
:1023A000991FFC01E957F64EA591B491FC01EF5637
:1023B000F64EC591D49161110DC09FB7F8948C91E0
:1023C000209582238C938881282328839FBFDF91C7
:1023D000CF910895623051F49FB7F8943C91822FC9
:1023E000809583238C93E8812E2BEFCF8FB7F894C1
:1023F000EC912E2B2C938FBFEACFFF920F931F935C
:10240000CF93DF93C9E2D4E0FF24FA9462E08A8597
:102410000E94C1112A8530E0F901E955FF4D8491F0
:10242000F901ED56FF4D0491F901E158FF4D14916A
:102430001123E1F081110E941011E12FF0E0EE0F65
:10244000FF1FEB58FF4DA591B491EC9189890E23A4
:1024500069F0811113C0219684E0C033D807B1F62A
:10246000DF91CF911F910F91FF90089589898F5F20
:10247000898B60E08A850E94C111EDCF8F3F11F4F6
:10248000198AF7CFF98AF5CF1F93CF93DF93182FCF
:10249000EB0161E00E94C111209739F460E0812FC7
:1024A000DF91CF911F910C943911CF3FD10511F4D9
:1024B00061E0F5CFE12FF0E0E955FF4DE491E33025
:1024C00031F140F4E130B1F0E230E1F0C038D10553
:1024D0007CF7E4CFE73029F1E83059F1E430B1F787
:1024E00080918000806280938000D0938B00C093A5
:1024F0008A0004C084B5806884BDC7BDDF91CF91D8
:102500001F91089584B5806284BDC8BDF7CF8091C6
:102510008000806880938000D0938900C0938800F9
:10252000EDCF8091B00080688093B000C093B3007D
:10253000E5CF8091B00080628093B000C093B4007A
:10254000DDCF8E50806480937C0080917A0080641F
:1025500080937A0080917A0086FDFCCF809178008C
:1025600090917900089580914D048F7149F584E12F
:102570000E94A112BC01990F880B990B0E94C428DC
:1025800026EE3FE34EEC50E40E9428290E94932857
:102590009B017093440460934304672BB9F084E07B
:1025A00080934204E5E4F4E080E0419151912417E6
:1025B000350718F48093420408958F5F8430A9F79B
:1025C00080914D048F5F80934D0408958FEF809329
:1025D0004204F6CF3FB7F8948091BC019091BD01C1
:1025E000A091BE01B091BF0126B5A89B05C02F3FA9
:1025F00019F00196A11DB11D3FBFBA2FA92F982F29
:102600008827BC01CD01620F711D811D911D42E023
:10261000660F771F881F991F4A95D1F708958F92EB
:102620009F92AF92BF92CF92DF92EF92FF924B01B7
:102630005C010E94EA126B017C010E94EA126C1993
:102640007D098E099F09683E734081059105A8F3B5
:1026500021E0821A9108A108B10888EEC80E83E033
:10266000D81EE11CF11C81149104A104B10429F7C6
:10267000FF90EF90DF90CF90BF90AF909F908F90A2
:102680000895CF93DF93DC0170E0660F771F1F96EC
:10269000ED91FC915097E60FF71F2591349190969C
:1026A0003C932E935F97F9014591549114968C9128
:1026B0001497849F402D112491964C939197F90182
:1026C000C591D4916D2F70E04617170629F020F0C0
:1026D000F90125913491432F849F402D1124929626
:1026E0004C93DF91CF910895DC01FB0184918F5FC2
:1026F00014968C9314973196E491EF5F1596EC93B2
:1027000015976E5F7F4F5F967C936E935E970895EB
:102710002F923F925F926F927F928F929F92AF9291
:10272000BF92CF92DF92EF92FF920F931F93CF93BE
:10273000DF93EC01F901E4903196849164350CF05B
:1027400015C10E2C000CFF08062F062E000C110BD5
:10275000F701E00FF11F1E161F060CF007C14033F2
:102760000CF004C1A82FC42E042E000CDD08560165
:10277000A80EB11C87FDBA941A141B040CF0F6C005
:102780002E5F3F4F570197E0A90EB11CB7FE04C062
:102790005701BEE0AB0EB11CB3E0B594A794BA9557
:1027A000E1F747FF0AC0A42FA80FAC9CC001AD9C65
:1027B000900D1124281B390B40E08A2F0A2E000CA3
:1027C000990B840F911D47FD9A95C19714F0A0E3D2
:1027D000A41BF8A067FD60E0E535F10514F0E4E521
:1027E000F0E09E2FCC85C427C62E062E000CDD08F7
:1027F000F601E01BF10B8F014F01F7E08F229924C6
:10280000E0E8F0E002C0F595E7958A94E2F77E2FC4
:1028100017FF02C0095F1F4FF3E015950795FA9562
:10282000E1F7200F311F542F577081E001C0880F4E
:102830005A95EAF7459545954595F601B4E54B025D
:10284000E00DF11D1124AF01485D5D4FD0E02A2E4F
:10285000AA0F3308EE24E394BB24D21513040CF022
:1028600085C0F9015490F1E0FF121AC0962E8A013A
:10287000E72F6901991608F057C08E2E852021F0A8
:10288000D8018C90882A8C92E69531F4BFEFCB1A50
:10289000DB0AF6015490E0E893940F5F1F4FEACFF4
:1028A000F1101CC0782E7094962E8A01E72F6901D2
:1028B000991608F039C08E2E852021F0D8018C9011
:1028C00087208C92E69531F4BFEFCB1ADB0AF60134
:1028D0005490E0E893940F5F1F4FEACFF3E0FF12AC
:1028E0002CC0782E7094862E8A01972E6901891645
:1028F000D0F4E92DE52141F0D801EC916C2E68244B
:1029000060FE0FC0E82BEC93969439F4BFEFCB1A1E
:10291000DB0AF6015490E0E89E2E83940F5F1F4F70
:10292000E6CFE721F0CFCE25880F19F44C5A5F4F40
:1029300081E0DF5F2A0D3B1D90CF962E8A01E72FA5
:102940006901991688F78E2E852021F0D8018C9088
:1029500088268C92E69531F4BFEFCB1ADB0AF6019C
:102960005490E0E893940F5F1F4FEBCFDF91CF912E
:102970001F910F91FF90EF90DF90CF90BF90AF909D
:102980009F908F907F906F905F903F902F900895D1
:10299000DC01643570F5403360F590968C9190972A
:1029A000E62F062E000CFF0B242F25952595259547
:1029B00094E52902E00DF11D1124E85DFD4F208111
:1029C000342F37708230B1F4822F90E0032E02C092
:1029D000959587950A94E2F780958170811114C0CE
:1029E00081E090E001C0880F3A95EAF78095822354
:1029F00080830895833091F71C968C9181706427B1
:102A0000609561708613ECCF81E090E001C0880F83
:102A10003A95EAF7822BECCFAF92BF92CF92DF923A
:102A2000EF92FF920F931F93CF93DF93182F062FF0
:102A3000C0E0D3E08AEFD82E9EEFE92E842F847079
:102A4000C82E842F8270B82E842F8870A82E4170D3
:102A5000F42ECF5F8C2F880F8F5FE80ECC2081F093
:102A6000402F4D0F612F6C0F87E794E00E94C81430
:102A7000402F4C0F6D2F610F87E794E00E94C81420
:102A8000BB2081F0402F4D1B612F6C0F87E794E036
:102A90000E94C814402F4C1B6D2F610F87E794E0F4
:102AA0000E94C814AA2081F0402F4C0F612F6D1B8B
:102AB00087E794E00E94C814402F4D0F612F6C1BD4
:102AC00087E794E00E94C814FF2081F0402F4C1B40
:102AD000612F6D1B87E794E00E94C814402F4D1BA7
:102AE000612F6C1B87E794E00E94C814CD173CF45B
:102AF000E7FCAFCFD150D394D394ED0CAACFDF91A4
:102B0000CF911F910F91FF90EF90DF90CF90BF90EA
:102B1000AF900895EF92FF920F931F93CF93DF939F
:102B20008C01F62ED42FE22EC0E0CE1544F46F2D8A
:102B30006C0F4D2FC8010E94C814CF5FF6CFDF91F4
:102B4000CF911F910F91FF90EF900895DF92EF9238
:102B5000FF920F931F93CF93DF937C01D62FD22E3A
:102B6000C42F002E000C110B040F111D47FD1A95E8
:102B70008C2F0C2E000C990B8017910744F42D2DEF
:102B80004C2F6D2FC7010E948A15CF5FF1CFDF91C7
:102B9000CF911F910F91FF90EF90DF9008954F928A
:102BA0005F926F927F928F929F92AF92BF92CF92DD
:102BB000DF92EF92FF920F931F93CF93DF93EC017D
:102BC0006A3049F428859D818A85299F800D1124CA
:102BD0008A871986A6C06D3009F4A3C0898483E56D
:102BE00088150CF487C0DA848FE28D150CF482C04E
:102BF00018852C812150330B129FC001139F900D1B
:102C00001124880D911D87FC9A95181619060CF051
:102C100071C02D818D2D0D2C000C990B129F800DF4
:102C2000911D1124181619060CF064C078A0C82C48
:102C3000912CE62EF12C292D092C000C330B8C81C4
:102C400090E0281739070CF054C00197E0E02817EE
:102C5000390771F0E89EF001E99EF00DF89EF00D45
:102C600011242E0F3F1FEE8DFF8DE20FF31FE49115
:102C70005D2C612C492C480C2D81862D062C000CD6
:102C8000990B2817190691F18CF1AE2EB12CE0FFAB
:102C900016C0113061F4462D4D0D642DCE010E94F9
:102CA000C814F501F595E7956394510EE5CF012F12
:102CB000212F452D6C2DCE010E94A615F2CF89A1A2
:102CC00098A1891771F388A3113041F4462D4D0D59
:102CD000642DCE010E94C81478A2E3CF012F212FCA
:102CE000452D6C2DCE010E94A615F6CF9394C10EF2
:102CF000A2CF78A228853C818985239F800D11244D
:102D000089879F81992369F0082E000C990B44E56F
:102D100050E0239F401951091124481759070CF41A
:102D200052CF81E090E0DF91CF911F910F91FF9002
:102D3000EF90DF90CF90BF90AF909F908F907F905B
:102D40006F905F904F9008950F931F93CF93DF93F1
:102D50008C01D0E0C0E0F801EC0FFD1F6491662308
:102D600041F087E794E00E94CF15892B11F021965E
:102D7000F2CFCE01DF91CF911F910F910895EF9285
:102D8000FF920F931F93CF93DF938C01D62FF42ED6
:102D9000E22EC0E0CE1544F44F2D4C0F6D2FC8012C
:102DA0000E94C814CF5FF6CFDF91CF911F910F9192
:102DB000FF90EF9008958F929F92AF92BF92CF9223
:102DC000DF92EF92FF920F931F93CF93DF93082F21
:102DD000B62E942EA22E83E0F82ED0E0C3E09AEF18
:102DE000E92E1EEFCC24C394C20EDF5F1F0D2C2FE3
:102DF000220F4B2D4C1B8A2C8F0CDB2CDD1A81E013
:102E00002C0D602F981218C06D0F87E794E00E9478
:102E1000BF16282D4D2D6C2F600F87E794E00E9480
:102E2000BF16DC179CF417FD04C0C150E394E39473
:102E30001E0DF394F394D9CF6D1B87E794E00E94A5
:102E4000BF16282D4D2D602F6C1BE7CFDF91CF9142
:102E50001F910F91FF90EF90DF90CF90BF90AF90B8
:102E60009F908F9008958830910578F468307105AF
:102E700060F4FB0123E0EE0FFF1F2A95E1F7E45217
:102E8000FE4FE80FF91F8081089580E0089526E045
:102E9000880F991F2A95E1F7ACEDB1E030E020E012
:102EA00080599F4FFC01E20FF31FE491ED932F5FD8
:102EB0003F4F20343105B1F71092D2011092D10169
:102EC0001092D0011092CF0110921F0210921E0298
:102ED0000895089590E080E00895CF93DF93EC018A
:102EE00084E0CC0FDD1F8A95E1F7FE01E15FFE4F24
:102EF00094859B3008F09AE090936404C15FDE4FA4
:102F000068818EE494E00E944113888581959091B8
:102F100052042A85299F202D112420936704809331
:102F200068048C818A532E81299F202D112420939F
:102F3000690480936A048E852A8120936204899FA4
:102F4000802D1124809363041092730410927204F4
:102F50001092710481E0809365048093280410929C
:102F60006604DF91CF910895BF92CF92DF92EF92E6
:102F7000FF920F931F93CF93DF936C01EB017A01C4
:102F80008901B901CA010E943317B82E8091D60178
:102F90009091D7018E159F0549F48091D4019091AD
:102FA000D5018017910711F450E4B52EBE01C6017A
:102FB0000E94331790E4B91649F0803209F477C0C3
:102FC000843309F474C090E080E090C0882321F03D
:102FD000833211F08D3329F490E080E00E946D1768
:102FE000F2CF8F3611F50091D1011091D20180916D
:102FF000CF019091D001800F911F029724F743E0F9
:10300000CC0FDD1F4A95E1F7C452DE4FCC0DDD1D1C
:1030100080E2888381E090E00E946D170F5F1F4F70
:103020001093D2010093D101CECF8D3219F50091CA
:10303000CF011091D0018091D1019091D201800FE8
:10304000911F02970CF0BFCF33E0CC0FDD1F3A95F4
:10305000E1F7C452DE4FCC0DDD1D80E2888381E0B4
:1030600090E00E946D170F5F1F4F1093D0010093E7
:10307000CF01A9CF883509F04DC08091CF01909143
:10308000D001009709F4A8CF01979093D0018093C5
:10309000CF0123E0CC0FDD1F2A95E1F7C452DE4FAC
:1030A000CC0DDD1D80E2888384E090E097CF83E043
:1030B000CC0FDD1F8A95E1F7C452DE4FCC0DDD1D2C
:1030C000B882F80193E0EE0FFF1F9A95E1F7EE0D3D
:1030D000FF1DE452FE4F80E280838091DA019091DF
:1030E000DB018E159F0561F081E090E0DF91CF91CB
:1030F0001F910F91FF90EF90DF90CF90BF900895B8
:103100008091D8019091D9018017910769F784E3E4
:103110008083EACFD092D701C092D601D093D50157
:10312000C093D401843301F781E090E090931F02B3
:1031300080931E0285E090E00E946D17D5CFCF925C
:10314000DF92EF92FF920F931F93CF93DF936C0167
:10315000EB010E943317182FBE016F5F7F4FC6012E
:103160000E943317183461F110E000E0882381F0E9
:10317000803211F0843361F47E018FEFE81AF80A8F
:103180009E01A601B701C6010E94B417892B71F4F4
:10319000012BB1F090E080E0DF91CF911F910F9172
:1031A000FF90EF90DF90CF900C946D170F5F1F4F43
:1031B000BE016E5F7F4FC6010E943317E701D6CF75
:1031C000DF91CF911F910F91FF90EF90DF90CF9003
:1031D0000895CF92DF92EF92FF920F931F93CF93B8
:1031E000DF930091D4011091D50178018FEFE81A97
:1031F000F80AC091D601D091D701B701CE010E9443
:103200003317D82E89EA99E1909302018093010146
:10321000B701CE010E943317C82E88E4C81209C036
:103220009801AE01B701CE010E94B417F12CE12C38
:103230002EC0B801CE010E943317982F9D7F9C337A
:10324000A9F3C1100BC0883461F5B801CE010E940A
:103250009F1890E080E00E946D17E8CF883409F550
:1032600080E2D81619F084E3D812E0CF9801AE01BD
:10327000B701CE010E94B4177C016091D401709116
:10328000D5018091D6019091D7010E949F18C70166
:10329000DF91CF911F910F91FF90EF90DF90CF9032
:1032A0000895C090D101D090D201C114D10481F40D
:1032B000E090CF01F090D001E114F10449F4B8019D
:1032C000CE010E949F1886E090E00E946D17DFCF2C
:1032D000780181E0E81AF108B701CE010E943317A6
:1032E000882309F4B6CF803249F0982F977F943322
:1032F00029F0883419F08E3309F0ABCFC114D10412
:1033000059F1F80133E0EE0FFF1F3A95E1F7E4526F
:10331000FE4FEC0FFD1F8FE6808381E0C81AD108B5
:10332000D092D201C092D10182E090E00E946D174C
:103330009801AE01B701CE010E94B4176091D4018B
:103340007091D5018091D6019091D7010E949F186C
:10335000EE24E394F12C9BCF8091CF019091D0018A
:10336000009731F3F80123E0EE0FFF1F2A95E1F7F4
:10337000E452FE4FEC0FFD1F2DE220830197909346
:10338000D0018093CF01D0CF0F931F93CF93DF93C2
:10339000C7E0D0E010E000E0BE01C8010E94331792
:1033A0008D3371F08091D6019091D70180179107EC
:1033B00059F48091D4019091D5018C179D0721F487
:1033C000BE01C8010E949F180F5F1F4F08301105F2
:1033D00019F72197F8F6DF91CF911F910F9108957A
:1033E000E8E2F2E028EF31E0DF01A9011D9241504F
:1033F0005040E1F7DC0119961C9219971A961C921D
:103400000895FB0101900020E9F73197AF01461BB9
:10341000570BDC01ED91FC910280F381E02D0994C2
:103420008F929F92AF92BF92EF92FF920F931F9352
:10343000CF93DF93CDB7DEB7A1970FB6F894DEBF79
:103440000FBECDBF7C01FA01CB0119A2223008F4D6
:103450002AE08E010F5D1F4F822E912CB12CA12CE2
:10346000BF01A50194010E946228F901CA016A30D6
:103470000CF5605DD8016E938D01232B242B252B39
:1034800079F790E080E0109721F0BD01C7010E941C
:10349000011AA1960FB6F894DEBF0FBECDBFDF9123
:1034A000CF911F910F91FF90EF90BF90AF909F90A1
:1034B0008F900895695CDECFCF92DF92EF92FF92FA
:1034C0000F931F93CF93DF936B01770FEE08FF08E5
:1034D000F7FE1BC0EC016DE20E94DC108C0144275A
:1034E0005527BA014C195D096E097F092AE0CE0102
:1034F0000E94101A800F911FDF91CF911F910F91A1
:10350000FF90EF90DF90CF9008952AE0B701A601D9
:10351000DF91CF911F910F91FF90EF90DF90CF90AF
:103520000C94101ABC0187E794E00C94011A0F93D5
:10353000CF93DF93D82FC62F8EE2809380048CE048
:103540008093810482E891E0DD2311F08FE791E020
:103550000E94921ACA3020F483E891E00E94921AE5
:103560004C2F50E070E060E02AE087E794E00E9492
:10357000101A85E891E0DD2311F083E891E00E94C4
:10358000921A10929704109298040AE02AE04BE0F5
:1035900066E487E794E00E94A61581E08093970493
:1035A00080939804EC2FE695E695E695F0E0EF53CE
:1035B000FE4F808190E0C77002C095958795CA95AF
:1035C000E2F721E739E180FF02C02AE739E14BE069
:1035D00066E487E794E00E948813109297041092A3
:1035E00098040AE024E142E16EE287E794E00E9459
:1035F000A61581E080939704809398048EE28093CF
:10360000800482E18093810483E891E0DD2311F05E
:1036100087E891E00E94921A8091CE0181110FC03B
:103620008DE891E00E94921A83E891E0DD2311F089
:1036300085E891E0DF91CF910F910C94921A89E87F
:1036400091E0F0CFCF93DF930E94A416EC0161E9E3
:1036500071E087E794E00E94011A8C0F9D1FDF91B3
:10366000CF91089587E794E00E94F0198DE490E2ED
:103670000E94A4160E9486118CB583608CBD8DB506
:103680008E7F8DBD84E991E0EEEFFFE30995109206
:103690007D0488E290E20E94221B0E9486110E9413
:1036A000FD1180913E04813039F062E370E080E0EA
:1036B00090E00E940F13F3CF08954F925F926F92A4
:1036C0007F928F929F92AF92BF92CF92DF92EF92B2
:1036D000FF920F931F93CF93DF9300D000D01F92E0
:1036E000CDB7DEB74091A9045091AA046091AB0414
:1036F0007091AC042FB7F89480912202909123022C
:10370000A0912402B09125022FBF481B590B6A0BD0
:103710007B0B8091A80490E0B0E0A0E00091A404AD
:103720001091A5042091A6043091A7048417950751
:10373000A607B70708F0CEC0011511052105310510
:1037400009F4C8C02FB7F894809122029091230207
:10375000A0912402B09125022FBF2091A804820FCE
:10376000911DA11DB11D8093A9049093AA04A0935B
:10377000AB04B093AC0480919A0490919B04A09107
:103780009C04B0919D040196A11DB11D80939A04E3
:1037900090939B04A0939C04B0939D041092A40466
:1037A0001092A5041092A6041092A7040E94EA1297
:1037B0006093A0047093A1048093A2049093A30447
:1037C00080912A0490912B042FE0289FA001299F2B
:1037D000500D11245A83498385E10E94A112298149
:1037E0003A81820F931FB4E096958795BA95E1F7D9
:1037F00090932B0480932A0420912904222309F416
:1038000048C060912D04262F30E050E040E029832D
:103810003A834B835C83C0902E04D12CF12CE12C95
:1038200040913104509132044A01B12CA12C2091D5
:103830002F04309130042901712C612C82179307D9
:1038400028F09C014817590708F49A0150E040E01D
:10385000241935094609570969817A818B819C8130
:103860006C197D098E099F090E94BD29A50194014B
:1038700024193509460957090E943828C20ED31E5B
:10388000E41EF51EC0922C046C2D70E085E00E94B1
:1038900044120E94FD118091450490914604892BA9
:1038A00011F00E94B31281E00F900F900F900F90D3
:1038B0000F90DF91CF911F910F91FF90EF90DF90CC
:1038C000CF90BF90AF909F908F907F906F905F90C0
:1038D0004F900895012B022B032B09F071C18091A9
:1038E000400481508E3FB8F580913F04813099F5B6
:1038F000809153048F5F6091540487FD09C0082EA6
:10390000000C990B70E06F5F7F4F0E94D929682FE0
:103910006093530481E290E29093AE048093AD04EF
:1039200088E48093AF040E9489108EE090E2909327
:103930005C0480935B04109261041092600481E047
:1039400080934F0489E0809364041092670410927E
:10395000690410926B048091400481508E3F70F492
:1039600080913E04813009F0FCC284E190E29093A2
:10397000AE048093AD0488E48093AF0480914E043C
:10398000882331F080914F04811102C00E949B1066
:1039900080914F04882309F43DC080916304811114
:1039A00039C020915B0430915C04E0916004F09197
:1039B0006104EE0FFF1FE20FF31F859194910097B2
:1039C00009F457C19C013695279536952795422FC6
:1039D00080FDF8C04F734093620480915204899F28
:1039E000802D11248093630410927304109272044A
:1039F0001092710481E080936504809328041092F2
:103A00006604809160049091610401969093610432
:103A10008093600480916504882331F08091630471
:103A2000811141C10E9489108091AF04882309F45B
:103A300087C08C3008F01EC23CE0381B3983FF245D
:103A4000F394F0927F04109297041092980440919E
:103A50007C044D831981141B042F0D5F4DE2410F2F
:103A60002EE463E087E794E00E94A6155D81545040
:103A70005D83105D252F41E0612F80E50E94DB16FC
:103A80002D8142E0612F83E00E94DB16F0929704C3
:103A9000F092980400917C041981101B8DE2F82E9D
:103AA000F10E2EE44F2D63E087E794E00E948A1523
:103AB00083E0800F8F0D8D83482F41502EE463E00B
:103AC00087E794E00E948A150350105D202F412F54
:103AD00060E087E794E00E94BF16202F412F63E546
:103AE00087E794E00E94BF1641E0612F83E00E94C7
:103AF0000C1542E0612F80E50E940C159D819450C9
:103B00009D8344E0692F80E50E940C1548E06D819B
:103B100083E00E940C1584E08093800480917C04F3
:103B20002981281B215D209381048091AD0490910F
:103B3000AE040E94A4168091AF0481508093AF041C
:103B40008091450490914604892BE1F031E0309357
:103B500097041092980490917B0485E5891B8093CB
:103B600080041092810460914204613009F4DDC147
:103B700008F482C180914104653008F0EDC16B5FAB
:103B80008111E5C10E94861180917D04811104C0DC
:103B900087E794E00E94F0190E94EA126093A4045F
:103BA0007093A5048093A6049093A7042091A00489
:103BB0003091A104621B730B70939F0460939E0469
:103BC00080E072CEBC01E6E076956795EA95E1F774
:103BD0006F71892F86958695869580512F7022303A
:103BE00099F1D0F4222309F43EC02130B9F1E091DB
:103BF0006004F09161043196F0936104E0936004F5
:103C0000CF01880F991FE0915B04F0915C04E80FED
:103C1000F91F85919491D6CE233061F0243039F785
:103C200090915204969F602D112460936B048093B1
:103C30006C04DDCF90915204969F602D1124609307
:103C4000690480936A04D3CF90915204969F602DAB
:103C500011246093670480936804C9CF8EE494E0D4
:103C60000E944113C4CF6B3008F06AE06093640493
:103C7000BECF80915F04811110C010924F048091DB
:103C80004E04811103C00E948910C4CE0E949B1073
:103C90008091600490916104B4CF109261041092FD
:103CA0006004F901B6CF815080936304809173045E
:103CB000811142C020917104309172042F5F3F4FF7
:103CC000C901880F991FE0916D04F0916E04E80F0F
:103CD000F91F85919491482F477040937404492FA0
:103CE0004695469540937504AC0164E0569547951A
:103CF0006A95E1F74F7390915204499F402D11242A
:103D00004093730483FB882780F9809321023093CA
:103D100072042093710480916F0490E02817390792
:103D200058F020917004222309F49EC0821B91094F
:103D300090937204809371048091730481508093F6
:103D400073048091660431E0380F3093660440912B
:103D5000620420917504240F80915A04280F209347
:103D6000500460916904662371F070E0832F032E84
:103D7000000C990B0E94D92980916A04869F200D1E
:103D80001124209350048091500490E0849664E2C2
:103D900070E00E94D92980935004209164042093FC
:103DA000510460916704662381F0062E000C770BA6
:103DB000832F032E000C990B0E94D929809168044F
:103DC000869F200D11242093510460916B0466237B
:103DD000A1F0832F330F990B70E00E94D929CB01FA
:103DE00062E070E00E94D92920916C049091510406
:103DF000289F900D1124909351044F33C1F180916D
:103E000051048A300CF089E087FD80E080935104F2
:103E1000F894E0915004F0E0E651F04EE491E09324
:103E20002002209176043091510432039001112434
:103E3000409174044203C001439F900D11242091CE
:103E4000530402C0880F991F2A95E2F797FF02C01A
:103E500081589F4F880F892F881F990B80932602C6
:103E6000809327027894E0CD0E94891065CF10924C
:103E70005104CECF1982E3CD0E94891010924F04D5
:103E800041E040937F0468E67EE187E794E00E948A
:103E90007413109246041092450410927D0458EA5F
:103EA00059830E945D1B8823E1F38AE59EE10E940D
:103EB000A416409143045091440470E060E02AE06D
:103EC00087E794E00E94101A85E49EE10E94A41600
:103ED000698162956F7070E087E794E00E945C1AD8
:103EE0008AE39EE10E94A41680913E04813009F489
:103EF00049CE8981815089838111D3CF70E060E000
:103F000085E00E94441283B7817F846083BF83B7BA
:103F1000816083BF83B7816083BF889583B78E7FBD
:103F200083BF83B78E7F83BFBCCF80919A0490916B
:103F30009B04A0919C04B0919D048F709927AA279F
:103F4000BB2767E00897A105B10508F068E787E798
:103F500094E00E94DC1016CE882309F413CE6FE2A1
:103F6000F6CF893209F00ACD0E94321B07CD8F921D
:103F70009F92AF92BF92CF92DF92EF92FF920F93F8
:103F80001F93CF93DF9380919904882309F4EEC0A7
:103F900081E080937F0410927E0410927D04109241
:103FA00041048093970480939804C9E3DEE18CE098
:103FB000F82E0EE010E2EE24E39499E0D92E0E9450
:103FC0005D1B8823E1F3FE01C490C110C0907C0406
:103FD00027EA3CE140E060E087E794E00E94881334
:103FE0004CE04C0D27E13DE160E087E794E00E9462
:103FF000881310928004F092810489E39EE10E946C
:10400000A41680917B04982F990F990F891B8D5AC4
:104010008093800480917C04982F990F990F891BBD
:10402000835D8093810480919A0484FF78C083EA41
:104030009CE10E94221B80917B04982F990F990F7D
:10404000891B8D5A80938004809181048F5F8093B7
:10405000810480915304882309F464C08BE99CE1B6
:104060000E94221B80917B04982F990F990F891B26
:104070008D5A80938004809181048F5F80938104A6
:1040800083E99CE10E94221B80913F04813031F53D
:10409000809153048F5F6091540487FD09C0082EFE
:1040A000000C990B70E06F5F7F4F0E94D929682F39
:1040B000609353040E94891010935C0400935B0486
:1040C0001092610410926004E0924F04D092640454
:1040D000109267041092690410926B0480913E0460
:1040E000813019F180919904482F50E070E060E030
:1040F00080909A0490909B04A0909C04B0909D04A2
:1041000084169506A606B70610F08F3F71F48091CD
:104110004004813009F053CF0E94321B50CF8FE909
:104120009CE187CF87E99CE19BCF8FEF8093990437
:104130000E94891010924F040E9489108BE89CE124
:1041400090935C0480935B0410926104109260046D
:1041500081E080934F0499E0909364041092670487
:104160001092690410926B0480934104DF91CF9107
:104170001F910F91FF90EF90DF90CF90BF90AF9085
:104180009F908F9008950F931F93CF93DF9301EC2F
:1041900011E0D0E0C0E0F80161918F01CE010E94F2
:1041A0002A282196CD30D105B1F76091CE018DE05E
:1041B00090E0DF91CF911F910F910C942A2880916C
:1041C0001C0290911D02BC016F5F7F4F70931D0216
:1041D00060931C02E82FE695E695E695F0E0EF5334
:1041E000FE4F482F477021E030E0D90102C0AA0FEE
:1041F000BB1F4A95E2F720812A2B20832091CE0114
:10420000211107C060FF05C0029690931D028093A4
:104210001C0280911C0290911D028336910524F0AE
:1042200010921D0210921C020E94C32080911C0259
:1042300090911D020C9447171F920F920FB60F9288
:1042400011242F933F938F939F93AF93BF938091AC
:10425000220290912302A0912402B0912502309174
:10426000BB0123E0230F2D3758F50196A11DB11D89
:104270002093BB018093220290932302A0932402F7
:10428000B09325028091BC019091BD01A091BE0127
:10429000B091BF010196A11DB11D8093BC01909307
:1042A000BD01A093BE01B093BF01BF91AF919F919B
:1042B0008F913F912F910F900FBE0F901F901895E7
:1042C00026E8230F0296A11DB11DD2CF1F920F9297
:1042D0000FB60F9211242F936F937F938F939F9319
:1042E00060912602662349F18091BA018F5F809325
:1042F000BA0190912002891700F12091280481E0F1
:104300002827209328041092BA0180912102882343
:1043100069F08091000193E4899F802D1124895BCD
:10432000809300010E94CD2990932702809127025B
:10433000211101C080E08093B4009F918F917F9103
:104340006F912F910F900FBE0F901F901895CF93E4
:10435000DF9300D000D000D0CDB7DEB7789484B51D
:10436000826084BD84B5816084BD85B5826085BD71
:1043700085B5816085BD80916E00816080936E00FF
:1043800010928100809181008260809381008091F1
:1043900081008160809381008091800081608093A2
:1043A00080008091B10084608093B1008091B00062
:1043B00081608093B00080917A00846080937A005D
:1043C00080917A00826080937A0080917A00816087
:1043D00080937A0080917A00806880937A001092AE
:1043E000C10082E38093A80481E090E0A0E0B0E007
:1043F0008093A4049093A504A093A604B093A7046B
:104400008FEF80939904E0E8F7E72591349121300C
:10441000304C09F022C2E6E9F7E7E491E093820428
:10442000E7E9F7E7E491E0932D04E8E9F7E7E491A1
:10443000E0932E04E9E9F7E7859194919093300495
:1044400080932F04EBE9F7E78591949190933204E0
:104450008093310487E080935404EEE9F7E7E49118
:10446000E0935304EFE9F7E7E491E0939904E0EA7D
:10447000F7E7859194919093460480934504E2EA8E
:10448000F7E7859194919093480480934704E4EA78
:10449000F7E78591949190934A0480934904E6EA62
:1044A000F7E78591949190934C0480934B04E1E05D
:1044B000E09329046FEF70E085E00E94441288E0E9
:1044C0008093330489E08093340487E0809335043B
:1044D00086E080933604F4E0F093370482E0809322
:1044E000380481E1809339040E94FD118CE39FE040
:1044F000909344048093430424E02093420431E0E9
:1045000030934D048BE0809385048DE08093840488
:1045100080E1809386048EE0809388048FE080930E
:10452000870430937F04309397041092980430935B
:104530007E0468E67EE187E794E00E9474138FB7FB
:104540008983F8948091C001811127C0E9E8F0E2E5
:104550008491EDE9F0E29491E82FF0E0EE0FFF1F77
:10456000E957F64EA591B491EC91E92321F461E06D
:104570008AE00E94391161E08AE00E94C1118CB585
:1045800080618CBD8CB580648CBD61E08DE00E9443
:10459000C11161E08BE00E94C1118091C0018F5F69
:1045A0008093C00199819FBF8CB58F7D8CBD8CB5E8
:1045B0008C7F81608CBD8DB581608DBD8CB58C602C
:1045C0008CBD61E0809185040E94C11161E0809101
:1045D00084040E94C11161E0809186040E94C1118F
:1045E0008091880418161CF461E00E94C11180912A
:1045F000870418161CF461E00E94C11180918804A0
:10460000181674F460E00E9439116AE070E080E0EE
:1046100090E00E940F1361E0809188040E9439119C
:1046200080918404082E000C990BFC01E158FF4D89
:10463000E491F0E0EE0FFF1FEF56F64E2591349116
:1046400030938C0420938B04FC01ED56FF4DE491D4
:10465000E093920480918504082E000C990BFC01D4
:10466000E158FF4DE491F0E0EE0FFF1FEF56F64EDC
:104670002591349130938A0420938904FC01ED56EE
:10468000FF4DE491E093910480918704082E000C83
:10469000990BFC01E158FF4DE491F0E0EE0FFF1F94
:1046A000EF56F64E2591349130938E0420938D046D
:1046B000FC01ED56FF4DE491E09393048091860454
:1046C000082E000C990BFC01E158FF4DE491F0E03D
:1046D000EE0FFF1FEF56F64E259134913093900464
:1046E00020938F04FC01ED56FF4DE491E093940478
:1046F00081E20E94671184E10E9467118091820427
:1047000087FF03C08FE780938204809182048068D2
:104710000E94671180E20E9467118CE00E9467117D
:104720000E94861181E08093520484E08093760495
:1047300083E899E190935E0480935D0460E08EE4E9
:1047400094E00E94411361E070E083E00E94441213
:104750008091B100887F81608093B100F8941092BD
:10476000800010928100109285001092840088E1F0
:1047700091E0909389008093880080918100886007
:10478000809381008091810081608093810080917D
:104790006F00826080936F007894809145049091BF
:1047A0004604892B11F00E94B31280913F0481309E
:1047B00009F480C080914204882309F47BC00E94E0
:1047C00089108BE999E190935C0480935B041092CB
:1047D00061041092600481E080934F0489E080932B
:1047E0006404109267041092690410926B0481E0D3
:1047F0008093410401EC11E01E821D828D819E8117
:104800000E942228F80181938F012D813E812F5F24
:104810003F4F3E832D832D30310581F78DE090E0B1
:104820000E9422288093CE0191E0811101C092E084
:1048300080E0E82FE695E695E695F0E0EF53FE4F31
:10484000208130E0482F477002C0359527954A9562
:10485000E2F720FD32C090E039C09CE390938204DF
:1048600010922D0480932E0480E293E09093300404
:1048700080932F0484ED93E090933204809331046D
:1048800087E080935404809353048CEA9DE09093D6
:104890004604809345048EED9DE0909348048093F8
:1048A000470484E79EE090934A04809349048CE394
:1048B0009FE0F9CD109253049ACF890F843608F403
:1048C000B8CF843609F06FC090E080E090931D026D
:1048D00080931C020E9447170E94B71F61EBE62ECF
:1048E00069E1F62E0E945D1B882309F4B2C0809115
:1048F0004004813049F480911E0290911F02892B5F
:1049000009F453C00E94DF2010913F04113009F0D8
:104910005EC068E67EE187E794E00E9474138091B0
:104920001C0290911D029E838D8387E794E00E9474
:10493000F01910937D04109280041092810468E6AF
:104940007EE187E794E00E9474138BE991E00E9476
:10495000921A86EA91E00E94921A8EEA91E00E94F1
:10496000921A6D8180E00E94971A10E001E00E9487
:104970005D1B8823E1F380914004813011F40E9493
:10498000B71F80913E04813099F080913F048130BF
:1049900009F033C187E794E00E94F01910927D047A
:1049A0000E94C32014C085E656CF0E94B71FACCF2B
:1049B00087E794E00E94F01910927D04ED81FE815A
:1049C000F0931D02E0931C02CF010E9447178091D3
:1049D0003E04813049F480911E0290911F02892B80
:1049E00009F459C10E94DF20B0903A0431E0B312BB
:1049F00009C080911E0290911F02892B09F456C1B3
:104A00000E94DF2080913C04813049F480911E0295
:104A100090911F02892B09F48FC10E94DF208091A1
:104A20003B04813049F480911E0290911F02892B32
:104A300009F4C8C10E94DF2080913D04813049F40F
:104A400080911E0290911F02892B09F404C20E94DA
:104A5000DF2080911E0290911F02892B09F4FEC174
:104A60001092970481E08093980448EF51E06FEF33
:104A70007FEF88E292E00E94072A912C1E821D821D
:104A800010E000E040E2742E53E8A52E5CE1B52E64
:104A90002D813E8124523E4F6901812C96018D81EA
:104AA0009E81281B390B2C5D3140F60181916F01ED
:104AB0008D3309F413C20CF0E5C18D3209F405C23F
:104AC0000CF0D2C123E73CE1833209F4D4C1F8E011
:104AD0008F0E20E48212E2CF0F5F1F4F8D819E81E7
:104AE00008969E838D8396E0990EE0E39E12D0CFC8
:104AF0008091D30100910101109102019091D401A4
:104B0000492E440C490E440C2090D601220C220C54
:104B1000220C8111F1C19801442D622D87E794E0A8
:104B20000E94881320E340E060E487E794E00E945D
:104B3000BF162BE33CE14AE261E487E794E00E9480
:104B4000881369EB79E187E794E00E94741389E4A4
:104B50008093800489E28093810460911C027091AB
:104B60001D0287E794E00E945C1A2CE040E164E4B7
:104B700087E794E00E948A152CE04FE164E487E720
:104B800094E00E948A1520E140E164E487E794E024
:104B90000E94BF1620E140E16FE487E794E00E94A5
:104BA000BF1628E040E163E487E794E00E94BF1667
:104BB00028E040E160E587E794E00E94BF1610E03E
:104BC00000E082E190E09E838D838091D1019091FD
:104BD000D201081719070CF008C22BE73CE14D8100
:104BE00066E487E794E00E948813ED81FE813696A3
:104BF000FE83ED830F5F1F4FE8CF80913C0481302F
:104C000049F42091CE011123F9F081E0211180E0D7
:104C10008093CE0180913A04813041F42091CE01FD
:104C2000112329F1211180E08093CE0180913B0472
:104C3000813021F080913D04813009F410276D818D
:104C4000812F0E94971A93CE8D819E81019621110A
:104C500005C080FF03C08D819E8102968336910539
:104C60001CF49E838D83D6CF1E821D82D3CF8D816F
:104C70009E810197211105C080FF03C08D819E8117
:104C8000029797FD03C09E838D83D0CF23E630E04B
:104C90003E832D83CBCF80911C0290911D020E94F8
:104CA000471783E090E00E946D179ECE8091D4015B
:104CB0009091D5019E838D83C090D601D090D7016D
:104CC000860101501109BC01C8010E943317A82EAA
:104CD00083E89CE19093020180930101B092D3019B
:104CE0006D817E81C8010E943317882311F08E33B5
:104CF00029F490E080E00E946D1784CE9DE3A91214
:104D000015C089EA99E1909302018093010190E036
:104D100080E00E946D172D813E81A801B901C60176
:104D200002970E94B4170E94C4196CCE2D813E8157
:104D3000A601B901C801F5CFE091D401F091D501E8
:104D4000FE83ED83C090D601D090D70186010F5F1E
:104D50001F4FBF01C8010E943317B82E83E89CE1A2
:104D600090930201809301011092D3016D817E81A5
:104D7000C8010E943317882311F08C3329F490E086
:104D800080E00E946D174BCEFDE3BF1215C089EA8B
:104D900099E1909302018093010190E080E00E94EC
:104DA0006D172D813E81A801B901C60102960E94AE
:104DB000B4170E94C41933CE2D813E81A601B901DA
:104DC000C801F5CFF0920201E09201012091D401D7
:104DD0003091D5013E832D83590131E0A31AB108EA
:104DE0000091D6011091D701B501C8010E94331777
:104DF000D82E90E080E0DD2059F16D817E81C801E0
:104E00000E943317883481F4D81631F090E2D91615
:104E100019F0E4E3DE1208C02D813E81A801B5013E
:104E2000C8010E94B41708CE6D817E816F5F7F4FED
:104E3000C8010E943317883429F00E94E918892B91
:104E400009F0FACDF0920201E092010186E090E0D3
:104E50000E946D17F1CD0E94E918FBCD81E080938F
:104E600097041092980409CE8433D9F12BE43CE1E5
:104E70008C3309F02CCE492D682D87E794E00E94F1
:104E8000881325CE8834F1F0B4F48E3321F18034C8
:104E900009F01DCE3093D7012093D6011093D50190
:104EA0000093D401B0920201A09201011092D301AB
:104EB000319770820CCE883559F02BE73CE18F3664
:104EC000D1F205CE2BE63CE1D6CF23E63CE1D3CFB1
:104ED0002BE53CE1D0CF23E53CE1CDCF23E43CE121
:104EE000CACF3093DB012093DA011093D9010093EC
:104EF000D8012BE33CE1BFCFF80194913196249186
:104F00002983C92ED12C360137E0630E711C33E0A2
:104F1000759467943A95E1F7512CA22EB12C9150DB
:104F20009C83252D052C000C330B2C153D050CF016
:104F3000F9CD5A8257FE03C097E0950D9A83EA8116
:104F4000E595E595E595EA83952D977897FF03C05C
:104F50009150986F9F5F20E8822E912C02C095940B
:104F600087949A95E2F7312C2A81022E000C330B9C
:104F70002E5F3F4F3E832D833C8135193B83232D8C
:104F8000032C000C330B2A153B056CF5629EF001D7
:104F9000639EF00D729EF00D11242D813E81E20F73
:104FA000F31FE00FF11FE491F0E0E821F921EF2B6E
:104FB000C1F0882361F0382F33703A836B8180FF12
:104FC000652D4981431981FD05C0432D03C0432D43
:104FD000652D1A82620D440D87E794E00E94C81483
:104FE0008A813394CCCF53949CCF10E000E0809121
:104FF000CF019091D001081719078CF423E63CE10A
:105000004D8166E487E794E00E9488132D813E81FC
:105010002A5F3F4F3E832D830F5F1F4FE8CF80E015
:1050200090E0892B09F45ECC0E9400005BCC1092CA
:105030007A041092790487E091E090937804809349
:1050400077040895F999FECF92BD81BDF89A99270A
:1050500080B50895262FF999FECF1FBA92BD81BD64
:1050600020BD0FB6F894FA9AF99A0FBE01960895EA
:10507000052E97FB1EF400940E944F2857FD07D081
:105080000E94622807FC03D04EF40C944F285095E0
:105090004095309521953F4F4F4F5F4F0895909524
:1050A0008095709561957F4F8F4F9F4F08950E9417
:1050B0008428A59F900DB49F900DA49F800D911DF5
:1050C00011240895A1E21A2EAA1BBB1BFD010DC0DD
:1050D000AA1FBB1FEE1FFF1FA217B307E407F507A8
:1050E00020F0A21BB30BE40BF50B661F771F881F84
:1050F000991F1A9469F760957095809590959B011A
:10510000AC01BD01CF010895A29FB001B39FC001C2
:10511000A39F700D811D1124911DB29F700D811DE3
:105120001124911D08950E94072988F09F5798F037
:10513000B92F9927B751B0F0E1F0660F771F881F9C
:10514000991F1AF0BA95C9F714C0B13091F00E94B6
:105150002129B1E008950C942129672F782F882701
:10516000B85F39F0B93FCCF3869577956795B395DD
:10517000D9F73EF490958095709561957F4F8F4F4C
:105180009F4F0895E89409C097FB3EF49095809551
:10519000709561957F4F8F4F9F4F9923A9F0F92FFD
:1051A00096E9BB279395F695879577956795B7957B
:1051B000F111F8CFFAF4BB0F11F460FF1BC06F5F61
:1051C0007F4F8F4F9F4F16C0882311F096E911C073
:1051D000772321F09EE8872F762F05C0662371F094
:1051E00096E8862F70E060E02AF09A95660F771FA8
:1051F000881FDAF7880F9695879597F9089557FDD8
:105200009058440F551F59F05F3F71F04795880F34
:1052100097FB991F61F09F3F79F0879508951216CB
:1052200013061406551FF2CF4695F1DF08C0161677
:1052300017061806991FF1CF869571056105089428
:105240000895E894BB2766277727CB0197F908953F
:105250000E943B290C94AC290E949E2938F00E94A0
:10526000A52920F0952311F00C9495290C949B29E5
:1052700011240C9422290E94FF2870F3959FC1F3FA
:10528000950F50E0551F629FF001729FBB27F00DF4
:10529000B11D639FAA27F00DB11DAA1F649F662749
:1052A000B00DA11D661F829F2227B00DA11D621F98
:1052B000739FB00DA11D621F839FA00D611D221F52
:1052C000749F3327A00D611D231F849F600D211D36
:1052D000822F762F6A2F11249F5750409AF0F1F0B9
:1052E00088234AF0EE0FFF1FBB1F661F771F881F22
:1052F00091505040A9F79E3F510580F00C9495299C
:105300000C9422295F3FE4F3983ED4F38695779579
:105310006795B795F795E7959F5FC1F7FE2B880FC7
:10532000911D9695879597F9089597F99F6780E85D
:1053300070E060E008959FEF80EC089500240A94E7
:105340001616170618060906089500240A94121660
:105350001306140605060895092E0394000C11F493
:10536000882352F0BB0F40F4BF2B11F460FF04C040
:105370006F5F7F4F8F4F9F4F0895DB018F939F93F8
:105380000E945728BF91AF91A29F800D911DA39FAE
:10539000900DB29F900D11240895991B79E004C0DF
:1053A000991F961708F0961B881F7A95C9F7809564
:1053B000089597FB072E16F4009407D077FD09D0C7
:1053C0000E94ED2907FC05D03EF4909581959F4FF2
:1053D0000895709561957F4F0895AA1BBB1B51E1FD
:1053E00007C0AA1FBB1FA617B70710F0A61BB70B55
:1053F000881F991F5A95A9F780959095BC01CD01FA
:105400000895EE0FFF1F0590F491E02D0994DC0143
:1054100001C06D9341505040E0F70895F894FFCFDC
:1054200001831C00000000CF15E3106A1769170004
:1054300000030074000100060003000400030000E4
:10544000001B003500010001000100040005000000
:105450000017003C000100010001000400050000ED
:105460000010001C000100010002000400140000F4
:10547000001E003F000300010001000400050000C1
:1054800000180001000100010004000400090001EF
:10549000001000380001000100010004000300209A
:1054A000200011200010001100204F4E004F4646F2
:1054B000000D0A004C4F41444552004C6576656C26
:1054C000204D656E75000A0A4C6576656C000A45CC
:0A54D00076696C205477696E0000C5
:00000001FF
