:100000000C94C3020C94EB020C94EB020C94EB02E4
:100010000C94EB020C94EB020C94EB020C94EB02AC
:100020000C94EB020C94EB020C94EB020C94B90FC1
:100030000C94EB020C94EB020C94EB020C94EB028C
:100040000C946F0F0C94EB020C94EB020C94EB02EB
:100050000C94EB020C94EB020C94EB020C94EB026C
:100060000C94EB020C94EB020101FF030101F70376
:100070006C00680000000000240027002A00000037
:100080000000250028002B000500893008023802F6
:100090004978681400004275696E6F2045676700F3
:1000A00008020F0908020F0F0802060F08020A05CE
:1000B0002020202020202020202020202020202040
:1000C00020202020202020202045552020202020D6
:1000D0002045205320202045202020203D3D483D24
:1000E0003D3D203D3D3D3D3D3D3D203D20202020EE
:1000F00020204820202020202020202020202020D8
:10010000202020202020482020204553202020206F
:1001100020202020202020202020482020203D3D7D
:100120003D20202020202020202020204520482065
:100130002020202020202020532020202020203D6F
:100140003D3D482020202020202020203D3D202013
:1001500020202020202048202020202020203D3D3D
:100160002020202020202020202048202020452042
:100170003D3D2020202020202020455520204820C3
:1001800020203D3D202020532045202020203D4898
:100190003D3D483D3D2020202020203D3D3D3D204F
:1001A00020202048202048202020202020202020FF
:1001B00020202020202020482020482020202020EF
:1001C00020202020202020202020454820204820BA
:1001D000202020552020202020552020203D3D3D5E
:1001E0003D3D483D3D3D3D483D3D3D3D3D483D203B
:1001F00020202020202048202020204820202020AF
:100200002048202020202020202048202020204876
:100210002020202020482020202053452020482036
:100220002020204820205320204820203D3D3D3DD7
:100230003D3D3D3D3D3D3D3D3D3D3D3D3D3D3D3DEE
:10024000000806060F060F070C0806060F060F0625
:100250000F0806060D020F02030806060D060F041E
:1002600006436875636B696520456767000500385C
:10027000016801000008080024187E3C7E3C00173D
:10028000534400161378001613140015102000159F
:10029000201000540A03E181867F3E186D830F0F02
:1002A0000E0183866033186DC3198F1803C38E60E7
:1002B00033186DE330CF1803C39E603630CDE36052
:1002C000CF3006C79E7E3E30CDB360CF300CC6F631
:1002D000603330D9B660CF33CFCCF66061B0DB1E6F
:1002E00060CF30D86CE6C061B0DB1E618F19986CAE
:1002F000C6C063B19B0E330F0FB078C6FF7E1F1BC5
:10030000061E0F0A0A153A49676E6F7265006D5630
:100310000A0A504C45415345205455524E204F46F1
:100320004620004C4F5720424154544552592120F9
:100330000003053F213F1208120A100A0E1C0E0C82
:100340001E0C141A14161F161E131E1E1B1E1E1F13
:100350001E3F213F3A2F3A173D173F213F181F02FA
:10036000040A041F0E04040E1F0A1F0A0E0E1F04A7
:10037000110E2E252E2F2A2E262929021F02081F94
:1003800008150E04040E150E15151B151B04060486
:10039000040C040000000017000300031F0A1F16CE
:1003A000371A1904130A153A000300000E11110E32
:1003B000000A040A040E04003000040404001000C3
:1003C0001804031F111F121F101D151711151F07E9
:1003D000041F17151D1F151D01011F1F151F1715C0
:1003E0001F000A00003200040A110A0A0A110A0456
:1003F0000115020E11171E051E1F150A0E110A1FE8
:10040000110E1F15111F05010E111D1F041F111FB5
:100410001108100F1F041B1F10101F061F1E040FB2
:100420000E110E1F09060E112E1F051A12150901B5
:100430001F011F101F0F180F1F0C1F1B041B031C75
:1004400003191513001F11030418111F00020102E4
:100450002020200001020C121E1F120C0C12120C84
:10046000121F0C1A14041E05242A1E1F021C141D20
:100470001020201D1F0814111F101E041E1E021C18
:100480000C120C3E0A040C123E1E040214160A0240
:100490000F120E101E0E100E1E081E120C12262811
:1004A0001E322A26041E21001F00211E0401020103
:1004B0003F213FF6E8DBCFC3B8AEA49B928A827B94
:1004C000746E68625C57524E4945413E3A3734314A
:1004D0002E2C2927252321450068010000172B1504
:1004E0002010204C4F4144455200172B1620131466
:1004F000000A4E6F2053442063617264206F720AB9
:100500006E6F204C4F414445522E4845580A0A15FB
:100510003A45786974001D20466C617368696E679E
:100520000A20206C6F616465722E2E2E0A0A444FD9
:100530004E2754205455524E204F4646210000006D
:100540000000230026002900040404040404040419
:10055000020202020202030303030303010204086E
:10056000102040800102040810200102040810201D
:100570000000000800020100000304070000000062
:1005800000000000821411241FBECFEFD8E0DEBFB0
:10059000CDBF11E0A0E0B1E0E4EAFDE202C00590C9
:1005A0000D92AE31B107D9F723E0AEE1B1E001C061
:1005B0001D92A83BB207E1F712E0C3ECD2E004C001
:1005C0002197FE010E94CA16C23CD107C9F70E94BA
:1005D000FA0F0C94D0160C940000E1E3F3E014AE93
:1005E00012AE10927A031092790315AE1092300178
:1005F00010922F0110922E011092B4000895CF9303
:10060000DF93E0915F038E2F90E0880F991FE091B8
:100610005D03F0915E03E80FF91F859194918F3F80
:10062000980729F410925603DF91CF910895909383
:1006300062039927880F991FE0916003F09161038D
:10064000E80FF91FC591D4910E94ED02D093640385
:10065000C0936303109269031092680381E0809352
:10066000570389E080936C0310926F03109271031B
:100670001092730380915F038F5F80935F03D4CFE9
:1006800090E0880F991FE0916503F0916603E80FF1
:10069000F91F259134913093760320937503F90166
:1006A0008591949190915A03989F802D1124809365
:1006B0007703F90165917491472F50E0841715066F
:1006C00029F020F0F90125913491832F989F802DF6
:1006D0001124809378030895AF92BF92CF92DF9256
:1006E000EF92FF920F931F93CF93DF936C017B01E7
:1006F0008B01040F151FEB015E01AE18BF08C01778
:10070000D10759F06991D601ED91FC910190F081EA
:10071000E02DC6010995892B79F7C501DF91CF91AD
:100720001F910F91FF90EF90DF90CF90BF90AF900F
:100730000895833081F028F4813099F08230A9F057
:1007400008958730A9F08830C9F08430B1F48091E1
:1007500080008F7D03C0809180008F778093800020
:10076000089584B58F7784BD089584B58F7DFBCFC0
:100770008091B0008F778093B00008958091B00091
:100780008F7DF9CF1F93CF93DF93282F30E0F901AE
:10079000E059FA4F8491F901E45AFA4FD491F901E2
:1007A000E85BFA4FC491CC23A9F0162F81110E9467
:1007B0009903EC2FF0E0EE0FFF1FE258FF4FA591D9
:1007C000B4918FB7F894EC91111108C0D095DE2345
:1007D000DC938FBFDF91CF911F910895DE2BF8CF6F
:1007E000CF93C82FF89460E080918E030E94C203DB
:1007F00080918F0318161CF460E00E94C203CEBDE6
:1008000000000DB407FEFDCF8EB580918F03181642
:100810001CF461E00E94C2037894CF9108950F9375
:100820001F93CF9380918B038F5F80938B0301E3A2
:1008300011E0C0E08C2F80640E94F00380E80E94E9
:10084000F00361E080918E030E94C20380918F03C8
:1008500018161CF460E00E94C203F80184E591912F
:100860009EBD00000DB407FEFDCF9EB58150B9F7C7
:1008700080918F0318161CF461E00E94C203CF5FC1
:100880000C5A1F4FC630B1F680E4CF911F910F91E3
:100890000C94F003CF93DF9390E0FC01E45AFA4FFD
:1008A0002491885B9A4FFC0184918823C9F090E0E1
:1008B000880F991FFC01EC58FF4FA591B491FC01E2
:1008C000E258FF4FC591D49161110DC09FB7F894C4
:1008D0008C91209582238C938881282328839FBF25
:1008E000DF91CF910895623051F49FB7F8943C9115
:1008F000822F809583238C93E8812E2BEFCF8FB7A7
:10090000F894EC912E2B2C938FBFEACFFF920F938C
:100910001F93CF93DF93C1E3D3E0FF24FA9462E007
:100920008A850E944A042A8530E0F901E059FA4F8D
:100930008491F901E45AFA4F0491F901E85BFA4F06
:1009400014911123E1F081110E949903E12FF0E04D
:10095000EE0FFF1FE25CFA4FA591B491EC918989EB
:100960000E2369F0811113C0219683E0C833D807A4
:10097000B1F6DF91CF911F910F91FF900895898972
:100980008F5F898B60E08A850E944A04EDCF8F3F9C
:1009900011F4198AF7CFF98AF5CF1F93CF93DF931C
:1009A000182FEB0161E00E944A04209739F460E0BF
:1009B000812FDF91CF911F910C94C203CF3FD105BE
:1009C00011F461E0F5CFE12FF0E0E059FA4FE49146
:1009D000E33031F140F4E130B1F0E230E1F0C03821
:1009E000D1057CF7E4CFE73029F1E83059F1E43064
:1009F000B1F780918000806280938000D0938B005B
:100A0000C0938A0004C084B5806884BDC7BDDF91EF
:100A1000CF911F91089584B5806284BDC8BDF7CF82
:100A200080918000806880938000D0938900C0937B
:100A30008800EDCF8091B00080688093B000C093B3
:100A4000B300E5CF8091B00080628093B000C09386
:100A5000B400DDCF8E50806480937C0080917A005A
:100A6000806480937A0080917A0086FDFCCF80912B
:100A70007800909179000895809155038F7149F520
:100A800084E10E942A05BC01990F880B990B0E94F2
:100A90008D1526EE3FE34EEC50E40E9419160E949D
:100AA0005C159B0170934C0360934B03672BB9F06B
:100AB00084E080934A03EDE4F3E080E041915191BA
:100AC0002417350718F480934A0308958F5F843004
:100AD000A9F7809155038F5F8093550308958FEF99
:100AE00080934A03F6CF3FB7F8948091200190910C
:100AF0002101A0912201B091230126B5A89B05C038
:100B00002F3F19F00196A11DB11D3FBFBA2FA92F8C
:100B1000982F8827BC01CD01620F711D811D911D89
:100B200042E0660F771F881F991F4A95D1F70895F5
:100B30008F929F92AF92BF92CF92DF92EF92FF92ED
:100B40004B015C010E9473056B017C010E947305DF
:100B50006C197D098E099F09683E734081059105D6
:100B6000A8F321E0821A9108A108B10888EEC80E06
:100B700083E0D81EE11CF11C81149104A104B1048E
:100B800029F7FF90EF90DF90CF90BF90AF909F90AC
:100B90008F9008952F923F925F926F927F928F92E3
:100BA0009F92AF92BF92CF92DF92EF92FF920F93FC
:100BB0001F93CF93DF93EC01F901E4903196849178
:100BC00064350CF015C10E2C000CFF08062F062E04
:100BD000000C110BF701E00FF11F1E161F060CF0A1
:100BE00007C140330CF004C1A82FC42E042E000C02
:100BF000DD085601A80EB11C87FDBA941A141B0417
:100C00000CF0F6C02E5F3F4F570197E0A90EB11CC4
:100C1000B7FE04C05701BEE0AB0EB11CB3E0B59403
:100C2000A794BA95E1F747FF0AC0A42FA80FAC9C80
:100C3000C001AD9C900D1124281B390B40E08A2F78
:100C40000A2E000C990B840F911D47FD9A95C197B0
:100C500014F0A0E3A41BF8A067FD60E0E535F10502
:100C600014F0E4E5F0E09E2FCC85C427C62E062EB6
:100C7000000CDD08F601E01BF10B8F014F01F7E0DE
:100C80008F229924E0E8F0E002C0F595E7958A9478
:100C9000E2F77E2F17FF02C0095F1F4FF3E01595A3
:100CA0000795FA95E1F7200F311F542F577081E017
:100CB00001C0880F5A95EAF7459545954595F60187
:100CC000B4E54B02E00DF11D1124AF014F5C5E4F06
:100CD000D0E02A2EAA0F3308EE24E394BB24D215C9
:100CE00013040CF085C0F9015490F1E0FF121AC012
:100CF000962E8A01E72F6901991608F057C08E2EAB
:100D0000852021F0D8018C90882A8C92E69531F4C8
:100D1000BFEFCB1ADB0AF6015490E0E893940F5F23
:100D20001F4FEACFF1101CC0782E7094962E8A01C6
:100D3000E72F6901991608F039C08E2E852021F021
:100D4000D8018C9087208C92E69531F4BFEFCB1AB6
:100D5000DB0AF6015490E0E893940F5F1F4FEACF4F
:100D6000F3E0FF122CC0782E7094862E8A01972E05
:100D700069018916D0F4E92DE52141F0D801EC9103
:100D80006C2E682460FE0FC0E82BEC93969439F427
:100D9000BFEFCB1ADB0AF6015490E0E89E2E839455
:100DA0000F5F1F4FE6CFE721F0CFCE25880F19F454
:100DB0004C5A5F4F81E0DF5F2A0D3B1D90CF962E8E
:100DC0008A01E72F6901991688F78E2E852021F078
:100DD000D8018C9088268C92E69531F4BFEFCB1A1F
:100DE000DB0AF6015490E0E893940F5F1F4FEBCFBE
:100DF000DF91CF911F910F91FF90EF90DF90CF90F7
:100E0000BF90AF909F908F907F906F905F903F903A
:100E10002F900895DC01643570F5403360F59096AD
:100E20008C919097E62F062E000CFF0B242F259512
:100E30002595259594E52902E00DF11D1124EF5C1F
:100E4000FE4F2081342F37708230B1F4822F90E032
:100E5000032E02C0959587950A94E2F780958170DC
:100E6000811114C081E090E001C0880F3A95EAF743
:100E70008095822380830895833091F71C968C910E
:100E800081706427609561708613ECCF81E090E0FB
:100E900001C0880F3A95EAF7822BECCFAF92BF9250
:100EA000CF92DF92EF92FF920F931F93CF93DF9336
:100EB000182F062FC0E0D3E08AEFD82E9EEFE92E40
:100EC000842F8470C82E842F8270B82E842F88704F
:100ED000A82E4170F42ECF5F8C2F880F8F5FE80E05
:100EE000CC2081F0402F4D0F612F6C0F8FE793E0E6
:100EF0000E940A07402F4C0F6D2F610F8FE793E080
:100F00000E940A07BB2081F0402F4D1B612F6C0F00
:100F10008FE793E00E940A07402F4C1B6D2F610F53
:100F20008FE793E00E940A07AA2081F0402F4C0F20
:100F3000612F6D1B8FE793E00E940A07402F4D0F32
:100F4000612F6C1B8FE793E00E940A07FF2081F05E
:100F5000402F4C1B612F6D1B8FE793E00E940A0707
:100F6000402F4D1B612F6C1B8FE793E00E940A07F7
:100F7000CD173CF4E7FCAFCFD150D394D394ED0C14
:100F8000AACFDF91CF911F910F91FF90EF90DF904B
:100F9000CF90BF90AF9008950F931F93CF93DF939F
:100FA000D82F162F042FC0E0C0174CF4412F4C0F40
:100FB0006D2F8FE793E00E940A07CF5FF5CFDF9197
:100FC000CF911F910F9108958F929F92AF92BF92F0
:100FD000CF92DF92EF92FF920F931F93CF93DF9305
:100FE000082FA62E842E922E83E0F82ED0E0C3E0A8
:100FF0009AEFE92E1EEFBB24B394B20EDF5F1F0DF4
:101000004C2F440F6A2D6C1BC92CCF0CDA2CDD1A27
:1010100081E04B0D881215C0802F8D0F0E94CC07E8
:101020004C2D6D2D8C2F800F0E94CC07DC1794F473
:1010300017FD04C0C150E394E3941E0DF394F394A0
:10104000DDCF802F8D1B0E94CC074C2D6D2D802F66
:101050008C1BEACFDF91CF911F910F91FF90EF9002
:10106000DF90CF90BF90AF909F908F900895CF92D8
:10107000DF92EF92FF920F931F93CF93DF937C0148
:10108000D62EC22EC42F002E000C110B040F111DE2
:1010900047FD1A958C2F0C2E000C990B8017910789
:1010A0006CF4D0E0DC1544F46D2D6D0F4C2FC701AE
:1010B0000E940A07DF5FF6CFCF5FECCFDF91CF91C1
:1010C0001F910F91FF90EF90DF90CF9008954F9276
:1010D0005F926F927F928F929F92AF92BF92CF92C8
:1010E000DF92EF92FF920F931F93CF93DF93EC0168
:1010F0006A3049F428859D818A85299F800D1124B5
:101100008A871986A6C06D3009F4A3C0898483E557
:1011100088150CF487C0DA848FE28D150CF482C038
:1011200018852C812150330B129FC001139F900D05
:101130001124880D911D87FC9A95181619060CF03C
:1011400071C02D818D2D0D2C000C990B129F800DDF
:10115000911D1124181619060CF064C078A0C82C33
:10116000912CE62EF12C292D092C000C330B8C81AF
:1011700090E0281739070CF054C00197E0E02817D9
:10118000390771F0E89EF001E99EF00DF89EF00D30
:1011900011242E0F3F1FEE8DFF8DE20FF31FE49100
:1011A0005D2C612C492C480C2D81862D062C000CC1
:1011B000990B2817190691F18CF1AE2EB12CE0FF96
:1011C00016C0113061F4462D4D0D642DCE010E94E4
:1011D0000A07F501F595E7956394510EE5CF012FC8
:1011E000212F452D6C2DCE010E943708F2CF89A109
:1011F00098A1891771F388A3113041F4462D4D0D44
:10120000642DCE010E940A0778A2E3CF012F212F7F
:10121000452D6C2DCE010E943708F6CF9394C10E58
:10122000A2CF78A228853C818985239F800D112437
:1012300089879F81992369F0082E000C990B44E55A
:1012400050E0239F401951091124481759070CF405
:1012500052CF81E090E0DF91CF911F910F91FF90ED
:10126000EF90DF90CF90BF90AF909F908F907F9046
:101270006F905F904F900895682F8FE793E00C94E4
:1012800067080F931F93CF93DF938C01D0E0C0E0EA
:10129000F801EC0FFD1F6491662341F08FE793E0A6
:1012A0000E946708892B11F02196F2CFCE01DF91C1
:1012B000CF911F910F910895089590E080E00895D7
:1012C000FC0101900020E9F73197AF01481B590B51
:1012D000BC018FE793E00C946C038F929F92AF92C6
:1012E000BF920F931F93CF93DF93CDB7DEB7A19734
:1012F0000FB6F894DEBF0FBECDBF19A2423008F47E
:101300004AE08E010F5D1F4F842E912CB12CA12C31
:10131000A50194010E94B714E62FB901CA01EA3071
:10132000F4F4E05DD801EE938D01232B242B252BC3
:1013300079F790E080E0109719F0CD010E946009E4
:10134000A1960FB6F894DEBF0FBECDBFDF91CF914F
:101350001F910F91BF90AF909F908F900895E95C7F
:10136000E1CFCF93DF930E944109EC0183E191E04B
:101370000E9460098C0F9D1FDF91CF910895E1E3DA
:10138000F1E088EF91E0DF019C011D922150304097
:10139000E1F7109288031092890386E195E00E949C
:1013A00041090E940F048CB583608CBD8DB58E7F82
:1013B0008DBD86E191E0EEEFFFE309951092850384
:1013C00081EF94E00E94B1090E940F040E948604FC
:1013D00080914603813039F062E370E080E090E074
:1013E0000E949805F3CF08954F925F926F927F927B
:1013F0008F929F92AF92BF92CF92DF92EF92FF9225
:101400000F931F93CF93DF9300D000D01F92CDB7DF
:10141000DEB74091B1035091B2036091B303709174
:10142000B4032FB7F89480912A0190912B01A091D9
:101430002C01B0912D012FBF481B590B6A0B7B0B60
:101440008091B00390E0B0E0A0E00091AC03109177
:10145000AD032091AE033091AF0384179507A60723
:10146000B70708F0CEC0011511052105310509F4B3
:10147000C8C02FB7F89480912A0190912B01A091B8
:101480002C01B0912D012FBF2091B003820F911D2F
:10149000A11DB11D8093B1039093B203A093B30338
:1014A000B093B4038091A2039091A303A091A403ED
:1014B000B091A5030196A11DB11D8093A203909345
:1014C000A303A093A403B093A5031092AC031092BE
:1014D000AD031092AE031092AF030E9473056093A8
:1014E000A8037093A9038093AA039093AB03809100
:1014F0003203909133032FE0289FA001299F500DC4
:1015000011245A83498385E10E942A05A981BA8161
:101510008A0F9B1FB4E096958795BA95E1F7909353
:1015200033038093320320913103222309F448C00E
:1015300060913503262F30E050E040E029833A8364
:101540004B835C83C0903603D12CF12CE12C40916D
:10155000390350913A034A01B12CA12C2091370351
:10156000309138032901712C612C8217930728F0E0
:101570009C014817590708F49A0150E040E02419EB
:1015800035094609570969817A818B819C816C19DB
:101590007D098E099F090E948616A50194012419D0
:1015A0003509460957090E948D14C20ED31EE41E48
:1015B000F51EC09234036C2D70E085E00E94CD04CE
:1015C0000E94860480914D0390914E03892B11F067
:1015D0000E943C0581E00F900F900F900F900F90AC
:1015E000DF91CF911F910F91FF90EF90DF90CF90FF
:1015F000BF90AF909F908F907F906F905F904F9033
:101600000895012B022B032B09F085C1809148031B
:1016100081508E3FB8F580914703813099F58091D4
:101620005B038F5F60915C0387FD09C0082E000C8F
:10163000990B70E06F5F7F4F0E94A216682F609336
:101640005B038AEE94E09093B6038093B50388E43D
:101650008093B7030E94ED0287ED94E090936403BA
:1016600080936303109269031092680381E0809372
:10167000570389E080936C0310926F0310927103FB
:10168000109273038091480381508E3F70F48091D3
:101690004603813009F018C38DED94E09093B603B2
:1016A0008093B50388E48093B70380915603882321
:1016B00031F080915703811102C00E94FF02809196
:1016C0005703882309F43EC080916B0381113AC00F
:1016D0008091630390916403E0916803F091690342
:1016E000EE0FFF1FE80FF91F2591349121153105E9
:1016F00009F468C1A9015695479556954795842FD9
:1017000020FD0BC18F7380936A0380915A03839FDE
:10171000802D112480936B0310927B0310927A0327
:101720001092790381E080936D0380932E011092D3
:101730006E03809168039091690301969093690309
:101740008093680380916D03882331F080916B034F
:10175000811152C10E94ED028091B703882309F4E0
:1017600090C08C3008F02FC23CE0381B3983FF2436
:10177000F394F092870310929F031092A00340917C
:1017800084034D831981141B042F0D5F4DE2410F1B
:101790002EE463E08FE793E00E9437085D815450A8
:1017A0005D83105D252F41E0612F80E50E94E407F5
:1017B0002D8142E0612F83E00E94E407F0929F03B5
:1017C000F092A0030091840383E0800F8D83198140
:1017D000101B9DE2E92EE10E23E0F22E4E2D6F2D1F
:1017E0008FE793E00E940A07F39491E5F912F6CF90
:1017F000AD81AE0DAD83EA2EEA9483E0F82E4E2D36
:101800006F2D8FE793E00E940A07F394B1E5FB1276
:10181000F6CF0350105D402F612F80E00E94CC076F
:10182000402F612F83E50E94CC0741E0612F83E0C8
:101830000E944E0742E0612F80E50E944E072D81F5
:1018400024502D8344E0622F80E50E944E0748E03B
:101850006D8183E00E944E0784E08093880380912D
:1018600084033981381B315D309389038091B5033E
:101870009091B6030E9441098091B70381508093F3
:10188000B70380914D0390914E03892BE1F041E025
:1018900040939F031092A0039091830385E5891BD9
:1018A000809388031092890380914A03813009F460
:1018B000F0C108F48AC190914903853008F0FFC156
:1018C0008B5F9111F7C10E940F04809185038111F4
:1018D0000EC0E1E3F1E088EF91E0DF019C011D9291
:1018E00021503040E1F710928803109289030E9442
:1018F00073056093AC037093AD038093AE03909334
:10190000AF032091A8033091A903621B730B70935E
:10191000A7036093A60380E05ECEC901E6E096953A
:101920008795EA95E1F78F71932F96959695969501
:1019300090514F70423099F1D0F4442309F43CC0E7
:101940004130B9F1E0916803F09169033196F09369
:101950006903E0936803CF01880F991FE091630347
:10196000F0916403E80FF91F25913491C3CE433001
:1019700061F0443039F720915A03289F802D1124BB
:101980008093730390937403DDCF20915A03289FB3
:10199000802D11248093710390937203D3CF2091F3
:1019A0005A03289F802D112480936F039093700316
:1019B000C9CF0E944003C6CF8B3008F08AE08093E5
:1019C0006C03C0CF20916703211110C01092570300
:1019D00080915603811103C00E94ED02B3CE0E9494
:1019E000FF028091680390916903B6CF109269035A
:1019F00010926803FC01B8CF815080936B038091F3
:101A00007B03811142C02091790330917A032F5FCB
:101A10003F4FC901880F991FE0917503F09176033C
:101A2000E80FF91F85919491482F477040937C03EC
:101A3000492F4695469540937D03AC0164E0569549
:101A400047956A95E1F74F7390915A03499F402D4E
:101A5000112440937B0383FB882780F9809329011D
:101A600030937A03209379038091770390E02817CD
:101A7000390758F020917803222309F49EC0821B75
:101A8000910990937A038093790380917B0381502D
:101A900080937B0380916E0331E0380F30936E03A7
:101AA00040916A0320917D03240F80916203280FE7
:101AB0002093580360917103662371F070E0832FC7
:101AC000032E000C990B0E94A21680917203869F30
:101AD000200D1124209358038091580390E08496A0
:101AE00064E270E00E94A2168093580320916C0378
:101AF0002093590360916F03662381F0062E000C3A
:101B0000770B832F032E000C990B0E94A216809155
:101B10007003869F200D1124209359036091730355
:101B20006623A1F0832F330F990B70E00E94A21659
:101B3000CB0162E070E00E94A216209174039091A4
:101B40005903289F900D1124909359034F33C1F1ED
:101B5000809159038A300CF089E087FD80E0809302
:101B60005903F894E0915803F0E0ED54FB4FE491F1
:101B7000E093280120917E033091590332039001B4
:101B8000112440917C034203C001439F900D112416
:101B900020915B0302C0880F991F2A95E2F797FFF7
:101BA00002C081589F4F880F892F881F990B8093FF
:101BB0002F01809330017894CFCD0E94ED0265CF44
:101BC00010925903CECF1982D2CD0E94ED0210920D
:101BD000570351E050938703E1E3F3E0E491EF5FB3
:101BE000E0938303E2E3F3E0E491EF5FE0938403A7
:101BF00083E393E090939E0380939D0310924E03A2
:101C000010924D031092850388EA89830E94F4099B
:101C10008823E1F383E293E00E94410960914B0342
:101C200070914C0390E080E04AE00E946D098EE0E4
:101C300093E00E944109698162956F7070E090E0C5
:101C400080E04AE00E946D0983E093E00E94410930
:101C500080914603813009F436CE99819150998361
:101C60009111D4CF70E060E085E00E94CD0483B78D
:101C7000817F846083BF83B7816083BF83B78160C6
:101C800083BF889583B78E7F83BF83B78E7F83BFE3
:101C9000BDCF8091A2039091A303A091A403B09122
:101CA000A5038F709927AA27BB270897A105B1051F
:101CB00020F487E00E943C0906CE88E7FBCF9923F9
:101CC00009F401CE8FE2F6CF893209F0EECC0E9402
:101CD000BF09EBCC8F929F92AF92BF92CF92DF92CF
:101CE000EF92FF920F931F93CF93DF93EC0181E06C
:101CF0008093870310928603109285031092490304
:101D000080939F038093A0038CE0F82E07ED14E0EE
:101D1000EE24E39499E0D92E0E94F4098823E1F39C
:101D2000FE01C490C110C090840323E932E040E07A
:101D300060E08FE793E00E94CA054CE04C0D25E778
:101D400032E060E08FE793E00E94CA0510928803BA
:101D5000F0928903CE010E94410980918303982F5C
:101D6000990F990F891B8D5A809388038091840362
:101D7000982F990F990F891B835D80938903809118
:101D8000A20384FF78C08FE892E00E94B10980919D
:101D90008303982F990F990F891B8D5A809388037D
:101DA000809189038F5F8093890380915B038823EF
:101DB00009F464C087E892E00E94B109809183032E
:101DC000982F990F990F891B8D5A809388038091C2
:101DD00089038F5F809389038FE792E00E94B109A6
:101DE00080914703813031F580915B038F5F609173
:101DF0005C0387FD09C0082E000C990B70E06F5F33
:101E00007F4F0E94A216682F60935B030E94ED0231
:101E100010936403009363031092690310926803A4
:101E2000E0925703D0926C0310926F0310927103EB
:101E30001092730380914603813019F18091A103C0
:101E4000482F50E070E060E08090A2039090A303E0
:101E5000A090A403B090A50384169506A606B70625
:101E600010F08F3F71F480914803813009F054CF16
:101E70000E94BF0951CF8BE892E087CF83E892E0C0
:101E80009BCF8FEF8093A1030E94ED021092570326
:101E90000E94ED028DE692E09093640380936303C9
:101EA000109269031092680381E08093570399E0D0
:101EB00090936C0310926F0310927103109273034E
:101EC00080934903DF91CF911F910F91FF90EF9085
:101ED000DF90CF90BF90AF909F908F9008951F920A
:101EE0000F920FB60F9211242F933F938F939F93CE
:101EF000AF93BF9380912A0190912B01A0912C0167
:101F0000B0912D0130911F0123E0230F2D3758F59B
:101F10000196A11DB11D20931F0180932A0190936A
:101F20002B01A0932C01B0932D0180912001909161
:101F30002101A0912201B09123010196A11DB11DA3
:101F40008093200190932101A0932201B09323015B
:101F5000BF91AF919F918F913F912F910F900FBEA5
:101F60000F901F90189526E8230F0296A11DB11D12
:101F7000D2CF1F920F920FB60F9211242F936F930F
:101F80007F938F939F9360912F01662349F18091F6
:101F90001E018F5F80931E0190912801891700F127
:101FA00020912E0181E0282720932E0110921E01FE
:101FB00080912901882369F08091000193E4899F31
:101FC000802D1124895B809300010E9496169093C6
:101FD000300180913001211101C080E08093B40074
:101FE0009F918F917F916F912F910F900FBE0F90C6
:101FF0001F901895CF93DF9300D000D000D0CDB7BD
:10200000DEB7789484B5826084BD84B5816084BD78
:1020100085B5826085BD85B5816085BD80916E0086
:10202000816080936E0010928100809181008260B7
:1020300080938100809181008160809381008091F4
:1020400080008160809380008091B10084608093E3
:10205000B1008091B00081608093B00080917A00DF
:10206000846080937A0080917A00826080937A0005
:1020700080917A00816080937A0080917A008068F4
:1020800080937A001092C10082E38093B00381E0D4
:1020900090E0A0E0B0E08093AC039093AD03A093F8
:1020A000AE03B093AF038FEF8093A103E0E8F7E7AF
:1020B000259134912130304C09F029C2E6E9F7E747
:1020C000E491E0938A03E7E9F7E7E491E0933503CD
:1020D000E8E9F7E7E491E0933603E9E9F7E785916A
:1020E00094919093380380933703EBE9F7E7859158
:1020F000949190933A038093390387E080935C0333
:10210000EEE9F7E7E491E0935B03EFE9F7E7E491A9
:10211000E093A103E0EAF7E78591949190934E0351
:1021200080934D03E2EAF7E78591949190935003F1
:1021300080934F03E4EAF7E78591949190935203DB
:1021400080935103E6EAF7E78591949190935403C5
:1021500080935303E1E0E09331036FEF70E085E09B
:102160000E94CD0488E080933B0389E080933C0388
:1021700087E080933D0386E080933E03F4E0F09394
:102180003F0382E08093400381E1809341030E94FA
:1021900086048CE39FE090934C0380934B0324E0F0
:1021A00020934A0381E0809355038BE080938D0355
:1021B0008DE080938C0380E180938E038EE080938A
:1021C00090038FE080938F0391E090938703909327
:1021D0009F031092A00390938603E1E3F3E0E49160
:1021E000EF5FE0938303E2E3F3E0E491EF5FE093DA
:1021F000840383E393E090939E0380939D03EFB762
:10220000E983F89480912401811127C0E2E5F5E08B
:102210008491E6E6F5E09491E82FF0E0EE0FFF1FE1
:10222000EC58FF4FA591B491EC91E92321F461E0C2
:102230008AE00E94C20361E08AE00E944A048CB5F1
:1022400080618CBD8CB580648CBD61E08DE00E94A6
:102250004A0461E08BE00E944A04809124018F5F70
:1022600080932401F981FFBF8CB58F7D8CBD8CB527
:102270008C7F81608CBD8DB581608DBD8CB58C608F
:102280008CBD61E080918D030E944A0461E08091E1
:102290008C030E944A0461E080918E030E944A04EC
:1022A0008091900318161CF461E00E944A0480910A
:1022B0008F0318161CF461E00E944A048091900379
:1022C000181674F460E00E94C2036AE070E080E0D7
:1022D00090E00E94980561E0809190030E94C20303
:1022E00080918C03082E000C990BFC01E85BFA4FDF
:1022F000E491F0E0EE0FFF1FE258FF4F259134917B
:102300003093940320939303FC01E45AFA4FE49131
:10231000E0939A0380918D03082E000C990BFC0129
:10232000E85BFA4FE491F0E0EE0FFF1FE258FF4F39
:10233000259134913093920320939103FC01E45A48
:10234000FA4FE491E093990380918F03082E000CDB
:10235000990BFC01E85BFA4FE491F0E0EE0FFF1FF0
:10236000E258FF4F259134913093960320939503C3
:10237000FC01E45AFA4FE491E0939B0380918E03B1
:10238000082E000C990BFC01E85BFA4FE491F0E099
:10239000EE0FFF1FE258FF4F2591349130939803C1
:1023A00020939703FC01E45AFA4FE491E0939C03D5
:1023B00081E20E94F00384E10E94F00380918A038D
:1023C00087FF03C08FE780938A0380918A03806828
:1023D0000E94F00380E20E94F0038CE00E94F00370
:1023E0000E940F0481E080935A0384E080937E036F
:1023F00080E790E0909366038093650380E00E94FD
:10240000400361E070E083E00E94CD048091B10060
:10241000887F81608093B100F894109280001092C0
:102420008100109285001092840088E191E09093E1
:10243000890080938800809181008860809381006A
:102440008091810081608093810080916F00826023
:1024500080936F00789480914D0390914E03892B67
:1024600011F00E943C0580914703813009F47CC043
:1024700080914A03882309F477C00E94ED0288E81E
:1024800090E0909364038093630310926903109229
:10249000680381E08093570389E080936C03109276
:1024A0006F0310927103109273031092490380918D
:1024B000A103882321F086E990E00E946A0E50E88B
:1024C000252E312C0E94F409882309F454C11E8260
:1024D0001D8248E0D42E38E4C32E03E110E08D8144
:1024E0009E8180559F4F7C01F701E00FF11FE49121
:1024F000ED33E9F1E33509F446C1E53409F446C1A9
:10250000E83411F0E535D9F520EA30E032C09CE33B
:1025100090938A03109235038093360380E293E010
:10252000909338038093370384ED93E090933A03BC
:102530008093390387E080935C0380935B038CEA8C
:102540009DE090934E0380934D038EED9DE090931C
:10255000500380934F0384E79EE09093520380934F
:1025600051038CE39FE0F2CD10925B039ECF2CEAE7
:1025700030E04D2D6C2D8FE793E00E94CA0501508D
:1025800011099CEFC90EE8EFCE12AECFD394D394CD
:102590008D819E8144969E838D8390E3D9129BCF3B
:1025A00080914803813061F48091A103882321F058
:1025B00081E692E00E946A0E109227011092260195
:1025C0008091260190912701019690932701809395
:1025D00026012091440321502E3FF8F429E532E0F2
:1025E0003093060120930501309104012FEF230F52
:1025F000223028F4209103012E5F209303011092D2
:10260000020121E0313039F421E532E03093060156
:102610002093050122E020930401209142032150E0
:102620002E3F00F529E532E03093060120930501A5
:10263000309104012BEF230F223028F42091030165
:1026400022502093030121E02093020125E0353040
:1026500039F421E532E0309306012093050126E0AC
:10266000209304012091430321502E3FC0F4209178
:10267000010149E452E050930601409305012250C4
:102680002093010120910401211109C021E432E0CD
:10269000309306012093050127E020930401209147
:1026A000450321502E3FC8F42091010149E452E036
:1026B00050930601409305012E5F20930101209164
:1026C0000401233009F065C021E432E030930601B3
:1026D0002093050124E0209304012091460321501A
:1026E0002E3F48F40B973CF080912501811103C0E7
:1026F0008AE080932501E0912501EA83109103018E
:10270000F0910101F983E63008F445C0F150F093EF
:102710000101E150E0932501143018F484E0809326
:102720000301809103018D3418F08CE48093030140
:1027300080910101823018F482E080930101809140
:1027400001018B3218F08AE280930101209102018D
:102750000091050110910601609001018091030133
:1027600084508983211158C09801462D682F8FE726
:1027700093E00E94CA0580E090E0892B09F4A2CE84
:102780000E9400009CCE28EA30E0F3CE24EA30E03C
:10279000F0CE23E0A0CF2981822F90E0BC016850C9
:1027A000710977FF02C06F5F7F4F75956795072EA0
:1027B000000C880B990B0E948D1520E030E040E45E
:1027C00050E40E94E9140E94551544E1469F90018F
:1027D000479F300D1124E12FE695E695E20FF32F88
:1027E000F11DE055FF4FE491E03281F48A818823A6
:1027F00041F099819F5F9093010181508093250161
:102800008BCFE981EE5FE093010186CF6F5F7F4F51
:10281000660F6093010180CFF80184913196749026
:10282000E82EF12C2701F7E04F0E511C93E0559450
:1028300047949A95E1F7912CC72CD12C81508C8329
:10284000892D092C000C990B8E159F050CF093CF48
:102850009A8297FE03C087E0890D8A839A819595B5
:10286000959595959A83892D877887FF03C0815028
:10287000886F8F5F510102C0B594A7948A95E2F7E3
:10288000812CEA810E2E000CFF0B3296FE83ED8325
:10289000FC81F919FB83882D082C000C990B8C15F1
:1028A0009D0574F5489EF001499EF00D589EF00D6F
:1028B00011248D819E81E80FF91FE00FF11FE49133
:1028C000F0E0EA21FB21EF2BC9F0222361F0922FE7
:1028D00093709A836B8120FF692D472D481921FD44
:1028E00005C0482D03C0482D692D1A82E9816E0F5D
:1028F000460D8FE793E00E940A072A818394CBCF8D
:1029000093949ECF10928203109281038BE091E00A
:102910009093800380937F030895052E97FB1EF408
:1029200000940E94A41457FD07D00E94B71407FC1E
:1029300003D04EF40C94A4145095409530952195F5
:102940003F4F4F4F5F4F08959095809570956195DB
:102950007F4F8F4F9F4F08950E94D914A59F900DD0
:10296000B49F900DA49F800D911D11240895A1E2A4
:102970001A2EAA1BBB1BFD010DC0AA1FBB1FEE1FF9
:10298000FF1FA217B307E407F50720F0A21BB30B44
:10299000E40BF50B661F771F881F991F1A9469F7C0
:1029A00060957095809590959B01AC01BD01CF011C
:1029B0000895A29FB001B39FC001A39F700D811D18
:1029C0001124911DB29F700D811D1124911D089538
:1029D0005058BB27AA270E9400150C94DF150E94AF
:1029E000D11538F00E94D81520F039F49F3F19F422
:1029F00026F40C94CE150EF4E095E7FB0C94C81564
:102A0000E92F0E94F01558F3BA176207730784077D
:102A1000950720F079F4A6F50C9412160EF4E095C3
:102A20000B2EBA2FA02D0B01B90190010C01CA0188
:102A3000A0011124FF27591B99F0593F50F4503E33
:102A400068F11A16F040A22F232F342F4427585F25
:102A5000F3CF469537952795A795F0405395C9F73D
:102A60007EF41F16BA0B620B730B840BBAF09150F5
:102A7000A1F0FF0FBB1F661F771F881FC2F70EC094
:102A8000BA0F621F731F841F48F487957795679567
:102A9000B795F7959E3F08F0B0CF9395880F08F053
:102AA0009927EE0F9795879508950E945C15689475
:102AB000B1110C94131608950E94F81588F09F57D1
:102AC00098F0B92F9927B751B0F0E1F0660F771F52
:102AD000881F991F1AF0BA95C9F714C0B13091F048
:102AE0000E941216B1E008950C941216672F782FE9
:102AF0008827B85F39F0B93FCCF38695779567950D
:102B0000B395D9F73EF490958095709561957F4F78
:102B10008F4F9F4F0895E89409C097FB3EF490951E
:102B20008095709561957F4F8F4F9F4F9923A9F0A6
:102B3000F92F96E9BB279395F69587957795679535
:102B4000B795F111F8CFFAF4BB0F11F460FF1BC079
:102B50006F5F7F4F8F4F9F4F16C0882311F096E90C
:102B600011C0772321F09EE8872F762F05C06623BA
:102B700071F096E8862F70E060E02AF09A95660F73
:102B8000771F881FDAF7880F9695879597F908952C
:102B900097F99F6780E870E060E008959FEF80EC10
:102BA000089500240A9416161706180609060895B3
:102BB00000240A9412161306140605060895092E19
:102BC0000394000C11F4882352F0BB0F40F4BF2B88
:102BD00011F460FF04C06F5F7F4F8F4F9F4F0895C8
:102BE00057FD9058440F551F59F05F3F71F04795BE
:102BF000880F97FB991F61F09F3F79F087950895A3
:102C0000121613061406551FF2CF4695F1DF08C0C1
:102C1000161617061806991FF1CF869571056105DE
:102C200008940895E894BB2766277727CB0197F986
:102C300008950E942C160C94DF150E94D11538F0CF
:102C40000E94D81520F0952311F00C94C8150C940F
:102C5000CE1511240C9413160E94F01570F3959F55
:102C6000C1F3950F50E0551F629FF001729FBB2783
:102C7000F00DB11D639FAA27F00DB11DAA1F649F1F
:102C80006627B00DA11D661F829F2227B00DA11DD2
:102C9000621F739FB00DA11D621F839FA00D611D58
:102CA000221F749F3327A00D611D231F849F600D79
:102CB000211D822F762F6A2F11249F5750409AF0A2
:102CC000F1F088234AF0EE0FFF1FBB1F661F771F2E
:102CD000881F91505040A9F79E3F510580F00C94F9
:102CE000C8150C9413165F3FE4F3983ED4F3869511
:102CF00077956795B795F795E7959F5FC1F7FE2B99
:102D0000880F911D9695879597F90895DB018F930C
:102D10009F930E94AC14BF91AF91A29F800D911D13
:102D2000A39F900DB29F900D11240895991B79E0F7
:102D300004C0991F961708F0961B881F7A95C9F74B
:102D40008095089597FB072E16F4009407D077FD21
:102D500009D00E94B61607FC05D03EF490958195E7
:102D60009F4F0895709561957F4F0895AA1BBB1BD7
:102D700051E107C0AA1FBB1FA617B70710F0A61B7B
:102D8000B70B881F991F5A95A9F780959095BC019C
:102D9000CD010895EE0FFF1F0590F491E02D0994E9
:042DA000F894FFCFD5
:102DA400010A01140559020000000067086C035D64
:0E2DB400095C090D0A004C4F414445520000D5
:00000001FF
