:100000000C94CD040C94F5040C94F5040C94F504B4
:100010000C94F5040C94F5040C94F5040C94F5047C
:100020000C94F5040C94F5040C94F5040C94112331
:100030000C94F5040C94F5040C94F5040C94F5045C
:100040000C94C7220C94F5040C94F5040C94F5045C
:100050000C94F5040C94F5040C94F5040C94F5043C
:100060000C94F5040C94F504450040014181497855
:100070008D782C05000045000181307F000045008F
:100080002C010000450054010000450049707C012E
:100090004D782C0400004D47343200525047004147
:1000A0004B343700503930002E333537000101FF13
:1000B000030101F7034D61696E204D656E750053B4
:1000C000797374656D20496E666F004869676820B2
:1000D00073636F726573005265737461727400505C
:1000E0006C61790008080008001838B4001008088E
:1000F000FF81FFA3C5FF81FF08080024187E3C7E16
:100100003C0008080000183C182400004500840149
:100110000000484947482053434F52455300177346
:1001200061766500166261636B0015747970650015
:100130000A0A0A153A6F6B617920163A6564697488
:1001400000596F7520656E74657265640A004F759D
:1001500074206F6620616D6D6F210045004C0100B9
:10016000008A0084007E0076006800450049784DD2
:1001700078280A0000526566696C6C65642021006D
:100180000500400150015C01700180016C015401C7
:100190006001740184014C015C0168017C018C01E7
:1001A00000005570677261646564202100456172CA
:1001B0006E20243520666972737400153A6163639A
:1001C000657074002063726162732E000A62792088
:1001D0006B696C6C696E670A00596F75206D61649C
:1001E0006520240047414D45204F56455221004E81
:1001F0004557204849474853434F52450047414DD2
:1002000045204F564552210045006405000008086E
:10021000000C1C181000000008086C928244281082
:10022000000008086CFEFE7C381000000808003C46
:100230005A7E7E7E3C00153A73686F6F7420163AC2
:1002400072756E004C4554275320474F2100CFCF85
:10025000804001FC39E00C06871FC3C181013C339B
:1002600007E08409C1CF0808542014418804510ACA
:10027000696E6600A800A4009F009B009600050020
:10028000380168010000B100AD000000000024004A
:1002900027002A0000000000250028002B00050090
:1002A00089300802380249786814000005006801A6
:1002B000380100002F00566F6C756D653A00426181
:1002C000636B6C696768743A004C696768743A00DC
:1002D0002F3400426174206C766C3A006D560042F7
:1002E00061743A0005077F4141417F3E5B4F5B3EB1
:1002F0003E6B4F6B3E183C783C18183C7E3C181CFB
:10030000577D571C1C5E7F5E1C007E43437E007E33
:1003100073737E007E7F7F7E7F4141417F30483A0C
:10032000060E06297929067F4141417F60703F0210
:10033000042A1C361C2A7F3E1C080000081C3E7F35
:1003400014227F22143C3C3C7EFF18423C817E3EBE
:100350006375633E3E616B633E3E636B6B3E0402BE
:100360007F020410207F201008082A1C08081C2A7D
:100370000808143E554122637569756310181C18EE
:1003800010040C1C0C04000000000000005F0000C2
:100390000007000700147F147F14042A7F2A10230B
:1003A0001308646236495620500008070300001CF9
:1003B0002241000041221C002A1C3E1C2A08083E43
:1003C000080800E0600000080808080800606000F5
:1003D0000060100804033E5149453E00427F400042
:1003E00062514949462141494D331814127F102763
:1003F000454545393C4A49493041211109073649AB
:10040000494936064949291E00002400000080643D
:100410000000081422410014141414140041221482
:100420000802015909063E415D594E7C1211127CA9
:100430007F494949363E414141227F4141221C7F4B
:10044000494949417F090909013E414151327F082B
:1004500008087F00417F41002041413F017F08148F
:1004600022417F404040407F020C027F7F0204080F
:100470007F3E4141413E7F090909063E416141BE3F
:100480007F09192946264949493201017F01013F67
:100490004040403F1F2040201F3F4038403F6314F2
:1004A00008146303047804036151494543007F4104
:1004B000410003040810600041417F000402010272
:1004C0000480808080800003070800205454784016
:1004D0007F284444383844444428384444287F38EA
:1004E00054545418087E09090218A4A49C787F0863
:1004F00004047800447D4000006080847D7F1010FB
:10050000284400417F40007C047804787C0804047F
:10051000783844444438FC1824241818242418FC3F
:100520007C080404080854545420043F4444203CEC
:100530004040207C1C2040201C3C4020403C442863
:100540001028444C9090907C4464544C44000836ED
:10055000410000007F000000413608001804081028
:100560000C7F4141417FDF00D700CB00BF00B500C9
:100570004024FFFFFFFFFFFFFFFF8000000000019E
:1005800041418000018006041411800001800600B2
:10059000808180000180060000418F3F79B9EF9E85
:1005A0007E1199BBCDFB3633762199B30D98363346
:1005B000664598307D99F63360039830CD9B36338D
:1005C00061419830CD9B3633641599B0DD9B76330D
:1005D0006089CF30FDF3F39E604180000000000091
:1005E0000515A0000000002080A1C000180C00002C
:1005F0000FF59000245280F00813D002AC5681F819
:100600000FF1994334DAE1F80A359542255281F821
:100610000C59DDC219CC61680FF18040000000F078
:1006200008158080000000000FF1C00000000600E7
:100630000005800000000F000003C000000006005D
:10064000000190000000090000058000000000008B
:100650000009C14000000000000193D0000000002C
:100660000005A3E000000006000183E00545400FFF
:10067000054583D002020006020381400141400982
:1006800001418000041410000415FFFFFFFFFFFF6D
:10069000FFFF0017534400161378001613140015BB
:1006A00010200015201000540A03E181867F3E18B7
:1006B0006D830F0F0E0183866033186DC3198F1879
:1006C00003C38E6033186DE330CF1803C39E6036CA
:1006D00030CDE360CF3006C79E7E3E30CDB360CFD5
:1006E000300CC6F6603330D9B660CF33CFCCF6606D
:1006F00061B0DB1E60CF30D86CE6C061B0DB1E613C
:100700008F19986CC6C063B19B0E330F0FB078C6BB
:10071000FF7E1F1B061E0F0A0A153A49676E6F728D
:1007200065006D560A0A504C4541534520545552B8
:100730004E204F464620004C4F57204241545445CE
:10074000525921200003053F213F1208120A100AC6
:100750000E1C0E0C1E0C141A14161F161E131E1E31
:100760001B1E1E1F1E3F213F3A2F3A173D173F21E8
:100770003F181F02040A041F0E04040E1F0A1F0A5A
:100780000E0E1F04110E2E252E2F2A2E2629290289
:100790001F02081F08150E04040E150E15151B1553
:1007A0001B040604040C04000000001700030003EF
:1007B0001F0A1F16371A1904130A153A00030000FE
:1007C0000E11110E000A040A040E04003000040485
:1007D000040010001804031F111F121F101D15170D
:1007E00011151F07041F17151D1F151D01011F1FC0
:1007F000151F17151F000A00003200040A110A0A0B
:100800000A110A040115020E11171E051E1F150AF2
:100810000E110A1F110E1F15111F05010E111D1FAC
:10082000041F111F1108100F1F041B1F10101F069B
:100830001F1E040F0E110E1F09060E112E1F051A82
:10084000121509011F011F101F0F180F1F0C1F1B6E
:10085000041B031C03191513001F11030418111F97
:10086000000201022020200001020C121E1F120CA7
:100870000C12120C121F0C1A14041E05242A1E1F1F
:10088000021C141D1020201D1F0814111F101E040F
:100890001E1E021C0C120C3E0A040C123E1E040208
:1008A00014160A020F120E101E0E100E1E081E1233
:1008B0000C1226281E322A26041E21001F00211E8B
:1008C000040102013F213FF6E8DBCFC3B8AEA49B91
:1008D000928A827B746E68625C57524E4945413EF3
:1008E0003A3734312E2C2927252321172B15201098
:1008F000204C4F4144455200172B1620131400453D
:1009000000680100000A4E6F205344206361726446
:10091000206F720A6E6F204C4F414445522E48455D
:10092000580A0A153A45786974001D20466C6173AF
:1009300068696E670A20206C6F616465722E2E2EC6
:100940000A0A444F4E2754205455524E204F4646D3
:1009500021000000000023002600290004040404F4
:100960000404040402020202020203030303030359
:100970000102040810204080010204081020010236
:100980000408102000000008000201000003040712
:100990000000000000000000212811241FBECFEF3E
:1009A000D8E0DEBFCDBF11E0A0E0B1E0ECE8F5E5B6
:1009B00002C005900D92A835B107D9F725E0A8E54A
:1009C000B1E001C01D92A837B207E1F714E0CDEC09
:1009D000D4E004C02197FE010E94B72ACC3CD10785
:1009E000C9F70E9452230C94C42A0C94000090E092
:1009F000880F991FE0912505F0912605E80FF91F52
:100A0000259134913093360520933505F901859170
:100A1000949190911A05989F802D11248093370509
:100A2000F90165917491472F50E08417150629F05C
:100A300020F0F90125913491832F989F802D112466
:100A4000809338050895DC01ED91FC910190F081CF
:100A5000E02D0994EF92FF920F931F93CF93DF93B2
:100A60008C017B01D0E0C0E0F701EC0FFD1F649129
:100A7000662361F0D801ED91FC910190F081E02DA9
:100A8000C8010995892B11F02196EECFCE01DF9197
:100A9000CF911F910F91FF90EF900895AF92BF9269
:100AA000CF92DF92EF92FF920F931F93CF93DF933A
:100AB0006C017B018B01040F151FEB015E01AE1869
:100AC000BF08C017D10759F06991D601ED91FC918B
:100AD0000190F081E02DC6010995892B79F7C501B8
:100AE000DF91CF911F910F91FF90EF90DF90CF900A
:100AF000BF90AF900895833081F028F4813099F051
:100B00008230A9F008958730A9F08830C9F0843088
:100B1000B1F4809180008F7D03C0809180008F7739
:100B200080938000089584B58F7784BD089584B53F
:100B30008F7DFBCF8091B0008F778093B0000895B8
:100B40008091B0008F7DF9CF1F93CF93DF93282F33
:100B500030E0F901EC57F64F8491F901E059F64F76
:100B6000D491F901E45AF64FC491CC23A9F0162F81
:100B700081110E947B05EC2FF0E0EE0FFF1FEC5679
:100B8000FD4FA591B4918FB7F894EC91111108C065
:100B9000D095DE23DC938FBFDF91CF911F91089515
:100BA000DE2BF8CFCF93C82FF89460E080914E05EC
:100BB0000E94A40580914F0518161CF460E00E9465
:100BC000A405CEBD00000DB407FEFDCF8EB580910B
:100BD0004F0518161CF461E00E94A4057894CF918B
:100BE00008950F931F93CF9380914B058F5F809350
:100BF0004B0501EF12E0C0E08C2F80640E94D2050B
:100C000080E80E94D20561E080914E050E94A40513
:100C100080914F0518161CF460E00E94A405F801AD
:100C200084E591919EBD00000DB407FEFDCF9EB5F9
:100C30008150B9F780914F0518161CF461E00E94AD
:100C4000A405CF5F0C5A1F4FC630B1F680E4CF9198
:100C50001F910F910C94D205CF93DF9390E0FC018C
:100C6000E059F64F2491845A964FFC0184918823D1
:100C7000C9F090E0880F991FFC01E657FD4FA59140
:100C8000B491FC01EC56FD4FC591D49161110DC09A
:100C90009FB7F8948C91209582238C938881282388
:100CA00028839FBFDF91CF910895623051F49FB7A1
:100CB000F8943C91822F809583238C93E8812E2B8E
:100CC000EFCF8FB7F894EC912E2B2C938FBFEACFF8
:100CD000FF920F931F93CF93DF93C1EFD4E0FF24D4
:100CE000FA9462E08A850E942C062A8530E0F90198
:100CF000EC57F64F8491F901E059F64F0491F90150
:100D0000E45AF64F14911123E1F081110E947B0502
:100D1000E12FF0E0EE0FFF1FEE5AF64FA591B491D0
:100D2000EC9189890E2369F0811113C0219684E02A
:100D3000C83FD807B1F6DF91CF911F910F91FF9077
:100D4000089589898F5F898B60E08A850E942C06CF
:100D5000EDCF8F3F11F4198AF7CFF98AF5CF1F93A2
:100D6000CF93DF93182FEB0161E00E942C062097B0
:100D700039F460E0812FDF91CF911F910C94A4058D
:100D8000CF3FD10511F461E0F5CFE12FF0E0EC5752
:100D9000F64FE491E33031F140F4E130B1F0E2306C
:100DA000E1F0C038D1057CF7E4CFE73029F1E83035
:100DB00059F1E430B1F78091800080628093800027
:100DC000D0938B00C0938A0004C084B5806884BD32
:100DD000C7BDDF91CF911F91089584B5806284BD16
:100DE000C8BDF7CF80918000806880938000D09349
:100DF0008900C0938800EDCF8091B0008068809317
:100E0000B000C093B300E5CF8091B00080628093C2
:100E1000B000C093B400DDCF8E50806480937C001E
:100E200080917A00806480937A0080917A0086FDB8
:100E3000FCCF8091780090917900089580911505FC
:100E40008F7149F584E10E940C07BC01990F880B52
:100E5000990B0E947A2926EE3FE34EEC50E40E9463
:100E6000DE290E9449299B0170930C0560930B05B4
:100E7000672BB9F084E080930A05EDE0F5E080E0AF
:100E8000419151912417350718F480930A0508956C
:100E90008F5F8430A9F7809115058F5F80931505CA
:100EA00008958FEF80930A05F6CF3FB7F8948091AD
:100EB0009F029091A002A091A102B091A20226B53A
:100EC000A89B05C02F3F19F00196A11DB11D3FBF82
:100ED000BA2FA92F982F8827BC01CD01620F711D51
:100EE000811D911D42E0660F771F881F991F4A954B
:100EF000D1F708958F929F92AF92BF92CF92DF92D7
:100F0000EF92FF924B015C010E9455076B017C013F
:100F10000E9455076C197D098E099F09683E734030
:100F200081059105A8F321E0821A9108A108B10872
:100F300088EEC80E83E0D81EE11CF11C81149104D8
:100F4000A104B10429F7FF90EF90DF90CF90BF90FC
:100F5000AF909F908F900895FC01178A158A14A274
:100F600013A2108E1092E8021092E9021092EC0285
:100F70001092B40008950F931F93CF93DF93EC0169
:100F80008B010E94AC071E870D871B8A1A8A81E09D
:100F9000898389E08E8B198E1B8E1D8EDF91CF91F8
:100FA0001F910F910895E0911F058E2F90E0880FFB
:100FB000991FE0911D05F0911E05E80FF91F85911D
:100FC00094918F3F980719F4109216050895909305
:100FD00022059927880F991FE0912005F09121059E
:100FE000E80FF91F6591749186E195E00E94BB07B7
:100FF00080911F058F5F80931F0508956FEF78E044
:1010000086E195E00C94BB076EE772E00C94BB0799
:10101000DC01FB0184918F5F14968C9314973196B9
:10102000E491EF5F1596EC9315976E5F7F4F5F9697
:101030007C936E935E9708952F923F925F926F928A
:101040007F928F929F92AF92BF92CF92DF92EF9258
:10105000FF920F931F93CF93DF93EC01F901E4907C
:101060003196849164350CF015C10E2C000CFF08EC
:10107000062F062E000C110BF701E00FF11F1E16B4
:101080001F060CF007C140330CF004C1A82FC42E7A
:10109000042E000CDD085601A80EB11C87FDBA9481
:1010A0001A141B040CF0F6C02E5F3F4F570197E057
:1010B000A90EB11CB7FE04C05701BEE0AB0EB11CB7
:1010C000B3E0B594A794BA95E1F747FF0AC0A42FFF
:1010D000A80FAC9CC001AD9C900D1124281B390BAE
:1010E00040E08A2F0A2E000C990B840F911D47FDBA
:1010F0009A95C19714F0A0E3A41BF8A067FD60E0E7
:10110000E535F10514F0E4E5F0E09E2FCC85C42729
:10111000C62E062E000CDD08F601E01BF10B8F0138
:101120004F01F7E08F229924E0E8F0E002C0F59546
:10113000E7958A94E2F77E2F17FF02C0095F1F4FE1
:10114000F3E015950795FA95E1F7200F311F542F1D
:10115000577081E001C0880F5A95EAF7459545958B
:101160004595F601B4E54B02E00DF11D1124AF01E8
:101170004F505D4FD0E02A2EAA0F3308EE24E3949F
:10118000BB24D21513040CF085C0F9015490F1E092
:10119000FF121AC0962E8A01E72F6901991608F0EE
:1011A00057C08E2E852021F0D8018C90882A8C92F1
:1011B000E69531F4BFEFCB1ADB0AF6015490E0E874
:1011C00093940F5F1F4FEACFF1101CC0782E7094DC
:1011D000962E8A01E72F6901991608F039C08E2EE4
:1011E000852021F0D8018C9087208C92E69531F4EF
:1011F000BFEFCB1ADB0AF6015490E0E893940F5F3F
:101200001F4FEACFF3E0FF122CC0782E7094862E89
:101210008A01972E69018916D0F4E92DE52141F064
:10122000D801EC916C2E682460FE0FC0E82BEC9383
:10123000969439F4BFEFCB1ADB0AF6015490E0E83C
:101240009E2E83940F5F1F4FE6CFE721F0CFCE2570
:10125000880F19F44C5A5F4F81E0DF5F2A0D3B1D68
:1012600090CF962E8A01E72F6901991688F78E2E66
:10127000852021F0D8018C9088268C92E69531F457
:10128000BFEFCB1ADB0AF6015490E0E893940F5FAE
:101290001F4FEBCFDF91CF911F910F91FF90EF90F8
:1012A000DF90CF90BF90AF909F908F907F906F9086
:1012B0005F903F902F900895282F862F6CE00E941A
:1012C000832AE92FF0E0EE0FFF1F23FB442740F9AC
:1012D00050E0E40FF51FE25BFD4F94912770E0E8CA
:1012E000F0E0AF0102C0559547952A95E2F79A01C3
:1012F000E92FF0E0E423F32381E0EF2B09F480E011
:1013000008958F929F92AF92BF92DF92EF92FF92D9
:101310000F931F93CF93DF934C015B01142FD22EB9
:10132000EB0177FD279633E0D595C7953A95E1F720
:10133000740197FE03C087E0E80EF11C23E0F594EA
:10134000E7942A95E1F76C2F8E2D0E945C0981119C
:1013500034C0810E911C84010150110917FF02C095
:10136000095F1F4F93E0159507959A95E1F76C2F4C
:10137000802F0E945C09811120C0AD0CB11CE501D9
:101380002197D7FD279683E0D595C7958A95E1F7F4
:101390006C2F802F0E945C0981110FC06C2F8E2D45
:1013A000DF91CF911F910F91FF90EF90DF90BF9051
:1013B000AF909F908F900C945C0981E0DF91CF916A
:1013C0001F910F91FF90EF90DF90BF90AF909F9093
:1013D0008F900895AF92BF92CF92DF92EF92FF92DB
:1013E0000F931F93CF93DF939B0180589F4F60E82B
:1013F00070E00E948F2A482FE92FC82EC901805A19
:101400009F4F60E670E00E948F2AB82E9C0197FFE4
:1014100002C0295F3F4F53E0359527955A95E1F774
:10142000F22E842F9E2F97FD079643E09595879582
:101430004A95E1F7A82E89010A5F1F4FEC012A9611
:101440008F2D0F2C000C990B081719071CF1DF2C9E
:10145000DD0CDD0CDD0CDB18EA2C8E2D0E2C000CC7
:10146000990BC817D907A4F06F2D8E2D0E945C0927
:10147000882361F06E2D660F660F660F6C1926E6E5
:1014800032E04D2D8FE395E00E941C08E394E5CFF8
:10149000F394D6CFDF91CF911F910F91FF90EF90F2
:1014A000DF90CF90BF90AF9008952F923F924F92D0
:1014B0005F926F927F928F929F92AF92BF92CF92E4
:1014C000DF92EF92FF920F931F93CF93DF93D82E6B
:1014D000C82FD0E0FE01E658FD4FB080CC0FDD1FD5
:1014E0008E01065A1D4FF80160817181C65CDD4F87
:1014F0002B2D4B2D888199810E94810981113FC03C
:10150000C090E7029AE7E92E92E0F92EAAE5B2E050
:10151000EAE3F2E090E02B2D30E028013E01C9160D
:1015200071F1D91621F1E70148810D911C911197B4
:1015300060817181E20128803980E301A880B9804F
:1015400049018A0C9B1C681579058CF450E0640FE6
:10155000751FA616B7065CF4B901620D731D061758
:1015600017072CF4400F511F241635063CF09F5FDF
:10157000DFEFED1AFD0A12963296D1CF81E0DF91AE
:10158000CF911F910F91FF90EF90DF90CF90BF9080
:10159000AF909F908F907F906F905F904F903F9013
:1015A0002F900895CF93DF93EC01FB01DA018C912A
:1015B000813029F1D8F0823059F1833081F188816E
:1015C000998180589F4F60E870E00E948F2A99832C
:1015D000888380819181805A9F4F60E670E00E94ED
:1015E0008F2A91838083DF91CF91089580819181AB
:1015F000821B910927FD939591838083E0CF888199
:101600009981821B910927FD939599838883D7CF70
:1016100080819181820F911D27FD9A95EDCF888160
:101620009981820F911D27FD9A95EFCFCF93DF937C
:10163000FB01EA0140918F0250919002841B950BAF
:10164000089697FD28C08F779927089799838883F4
:1016500080918D0290918E02E81BF90B3896CF0194
:1016600060E670E00E948F2AF7FF02C0805A9F4F09
:10167000AC0148505109F901518340838881998117
:101680008535910524F481E0413351050CF080E06B
:10169000DF91CF91089560E870E00E948F2A805812
:1016A0009F4FD3CFCF93DF9300D000D0CDB7DEB71D
:1016B00060913802709139029E012D5F3F4FAE015B
:1016C0004F5F5F4F80913602909137020E94160B58
:1016D000882341F02EEE30E04B8169818FE395E065
:1016E0000E941C080F900F900F900F90DF91CF91E8
:1016F0000895DC01643570F5403360F590968C9167
:101700009097E62F062E000CFF0B242F259525958C
:10171000259594E52902E00DF11D1124EF50FD4FB0
:101720002081342F37708230B1F4822F90E0032E65
:1017300002C0959587950A94E2F780958170811192
:1017400014C081E090E001C0880F3A95EAF78095D7
:10175000822380830895833091F71C968C91817049
:101760006427609561708613ECCF81E090E001C042
:10177000880F3A95EAF7822BECCF2F923F924F9247
:101780005F926F927F928F929F92AF92BF92CF9211
:10179000DF92EF92FF920F931F93CF93DF9300D0CE
:1017A00000D000D01F92CDB7DEB721111FC09A0123
:1017B000462F682F8FE395E027960FB6F894DEBF8B
:1017C0000FBECDBFDF91CF911F910F91FF90EF9092
:1017D000DF90CF90BF90AF909F908F907F906F9051
:1017E0005F904F903F902F900C941C088A016C835F
:1017F0008B83FA01849131962490E82EF12C3701E5
:10180000F7E06F0E711C93E0759467949A95E1F779
:1018100023702983512C20E8C22ED12CA22CB12C6C
:1018200081508A832A94852D052C000C990B8E15E6
:101830009F050CF059C05D8257FE03C087E0850DFF
:101840008D839D819595959595959D83852D87781B
:1018500087FF03C08150886F8F5F460102C0959457
:1018600087948A95E2F7412CED810E2E000CFF0B38
:101870003296FF83EE833A803518842D042C000CB9
:10188000990B8A159B0574F5689EF001699EF00D11
:10189000789EF00D11248E819F81E80FF91FE00FD3
:1018A000F11FE491F0E0E821F921EF2BC9F09981D3
:1018B000632D422D4419923059F0622D6419452D43
:1018C000933031F0432D642D913011F0442D652D6E
:1018D000EB816E0FFC814F0F8FE395E00E94790B37
:1018E0004394CBCF53949FCF27960FB6F894DEBF87
:1018F0000FBECDBFDF91CF911F910F91FF90EF9061
:10190000DF90CF90BF90AF909F908F907F906F901F
:101910005F904F903F902F900895FF920F931F93E9
:10192000CF93DF9300D000D0CDB7DEB7F12C8091FC
:10193000E702F81690F50F2D10E0C801880F991FE7
:10194000FC01E65AFD4F60817181865C9D4F9E01CE
:101950002F5F3F4FAE014D5F5F4FFC018081918152
:101960000E94160B882391F0F801E652FE4F208169
:1019700069818B81F801E658FD4F9081963041F0E6
:10198000625042E051E082500E94BD0BF394CFCFF1
:10199000615048EF50E08150F7CF0F900F900F90BB
:1019A0000F90DF91CF911F910F91FF900895EF92CB
:1019B000FF920F931F93CF93DF9300D000D0CDB74A
:1019C000DEB788ECE82E81E0F82E10E000E0F701A9
:1019D00081917F01882301F1F801E858FE4F608171
:1019E00071819E012D5F3F4FAE014F5F5F4FF80148
:1019F000E856FE4F808191810E94160B8823E1F00A
:101A00006B8162508981F801E85AFE4F208144EED3
:101A100050E082500E94BD0B0E5F1F4F0032110537
:101A2000B1F60F900F900F900F90DF91CF911F9113
:101A30000F91FF90EF900895F70131971082ECCF4E
:101A4000AF92BF92CF92DF92EF92FF920F931F93CC
:101A5000CF93DF93182F062FC0E0D3E08AEFD82E64
:101A60009EEFE92E842F8470C82E842F8270B82EAA
:101A7000842F8870A82E4170F42ECF5F8C2F880F92
:101A80008F5FE80ECC2081F0402F4D0F612F6C0F3F
:101A90008FE395E00E94790B402F4C0F6D2F610F63
:101AA0008FE395E00E94790BBB2081F0402F4D1B06
:101AB000612F6C0F8FE395E00E94790B402F4C1B38
:101AC0006D2F610F8FE395E00E94790BAA2081F0C2
:101AD000402F4C0F612F6D1B8FE395E00E94790B17
:101AE000402F4D0F612F6C1B8FE395E00E94790B07
:101AF000FF2081F0402F4C1B612F6D1B8FE395E081
:101B00000E94790B402F4D1B612F6C1B8FE395E0DA
:101B10000E94790BCD173CF4E7FCAFCFD150D394A2
:101B2000D394ED0CAACFDF91CF911F910F91FF902D
:101B3000EF90DF90CF90BF90AF9008950F931F93D9
:101B4000CF93DF93D82F162F042FC0E0C0174CF48B
:101B5000412F4C0F6D2F8FE395E00E94790BCF5FE3
:101B6000F5CFDF91CF911F910F9108958F929F92A2
:101B7000AF92BF92CF92DF92EF92FF920F931F939B
:101B8000CF93DF93082FA62E842E922E83E0F82E7B
:101B9000D0E0C3E09AEFE92E1EEFBB24B394B20E5F
:101BA000DF5F1F0D4C2F440F6A2D6C1BC92CCF0C0F
:101BB000DA2CDD1A81E04B0D881215C0802F8D0FB5
:101BC0000E949E0D4C2D6D2D8C2F800F0E949E0D1E
:101BD000DC1794F417FD04C0C150E394E3941E0D88
:101BE000F394F394DDCF802F8D1B0E949E0D4C2D1E
:101BF0006D2D802F8C1BEACFDF91CF911F910F911C
:101C0000FF90EF90DF90CF90BF90AF909F908F901C
:101C10000895EF92FF920F931F93CF93DF938C0160
:101C2000F62ED42FE22EC0E0CE1544F46F2D6C0FAB
:101C30004D2FC8010E94790BCF5FF6CFDF91CF9176
:101C40001F910F91FF90EF900895DF92EF92FF9216
:101C50000F931F93CF93DF93E82ED62FC42F022F1D
:101C60008AEFD82ED40E93E0F92EFE0C2D2D462FA0
:101C70006F2D8FE395E00E94090E1D2F100F4FEF7F
:101C8000410F2D2D6F2D8FE395E00E94090E065018
:101C9000DD5F402F6D2F8E2D0E949E0DCE0D402FAB
:101CA0006D2F8FEF8C0F0E949E0D41E06D2F8F2DB9
:101CB0000E94200DC45042E06D2F8C2F0E94200DF9
:101CC000145044E0612F8C2F0E94200D48E0612FBA
:101CD0008F2DDF91CF911F910F91FF90EF90DF90AB
:101CE0000C94200DDF92EF92FF920F931F93CF93EE
:101CF000DF937C01D62FD22EC42F002E000C110BA7
:101D0000040F111D47FD1A958C2F0C2E000C990BFA
:101D10008017910744F42D2D4C2F6D2FC7010E9481
:101D2000090ECF5FF1CFDF91CF911F910F91FF90FF
:101D3000EF90DF9008954F925F926F927F928F9213
:101D40009F92AF92BF92CF92DF92EF92FF920F934A
:101D50001F93CF93DF93EC0164350CF087C04033C1
:101D60000CF084C0EC81E150FF0B0E9FC0010F9F6F
:101D7000900D1124860F911D67FD9A95181619066E
:101D80000CF074C03D81842F042E000C990B039F2E
:101D9000800D911D1124181619060CF067C0102F24
:101DA000F42EE62E78A0962E812CC22ED12C282D32
:101DB000082C000C330B8C8190E0281739070CF0AD
:101DC00054C00197E0E02817390771F0C89EF00170
:101DD000C99EF00DD89EF00D11242E0F3F1FEE8DE1
:101DE000FF8DE20FF31FE4915F2C612C482C4E0C09
:101DF0002D81862D062C000C990B2817190691F1C0
:101E00008CF1AE2EB12CE0FF16C0113061F4462DDE
:101E10004F0D642DCE010E94790BF501F595E795E4
:101E20006394510EE5CF012F212F452D692DCE0151
:101E30000E94720EF2CF89A198A1891771F388A32D
:101E4000113041F4462D4F0D642DCE010E94790BC7
:101E500078A2E3CF012F212F452D692DCE010E94BD
:101E6000720EF6CF8394910EA2CF78A2DF91CF911C
:101E70001F910F91FF90EF90DF90CF90BF90AF90A8
:101E80009F908F907F906F905F904F9008950F93E9
:101E9000CF93DF93EC016A3049F428859D818A85D0
:101EA000299F800D11248A8719861EC06D30E1F0AC
:101EB000262F08854A8569850E949B0E28853C81CE
:101EC0008985239F800D112489879F81992361F043
:101ED000082E000C990B44E550E0239F401951094E
:101EE000112448175907D4F281E090E0DF91CF9197
:101EF0000F910895CF92DF92EF92FF920F93CF93BD
:101F0000DF9300D000D0CDB7DEB736E2C32E32E08B
:101F1000D32EEE24E394F12CF60181916F018823F6
:101F200041F1C701880F991F0297FC01E250FE4F53
:101F30006081718186519E4F9E012D5F3F4FAE01A2
:101F40004F5F5F4FFC01808191810E94160B8823B7
:101F500081F0F701E55EFD4FE081F0E0ED5DFE4FC1
:101F600020814B8169812130B9F48FE395E00E9493
:101F7000790BFFEFEF1AFF0A8BE0E816F10461F628
:101F80000F900F900F900F90DF91CF910F91FF90D6
:101F9000EF90DF90CF900895022F8FE395E00E949D
:101FA000720EE7CF089590E080E00895CF92DF921F
:101FB000EF92FF926B017C01C114D104E104F104A2
:101FC00041F00E947828A70196010E94E6286B0143
:101FD0007C01C701B601FF90EF90DF90CF9008958C
:101FE000DF92EF92FF920F931F93CF93DF9300D076
:101FF00000D0CDB7DEB760E170E080E090E00E94F5
:10200000D60F83E0660F771F8A95E1F7709337024A
:10201000609336026CE070E080E090E00E94D60FA2
:102020008B0193E0000F111F9A95E1F7109339028D
:1020300000933802E0903602F090370228E048E042
:10204000B801C7010E948109D82E9E012D5F3F4F24
:10205000AE014F5F5F4FB801C7010E94160B81119F
:10206000CACFD110C8CF0F900F900F900F90DF9173
:10207000CF911F910F91FF90EF90DF9008959F9265
:10208000AF92BF92CF92DF92EF92FF920F931F9386
:10209000CF93DF93982EC82FD0E0DE01A658BD4F16
:1020A00084E08C93FE01E854FE4F8AE080838091A7
:1020B000D80181110EC08091D901823008F482E0EC
:1020C00081508093D9018093D80186E08C9384E677
:1020D00080838E01000F111FC801865C9D4F7C011B
:1020E000065A1D4F30E8A32EB12C40E6C42ED12C49
:1020F00060E270E080E090E00E94D60F660F771FEC
:10210000660F771FF7017183608368E170E080E0FC
:1021100090E00E94D60F660F771F660F771FF801B9
:1021200071836083892D0E94550A8111E1CFF701E7
:102130008081918180589F4F20918F023091900231
:10214000821B930BB5010E948F2A8435910584F27E
:10215000F80180819181805A9F4F20918D023091AA
:102160008E02821B930BB6010E948F2AC0970CF43B
:10217000BFCF0E947828C652DE4F24E030E040E016
:1021800050E00E94E628688381E0DF91CF911F91A3
:102190000F91FF90EF90DF90CF90BF90AF909F9006
:1021A00008952F923F924F925F926F927F928F92FB
:1021B0009F92AF92BF92CF92DF92EF92FF920F93D6
:1021C0001F93CF93DF9300D000D01F92CDB7DEB71F
:1021D000382E082F10E0E62EF12CF701E45EFD4FBB
:1021E0002080822D90E0F801E854FE4FDC01A65FCC
:1021F000BE4F40802C91421A40828B5F9E4FFC0163
:102200005080980126583D4F3901F901F081FD8336
:10221000F63011F45694569497012E5E3D4F4901C5
:10222000C801880F991FFC01E65AFD4F5F019C0110
:10223000265C3D4F6901252DA401BF01C6010E9406
:10224000D20A832D0E94550A882339F0252D219525
:10225000A401B501C6010E94D20AF701EE5EFD4F4E
:10226000808190E0029683709927F801E652FE4F34
:10227000808314140CF49AC0E0909702F0909802B6
:10228000C701019690939802809397028091E5028E
:102290009091E60201969093E6028093E502809188
:1022A000D80181508093D80133E0231631F06CE0DF
:1022B00071E086E195E00E94BB078D81863039F49C
:1022C00095E0E90EF11CF0929802E0929702E8EC9A
:1022D000F1E090E080E02191211180C09801220F6F
:1022E000331FF901E65AFD4F40815181265C3D4F75
:1022F000F90120813181FC01E853FE4F61E06083E8
:102300007C01EE0CFF1CF701E856FE4F3183208361
:10231000F701E858FE4F5183408365E070E080E0AC
:1023200090E00E94D60FF701E85AFE4F7183608358
:10233000000F111FF801E65AFD4F60817181065CA4
:102340001D4F9E012F5F3F4FAE014D5F5F4FF80164
:10235000808191810E94160B882361F0F301208116
:102360002F5F498141506B816150022F8FE395E0CF
:102370000E94720E832D0E943F102091E7022031AF
:10238000A8F48091E5029091E60266E070E00E9478
:102390008F2A6D5F7F4F2617170609F03CF481E006
:1023A000820F8093E702822F0E943F100F900F90C0
:1023B0000F900F900F90DF91CF911F910F91FF9091
:1023C000EF90DF90CF90BF90AF909F908F907F90D5
:1023D0006F905F904F903F902F90089501968031BD
:1023E000910509F078CFA4CFFB0101900020E9F717
:1023F0003197AF01461B570BDC01ED91FC91028038
:10240000F381E02D09948F929F92AF92BF92EF9249
:10241000FF920F931F93CF93DF93CDB7DEB7A197B2
:102420000FB6F894DEBF0FBECDBF7C01FA01CB0121
:1024300019A2223008F42AE08E010F5D1F4F822E70
:10244000912CB12CA12CBF01A50194010E94182947
:10245000F901CA016A300CF5605DD8016E938D01F7
:10246000232B242B252B79F790E080E0109721F087
:10247000BD01C7010E94F411A1960FB6F894DEBF0A
:102480000FBECDBFDF91CF911F910F91FF90EF90C5
:10249000BF90AF909F908F900895695CDECFCF92F0
:1024A000DF92EF92FF92CF93DF936C01990FEE08CA
:1024B000FF08F7FE23C06DE28FE395E00E9423053D
:1024C000EC0144275527BA014C195D096E097F09B3
:1024D0002AE08FE395E00E940312C80FD91F6EE334
:1024E00071E08FE395E00E94F4118C0F9D1FDF9146
:1024F000CF91FF90EF90DF90CF9008952AE0B70141
:10250000A6018FE395E00E940312EC01E8CF109240
:1025100048051092490564E28FE395E00E94230587
:1025200080919702909198020C944F12CF92DF9273
:10253000EF92FF920F931F93CF93DF936B01770F6F
:10254000EE08FF08F7FE1BC0EC016DE20E942305B8
:102550008C0144275527BA014C195D096E097F0982
:102560002AE0CE010E940312800F911FDF91CF91CC
:102570001F910F91FF90EF90DF90CF9008952AE088
:10258000B701A601DF91CF911F910F91FF90EF90BE
:10259000DF90CF900C9403120F9310924805909106
:1025A000440580E3891B80934905E0919C02F0E09B
:1025B000EE0FFF1FEC58FD4F659174918FE395E08E
:1025C0000E942A0520919B02233038F002E04EE25F
:1025D0006EEF8FE395E00E94720E80914305982F75
:1025E000990F990F282F291B2C5A3091440590E3FD
:1025F000931B30919C023323D1F04091990250916A
:102600009A024436510588F44A30510508F4880F7F
:10261000820F809348059093490570E060E02AE0BE
:102620008FE395E00F910C94031280E0F1CF20939B
:1026300048059093490560E772E08FE395E00F91BC
:102640000C942A050F931F93CF93DF93EC010E9404
:102650002A058C016EE371E0CE010E94F411800F17
:10266000911FDF91CF911F910F910895E1EFF2E05B
:1026700088EF91E0DF019C011D9221503040E1F78D
:1026800010924805109249056AE279E08FE395E0DF
:102690000E942A050E94F1058CB583608CBD8DB522
:1026A0008E7F8DBD81E491E0EEEFFFE309951092FE
:1026B000450565E079E08FE395E00E9422130E94D2
:1026C000F1050E94680680910605813039F062E3C9
:1026D00070E080E090E00E947A07F3CF08954F9277
:1026E0005F926F927F928F929F92AF92BF92CF92A2
:1026F000DF92EF92FF920F931F93CF93DF9300D05F
:1027000000D01F92CDB7DEB7409171055091720590
:1027100060917305709174052FB7F8948091ED0264
:102720009091EE02A091EF02B091F0022FBF481BF2
:10273000590B6A0B7B0B8091700590E0B0E0A0E034
:10274000C0906C05D0906D05E0906E05F0906F051F
:1027500084179507A607B70708F0CEC0C114D104A7
:10276000E104F10409F4C8C02FB7F8948091ED0298
:102770009091EE02A091EF02B091F0022FBF209154
:102780007005820F911DA11DB11D8093710590935D
:102790007205A0937305B0937405809162059091C2
:1027A0006305A0916405B09165050196A11DB11D59
:1027B0008093620590936305A0936405B0936505CB
:1027C00010926C0510926D0510926E0510926F05B7
:1027D0000E945507609368057093690580936A05A8
:1027E00090936B058091F2049091F3042FE0289F61
:1027F000A001299F500D11245A83498385E10E942D
:102800000C07A981BA818A0F9B1FB4E09695879522
:10281000BA95E1F79093F3048093F2042091F104C8
:10282000222309F448C06091F504262F30E050E0DF
:1028300040E029833A834B835C83C090F604D12C1B
:10284000F12CE12C4091F9045091FA044A01B12C89
:10285000A12C2091F7043091F8042901712C612CEE
:102860008217930728F09C014817590708F49A012A
:1028700050E040E0241935094609570969817A81F9
:102880008B819C816C197D098E099F090E94732A96
:10289000A501940124193509460957090E94E62823
:1028A000C20ED31EE41EF51EC092F4046C2D70E01F
:1028B00085E00E94AF060E94680680910D05909108
:1028C0000E05892B11F00E941E0781E00F900F90DA
:1028D0000F900F900F90DF91CF911F910F91FF906C
:1028E000EF90DF90CF90BF90AF909F908F907F90B0
:1028F0006F905F904F900895CD28CE28CF2809F093
:1029000034C18091080581508E3F08F580910705FC
:102910008130E9F480911B058F5F60911C0587FD74
:1029200009C0082E000C990B70E06F5F7F4F0E946A
:102930008F2A682F60931B0588EF98E090937605A7
:102940008093750588E4809377050E94FE07809147
:10295000080581508E3F70F480910605813009F0A2
:10296000E0C28BEE98E0909376058093750588E43D
:102970008093770580911605882331F080911705A3
:10298000811102C00E94D30780911705882309F4A2
:102990003EC080912B0581113AC080912305909112
:1029A0002405E0912805F0912905EE0FFF1FE80F9F
:1029B000F91F259134912115310509F42DC1A90183
:1029C0005695479556954795842F20FDD0C08F7317
:1029D00080932A0580911A05839F802D112480936E
:1029E0002B0510923B0510923A051092390581E0B3
:1029F00080932D058093EC0210922E05809128057E
:102A0000909129050196909329058093280580913E
:102A10002D05882341F080912B05811119C186E194
:102A200095E00E94AC0780917705882309F453C094
:102A30008C3008F0F7C13CE0381B3983FF24F39455
:102A4000F092470510925F05109260054091440591
:102A50004D831981141B042F0D5F4DE2410F2EE4AD
:102A600063E08FE395E00E94720E5D8154505D83B8
:102A7000105D252F41E0612F80E50E94B60D2D816C
:102A800042E0612F83E00E94B60DF0925F05F09264
:102A900060058091440523E0280F6981681B635D10
:102AA00044E580E00E94250E84E0809348058091F3
:102AB00044059981981B915D909349056091750536
:102AC000709176058FE395E00E942A058091770545
:102AD00081508093770580910D0590910E05892B8B
:102AE000E1F0A1E0A0935F0510926005909143058D
:102AF00085E5891B809348051092490560910A0578
:102B0000613009F4F2C108F48FC180910905653084
:102B100008F002C26B5F8111FAC10E94F105809139
:102B2000450581110EC0E1EFF2E088EF91E0DF0191
:102B30009C011D9221503040E1F7109248051092FF
:102B400049050E94550760936C0570936D0580934D
:102B50006E0590936F052091680530916905621BA1
:102B6000730B709367056093660580E0AFCEC90173
:102B7000E6E096958795EA95E1F78F71932F969504
:102B80009695969590514F70423099F1D0F4442328
:102B900009F43CC04130B9F1E0912805F0912905D4
:102BA0003196F0932905E0932805CF01880F991FEE
:102BB000E0912305F0912405E80FF91F2591349148
:102BC000FECE433061F0443039F720911A05289F3A
:102BD000802D11248093330590933405DDCF20910F
:102BE0001A05289F802D112480933105909332057A
:102BF000D3CF20911A05289F802D112480932F0573
:102C000090933005C9CF0E94F704C6CF8B3008F0EF
:102C10008AE080932C05C0CF20912705211112C096
:102C20001092170580911605811105C086E195E087
:102C30000E94AC07ECCE0E94D307809128059091AA
:102C40002905B4CF1092290510922805FC01B6CFB2
:102C5000815080932B0580913B05811142C02091CA
:102C6000390530913A052F5F3F4FC901880F991FF1
:102C7000E0913505F0913605E80FF91F85919491A3
:102C8000482F477040933C05492F46954695409301
:102C90003D05AC0164E0569547956A95E1F74F73A1
:102CA00090911A05499F402D112440933B0583FBC9
:102CB000882780F98093EB0230933A0520933905F9
:102CC0008091370590E02817390758F02091380592
:102CD000222309F49FC0821B910990933A058093A7
:102CE000390580913B05815080933B0580912E05ED
:102CF00031E0380F30932E0540912A0520913D0593
:102D0000240F80912205280F20931805609131052A
:102D1000662371F070E0832F032E000C990B0E9444
:102D20008F2A80913205869F200D1124209318054B
:102D30008091180590E0849664E270E00E948F2AEA
:102D40008093180520912C052093190560912F057B
:102D5000662381F0062E000C770B832F032E000CC8
:102D6000990B0E948F2A80913005869F200D112497
:102D700020931905609133056623A1F0832F330F4B
:102D8000990B70E00E948F2ACB0162E070E00E94F4
:102D90008F2A2091340590911905289F900D1124B8
:102DA000909319054F3309F43AC0809119058A3080
:102DB0000CF089E087FD80E080931905F894E0919C
:102DC0001805F0E0E953F74FE491E093EA0220910F
:102DD0003E053091190532039001112440913C05C4
:102DE0004203C001439F900D112420911B0502C096
:102DF000880F991F2A95E2F797FF02C081589F4FCD
:102E0000880F892F881F990B8093E9028093E8022D
:102E1000789409CE86E195E00E94AC0762CF1092CB
:102E20001905CCCF19820ACE86E195E00E94AC0745
:102E300010921705B1E0B093470565E477E08FE3A2
:102E400095E00E94080810920E0510920D05109250
:102E5000450528EA29830E946F138823E1F367E37D
:102E600077E08FE395E00E942A0540910B05509191
:102E70000C0570E060E02AE08FE395E00E94031209
:102E800062E277E08FE395E00E942A05698162950E
:102E90006F7070E08FE395E00E94961267E177E033
:102EA0008FE395E00E942A0580910605813009F4A0
:102EB00034CE3981315039833111CDCF70E060E0AB
:102EC00085E00E94AF0683B7817F846083BF83B7AC
:102ED000816083BF83B7816083BF889583B78E7F0E
:102EE00083BF83B78E7F83BFB6CF809162059091F9
:102EF0006305A0916405B09165058F709927AA2795
:102F0000BB2767E00897A105B10508F068E78FE3E4
:102F100095E00E94230501CE882309F4FECD6FE2DF
:102F2000F6CF893209F026CD0E94361323CDCF92F9
:102F3000DF92EF92FF920F931F93CF93DF9381E085
:102F40008093470510924605109245051092090599
:102F500080935F0580936005C2E9D6E01CE00E9483
:102F60006F138823E1F3FE010491011100914405E0
:102F700027EA36E040E060E08FE395E00E941C081D
:102F80004CE0400F20E735E060E08FE395E00E94E1
:102F90001C08109248051093490562E976E08FE31A
:102FA00095E00E942A0580914305982F990F990F6B
:102FB000891B8D5A8093480580914405982F990F5D
:102FC000990F891B835D809349058091620563EAAF
:102FD00076E084FD02C06FE976E08FE395E00E9421
:102FE000221380914305982F990F990F891B8D5AB1
:102FF00080934805809149058F5F809349058091B2
:103000001B056BE976E0811102C067E976E08FE38A
:1030100095E00E94221380914305982F990F990FF4
:10302000891B8D5A80934805809149058F5F809355
:10303000490563E976E08FE395E00E9422138091D1
:1030400007058130A1F480911B058F5F60911C05FD
:1030500087FD09C0082E000C990B70E06F5F7F4F51
:103060000E948F2A682F60931B050E94FE078091A3
:1030700006058130E9F080916105482F50E070E04D
:1030800060E0C0906205D0906305E0906405F09028
:103090006505C416D506E606F70610F08F3F41F425
:1030A00080910805813009F05ACF0E94361357CF1E
:1030B0008FEF8093610586E195E00E94AC07109246
:1030C000170586E195E00E94040881E080930905D8
:1030D000DF91CF911F910F91FF90EF90DF90CF90F4
:1030E0000895EF92FF920F931F93CF930E946F1357
:1030F0008823E1F362E070E080E090E00E94D60F68
:10310000675F6093480562E070E080E090E00E94B5
:10311000D60F6093490562E171E08FE395E00E946C
:103120002213109246051092480580914405809321
:10313000490584EAE82E82E0F82E0EEA12E0C0E0AB
:10314000F701819191917F01892BB1F56DE28FE3B8
:1031500095E00E94230580914305982F990F990FC0
:10316000891B8C5A80934805CF5F809144058C9FC2
:10317000802D112480934905F70132978081918138
:103180000E944F12055F1F4FC530D1F68091060592
:10319000813049F080910705813029F08091080540
:1031A000813009F0A3CF86E195E0CF911F910F9177
:1031B000FF90EF900C940408B8018FE395E00E9413
:1031C000F411C9CF2F923F924F925F926F927F92EC
:1031D0008F929F92AF92BF92CF92DF92EF92FF9227
:1031E0000F931F93CF93DF93CDB7DEB72A970FB618
:1031F000F894DEBF0FBECDBF2091AC023091AD027E
:103200008091970290919802281739070CF045C2D7
:10321000E0E8F7E7859194918130904C59F4AAED5C
:10322000B2E0EBE8F7E784918D933196E53947E713
:10323000F407C9F764EE72E08FE395E00E94080896
:10324000109245051092E402A0E3CA2EB4E5EB2EDD
:1032500012E0B12EA12C10E002E0802E912C80E330
:10326000482E0E946F138823E1F3809105058F3F5C
:1032700031F08370813019F4B3940E94FE0780917D
:1032800003058F3F31F08370813019F4BA940E94A6
:10329000FE07809104058F3F31F08370813019F46F
:1032A000A3940E94FE07809102058F3F09F4BBC2E0
:1032B0008370813009F0B7C2AA940E94FE075FEFC5
:1032C000A51202C0FFE0AF2E88E0B81609F491C144
:1032D000B7FE02C0E7E0BE2E909144058091430501
:1032E00080958A9D802D1124895D0E2C000CFF088D
:1032F000E80EF11C87FDFA94F7FE03C0EFEFEE1A1B
:10330000FE0AF594E7943E2C292F209584E1891B31
:103310002B9D800D11240C2C000CDD08C80ED11C37
:1033200087FDDA94D7FE03C0FFEFCF1ADF0AD594EA
:10333000C7942C2C80910605813011F51A30C4F405
:103340008B2D8295807F8A0D09F48BCF8A3009F40A
:1033500088CF8D3009F485CF212F012E000C330B3F
:10336000F901E652FD4F808325523D4FF90110824D
:103370001F5F86E195E00E9404081C3008F01BE006
:1033800080910705813089F411506CEA72E086E182
:1033900095E00E94BB071F3F09F42DC1E12F012ECC
:1033A000000CFF0BE652FD4F108280910805813022
:1033B00049F586E195E00E9404080E946F13882376
:1033C000E1F361E471E08FE395E00E9422136AED7E
:1033D00072E08FE395E00E94F41160E371E08FE307
:1033E00095E00E94221380910605813009F405C101
:1033F00080910705813009F76CEA72E086E195E07B
:103400000E94BB07512C612C712C252D270D80911A
:103410004405462D869D400D1124420D80914305A3
:10342000672D879D600D1124630D01E08FE395E00A
:103430000E949B0E7394F0E17F12E7CF5F0E6394BE
:1034400028E06212E1CF80914305982F990F990FE0
:10345000891B880F82508E0D80934805809144050A
:103460008F5F8C0D809349056AE271E08FE395E0F0
:103470000E942A0580914305982F990F990F891B67
:10348000880F82508E0D80934805809144058F5F90
:10349000880F8C0D8093490564E271E08FE395E01D
:1034A0000E942A0580914305982F990F990F891B37
:1034B000880F82508E0D809348058091440591E0DD
:1034C000980F892F880F890F8C0D809349056EE125
:1034D00071E08FE395E00E942A0510925F0510923B
:1034E0006005809144054B2D8B9D400D1124425069
:1034F0004C0D809143056A2D8A9D600D1124615009
:103500006E0D27E08FE395E00E94090E77247394F7
:1035100070925F0570926005E0914405309143051B
:1035200025E02E0F432F4150550BCA01B4010E94D4
:103530008F2A42E0430F480F6B2DEB9D600D112445
:1035400063506C0D8A2D3A9D800D112482508E0D92
:103550000E94250E809144054EE2481B24E560E060
:103560008FE395E00E94090E10925F0510926005AE
:1035700080914405080F4FE2481B24E560E08FE38B
:1035800095E00E94720E1092480580914405542DDA
:10359000581B5093490570925F05709260056AED63
:1035A00072E08FE395E00E94F411809162059091A2
:1035B0006305A0916405B091650587709927AA27D6
:1035C000BB270497A105B10508F04BCE1A300CF0CB
:1035D00048CE80914405442D481B60914305169FB9
:1035E000602D112401E02FE58FE395E00E949B0EF2
:1035F00038CEB12C71CE10E0D8CE86E195E00E9495
:10360000040880919702909198029093AD02809364
:10361000AC0234EA432E32E0532E4AEDE42E42E06F
:10362000F42E5EEA652E52E0752E8201F801A68026
:10363000B78080849184A814B9040CF49AC010E077
:1036400000E0F12CE12CF301EE0DFF1D6081C801BB
:103650008E0D9F1D0E94D828FFEFEF1AFF0A2AE067
:10366000E216F10481F7F2016081F2E04F0E511C85
:10367000C8010A960E94D828F20132976181C801D8
:103680000B960E94D828045F1F4F2BE0620E711C1E
:103690000C331105B1F60E94711810929802109225
:1036A00097021092E6021092E50210929C028FE0BF
:1036B00097E290939A028093990210929B02109243
:1036C0008A0286E080938C0280E18093D901809306
:1036D000D80184E08093E7022FE0E22E27E2F22E69
:1036E00060E170E080E090E00E94D60F83E0660F1A
:1036F000771F8A95E1F770939402609393026CE0D0
:1037000070E080E090E00E94D60F93E0660F771F94
:103710009A95E1F7709392026093910226E046E059
:1037200080919302909194020E9481098111D8CFD7
:103730008091930290919402879790939002809346
:103740008F028091910290919202459790938E0200
:1037500080938D029091E702AAE3B2E0EAE5F2E0FD
:1037600080E0981731F1ED92FD92E192F1928F5F36
:10377000F8CF6701FBE0CF1AD108B601CE01019660
:103780000E94BD2AB701C6010E94BD2ABE016F5F1B
:103790007F4FC7010E94BD2AF80197828682B186B9
:1037A000A0860250110976016C147D0409F447CFFC
:1037B0003DCF10E08091E702181740F4812F0E945E
:1037C0003F10882309F48CCF1F5FF4CF0E94F00FC5
:1037D000E6E2F2E080E392E011928E179F07E1F7B4
:1037E000E8ECF1E088ED91E011928E179F07E1F788
:1037F000109235022A960FB6F894DEBF0FBECDBFE9
:10380000DF91CF911F910F91FF90EF90DF90CF90BC
:10381000BF90AF909F908F907F906F905F904F90F0
:103820003F902F90089540E1A4124ECDA12C4CCD95
:103830002F923F924F925F926F927F928F929F92C0
:10384000AF92BF92CF92DF92EF92FF920F931F93AE
:10385000CF93DF93CDB7DEB728970FB6F894DEBFCE
:103860000FBECDBF1092090510E042E0E42E56E0F5
:10387000F52E00E11A3091F00E946F138823D1F3E6
:10388000E0924705F09248050093490564E472E030
:103890008FE395E00E942A051F5FECCF81E08093C3
:1038A000470586E392E0909376058093750588E45A
:1038B000809377050E946F138823E1F390910805A8
:1038C0009130F9F46CEA72E086E195E00E94BB0762
:1038D00028960FB6F894DEBF0FBECDBFDF91CF9113
:1038E0001F910F91FF90EF90DF90CF90BF90AF901E
:1038F0009F908F907F906F905F904F903F902F9010
:1039000008959091040591509E3F98F09091020582
:1039100091509E3F90F080E09091050591509E3F20
:1039200070F09091030591509E3F80F510929602A1
:1039300009C093E090939602EFCF91E0FBCF82E035
:103940008093960210919502212F46E952E061E999
:1039500072E083E992E00E94D20A60919102709134
:10396000920226E046E080919302909194020E9498
:103970008109882369F0212F219546E952E061E908
:1039800072E083E992E00E94D20A02C08111DACF8C
:1039900080919302909194028797909390028093E4
:1039A0008F028091910290919202459790938E029E
:1039B00080938D0280918A02882309F468C0815027
:1039C00080938A0260918B0270E0CC24DD24C61AB9
:1039D000D70A0D2C000CEE08FF086F5F7F4F072EF3
:1039E000000C880B990B6C197D098E099F090E94A8
:1039F000D60FC60ED71EE81EF91E60918F02709179
:103A00009002C60ED71ED0929002C0928F02609193
:103A10008B0270E0CC24DD24C61AD70A0D2C000CD2
:103A2000EE08FF086F5F7F4F072E000C880B990B85
:103A30006C197D098E099F090E94D60FC60ED71EEC
:103A4000E81EF91E60918D0270918E02C60ED71E7F
:103A5000D0928E02C0928D021091F4048091F604EF
:103A60008695869590918B02899F90011124B901CA
:103A7000032E000C880B990B232B09F4A2C00E9483
:103A8000D60F161B612F70E085E00E94AF06609193
:103A90008D0270918E0280918F02909190020E940F
:103AA000EA0960919102709192029E01295F3F4F55
:103AB000AE014B5F5F4F80919302909194020E9400
:103AC000160B6F8161508D81209196024CE252E07D
:103AD00081500E94BD0B912C30E8832E8091E7022B
:103AE000981608F0C6C0092D10E0F801EE0FFF1F70
:103AF000DF01A65CBD4FAD90BC9080919302909188
:103B000094029501281B390BC90137FF03C0919519
:103B100081959109482F9C0133272034310514F0F9
:103B2000482D481B443708F04AC0E65AFD4FC08074
:103B3000D1808091910290919202D601A81BB90B7D
:103B4000CD01B7FF03C0919581959109282FAC0154
:103B500055274033510514F020E6281B203578F511
:103B600040908F025090900220908D0230908E02F3
:103B7000F801E652FE4F7F01000F111F9801265AEF
:103B80003D4F3901065C1D4F21E0AF01B301C80173
:103B90000E94D20A892D0E94550A8823A1F02FEF96
:103BA000A701B301C8010E94D20A0E94782824E02C
:103BB00030E040E050E00E94E628D7016C939394F7
:103BC0008DCF60E05ECF60E270E080E090E00E9428
:103BD000D60F672B682B692B59F40E94782824E0B4
:103BE00030E040E050E00E94E628F7016083E7CF34
:103BF00060E170E080E090E00E94D60F672B682BB8
:103C0000692BE9F662E070E080E090E00E94D60F58
:103C1000672B682B692BB1F0C50180589F4F841921
:103C2000950960E870E00E948F2A2AE230E0281BA4
:103C3000390BC901E3E018161906ACF081E0D70191
:103C40008C93BDCFC601805A9F4F8219930960E6BD
:103C500070E00E948F2AE8E1F0E0E81BF90B1E16E5
:103C60001F0624F4E2E0D701EC93A9CFD7011C9200
:103C7000A6CF0E948D0C80919B02882319F0815061
:103C800080939B028091060581508E3F08F003C10E
:103C90008091070581508E3F08F402C1209199025E
:103CA00030919A022115310509F477C1B0909B0239
:103CB000B110FEC0E6E2F2E010E000E0A02E81913B
:103CC0008111F0C081E0F801EA5DFD4F80838091B1
:103CD0009C02F801E45EFD4F808390E0FC01E75E0A
:103CE000FE4F408140939B022150310930939A024C
:103CF00020939902FC01EC5EFE4FC0808D5D9E4FCB
:103D0000FC0180814C2C80FDBCC041940C2C000C2B
:103D1000DD08FFEFCF1ADF0A0D2C000CEE08FF08BC
:103D2000042C000C550866087708A2014C145D04A9
:103D30006E047F0474F4C701B6016419750986091D
:103D400097090E94D60FAB01BC01440D551D661D9D
:103D5000771D4801880C991CD401A651BE4F809153
:103D60009302909194020396E0919C02F0E0ED5D45
:103D7000FE4F20812695821B9109480F591F4D93B4
:103D80005C934C145D046E047F0464F4C701B601B7
:103D900064197509860997090E94D60F460E571EA9
:103DA000681E791EF0909C02A40142505E4F209143
:103DB0009102309192022D5F3F4FEF2DF0E0CF0145
:103DC0008D5D9E4FDC019C919695291B3109420E19
:103DD000531EDA014D925C92D801AE5EBD4F8091C8
:103DE00096028C93A0923002B1E0FB1619F024E009
:103DF000F21204C08091620580FD0AC0EE0FFF1F21
:103E0000EF59FE4F6591749186E195E00E94BB07E2
:103E100031E0F3120AC00E94782860FF06C06BE50B
:103E200071E086E195E00E94BB0710919C02E12FB2
:103E3000F0E0E15FFE4F0081202F219546E952E03E
:103E400061E972E083E992E00E94D20A0B15D9F091
:103E5000609191027091920226E046E08091930277
:103E6000909194020E948109882369F021E046E93B
:103E700052E061E972E083E992E00E94D20AB394D1
:103E8000E5CF409443CF143031F481E080938B022E
:103E900082E080938A028091070581508E3F40F432
:103EA00082E007C00F5F1F4F0A30110509F006CFEF
:103EB00081E08093950266E2662E62E0762E7AEECD
:103EC000E72E71E0F72EEEEF8E2EE1E09E2E10E051
:103ED00000E0F8E0CF2EB02ED3018C91882309F4B6
:103EE00095C0F801E45EFD4FD0808D2D90E0FC017F
:103EF000ED5DFE4F4080825E9E4FFC012081A80157
:103F00004E5E5D4FB401C7010E94D20AD4016D918B
:103F10007C91242D442DF701808191810E9481099B
:103F2000811159C0A090E7025AE3252E52E0352EA8
:103F300090E080E0512C8A1508F068C0F1014191B1
:103F400051911F01F701A081B18192012A0F3B1FFE
:103F50004217530704F5FC01E658FD4F208130E07D
:103F6000420F531FA417B507B4F4FC01EE0FFF1F57
:103F7000E65AFD4F60817181F40140815181F20167
:103F8000E40FF51F6E177F0734F4260F371F421713
:103F900053070CF4C1C00196CECFE0919C02E11111
:103FA000E150E0939C02F0E0EE0FFF1FE85DFE4F52
:103FB0008081918190939A028093990284E1809309
:103FC0009B028EE491E090937605809375058AE2DA
:103FD0008093770560CFD3011C92B3E0DB1216C04B
:103FE000F701808191819093340280933302D40150
:103FF0008D919C919093320280933102C092350250
:104000006BE671E086E195E00E94BB070F5F1F4FF2
:10401000BFEF6B1A7B0AE2E0EE0EF11CF2E08F0EAE
:10402000911C0A30110509F056CF0E947A0F809139
:104030003502882309F4A8C081508093350284E0BA
:1040400080938B0282E080938A0266E070E080E0D9
:1040500090E00E94D60F1AE0912E960E68E070E074
:1040600080E090E00E94D60FC92CC694D12C6450F9
:104070007109810991090091330210913402060FF0
:10408000171F0C191D0968E070E080E090E00E94A5
:10409000D60F6450710981099109E0903102F090C6
:1040A0003202E60EF71EEC18FD08812CC92CD12C2B
:1040B0005801AC0CBD1CCE0CDF1C8091E7028816A9
:1040C00008F044C0E82DF0E0DF01A658BD4F8C9108
:1040D00090E0EE0FFF1FDF01A65CBD4F2D913C91DC
:1040E000AC01420F531F04171507A4F42A153B0512
:1040F0008CF4E65AFD4F20813181820F931FE81620
:10410000F90644F42C153D052CF460913002882DFD
:104110000E94D1108394D1CFF3E0DF1213C0B0938B
:104120003402A09333025093320240933102C09282
:1041300035026BE671E086E195E00E94BB07D30192
:104140001C9264CF6B2D0E94D110F9CF9E012F5F7E
:104150003F4FAE014D5F5F4FB701C8010E94160B84
:10416000882391F082E080935F0580936005092D9C
:10417000292D49816B818FE395E00E94720E81E0C9
:1041800080935F05809360050E94D70C8091930215
:10419000909194022091360230913702A9014A5F32
:1041A0005F4F841795075CF52E5F3F4F06962817E3
:1041B00039072CF58091910290919202209138025A
:1041C00030913902A9014A5F5F4F84179507BCF40B
:1041D0002E5F3F4F0696281739078CF400919702FF
:1041E00010919802053011050CF07EC18DEA91E026
:1041F00090937605809375058AE2809377050E94F7
:10420000520BF6E5EF2E10E000E0DD24D394F090A1
:104210008C028F2D0F2C000C990B22E232E08017BC
:10422000910794F410925F051092600522E232E04B
:1042300040E06E2D8FE395E00E941C08D0925F0550
:104240001092600528E132E040E06E2D8FE395E0AA
:104250000E941C080E5F1F4F27EFE20E32E3E312AD
:10426000D6CFF11083C18091620580FD06C082E047
:1042700080938B0281E080938A02F0FE0FC0F7FCEE
:10428000F394F59467EF6F9D600D11246A5A2EE048
:1042900032E040E08FE395E00E941C088091990293
:1042A00090919A02892B11F00E94CC120E948712E1
:1042B00010E002E074E0F72EE3E0EE2E8091E702DA
:1042C000181708F0F7CA4091930250919402812F79
:1042D00090E0FC01E658FD4FA0812A2F30E0880FC6
:1042E000991FFC01E65CFD4F60817181F901E60FC9
:1042F000F71F4E175F070CF048C14A5F5F4F641706
:1043000075070CF042C14091910250919202865A79
:104310009D4FFC0180819181280F391F421753075F
:104320000CF033C14A5F5F4F841795070CF02DC125
:1043300080918C029FEF980F90938C0200938B02D8
:10434000F0928A02A63029F4825080938C02E09287
:104350008B0268E072E086E195E00E94BB07812F46
:104360000E943F1080918C0287FF0FC110E084E50E
:10437000D82EFF24F3949CE0E92E0E946F1388232B
:10438000E1F30E948D0C0E947A0F0E94D70C0E94CC
:10439000520B8091990290919A02892B11F00E9400
:1043A000CC120E94871260918D0270918E028091D2
:1043B0008F02909190020E94EA096F8161508D8175
:1043C000209196024CE252E081500E94BD0B109267
:1043D0005F051092600500E3212F40E060E08FE36D
:1043E00095E00E94720E6D2D611B212F40E08FE33E
:1043F00095E00E94720EF0925F0510926005E092C7
:104400004805F09249056DEF71E08FE395E00E9459
:104410002A051E5F1E3309F0B0CF1CE0FF24F39481
:1044200008E20E946F138823E1F32091AC023091DF
:10443000AD028091970290919802281739070CF0ED
:104440009DC062E070E080E090E00E94D60F6E5F59
:104450006093480562E070E080E090E00E94D60F33
:10446000609349056FEE71E08FE395E00E942A05A5
:10447000109248051093490569ED71E08FE395E0CE
:104480000E942A0560919702709198028FE395E04F
:104490000E9496126CEC71E08FE395E00E942A0571
:1044A0006091E5027091E6028FE395E00E9496121A
:1044B00064EC71E08FE395E00E942A0510924805B4
:1044C000009349056BEB71E08FE395E00E942A05AC
:1044D00080910605813009F0A4CF86E195E00E9425
:1044E00004080E94E218E6C980919C02843090F58D
:1044F00082EA91E090937605809375058AE2809335
:10450000770560E871E086E195E00E94BB07055001
:10451000110910939802009397020E94F00FE09106
:104520009C02E43008F0E3E0EF5FE0939C02F0E0EF
:10453000EE0FFF1FE85DFE4F8081918190939A02FC
:104540008093990280918C02853074F48F5F809300
:104550008C0255CE85E791E09093760580937505A2
:104560008AE280937705D3CF86E0F1CF81E0F8121D
:1045700084CEF0928B02F0928A027FCE109348058F
:10458000F092490564EE71E06FCF1F5F97CE1F92E6
:104590000F920FB60F9211242F933F938F939F93F7
:1045A000AF93BF938091ED029091EE02A091EF0244
:1045B000B091F00230919E0223E0230F2D3758F581
:1045C0000196A11DB11D20939E028093ED02909350
:1045D000EE02A093EF02B093F00280919F029091BF
:1045E000A002A091A102B091A2020196A11DB11D4D
:1045F00080939F029093A002A093A102B093A20285
:10460000BF91AF919F918F913F912F910F900FBECE
:104610000F901F90189526E8230F0296A11DB11D3B
:10462000D2CF1F920F920FB60F9211242F936F9338
:104630007F938F939F936091E902662349F1809164
:104640009D028F5F80939D029091EA02891700F18D
:104650002091EC0281E028272093EC0210929D0229
:104660008091EB02882369F08091000193E4899F97
:10467000802D1124895B809300010E94832A9093EE
:10468000E8028091E802211101C080E08093B4002B
:104690009F918F917F916F912F910F900FBE0F90EF
:1046A0001F901895789484B5826084BD84B581602C
:1046B00084BD85B5826085BD85B5816085BD8091ED
:1046C0006E00816080936E00109281008091810065
:1046D000826080938100809181008160809381005D
:1046E000809180008160809380008091B10084601F
:1046F0008093B1008091B00081608093B000809180
:104700007A00846080937A0080917A00826080933E
:104710007A0080917A00816080937A0080917A009B
:10472000806880937A001092C10082E380937005C4
:1047300081E090E0A0E0B0E080936C0590936D057F
:10474000A0936E05B0936F058FEF80936105E0E84D
:10475000F7E7259134912130304C09F0B3C2E6E9F6
:10476000F7E7E491E0934A05E7E9F7E7E491E0939E
:10477000F504E8E9F7E7E491E093F604E9E9F7E7FF
:10478000859194919093F8048093F704EBE9F7E70F
:10479000859194919093FA048093F90487E0809333
:1047A0001C05EEE9F7E7E491E0931B05EFE9F7E775
:1047B000E491E0936105E0EAF7E7859194919093A5
:1047C0000E0580930D05E2EAF7E7859194919093A9
:1047D000100580930F05E4EAF7E785919491909393
:1047E000120580931105E6EAF7E78591949190937D
:1047F000140580931305C1E0C093F1046FEF70E0DE
:1048000085E00E94AF0688E08093FB0489E08093F6
:10481000FC0487E08093FD0486E08093FE04D4E0EE
:10482000D093FF0482E08093000581E1809301052D
:104830000E9468068CE39FE090930C0580930B0523
:10484000D0930A05C09315058BE080934D058DE04C
:1048500080934C0580E180934E058EE08093500557
:104860008FE080934F05C0934705C0935F0510927A
:104870006005C093460565E477E08FE395E00E940C
:104880000808CFB7F8948091A302811127C0E6E60B
:10489000F9E08491EAE7F9E09491E82FF0E0EE0F77
:1048A000FF1FE657FD4FA591B491EC91E92321F448
:1048B00061E08AE00E94A40561E08AE00E942C0683
:1048C0008CB580618CBD8CB580648CBD61E08DE061
:1048D0000E942C0661E08BE00E942C068091A302CE
:1048E0008F5F8093A302CFBF8CB58F7D8CBD8CB5BD
:1048F0008C7F81608CBD8DB581608DBD8CB58C60E9
:104900008CBD61E080914D050E942C0661E0809194
:104910004C050E942C0661E080914E050E942C06F9
:104920008091500518161CF461E00E942C068091BD
:104930004F0518161CF461E00E942C06809150056A
:10494000181674F460E00E94A4056AE070E080E04C
:1049500090E00E947A0761E0809150050E94A405D2
:1049600080914C05082E000C990BFC01E45AF64F7F
:10497000E491F0E0EE0FFF1FEC56FD4F25913491CE
:104980003093540520935305FC01E059F64FE49110
:10499000E0935A0580914D05082E000C990BFC01FF
:1049A000E45AF64FE491F0E0EE0FFF1FEC56FD4F96
:1049B000259134913093520520935105FC01E05923
:1049C000F64FE491E093590580914F05082E000CB5
:1049D000990BFC01E45AF64FE491F0E0EE0FFF1F53
:1049E000EC56FD4F25913491309356052093550593
:1049F000FC01E059F64FE491E0935B0580914E0590
:104A0000082E000C990BFC01E45AF64FE491F0E0FB
:104A1000EE0FFF1FEC56FD4F259134913093580552
:104A200020935705FC01E059F64FE491E0935C05B3
:104A300081E20E94D20584E10E94D20580914A055C
:104A400087FF03C08FE780934A0580914A058068FD
:104A50000E94D20580E20E94D2058CE00E94D2051D
:104A60000E94F10581E080931A0584E080933E0561
:104A700086E892E0909326058093250580E00E94C9
:104A8000F70461E070E083E00E94AF068091B1001E
:104A9000887F81608093B100F8941092800010921A
:104AA0008100109285001092840088E191E090933B
:104AB00089008093880080918100886080938100C4
:104AC0008091810081608093810080916F0082607D
:104AD00080936F00789480910D0590910E05892B3D
:104AE00011F00E941E0780910705813009F417C15B
:104AF00080910A05882309F412C16EE972E086E10B
:104B000095E00E94BB0764EE72E08FE395E00E949F
:104B100008088091610581110E949717C0900B05CC
:104B2000D0900C05C094D094F12CE12C0E94550734
:104B30004B015C010E945507A50194012095309519
:104B40004095509560957095809590950E94732A38
:104B50009B01AC01C701B6010E94732A4B015C01A5
:104B6000C090F204D090F304F12CE12C0E94550780
:104B70006C0D7D1D8E1D9F1D680D791D8A1D9B1D51
:104B8000611571058105910511F00E94C728E4EABD
:104B9000EE2EE2E0FE2E0EEA12E0CAE0D0E0D12CCA
:104BA000C12C5E01EAE0AE1AB108C5018C0D9D1D55
:104BB0000E94D028F801EC0DFD1D8083FFEFCF1A75
:104BC000DF0A2AE0C216D10481F7CE010E94D02864
:104BD000C82ED12CF701D182C082CE0101960E944D
:104BE000D02890E0982F88278C0D9D1D8F3F980727
:104BF00011F490E080E0F701819391937F012C966E
:104C0000055F1F4FC634D10551F60E94E21850E0EF
:104C1000A52E50E0B52E7724739463E0562E0E94A3
:104C20006F138823E1F3109245051FEF612CD0E04C
:104C300040E3442EC0E00E946F138823E1F390917B
:104C40000605913051F080910705813029F080915F
:104C50000805813009F06DC080E02091440530E006
:104C6000319521953109D22FDD0FDD0FD20FD250B2
:104C7000882309F457C086E195E00E9404081C2FA0
:104C8000842D042C000C990B8D1B9109D7FD939555
:104C900002970CF0DEC0123009F408C10CF0CCC051
:104CA000112309F4D9C0113009F4EDC080916105D8
:104CB00081110E949717A114B10409F4B0CF0E948A
:104CC0000000ADCF9CE390934A051092F5048093C9
:104CD000F60480E293E09093F8048093F70484ED67
:104CE00093E09093FA048093F90487E080931C0585
:104CF00080931B058CEA9DE090930E0580930D0533
:104D00008EED9DE09093100580930F0584E79EE063
:104D100090931205809311058CE39FE068CD10926B
:104D20001B05F1CE6CEA72E086E195E00E94BB07BC
:104D3000A7CF6110A5CF809105058F3F31F083701B
:104D4000813019F4CF5F0E94FE07809103058F3FE9
:104D500009F472C18370813009F06EC1C1500E94A4
:104D6000FE07CF3F09F4C4E080914405D4E0D80F9A
:104D70008C9FD01911248D2F0D2E000C990B840DB2
:104D8000911D47FC9A9597FD019695958795082F5B
:104D9000482E10924805809349057092470510925D
:104DA000460536E6C32E35E0D32EF12CE12C8C2EB1
:104DB0000C2E000C99088E149F0451F45092480553
:104DC00080914405F02FC89FF00D1124F093490500
:104DD000F601659174918FE395E00E9422132FEF05
:104DE000E21AF20A82E0C80ED11C95E0E916F1043D
:104DF00011F710925F051092600580914405402FD5
:104E0000C89F400D1124415024E560E08FE395E0F8
:104E10000E94090E70925F057092600580914405B2
:104E200023E0280F602FC89F600D1124625044E5D5
:104E300080E00E94250EFFCE1330D9F1143009F026
:104E400035CF80916105882309F4E9CE0E94971738
:104E5000E6CE662463948FCF64E670E080E090E055
:104E60000E947A0765E477E08FE395E00E940808E6
:104E70000E94181C64EE72E08FE395E00E9408081F
:104E800070920905CCCE0E94E21865E477E08FE3CA
:104E900095E00E9408080E94181C64EE72E08FE3FF
:104EA00095E00E9408081093090500CF0E94711830
:104EB000B6CE65E477E08FE395E00E9408080E9493
:104EC0006F138823E1F380910805813009F4A7C0AE
:104ED0006FED72E08FE395E00E942A0540910B058B
:104EE00050910C0570E060E02AE08FE395E00E94AD
:104EF00003126CED72E08FE395E00E94221363EDE4
:104F000072E08FE395E00E942A0540910A0550E087
:104F100070E060E02AE08FE395E00E94031260ED0C
:104F200072E08FE395E00E94221369EC72E08FE358
:104F300095E00E942A054091F2045091F30470E03C
:104F400060E02AE08FE395E00E9403126EE371E0D7
:104F50008FE395E00E94F4116EEB72E08FE395E031
:104F60000E942A054091F40450E070E060E02AE0DD
:104F70008FE395E00E9403126EE371E08FE395E00A
:104F80000E94F41166EB72E08FE395E00E942A051F
:104F900040911B0550E070E060E02AE08FE395E06F
:104FA0000E94031264EB72E08FE395E00E942A05F1
:104FB00040911C0550E070E060E02AE08FE395E04E
:104FC0000E9403126EE371E08FE395E00E94F411FA
:104FD00068E471E08FE395E00E94F4114091E702EC
:104FE00050E070E060E02AE08FE395E00E94031259
:104FF0006EE471E08FE395E00E94F41180E190E0AF
:105000000E944F1260E571E08FE395E00E94F41179
:105010008091E5029091E6020E944F1250CF64EE1B
:1050200072E08FE395E00E9408086CEA72E086E186
:1050300095E00E94BB07F3CDC53009F095CEC0E0E6
:1050400093CE109242051092410586E391E0909331
:10505000400580933F0508958F929F92AF92BF9233
:10506000CF92DF92EF92FF92CF93DF93EC016881B2
:1050700079818A819B81611571058105910521F4F2
:1050800064E279ED8BE597E02DE133EF41E050E00C
:105090000E94E62849015A019B01AC01A7EAB1E44C
:1050A0000E9405296B017C01ACEEB4EFA5019401CF
:1050B0000E941329C60ED71EE81EF91EF7FE06C071
:1050C00081E0C81AD108E10880E8F80AC882D982CC
:1050D000EA82FB82C701B6019F77DF91CF91FF90F3
:1050E000EF90DF90CF90BF90AF909F908F900895FA
:1050F0008F929F92AF92BF92CF92DF92EF92FF92E8
:10510000609101017091020180910301909104016D
:10511000611571058105910521F464E279ED8BE556
:1051200097E02DE133EF41E050E00E94E62849018D
:105130005A019B01AC01A7EAB1E40E9405296B0169
:105140007C01ACEEB4EFA50194010E941329C60EB8
:10515000D71EE81EF91EF7FE06C081E0C81AD10866
:10516000E10880E8F80AC0920101D0920201E092C1
:105170000301F0920401C701B6019F77FF90EF9001
:10518000DF90CF90BF90AF909F908F9008956093E5
:10519000010170930201809303019093040108952B
:1051A000F999FECF92BD81BDF89A992780B50895EF
:1051B000262FF999FECF1FBA92BD81BD20BD0FB633
:1051C000F894FA9AF99A0FBE01960895052E97FB66
:1051D0001EF400940E94FD2857FD07D00E94182954
:1051E00007FC03D04EF40C94FD2850954095309563
:1051F00021953F4F4F4F5F4F089590958095709543
:1052000061957F4F8F4F9F4F08950E943A29A59F28
:10521000900DB49F900DA49F800D911D11240895B1
:10522000B7FF0C9405290E940529821B930B089552
:10523000A1E21A2EAA1BBB1BFD010DC0AA1FBB1F9A
:10524000EE1FFF1FA217B307E407F50720F0A21B0C
:10525000B30BE40BF50B661F771F881F991F1A9479
:1052600069F760957095809590959B01AC01BD01A3
:10527000CF010895A29FB001B39FC001A39F700DFD
:10528000811D1124911DB29F700D811D1124911D4E
:1052900008950E94BD2988F09F5798F0B92F99274B
:1052A000B751B0F0E1F0660F771F881F991F1AF011
:1052B000BA95C9F714C0B13091F00E94D729B1E076
:1052C00008950C94D729672F782F8827B85F39F075
:1052D000B93FCCF3869577956795B395D9F73EF4AA
:1052E00090958095709561957F4F8F4F9F4F089552
:1052F000E89409C097FB3EF4909580957095619570
:105300007F4F8F4F9F4F9923A9F0F92F96E9BB2725
:105310009395F695879577956795B795F111F8CFA1
:10532000FAF4BB0F11F460FF1BC06F5F7F4F8F4F0C
:105330009F4F16C0882311F096E911C0772321F002
:105340009EE8872F762F05C0662371F096E8862F9A
:1053500070E060E02AF09A95660F771F881FDAF7F1
:10536000880F9695879597F9089557FD9058440FA3
:10537000551F59F05F3F71F04795880F97FB991FB4
:1053800061F09F3F79F08795089512161306140671
:10539000551FF2CF4695F1DF08C0161617061806FE
:1053A000991FF1CF86957105610508940895E894D9
:1053B000BB2766277727CB0197F908950E94F1292B
:1053C0000C94622A0E94542A38F00E945B2A20F032
:1053D000952311F00C944B2A0C94512A11240C940F
:1053E000D8290E94B52970F3959FC1F3950F50E01D
:1053F000551F629FF001729FBB27F00DB11D639F87
:10540000AA27F00DB11DAA1F649F6627B00DA11D2C
:10541000661F829F2227B00DA11D621F739FB00DD2
:10542000A11D621F839FA00D611D221F749F332742
:10543000A00D611D231F849F600D211D822F762FDB
:105440006A2F11249F5750409AF0F1F088234AF0B8
:10545000EE0FFF1FBB1F661F771F881F9150504024
:10546000A9F79E3F510580F00C944B2A0C94D82943
:105470005F3FE4F3983ED4F3869577956795B795AB
:10548000F795E7959F5FC1F7FE2B880F911D9695C5
:10549000879597F9089597F99F6780E870E060E035
:1054A00008959FEF80EC089500240A9416161706BD
:1054B00018060906089500240A9412161306140605
:1054C00005060895092E0394000C11F4882352F068
:1054D000BB0F40F4BF2B11F460FF04C06F5F7F4F20
:1054E0008F4F9F4F0895DB018F939F930E94052953
:1054F000BF91AF91A29F800D911DA39F900DB29F70
:10550000900D11240895991B79E004C0991F9617F6
:1055100008F0961B881F7A95C9F78095089597FB28
:10552000072E16F4009407D077FD09D00E94A32A15
:1055300007FC05D03EF4909581959F4F0895709596
:1055400061957F4F0895AA1BBB1B51E107C0AA1F9D
:10555000BB1FA617B70710F0A61BB70B881F991F14
:105560005A95A9F780959095BC01CD010895EE0F4D
:10557000FF1F0590F491E02D0994FB01DC010190DF
:0C5580000D920020E1F70895F894FFCF91
:10558C00010100000003020300030A0203050400EA
:10559C000001030301020100021E01021E010405A9
:1055AC0003020502010203020F27F4012C0114006F
:1055BC00960000000000470F4E05D30FD20F0D0AC6
:1055CC00004C4F41444552004D6F62733A002F001E
:0855DC004B696C6C65643A0038
:00000001FF
