:100000000C9416020C943E020C943E020C943E0298
:100010000C943E020C943E020C943E020C943E0260
:100020000C943E020C943E020C943E020C94CF11B0
:100030000C943E020C943E020C943E020C943E0240
:100040000C9485110C943E020C943E020C943E02DA
:100050000C943E020C943E020C943E020C943E0220
:100060000C943E020C943E02457869740045787405
:1000700072656D65004861726400456173790001C5
:1000800001FF030101F7034352415A594341520012
:100090004352415A59434152007A0075006D00683D
:1000A0000083007F0000000000240027002A0000D9
:1000B000000000250028002B0005008930080238C8
:1000C000024978681400004372617A7963617200B2
:1000D00008083C7E7E7E3C18183C08085A5A7E1858
:1000E000183C246C080802037FFE7E444400080884
:1000F00000183C060F307800080800183C247E42A7
:10010000FFFF0500680138010000100807F00BD060
:100110000BFEFFFFFFFFFFFFCE27783C05003801F5
:1001200068010000175344001613780016131400DA
:100130001510200015201000540A03E181867F3E2F
:10014000186D830F0F0E0183866033186DC3198FEE
:100150001803C38E6033186DE330CF1803C39E605D
:100160003630CDE360CF3006C79E7E3E30CDB360E3
:10017000CF300CC6F6603330D9B660CF33CFCCF673
:100180006061B0DB1E60CF30D86CE6C061B0DB1EB2
:10019000618F19986CC6C063B19B0E330F0FB07896
:1001A000C6FF7E1F1B061E0F0A0A153A49676E6FAF
:1001B0007265006D560A0A504C454153452054550E
:1001C000524E204F464620004C4F57204241545437
:1001D00045525921200003053F213F1208120A1001
:1001E0000A0E1C0E0C1E0C141A14161F161E131EBB
:1001F0001E1B1E1E1F1E3F213F3A2F3A173D173F61
:10020000213F181F02040A041F0E04040E1F0A1FB8
:100210000A0E0E1F04110E2E252E2F2A2E262929F6
:10022000021F02081F08150E04040E150E15151BDB
:10023000151B040604040C04000000001700030052
:10024000031F0A1F16371A1904130A153A00030070
:10025000000E11110E000A040A040E0400300004FE
:1002600004040010001804031F111F121F101D1595
:100270001711151F07041F17151D1F151D01011F3D
:100280001F151F17151F000A00003200040A110A6B
:100290000A0A110A040115020E11171E051E1F1568
:1002A0000A0E110A1F110E1F15111F05010E111D37
:1002B0001F041F111F1108100F1F041B1F10101FF8
:1002C000061F1E040F0E110E1F09060E112E1F050C
:1002D0001A121509011F011F101F0F180F1F0C1FE5
:1002E0001B041B031C03191513001F110304181111
:1002F0001F000201022020200001020C121E1F120A
:100300000C0C12120C121F0C1A14041E05242A1EA7
:100310001F021C141D1020201D1F0814111F101E69
:10032000041E1E021C0C120C3E0A040C123E1E047B
:100330000214160A020F120E101E0E100E1E081EB8
:10034000120C1226281E322A26041E21001F00210C
:100350001E040102013F213FF6E8DBCFC3B8AEA483
:100360009B928A827B746E68625C57524E4945410B
:100370003E3A3734312E2C292725232145006801A8
:100380000000172B152010204C4F414445520017F8
:100390002B16201314000A4E6F2053442063617201
:1003A00064206F720A6E6F204C4F414445522E48B4
:1003B00045580A0A153A45786974001D20466C6153
:1003C0007368696E670A20206C6F616465722E2EF7
:1003D0002E0A0A444F4E2754205455524E204F4661
:1003E0004621000000000023002600290004040428
:1003F00004040404040202020202020303030303CE
:1004000003010204081020408001020408102001AA
:10041000020408102000000008000201000003048C
:1004200007000000000000000000691711241FBE33
:10043000CFEFD8E0DEBFCDBF11E0A0E0B1E0EAEF42
:10044000F3E302C005900D92AC33B107D9F724E075
:10045000ACE3B1E001C01D92AD34B207E1F712E0A8
:10046000C6E1D2E004C02197FE010E94F519C53112
:10047000D107C9F70E9410120C94FB190C940000CC
:1004800090E0880F991FE091FA03F091FB03E80FC9
:10049000F91F2591349130930B0420930A04F9013C
:1004A000859194919091EF03989F802D11248093D2
:1004B0000C04F90165917491472F50E084171506DB
:1004C00029F020F0F90125913491832F989F802DF8
:1004D000112480930D0408954F925F926F927F9242
:1004E0008F929F92AF92BF92CF92DF92EF92FF9244
:1004F0000F931F93CF93DF93FA01E490F12C319681
:10050000C491EAE06E2EE1E07E2EF301C490EBE0B0
:10051000F1E0E4915701A80EB91E2A153B050CF035
:10052000A0C0C20ED32ED11C8C159D050CF099C015
:10053000D0E04E01860E971E081519050CF091C0EB
:10054000E00FF12FF11D6E177F070CF08AC0290113
:10055000481A590A821793070CF0412CD801A61BA0
:10056000B70B601771070CF0A0E0AC14BD041CF0D1
:100570007601E81AF90A8E169F061CF0EF01C61BD9
:10058000D70B1A2FA0E8B0E0A82EA21AB62EB01AE8
:10059000812F90E08C179D070CF063C0042DCB2CAD
:1005A000C10ED12C202F30E02E153F050CF057C086
:1005B000FA01649170E0695F7F4FE3E0759567959C
:1005C000EA95E1F7689FF001699FF00D789FF00DC3
:1005D000112463E0359527956A95E1F72E5F3F4F2B
:1005E000E20FF31FE40FF51FE491202F2770BD01E8
:1005F00002C0759567952A95E2F7F0E0E623F723A8
:10060000EF2B59F1F301249130E0295F3F4F63E074
:10061000359527956A95E1F7C29EF001C39EF00DCE
:10062000D29EF00D11246A2D600F262F30E073E06A
:10063000359527957A95E1F7E20FF31FE45FFE4FBA
:10064000E49167709D0102C0359527956A95E2F7A0
:10065000F0E0E223F323EF2BB1F40F5FA3CF1F5F92
:1006600097CF80E0DF91CF911F910F91FF90EF9096
:10067000DF90CF90BF90AF909F908F907F906F90C2
:100680005F904F90089581E0EDCFDC01ED91FC91FA
:100690000190F081E02D0994AF92BF92CF92DF924A
:1006A000EF92FF920F931F93CF93DF936C017B0127
:1006B0008B01040F151FEB015E01AE18BF08C017B8
:1006C000D10759F06991D601ED91FC910190F0812B
:1006D000E02DC6010995892B79F7C501DF91CF91EE
:1006E0001F910F91FF90EF90DF90CF90BF90AF9050
:1006F0000895833081F028F4813099F08230A9F098
:1007000008958730A9F08830C9F08430B1F4809121
:1007100080008F7D03C0809180008F778093800060
:10072000089584B58F7784BD089584B58F7DFBCF00
:100730008091B0008F778093B00008958091B000D1
:100740008F7DF9CF1F93CF93DF93282F30E0F901EE
:10075000EB5EFB4F8491F901EF5FFB4FD491F90100
:10076000E351FC4FC491CC23A9F0162F81110E94B4
:100770007903EC2FF0E0EE0FFF1FE155FF4FA5913D
:10078000B4918FB7F894EC91111108C0D095DE2385
:10079000DC938FBFDF91CF911F910895DE2BF8CFAF
:1007A000CF93C82FF89460E0809123040E94A203A5
:1007B0008091240418161CF460E00E94A203CEBDB0
:1007C00000000DB407FEFDCF8EB5809124041816ED
:1007D0001CF461E00E94A2037894CF9108950F93D6
:1007E0001F93CF93809120048F5F8093200406ECA9
:1007F00011E0C0E08C2F80640E94D00380E80E944A
:10080000D00361E0809123040E94A203809124041C
:1008100018161CF460E00E94A203F80184E591918F
:100820009EBD00000DB407FEFDCF9EB58150B9F707
:100830008091240418161CF461E00E94A203CF5F8B
:100840000C5A1F4FC630B1F680E4CF911F910F9123
:100850000C94D003CF93DF9390E0FC01EF5FFB4F4C
:10086000249183519C4FFC0184918823C9F090E02E
:10087000880F991FFC01EB55FF4FA591B491FC0126
:10088000E155FF4FC591D49161110DC09FB7F89408
:100890008C91209582238C938881282328839FBF65
:1008A000DF91CF910895623051F49FB7F8943C9155
:1008B000822F809583238C93E8812E2BEFCF8FB7E7
:1008C000F894EC912E2B2C938FBFEACFFF920F93CD
:1008D0001F93CF93DF93C6ECD3E0FF24FA9462E03A
:1008E0008A850E942A042A8530E0F901EB5EFB4FDD
:1008F0008491F901EF5FFB4F0491F901E351FC4F43
:1009000014911123E1F081110E947903E12FF0E0AD
:10091000EE0FFF1FED51FC4FA591B491EC91898929
:100920000E2369F0811113C0219683E0CD3CD807D6
:10093000B1F6DF91CF911F910F91FF9008958989B2
:100940008F5F898B60E08A850E942A04EDCF8F3FFC
:1009500011F4198AF7CFF98AF5CF1F93CF93DF935C
:10096000182FEB0161E00E942A04209739F460E01F
:10097000812FDF91CF911F910C94A203CF3FD1051E
:1009800011F461E0F5CFE12FF0E0EB5EFB4FE49175
:10099000E33031F140F4E130B1F0E230E1F0C03861
:1009A000D1057CF7E4CFE73029F1E83059F1E430A4
:1009B000B1F780918000806280938000D0938B009B
:1009C000C0938A0004C084B5806884BDC7BDDF9130
:1009D000CF911F91089584B5806284BDC8BDF7CFC3
:1009E00080918000806880938000D0938900C093BC
:1009F0008800EDCF8091B00080688093B000C093F4
:100A0000B300E5CF8091B00080628093B000C093C6
:100A1000B400DDCF8E50806480937C0080917A009A
:100A2000806480937A0080917A0086FDFCCF80916B
:100A300078009091790008958091EA038F7149F5CB
:100A400084E10E940A05BC01990F880B990B0E9452
:100A5000B81826EE3FE34EEC50E40E941C190E94A9
:100A600087189B017093E1036093E003672BB9F053
:100A700084E08093DF03E2EEF3E080E04191519166
:100A80002417350718F48093DF0308958F5F8430AF
:100A9000A9F78091EA038F5F8093EA0308958FEFAF
:100AA0008093DF03F6CF3FB7F89480913E01909199
:100AB0003F01A0914001B091410126B5A89B05C01E
:100AC0002F3F19F00196A11DB11D3FBFBA2FA92FCD
:100AD000982F8827BC01CD01620F711D811D911DCA
:100AE00042E0660F771F881F991F4A95D1F7089536
:100AF0008F929F92AF92BF92CF92DF92EF92FF922E
:100B00004B015C010E9453056B017C010E9453055F
:100B10006C197D098E099F09683E73408105910516
:100B2000A8F321E0821A9108A108B10888EEC80E46
:100B300083E0D81EE11CF11C81149104A104B104CE
:100B400029F7FF90EF90DF90CF90BF90AF909F90EC
:100B50008F900895FC01178A158A14A213A2108E93
:100B60001092BD011092BE011092C1011092B4000A
:100B700008950F931F93CF93DF93EC018B010E9495
:100B8000AA051E870D871B8A1A8A81E0898389E05E
:100B90008E8B198E1B8E1D8EDF91CF911F910F9121
:100BA0000895E091F4038E2F90E0880F991FE09153
:100BB000F203F091F303E80FF91F859194918F3FB1
:100BC000980719F41092EB0308959093F70399276F
:100BD000880F991FE091F503F091F603E80FF91FD4
:100BE000659174918BEE93E00E94B9058091F403B6
:100BF0008F5F8093F40308952F923F925F926F92DC
:100C00007F928F929F92AF92BF92CF92DF92EF929C
:100C1000FF920F931F93CF93DF93EC01F901E490C0
:100C20003196849164350CF015C10E2C000CFF0830
:100C3000062F062E000C110BF701E00FF11F1E16F8
:100C40001F060CF007C140330CF004C1A82FC42EBE
:100C5000042E000CDD085601A80EB11C87FDBA94C5
:100C60001A141B040CF0F6C02E5F3F4F570197E09B
:100C7000A90EB11CB7FE04C05701BEE0AB0EB11CFB
:100C8000B3E0B594A794BA95E1F747FF0AC0A42F43
:100C9000A80FAC9CC001AD9C900D1124281B390BF2
:100CA00040E08A2F0A2E000C990B840F911D47FDFE
:100CB0009A95C19714F0A0E3A41BF8A067FD60E02B
:100CC000E535F10514F0E4E5F0E09E2FCC85C4276E
:100CD000C62E062E000CDD08F601E01BF10B8F017D
:100CE0004F01F7E08F229924E0E8F0E002C0F5958B
:100CF000E7958A94E2F77E2F17FF02C0095F1F4F26
:100D0000F3E015950795FA95E1F7200F311F542F61
:100D1000577081E001C0880F5A95EAF745954595CF
:100D20004595F601B4E54B02E00DF11D1124AF012C
:100D30004A535E4FD0E02A2EAA0F3308EE24E394E4
:100D4000BB24D21513040CF085C0F9015490F1E0D6
:100D5000FF121AC0962E8A01E72F6901991608F032
:100D600057C08E2E852021F0D8018C90882A8C9235
:100D7000E69531F4BFEFCB1ADB0AF6015490E0E8B8
:100D800093940F5F1F4FEACFF1101CC0782E709420
:100D9000962E8A01E72F6901991608F039C08E2E28
:100DA000852021F0D8018C9087208C92E69531F433
:100DB000BFEFCB1ADB0AF6015490E0E893940F5F83
:100DC0001F4FEACFF3E0FF122CC0782E7094862ECE
:100DD0008A01972E69018916D0F4E92DE52141F0A9
:100DE000D801EC916C2E682460FE0FC0E82BEC93C8
:100DF000969439F4BFEFCB1ADB0AF6015490E0E881
:100E00009E2E83940F5F1F4FE6CFE721F0CFCE25B4
:100E1000880F19F44C5A5F4F81E0DF5F2A0D3B1DAC
:100E200090CF962E8A01E72F6901991688F78E2EAA
:100E3000852021F0D8018C9088268C92E69531F49B
:100E4000BFEFCB1ADB0AF6015490E0E893940F5FF2
:100E50001F4FEBCFDF91CF911F910F91FF90EF903C
:100E6000DF90CF90BF90AF909F908F907F906F90CA
:100E70005F903F902F900895DC01643570F540330A
:100E800060F590968C919097E62F062E000CFF0B44
:100E9000242F25952595259594E52902E00DF11D32
:100EA0001124EA53FE4F2081342F37708230B1F481
:100EB000822F90E0032E02C0959587950A94E2F761
:100EC00080958170811114C081E090E001C0880F8D
:100ED0003A95EAF78095822380830895833091F7CD
:100EE0001C968C9181706427609561708613ECCF9D
:100EF00081E090E001C0880F3A95EAF7822BECCFB1
:100F0000AF92BF92CF92DF92EF92FF920F931F9317
:100F1000CF93DF93182F062FC0E0D3E08AEFD82EAF
:100F20009EEFE92E842F8470C82E842F8270B82EF5
:100F3000842F8870A82E4170F42ECF5F8C2F880FDD
:100F40008F5FE80ECC2081F0402F4D0F612F6C0F8A
:100F500084E194E00E943C07402F4C0F6D2F610FFD
:100F600084E194E00E943C07BB2081F0402F4D1BA0
:100F7000612F6C0F84E194E00E943C07402F4C1BD2
:100F80006D2F610F84E194E00E943C07AA2081F05C
:100F9000402F4C0F612F6D1B84E194E00E943C07B1
:100FA000402F4D0F612F6C1B84E194E00E943C07A1
:100FB000FF2081F0402F4C1B612F6D1B84E194E0DA
:100FC0000E943C07402F4D1B612F6C1B84E194E075
:100FD0000E943C07CD173CF4E7FCAFCFD150D3942F
:100FE000D394ED0CAACFDF91CF911F910F91FF9079
:100FF000EF90DF90CF90BF90AF9008950F931F9325
:10100000CF93DF93D82F162F042FC0E0C0174CF4D6
:10101000412F4C0F6D2F84E194E00E943C07CF5F7D
:10102000F5CFDF91CF911F910F9108958F929F92ED
:10103000AF92BF92CF92DF92EF92FF920F931F93E6
:10104000CF93DF93082FA62E842E922E83E0F82EC6
:10105000D0E0C3E09AEFE92E1EEFBB24B394B20EAA
:10106000DF5F1F0D4C2F440F6A2D6C1BC92CCF0C5A
:10107000DA2CDD1A81E04B0D881215C0802F8D0F00
:101080000E94FE074C2D6D2D8C2F800F0E94FE07B5
:10109000DC1794F417FD04C0C150E394E3941E0DD3
:1010A000F394F394DDCF802F8D1B0E94FE074C2D0F
:1010B0006D2D802F8C1BEACFDF91CF911F910F9167
:1010C000FF90EF90DF90CF90BF90AF909F908F9068
:1010D00008959F92AF92BF92CF92DF92EF92FF92CC
:1010E0000F931F93CF93DF93C82FD62F042FE22E99
:1010F000022E000CFF08E61AF10867FDF394F7FED4
:1011000003C0F194E194F108C02E002E000CDD081C
:10111000CC1AD108C7FDD394D7FE03C0D194C19493
:10112000D108CE14DF0434F4802F022F282F8C2F07
:10113000CD2FD82F0C1734F48D2FD22F282F8C2F92
:10114000C02F082FA02EAC1A822F022E000C990B54
:101150008D1B9109D7FD939597FF03C091958195BC
:101160009109B82E1A2DA7FE02C011E01A0D15958F
:1011700099249A94D21714F4992493940C1794F008
:101180004C2F6D2FCE14DF0414F04D2F6C2F84E103
:1011900094E00E943C071B1917FF02C0D90D1A0DDD
:1011A000CF5FECCFDF91CF911F910F91FF90EF9028
:1011B000DF90CF90BF90AF909F900895EF92FF92F5
:1011C0000F931F93CF93DF938C01F62ED42FE22E33
:1011D000C0E0CE1544F46F2D6C0F4D2FC8010E9456
:1011E0003C07CF5FF6CFDF91CF911F910F91FF901A
:1011F000EF9008951F93CF93DF93C82F162F2EE4FF
:10120000482F63E084E194E00E94DE08DC2FD10FD8
:101210004FEF4D0F2EE463E084E194E00E94DE087E
:101220001650CD5F412F6C2F80E00E94FE07412FAA
:101230006C2F83E50E94FE0741E06C2F83E00E9443
:10124000800742E06C2F80E50E948007D45044E084
:101250006D2F80E50E94800748E06D2F83E0DF91CD
:10126000CF911F910C9480072F923F924F925F92E3
:101270006F927F928F929F92AF92BF92CF92DF92A6
:10128000EF92FF920F931F93CF93DF9300D000D084
:10129000CDB7DEB79C838B836A3099F4DC01189656
:1012A0002C91189715969C9115971A968C911A97D0
:1012B000299F800D11241A968C931A9719961C92C7
:1012C000F0C06D3009F4EDC0EB81FC815184F3E591
:1012D000F5150CF4C3C0AB81BC811A96FC90BFE23B
:1012E000BF150CF4BBC0EB81FC811085248121501B
:1012F000330B129FC001139F900D1124850D911D7A
:1013000057FC9A95181619060CF0A8C025818F2D48
:101310000F2C000C990B129F800D911D1124181693
:1013200019060CF09BC0F0A1F983752C612C262EB8
:10133000312CA12E012E000CBB08E62D062C000C32
:10134000FF0BAB81BC8114968C91149790E0E81749
:10135000F9070CF07EC00197E817F907A1F1289E64
:101360006001299ED00C389ED00C1124CE0EDF1EB9
:101370005E96ED91FC91EC0DFD1DE4910F2DE12C9D
:10138000B62DB50DBA83AB81BC8115962C911597FE
:101390008E2D0E2C000C990B2817190609F00CF451
:1013A00055C0CE2ED12CE0FF26C0113071F44E2D49
:1013B0004F0D6A81CD010E943C07F601F595E79536
:1013C000E394010FE0CFE0E0D9CF402E4501800E3D
:1013D000911C07FD9A94842D042C000C990B881500
:1013E00099055CF7212F442D672D8B819C810E94EC
:1013F000DE084394F0CFEB81FC8181A190A1891795
:10140000E1F280A3113061F44E2D4F0D6A81CF01BE
:101410000E943C07E981AB81BC819096EC93CDCFD3
:10142000402E4501800E911C07FD9A94842D042CBA
:10143000000C990B881599056CF7212F442D672D09
:101440008B819C810E94DE084394F0CF6394710EDF
:1014500074CFE981AB81BC819096EC93AB81BC8168
:1014600018962C91189714963C91149719968C9174
:101470001997239F800D112419968C93199717960D
:101480009C911797992369F0082E000C990B44E55D
:1014900050E0239F401951091124481759070CF4B3
:1014A00001CF81E090E00F900F900F900F90DF91AF
:1014B000CF911F910F91FF90EF90DF90CF90BF9051
:1014C000AF909F908F907F906F905F904F903F90E4
:1014D0002F9008950F931F93CF93DF938C01D0E04B
:1014E000C0E0F801EC0FFD1F6491662341F084E138
:1014F00094E00E943409892B11F02196F2CFCE019D
:10150000DF91CF911F910F910895089590E080E0B1
:101510000895FB0101900020E9F73197AF01461BC8
:10152000570BDC01ED91FC910280F381E02D0994D1
:10153000CF93DF930E946A0AEC0169E171E084E1D4
:1015400094E00E94890A8C0F9D1FDF91CF9108952E
:10155000E6ECF1E088EF91E0DF019C011D92215063
:101560003040E1F710921D0410921E048BEB93E0C3
:101570000E946A0A0E94EF038CB583608CBD8DB512
:101580008E7F8DBD8CE191E0EEEFFFE30995109227
:101590001A0486E993E00E94980A0E94EF030E94D1
:1015A00066048091DB03813039F062E370E080E013
:1015B00090E00E947805F3CF08958F929F92AF92AA
:1015C000BF92EF92FF920F931F93CF93DF93CDB70C
:1015D000DEB7A1970FB6F894DEBF0FBECDBF7C017A
:1015E000FA01CB0119A2223008F42AE08E010F5D26
:1015F0001F4F822E912CB12CA12CBF01A50194016B
:101600000E945618F901CA016A300CF5605DD801D4
:101610006E938D01232B242B252B79F790E080E00E
:10162000109721F0BD01C7010E94890AA1960FB64B
:10163000F894DEBF0FBECDBFDF91CF911F910F9108
:10164000FF90EF90BF90AF909F908F900895695C4E
:10165000DECF4F925F926F927F928F929F92AF9266
:10166000BF92CF92DF92EF92FF920F931F93CF938F
:10167000DF9300D000D01F92CDB7DEB74091460473
:101680005091470460914804709149042FB7F89431
:101690008091C2019091C301A091C401B091C50194
:1016A0002FBF481B590B6A0B7B0B8091450490E0C0
:1016B000B0E0A0E000914104109142042091430465
:1016C0003091440484179507A607B70708F0CEC0E9
:1016D000011511052105310509F4C8C02FB7F8948B
:1016E0008091C2019091C301A091C401B091C50144
:1016F0002FBF20914504820F911DA11DB11D809324
:10170000460490934704A0934804B0934904809101
:10171000370490913804A0913904B0913A040196AD
:10172000A11DB11D8093370490933804A093390410
:10173000B0933A0410924104109242041092430470
:10174000109244040E94530560933D0470933E043C
:1017500080933F04909340048091C7039091C80305
:101760002FE0289FA001299F500D11245A834983FF
:1017700085E10E940A05A981BA818A0F9B1FB4E006
:1017800096958795BA95E1F79093C8038093C70320
:101790002091C603222309F448C06091CA03262F72
:1017A00030E050E040E029833A834B835C83C09073
:1017B000CB03D12CF12CE12C4091CE035091CF03DF
:1017C0004A01B12CA12C2091CC033091CD032901E9
:1017D000712C612C8217930728F09C014817590738
:1017E00008F49A0150E040E02419350946095709E8
:1017F00069817A818B819C816C197D098E099F0991
:101800000E94B119A5019401241935094609570907
:101810000E942418C20ED31EE41EF51EC092C903F6
:101820006C2D70E085E00E94AD040E9466048091FA
:10183000E2039091E303892B11F00E941C0581E0E3
:101840000F900F900F900F900F90DF91CF911F91FD
:101850000F91FF90EF90DF90CF90BF90AF909F904F
:101860008F907F906F905F904F900895012B022B87
:10187000032B09F0A4C28091DD0381508E3F28F52F
:101880008091DC03813009F58091F0038F5F6091D6
:10189000F10387FD09C0082E000C990B70E06F5F03
:1018A0007F4F0E94CD19682F6093F0038FE893E07B
:1018B00090934B0480934A0488E480934C046CE733
:1018C00073E08BEE93E00E94B9058091DD038150B7
:1018D0008E3F70F48091DB03813009F0F8C282E81A
:1018E00093E090934B0480934A0488E480934C04E3
:1018F0008091EB03882331F08091EC03811102C0C9
:101900000E94D1058091EC03882309F43EC08091A8
:10191000000481113AC08091F8039091F903E0919D
:10192000FD03F091FE03EE0FFF1FE80FF91F259155
:1019300034912115310509F4BDC0A901569547958B
:1019400056954795842F20FD60C08F738093FF03C9
:101950008091EF03839F802D1124809300041092C7
:10196000100410920F0410920E0481E08093020480
:101970008093C101109203048091FD039091FE03B6
:1019800001969093FE038093FD03809102048823C7
:1019900041F0809100048111A9C08BEE93E00E9478
:1019A000AA0580914C04882309F4C0C18C3008F04A
:1019B00087C13CE0381B398381E080931C0410927E
:1019C000340410923504409119044D8383E0E82ECD
:1019D000E40E1981141B0DE2010F0E2C000CFF0800
:1019E000E00EF11C07FDFA94802F002E000C990BDD
:1019F0008E159F050CF066C12EE4402F63E084E154
:101A000094E00E94DE080F5FEFCFC901E6E09695F3
:101A10008795EA95E1F78F71932F96959695969510
:101A200090514F70423099F1D0F4442309F43CC0F6
:101A30004130B9F1E091FD03F091FE033196F0934E
:101A4000FE03E093FD03CF01880F991FE091F80397
:101A5000F091F903E80FF91F259134916ECF4330CF
:101A600061F0443039F72091EF03289F802D112435
:101A70008093080490930904DDCF2091EF03289F01
:101A8000802D11248093060490930704D3CF2091D6
:101A9000EF03289F802D1124809304049093050464
:101AA000C9CF0E944002C6CF8B3008F08AE08093F5
:101AB0000104C0CF2091FC03211112C01092EC034D
:101AC0008091EB03811105C08BEE93E00E94AA0583
:101AD0005CCF0E94D1058091FD039091FE03B4CFAD
:101AE0001092FE031092FD03FC01B6CF815080934B
:101AF000000480911004811142C020910E043091A5
:101B00000F042F5F3F4FC901880F991FE0910A040E
:101B1000F0910B04E80FF91F85919491482F4770BD
:101B200040931104492F4695469540931204AC0109
:101B300064E0569547956A95E1F74F739091EF03EE
:101B4000499F402D11244093100483FB882780F97E
:101B50008093C00130930F0420930E0480910C04F5
:101B600090E02817390758F020910D04222309F43A
:101B70009FC0821B910990930F0480930E04809163
:101B800010048150809310048091030431E0380FD9
:101B9000309303044091FF0320911204240F80919D
:101BA000F703280F2093ED0360910604662371F07C
:101BB00070E0832F032E000C990B0E94CD198091A9
:101BC0000704869F200D11242093ED038091ED03DF
:101BD00090E0849664E270E00E94CD198093ED035A
:101BE000209101042093EE0360910404662381F0A8
:101BF000062E000C770B832F032E000C990B0E94EE
:101C0000CD1980910504869F200D11242093EE03A9
:101C1000609108046623A1F0832F330F990B70E0C5
:101C20000E94CD19CB0162E070E00E94CD19209195
:101C300009049091EE03289F900D11249093EE03D8
:101C40004F3309F43AC08091EE038A300CF089E0FA
:101C500087FD80E08093EE03F894E091ED03F0E0DF
:101C6000E85AFC4FE491E093BF01209113043091B6
:101C7000EE03320390011124409111044203C0018C
:101C8000439F900D11242091F00302C0880F991FEB
:101C90002A95E2F797FF02C081589F4F880F892F3E
:101CA000881F990B8093BE018093BD01789479CEF3
:101CB0008BEE93E00E94AA0562CF1092EE03CCCF88
:101CC00019827ACE5D8154505D83105D252F41E0ED
:101CD000612F80E50E9416082D8142E0612F83E08C
:101CE0000E94160881E0809334048093350480912B
:101CF000190463E0680F9981981B892F835D0E9406
:101D0000FA0884E080931D0480911904A981A81B1E
:101D1000A15DA0931E0480914A0490914B040E94FF
:101D20006A0A80914C04815080934C048091E203B4
:101D30009091E303892BD9F0B1E0B0933404109271
:101D400035049091180485E5891B80931D04109239
:101D50001E046091DF03613009F49DC090F1809111
:101D6000DE03653008F0AEC06B5F8111A6C00E9433
:101D7000EF0380911A0481110EC0E6ECF1E088EFC8
:101D800091E0DF019C011D9221503040E1F710925B
:101D90001D0410921E040E94530560934104709329
:101DA0004204809343049093440420913D04309175
:101DB0003E04621B730B70933C0460933B0480E011
:101DC0003FCD8BEE93E00E94AA051092EC0321E038
:101DD00020931C04E6EDF1E0E491EF5FE09318043A
:101DE000E7EDF1E0E491EF5FE093190488ED91E015
:101DF00090933304809332041092E3031092E20331
:101E000010921A0438EA39830E94290B8823E1F3DF
:101E100088EC91E00E946A0A4091E0035091E1034E
:101E200070E060E02AE084E194E00E94DD0A83EB48
:101E300091E00E946A0A498142954F7050E070E03B
:101E400060E02AE084E194E00E94DD0A88EA91E003
:101E50000E946A0A8091DB03813009F488CF4981AE
:101E6000415049834111D0CF70E060E085E00E948D
:101E7000AD0483B7817F846083BF83B7816083BFF4
:101E800083B7816083BF889583B78E7F83BF83B715
:101E90008E7F83BFB9CF8091370490913804A09191
:101EA0003904B0913A048F709927AA27BB2767E0BD
:101EB0000897A105B10508F068E784E194E00E9465
:101EC000450355CF882309F452CF6FE2F6CF89320C
:101ED00009F00ECD0E94A80A0BCDCF92DF92EF92AF
:101EE000FF921F93CF93DF93EC0181E080931C045A
:101EF00010921B0410921A041092DE038093340493
:101F0000809335041CE00E94290B8823E1F3FE0135
:101F1000849128E331E040E060E084E194E00E94B5
:101F2000FC0510921D0410931E04CE010E946A0A43
:101F300080911804982F990F990F891B8D5A8093BF
:101F40001D0480911904982F990F990F891B835DA7
:101F500080931E048091370484FF6AC084E391E07B
:101F60000E94980A80911804982F990F990F891B45
:101F70008D5A80931D0480911E048F5F80931E04F0
:101F80008091F003882309F456C08CE291E00E940E
:101F9000980A80911804982F990F990F891B8D5AD0
:101FA00080931D0480911E048F5F80931E0484E241
:101FB00091E00E94980A8091DC038130C1F4809105
:101FC000F0038F5F6091F10387FD09C0082E000CBC
:101FD000990B70E06F5F7F4F0E94CD19682F60935F
:101FE000F0036CE773E08BEE93E00E94B9058091FB
:101FF000DB03813019F180913604482F50E070E006
:1020000060E0C0903704D0903804E0903904F0903C
:102010003A04C416D506E606F70610F08F3F71F4B1
:102020008091DD03813009F06ECF0E94A80A6BCF4A
:1020300080E391E095CF88E291E0A9CF8FEF809384
:1020400036048BEE93E00E94AA051092EC036CE13B
:1020500071E08BEE93E00E94B90581E08093DE038E
:10206000DF91CF911F91FF90EF90DF90CF90089577
:102070006F927F928F929F92AF92BF92CF92DF9298
:10208000EF92FF920F931F93CF93DF938CE190E039
:1020900090930401809303018EE090E09093B4014B
:1020A0008093B3019093AE018093AD019093A8010A
:1020B0008093A7011092BC011092BB011092BA014B
:1020C0001092B90110921A04FF24FA94912CD0E0D6
:1020D00030E3632EC0E0EE24E39443E0842E0E94BC
:1020E000290B8823E1F39091DB03062C000C770881
:1020F000913051F08091DC03813029F08091DD0333
:10210000813009F03EC080E0D0911904DD0FDD0F71
:10211000D195D250882371F16CE171E08BEE93E0A0
:102120000E94B905FC2EC3018D1B9109D7FD939523
:1021300002970CF0BBC081E0F81609F4D7C08F15E8
:102140000CF4A0C09FEFF91609F4B3C082E090E050
:10215000FF2009F4CDC0DF91CF911F910F91FF9027
:10216000EF90DF90CF90BF90AF909F908F907F9037
:102170006F90089562E071E08BEE93E00E94B905E4
:10218000D2CF9110D0CF8091DA038F3F51F083707E
:10219000813039F4CF5F6CE773E08BEE93E00E94FF
:1021A000B9058091D8038F3F09F4AAC083708130AC
:1021B00009F0A6C0C1506CE773E08BEE93E00E947B
:1021C000B905CF3F09F4C3E080911904D4E0D80FDA
:1021D0008C9FD0191124C3018D0F911DD7FD9A95A5
:1021E00097FD019695958795782E682E10921D047F
:1021F00080931E04E0921C0410921B0409E910E075
:10220000D12CC12CAC2E0C2E000CBB08AC14BD0480
:1022100051F480921D0480911904972DC89F900D50
:10222000112490931E04F801859194910E94980ABC
:102230008FEFC81AD80A0E5F1F4F94E0C916D10459
:1022400029F7109234041092350480911904472D17
:10225000C89F400D1124415024E560E084E194E0E2
:102260000E94DE08E0923404E09235048091190463
:1022700063E0680F8C9F700C1124872D82500E94A0
:10228000FA082DCF82E0F816C1F193E0F91263CF7E
:1022900081E090E0909308018093070180913604DB
:1022A000882309F458CF80E990E010C099249394D2
:1022B00092CF81E090E09093080180930701809194
:1022C0003604882309F447CF87E890E0DF91CF9167
:1022D0001F910F91FF90EF90DF90CF90BF90AF9044
:1022E0009F908F907F906F900C946D0F83E090E0A3
:1022F00090930601809305012ECF84E090E0F8CF03
:10230000C43009F061CFC0E05FCF1F920F920FB6CB
:102310000F9211242F933F938F939F93AF93BF936B
:102320008091C2019091C301A091C401B091C501F7
:1023300030913D0123E0230F2D3758F50196A11D63
:10234000B11D20933D018093C2019093C301A093DE
:10235000C401B093C50180913E0190913F01A091CD
:102360004001B09141010196A11DB11D80933E0134
:1023700090933F01A0934001B0934101BF91AF9171
:102380009F918F913F912F910F900FBE0F901F90B3
:10239000189526E8230F0296A11DB11DD2CF1F92DA
:1023A0000F920FB60F9211242F936F937F938F93F9
:1023B0009F936091BE01662349F180913C018F5F3C
:1023C00080933C019091BF01891700F12091C101D8
:1023D00081E028272093C10110923C018091C00127
:1023E000882369F08091000193E4899F802D112456
:1023F000895B809300010E94C1199093BD01809177
:10240000BD01211101C080E08093B4009F918F91A4
:102410007F916F912F910F900FBE0F901F90189585
:10242000789484B5826084BD84B5816084BD85B5AF
:10243000826085BD85B5816085BD80916E008160BB
:1024400080936E0010928100809181008260809361
:102450008100809181008160809381008091800063
:102460008160809380008091B10084608093B1008E
:102470008091B00081608093B00080917A00846088
:1024800080937A0080917A00826080937A008091B4
:102490007A00816080937A0080917A0080688093CE
:1024A0007A001092C10088EF9FEF9093A60180936D
:1024B000A5018EE190E09093AC018093AB018CE399
:1024C00090E09093B2018093B1018EE090E0909300
:1024D000B4018093B3019093AE018093AD019093CA
:1024E000A8018093A70110927601109275011092B5
:1024F00046011092450188E090E090937A01809324
:10250000790190934A018093490180E190E0909392
:102510007E0180937D0190934E0180934D0188E16F
:1025200090E0909382018093810190935201809377
:10253000510180E290E09093860180938501909311
:1025400056018093550188E290E090938A01809330
:10255000890190935A018093590180E390E0909310
:102560008E0180938D0190935E0180935D0188E3DD
:1025700090E09093920180939101909362018093F7
:10258000610180E490E0909396018093950190938F
:1025900066018093650188E490E090939A018093AE
:1025A000990190936A018093690180E590E090938E
:1025B0009E0180939D0190936E0180936D0188E54B
:1025C00090E09093A2018093A10190937201809377
:1025D0007101E5E4F1E045E751E025E230E081E01A
:1025E00090E04E175F0731F03383228393AB82ABC9
:1025F0003496F7CF8CE090E09093B8018093B701C8
:1026000082E38093450481E090E0A0E0B0E0809315
:10261000410490934204A0934304B09344048FEF89
:1026200080933604E0E8F7E7259134912130304C6F
:1026300009F009C2E6E9F7E7E491E0931F04E7E94E
:10264000F7E7E491E093CA03E8E9F7E7E491E09360
:10265000CB03E9E9F7E7859194919093CD038093BB
:10266000CC03EBE9F7E7859194919093CF038093A6
:10267000CE0387E08093F103EEE9F7E7E491E0937E
:10268000F003EFE9F7E7E491E0933604E0EAF7E7D7
:10269000859194919093E3038093E203E2EAF7E754
:1026A000859194919093E5038093E403E4EAF7E73E
:1026B000859194919093E7038093E603E6EAF7E728
:1026C000859194919093E9038093E803C1E0C093CE
:1026D000C6036FEF70E085E00E94AD0488E0809350
:1026E000D00389E08093D10387E08093D20386E012
:1026F0008093D303D4E0D093D40382E08093D503B6
:1027000081E18093D6030E9466048CE39FE090935E
:10271000E1038093E003D093DF03C093EA038BE0EF
:10272000809322048DE08093210480E18093230430
:102730008EE0809325048FE080932404C0931C04D2
:10274000C093340410923504C0931B04E6EDF1E00D
:10275000E491EF5FE0931804E7EDF1E0E491EF5FBF
:10276000E093190488ED91E0909333048093320450
:10277000CFB7F89480914201811127C0E7EFF3E0D1
:102780008491EBE0F4E09491E82FF0E0EE0FFF1F6E
:10279000EB55FF4FA591B491EC91E92321F461E051
:1027A0008AE00E94A20361E08AE00E942A048CB5BC
:1027B00080618CBD8CB580648CBD61E08DE00E9431
:1027C0002A0461E08BE00E942A04809142018F5F1D
:1027D00080934201CFBF8CB58F7D8CBD8CB58C7F33
:1027E00081608CBD8DB581608DBD8CB58C608CBDDC
:1027F00061E0809122040E942A0461E0809121041A
:102800000E942A0461E0809123040E942A0480919E
:10281000250418161CF461E00E942A048091240407
:1028200018161CF461E00E942A04809125041816F1
:1028300074F460E00E94A2036AE070E080E090E03F
:102840000E94780561E0809125040E94A203809196
:102850002104082E000C990BFC01E351FC4FE4917C
:10286000F0E0EE0FFF1FE155FF4F259134913093BB
:10287000290420932804FC01EF5FFB4FE491E093CF
:102880002F0480912204082E000C990BFC01E351C7
:10289000FC4FE491F0E0EE0FFF1FE155FF4F259153
:1028A00034913093270420932604FC01EF5FFB4F03
:1028B000E491E0932E0480912404082E000C990BDF
:1028C000FC01E351FC4FE491F0E0EE0FFF1FE155F6
:1028D000FF4F2591349130932B0420932A04FC015F
:1028E000EF5FFB4FE491E093300480912304082EC6
:1028F000000C990BFC01E351FC4FE491F0E0EE0F6A
:10290000FF1FE155FF4F2591349130932D04209303
:102910002C04FC01EF5FFB4FE491E093310481E272
:102920000E94D00384E10E94D00380911F0487FF9E
:1029300003C08FE780931F0480911F0480680E946A
:10294000D00380E20E94D0038CE00E94D0030E945A
:10295000EF0381E08093EF0384E08093130481EA26
:1029600090E09093FB038093FA0380E00E94400282
:1029700061E070E083E00E94AD048091B100887F47
:1029800081608093B100F8941092800010928100D1
:10299000109285001092840088E191E09093890064
:1029A000809388008091810088608093810080916D
:1029B000810081608093810080916F0082608093AC
:1029C0006F0078948091E2039091E303892B11F0DA
:1029D0000E941C058091DC03813009F461C0809164
:1029E000DF03882309F45CC069EB70E08BEE93E0B1
:1029F0000E94B90580913604882321F087EC90E08D
:102A00000E946D0F42E0242E312C412C512C54E0B9
:102A1000852E912CA12CB12C0E94290B882361F0CA
:102A20008091070190910801892BE9F1109208012A
:102A3000109207010E94381080E090E0892B61F32A
:102A40000E940000E9CF9CE390931F041092CA03F8
:102A50008093CB0380E293E09093CD038093CC03EB
:102A600084ED93E09093CF038093CE0387E080932F
:102A7000F1038093F0038CEA9DE09093E30380934D
:102A8000E2038EED9DE09093E5038093E40384E7F9
:102A90009EE09093E7038093E6038CE39FE012CEE1
:102AA0001092F003A7CF8091BB019091BC01892BBC
:102AB00009F0C7C124E244E564E280E00E946908AD
:102AC0002CE044E56CE080E00E9469081092B801B7
:102AD0001092B701E090B701F090B8016CE0E616F3
:102AE000F1040CF050C0C701880F991F880F991F7F
:102AF000FC01EB5BFE4F20813181283F7FEF3707E0
:102B000024F4205A3F4F31832083E7012C96CC0FC9
:102B1000DD1FCC0FDD1FFE01EB5BFE4F20813181FD
:102B2000283F4FEF340724F4205A3F4F318320834E
:102B3000FC01EB5BFE4F4281609005017090060145
:102B400060817181661977097183608320ED30E0BF
:102B500084E194E00E94FC05CB5BDE4F4A816881F2
:102B60007981661977097983688320ED30E084E103
:102B700094E00E94FC056FEFE61AF60AF092B801A5
:102B8000E092B701A7CF1092B8011092B701C0919F
:102B9000B701D091B8014091430150914401809117
:102BA000010190910201C530D1058CF49A01285F92
:102BB0003F4F2C9F800D1124480F28E168E10E94AF
:102BC00069082196D093B801C093B701E0CF209156
:102BD000050130910601821B930BECEFFFEFE41B24
:102BE000F50B8E179F070CF4A8C0909302018093F9
:102BF00001018091DA0381508E3F68F480910301D6
:102C0000909104018C31910534F4820F931F9093BD
:102C10000401809303018091D80381508E3F68F4B2
:102C200080910301909104018D30910534F0821B55
:102C3000930B90930401809303012AE031E04091CB
:102C4000030168E084E194E00E94FC051092B80161
:102C50001092B7018CE0C82EE090B701F090B80157
:102C6000F3E0EF16F1040CF0E7CE26E02E9DF00124
:102C70002F9DF00D1124EB55FE4FC081D181848131
:102C800095818130910509F4A6C00CF059C0892BBB
:102C900009F478C076E07E9DF0017F9DF00D11244F
:102CA000EB55FE4F80819181893F9F4FE4F58091E4
:102CB000B9019091BA0101969093BA018093B9013C
:102CC00064E570E0718360830E94CC172091B701A6
:102CD0003091B801E6E0E29FE001E39FD00D1124BE
:102CE000CB55DE4FA20191010E942418C69E90018F
:102CF000C79E300D1124225F3F4F3B832A830E94E1
:102D0000CC172091B7013091B801F6E0F29FE001B5
:102D1000F39FD00D1124CB55DE4FA50194010E94E5
:102D200024187D836C838091B7019091B80101963E
:102D30009093B8018093B7018FCF82E090E055CF98
:102D40008230910509F462C0039709F0A3CF728025
:102D500063808091050190910601C81BD90BD18336
:102D6000C0832AED30E0472D6C2F84E194E00E946F
:102D7000FC05009103011091040128E030E04AEDC8
:102D800050E01AC072806380809105019091060125
:102D9000C81BD90BD183C08328EF30E0472D6C2F9F
:102DA00084E194E00E94FC0500910301109104016C
:102DB00028E030E048EF50E0672D762DCE010E94EC
:102DC0006C02882309F466CF61E070E07093BC0167
:102DD0006093BB015FCF7280638080910501909109
:102DE0000601C81BD90BD183C0832EEE30E0472DDE
:102DF0006C2F84E194E00E94FC0500910301109186
:102E0000040128E030E04EEE50E0D6CF72806380BF
:102E10008091050190910601C81BD90BD183C08315
:102E200024EE30E0472D6C2F84E194E00E94FC05F5
:102E3000009103011091040128E030E044EE50E0DD
:102E4000BBCFE6ECF1E068EF71E0119261507040A9
:102E5000E1F710921D0410921E0463E271E084E118
:102E600094E00E94890AC090B901D090BA010D2C5B
:102E7000000CEE08FF082AE0B701A601F7FE0DC01E
:102E80006DE284E194E00E94450344275527BA018E
:102E90004C195D096E097F092AE084E194E00E94E3
:102EA000DD0A69E171E084E194E00E94890A63E34C
:102EB00071E084E194E00E94890A8091DD03813011
:102EC00009F0BACD62E071E08BEE93E00E94B905A3
:102ED000B1CD109217041092160481E191E0909305
:102EE000150480931404209101013091020185E1C1
:102EF00090E0821B930B90934401809343010895CB
:102F00008F929F92AF92BF92CF92DF92EF92FF92F9
:102F1000CF93DF93EC01688179818A819B81611570
:102F200071058105910521F464E279ED8BE597E067
:102F30002DE133EF41E050E00E94241849015A018D
:102F40009B01AC01A7EAB1E40E9443186B017C012C
:102F5000ACEEB4EFA50194010E945118C60ED71E25
:102F6000E81EF91EF7FE06C081E0C81AD108E10884
:102F700080E8F80AC882D982EA82FB82C701B601DA
:102F80009F77DF91CF91FF90EF90DF90CF90BF9030
:102F9000AF909F908F9008958F929F92AF92BF9223
:102FA000CF92DF92EF92FF926091090170910A0136
:102FB00080910B0190910C016115710581059105BE
:102FC00021F464E279ED8BE597E02DE133EF41E008
:102FD00050E00E94241849015A019B01AC01A7EA64
:102FE000B1E40E9443186B017C01ACEEB4EFA50183
:102FF00094010E945118C60ED71EE81EF91EF7FE56
:1030000006C081E0C81AD108E10880E8F80AC09239
:103010000901D0920A01E0920B01F0920C01C70164
:10302000B6019F77FF90EF90DF90CF90BF90AF9069
:103030009F908F9008956093090170930A01809387
:103040000B0190930C010895052E97FB1EF400943C
:103050000E943B1857FD07D00E94561807FC03D06A
:103060004EF40C943B1850954095309521953F4F68
:103070004F4F5F4F089590958095709561957F4F64
:103080008F4F9F4F08950E947818A59F900DB49F71
:10309000900DA49F800D911D11240895B7FF0C94ED
:1030A00043180E944318821B930B0895A1E21A2E25
:1030B000AA1BBB1BFD010DC0AA1FBB1FEE1FFF1FDC
:1030C000A217B307E407F50720F0A21BB30BE40B2C
:1030D000F50B661F771F881F991F1A9469F7609573
:1030E0007095809590959B01AC01BD01CF0108952D
:1030F000A29FB001B39FC001A39F700D811D112439
:10310000911DB29F700D811D1124911D08950E9483
:10311000FB1888F09F5798F0B92F9927B751B0F056
:10312000E1F0660F771F881F991F1AF0BA95C9F74B
:1031300014C0B13091F00E941519B1E008950C94BB
:103140001519672F782F8827B85F39F0B93FCCF36E
:10315000869577956795B395D9F73EF490958095C8
:10316000709561957F4F8F4F9F4F0895E89409C0E8
:1031700097FB3EF490958095709561957F4F8F4FAA
:103180009F4F9923A9F0F92F96E9BB279395F695C0
:10319000879577956795B795F111F8CFFAF4BB0F3E
:1031A00011F460FF1BC06F5F7F4F8F4F9F4F16C0A2
:1031B000882311F096E911C0772321F09EE8872F2C
:1031C000762F05C0662371F096E8862F70E060E0E8
:1031D0002AF09A95660F771F881FDAF7880F969561
:1031E000879597F9089557FD9058440F551F59F04A
:1031F0005F3F71F04795880F97FB991F61F09F3FE4
:1032000079F087950895121613061406551FF2CF0C
:103210004695F1DF08C0161617061806991FF1CF5C
:1032200086957105610508940895E894BB27662783
:103230007727CB0197F908950E942F190C94A019B4
:103240000E94921938F00E94991920F0952311F0EC
:103250000C9489190C948F1911240C9416190E943E
:10326000F31870F3959FC1F3950F50E0551F629FBF
:10327000F001729FBB27F00DB11D639FAA27F00DCF
:10328000B11DAA1F649F6627B00DA11D661F829FF6
:103290002227B00DA11D621F739FB00DA11D621FDB
:1032A000839FA00D611D221F749F3327A00D611DF8
:1032B000231F849F600D211D822F762F6A2F1124DA
:1032C0009F5750409AF0F1F088234AF0EE0FFF1F0D
:1032D000BB1F661F771F881F91505040A9F79E3F64
:1032E000510580F00C9489190C9416195F3FE4F392
:1032F000983ED4F3869577956795B795F795E795BA
:103300009F5FC1F7FE2B880F911D9695879597F9C2
:10331000089597F99F6780E870E060E008959FEF57
:1033200080EC089500240A9416161706180609065C
:10333000089500240A94121613061406050608952B
:10334000092E0394000C11F4882352F0BB0F40F4B3
:10335000BF2B11F460FF04C06F5F7F4F8F4F9F4FF3
:103360000895DB018F939F930E944318BF91AF9103
:10337000A29F800D911DA39F900DB29F900D1124CF
:103380000895991B79E004C0991F961708F0961BC1
:10339000881F7A95C9F78095089597FB072E16F434
:1033A000009407D077FD09D00E94E11907FC05D0F1
:1033B0003EF4909581959F4F0895709561957F4F4C
:1033C0000895AA1BBB1B51E107C0AA1FBB1FA6176C
:1033D000B70710F0A61BB70B881F991F5A95A9F7BE
:1033E00080959095BC01CD010895EE0FFF1F0590CB
:0A33F000F491E02D0994F894FFCF4A
:1033FA000104001C0002000100010000000000009E
:10340A000034094C03860A850A0D0A004C4F4144D0
:10341A00455200596F75722073636F726520697324
:0C342A003A2000507265737320430000CC
:00000001FF
