:100000000C946A090C9492090C9492090C9492092C
:100010000C9492090C9492090C9492090C949209F4
:100020000C9492090C9492090C9492090C946127F7
:100030000C9492090C9492090C9492090C949209D4
:100040000C9417270C9492090C9492090C94920921
:100050000C9492090C9492090C9492090C949209B4
:100060000C9492090C94920905A84CCDB2D44EB9C7
:100070003836A9020C50B9918688083CA6AAAA2A4B
:10008000BE000000803F0101FF030101F7034D6145
:10009000696E204D656E7500486967682073636FEF
:1000A000726573004D6170003130206D696E207093
:1000B0006C61790035206D696E20706C6179003358
:1000C000206D696E20706C617900436F6E74696E8B
:1000D000756500177361766500166261636B0015C4
:1000E00074797065000A0A0A153A6F6B61792016F7
:1000F0003A6564697400596F7520656E7465726540
:10010000640A004E6577207265636F726473210024
:100110001010000038007DFE7D027D0239FE7F0256
:100120004002400240027FFE0200253C523C20007B
:100130000000101000200050382047FE5502448275
:1001400038F2210A12660A9606967666750A04F255
:1001500007FE0000101000007FFE60065FFA500AE4
:10016000520A504A500A500A562A560A500A5FFA52
:1001700060067FFE0000101000007FFE6B5657AA3D
:100180007FFE6B5657AA7FFE6B5657AA7FFE400232
:10019000400240027FFE00001010000010006D00C1
:1001A0005408AA1454086C2010000010006C045469
:1001B00010AA2854106C001000001010000050000D
:1001C000202850100028000000000140008001405D
:1001D0000000001428081014280000001010FFFF71
:1001E000FFFFFFFDF7FAEBFFFFDFFFAFFFFFFFFFB2
:1001F000FBFFF5FFFFDFFFAFDFFFAFFFFFFF1300E8
:10020000761F033844404A000020203E002F5E56EF
:1002100074002A235D39050E3E715D0662236E2C43
:10022000036F31773C032F5E7F7F040E741E7B03C8
:100230001809FFFFA0C00060CDB5E0960C60964C99
:1002400040960C60CDB5E0C00060FFFFA008083804
:10025000B9927C101028440303070507050405051F
:1002600004050306030207020201020203020E094B
:100270000E0E0D0E0E0F0E070507050307050F05E1
:100280000705070607010205020007020207000230
:10029000070200020702000706030607070202051D
:1002A000050201020204020005020205000607051C
:1002B000050705020302020602000000000B00030E
:1002C00000030705070407010502050707040003EB
:1002D00000000705050700050005020702000C00E5
:1002E00002020200040004020107050705070401D9
:1002F00007040507020302070407010706060101B8
:1003000007070707030307000500000D00020500AB
:100310000505050005020107030F0903060306078B
:10032000070202050507070207070507030107057E
:10033000060702070507050404030702050704046E
:100340000703070701060705070703030705030758
:100350000306040701010701070407030403070656
:100360000705020501060101070400070501020453
:10037000050700020102080808000300060306073B
:100380000702020505070502070705070301070520
:10039000060702070507050404030702050704040E
:1003A00007030707010607050707030307050307F8
:1003B00003060407010107010704070304030706F6
:1003C00007050205010601010704020705000700F1
:1003D000050702060203070507424553542053430D
:1003E0004F524500FFFFFFFFFFFFFFFFFFFFFFFF33
:1003F000FFFFFFFF80001FFF80007FFFE00000077E
:10040000E0FFFFFF80000000000000000000000788
:10041000EE0000FF8CFFC0001FFE0000077BDDE642
:100420000F007EFF98FF8FE7803E7FF3E77BDDE6DE
:100430006F7F7EFF91FF1FE780307FF3E70001E6CB
:10044000E07F7EFFB3FE3FE7FF307FF3E77BDDE633
:100450007FFF7EFFB3FC7FE7FF337FF3E77BDDE0C9
:100460003FFF7CFF93F8E007FF337FF3E77BDDE797
:1004700080C101FF83F1C7E7C0337FF3E70001E7E5
:10048000BEDD7FFFF3E38FE7DF336023E7FFFFE7A6
:10049000BED97FFFF3E71FE7DF336F83E70000601C
:1004A0003ED97F0FF3E63FE7DF336F87E700006752
:1004B000FEDF7E07F3E40003DF336FBFE73F9E6795
:1004C000FECE7C07E0E0DBD81F336FBFE73F1E6046
:1004D0003EECF807E0E1DBDBC0000000003E3E67D9
:1004E0008001F047E4E7D99BFF03F800007C7E67BA
:1004F000BFFFE0C7E0E7D99BFFCFF9FFFFF8FE6041
:100500003FFFC1C7E0E7DDBBFFCE01FFC001FE67D3
:10051000FFFF83C7F3E7DDBBFC00F9FFC003FE6705
:10052000FFFF07C7F3E7C003F80FF9FFCFFFFE0790
:10053000FFFE0FC7F3E7FCFFF0FFF8000FFFFE031D
:1005400000001FC7F3E7FCFFF3FFF8000FFFFFD029
:1005500000003FC7F3E7FCFFF3FFF9FFE7FFFFD021
:1005600038007FC7F007FCFFF3FFF9FFF3FFFFDC64
:10057000F8FFFFC7F3E7FCFFF200000000000004F3
:10058000F9FFFFC783E3FCFFF20000000000000456
:10059000F1FFFFC783F3FCFFF27FFFFEFCFCFFE4EB
:1005A000E3FFFFC79FF1FCFFF27FF000FCFCFFE4DC
:1005B000C7FFFFC79FF8FCFFF27FF7FF8CFCE064EA
:1005C0000FFFFFC79FFC7CFFF27FF7FFAC000064CA
:1005D0001FFFFFC79FFE000002000701A400066482
:1005E000FFFFFFC78000000000000001B7EFFE64BE
:1005F000F801FFC7800007FF307F7039B000026448
:10060000F0007FC7DFF7C7FF36417F399FBFFA048D
:10061000E3FC7FC7C0078FFF365D00381C3F8A04AC
:10062000C7FE7FC7DF9F1FFF365D003801002260D5
:10063000CFFE7FC7D0BE3FFF365D3F3FFBEFBE60C2
:10064000CFFE7FC7D6BC7FFF32513E00FA2FBE647B
:100650000C067FC7D638FFFF30113E7EF8AFBE6470
:100660000D507FC7D7F1FFFF3A513E7EFDAF80644A
:10067000CD567F87C7E3FFFF3A5F3E70018F8064EE
:10068000C5563F07D7E3FFFF3A5F3E70000033E4F3
:10069000E5571E07D7E3FFFF0A403E73FFFFF3E471
:1006A000E003840FC7E3FFFF02403E03FFE00004C6
:1006B000E0FBC03FEFE3FFFF3E7FBE03FFE000042F
:1006C000F0FBE03FC1E3FFFF3E7FBFF007E7EEFC3A
:1006D000FC387C1FDDE3FFFF3E7FBFFFF7E7EE0046
:1006E000FE0F3E1FC1E3FFFF3E603FFFF7E70EFC3A
:1006F000FF879F1FFFE3FFFF3E6FFFFFF3E77E0CC7
:10070000FFE1DF1FC3C3FFFF206FE000FBE700AC8A
:1007100001F1DF0FDB87FFFF046FEFFEFBE77FA038
:1007200001F98307C38FFFFF8E6FEFE003E77FBD03
:10073000F8F9BB83FB8FFFFF9E60000FCFE4001D25
:10074000FC7983C3FB87FFFF9E7FEFFF8FE5F7D91F
:10075000FC783BE3C3C3FFFF9E7FEFFF9FE5F7DB22
:10076000FE7983E3DFE3FFFF1E7FEFFF3FE5F7DB6B
:10077000FE79BBE3DFE3FFFF027FEFFF3FE4F01B07
:10078000FE7983C3DFE3FFFF3A0000000006F7FBBA
:10079000FE79BB83C1E3FFFF3A0000000006F7F9D2
:1007A000FE798307D8E3FFFF3BF3FFFFEFFE03FD76
:1007B000FE79DE0FDC63FFFF3801FE00EFC6F004B8
:1007C0000079DE1FDE630000000000000000FFE093
:1007D0000079DE3F8F6200001FFC00FF0010FFFF6A
:1007E000FE781E3F87627FE78FFFFFFF3F79FFFFA5
:1007F000FE79FE3FA362FFE7C7FFC0FF3C79FFFF22
:10080000FE79FE3FBB62FFE7E3FF9EFF30F9FFFF8B
:10081000FE79FE3FBB62FFE1F0003EFF37F9FFFFCC
:10082000FE79FE3FA362FFE0FFFF9E000000007F15
:10083000FE79FE3FA762FFE43FFFC0000000007F9B
:10084000FE79FE3F8F62FFC70FFFFCFF37F9DE7FA7
:10085000FE79FE3F8F62FFCF83FFFCFF3079DE7FA2
:10086000FE700E3FDE627FCFE07FFCFF3F79DE7FD0
:10087000FC000E3FDC6203CFF83FFCFF00000000ED
:100880000007CE3FD8E3F3CFFF1FFCFF00000000BE
:10089000009FCE1FD1E3F000000000003F79FE7FF3
:1008A000FF9FCE1FC3E3C000000000003F79027F1E
:1008B000FF9FCF0FC7E383D79EBCFCFF3C78007F30
:1008C000FF9FCF8FCFC207D79EBCFCFF38F87807B9
:1008D000FF9FCF8FCF0027D79EBCFCFF3BF9FE03C5
:1008E000FF9F878FCE00E7D79EBCFC003BF9FE71CF
:1008F000FF9F0387CC43E7D79EBC00000000007831
:10090000FF1E31C7C8E3E7D79EBCFF5F0000007C35
:100910007F007807C1E3E7D79EBCFF5F9F7BB73EB0
:100920003F007807C3E3E7D79EBCFF5F9F7BB79F7D
:100930001F3E31C7C7E3E7D79EBCFF5F9F7BB78FE2
:100940009F3F03C7CFE3E7D79EBCFF5F9E7BB7C344
:100950009E3F87C7CFE3E7D79EBCFF5F9EFBB7F301
:100960009C1FCFC7CFE3E000000000001EFBB7F8DC
:1009700001DFCFC7CFE3E00000000000000000016E
:10098000FFDFCFC7C063E6DB1B6DB6DB1FFFFF9F3A
:10099000FF000007CC63E7FF0000000381FFFF9F1B
:1009A000FE00000FCC63E7FF3FFFFFFFC07FFF8724
:1009B000FC00001FCFE3C3FE3FFFFFFFF83FFFC374
:1009C000F83FFFFFCFE381FC7FFFFFFFFE3FFFF11A
:1009D000F07FFFFFCFE318F8FFFFFFFFFF1FFFF8D7
:1009E000F0F80001CFE03C00FFFFFFFFFF9FFFFC9E
:1009F00001E1FF9DC0603C01FFFFFFFE1F9FFFFE66
:100A000001EFFFDDCC6318E3FFFFFFFE0F9F03FF45
:100A1000F1EF801DCC6381E7FFFFFFFECF9E03FF58
:100A2000E1EF9FFDCFE3C3C3FFFFFFFE8F9E33FFC8
:100A3000C1E03FF9CFE3E70000000FFE800033FF85
:100A400083EF8001CFE3E600000007FE9F8003FFF5
:100A500007EFBCFBC7E3E400000007FE1F9F07FE93
:100A600007EFBCFBE3E3E03CFFFF83FFFF9FFFFCDE
:100A700007E03C1BF1E3E07C7FFFC1FFFF9FFFF835
:100A800007FDFC0BF9E1E0FE3FE1E0FFFF9FFFF017
:100A900061FDF8CBF9E001FF1FEDF07FFF9FFFE064
:100AA000F0FDE0C3F9F003FF83EDF81FFF9FFFC1E6
:100AB000F83D87C7F9F807FFC0EDFC03FF9FFE0371
:100AC000CE0D0FCFF9FC0FFFF8001E007F9FFC0733
:100AD000C7843F8FF9FFFF80FE6FDF000000000F2B
:100AE000D3E0BF1FF9FFFF3EFE6FDFE00000003FD5
:100AF00083E3BE3FF9FFFC7EFE6000FC000001FEC8
:100B000007E7BC7FF9FFF9FEFE7FFEFFFF9FFFF8BE
:100B100063E73CFFF9FC03C0000002FFFF9FFFE119
:100B2000F3E73CFFF9FDFF80000F7AFFFF9FF80716
:100B3000FBE77CFFF87DFF9EFFCF7801FF9FFBFF67
:100B4000F1E7787FF31DFF9EFFCF03FDFF9FF1FFCD
:100B5000E0C6787FF7C07F9EFFCFDFFC0000040077
:100B600004067B7FE7FF001EFFC000006800000452
:100B7000040EFB7FEFFF001E7F000000002FB1F18D
:100B8000E0BEFB7FEFFE7BFF7F7E1FFC3F2F9FFBC6
:100B9000F1BEFB7FE7FEF9FF007F87FC002FD0034B
:100BA000FBBE037FF07CFCFFFBFFC1FF7FE0D001B9
:100BB000FBBEFF7FFF01FE0003FFF000000003F813
:100BC0000000FF7FFFFFFFFFFFFFFC00000E07F8A4
:100BD0000000007FFFFFFFFFFFFFFFFFFFFFFFFFA2
:100BE000FFFFFFFF050038016801000045006801B4
:100BF00000008A00860000000000240027002A0070
:100C000000000000250028002B00050089300802A4
:100C1000380249786814000005077F4141417F3E52
:100C20005B4F5B3E3E6B4F6B3E183C783C18183C6C
:100C30007E3C181C577D571C1C5E7F5E1C007E434B
:100C4000437E007E73737E007E7F7F7E7F414141C5
:100C50007F30483A060E06297929067F4141417FB7
:100C600060703F02042A1C361C2A7F3E1C080000CC
:100C7000081C3E7F14227F22143C3C3C7EFF18421D
:100C80003C817E3E6375633E3E616B633E3E636BBB
:100C90006B3E04027F020410207F201008082A1CEB
:100CA00008081C2A0808143E5541226375697563BB
:100CB00010181C1810040C1C0C040000000000008C
:100CC000005F00000007000700147F147F14042A4F
:100CD0007F2A102313086462364956205000080703
:100CE0000300001C2241000041221C002A1C3E1C63
:100CF0002A08083E080800E0600000080808080804
:100D0000006060000060100804033E5149453E0049
:100D1000427F400062514949462141494D331814F0
:100D2000127F1027454545393C4A49493041211138
:100D300009073649494936064949291E0000240059
:100D400000008064000008142241001414141414DC
:100D5000004122140802015909063E415D594E7CAA
:100D60001211127C7F494949363E414141227F415F
:100D700041221C7F494949417F090909013E4141FE
:100D800051327F0808087F00417F41002041413FE8
:100D9000017F081422417F404040407F020C027FC7
:100DA0007F0204087F3E4141413E7F090909063E1A
:100DB000416141BE7F09192946264949493201014D
:100DC0007F01013F4040403F1F2040201F3F4038EF
:100DD000403F6314081463030478040361514945D8
:100DE00043007F41410003040810600041417F003F
:100DF0000402010204808080808000030708002034
:100E0000545478407F284444383844444428384473
:100E100044287F3854545418087E09090218A4A4A1
:100E20009C787F0804047800447D40000060808442
:100E30007D7F1010284400417F40007C04780478B6
:100E40007C080404783844444438FC1824241818D6
:100E5000242418FC7C080404080854545420043F3B
:100E60004444203C4040207C1C2040201C3C40202E
:100E7000403C44281028444C9090907C4464544C4E
:100E800044000836410000007F00000041360800A1
:100E9000180408100C7F4141417F050068013801AA
:100EA0000000CA00BF00B400A800A40098008E0093
:100EB0004024000000000000000000000000C0000E
:100EC000000000000000C000000000000000000062
:100ED00000007FC3060CFF07810206070308C01845
:100EE000610206058118C0103102060481B0C030CD
:100EF0001102060C80E0C02011020608C0E0C020EC
:100F00001102061840E0FE201102061FE1B0C020C9
:100F1000110206106110C030110206302318C010F3
:100F200031020620360CC018618606601C04C0071A
:100F300080781C0000000000000007F000000000A6
:100F400000001DD8F000000000000378D40000006D
:100F50000000074076000000000000FE4180000015
:100F6000000000B270C00000000001BA7A60000604
:100F7000500003FF4FFF000720000E01F800C006DD
:100F80002000188204004000000030038401C000EB
:100F90000000208205FF000000006FFE06F6000042
:100FA0000000CFFE07FA0E8EEECEF333FD980888D0
:100FB000E8A4033001980EEEAEA403F001F800009F
:100FC000000001E000F00000000000000000000050
:100FD0000000001753440016137800161314001570
:100FE00010200015201000540A03E181867F3E186E
:100FF0006D830F0F0E0183866033186DC3198F1830
:1010000003C38E6033186DE330CF1803C39E603680
:1010100030CDE360CF3006C79E7E3E30CDB360CF8B
:10102000300CC6F6603330D9B660CF33CFCCF66023
:1010300061B0DB1E60CF30D86CE6C061B0DB1E61F2
:101040008F19986CC6C063B19B0E330F0FB078C672
:10105000FF7E1F1B061E0F0A0A153A49676E6F7244
:1010600065006D560A0A504C45415345205455526F
:101070004E204F464620004C4F5720424154544585
:10108000525921200003053F213F1208120A100A7D
:101090000E1C0E0C1E0C141A14161F161E131E1EE8
:1010A0001B1E1E1F1E3F213F3A2F3A173D173F219F
:1010B0003F181F02040A041F0E04040E1F0A1F0A11
:1010C0000E0E1F04110E2E252E2F2A2E2629290240
:1010D0001F02081F08150E04040E150E15151B150A
:1010E0001B040604040C04000000001700030003A6
:1010F0001F0A1F16371A1904130A153A00030000B5
:101100000E11110E000A040A040E0400300004043B
:10111000040010001804031F111F121F101D1517C3
:1011200011151F07041F17151D1F151D01011F1F76
:10113000151F17151F000A00003200040A110A0AC1
:101140000A110A040115020E11171E051E1F150AA9
:101150000E110A1F110E1F15111F05010E111D1F63
:10116000041F111F1108100F1F041B1F10101F0652
:101170001F1E040F0E110E1F09060E112E1F051A39
:10118000121509011F011F101F0F180F1F0C1F1B25
:10119000041B031C03191513001F11030418111F4E
:1011A000000201022020200001020C121E1F120C5E
:1011B0000C12120C121F0C1A14041E05242A1E1FD6
:1011C000021C141D1020201D1F0814111F101E04C6
:1011D0001E1E021C0C120C3E0A040C123E1E0402BF
:1011E00014160A020F120E101E0E100E1E081E12EA
:1011F0000C1226281E322A26041E21001F00211E42
:10120000040102013F213FF6E8DBCFC3B8AEA49B47
:10121000928A827B746E68625C57524E4945413EA9
:101220003A3734312E2C2927252321172B1520104E
:10123000204C4F4144455200172B16201314000A2E
:101240004E6F2053442063617264206F720A6E6F88
:10125000204C4F414445522E4845580A0A153A45FC
:10126000786974001D20466C617368696E670A2096
:10127000206C6F616465722E2E2E0A0A444F4E2731
:1012800054205455524E204F464621000000000085
:1012900023002600290004040404040404040202B8
:1012A00002020202030303030303010204081020E5
:1012B00040800102040810200102040810200000F0
:1012C0000008000201000003040700000000000005
:1012D00000008C2C11241FBECFEFD8E0DEBFCDBFA5
:1012E00011E0A0E0B1E0E4E1F7E602C005900D9264
:1012F000AA34B107D9F724E0AAE4B1E001C01D92F5
:10130000AC36B207E1F719E0CAE6D9E004C021978C
:10131000FE010E94B532C936D107C9F70E94A22743
:101320000C9488330C94000090E0880F991FE09192
:101330001504F0911604E80FF91F259134913093AC
:10134000260420932504F9018591949190910A0433
:10135000989F802D112480932704F9016591749141
:10136000472F50E08417150629F020F0F901259148
:101370003491832F989F802D112480932804089501
:10138000DC01ED91FC910190F081E02D0994EF9248
:10139000FF920F931F93CF93DF938C017B01D0E0DB
:1013A000C0E0F701EC0FFD1F6491662361F0D801E6
:1013B000ED91FC910190F081E02DC8010995892BF8
:1013C00011F02196EECFCE01DF91CF911F910F91B9
:1013D000FF90EF900895AF92BF92CF92DF92EF927D
:1013E000FF920F931F93CF93DF936C017B018B01CF
:1013F000040F151FEB015E01AE18BF08C017D1071F
:1014000059F06991D601ED91FC910190F081E02DA8
:10141000C6010995892B79F7C501DF91CF911F91FD
:101420000F91FF90EF90DF90CF90BF90AF90089515
:10143000FC0144815581608171818FE294E00C94BC
:10144000EB09833081F028F4813099F08230A9F0E3
:1014500008958730A9F08830C9F08430B1F48091C4
:1014600080008F7D03C0809180008F778093800003
:10147000089584B58F7784BD089584B58F7DFBCFA3
:101480008091B0008F778093B00008958091B00074
:101490008F7DF9CF1F93CF93DF93282F30E0F90191
:1014A000E254FD4E8491F901E655FD4ED491F901C7
:1014B000EA56FD4EC491CC23A9F0162F81110E944B
:1014C000210AEC2FF0E0EE0FFF1FE050F44FA59142
:1014D000B4918FB7F894EC91111108C0D095DE2328
:1014E000DC938FBFDF91CF911F910895DE2BF8CF52
:1014F000CF93C82FF89460E080913E040E944A0A7E
:1015000080913F0418161CF460E00E944A0ACEBD88
:1015100000000DB407FEFDCF8EB580913F04181674
:101520001CF461E00E944A0A7894CF9108950F93C9
:101530001F93CF9380913B048F5F80933B0401EE18
:1015400011E0C0E08C2F80640E94780A80E80E943D
:10155000780A61E080913E040E944A0A80913F042B
:1015600018161CF460E00E944A0AF80184E5919183
:101570009EBD00000DB407FEFDCF9EB58150B9F7AA
:1015800080913F0418161CF461E00E944A0ACF5F64
:101590000C5A1F4FC630B1F680E4CF911F910F91C6
:1015A0000C94780ACF93DF9390E0FC01E655FD4E52
:1015B00024918A569D4EFC0184918823C9F090E0C5
:1015C000880F991FFC01EA50F44FA591B491FC01DA
:1015D000E050F44FC591D49161110DC09FB7F894BC
:1015E0008C91209582238C938881282328839FBF08
:1015F000DF91CF910895623051F49FB7F8943C91F8
:10160000822F809583238C93E8812E2BEFCF8FB789
:10161000F894EC912E2B2C938FBFEACFFF920F936F
:101620001F93CF93DF93C1EED3E0FF24FA9462E0DF
:101630008A850E94D20A2A8530E0F901E254FD4EE3
:101640008491F901E655FD4E0491F901EA56FD4EEB
:1016500014911123E1F081110E94210AE12FF0E0A1
:10166000EE0FFF1FE457FD4EA591B491EC918989CF
:101670000E2369F0811113C0219683E0C83ED8077C
:10168000B1F6DF91CF911F910F91FF900895898955
:101690008F5F898B60E08A850E94D20AEDCF8F3FF1
:1016A00011F4198AF7CFF98AF5CF1F93CF93DF93FF
:1016B000182FEB0161E00E94D20A209739F460E014
:1016C000812FDF91CF911F910C944A0ACF3FD10512
:1016D00011F461E0F5CFE12FF0E0E254FD4EE4912A
:1016E000E33031F140F4E130B1F0E230E1F0C03804
:1016F000D1057CF7E4CFE73029F1E83059F1E43047
:10170000B1F780918000806280938000D0938B003D
:10171000C0938A0004C084B5806884BDC7BDDF91D2
:10172000CF911F91089584B5806284BDC8BDF7CF65
:1017300080918000806880938000D0938900C0935E
:101740008800EDCF8091B00080688093B000C09396
:10175000B300E5CF8091B00080628093B000C09369
:10176000B400DDCF8E50806480937C0080917A003D
:10177000806480937A0080917A0086FDFCCF80910E
:101780007800909179000895809105048F7149F552
:1017900084E10E94B20BBC01990F880B990B0E9447
:1017A000A82E26EE3FE34EEC50E40E94072F0E9445
:1017B00060319B017093FC036093FB03672BB9F0CE
:1017C00084E08093FA03EDEFF3E080E041915191E2
:1017D0002417350718F48093FA0308958F5F843037
:1017E000A9F7809105048F5F8093050408958FEF1A
:1017F0008093FA03F6CF3FB7F89480916F019091F0
:101800007001A0917101B091720126B5A89B05C02D
:101810002F3F19F00196A11DB11D3FBFBA2FA92F6F
:10182000982F8827BC01CD01620F711D811D911D6C
:1018300042E0660F771F881F991F4A95D1F70895D8
:101840008F929F92AF92BF92CF92DF92EF92FF92D0
:101850004B015C010E94FB0B6B017C010E94FB0BA6
:101860006C197D098E099F09683E734081059105B9
:10187000A8F321E0821A9108A108B10888EEC80EE9
:1018800083E0D81EE11CF11C81149104A104B10471
:1018900029F7FF90EF90DF90CF90BF90AF909F908F
:1018A0008F900895FC01178A158A14A213A2108E36
:1018B0001092D8011092D9011092DC011092B4005C
:1018C00008950F931F93CF93DF93EC018B010E9438
:1018D000520C1E870D871B8A1A8A81E0898389E052
:1018E0008E8B198E1B8E1D8EDF91CF911F910F91C4
:1018F0000895E0910F048E2F90E0880F991FE091DA
:101900000D04F0910E04E80FF91F859194918F3F1B
:10191000980719F4109206040895909312049927D9
:10192000880F991FE0911004F0911104E80FF91F3E
:101930006591749186E094E00E94610C80910F049F
:101940008F5F80930F0408956CEE7BE00C94610C24
:1019500064EE7BE00C94610CDC01FB0184918F5FF1
:1019600014968C9314973196E491EF5F1596EC934F
:1019700015976E5F7F4F5F967C936E935E97089589
:101980002F923F925F926F927F928F929F92AF922F
:10199000BF92CF92DF92EF92FF920F931F93CF935C
:1019A000DF93EC01F901E4903196849164350CF0F9
:1019B00015C10E2C000CFF08062F062E000C110B73
:1019C000F701E00FF11F1E161F060CF007C1403390
:1019D0000CF004C1A82FC42E042E000CDD08560103
:1019E000A80EB11C87FDBA941A141B040CF0F6C0A3
:1019F0002E5F3F4F570197E0A90EB11CB7FE04C000
:101A00005701BEE0AB0EB11CB3E0B594A794BA95F4
:101A1000E1F747FF0AC0A42FA80FAC9CC001AD9C02
:101A2000900D1124281B390B40E08A2F0A2E000C40
:101A3000990B840F911D47FD9A95C19714F0A0E36F
:101A4000A41BF8A067FD60E0E535F10514F0E4E5BE
:101A5000F0E09E2FCC85C427C62E062E000CDD0894
:101A6000F601E01BF10B8F014F01F7E08F22992463
:101A7000E0E8F0E002C0F595E7958A94E2F77E2F62
:101A800017FF02C0095F1F4FF3E015950795FA9500
:101A9000E1F7200F311F542F577081E001C0880FEC
:101AA0005A95EAF7459545954595F601B4E54B02FB
:101AB000E00DF11D1124AF014F515E4FD0E02A2EF1
:101AC000AA0F3308EE24E394BB24D21513040CF0C0
:101AD00085C0F9015490F1E0FF121AC0962E8A01D8
:101AE000E72F6901991608F057C08E2E852021F046
:101AF000D8018C90882A8C92E69531F4BFEFCB1AEE
:101B0000DB0AF6015490E0E893940F5F1F4FEACF91
:101B1000F1101CC0782E7094962E8A01E72F69016F
:101B2000991608F039C08E2E852021F0D8018C90AE
:101B300087208C92E69531F4BFEFCB1ADB0AF601D1
:101B40005490E0E893940F5F1F4FEACFF3E0FF1249
:101B50002CC0782E7094862E8A01972E69018916E2
:101B6000D0F4E92DE52141F0D801EC916C2E6824E8
:101B700060FE0FC0E82BEC93969439F4BFEFCB1ABC
:101B8000DB0AF6015490E0E89E2E83940F5F1F4F0E
:101B9000E6CFE721F0CFCE25880F19F44C5A5F4FDE
:101BA00081E0DF5F2A0D3B1D90CF962E8A01E72F43
:101BB0006901991688F78E2E852021F0D8018C9026
:101BC00088268C92E69531F4BFEFCB1ADB0AF6013A
:101BD0005490E0E893940F5F1F4FEBCFDF91CF91CC
:101BE0001F910F91FF90EF90DF90CF90BF90AF903B
:101BF0009F908F907F906F905F903F902F9008956F
:101C000020E1629FB0011124E82FE695E695E69564
:101C1000E60FF72FF11DEC51FC4FE491F0E090E05E
:101C200080959095877099279F0102C035952795DB
:101C30008A95E2F7C901817008951092F903EBEBE0
:101C4000F1E024E0208F40E050E060EA71E440835E
:101C500051836283738344835583668377831086BD
:101C60001186128613861486158616861786108AA4
:101C7000118A128A138A148A158A168A178A2FEFF4
:101C80003FEF309301012093000110924A0110921E
:101C90004B0110924C0110924D0110925401109280
:101CA0005501109256011092570110925001109256
:101CB0005101109252011092530110926A01109238
:101CC000690110924F0110924E0110926C01109216
:101CD0006B011092580120EB34E0AC01429FC0012F
:101CE000439F900D529F900D11249093B6018093C5
:101CF000B5010895DC01643570F5403360F59096C8
:101D00008C919097E62F062E000CFF0B242F259523
:101D10002595259594E52902E00DF11D1124EF513B
:101D2000FE4F2081342F37708230B1F4822F90E043
:101D3000032E02C0959587950A94E2F780958170ED
:101D4000811114C081E090E001C0880F3A95EAF754
:101D50008095822380830895833091F71C968C911F
:101D600081706427609561708613ECCF81E090E00C
:101D700001C0880F3A95EAF7822BECCFBF92CF9241
:101D8000DF92EF92FF920F931F93CF93DF93082F71
:101D9000162FC42F81E0F82EF41AE42EE194EE0CF5
:101DA000460F602F8FE294E00E947A0E412F4C1B69
:101DB000602F8FE294E00E947A0E6C2F600F412F0B
:101DC0008FE294E00E947A0E602F6C1B412F8FE20D
:101DD00094E00E947A0ED0E0F7FC04C0C150E39476
:101DE000E394FE0CDF5F8D2F880F8F5FF80EB02E0F
:101DF000BD0ED12EDC0E4D2D6B2D8FE294E00E9496
:101E00007A0EC02ECD1A4D2D6C2D8FE294E00E94DB
:101E10007A0ED12EDC1A4D2D6B2D8FE294E00E94AC
:101E20007A0E4D2D6C2D8FE294E00E947A0ED12E09
:101E3000DD0E4D2DC02ECC0E6C2D8FE294E00E9455
:101E40007A0E4D2DD02EDC1A6D2D8FE294E00E947B
:101E50007A0EB12EBD1A4B2D6C2D8FE294E00E94AC
:101E60007A0E4B2D6D2D8FE294E00E947A0EDC17D6
:101E70000CF4B2CFDF91CF911F910F91FF90EF90B3
:101E8000DF90CF90BF9008958F929F92AF92BF92B4
:101E9000CF92DF92EF92FF920F931F93CF93DF9336
:101EA0008C01F62EE42EC0E0D3E08AEFB82E9EEF30
:101EB000C92E822F8470A82E822F8270982E822F96
:101EC0008870882E2170D22ECF5F8C2F880F8F5F65
:101ED000C80EAA2071F04E2D4D0F6F2D6C0FC8014A
:101EE0000E947A0E4E2D4C0F6D2F6F0DC8010E946F
:101EF0007A0E992071F04E2D4D1B6F2D6C0FC8017D
:101F00000E947A0E4E2D4C1B6D2F6F0DC8010E9442
:101F10007A0E882071F04E2D4C0F6F2D6D1BC8016D
:101F20000E947A0E4E2D4D0F6F2D6C1BC8010E9422
:101F30007A0EDD2071F04E2D4C1B6F2D6D1BC801EC
:101F40000E947A0E4E2D4D1B6F2D6C1BC8010E94F6
:101F50007A0ECD173CF4C7FCB7CFD150B394B394ED
:101F6000CB0CB2CFDF91CF911F910F91FF90EF90EB
:101F7000DF90CF90BF90AF909F908F900895EF9299
:101F8000FF920F931F93CF93DF938C01F62ED42FE4
:101F9000E22EC0E0CE1544F46F2D6C0F4D2FC8011A
:101FA0000E947A0ECF5FF6CFDF91CF911F910F91F4
:101FB000FF90EF9008952F923F924F925F926F9211
:101FC0007F928F929F92AF92BF92CF92DF92EF92C9
:101FD000FF920F931F93CF93DF9300D000D0CDB724
:101FE000DEB79C838B8364350CF0C2C040330CF0A9
:101FF000BFC0DC011496EC911497E150FF0B0E9FCB
:10200000C0010F9F900D1124860F911D67FD9A95B9
:10201000181619060CF0ACC015963C911597842F34
:10202000042E000C990B039F800D911D112418168E
:1020300019060CF09DC0142F6A83FD01F0A1F983ED
:10204000562E412CE22EF12CA02E002E000CBB08A7
:10205000E42D042C000CFF0BAB81BC8114968C91F9
:10206000149790E0E817F9070CF07DC00197E81786
:10207000F90799F1E89E6001E99ED00CF89ED00C1A
:102080001124CE0EDF1E5E96ED91FC91EC0DFD1D30
:10209000E491712E612C3A80340CAB81BC81159691
:1020A0002C911597862D062C000C990B28171906D4
:1020B00009F00CF455C0CE2ED12CE0FF26C0013023
:1020C00071F4462D410F632DCD010E947A0EF60169
:1020D000F595E7956394700EE0CFE0E0DACF272C1A
:1020E0004501870C911C77FC9A94822D022C000CE0
:1020F000990B881599055CF7202F422D652D8B8152
:102100009C810E94BF0F2394F0CFEB81FC8181A1C1
:1021100090A18917E1F280A3013061F4462D410FAF
:10212000632DCF010E947A0EE981AB81BC8190962C
:10213000EC93CDCF272C4501870C911C77FC9A940A
:10214000822D022C000C990B881599056CF7202F15
:10215000422D652D8B819C810E94BF0F2394F0CF6F
:102160004394500E75CFE981AB81BC819096EC937E
:102170000F900F900F900F90DF91CF911F910F91C3
:10218000FF90EF90DF90CF90BF90AF909F908F9097
:102190007F906F905F904F903F902F9008950F9396
:1021A000CF93DF93EC016A3049F428859D818A85BD
:1021B000299F800D11248A8719861EC06D30E1F099
:1021C000262F08854A8569850E94DB0F28853C817A
:1021D0008985239F800D112489879F81992361F030
:1021E000082E000C990B44E550E0239F401951093B
:1021F000112448175907D4F281E090E0DF91CF9184
:102200000F910895EF92FF920F931F93CF93DF9357
:102210008C01D62FF42EE22EC0E0CE1544F44F2DC3
:102220004C0F6D2FC8010E947A0ECF5FF6CFDF9161
:10223000CF911F910F91FF90EF900895BF92CF9291
:10224000DF92EF92FF920F931F93CF93DF93EC01F6
:10225000B62EF42E122F8AEFD82ED20E93E0C92E6E
:10226000C60E2D2D6C2DCE010E94BF0FEF2CE00E5F
:102270004FEF4E0D2D2D6C2DCE010E94BF0F2AEF7A
:10228000D22ED00E03E00F0D2D2D402F6B2DCE0141
:102290000E9402111B0D6FEF610F2D2D402FCE01FB
:1022A0000E94021121E0402F6C2DCE010E94440FAC
:1022B000145022E0402F612FCE010E94440F0CEFFA
:1022C0000E0D24E0402F612FCE010E94440F28E024
:1022D000402F6C2DCE01DF91CF911F910F91FF9078
:1022E000EF90DF90CF90BF900C94440F7F928F922D
:1022F0009F92AF92BF92CF92DF92EF92FF920F9395
:102300001F93CF93DF935C01C62E942EC22F11E052
:10231000121BD22ED194DD0C83E0F82ED0E0802F5A
:102320008170782E882483948E0C027017FD04C06F
:10233000C150D394D3941D0DDF5F1F0D772099F00A
:102340002C2F220F280D492D4C1B6C2D6D0FC50114
:102350000E9402112E2D2F0D492D4D1B6C2F6C0D3F
:10236000C5010E940211002399F02C2F220F280D85
:10237000492D4C1B6C2D6D1BC5010E9402112E2D89
:102380002F0D492D4D1B6C2D6C1BC5010E94021198
:10239000F394F394DC1754F2DF91CF911F910F91D6
:1023A000FF90EF90DF90CF90BF90AF909F908F9075
:1023B0007F9008959F92AF92BF92CF92DF92EF925B
:1023C000FF920F931F93CF93DF936C01D62FC42FEF
:1023D000A22E8AEF982E920E93E0B92EB60E142FED
:1023E000E02E002E000CFF08E40EF11C47FDFA94CD
:1023F000812F012E000C990B8E159F0544F4292D79
:10240000412F6B2DC6010E94BF0F1F5FF1CF19EF47
:10241000100FCD5F6CEF6D0F6A0DE12E01E023E030
:102420004C2FC6010E94761102E023E04C2F6B2D49
:10243000C6010E947611DF91CF911F910F91FF90FD
:10244000EF90DF90CF90BF90AF909F900895089548
:1024500090E080E00895FB0101900020E9F73197BA
:10246000AF01461B570BDC01ED91FC910280F3811B
:10247000E02D09948F929F92AF92BF92EF92FF92BC
:102480000F931F93CF93DF93CDB7DEB7A1970FB60E
:10249000F894DEBF0FBECDBF7C01FA01CB0119A2BB
:1024A000223008F42AE08E010F5D1F4F822E912CFE
:1024B000B12CA12CBF01A50194010E944430F90167
:1024C000CA016A300CF5605DD8016E938D01232B33
:1024D000242B252B79F790E080E0109721F0BD01A7
:1024E000C7010E942B12A1960FB6F894DEBF0FBE53
:1024F000CDBFDF91CF911F910F91FF90EF90BF90D3
:10250000AF909F908F900895695CDECFCF93DF935B
:10251000BC018FE294E00E942B12EC0169E171E0B2
:102520008FE294E00E942B128C0F9D1FDF91CF91C0
:1025300008950F931F93CF93DF93EC010E94C70977
:102540008C0169E171E0CE010E942B12800F911F76
:10255000DF91CF911F910F910895E1EEF1E088EFA7
:1025600091E0DF019C011D9221503040E1F7109273
:1025700038041092390464E672E18FE294E00E941C
:10258000C7090E94970A8CB583608CBD8DB58E7F7C
:102590008DBD8CE191E0EEEFFFE3099510923504DB
:1025A0006FE372E18FE294E00E9499120E94970A11
:1025B0000E940E0B8091F603813039F062E370E0E7
:1025C00080E090E00E94200CF3CF08954F925F923C
:1025D0006F927F928F929F92AF92BF92CF92DF9233
:1025E000EF92FF920F931F93CF93DF9300D000D011
:1025F000CDB7DEB7409161045091620460916304ED
:10260000709164042FB7F8948091DD019091DE0100
:10261000A091DF01B091E0012FBF481B590B6A0B5D
:102620007B0B8091600490E0B0E0A0E0C0905C047F
:10263000D0905D04E0905E04F0905F0484179507ED
:10264000A607B70708F0CDC0C114D104E104F10416
:1026500009F4C7C02FB7F8948091DD019091DE0195
:10266000A091DF01B091E0012FBF20916004820FA3
:10267000911DA11DB11D8093610490936204A093EC
:102680006304B09364048091520490915304A09128
:102690005404B09155040196A11DB11D80935204BC
:1026A00090935304A0935404B093550410925C0487
:1026B00010925D0410925E0410925F040E94FB0B66
:1026C000609358047093590480935A0490935B0468
:1026D0008091E2039091E3032FE0289FA001299FBE
:1026E000500D11245A83498385E10E94B20BA981C0
:1026F000BA818A0F9B1FB4E096958795BA95E1F74A
:102700009093E3038093E2032091E103222309F4F1
:1027100048C06091E503262F30E050E040E0298377
:102720003A834B835C83C090E603D12CF12CE12CDF
:102730004091E9035091EA034A01B12CA12C209168
:10274000E7033091E8032901712C612C821793076C
:1027500028F09C014817590708F49A0150E040E01E
:10276000241935094609570969817A818B819C8131
:102770006C197D098E099F090E947132A50194018F
:1027800024193509460957090E94DB2FC20ED31EB2
:10279000E41EF51EC092E4036C2D70E085E00E94FB
:1027A000550B0E940E0B8091FD039091FE03892B27
:1027B00011F00E94C40B81E00F900F900F900F90CA
:1027C000DF91CF911F910F91FF90EF90DF90CF900D
:1027D000BF90AF909F908F907F906F905F904F9041
:1027E0000895CD28CE28CF2809F027C18091F8037D
:1027F00081508E3F18F58091F7038130F9F4809174
:102800000B048F5F60910C0487FD09C0082E000C3B
:10281000990B70E06F5F7F4F0E94A132682F609329
:102820000B0488E392E1909366048093650488E446
:102830008093670486E094E00E94A40C8091F803E2
:1028400081508E3F70F48091F603813009F0D4C23C
:102850008BE292E1909366048093650488E4809310
:10286000670480910604882331F080910704811168
:1028700002C00E94790C80910704882309F43EC0AD
:1028800080911B0481113AC080911304909114042B
:10289000E0911804F0911904EE0FFF1FE80FF91FE3
:1028A000259134912115310509F41EC1A9015695D0
:1028B000479556954795842F20FDC1C08F7380930F
:1028C0001A0480910A04839F802D112480931B0495
:1028D00010922B0410922A041092290481E0809314
:1028E0001D048093DC0110921E04809118049091C5
:1028F00019040196909319048093180480911D0483
:10290000882341F080911B0481110AC186E094E084
:102910000E94520C80916704882309F444C08C30D3
:1029200008F0E8C13CE0381B398311E0109337040C
:1029300010924F04109250048091340403E0080F69
:102940004DE2481B5981450F24E560E08FE294E099
:102950000E94DA1110934F041093500480913404B4
:1029600003E0080F4DE2481B8981480F24E560E031
:102970008FE294E00E941E1184E0809338048091DD
:1029800034049981981B915D90933904609165049A
:10299000709166048FE294E00E94C70980916704F9
:1029A0008150809367048091FD039091FE03892BF1
:1029B000E1F0A1E0A0934F041092500490913304F1
:1029C00085E5891B80933804109239046091FA03DD
:1029D000613009F4F5C108F48FC18091F9036530C5
:1029E00008F005C26B5F8111FDC10E94970A8091BA
:1029F000350481110EC0E1EEF1E088EF91E0DF01D6
:102A00009C011D9221503040E1F710923804109241
:102A100039040E94FB0B60935C0470935D04809307
:102A20005E0490935F042091580430915904621B16
:102A3000730B709357046093560480E0BDCEC901B8
:102A4000E6E096958795EA95E1F78F71932F969535
:102A50009695969590514F70423099F1D0F4442359
:102A600009F43CC04130B9F1E0911804F091190427
:102A70003196F0931904E0931804CF01880F991F41
:102A8000E0911304F0911404E80FF91F259134919B
:102A90000DCF433061F0443039F720910A04289F6C
:102AA000802D11248093230490932404DDCF209162
:102AB0000A04289F802D11248093210490932204DE
:102AC000D3CF20910A04289F802D112480931F04C6
:102AD00090932004C9CF0E949409C6CF8B3008F090
:102AE0008AE080931C04C0CF20911704211112C0EA
:102AF0001092070480910604811105C086E094E0DD
:102B00000E94520CFBCE0E94790C80911804909187
:102B10001904B4CF1092190410921804FC01B6CF16
:102B2000815080931B0480912B04811142C020911D
:102B3000290430912A042F5F3F4FC901880F991F44
:102B4000E0912504F0912604E80FF91F85919491F6
:102B5000482F477040932C04492F46954695409343
:102B60002D04AC0164E0569547956A95E1F74F73E3
:102B700090910A04499F402D112440932B0483FB1C
:102B8000882780F98093DB0130932A04209329045D
:102B90008091270490E02817390758F020912804E5
:102BA000222309F49FC0821B910990932A048093E9
:102BB000290480912B04815080932B0480911E0462
:102BC00031E0380F30931E0440911A0420912D04F7
:102BD000240F80911204280F20930804609121048F
:102BE000662371F070E0832F032E000C990B0E9476
:102BF000A13280912204869F200D11242093080485
:102C00008091080490E0849664E270E00E94A13212
:102C10008093080420911C042093090460911F04F0
:102C2000662381F0062E000C770B832F032E000CF9
:102C3000990B0E94A13280912004869F200D1124BF
:102C400020930904609123046623A1F0832F330F9E
:102C5000990B70E00E94A132CB0162E070E00E940B
:102C6000A1322091240490910904289F900D1124F1
:102C7000909309044F3309F43AC0809109048A30D3
:102C80000CF089E087FD80E080930904F894E091DE
:102C90000804F0E0E95FFD4EE491E093DA01209151
:102CA0002E043091090432039001112440912C0428
:102CB0004203C001439F900D112420910B0402C0D8
:102CC000880F991F2A95E2F797FF02C081589F4FFE
:102CD000880F892F881F990B8093D9018093D80181
:102CE000789418CE86E094E00E94520C62CF109245
:102CF0000904CCCF198219CE86E094E00E94520CD0
:102D000010920704B1E0B093370465E870E18FE2F8
:102D100094E00E94AC0C1092FE031092FD031092FE
:102D2000350428EA29830E94E6128823E1F367E745
:102D300070E18FE294E00E94C7094091FB0350913B
:102D4000FC0370E060E02AE08FE294E00E943A1217
:102D500062E670E18FE294E00E94C70949814295E2
:102D60004F7050E070E060E02AE08FE294E00E9453
:102D70003A1267E570E18FE294E00E94C709809102
:102D8000F603813009F431CE398131503983311164
:102D9000CACF70E060E085E00E94550B83B7817F69
:102DA000846083BF83B7816083BF83B7816083BF43
:102DB000889583B78E7F83BF83B78E7F83BFB3CF62
:102DC0008091520490915304A0915404B091550401
:102DD0008F709927AA27BB2767E00897A105B1053F
:102DE00008F068E78FE294E00E94C009FECD8823D6
:102DF00009F4FBCD6FE2F6CF893209F032CD0E94A3
:102E0000AD122FCDCF92DF92EF92FF920F931F93CF
:102E1000CF93DF9381E080933704109236041092B1
:102E200035041092F90380934F0480935004C2ED4F
:102E3000DFE01CE00E94E6128823E1F3FE0104912A
:102E400001110091340427EE3FE040E060E08FE2A2
:102E500094E00E94C00C4CE0400F20EB3EE060E0AC
:102E60008FE294E00E94C00C109238041093390451
:102E700062ED7FE08FE294E00E94C7098091330405
:102E8000982F990F990F891B8D5A80933804809140
:102E90003404982F990F990F891B835D809339040F
:102EA0008091520463EE7FE084FD02C06FED7FE00D
:102EB0008FE294E00E94991280913304982F990F29
:102EC000990F891B8D5A80933804809139048F5F44
:102ED0008093390480910B046BED7FE0811102C077
:102EE00067ED7FE08FE294E00E94991280913304B5
:102EF000982F990F990F891B8D5A809338048091D0
:102F000039048F5F8093390463ED7FE08FE294E0B2
:102F10000E9499128091F7038130B1F480910B04E3
:102F20008F5F60910C0487FD09C0082E000C990B7F
:102F300070E06F5F7F4F0E94A132682F60930B0497
:102F400086E094E00E94A40C8091F6038130E9F0C1
:102F500080915104482F50E070E060E0C09052042E
:102F6000D0905304E0905404F0905504C416D50654
:102F7000E606F70610F08F3F41F48091F8038130A8
:102F800009F058CF0E94AD1255CF8FEF80935104B6
:102F900086E094E00E94520C1092070486E094E0D0
:102FA0000E94A80C81E08093F903DF91CF911F91DB
:102FB0000F91FF90EF90DF90CF9008958F929F92A6
:102FC000AF92BF92CF92DF92EF92FF92C090FB033D
:102FD000D090FC03C094D094F12CE12C0E94FB0B08
:102FE0004B015C010E94FB0BA501940120953095DB
:102FF0004095509560957095809590950E9471329E
:103000009B01AC01C701B6010E9471324B015C010A
:10301000C090E203D090E303F12CE12C0E94FB0B63
:103020006C0D7D1D8E1D9F1D680D791D8A1D9B1DBC
:10303000611571058105910551F0FF90EF90DF90CA
:10304000CF90BF90AF909F908F900C94572EFF9091
:10305000EF90DF90CF90BF90AF909F908F900895AA
:103060000F931F93CF93DF93EC0188819981009791
:1030700059F02A813B812617370730F081E0DF9134
:10308000CF911F910F9108958B016F5F7F4F0E9429
:10309000BB32009759F0998388831B830A832C8164
:1030A0003D81232B59F7FC011082E8CF80E0E7CF68
:1030B000EF92FF920F931F93CF93DF9361157105EA
:1030C00041F480E0DF91CF911F910F91FF90EF903D
:1030D000089541155105B1F07B01EC010C811D8172
:1030E000040F151FB8010E943018882351F328815E
:1030F00039818C819D81B701820F931F0E9481339A
:103100001D830C8381E0DECFCF93DF93EC018881B8
:103110009981009711F00E94332D198218821D8227
:103120001C821B821A82DF91CF910895EF92FF9249
:103130000F931F93CF93DF93EC017B018A01BA01B8
:103140000E94301881110BC0CE010E948418CE015C
:10315000DF91CF911F910F91FF90EF9008951D8304
:103160000C83B701888199810E948133F0CFEF925F
:10317000FF920F931F93CF93DF93CDB7DEB7A29744
:103180000FB6F894DEBF0FBECDBF8C01CB01BA01E4
:10319000F8011182108213821282158214822AE0B1
:1031A000AE014F5F5F4F7A010E94602EF7010190E0
:1031B0000020E9F73197AF014E195F09B701C80147
:1031C0000E949618A2960FB6F894DEBF0FBECDBF30
:1031D000DF91CF911F910F91FF90EF900895FB0128
:1031E00001900020E9F73197AF01461B570B0C9473
:1031F0009618CF93DF93EC01FB018617970749F0F0
:10320000608171816115710541F0448155810E9491
:103210009618CE01DF91CF9108950E948418F9CFBE
:10322000FC0180819181009711F00C94332D089559
:103230000F931F93CF93DF93CDB7DEB72C970FB6C5
:10324000F894DEBF0FBECDBF042F21E020933704DA
:10325000AB01BC01CE0107960E94B71810E08B8528
:103260009C858017910730F51A8219821C821B8277
:103270001E821D8263E271E0CE0101960E94EF186A
:103280004B855C856F817885CE0101960E94581828
:10329000811104C0CE0101960E948418BE016F5FA7
:1032A0007F4FCE0107960E94F918CE0101960E9429
:1032B0001019D5CFCE0107960E94180ACE010796A5
:1032C0000E9410192C960FB6F894DEBF0FBECDBF2A
:1032D000DF91CF911F910F910895EF92FF920F937D
:1032E0001F93CF93DF93CDB7DEB72C970FB6F8942B
:1032F000DEBF0FBECDBFE42EF22E21E020933704B7
:10330000AB01BC01CE0107960E94B71810E08B8577
:103310009C858017910730F51A8219821C821B82C6
:103320001E821D8263E271E0CE0101960E94EF18B9
:103330004B855C856F817885CE0101960E94581877
:10334000811104C0CE0101960E948418BE016F5FF6
:103350007F4FCE0107960E94F918CE0101960E9478
:103360001019D5CFE0923804F0923904CE010796B7
:103370000E94180ACE0107960E9410192C960FB6CB
:10338000F894DEBF0FBECDBFDF91CF911F910F919B
:10339000FF90EF9008954F925F926F927F928F927D
:1033A0009F92AF92BF92CF92DF92EF92FF920F93D4
:1033B0001F93CF9392E0492E512C612C712C25E163
:1033C000822E912C0E94E6128823E1F30E94082E9F
:1033D000A30192010E94DB2F675F609338040E9473
:1033E000082EA30192010E94DB2F6093390469ED3E
:1033F00073E08FE294E00E949912109236041092CA
:103400003804809134048093390484E7A82E81E045
:10341000B82E0EE711E0C0E0F501819191915F01B6
:10342000892B09F060C06DE28FE294E00E94C00930
:10343000809133049401281B3109C901880F880F3A
:1034400080933804CF5F809134048C9F802D1124A9
:1034500080933904F5013297C080D1800D2C000C87
:10346000EE08FF082AE0B701A601F7FE0DC06DE2E5
:103470008FE294E00E94C00944275527BA014C19F5
:103480005D096E097F092AE08FE294E00E943A12FA
:1034900069E171E08FE294E00E942B12055F1F4FFB
:1034A000C53009F0B9CF8091F603813049F08091A1
:1034B000F703813029F08091F803813009F082CF41
:1034C00086E094E0CF911F910F91FF90EF90DF90F5
:1034D000CF90BF90AF909F908F907F906F905F90B4
:1034E0004F900C94A80CB8018FE294E00E942B122C
:1034F0009FCF2F923F924F925F926F927F928F92C7
:103500009F92AF92BF92CF92DF92EF92FF920F9372
:103510001F93CF93DF93CDB7DEB7E6970FB6F8943E
:10352000DEBF0FBECDBF65E870E18FE294E00E9480
:10353000AC0C0E94E6128823E1F38091F8038130FD
:10354000F9F468E17CE08FE294E00E94AC0CE6962E
:103550000FB6F894DEBF0FBECDBFDF91CF911F91A4
:103560000F91FF90EF90DF90CF90BF90AF909F9022
:103570008F907F906F905F904F903F902F90089525
:103580002090B5013090B6012114310409F034C304
:10359000C12CD12C7601E8E2BE2EF2E04F2E512C48
:1035A000612C712CA8E28A2E912C0E94E6128823AD
:1035B000E1F368E17CE08FE294E00E94AC0C85E2EC
:1035C00091E00E94861265E870E18FE294E00E942B
:1035D000AC0C6FE271E08FE294E00E942B126091DC
:1035E000690170916A0190E080E044E00E9418193E
:1035F0008BE191E00E94861268E371E08FE294E033
:103600000E942B1260914A0170914B0180914C01F4
:1036100090914D010E94593146E00E9418198BE1AA
:1036200091E00E9486126EE371E08FE294E00E94C6
:103630002B12C701B6010E94593148E00E941819A7
:1036400000914E0110914F01BB20C1F0BA94C80106
:10365000B4010E948D3290E080E00E94A62E9B0172
:10366000AC01C701B6010E94763005C0B80190E0F8
:1036700080E00E94A62E6B017C0197CF80917C0197
:1036800090917D0180179107C0F40E94082EA3013C
:1036900092010E94DB2F6C5E609338040E94082E1A
:1036A000A30192010E94DB2F625E6093390463E004
:1036B00071E08FE294E00E9499128091F6038130CC
:1036C00041F08091F703813021F08091F80381303F
:1036D00069F686E094E00E94A80CA0904E01B0909C
:1036E0004F0180917C0190917D018A159B0508F026
:1036F0002ECFE0E8F7E7859194918130904C09F462
:1037000056C0109235041092B40130E3C32E44E544
:10371000E42E52E0452E512C10E062E0862E912CD2
:1037200070E3372E0E94E6128823E1F38091F503BF
:103730008F3F41F08370813029F4439486E094E018
:103740000E94A40C8091F3038F3F41F0837081307D
:1037500029F44A9486E094E00E94A40C8091F4033A
:103760008F3F41F08370813029F4539486E094E0D8
:103770000E94A40C8091F2038F3F11F40C94102747
:103780008370813011F00C9410275A9486E094E0F5
:103790000E94A40C4FEF541202C02FE0522E58E0AA
:1037A000451689F047FE10C097E0492E0DC0AAEAE1
:1037B000B1E0EBE8F7E784918D933196E53937E78F
:1037C000F307C9F79ECF412C9091340480913304C4
:1037D0008095859D802D1124895D0E2C000CFF089D
:1037E000E80EF11C87FDFA94F7FE03C06FEFE61AAE
:1037F000F60AF594E794EB8A292F209584E1891B3A
:10380000249D800D11240C2C000CDD08C80ED11C49
:1038100087FDDA94D7FE03C07FEFC71AD70AD59485
:10382000C794CB868091F603813011F51A30C4F429
:10383000842D8295807F850D09F474CF8A3009F438
:1038400071CF8D3009F46ECF212F012E000C330B78
:10385000F901E655FE4F808325553E4FD9011C9254
:103860001F5F86E094E00E94A80C1C3008F01BE06B
:103870008091F703813089F411506AE97EE086E097
:1038800094E00E94610C1F3F09F40DC1E12F012E4D
:10389000000CFF0BE655FE4F10828091F80381303B
:1038A00049F586E094E00E94A80C0E94E612882365
:1038B000E1F366EF70E08FE294E00E9499126AEA09
:1038C00071E08FE294E00E942B1265EE70E08FE2CF
:1038D00094E00E9499128091F603813009F4E5C0CA
:1038E0008091F703813009F76AE97EE086E094E091
:1038F0000E94610C212C612C712C272D220D8091AE
:103900003404462D869D400D1124BB854B0F8091BC
:103910003304672D879D600D1124EB896E0F01E044
:103920008FE294E00E94DB0F7394F0E17F12E5CF09
:103930002F0E639428E06212DFCF80913304982F1A
:10394000990F990F891B880F82508E0D8093380430
:10395000809134048F5F8C0D809339046FED70E09B
:103960008FE294E00E94C70980913304982F990F49
:10397000990F891B880F82508E0D80933804809197
:1039800034048F5F880F8C0D8093390469ED70E0EB
:103990008FE294E00E94C70980913304982F990F19
:1039A000990F891B880F82508E0D80933804809167
:1039B000340491E0980F892F880F890F8C0D809324
:1039C000390463ED70E08FE294E00E94C709109221
:1039D0004F041092500480913404442D849D400D76
:1039E000112442504C0D80913304652D859D600D4E
:1039F000112461506E0D27E08FE294E00E94BF0F0A
:103A000081E080934F0480935004409134043091BE
:103A1000330405E0040F632F6150770BCB01B40131
:103A20000E94A13222E0230F280F742D449D700DB7
:103A30001124472F43504C0D652D359D600D1124E9
:103A400062506E0D8FE294E00E941E11809134044A
:103A50004EE2481B24E560E08FE294E00E94BF0F35
:103A600010924F04109250048091340466246394A1
:103A7000680E0FE2081B062C000C7708600E711C04
:103A800007FD7A94802F002E000C990B8615970560
:103A90000CF05BC024E5402F60E08FE294E00E94D0
:103AA000BF0F0F5FEFCF10E0F8CE86E094E00E94EA
:103AB000A80CB0927D01A0927C01A4E74A2EA1E05F
:103AC0005A2EBAEAEB2EB1E0FB2E1EE7612E11E072
:103AD000712E8201D8011696AD90BC90179718965A
:103AE0008D909C90A814B9040CF466C010E000E01E
:103AF000F12CE12CF301EE0DFF1D6081C8018E0D4C
:103B00009F1D0E94CD2FFFEFEF1AFF0A2AE0E21659
:103B1000F10481F7D2016C91B2E04B0E511CC80147
:103B20000A960E94CD2FF20132976181C8010B964F
:103B30000E94CD2F045F1F4FEBE06E0E711C0C3303
:103B40001105B1F60E94CB1902CD10923804809174
:103B50003404932D981B9093390481E080934F0493
:103B6000809350046AEA71E08FE294E00E942B1285
:103B70008091520490915304A0915404B091550443
:103B800087709927AA27BB270497A105B10508F0DC
:103B9000C9CD1A300CF0C6CD80913404432D481B9A
:103BA00060913304169F602D112401E02FE58FE210
:103BB00094E00E94DB0FB6CD6701BBE0CB1AD108C1
:103BC000B601CE0101960E948133B701C6010E9461
:103BD0008133BE016F5F7F4FC7010E948133F801BF
:103BE00097828682B186A0860250110976016C14F4
:103BF0007D0409F47BCF6ECF8091F40381508E3F1A
:103C0000B0F42CE934EC40E25EE36091CF017091B6
:103C1000D0018091D1019091D2010E9476306093C1
:103C2000CF017093D0018093D1019093D201809104
:103C3000F20381508E3FB0F42CE934EC40E25EE3B5
:103C40006091CF017091D0018091D1019091D2010A
:103C50000E9475306093CF017093D0018093D101A1
:103C60009093D2018091F60381508E3FB0F42AE008
:103C700037ED43EA5CE36091C3017091C401809128
:103C8000C5019091C6010E9476306093C301709384
:103C9000C4018093C5019093C6018091F7038150C0
:103CA0008E3F08F046C08090C7019090C801A09058
:103CB000C901B090CA01C090CB01D090CC01E09076
:103CC000CD01F090CE012DEC3CEC4CE45FE3609133
:103CD000C3017091C4018091C5019091C6010E94F9
:103CE000072F6093C3017093C4018093C501909323
:103CF000C6012DEC3CEC4CE45FE3C501B4010E942D
:103D0000072F6093C7017093C8018093C9019093F6
:103D1000CA012DEC3CEC4CE45FE3C701B6010E9404
:103D2000072F6093CB017093CC018093CD019093CA
:103D3000CE012091BF013091C0014091C10150914D
:103D4000C201298F3A8F4B8F5C8F20E030E040E832
:103D50005DE3698D7A8D8B8D9C8D0E94072F0E946B
:103D60006031162F8090BB019090BC01A090BD01E6
:103D7000B090BE0120E030E040E85DE3C501B40151
:103D80000E94072F0E946031862F612F0E94000E33
:103D9000811146C04090C7015090C8016090C90190
:103DA0007090CA01C090CB01D090CC01E090CD01C1
:103DB000F090CE0123E333E343E75FE36091C30177
:103DC0007091C4018091C5019091C6010E94072F96
:103DD0006093C3017093C4018093C5019093C601A1
:103DE00026E636E646E65FE3C301B2010E94072FEE
:103DF0006093C7017093C8018093C9019093CA0171
:103E000026E636E646E65FE3C701B6010E94072FC5
:103E10006093CB017093CC018093CD019093CE0140
:103E20004090CF015090D0016090D1017090D201AC
:103E3000C301B2010E94E2306F87788B898B9A8B25
:103E40004091C3015091C4016091C5017091C601B8
:103E50004B875C876D877E879A01AB016F85788978
:103E600089899A890E94072F2091C7013091C80142
:103E70004091C9015091CA010E9476306B017C01CA
:103E8000C092C701D092C801E092C901F092CA0164
:103E9000C301B2010E94D3316D8B7E8B8F8B988FC3
:103EA0009B01AC016B857C858D859E850E94072FCB
:103EB0002091CB013091CC014091CD015091CE01A8
:103EC0000E9476302B013C014092CB015092CC01F4
:103ED0006092CD017092CE01A7019601C501B40197
:103EE0000E9476304B015C018092BB019092BC0134
:103EF000A092BD01B092BE0120E030E040E85DE359
:103F00000E94072F0E946031862F612F0E94000EB1
:103F10008130A1F5A7019601C501B4010E94753059
:103F20006093BB017093BC018093BD019093BE016F
:103F300020E030E040E05FEBC701B6010E94072FB0
:103F40006093C7017093C8018093C9019093CA011F
:103F500086E094E00E94A40C20E030E040E05FE3C3
:103F60006B857C858D859E850E94072F6093C3019C
:103F70007093C4018093C5019093C601A30192017F
:103F8000698D7A8D8B8D9C8D0E9476306B017C01C2
:103F9000C092BF01D092C001E092C101F092C20173
:103FA0006091BB017091BC018091BD019091BE01F7
:103FB0006B877C878D879E8720E030E040E85DE35B
:103FC000C701B6010E94072F0E946031162F20E022
:103FD00030E040E85DE36B857C858D859E850E94A1
:103FE000072F0E946031862F612F0E94000E8130C2
:103FF000D1F58090C3019090C401A090C501B0900C
:10400000C601A3019201C701B6010E9475306093F9
:10401000BF017093C0018093C1019093C20120E061
:1040200030E040E05FEBC301B2010E94072F6093D4
:10403000CB017093CC018093CD019093CE0186E0AB
:1040400094E00E94A40C20E030E040E05FE3C50172
:10405000B4010E94072F6093C3017093C401809341
:10406000C5019093C601C090C301D090C401E090F7
:10407000C501F090C60120E030E0A901C701B601FA
:104080000E94A12E812C912CA12CF1E4BF2E87FD42
:1040900003C0812C912C5401A501940160914A0127
:1040A00070914B0180914C0190914D010E947630AE
:1040B00060934A0170934B0180934C0190934D01A2
:1040C000809100019091010197FD14C0A501940118
:1040D0006091500170915101809152019091530172
:1040E0000E94763060935001709351018093520189
:1040F00090935301A70196016D897E898F89988DD0
:104100000E94072F20E030E040E852E40E94072F91
:104110002091BF013091C0014091C1015091C20175
:104120000E94763020E030E040EC51E40E9475308F
:104130000E9459314B01A70196016F8578898989C1
:104140009A890E94072F20E030E040E852E40E9464
:10415000072F2B853C854D855E850E94763020E0BB
:1041600030E048E252E40E9475300E9459312091BB
:10417000D6013091D701A901440F551F240F351FD7
:10418000620F731F77FF02C06D5F7F4F7595679554
:10419000759567957093D7016093D6012091D401EE
:1041A0003091D501C901880F991F820F931F880E86
:1041B000991E97FE03C073E0870E911C9594879417
:1041C000959487949092D5018092D4018091580162
:1041D000882349F080916B0190916C010196909336
:1041E0006C0180936B0181E0281A31083092B6018E
:1041F0002092B501A9E5B1E0BA8FA98F8D01F12C0C
:10420000E12CC0900001D09001016091BB01709140
:10421000BC018091BD019091BE010E9459312B01DA
:104220001B016091BF017091C0018091C10190910B
:10423000C2010E9459314B017C876B87CE14DF0489
:1042400009F470C0F8016081718164197509072E45
:10425000000C880B990B0E94A82E2B013C01D80161
:1042600012966D917C9168197909072E000C880BC4
:10427000990B0E94A82E9B01AC010E94072F4B01B5
:104280005C01A3019201C301B2010E94072F9B01AF
:10429000AC01C501B4010E9476300E94E1310E9458
:1042A0005931673971050CF4E0C10E94082E20E5F0
:1042B00031E040E050E00E94DB2F685A710981092B
:1042C0009109620D731DF801718360830E94082EAD
:1042D00020EC30E040E050E00E94DB2F6056710996
:1042E000810991092B853C85620F731FD8011396B4
:1042F0007C936E93129777FF02C0615F7F4F34E02B
:10430000759567953A95E1F7F8018081918197FD60
:104310000F9624E0959587952A95E1F70E94000E67
:104320008111C3CF3FEFE31AF30A0C5F1F4F44E044
:10433000E416F10409F065CFC090BB01D090BC0138
:10434000E090BD01F090BE016091BF017091C0018D
:104350008091C1019091C2016B877C878D879E8778
:10436000809100019091010197FDDEC06091B7013D
:104370007091B801072E000C880B990B0E94A82E93
:10438000A70196010E9475300E945931072E000C3A
:10439000880B990B0E94A82E2B013C016091B9015A
:1043A0007091BA01072E000C880B990B0E94A82E61
:1043B0002B853C854D855E850E9475300E94593164
:1043C000072E000C880B990B0E94A82E4B015C0154
:1043D000A3019201C301B2010E94072F2B013C01EE
:1043E000A5019401C501B4010E94072F9B01AC01F6
:1043F000C301B2010E9476300E94E13120E030E03A
:1044000040E851E40E94A12E87FF8EC06091C30155
:104410007091C4018091C5019091C6019B01AC01CE
:104420000E94072F0E94E1312DEC3CEC4CEC5DE347
:104430000E94A12E87FF78C08091690190916A0146
:10444000019690936A01809369018FEF9FEF90939B
:10445000010180930001109258018CEE9FEF909320
:10446000B8018093B7019093BA018093B90186E0B7
:1044700094E00E94A80C8090540190905501A09067
:104480005601B090570120E030E048EC52E46091D2
:1044900050017091510180915201909153010E94FD
:1044A000072FA50194010E94E73020E030E048EC9E
:1044B00052E40E9475300E9459316230710514F443
:1044C00062E070E0072E000C880B990B0E94A82E6A
:1044D0009B01AC01C501B4010E94E7304B015C01B6
:1044E00060914E0170914F0190E080E00E94A62EF5
:1044F0009B01AC01C501B4010E9476300E9460317D
:1045000070934F0160934E01109254011092550127
:1045100010925601109257011092500110925101C1
:1045200010925201109253016090D4017090D50105
:10453000A12C71EF67167FEF77065CF0530177FED1
:1045400003C08FE0A80EB11CF4E0B594A794FA95CF
:10455000E1F790ED691697E079060CF056C113016A
:10456000A0E32A0E311C37FE04C01301BFE32B0E5B
:10457000311CE4E035942794EA95E1F7F101319696
:10458000F88BEF878A2C912C2090D6013090D701A0
:104590004F855889841695060CF07DC1B12C51EFDA
:1045A00025165FEF35064CF0C10137FC0F9674E01D
:1045B000959587957A95E1F7B82E50E8452E512CC0
:1045C0006CEA261667E036068CF4210174E5470E86
:1045D000511C57FE03C08FE0480E511C64E05594F7
:1045E00047946A95E1F79FEF491A590AC40144E0DC
:1045F000880F991F4A95E1F7A82FA619AD8B0B2DAF
:1046000010E0041515050CF044C16A2D8B2D0E9495
:10461000000E882309F42BC190E080E0FC01E250F9
:10462000FE4F3491FC01E150FE4F2491FC01E0501B
:10463000FE4F4491FC01EF5FFD4FE49130171106EE
:1046400009F06CF44017110651F04CF028151904CC
:1046500009F02CF4E815190411F00CF0DBC00596F4
:1046600082339105D9F6E2E0D9C0CD20C09409F09B
:1046700059CE603171050CF055CE8090C3019090F9
:10468000C401A090C501B090C60120E030E0A901AE
:10469000C501B4010E94CE3118160CF0AAC02DEC51
:1046A0003CEC4CEC5DE3C501B4010E94A12E87FFF8
:1046B00039CEF0920101E092000110926C0110924B
:1046C0006B0121E02093580186E094E00E94A80C41
:1046D0000E94082E2CE637E040E050E00E94DB2FDD
:1046E0006C597F4F8F4F9F4F7093B8016093B70104
:1046F0000E94082E2CE637E040E050E00E94DB2FBD
:10470000DC01CB018C599F4FAF4FBF4F5C019093A1
:10471000BA018093B901C090B701D090B8019C0153
:1047200097FF02C0215F3F4FB901B4E075956795CF
:10473000BA95E1F7C601D7FC0F96A4E09595879549
:10474000AA95E1F70E94000E8111C2CFB601DD0CDF
:10475000880B990B0E94A82E2091BB013091BC01BF
:104760004091BD015091BE010E9475300E945931A7
:10477000072E000C880B990B0E94A82E2B013C01E0
:10478000B501BB0C880B990B0E94A82E2091BF018C
:104790003091C0014091C1015091C2010E94753019
:1047A0000E945931072E000C880B990B0E94A82EED
:1047B0004B015C01A3019201C301B2010E94072FCA
:1047C0002B013C01A5019401C501B4010E94072FF2
:1047D0009B01AC01C301B2010E9476300E94E1311D
:1047E0006093540170935501809356019093570143
:1047F00099CD2DEC3CEC4CEC5DEBC501B4010E9475
:10480000CE3118160CF455CF8DCD20E830E0388B22
:104810002F87B8CEFC01EE5FFD4FE491B0E1BB9E67
:10482000B001112462197309E730D0F4F0E0E55EBD
:10483000FB4D0C94B5324624222427242C24392401
:104840003E244324EAEBF1E0FC8BEB8B09C028E922
:1048500031E03C8B2B8B04C046E751E05C8B4B8BEB
:104860002B893C894D898FE294E00E94C00CB3945F
:10487000C6CE84E591E09C8B8B8BF2CFA2E3B1E0B6
:10488000BC8BAB8BEDCFE0E1F1E0DECF2CED31E086
:10489000E0CFA39477CEC701B6010E945931AB0196
:1048A000421953095AA349A3CA0140968536910576
:1048B00008F0F2C06B857C858D859E850E945931FC
:1048C000DB01A619B709BCA3ABA3CD014096813487
:1048D000910508F0E1C08090CF019090D001A090A8
:1048E000D101B090D201E0E3F2E0B491BB87E1E303
:1048F000F2E024912F87FB2EB7FDF394F5941F85EA
:1049000017FD1F5F1595C501B4010E94D3316DA33A
:104910007EA38FA398A7C501B4010E94E23069A7C6
:104920007AA78BA79CA74B85242F440F330BC90173
:10493000079697FD0796BC0133E0759567953A9504
:10494000E1F77EA76DA782E090E09E8B8D8B512CC6
:10495000412CAF2DFF0CBB0BBCABABABE12F110F50
:10496000FF0BFEABEDABFF854F160CF095C010E0D2
:1049700000E0C2012DA93EA9821B930BAC01990F47
:10498000660B770B4FA758AB69AB7AAB5B85051706
:104990000CF076C0E02FE695E695E6956D897E8968
:1049A0006E0F711DFB01E05DFD4FE491802F87705C
:1049B000A0E8B0E002C0B595A7958A95E2F7CD01D1
:1049C000F0E0EA23F923EF2B09F457C0B801EBA973
:1049D000FCA96E1B7F0B072E000C880B990B0E9405
:1049E000A82E4B015C016FA578A989A99AA90E94FC
:1049F000A82E6B017C01A50194016DA17EA18FA160
:104A000098A50E94072F6D8F7E8F8F8F98A3A70187
:104A1000960169A57AA58BA59CA50E94072F9B01ED
:104A2000AC016D8D7E8D8F8D98A10E9476300E9495
:104A30005931FBA1F60FFD8FA501940169A57AA557
:104A40008BA59CA50E94072F4B015C01A701960135
:104A50006DA17EA18FA198A50E94072F9B01AC019B
:104A6000C501B4010E9475300E94593129A1620F1D
:104A70004D8D8FE294E00E947A0E0F5F1F4F86CF1C
:104A80003FEF431A530A4D895E896DA57EA5460FF7
:104A9000571F5E8B4D8B67CF10E000E080910001C7
:104AA0009091010108171907E1F0A98DBA8D6D9158
:104AB0007C91119762197309CB0140968536910557
:104AC00080F412964D915C9146195709CA0140969F
:104AD0008134910530F42DE432E08FE294E00E94BD
:104AE000C00C0F5F1F4FE98DFA8D3496FA8FE98F56
:104AF0000430110599F60091B7011091B80102191F
:104B00001309C801409685369105A8F4E090B901D3
:104B1000F090BA01E618F708C70140968134910574
:104B200050F444E06E2D802F0E94BE0E41E06E2DA9
:104B3000802F0E94BE0E10924F041092500429E064
:104B400047E264E08FE294E00E940211E12C03E06E
:104B500024E04BE264E08FE294E00E94761111E0E1
:104B600010934F041093500444E06BE284E00E94E1
:104B7000BE0E10934F041092500467E572E08FE26E
:104B800094E00E94AC0C6091B5017091B60190E088
:104B900080E005E020E040E00E946D1960916B012B
:104BA00070916C0190E080E020E041E40E946D197A
:104BB0006091690170916A0190E080E004E02DE26B
:104BC00045E40E946D19809100019091010197FDCB
:104BD0000FC16091B7017091B801072E000C880BCE
:104BE000990B0E94A82E2091BB013091BC014091ED
:104BF000BD015091BE010E9475300E945931072EAF
:104C0000000C880B990B0E94A82E6B017C0160910F
:104C1000B9017091BA01072E000C880B990B0E9404
:104C2000A82E2091BF013091C0014091C101509147
:104C3000C2010E9475300E945931072E000C880B6A
:104C4000990B0E94A82E4B015C01A7019601C70198
:104C5000B6010E94072F2B013C01A5019401C5015B
:104C6000B4010E94072F9B01AC01C301B2010E9455
:104C700076300E94E1319B01AC0160E070E080E899
:104C800090E40E94E7302B013C01AC019B01C5017F
:104C9000B4010E94072F20E030E04CE252E40E9471
:104CA00076300E945931162FA3019201C701B60137
:104CB0000E94072F20E030E040E850E40E94763068
:104CC0000E945931062FE12E012E000CFF08FBE255
:104CD000EF1AF108F7FE03C0F194E194F108C02E39
:104CE000002E000CDD0824E0C21AD108D7FE03C054
:104CF000D194C194D10884E09BE2992ECE14DF04B4
:104D000034F0812F102F082F8BE224E0922E1915FA
:104D100034F0902F082F892F912F192D992E892C3F
:104D2000811AA82E082E000CBB08A01AB10807FD96
:104D3000B394B7FE03C0B194A194B108B82C87FE18
:104D400003C0BB24B394B80CB594772473940817AC
:104D500014F077247A94911694F0412F602FCE149A
:104D6000DF0414F0402F612F8FE294E00E947A0E4E
:104D7000BA18B7FE02C0070DB80C1F5FECCF81E078
:104D800080934F048093500407E025E140E06BE1FD
:104D90008FE294E00E94DA1182E080934F048093C6
:104DA00050041A8219821C821B821E821D8265E4B5
:104DB00071E0CE0101960E94EF188EE180933804D5
:104DC00082E080933904CE0101960E94180ACE0138
:104DD00001960E94101965E870E18FE294E00E944C
:104DE000AC0C81E080934F04809350040C94991A8A
:104DF00010924F041092500407E025E140E06BE16F
:104E00008FE294E00E94DA1110934F041093500443
:104E100025E140E06BE18FE294E00E941E11C1CFDA
:104E200030E153120C94CF1B512C0C94CF1B1F92CA
:104E30000F920FB60F9211242F933F938F939F934E
:104E4000AF93BF938091DD019091DE01A091DF01CE
:104E5000B091E00130916E0123E0230F2D3758F51A
:104E60000196A11DB11D20936E018093DD019093E9
:104E7000DE01A093DF01B093E00180916F0190917A
:104E80007001A0917101B09172010196A11DB11D37
:104E900080936F0190937001A0937101B0937201A0
:104EA000BF91AF919F918F913F912F910F900FBE26
:104EB0000F901F90189526E8230F0296A11DB11D93
:104EC000D2CF1F920F920FB60F9211242F936F9390
:104ED0007F938F939F936091D901662349F18091CD
:104EE0006D018F5F80936D019091DA01891700F158
:104EF0002091DC0181E028272093DC0110926D01D4
:104F00008091DB01882369F08091020193E4899FFD
:104F1000802D1124895B809302010E94813290933D
:104F2000D8018091D801211101C080E08093B400A4
:104F30009F918F917F916F912F910F900FBE0F9046
:104F40001F901895789484B5826084BD84B5816083
:104F500084BD85B5826085BD85B5816085BD809144
:104F60006E00816080936E001092810080918100BC
:104F700082608093810080918100816080938100B4
:104F8000809180008160809380008091B100846076
:104F90008093B1008091B00081608093B0008091D7
:104FA0007A00846080937A0080917A008260809396
:104FB0007A0080917A00816080937A0080917A00F3
:104FC000806880937A001092C10082E3809360042D
:104FD00081E090E0A0E0B0E080935C0490935D04F9
:104FE000A0935E04B0935F048FEF80935104E0E8D8
:104FF000F7E7259134912130304C09F074C2E6E98D
:10500000F7E7E491E0933A04E7E9F7E7E491E09306
:10501000E503E8E9F7E7E491E093E603E9E9F7E778
:10502000859194919093E8038093E703EBE9F7E788
:10503000859194919093EA038093E90387E08093AC
:105040000C04EEE9F7E7E491E0930B04EFE9F7E7EE
:10505000E491E0935104E0EAF7E78591949190930D
:10506000FE038093FD03E2EAF7E785919491909324
:1050700000048093FF03E4EAF7E78591949190930D
:10508000020480930104E6EAF7E7859194919093F6
:10509000040480930304C1E0C093E1036FEF70E068
:1050A00085E00E94550B88E08093EB0389E08093B4
:1050B000EC0387E08093ED0386E08093EE03D4E079
:1050C000D093EF0382E08093F00381E18093F103BA
:1050D0000E940E0B8CE39FE09093FC038093FB03F4
:1050E000D093FA03C09305048BE080933D048DE0D8
:1050F00080933C0480E180933E048EE080934004E2
:105100008FE080933F04C0933704C0934F04109204
:105110005004C093360465E870E18FE294E00E9489
:10512000AC0CCFB7F89480917301811127C0E0EAED
:10513000F2E18491E4EBF2E19491E82FF0E0EE0FDC
:10514000FF1FEA50F44FA591B491EC91E92321F4AB
:1051500061E08AE00E944A0A61E08AE00E94D20A85
:105160008CB580618CBD8CB580648CBD61E08DE0B8
:105170000E94D20A61E08BE00E94D20A8091730102
:105180008F5F80937301CFBF8CB58F7D8CBD8CB545
:105190008C7F81608CBD8DB581608DBD8CB58C6040
:1051A0008CBD61E080913D040E94D20A61E0809153
:1051B0003C040E94D20A61E080913E040E94D20A1F
:1051C0008091400418161CF461E00E94D20A80917C
:1051D0003F0418161CF461E00E94D20A809140043A
:1051E000181674F460E00E944A0A6AE070E080E0F9
:1051F00090E00E94200C61E0809140040E944A0AE5
:1052000080913C04082E000C990BFC01EA56FD4EDF
:10521000E491F0E0EE0FFF1FE050F44F2591349140
:105220003093440420934304FC01E655FD4EE49181
:10523000E0934A0480913D04082E000C990BFC0178
:10524000EA56FD4EE491F0E0EE0FFF1FE050F44F00
:10525000259134913093420420934104FC01E6559A
:10526000FD4EE491E093490480913F04082E000C28
:10527000990BFC01EA56FD4EE491F0E0EE0FFF1FA2
:10528000E050F44F25913491309346042093450427
:10529000FC01E655FD4EE491E0934B0480913E0401
:1052A000082E000C990BFC01EA56FD4EE491F0E04B
:1052B000EE0FFF1FE050F44F2591349130934804D6
:1052C00020934704FC01E655FD4EE491E0934C0425
:1052D00081E20E94780A84E10E94780A80913A046F
:1052E00087FF03C08FE780933A0480913A04806877
:1052F0000E94780A80E20E94780A8CE00E94780A74
:105300000E94970A81E080930A0484E080932E042F
:1053100082EF9BE0909316048093150480E00E9436
:10532000940961E070E083E00E94550B8091B10028
:10533000887F81608093B100F89410928000109271
:105340008100109285001092840088E191E0909392
:10535000890080938800809181008860809381001B
:105360008091810081608093810080916F008260D4
:1053700080936F0078948091FD039091FE03892BB8
:1053800011F00E94C40B8091F703813009F4D8C05A
:105390008091FA03882309F4D3C06AE07CE086E0B8
:1053A00094E00E94610C68E17CE08FE294E00E944E
:1053B000AC0C74E7E72E71E0F72E0EE711E0CAE0BF
:1053C000D0E0D12CC12C5E01EAE0AE1AB108C501D3
:1053D0008C0D9D1D0E94C52FF801EC0DFD1D8083D5
:1053E000FFEFCF1ADF0A8AE0C816D10481F7CE0199
:1053F0000E94C52FC82ED12CF701D182C082CE01C8
:1054000001960E94C52F90E0982F88278C0D9D1D36
:10541000F701819391937F012C96055F1F4FC6344E
:10542000D10579F68091510481110E9402170E94E2
:10543000DE1784E690E09093B8018093B7019093D3
:10544000BA018093B90150E0852E50E0952E3324A7
:105450003394109235041FEF512CD0E040E3642EBA
:10546000C0E00E94E6128823E1F39091F6039130A8
:1054700051F08091F703813029F08091F803813059
:1054800009F068C080E0D0913404D195F7E0DF9F47
:10549000D02D1124D250882309F455C086E094E021
:1054A0000E94A80C1C2F862D062C000C990B8D1B1E
:1054B0009109D7FD939502970CF0DFC0123009F4E3
:1054C000DFC00CF0D1C0112309F4E4C083E090E008
:1054D000113009F4D7C08091510481110E94021744
:1054E0000E94DE17DDC09CE390933A041092E5031E
:1054F0008093E60380E293E09093E8038093E703D0
:1055000084ED93E09093EA038093E90387E080932E
:105510000C0480930B048CEA9DE09093FE0380932F
:10552000FD038EED9DE0909300048093FF0384E7DC
:105530009EE090930204809301048CE39FE0A7CD4A
:1055400010920B0430CF6AE97EE086E094E00E947E
:10555000610CA9CF5110A7CF8091F5038F3F41F087
:105560008370813029F4CF5F86E094E00E94A40C20
:105570008091F3038F3F09F4CAC18370813009F031
:10558000C6C1C15086E094E00E94A40CCF3F09F44C
:10559000C6E080913404D4E0D80F8C9FD019112438
:1055A0008D2F0D2E000C990B860D911D67FC9A9581
:1055B00097FD019695958795482E682E1092380490
:1055C00080933904309237041092360432EAC32EA5
:1055D0003EE0D32EF12CE12CAC2E0C2E000CBB089F
:1055E000AE14BF0459F483E08093380480913404EE
:1055F000942DC89F900D112490933904F601659164
:1056000074918FE294E00E949912EFEFEE1AFE0A75
:10561000F2E0CF0ED11C87E0E816F10409F71092F2
:105620004F041092500480913404442DC89F400DC3
:105630001124415024E560E08FE294E00E94BF0F06
:1056400030924F04309250048091340403E0080FEC
:10565000442D8C9F400D1124425024E560E08FE2E0
:1056600094E00E941E11FDCE143009F184F0153033
:1056700009F031CF0E94CB1913C05524539490CF19
:1056800085E090E00E941D0E0E94791A09C08AE010
:1056900090E0F8CF8091B5019091B601892BA1F7E8
:1056A0008114910409F4D5CE0E940000D2CEC0909E
:1056B000D601D090D701A090D401B090D50120E0C0
:1056C00030E040E85DE36091BF017091C0018091DE
:1056D000C1019091C2010E94072F0E94593170931D
:1056E000D5016093D40120E030E040E85DE36091B3
:1056F000BB017091BC018091BD019091BE010E94DF
:10570000072F0E9459317093D7016093D60100E0B2
:105710000E94E6128823E1F3C091D401D091D50113
:105720005C2EE12C652C6E0CCE01C135D10514F038
:1057300080E590E08F966816190609F01CF57090C8
:10574000D6014090D701F72C872D942D8D329105ED
:1057500014F08CE290E08D5A9F4FF816190609F06C
:105760007CF4662D8F2D0E94000E882339F04E2D7B
:105770006F2D67198FE294E00E947A0EF394E4CFC4
:10578000E394D0CF802F64E10E9481329A3008F4F4
:1057900067C0E090D601F090D70120E030E040E80B
:1057A0005DE36091BF017091C0018091C101909152
:1057B000C2010E94072F2B013C01BE010D2E000CDF
:1057C000880B990B0E94A82E9B01AC01C301B2016A
:1057D0000E9475300E945931262E20E030E040E8CA
:1057E0005DE36091BB017091BC018091BD0190911E
:1057F000BE010E94072F2B013C01B701FF0C880B53
:10580000990B0E94A82E9B01AC01C301B2010E941A
:1058100075300E945931422D8FE294E00E947A0E39
:105820004091B9015091BA0157FF02C0415F5F4FEB
:1058300094E0559547959A95E1F74C1B6091B70117
:105840007091B80177FF02C0615F7F4F84E075956A
:1058500067958A95E1F76E198FE294E00E947A0EBF
:105860008091F20381508E3F60F48091D601909137
:10587000D701181619062CF401979093D70180933D
:10588000D6018091F40381508E3F60F48091D6015F
:105890009091D7018C3291052CF401969093D70109
:1058A0008093D6018091F30381508E3F40F41C1603
:1058B0001D062CF42197D093D501C093D40180917B
:1058C000F50381508E3F60F48091D4019091D50111
:1058D000803591052CF401969093D5018093D401E5
:1058E0008091F603813051F08091F803813031F0DE
:1058F0008091F703813011F00F5F0ACFB092D5018C
:10590000A092D401D092D701C092D601C9CEC7309F
:1059100009F03FCEC0E03DCE109232041092310427
:1059200081E191E09093300480932F0408950F93C8
:105930001F93CF93DF938230910510F482E090E0C3
:10594000E0916A04F0916B0430E020E0B0E0A0E068
:10595000309799F42115310509F44AC0281B390BF9
:1059600024303105D8F58A819B816115710589F153
:10597000FB0193838283FE0111C04081518102812A
:10598000138148175907E0F04817590799F4109701
:1059900061F012960C93129713961C933296CF01D6
:1059A000DF91CF911F910F91089500936A04109396
:1059B0006B04F4CF2115310551F04217530738F02D
:1059C000A901DB019A01BD01DF01F801C1CFEF019F
:1059D000F9CF90936B0480936A04CDCFFE01E20F60
:1059E000F31F819391932250310939832883D7CFB4
:1059F0002091680430916904232B41F42091050122
:105A000030910601309369042093680420910301CA
:105A1000309104012115310541F42DB73EB7409175
:105A2000070150910801241B350BE0916804F091A7
:105A30006904E217F307A0F42E1B3F0B2817390760
:105A400078F0AC014E5F5F4F2417350748F04E0FDA
:105A50005F1F5093690440936804819391939FCF93
:105A6000F0E0E0E09CCFCF93DF930097E9F0FC01FA
:105A7000329713821282A0916A04B0916B04ED01F7
:105A800030E020E01097A1F420813181820F931F34
:105A900020916804309169042817390709F061C022
:105AA000F0936904E0936804DF91CF910895EA01CF
:105AB000CE17DF07E8F54A815B819E01411551054C
:105AC000B1F7E901FB83EA8349915991C40FD51FCE
:105AD000EC17FD0761F4808191810296840F951F78
