:100000000C945D070C9485070C9485070C94850768
:100010000C9485070C9485070C9485070C94850730
:100020000C9485070C9485070C9485070C94971AFB
:100030000C9485070C9485070C9485070C94850710
:100040000C944D1A0C9485070C9485070C94850725
:100050000C9485070C9485070C9485070C948507F0
:100060000C9485070C94850705A84CCDB2D44EB9E5
:100070003836A9020C50B9918688083CA6AAAA2A4B
:10008000BE000000803F0101FF030101F7030808E3
:1000900066995A003C5A1824080720705088F8A81E
:1000A000500805CC30783048080530D0A858600892
:1000B0000670A8F870D88808062050709070D8088C
:1000C000062050708870D808062050704870D808F4
:1000D000062070708870D8175344001613780016E5
:1000E0001314001510200015201000540A03E1819C
:1000F000867F3E186D830F0F0E0183866033186D67
:10010000C3198F1803C38E6033186DE330CF180303
:10011000C39E603630CDE360CF3006C79E7E3E3052
:10012000CDB360CF300CC6F6603330D9B660CF3374
:10013000CFCCF66061B0DB1E60CF30D86CE6C0611A
:10014000B0DB1E618F19986CC6C063B19B0E330F74
:100150000FB078C6FF7E1F1B061E0F401E0000005A
:1001600000000000000000000000000000FFFFFF92
:10017000FFFFFFC07F0000000000044044000000BB
:10018000000007DFFC01FF00000001111001110059
:10019000000001FFF001FF0000000000000044002B
:1001A000FFFFF00000007F008FFFF0000000110053
:1001B000BFFFF00000001F00FFFFF007C000000FAE
:1001C00000000F044000000900F00F1FC000000BEA
:1001D00001F80F110000000B03FC0F1F0000000BC3
:1001E0000E670F000003800F0D9B0F000003800FB0
:1001F0000E970F000003000F0FFF0F00000000F02C
:100200000F0F00F0000000900E9700F00003F0B018
:100210000F9F00F0000260B00F6F00F0000380BF7E
:100220000E070FF0000380BF0DFB0FF0000380FFEF
:1002300008010FF000F86FFF07FE0FFFFF1C7000B2
:1002400000000000001C7000000000000044657306
:1002500063656E7420696E746F2048656C6C004C29
:100260006576656C20446F776E0048494748205397
:10027000434F524553000500380168010000450016
:10028000680100008A0086000000000024002700AA
:100290002A0000000000250028002B0005008930FE
:1002A0000802380249786814000058300000000045
:1002B000000000000000000000000000000000003E
:1002C000000000000000000000000000000000002E
:1002D000000000000000000000000000000000001E
:1002E000000000000000000000000000000000000E
:1002F00000000000000000000000000000000000FE
:1003000000000000000000000000000000000000ED
:1003100000000000000000000000000000000000DD
:1003200000000000000000000000000000000000CD
:1003300000000000000000000000000000000000BD
:1003400000000000000000000000000000000000AD
:10035000000000000000000000000000000000009D
:100360001FE00000000000000000001FE00000008F
:100370000000000000006018000000000000000005
:1003800000601800000000000000000067980000F6
:10039000000000000000006798000000000000005E
:1003A000000067800000000000000000006780007F
:1003B000000000000000000067F8000000000000DE
:1003C00000000067F8000000000000000000601856
:1003D00000000000000000000060180000000000A5
:1003E000000000001FE00000000000000000001FEF
:1003F000E00000000000000000000000000000001D
:1004000000000000000000000000000000000000EC
:1004100000000000000000000000000000000000DC
:1004200000000000000000000000000000000000CC
:1004300000000000000000000000000000000000BC
:1004400000000000000000000000000000000000AC
:10045000000000000000000000000000000000009C
:10046000000000000000000000000000000000008C
:10047000000000000000000000000000000000007C
:10048000000000000000000000000000000000006C
:10049000000000000000000000000000000000005C
:1004A000000000000000000000000000000000004C
:1004B00000000000000000000000000058300000B4
:1004C000000000000000000000000000000000002C
:1004D000000000000000000000000000000000001C
:1004E000000000000000000000000000000000000C
:1004F00000000000000000000000000000000000FC
:1005000000000000000000000000000000000000EB
:1005100000000000000000000000000000000000DB
:1005200000000000000000000000000000000000CB
:1005300000000000000000000000000000000000BB
:1005400000000000000000000000000000000000AB
:10055000000000000000000000000000000000009B
:10056000000000000000000000000000000000018A
:10057000F800000000000000000001F8000000008A
:10058000000000000006060000000000000000005F
:10059000060600000000000000000006001F86069E
:1005A0001F87F800000006001F86061F87F800005E
:1005B0000006000066066066060000000600006691
:1005C0000660660600000006001FE606606606007C
:1005D000000006001FE606606606000000060660D2
:1005E00061FE60660600000006066061FE60660649
:1005F00000000001F81FE0061F860600000001F859
:100600001FE0061F860600000000000007F800003B
:100610000000000000000007F800000000000000DB
:1006200000000000000000000000000000000000CA
:1006300000000000000000000000000000000000BA
:1006400000000000000000000000000000000000AA
:10065000000000000000000000000000000000009A
:10066000000000000000000000000000000000008A
:10067000000000000000000000000000000000007A
:10068000000000000000000000000000000000006A
:10069000000000000000000000000000000000005A
:1006A000000000000000000000000000000000004A
:1006B000000000000000000000000000000000003A
:1006C0000000000000000000000000000000080220
:1006D000C0C0080C0C7C70C2DCFCFCDCC2707C0C62
:1006E00010071080CF30CF306F6066607FE03FC072
:1006F000080C607C1C86767E7E76861C7C601007EB
:100700003FC07FE066606F60CF30CF301080080A56
:100710001878E4C4C4C4C4E4781810063F00C0C00C
:10072000C0C061807F803F000806A0E0A0A0E0A0DC
:10073000080A60789C8C8C8C8C9C78600803FC4840
:10074000FC10063F007F806180C0C0C0C03F000831
:1007500004D8F8702058308000000000000000002D
:1007600000104000000000000000000020200000F9
:100770000000000000000040100000000000000029
:1007800000008008000000000000000001000400DC
:1007900000000000000000020003FFFFFFFFFFFF5A
:1007A000FFFFFC0002000000000000000004000247
:1007B0000000000000000000040002000000000033
:1007C000000000040002000000000000000004001F
:1007D0000200000000000000000400020000000011
:1007E00000000000040002000000000000000004FF
:1007F00000020000000000000000040002000000F1
:1008000000000000000400020000000000000000E2
:1008100004000200000000000000000400020000CC
:1008200000000000000004000200000000000000C2
:1008300000040002000000000000000004000200AC
:1008400000000000000000040002000000000000A2
:10085000000004000200000000000000000400028C
:100860000000000000000000040002000000000082
:10087000000000040002000000000000000004006E
:100880000200000000000000000400020000000060
:10089000000000000400020000000000000000044E
:1008A0000002000000000000000004000200000040
:1008B0000000000000040002000000000000000032
:1008C000040002000000000000000004000200001C
:1008D0000000000000000400020000000000000012
:1008E00000040002000000000000000004000200FC
:1008F00000000000000000040002000000000000F2
:1009000000000400020000000000000000040002DB
:100910000000000000000000040003FFFFFFFFFFD5
:10092000FFFFFFFC000400000000000000000200C8
:10093000080000000000000000010010000000009E
:100940000000000000802000000000000000000007
:100950004040000000000000000000208000000077
:1009600000000000000010050068013801000017B9
:100970007361766500166261636B0015747970654A
:10098000000A0A0A153A6F6B617920163A656469A4
:100990007400596F7520656E74657265640A000590
:1009A000077F4141417F3E5B4F5B3E3E6B4F6B3E5D
:1009B000183C783C18183C7E3C181C577D571C1C72
:1009C0005E7F5E1C007E43437E007E73737E007EEE
:1009D0007F7F7E7F4141417F30483A060E0629796C
:1009E00029067F4141417F60703F02042A1C361C6A
:1009F0002A7F3E1C080000081C3E7F14227F221420
:100A00003C3C3C7EFF18423C817E3E6375633E3E2B
:100A1000616B633E3E636B6B3E04027F02041020F9
:100A20007F201008082A1C08081C2A0808143E55B4
:100A30004122637569756310181C1810040C1C0C96
:100A400004000000000000005F0000000700070035
:100A5000147F147F14042A7F2A102313086462363B
:100A6000495620500008070300001C2241000041A5
:100A7000221C002A1C3E1C2A08083E080800E060D0
:100A80000000080808080800606000006010080402
:100A9000033E5149453E00427F400062514949466C
:100AA0002141494D331814127F1027454545393CE3
:100AB0004A49493041211109073649494936064911
:100AC00049291E0000240000008064000008142250
:100AD000410014141414140041221408020159098D
:100AE000063E415D594E7C1211127C7F49494936C0
:100AF0003E414141227F4141221C7F494949417F7A
:100B0000090909013E414151327F0808087F00412F
:100B10007F41002041413F017F081422417F404036
:100B200040407F020C027F7F0204087F3E4141412A
:100B30003E7F090909063E416141BE7F09192946E8
:100B4000264949493201017F01013F4040403F1F92
:100B50002040201F3F4038403F63140814630304C3
:100B60007804036151494543007F41410003040873
:100B700010600041417F00040201020480808080F7
:100B800080000307080020545478407F28444438EC
:100B90003844444428384444287F3854545418086E
:100BA0007E09090218A4A49C787F080404780044F4
:100BB0007D4000006080847D7F1010284400417FCC
:100BC00040007C047804787C080404783844444469
:100BD00038FC1824241818242418FC7C0804040861
:100BE0000854545420043F4444203C4040207C1C82
:100BF0002040201C3C4020403C44281028444C907D
:100C000090907C4464544C44000836410000007FBE
:100C100000000041360800180408100C7F414141D3
:100C20007F080440A0E0E0080278A0080700100058
:100C3000381028000807003820302038000A0A152C
:100C40003A49676E6F7265006D560A0A504C45410D
:100C50005345205455524E204F464620004C4F5786
:100C6000204241545445525921200003053F213F61
:100C70001208120A100A0E1C0E0C1E0C141A14165E
:100C80001F161E131E1E1B1E1E1F1E3F213F3A2F26
:100C90003A173D173F213F181F02040A041F0E0494
:100CA000040E1F0A1F0A0E0E1F04110E2E252E2FD2
:100CB0002A2E262929021F02081F08150E04040ED9
:100CC000150E15151B151B040604040C040000006A
:100CD0000017000300031F0A1F16371A1904130A0E
:100CE000153A000300000E11110E000A040A040E4A
:100CF000040030000404040010001804031F111F36
:100D0000121F101D151711151F07041F17151D1F82
:100D1000151D01011F1F151F17151F000A000032A6
:100D200000040A110A0A0A110A040115020E111719
:100D30001E051E1F150A0E110A1F110E1F15111F69
:100D400005010E111D1F041F111F1108100F1F0494
:100D50001B1F10101F061F1E040F0E110E1F090669
:100D60000E112E1F051A121509011F011F101F0F4A
:100D7000180F1F0C1F1B041B031C03191513001F46
:100D800011030418111F000201022020200001029B
:100D90000C121E1F120C0C12120C121F0C1A14042F
:100DA0001E05242A1E1F021C141D1020201D1F08B2
:100DB00014111F101E041E1E021C0C120C3E0A04ED
:100DC0000C123E1E040214160A020F120E101E0E02
:100DD000100E1E081E120C1226281E322A26041E71
:100DE00021001F00211E040102013F213FF6E8DB24
:100DF000CFC3B8AEA49B928A827B746E68625C5744
:100E0000524E4945413E3A3734312E2C292725236D
:100E100021172B152010204C4F4144455200172B11
:100E200016201314000A4E6F20534420636172642D
:100E3000206F720A6E6F204C4F414445522E484538
:100E4000580A0A153A45786974001D20466C61738A
:100E500068696E670A20206C6F616465722E2E2EA1
:100E60000A0A444F4E2754205455524E204F4646AE
:100E700021000000000023002600290004040404CF
:100E80000404040402020202020203030303030334
:100E90000102040810204080010204081020010211
:100EA00004081020000000080002010000030407ED
:100EB0000000000000000000E62D11241FBECFEF4F
:100EC000D8E0DEBFCDBF13E0A0E0B1E0E4E8F3E698
:100ED00002C005900D92AC31B107D9F728E0ACE122
:100EE000B3E001C01D92A635B207E1F717E0CDE5EA
:100EF000D7E004C02197FE010E94B331CC35D10761
:100F0000C9F70E94D81A0C94C0310C94000090E0EC
:100F1000880F991FE0910308F0910408E80FF91F6A
:100F2000259134913093140820931308F901859189
:100F300094919091F807989F802D11248093150823
:100F4000F90165917491472F50E08417150629F037
:100F500020F0F90125913491832F989F802D112441
:100F60008093160808954F925F926F927F928F92AE
:100F70009F92AF92BF92CF92DF92EF92FF920F9328
:100F80001F93CF93DF93FA01A490B12C3196C491B3
:100F9000F701C4903196E4914501880E991E2815F9
:100FA00039050CF0A3C0C20ED32ED11C8C159D05A3
:100FB0000CF09CC0D0E03E01660E771E06151705AA
:100FC0000CF094C0E00FF12FF11D6E177F070CF0AD
:100FD0008DC02901481A590A821793070CF0412C39
:100FE000D801A61BB70B601771070CF0A0E08C149A
:100FF0009D041CF05601A81AB90A6E167F061CF053
:10100000EF01C61BD70B1A2FA0E8B0E0882E821A7A
:10101000962E901A812F90E08C179D070CF066C0D9
:10102000042DC92CC10ED12C202F30E02A153B05F0
:101030000CF05AC0FA01649170E0695F7F4FE3E001
:1010400075956795EA95E1F7689FF001699FF00D46
:10105000789FF00D112463E0359527956A95E1F7A7
:101060002E5F3F4FE20FF31FE40FF51FE491202F97
:101070002770BD0102C0759567952A95E2F7F0E0EB
:10108000E623F723EF2B71F1F701249130E0295F7C
:101090003F4F63E0359527956A95E1F7C29EF001D1
:1010A000C39EF00DD29EF00D1124682D600F262FE7
:1010B00030E073E0359527957A95E1F72E5F3F4F45
:1010C000E20FF31FEE0DFF1DE49167709D0102C05A
:1010D000359527956A95E2F7B901F0E0E223F72309
:1010E000EF2BB1F40F5FA0CF1F5F94CF80E0DF91B3
:1010F000CF911F910F91FF90EF90DF90CF90BF9015
:10110000AF909F908F907F906F905F904F900895D9
:1011100081E0EDCFDC01ED91FC910190F081E02DBB
:101120000994EF92FF920F931F93CF93DF938C015B
:101130007B01D0E0C0E0F701EC0FFD1F6491662356
:1011400061F0D801ED91FC910190F081E02DC80192
:101150000995892B11F02196EECFCE01DF91CF9129
:101160001F910F91FF90EF900895AF92BF92CF9291
:10117000DF92EF92FF920F931F93CF93DF936C0157
:101180007B018B01040F151FEB015E01AE18BF0838
:10119000C017D10759F06991D601ED91FC910190EA
:1011A000F081E02DC6010995892B79F7C501DF9102
:1011B000CF911F910F91FF90EF90DF90CF90BF9054
:1011C000AF900895833081F028F4813099F0823017
:1011D000A9F008958730A9F08830C9F08430B1F4BF
:1011E000809180008F7D03C0809180008F778093F5
:1011F0008000089584B58F7784BD089584B58F7D70
:10120000FBCF8091B0008F778093B00008958091DC
:10121000B0008F7DF9CF1F93CF93DF93282F30E05D
:10122000F901EC55F14F8491F901E057F14FD49158
:10123000F901E458F14FC491CC23A9F0162F811184
:101240000E94E208EC2FF0E0EE0FFF1FEE56FD4F7C
:10125000A591B4918FB7F894EC91111108C0D09575
:10126000DE23DC938FBFDF91CF911F910895DE2B9A
:10127000F8CFCF93C82FF89460E080912C080E949B
:101280000B0980912D0818161CF460E00E940B09D0
:10129000CEBD00000DB407FEFDCF8EB580912D08A8
:1012A00018161CF461E00E940B097894CF91089500
:1012B0000F931F93CF93809129088F5F8093290804
:1012C0000FEC15E0C0E08C2F80640E94390980E8A3
:1012D0000E94390961E080912C080E940B098091DD
:1012E0002D0818161CF460E00E940B09F80184E533
:1012F00091919EBD00000DB407FEFDCF9EB58150BB
:10130000B9F780912D0818161CF461E00E940B09B2
:10131000CF5F0C5A1F4FC630B1F680E4CF911F91BA
:101320000F910C943909CF93DF9390E0FC01E057C3
:10133000F14F24918458914FFC0184918823C9F086
:1013400090E0880F991FFC01E857FD4FA591B491DB
:10135000FC01EE56FD4FC591D49161110DC09FB7B0
:10136000F8948C91209582238C938881282328835C
:101370009FBFDF91CF910895623051F49FB7F894E9
:101380003C91822F809583238C93E8812E2BEFCF85
:101390008FB7F894EC912E2B2C938FBFEACFFF924E
:1013A0000F931F93CF93DF93CFECD7E0FF24FA94F2
:1013B00062E08A850E9493092A8530E0F901EC55A4
:1013C000F14F8491F901E057F14F0491F901E4588C
:1013D000F14F14911123E1F081110E94E208E12FF5
:1013E000F0E0EE0FFF1FEE58F14FA591B491EC9194
:1013F00089890E2369F0811113C0219687E0C63DCB
:10140000D807B1F6DF91CF911F910F91FF9008950A
:1014100089898F5F898B60E08A850E949309EDCF6F
:101420008F3F11F4198AF7CFF98AF5CF1F93CF9325
:10143000DF93182FEB0161E00E949309209739F4A4
:1014400060E0812FDF91CF911F910C940B09CF3F6A
:10145000D10511F461E0F5CFE12FF0E0EC55F14F4B
:10146000E491E33031F140F4E130B1F0E230E1F009
:10147000C038D1057CF7E4CFE73029F1E83059F1E5
:10148000E430B1F780918000806280938000D09337
:101490008B00C0938A0004C084B5806884BDC7BD3A
:1014A000DF91CF911F91089584B5806284BDC8BD3E
:1014B000F7CF80918000806880938000D09389006E
:1014C000C0938800EDCF8091B00080688093B00019
:1014D000C093B300E5CF8091B00080628093B000EC
:1014E000C093B400DDCF8E50806480937C008091E7
:1014F0007A00806480937A0080917A0086FDFCCF28
:10150000809178009091790008958091F3078F7110
:1015100049F584E10E94730ABC01990F880B990B6D
:101520000E94BD2F26EE3FE34EEC50E40E94B13006
:101530000E948C2F9B017093EA076093E907672B49
:10154000B9F084E08093E807EBEEF7E080E04191AA
:1015500051912417350718F48093E80708958F5F99
:101560008430A9F78091F3078F5F8093F307089584
:101570008FEF8093E807F6CF3FB7F89480911E0372
:1015800090911F03A0912003B091210326B5A89B41
:1015900005C02F3F19F00196A11DB11D3FBFBA2F05
:1015A000A92F982F8827BC01CD01620F711D811DC5
:1015B000911D42E0660F771F881F991F4A95D1F74A
:1015C00008958F929F92AF92BF92CF92DF92EF9247
:1015D000FF924B015C010E94BC0A6B017C010E94DE
:1015E000BC0A6C197D098E099F09683E734081050C
:1015F0009105A8F321E0821A9108A108B10888EEAC
:10160000C80E83E0D81EE11CF11C81149104A104D2
:10161000B10429F7FF90EF90DF90CF90BF90AF908B
:101620009F908F900895FC01178A158A14A213A227
:10163000108E1092C6051092C7051092CA0510921E
:10164000B40008950F931F93CF93DF93EC018B01A8
:101650000E94130B1E870D871B8A1A8A81E08983DB
:1016600089E08E8B198E1B8E1D8EDF91CF911F917D
:101670000F910895E091FD078E2F90E0880F991F3C
:10168000E091FB07F091FC07E80FF91F8591949119
:101690008F3F980719F41092F4070895909300086B
:1016A0009927880F991FE091FE07F091FF07E80F37
:1016B000F91F6591749184EF97E00E94220B80914D
:1016C000FD078F5F8093FD0708956EE772E00C942D
:1016D000220B66E772E00C94220BDC01FB01849183
:1016E0008F5F14968C9314973196E491EF5F159663
:1016F000EC9315976E5F7F4F5F967C936E935E972A
:1017000008952F923F925F926F927F928F929F9255
:10171000AF92BF92CF92DF92EF92FF920F931F93FF
:10172000CF93DF93EC01F901E49031968491643515
:101730000CF015C10E2C000CFF08062F062E000C15
:10174000110BF701E00FF11F1E161F060CF007C169
:1017500040330CF004C1A82FC42E042E000CDD0869
:101760005601A80EB11C87FDBA941A141B040CF084
:10177000F6C02E5F3F4F570197E0A90EB11CB7FE90
:1017800004C05701BEE0AB0EB11CB3E0B594A79402
:10179000BA95E1F747FF0AC0A42FA80FAC9CC0017F
:1017A000AD9C900D1124281B390B40E08A2F0A2E86
:1017B000000C990B840F911D47FD9A95C19714F069
:1017C000A0E3A41BF8A067FD60E0E535F10514F087
:1017D000E4E5F0E09E2FCC85C427C62E062E000C33
:1017E000DD08F601E01BF10B8F014F01F7E08F22BE
:1017F0009924E0E8F0E002C0F595E7958A94E2F7D5
:101800007E2F17FF02C0095F1F4FF3E01595079564
:10181000FA95E1F7200F311F542F577081E001C076
:10182000880F5A95EAF7459545954595F601B4E533
:101830004B02E00DF11D1124AF0141535A4FD0E08E
:101840002A2EAA0F3308EE24E394BB24D2151304E6
:101850000CF085C0F9015490F1E0FF121AC0962EE9
:101860008A01E72F6901991608F057C08E2E85204E
:1018700021F0D8018C90882A8C92E69531F4BFEF44
:10188000CB1ADB0AF6015490E0E893940F5F1F4FE8
:10189000EACFF1101CC0782E7094962E8A01E72FA3
:1018A0006901991608F039C08E2E852021F0D801E3
:1018B0008C9087208C92E69531F4BFEFCB1ADB0A2F
:1018C000F6015490E0E893940F5F1F4FEACFF3E0E6
:1018D000FF122CC0782E7094862E8A01972E6901F3
:1018E0008916D0F4E92DE52141F0D801EC916C2E58
:1018F000682460FE0FC0E82BEC93969439F4BFEF98
:10190000CB1ADB0AF6015490E0E89E2E83940F5F19
:101910001F4FE6CFE721F0CFCE25880F19F44C5AA0
:101920005F4F81E0DF5F2A0D3B1D90CF962E8A012D
:10193000E72F6901991688F78E2E852021F0D801AE
:101940008C9088268C92E69531F4BFEFCB1ADB0A97
:10195000F6015490E0E893940F5F1F4FEBCFDF91B7
:10196000CF911F910F91FF90EF90DF90CF90BF909C
:10197000AF909F908F907F906F905F903F902F904F
:101980000895DC01643570F5403360F590968C91D4
:101990009097E62F062E000CFF0B242F25952595FA
:1019A000259594E52902E00DF11D1124E153FA4F2C
:1019B0002081342F37708230B1F4822F90E0032ED3
:1019C00002C0959587950A94E2F780958170811100
:1019D00014C081E090E001C0880F3A95EAF7809545
:1019E000822380830895833091F71C968C918170B7
:1019F0006427609561708613ECCF81E090E001C0B0
:101A0000880F3A95EAF7822BECCFAF92BF92CF9234
:101A1000DF92EF92FF920F931F93CF93DF93182FD4
:101A2000062FC0E0D3E08AEFD82E9EEFE92E842F58
:101A30008470C82E842F8270B82E842F8870A82EB0
:101A40004170F42ECF5F8C2F880F8F5FE80ECC2073
:101A500081F0402F4D0F612F6C0F8DE198E00E94B7
:101A6000C10C402F4C0F6D2F610F8DE198E00E944B
:101A7000C10CBB2081F0402F4D1B612F6C0F8DE1FD
:101A800098E00E94C10C402F4C1B6D2F610F8DE11F
:101A900098E00E94C10CAA2081F0402F4C0F612FCA
:101AA0006D1B8DE198E00E94C10C402F4D0F612FFE
:101AB0006C1B8DE198E00E94C10CFF2081F0402F4B
:101AC0004C1B612F6D1B8DE198E00E94C10C402FD3
:101AD0004D1B612F6C1B8DE198E00E94C10CCD174E
:101AE0003CF4E7FCAFCFD150D394D394ED0CAACF04
:101AF000DF91CF911F910F91FF90EF90DF90CF90EA
:101B0000BF90AF9008950F931F93CF93DF93D82F7B
:101B1000162F042FC0E0C0174CF4412F4C0F6D2F2F
:101B20008DE198E00E94C10CCF5FF5CFDF91CF919E
:101B30001F910F9108958F929F92AF92BF92CF9273
:101B4000DF92EF92FF920F931F93CF93DF93082FB3
:101B5000A62E842E922E83E0F82ED0E0C3E09AEFDA
:101B6000E92E1EEFBB24B394B20EDF5F1F0D4C2F86
:101B7000440F6A2D6C1BC92CCF0CDA2CDD1A81E0C6
:101B80004B0D881215C0802F8D0F0E94830D4C2D98
:101B90006D2D8C2F800F0E94830DDC1794F417FDA0
:101BA00004C0C150E394E3941E0DF394F394DDCF8D
:101BB000802F8D1B0E94830D4C2D6D2D802F8C1B33
:101BC000EACFDF91CF911F910F91FF90EF90DF90BF
:101BD000CF90BF90AF909F908F900895EF92FF921B
:101BE0000F931F93CF93DF938C01F62ED42FE22E09
:101BF000C0E0CE1544F46F2D6C0F4D2FC8010E942C
:101C0000C10CCF5FF6CFDF91CF911F910F91FF9065
:101C1000EF900895DF92EF92FF920F931F93CF936F
:101C2000DF93E82ED62FC42F022F8AEFD82ED40EA2
:101C300093E0F92EFE0C2D2D462F6F2D8DE198E0AF
:101C40000E94EE0D1D2F100F4FEF410F2D2D6F2D08
:101C50008DE198E00E94EE0D0650DD5F402F6D2F64
:101C60008E2D0E94830DCE0D402F6D2F8FEF8C0F88
:101C70000E94830D41E06D2F8F2D0E94050DC450F1
:101C800042E06D2F8C2F0E94050D145044E0612F0F
:101C90008C2F0E94050D48E0612F8F2DDF91CF9191
:101CA0001F910F91FF90EF90DF900C94050DDF9244
:101CB000EF92FF920F931F93CF93DF937C01D62F68
:101CC000D22EC42F002E000C110B040F111D47FD46
:101CD0001A958C2F0C2E000C990B8017910744F449
:101CE0002D2D4C2F6D2FC7010E94EE0DCF5FF1CF30
:101CF000DF91CF911F910F91FF90EF90DF900895AA
:101D00004F925F926F927F928F929F92AF92BF920B
:101D1000CF92DF92EF92FF920F931F93CF93DF93B7
:101D2000EC0164350CF087C040330CF084C0EC81CA
:101D3000E150FF0B0E9FC0010F9F900D1124860FE5
:101D4000911D67FD9A95181619060CF074C03D8117
:101D5000842F042E000C990B039F800D911D1124DC
:101D6000181619060CF067C0102FF42EE62E78A076
:101D7000962E812CC22ED12C282D082C000C330B32
:101D80008C8190E0281739070CF054C00197E0E0EF
:101D90002817390771F0C89EF001C99EF00DD89E32
:101DA000F00D11242E0F3F1FEE8DFF8DE20FF31F5C
:101DB000E4915F2C612C482C4E0C2D81862D062C35
:101DC000000C990B2817190691F18CF1AE2EB12C4D
:101DD000E0FF16C0113061F4462D4F0D642DCE0189
:101DE0000E94C10CF501F595E7956394510EE5CF7E
:101DF000012F212F452D692DCE010E94570EF2CFC4
:101E000089A198A1891771F388A3113041F4462D57
:101E10004F0D642DCE010E94C10C78A2E3CF012F9B
:101E2000212F452D692DCE010E94570EF6CF8394A8
:101E3000910EA2CF78A2DF91CF911F910F91FF90C9
:101E4000EF90DF90CF90BF90AF909F908F907F905A
:101E50006F905F904F9008950F93CF93DF93EC01B5
:101E60006A3049F428859D818A85299F800D112437
:101E70008A8719861EC06D30E1F0262F08854A85B5
:101E800069850E94800E28853C818985239F800D6D
:101E9000112489879F81992361F0082E000C990BEA
:101EA00044E550E0239F4019510911244817590770
:101EB000D4F281E090E0DF91CF910F9108950895E1
:101EC00090E080E008958F929F92AF92BF92CF9260
:101ED000DF92EF92FF92C090E907D090EA07C0949A
:101EE000D094F12CE12C0E94BC0A4B015C010E94B1
:101EF000BC0AA501940120953095409550956095B8
:101F00007095809590950E946F319B01AC01C7013F
:101F1000B6010E946F314B015C01C090D007D09098
:101F2000D107F12CE12C0E94BC0A6C0D7D1D8E1D89
:101F30009F1D680D791D8A1D9B1D61157105810509
:101F4000910551F0FF90EF90DF90CF90BF90AF9050
:101F50009F908F900C948C2EFF90EF90DF90CF90FD
:101F6000BF90AF909F908F900895CF92DF92EF92A5
:101F7000FF926B017C01C114D104E104F10441F032
:101F80000E943D2EA70196010E94AB2E6B017C01A1
:101F9000C701B601FF90EF90DF90CF9008952F9288
:101FA0003F924F925F926F927F928F929F92AF92E9
:101FB000BF92CF92DF92EF92FF920F931F93CF9336
:101FC000DF93CDB7DEB763970FB6F894DEBF0FBED1
:101FD000CDBF80910805909109050296909309055F
:101FE0008093080565E070E080E090E00E94B50F06
:101FF00070932603609325031982809125039091A5
:1020000026032981281719060CF05CC12CE0222E2A
:1020100025E0322EF101D12CC12C8081811148C1E3
:10202000A7E1AC9DC001AD9D900D1124845F9A4F36
:102030009B8B8A8BFC0121E021932F0165E070E0EE
:1020400080E090E00E94B50FAA89BB8912967C932C
:102050006E93119763E470E080E090E00E94B50F0A
:102060006A887B88B3E06B0E711C685F7F4F8F4F6F
:102070009F4F0E94BD2FEA89FB8963837483858308
:1020800096836BE170E080E090E00E94B50F685F9E
:102090007F4F8F4F9F4F0E94BD2F4B015C01AA893C
:1020A000BB8917968D929D92AD92BC921A97E1E0F2
:1020B000F0E01C96FC93EE931B971E96FC93EE9318
:1020C0001D975B824A82798A688AAA81BB816D905A
:1020D0007C90D1011196ED91FC911297EE0FFF1FAC
:1020E000EA53FD4FE080F18017966D917D918D91BF
:1020F0009C911A970E94852F6C837D838E839F838A
:10210000F10163817481858196810E94852F6887A2
:1021100079878A879B87F301EE0FFF1FEA53FD4FF4
:1021200040805180C501B4010E94852F6C877D8756
:102130008E879F87A889B9896D917D918D919C919A
:102140000E94852FCB010C811D8128853985A20134
:102150006C857D850E94B307B7E12B0E311CEFE73C
:102160002E16E5E03E0609F0B0CF26E0269DF001F0
:10217000279DF00D1124EF5FFE4F80819181AA8988
:10218000BB8950969C938E931F9782819381529620
:102190009C938E9351978481958154969C938E93B2
:1021A0005397B1E06B167104E9F527E12C9DF0011E
:1021B0002D9DF00D1124E45FFA4F7F018BE0E80EB6
:1021C000F11C3D96FB83EA8362E070E080E090E0E2
:1021D0000E94B50F6150710981099109D7016D9372
:1021E0007C9362E070E080E090E00E94B50FDC013B
:1021F000CB010197A109B1099C01EA81FB8191837F
:102200008083D7018D919C91892B11F4232BE1F2CE
:10221000E4E1F0E0F093F504E093F40499819F5F2A
:102220009983EBCEB2E06B16710491F762E070E037
:1022300080E090E00E94B50F709326036093250321
:10224000672BD9F463E470E080E090E00E94B50F62
:10225000685F7F4F8F4F9F4FEA89FB897487638741
:1022600067817085818592850E94852FAA89BB89A7
:102270001E967C936E931D97CBCF6BE170E080E050
:1022800090E00E94B50F685F7F4F8F4F9F4FEA89A4
:10229000FB897687658763817481858196810E9439
:1022A000852FAA89BB891C967C936E931B97B0CF10
:1022B0002FEFC21AD20A779685E0C816D10409F02A
:1022C000ACCEACCF63960FB6F894DEBF0FBECDBFD9
:1022D000DF91CF911F910F91FF90EF90DF90CF9002
:1022E000BF90AF909F908F907F906F905F904F9036
:1022F0003F902F9008952F923F925F926F927F921E
:102300008F929F92AF92BF92CF92DF92EF92FF9205
:102310000F931F93CF93DF93C1E0D0E066246394C3
:10232000712C72E0872E912C55245394809169036F
:10233000882309F460C009E1C2E0D0E011E0809197
:10234000680381115CC11092C5051092C40569E152
:1023500070E080E090E00E94B50FAB01709326031F
:10236000609325032091C4053091C505655B7F4FBF
:10237000660F771FFB01E15EFE4F84E06081718193
:102380006130710529F44C30510511F02F5F3F4F3A
:102390008150F2968111F2CF3093C5052093C40588
:1023A0002130310561F680916903882341F264E0B0
:1023B00070E080E090E00E94B50F6D5F7F4F8F4F1F
:1023C0009F4F2091250330912603069FF001079F20
:1023D000F00D1124E20FF31FEE0FFF1FE15EFE4F21
:1023E00080819181892BF9F6D183C0831093680392
:1023F00010926903D8CF68E170E080E090E00E941D
:10240000B50F709326036093250362E070E080E0CF
:1024100090E00E94B50F70936B0360936A03809104
:10242000250390912603FC01EE0FFF1FEF5AFE4F8C
:10243000208131812430310521F470926B03609248
:102440006A03FC01EE0FFF1FED57FE4F40815181E3
:102450004430510509F078C02430310509F470C0CA
:1024600010926B0310926A039C012F5F3F4FBC01D7
:10247000660F771FDB01A15EBE4FA901440F551FF8
:10248000FA01E15EFE4F5F010D911C911197E08012
:10249000F1800E151F05C1F10FE111E0F0E0E0E061
:1024A0001D01D801ED90FD908D01D501CD90DC90FE
:1024B000CE14DF0469F42E173F0751F0D101CD90FF
:1024C000DC907801B2E0EB1AF108D701CD92DC92F2
:1024D0003196E931F10529F7615E7E4FFB0160819C
:1024E0007181415E5E4FDA016D937C93880F991F75
:1024F000FC01E951FE4FD183C083220F331FF90144
:10250000E55BFD4FD183C08320911F0130912001F5
:10251000EFE1F1E090E080E041915191241735071F
:1025200009F40196B1E0E135FB07B1F79093C505D9
:102530008093C405499709F0F9CE50926903F6CE0D
:1025400090926B0380926A0320916A0330916B032F
:102550002115310509F488CF21303105A9F69C01F8
:102560002B5F3F4FBC01660F771FDB01A15EBE4FA3
:10257000A901440F551FFA01E15EFE4F5F010D9165
:102580001C911197E080F1800E151F0509F4BCCF56
:102590000FE111E0F0E0E0E01D01D801ED90FD90C9
:1025A0008D01D501CD90DC90CE14DF0469F42E1797
:1025B0003F0751F0D101CD90DC907801B2E0EB1AE9
:1025C000F108D701CD92DC923196E931F10529F776
:1025D000615E7E4FFB0160817181415E5E4FDA0179
:1025E0006D937C93880F991FFC01E75EFD4FD183AB
:1025F000C083220F331FF901EB54FE4F83CFDF91CD
:10260000CF911F910F91FF90EF90DF90CF90BF90EF
:10261000AF909F908F907F906F905F903F902F90A2
:102620000895CF93DF930E94630F84EF97E00E9499
:10263000690B80916C0390916D03019690936D03EB
:1026400080936C032AE230E03093F7042093F60481
:1026500028E130E03093F9042093F80422E030E0E0
:102660003093FB042093FA043093FD042093FC0480
:102670002CE030E03093FF042093FE0421E030E0B2
:10268000309301052093000520910805309109053C
:102690002C593F4F3093090520930805EEE6F3E0EF
:1026A00010823B9624E0E83BF207D1F762E070E04D
:1026B0000E948B31019749F480911F019091200174
:1026C00005969093200180931F01EFE1F1E0ADE7C3
:1026D000B2E090E080E0EF01CA56DF4F24E01982BB
:1026E00018829183808311961C921E922150E2964B
:1026F0002111F5CF0196329612968931910559F73D
:1027000081E090E090939602809395021092C50527
:102710001092C40510926903109268030E947B1105
:102720008FE592E090935408809353088AE2809357
:102730005508DF91CF910895FB0101900020E9F742
:102740003197AF01461B570BDC01ED91FC910280E4
:10275000F381E02D09948F929F92AF92BF92EF92F6
:10276000FF920F931F93CF93DF93CDB7DEB7A1975F
:102770000FB6F894DEBF0FBECDBF7C01FA01CB01CE
:1027800019A2223008F42AE08E010F5D1F4F822E1D
:10279000912CB12CA12CBF01A50194010E94DD2E2A
:1027A000F901CA016A300CF5605DD8016E938D01A4
:1027B000232B242B252B79F790E080E0109721F034
:1027C000BD01C7010E949C13A1960FB6F894DEBF0D
:1027D0000FBECDBFDF91CF911F910F91FF90EF9072
:1027E000BF90AF909F908F900895695CDECFCF929D
:1027F000DF92EF92FF920F931F93CF93DF936B01C2
:10280000770FEE08FF08F7FE1BC0EC016DE20E9497
:102810008A088C0144275527BA014C195D096E09B5
:102820007F092AE0CE010E94AB13800F911FDF9138
:10283000CF911F910F91FF90EF90DF90CF9008956F
:102840002AE0B701A601DF91CF911F910F91FF9070
:10285000EF90DF90CF900C94AB130F931F93CF9317
:10286000DF93EC010E9491088C0168ED72E0CE01CB
:102870000E949C13800F911FDF91CF911F910F91A8
:102880000895EFECF5E088EF91E0DF019C011D92E7
:1028900021503040E1F710922608109227086AE490
:1028A0007EE08DE198E00E9491080E9458098CB565
:1028B00083608CBD8DB58E7F8DBD8BED92E0EEEF8C
:1028C000FFE309951092230865E27EE08DE198E030
:1028D0000E942D140E9458090E94CF098091E4079C
:1028E000813039F062E370E080E090E00E94E10A1C
:1028F000F3CF08954F925F926F927F928F929F9243
:10290000AF92BF92CF92DF92EF92FF920F931F93FD
:10291000CF93DF9300D000D01F92CDB7DEB74091A8
:102920004F085091500860915108709152082FB78C
:10293000F8948091CB059091CC05A091CD05B091F4
:10294000CE052FBF481B590B6A0B7B0B80914E089D
:1029500090E0B0E0A0E0C0904A08D0904B08E09032
:102960004C08F0904D0884179507A607B70708F0A4
:10297000CEC0C114D104E104F10409F4C8C02FB7DA
:10298000F8948091CB059091CC05A091CD05B091A4
:10299000CE052FBF20914E08820F911DA11DB11DA4
:1029A00080934F0890935008A0935108B093520819
:1029B0008091400890914108A0914208B09143084D
:1029C0000196A11DB11D8093400890934108A093EA
:1029D0004208B093430810924A0810924B08109294
:1029E0004C0810924D080E94BC0A609346087093F0
:1029F000470880934808909349088091D0079091A8
:102A0000D1072FE0289FA001299F500D11245A8340
:102A1000498385E10E94730AA981BA818A0F9B1FAD
:102A2000B4E096958795BA95E1F79093D107809396
:102A3000D0072091CF07222309F448C06091D30723
:102A4000262F30E050E040E029833A834B835C83BB
:102A5000C090D407D12CF12CE12C4091D707509194
:102A6000D8074A01B12CA12C2091D5073091D60767
:102A70002901712C612C8217930728F09C014817BB
:102A8000590708F49A0150E040E024193509460935
:102A9000570969817A818B819C816C197D098E0926
:102AA0009F090E946F31A501940124193509460937
:102AB00057090E94AB2EC20ED31EE41EF51EC09213
:102AC000D2076C2D70E085E00E94160A0E94CF09A3
:102AD0008091EB079091EC07892B11F00E94850AF9
:102AE00081E00F900F900F900F900F90DF91CF919A
:102AF0001F910F91FF90EF90DF90CF90BF90AF901C
:102B00009F908F907F906F905F904F900895CD2809
:102B1000CE28CF2809F036C18091E60781508E3F3C
:102B200018F58091E5078130F9F48091F9078F5FFE
:102B30006091FA0787FD09C0082E000C990B70E020
:102B40006F5F7F4F0E948B31682F6093F9078EE192
:102B50009EE0909354088093530888E4809355082E
:102B600084EF97E00E94650B8091E60781508E3FCD
:102B700070F48091E407813009F0E0C281E19EE0C9
:102B8000909354088093530888E48093550880916B
:102B9000F407882331F08091F507811102C00E946B
:102BA0003A0B8091F507882309F43EC0809109080B
:102BB00081113AC08091010890910208E0910608C5
:102BC000F0910708EE0FFF1FE80FF91F25913491D0
:102BD0002115310509F42DC1A90156954795569542
:102BE0004795842F20FDD0C08F7380930808809173
:102BF000F807839F802D11248093090810921908EB
:102C0000109218081092170881E080930B088093A7
:102C1000CA0510920C088091060890910708019649
:102C2000909307088093060880910B08882341F051
:102C300080910908811119C184EF97E00E94130B5C
:102C400080915508882309F453C08C3008F0F7C1EF
:102C50003CE0381B3983FF24F394F092250810924E
:102C60003D0810923E08409122084D831981141BA3
:102C7000042F0D5F4DE2410F2EE463E08DE198E0FB
:102C80000E94570E5D8154505D83105D252F41E0F9
:102C9000612F80E50E949B0D2D8142E0612F83E032
:102CA0000E949B0DF0923D08F0923E088091220810
:102CB00023E0280F6981681B635D44E580E00E9482
:102CC0000A0E84E080932608809122089981981B3F
:102CD000915D9093270860915308709154088DE19D
:102CE00098E00E9491088091550881508093550882
:102CF0008091EB079091EC07892BE1F0A1E0A09384
:102D00003D0810923E089091210885E5891B80932B
:102D10002608109227086091E807613009F4F2C193
:102D200008F48FC18091E707653008F002C26B5F3D
:102D30008111FAC10E9458098091230881110EC0A7
:102D4000EFECF5E088EF91E0DF019C011D9221504E
:102D50003040E1F710922608109227080E94BC0A22
:102D600060934A0870934B0880934C0890934D08E9
:102D70002091460830914708621B730B70934508F9
:102D80006093440880E0ADCEC901E6E09695879552
:102D9000EA95E1F78F71932F9695969596959051B8
:102DA0004F70423099F1D0F4442309F43CC04130D3
:102DB000B9F1E0910608F09107083196F093070801
:102DC000E0930608CF01880F991FE0910108F09168
:102DD0000208E80FF91F25913491FECE433061F0CF
:102DE000443039F72091F807289F802D11248093D3
:102DF000110890931208DDCF2091F807289F802DAD
:102E0000112480930F0890931008D3CF2091F807D6
:102E1000289F802D112480930D0890930E08C9CF10
:102E20000E948707C6CF8B3008F08AE080930A089B
:102E3000C0CF20910508211112C01092F507809192
:102E4000F407811105C084EF97E00E94130BECCECC
:102E50000E943A0B8091060890910708B4CF109217
:102E6000070810920608FC01B6CF8150809309082C
:102E700080911908811142C02091170830911808DB
:102E80002F5F3F4FC901880F991FE0911308F09100
:102E90001408E80FF91F85919491482F47704093CB
:102EA0001A08492F4695469540931B08AC0164E0EB
:102EB000569547956A95E1F74F739091F807499FAA
:102EC000402D11244093190883FB882780F98093B3
:102ED000C90530931808209317088091150890E0D1
:102EE0002817390758F020911608222309F49FC0AB
:102EF000821B9109909318088093170880911908F4
:102F000081508093190880910C0831E0380F30937C
:102F10000C084091080820911B08240F809100089C
:102F2000280F2093F60760910F08662371F070E078
:102F3000832F032E000C990B0E948B318091100877
:102F4000869F200D11242093F6078091F60790E0CC
:102F5000849664E270E00E948B318093F6072091A2
:102F60000A082093F70760910D08662381F0062E6A
:102F7000000C770B832F032E000C990B0E948B31D2
:102F800080910E08869F200D11242093F7076091F1
:102F900011086623A1F0832F330F990B70E00E9474
:102FA0008B31CB0162E070E00E948B3120911208DE
:102FB0009091F707289F900D11249093F7074F33B6
:102FC00009F43AC08091F7078A300CF089E087FD58
:102FD00080E08093F707F894E091F607F0E0E35182
:102FE000F24FE491E093C80520911C083091F70757
:102FF00032039001112440911A084203C001439FFB
:10300000900D11242091F90702C0880F991F2A956D
:10301000E2F797FF02C081589F4F880F892F881FC2
:10302000990B8093C7058093C605789409CE84EFE9
:1030300097E00E94130B62CF1092F707CCCF198252
:103040000ACE84EF97E00E94130B1092F507B1E0CF
:10305000B09325086BE67CE08DE198E00E946D0B53
:103060001092EC071092EB071092230828EA2983AC
:103070000E947A148823E1F36DE57CE08DE198E00D
:103080000E9491084091E9075091EA0770E060E0E2
:103090002AE08DE198E00E94AB1368E47CE08DE1CA
:1030A00098E00E949108698162956F7070E08DE1EF
:1030B00098E00E94F7136DE37CE08DE198E00E94B8
:1030C00091088091E407813009F434CE3981315080
:1030D00039833111CDCF70E060E085E00E94160A9F
:1030E00083B7817F846083BF83B7816083BF83B7E9
:1030F000816083BF889583B78E7F83BF83B78E7FC0
:1031000083BFB6CF8091400890914108A0914208BA
:10311000B09143088F709927AA27BB2767E00897CB
:10312000A105B10508F068E78DE198E00E948A08E2
:1031300001CE882309F4FECD6FE2F6CF893209F083
:1031400026CD0E94411423CDCF92DF92EF92FF92C1
:103150000F931F93CF93DF9380913F08882309F447
:10316000CBC081E080932508109224081092230898
:103170001092E70780933D0880933E08CDE4D2E0AB
:103180001CE00E947A148823E1F3FE0104910111EE
:10319000009122082BEE30E040E060E08DE198E005
:1031A0000E94810B4CE0400F2BE531E060E08DE1A7
:1031B00098E00E94810B10922608109327086DE476
:1031C00072E08DE198E00E94910880912108982F8B
:1031D000990F990F891B8D5A809326088091220898
:1031E000982F990F990F891B835D809327088091F1
:1031F000400867EE70E084FD02C063EE70E08DE190
:1032000098E00E942D1480912108982F990F990F12
:10321000891B8D5A80932608809127088F5F8093A1
:1032200027088091F9076FED70E0811102C06BED06
:1032300070E08DE198E00E942D1480912108982F74
:10324000990F990F891B8D5A809326088091270822
:103250008F5F8093270867ED70E08DE198E00E9412
:103260002D148091E5078130B1F48091F9078F5FCB
:103270006091FA0787FD09C0082E000C990B70E0D9
:103280006F5F7F4F0E948B31682F6093F90784EF47
:1032900097E00E94650B8091E4078130E9F080910E
:1032A0003F08482F50E070E060E0C0904008D090A8
:1032B0004108E0904208F0904308C416D506E6069F
:1032C000F70610F08F3F41F48091E607813009F056
:1032D00058CF0E94411455CF8FEF80933F0884EF61
:1032E00097E00E94130B1092F50784EF97E00E947D
:1032F000690B81E08093E7070E94630F1092E70754
:1033000081E080932508EEE6F3E088EB94E0C2E0EC
:10331000D0E01082D683C583D087C7833B968E17B3
:103320009F07B9F70E947B1188E290E09093F70421
:103330008093F60485E190E09093F9048093F8047B
:10334000D093FB04C093FA04D093FD04C093FC0413
:103350008CE090E09093FF048093FE0481E090E085
:10336000909301058093000525E030E0309303053C
:10337000209302059093050580930405909307051B
:1033800080930605109209051092080510920B050E
:1033900010920A0590936D0380936C03DF91CF9197
:1033A0001F910F91FF90EF90DF90CF9008950C94B4
:1033B0009C13DF92EF92FF920F931F93CF93DF93B3
:1033C000DAE0DD24D3940E947A148823E1F3D093C9
:1033D0002608D09227086AE672E08DE198E00E9404
:1033E0002D141092240810922608809122088093B0
:1033F000270887E2E82E83E0F82E01E313E0C0E01F
:10340000F701819191917F01892B09F040C06DE214
:103410008DE198E00E948A0880912108982F990FE9
:10342000990F891B8C5A80932608CF5F80912208C0
:103430008C9F802D112480932708F701329760819B
:1034400071818DE198E00E94F71368ED72E08DE1E3
:1034500098E00E949C13055F1F4FC53089F680914C
:10346000E407813049F08091E507813029F08091AF
:10347000E607813009F0A7CF84EF97E0DF91CF9185
:103480001F910F91FF90EF90DF900C94690BB801A2
:103490008DE198E00E94D719BFCF1F920F920FB60F
:1034A0000F9211242F933F938F939F93AF93BF93CA
:1034B0008091CB059091CC05A091CD05B091CE0522
:1034C00030911D0323E0230F2D3758F50196A11DE0
:1034D000B11D20931D038093CB059093CC05A09341
:1034E000CD05B093CE0580911E0390911F03A0914E
:1034F0002003B09121030196A11DB11D80931E03ED
:1035000090931F03A0932003B0932103BF91AF9129
:103510009F918F913F912F910F900FBE0F901F9011
:10352000189526E8230F0296A11DB11DD2CF1F9238
:103530000F920FB60F9211242F936F937F938F9357
:103540009F936091C705662349F180911C038F5FAB
:1035500080931C039091C805891700F12091CA053A
:1035600081E028272093CA0510921C038091C90589
:10357000882369F08091000193E4899F802D1124B4
:10358000895B809300010E947F319093C6058091F2
:10359000C605211101C080E08093B4009F918F91F6
:1035A0007F916F912F910F900FBE0F901F901895E4
:1035B000CF93DF93CDB7DEB7A6970FB6F894DEBFF3
:1035C0000FBECDBF789484B5826084BD84B5816020
:1035D00084BD85B5826085BD85B5816085BD8091DE
:1035E0006E00816080936E00109281008091810056
:1035F000826080938100809181008160809381004E
:10360000809180008160809380008091B10084600F
:103610008093B1008091B00081608093B000809170
:103620007A00846080937A0080917A00826080932F
:103630007A0080917A00816080937A0080917A008C
:10364000806880937A001092C10082E380934E08D4
:1036500081E090E0A0E0B0E080934A0890934B08AE
:10366000A0934C08B0934D088FEF80933F08E0E89B
:10367000F7E7259134912130304C09F045C2E6E955
:10368000F7E7E491E0932808E7E9F7E7E491E093AE
:10369000D307E8E9F7E7E491E093D407E9E9F7E72E
:1036A000859194919093D6078093D507EBE9F7E73E
:1036B000859194919093D8078093D70787E0809362
:1036C000FA07EEE9F7E7E491E093F907EFE9F7E7A6
:1036D000E491E0933F08E0EAF7E7859194919093B5
:1036E000EC078093EB07E2EAF7E7859194919093DA
:1036F000EE078093ED07E4EAF7E7859194919093C4
:10370000F0078093EF07E6EAF7E7859194919093AD
:10371000F2078093F10711E01093CF076FEF70E08D
:1037200085E00E94160A88E08093D90789E080939B
:10373000DA0787E08093DB0786E08093DC0704E00C
:103740000093DD0782E08093DE0781E18093DF074D
:103750000E94CF098CE39FE09093EA078093E907EA
:103760000093E8071093F3078BE080932B088DE01C
:1037700080932A0880E180932C088EE080932E08A5
:103780008FE080932D081093250810933D08109228
:103790003E08109324086BE67CE08DE198E00E94DF
:1037A0006D0B1FB7F89480912203811127C0E6E8C2
:1037B000FEE08491EAE9FEE09491E82FF0E0EE0F5C
:1037C000FF1FE857FD4FA591B491EC91E92321F437
:1037D00061E08AE00E940B0961E08AE00E9493099F
:1037E0008CB580618CBD8CB580648CBD61E08DE052
:1037F0000E94930961E08BE00E949309809122036B
:103800008F5F809322031FBF8CB58F7D8CBD8CB5DD
:103810008C7F81608CBD8DB581608DBD8CB58C60D9
:103820008CBD61E080912B080E94930961E080913A
:103830002A080E94930961E080912C080E94930954
:1038400080912E0818161CF461E00E949309809163
:103850002D0818161CF461E00E94930980912E082F
:10386000181674F460E00E940B096AE070E080E0D2
:1038700090E00E94E10A61E080912E080E940B090D
:1038800080912A08082E000C990BFC01E458F14F96
:10389000E491F0E0EE0FFF1FEE56FD4F25913491BD
:1038A0003093320820933108FC01E057F14FE49146
:1038B000E093380880912B08082E000C990BFC012E
:1038C000E458F14FE491F0E0EE0FFF1FEE56FD4F8C
:1038D000259134913093300820932F08FC01E05754
:1038E000F14FE491E093370880912D08082E000CE9
:1038F000990BFC01E458F14FE491F0E0EE0FFF1F4B
:10390000EE56FD4F259134913093340820933308BF
:10391000FC01E057F14FE491E093390880912C08C5
:10392000082E000C990BFC01E458F14FE491F0E0F3
:10393000EE0FFF1FEE56FD4F259134913093360860
:1039400020933508FC01E057F14FE491E0933A08E9
:1039500081E20E94390984E10E9439098091280896
:1039600087FF03C08FE7809328088091280880682C
:103970000E94390980E20E9439098CE00E943909CD
:103980000E94580981E08093F80784E080931C0826
:1039900084E892E0909304088093030880E00E94FA
:1039A000870761E070E083E00E94160A8091B10011
:1039B000887F81608093B100F8941092800010920B
:1039C0008100109285001092840088E191E090932C
:1039D00089008093880080918100886080938100B5
:1039E0008091810081608093810080916F0082606E
:1039F00080936F0078948091EB079091EC07892B6E
:103A000011F00E94850A8091E507813009F4A9C070
:103A10008091E807882309F4A4C06CE972E084EF80
:103A200097E00E94220B41E3E42E43E0F42E57E29C
:103A3000C52E53E0D52E0AE010E0B12CA12C480190
:103A40005AE0851A9108C4018A0D9B1D0E94952E8B
:103A5000F701EA0DFB1D80838FEFA81AB80A9AE0E0
:103A6000A916B10481F7C8010E94952EA82EB12C89
:103A7000D601AD92BC92C80101960E94952E90E0AD
:103A8000982F88278A0D9B1D8F3F980711F490E08F
:103A900080E0F601819391936F01045F1F4FFBE07B
:103AA000EF0EF11C0634110541F60E94A4180E9485
:103AB0007A14882311F18091AF02882309F468C039
:103AC00084E680934E08FF24F394F092F807009167
:103AD0002303109124030A3011050CF045C02CEB90
:103AE00034E040E060E08DE198E00E94810B0F5FE0
:103AF0001F4F109324030093230380E090E0892B51
:103B0000B1F20E940000D3CF9CE39093280810925A
:103B1000D3078093D40780E293E09093D6078093F5
:103B2000D50784ED93E09093D8078093D70787E07B
:103B30008093FA078093F9078CEA9DE09093EC0755
:103B40008093EB078EED9DE09093EE078093ED0759
:103B500084E79EE09093F0078093EF078CE39FE06B
:103B6000D6CD1092F9075FCF2AEA32E040E060E05C
:103B70008DE198E00E94810B043111050CF4B7CF60
:103B80001092AF0282E380934E08F092F807AFCF15
:103B90001092C5051092C4059CEBA92E94E0B92E95
:103BA0002CE0C22E25E0D22ED6018C91882309F478
:103BB0005BC0E0910005F0910105EE0FFF1FE0539F
:103BC000FD4FE080F1800091F8041091F90480909D
:103BD000F6049090F7041196ED91FC911297EE0F78
:103BE000FF1FEA53FD4F2080318017966D917D9124
:103BF0008D919C911A970E94852F2B01F60163816C
:103C00007481858196810E94852FCB019401A10149
:103C1000B2010E94B307882309F180910A059091AF
:103C20000B0518161906D4F08091F4049091F50450
:103C3000892BA1F48091020590910305D60151963C
:103C40002D913C91821B930B909303058093020569
:103C5000E4E1F0E0F0930B05E0930A0521E030E0A9
:103C60003093C5052093C405D5018C91882331F08C
:103C7000E1E0F0E0F093C505E093C405F7E1CF0E75
:103C8000D11C27E0A20EB11C3FE7C31635E0D306D6
:103C900009F08ACF8091E40781509091E20791501A
:103CA0009E3FB0F42091F6043091F7044091FA045D
:103CB0005091FB04240F351F3093F7042093F60432
:103CC0008E3F30F041E050E05093010540930005F5
:103CD0009091E00791509E3FB0F42091F60430910E
:103CE000F7044091FA045091FB04241B350B3093E8
:103CF000F7042093F6048E3F30F023E030E0309359
:103D00000105209300059091E30791509E3FB0F488
:103D10002091F8043091F9044091FC045091FD0485
:103D2000240F351F3093F9042093F8048E3F30F0B0
:103D300022E030E030930105209300059091E107E7
:103D400091509E3F08F45EC08E3F08F070C020E0A6
:103D500030E0A9016091B8047091B9048091BA046F
:103D60009091BB040E947B2F18160CF460C08091C8
:103D70000605909107056BEF7FEF0E948B31615F25
:103D80007F4F072E000C880B990B0E94BD2F60936C
:103D9000B8047093B9048093BA049093BB0484EF81
:103DA00097E00E94650BEEE6F3E090E080E0208172
:103DB0002111F0C12BE0289FF001299FF00D112463
:103DC000E259FC4F81E0808383E090E09683858315
:103DD0009087878380910005909101059287818764
:103DE000009709F0AEC18091F6049091F704019616
:103DF000928381838091F8049091F90402979483CF
:103E0000838315C02091F8043091F9044091FC049B
:103E10005091FD04241B350B3093F9042093F804D2
:103E20008E3F08F494CF1092010510920005C090C7
:103E3000B804D090B904E090BA04F090BB0420E03C
:103E400030E0A901C701B6010E94AC30181684F415
:103E500020E030E040E85FE3C701B6010E940E2F8A
:103E60006093B8047093B9048093BA049093BB0430
:103E70008091E607813009F0BEC176E0472EEFE27F
:103E80007E2EF7E36F2EEE24E3945CE0252E62E1B4
:103E9000362E1092C5051092C4054DE7C42E42E09F
:103EA000D42EB12CA12CD6018D909D906D01B1E046
:103EB0008B16910409F0ACC0E0923D08E0923E08F8
:103EC000F601EC5FF1091081E9E01E9F102D11242D
:103ED000F601EE52F140F080F9E0FF9EF02C112443
:103EE000552453945F0C09E029E0412F652D8DE1A5
:103EF00098E00E94570E10923D0810923E08F6017D
:103F0000EA5CF109808191818130910509F049C114
:103F100003E023E0412F64E06F0D8DE198E00E9403
:103F2000570EF601E859F1098081918181309105A0
:103F300009F03FC103E023E043E0410F67E06F0D6C
:103F40008DE198E00E94570EF601E656F109808156
:103F500091818130910509F036C103E023E046E00C
:103F6000410F64E06F0D8DE198E00E94570EF6015D
:103F7000F497808191818130910509F02EC103E091
:103F800023E043E0410F652D8DE198E00E94570E3C
:103F90001F5FF394F39407E027E0412F6F2D8DE12D
:103FA00098E00E94570EE0923D08E0923E08809112
:103FB000C4059091C505019761F424E33CE0412FCD
:103FC0006F2D8DE198E00E94810B1092C505109233
:103FD000C4058091FE049091FF04A816B906C1F4AF
:103FE00010923D0810923E0807E027E0412F6F2D08
:103FF0008DE198E00E94570EE0923D08E0923E0865
:104000002BE23CE0412F6F2D8DE198E00E94810B67
:104010009FEFA91AB90AA9E1AA16B10409F043CF82
:1040200010922708B2E3B0932608E092250862EECA
:1040300072E08DE198E00E94D719EBE4E093260846
:1040400060916C0370916D038DE198E00E94F7130D
:10405000409227087092260868EE72E08DE198E0A1
:104060000E94D71960922608609108057091090591
:104070008DE198E00E94F71327E23CE04EE06FE20A
:104080008DE198E00E94810B20922708609226081B
:1040900060910605709107058DE198E00E94F71385
:1040A00021E23CE043E16FE28DE198E00E94810B68
:1040B00030922708609226086091040570910505EA
:1040C0008DE198E00E94F7138AE1809327087092AF
:1040D00026086AEE72E08DE198E00E94D71981E22D
:1040E000809327087092260863EF72E08DE198E0D4
:1040F0000E94D71988E280932708709226086BEFF8
:1041000072E08DE198E00E94D7190E947A1488230A
:1041100009F4BFCE8091E607813009F468C0809130
:10412000E407813031F480933D0880933E080E947B
:10413000D9198091E507813009F0A7CE0E94A41813
:10414000A4CE8130910569F48091F6049091F70432
:104150000596928381838091F8049091F9040296E8
:104160004ECE8230910569F48091F6049091F70467
:104170000196928381838091F8049091F9040696C8
:104180003ECE039709F053CE8091F6049091F70448
:104190000297DFCF01963B968E31910509F007CE4D
:1041A00046CE029709F0BDCE9092C5058092C40517
:1041B000B8CE029709F0C8CE21E030E03093C505B3
:1041C0002093C405C1CE029709F0D1CE41E050E062
:1041D0005093C5054093C405CACE029709F0D8CEC6
:1041E00081E090E09093C5058093C405D1CE809383
:1041F0003D0880933E088091F8049091F90402975D
:104200000CF07DC18091F6049091F7048697049795
:1042100008F075C18091FE049091FF04FC01EE0F3F
:10422000FF1FEB54FE4F208131812130310509F011
:104230005BC12091C4053091C505232B09F05FC1F6
:104240009C01255031093093FF042093FE04109205
:10425000BC041092C3041092CA041092D1041092AC
:10426000D804880F991FFC01ED58FD4F8081918182
:10427000892B11F40E94CF0FE091FE04F091FF040E
:10428000EE0FFF1FE358FD4F21E030E03183208324
:1042900083E290E09093F9048093F804EEE6F3E073
:1042A00010823B9634E0E83BF307D1F78091F604A7
:1042B0009091F70407970CF08CC18091F8049091CD
:1042C000F9044497039708F084C18091FE0490910B
:1042D000FF04FC01EE0FFF1FE55BFD4F20813181E4
:1042E0002130310509F06AC12091C4053091C5051E
:1042F000232B09F06EC19C01215031093093FF043A
:104300002093FE04880F991FFC01E558FD4F808122
:104310009181892B11F40E94CF0FE091FE04F0915E
:10432000FF04EE0FFF1FE358FD4F81E090E0918303
:10433000808388E490E09093F7048093F604EEE69F
:10434000F3E010823B9694E0E83BF907D1F78091C7
:10435000F8049091F904029734F482E090E090938D
:10436000F9048093F8048091F8049091F9048497FB
:1043700034F083E290E09093F9048093F804809104
:10438000F6049091F704079734F487E090E0909357
:10439000F7048093F6048091F6049091F704893431
:1043A000910534F088E490E09093F7048093F6044C
:1043B0008091020590910305181619060CF4A6C306
:1043C0001AE002E090E2F92EEE24E39420E1D22EEE
:1043D00010932708109226080093250862E073E0E6
:1043E0008DE198E00E94D719F0922708E092250805
:1043F000D09226086EE073E08DE198E00E94D71914
:104400000E947A14882321F38091E607813001F716
:10441000E0E8F7E7859194918130904C59F4ADE54F
:10442000B3E0EBE8F7E784918D933196E53927E720
:10443000F207C9F76FE979E08DE198E00E946D0B12
:104440001092230810926703B0E3CB2E14E5D12E0F
:1044500002E0E02EF12C10E080E3482E0E947A1456
:104460008823E1F38091E3078F3F41F0837081302F
:1044700029F4E39484EF97E00E94650B8091E107B3
:104480008F3F41F08370813029F4EA9484EF97E004
:104490000E94650B8091E2078F3F41F0837081306D
:1044A00029F4F39484EF97E00E94650B8091E00774
:1044B0008F3F11F40C94DF2D8370813011F00C9438
:1044C000DF2DFA9484EF97E00E94650B3FEFF31223
:1044D00002C0AFE0FA2E48E0E41609F4DBC0E7FEC4
:1044E000DAC0F7E0EF2ED7C02230310541F48091D9
:1044F000C4059091C505892B11F40E941113809178
:10450000F8049091F90484970CF4D0CE8091F604CD
:104510009091F7048697049708F0C8CE8091FE0426
:104520009091FF04FC01EE0FFF1FE75EFD4F20811D
:10453000318121303105A1F52091C4053091C505A7
:10454000232B09F0B3CE9C012B5F3F4F3093FF0428
:104550002093FE04880F991FFC01E957FD4F8081CD
:104560009181892B11F40E94CF0FE091FE04F0910C
:10457000FF04EE0FFF1FE358FD4F41E050E0518371
:10458000408387E090E09093F9048093F804EEE68E
:10459000F3E010823B9654E0E83BF507D1F786CE76
:1045A0002230310509F082CE8091C4059091C50575
:1045B000892B09F07BCE0E94111378CE2230310571
:1045C00041F48091C4059091C505892B11F40E9496
:1045D00011138091F6049091F704893491050CF43D
:1045E000B6CE8091F8049091F9044497039708F0AF
:1045F000AECE8091FE049091FF04FC01EE0FFF1FF0
:10460000E951FE4F2081318121303105A9F52091FA
:10461000C4053091C505232B09F099CE9C012F5F6D
:104620003F4F3093FF042093FE04880F991FFC0135
:10463000E158FD4F80819181892B11F40E94CF0FA9
:10464000E091FE04F091FF04EE0FFF1FE358FD4FD1
:10465000A1E0B0E0B183A08387E090E09093F704FD
:104660008093F604EEE6F3E088EB94E010823B964C
:104670008E179F07D9F76BCE2230310509F067CE30
:104680008091C4059091C505892B09F060CE0E94E8
:1046900011135DCEE12C9091220880912108809524
:1046A0008F9D802D1124895DAD2CDD0CBB08A80EDB
:1046B000B11C87FDBA94B7FE03C05FEFA51AB50A17
:1046C000B594A7943A2CDA2C292F209584E1891BE4
:1046D0002E9D800D11248C2CCC0C9908880E911CD9
:1046E00087FD9A9497FE03C08FEF881A980A9594D5
:1046F0008794282CC82C8091E407813011F51A305A
:10470000C4F48E2D8295807F8F0D09F4A7CE8A3058
:1047100009F4A4CE8D3009F4A1CE212F012E000C76
:10472000330BF901E35AFC4F8083225A3C4FD901E5
:104730001C921F5F84EF97E00E94690B1C3008F009
:104740001BE08091E507813089F4115067E679E03C
:1047500084EF97E00E94220B1F3F09F42CC1E12F48
:10476000012E000CFF0BE35AFC4F10828091E607EC
:10477000813049F584EF97E00E94690B0E947A141A
:104780008823E1F362E979E08DE198E00E942D143D
:104790006DE573E08DE198E00E94D71961E879E05A
:1047A0008DE198E00E942D148091E407813009F496
:1047B00004C18091E507813009F767E679E084EF6D
:1047C00097E00E94220B512C612C712C272D250D76
:1047D00080912208462D869D400D1124420D809126
:1047E0002108672D879D600D1124630D01E08DE187
:1047F00098E00E94800E7394B0E17B12E7CF5B0ECD
:104800006394E8E06E12E1CF80912108982F990F10
:10481000990F891B880F82508A0D809326088091FA
:1048200022088F5F880D809327086BE779E08DE180
:1048300098E00E94910880912108982F990F990F74
:10484000891B880F82508A0D809326088091220848
:104850008F5F880F880D8093270865E779E08DE1E9
:1048600098E00E94910880912108982F990F990F44
:10487000891B880F82508A0D809326088091220818
:1048800091E0980F892F880F890F880D8093270852
:104890006FE679E08DE198E00E94910810923D0862
:1048A00010923E08809122084E2D8E9D400D1124BD
:1048B0004250480D809121086F2D8F9D600D11246D
:1048C00061506A0D27E08DE198E00E94EE0DBB2457
:1048D000B394B0923D08B0923E08E0912208309126
:1048E000210825E02E0F432F4150550BCA0162E0ED
:1048F00070E00E948B3142E0430F480F6E2DEE9D19
:10490000600D11246350680D8F2D3F9D800D112483
:1049100082508A0D0E940A0E809122084EE2481BA6
:1049200024E560E08DE198E00E94EE0D10923D08D4
:1049300010923E0880912208080F4FE2481B24E5A0
:1049400060E08DE198E00E94570E10922608809159
:104950002208542D581B50932708B0923D08B0925E
:104960003E086DE573E08DE198E00E94D7198091D3
:10497000400890914108A0914208B0914308877087
:104980009927AA27BB270497A105B10508F066CD92
:104990001A300CF063CD80912208442D481B6091A1
:1049A0002108169F602D112401E02FE58DE198E08C
:1049B0000E94800E53CD10E0D9CE84EF97E00E9484
:1049C000690B8091080590910905909330038093BD
:1049D0002F036DE5E62E63E0F62E07E213E0D80123
:1049E0001696AD90BC90179718968D909C90A81431
:1049F000B9040CF4ACC041E3A42E43E0B42E57E25A
:104A0000C52E53E0D52E10E000E0F12CE12CF5018D
:104A1000EE0DFF1D6081C8018E0D9F1D0E949D2E11
:104A20002FEFE21AF20A3AE0E316F10481F7D60119
:104A30006C91B2E0CB0ED11CC8010A960E949D2E4B
:104A4000F60132976181C8010B960E949D2E045F8A
:104A50001F4FEBE0AE0EB11C0C331105B1F60E94F6
:104A6000D91910926B0310926A031092C505109227
:104A7000C40510926903109268036FE171E025EBA1
:104A800031E0A9E1B2E090E080E0FB0181939193F5
:104A9000BF01F901119211929F0111AA10AA1D9252
:104AA0001D92D1961C921E92D097AB01445A5E4F34
:104AB000FA011182108201968931910531F721E0C6
:104AC00030E0309396022093950210920C051092DC
:104AD000230510923A051092510510926805109224
:104AE000BC041092C3041092CA041092D104109214
:104AF000D80411E01093AF026BE67CE08DE198E002
:104B00000E946D0B109325080E94A41825E537E03C
:104B100040E060E08DE198E00E94810B82E08093AC
:104B20003D0880933E0814E000E0809102059091DA
:104B30000305081719066CF52FE437E040E0612FF4
:104B40008DE198E00E94810B0F5F195FEECF670146
:104B5000BBE0CB1AD108B601CE0101960E94B93153
:104B6000B701C6010E94B931BE016F5F7F4FC70117
:104B70000E94B931F80197828682B186A0860250E0
:104B800011097601F1E3CF16F3E0DF0609F433CF24
:104B900026CF0091FE041091FF04F801EE0FFF1FD5
:104BA000EB54FE4FA080B18031E0A316B104B1F404
:104BB00021E437E041E065E28DE198E00E94810B5D
:104BC0008091C4059091C505019741F42CE337E02D
:104BD00044E067E28DE198E00E94810BF801EE0F5E
:104BE000FF1FE951FE4FC080D18041E0C416D104BF
:104BF000B1F420E337E043E16DE48DE198E00E94F9
:104C0000810B8091C4059091C505019741F428E27C
:104C100037E045E16DE48DE198E00E94810BF801F9
:104C2000EE0FFF1FE75EFD4FE080F18051E0E516DB
:104C3000F104B1F42AE137E049E265E28DE198E060
:104C40000E94810B8091C4059091C505019741F4A4
:104C50002CE337E049E267E28DE198E00E94810BA6
:104C6000000F111FF801E55BFD4F0081118101303C
:104C70001105B1F42EE037E043E161E08DE198E009
:104C80000E94810B8091C4059091C505019741F464
:104C900028E237E045E164E08DE198E00E94810B75
:104CA00082E0A816B10441F42EEF36E040E064E261
:104CB0008DE198E00E94810B92E0C916D10441F485
:104CC00020EF36E042E16DE48DE198E00E94810B37
:104CD000A2E0EA16F10441F420EE36E049E264E293
:104CE0008DE198E00E94810B0230110541F422ED24
:104CF00036E042E160E08DE198E00E94810B81E0C6
:104D000080933D0880933E080FED14E0BCEB2B2E02
:104D1000B4E03B2EF1018081882399F00180F2817B
:104D2000E02DEE0FFF1FE054FD4F20813181D101B6
:104D300015964C91159713966C918DE198E00E9411
:104D4000810BB7E02B0E311C0215130519F77CE01F
:104D5000E72E75E0F72EF7018081882301F10180AD
:104D6000F281E02DEE0FFF1FEA53FD4F008111810C
:104D7000D70117966D917D918D919C911A970E9404
:104D8000852FD62EF70163817481858196810E94DB
:104D9000852F98014D2D8DE198E00E94810BF7E160
:104DA000EF0EF11C2FE7E21625E0F206A1F6E091E6
:104DB0000005F0910105EE0FFF1FE053FD4F40810C
:104DC00051815C874B875091F804598B8091F9048D
:104DD0008DA39091F6049D8BA091F704AEA32B8533
:104DE0003C85452F692F8DE198E00E94810B8091D1
:104DF0000A0590910B0518161906CCF401979093AB
:104E00000B0580930A0592E090933D0890933E082D
:104E100080FF0DC02B853C8549896D898DE198E027
:104E20000E94810B81E080933D0880933E084EE60E
:104E3000C42E43E0D42E08EB14E0D88ACF86AF8589
:104E4000B8898C91882359F02EEC36E013964C915A
:104E5000139711966C918DE198E00E94810BEF857C
:104E6000F8893B96F88BEF870E171F0741F7D6019D
:104E70008C91882309F4A2C019962D913C911A9720
:104E80002115310509F0E5C013968D919C91149779
:104E900017962D913C911897821B930B14969C9317
:104EA0008E931397D60111968D909C901297C40102
:104EB00006978934910530F413968D919C91029751
:104EC000889710F0F60110823CE0A32E35E0B32E57
:104ED000D5018C91882309F468C01196ED91FC915D
:104EE0001297EE0FFF1FEA53FD4F208131813A8F59
:104EF000298F17964D905D906D907C901A97139620
:104F00008D919D910D90BC91A02D8D8F9E8FAF8F17
:104F1000B8A3F60103811481C301B2010E94852F59
:104F200069A37AA38BA39CA36D8D7E8D8F8D98A191
:104F30000E94852FCB012EECE22E26E0F22E94016A
:104F4000498D5A8D69A17AA10E94B307882369F11E
:104F5000F2E0F0933D08F0933E08C301B2010E94D5
:104F6000852F162F6D8D7E8D8F8D98A10E94852F98
:104F7000298D3A8D412F8DE198E00E94810B21E02F
:104F800020933D0820933E08D5011F968D919C915A
:104F900050972091040530910505821B930B509684
:104FA0009C938E931F97F6011082F7E1AF0EB11C10
:104FB0002FE7A21625E0B20609F08ACF3BE0C30E28
:104FC000D11C4F855889C416D50609F050CF8CEBFB
:104FD000C82E84E0D82ED6011196AD90BC901297C1
:104FE000F501EE0FFF1FE054FD4F408151811596F2
:104FF0006D917C911697EB84FC8409891DA12D8904
:105000003EA113968D919C910E94B307882309F4C9
:105010004FC0F6018081882309F44AC084EF97E0ED
:105020000E94690BF1E0AF16B104B9F122E0A216BB
:10503000B10409F46CC1AB28D9F5809106059091B3
:10504000070501969093070580930605D6011C92EB
:105050002FC0F601818192812130310539F42581FB
:105060003681820F931F928381831CCF22303105BA
:1050700059F413968D919C91149717962D913C910C
:105080001897820F931F0ACF2330310509F00ACFFA
:1050900025813681821B930BE6CF80910405909188
:1050A000050501969093050580930405F60110828D
:1050B000B7E0CB0ED11CC214D30409F08CCF809181
:1050C000F4049091F504009729F001979093F5046A
:1050D0008093F4041CE0212E15E0312E1F86F1018F
:1050E0008081882309F408C18389948918161906D8
:1050F0001CF40197948B838B2091F8043091F90470
:105100003C872B874091F6045091F7045A8B498BCA
:10511000D1011196CD90DC90129717964D905D902D
:105120006D907C901A97C301B2010E94852F698F00
:105130007A8F8B8F9C8FE98DFA8DFE8BED8BD10151
:1051400013968D909D90AD90BC901697E0910005C0
:10515000F0910105EE0FFF1FE053FD4FE080F1805D
:10516000F601EE0FFF1FEA53FD4F208131813E8F84
:105170002D8FC501B4010E94852FCB010B851C85A5
:1051800029893A894D8D5E8D698D7A8D0E94B3078C
:10519000811126C0D10153968D919C91892B01F5E7
:1051A000B2E0CB16D10409F4D5C10CF0BAC0C114D9
:1051B000D10409F40DC1CA94CD2809F453C1D10119
:1051C00011968D919C91B6E0B89FF001B99FF00DBA
:1051D0001124EF5FFE4F84819581F101948B838BC5
:1051E000D1011F968D919C915097181619060CF4B9
:1051F00083C01C9211968D919C91B6E0B89FF001EE
:10520000B99FF00D1124EF5FFE4F848195812091AD
:10521000080530910905820F931F9093090580932B
:105220000805F101C780D084E184F28483809480F2
:10523000A580B68066E070E080E090E00E94B50F47
:1052400070932603609325036130710509F054C003
:10525000ECEBF4E010E000E080818111A8C427E0CD
:10526000209FF001219FF00D1124E454FB4F31E009
:10527000308366E070E080E090E00E94B50F9B0113
:10528000235031092330310508F082C410922603DF
:10529000109225038091020590910305059751F422
:1052A0008091250390912603029721F41092260302
:1052B0001092250357E0509FC001519F900D11247B
:1052C0008C0104541B4F8091250390912603D80133
:1052D00012969C938E931197C501B4010E94852F5D
:1052E000F80174836383C701B6010E94852FD8013A
:1052F00016967C936E931597BF85BF5FBF87E7E1D6
:105300002E0E311CB53009F0EACE0C947D1D809133
:105310000205909103050196909303058093020581
:1053200095CE23E0C216D10409F47DC334E0C31640
:10533000D10409F044CF20E030E040EE50E4C50154
:10534000B4010E947B2F87FFF0C380E090E0A0EEC5
:10535000B0E4F10183839483A583B68369E671E0A9
:1053600080E090E00E94B50FD1011E967C936E9371
:105370001D9721E030E0F10134872387658576852C
:10538000072E000C880B990B0E94BD2F6B017C012E
:105390000E94802F9B01AC01D10113966D917D91EC
:1053A0008D919C9116970E940F2FF1016383748356
:1053B00085839683C701B6010E941E319B01AC0113
:1053C000D10117966D917D918D919C911A97A5C3EE
:1053D00049895A89BA01550F880B990B0E94BD2F34
:1053E0009B01AC01C501B4010E94AC3020E030E06B
:1053F00040E85FE3181664F5C501B4010E940E2F62
:10540000D10113966D937D938D939C9316972B8565
:105410003C85B901330F880B990B0E94BD2F9B016E
:10542000AC01C301B2010E94AC3020E030E040E8A2
:105430005FE318160CF06FC3C301B2010E940E2F78
:10544000D10117966D937D938D939C931A97B7CE48
:10545000C501B4010E940F2FF1016383748385831A
:105460009683D5CFD1011B960D911C91B801012EC9
:10547000000C880B990B0E94BD2FA50194010E947E
:105480000F2F4B015C01F10183829482A582B682C9
:10549000E584F684B7010F2C000C880B990B0E9451
:1054A000BD2FA30192010E940F2F2B013C01D101BE
:1054B00017964D925D926D927C921A9720E030E0A3
:1054C00040E850E40E947B2F87FF06C0F194E194EE
:1054D000F108F101F686E58620E030E040E152E493
:1054E000C301B2010E94AC30181664F4D1011D96BC
:1054F0008D919C911E979195819591091E969C93F3
:105500008E931D9720E030E040EE50E4C501B401D9
:105510000E947B2F87FF06C0119501951109F101AB
:105520001487038720E030E040E952E4C501B4016C
:105530000E94AC3018160CF042CED1011B968D9112
:105540009C911C979195819591091C969C938E93A3
:105550001B9735CEF10163857485072E000C880BEF
:10556000990B0E94BD2F698B7A8B8B8B9C8B9B0137
:10557000AC01C501B4010E947B2F87FF6AC020E007
:1055800030E040E85FE3C501B4010E940F2FD10174
:1055900013966D937D938D939C9316977CE0C72E05
:1055A00075E0D72E1B86F10183809480A580B6809C
:1055B000D6011196ED91FC911297EE0FFF1FEA5361
:1055C000FD4FE080F18017966D917D918D919C91BA
:1055D0001A970E94852F698F7A8F8B8F9C8FF60187
:1055E00063817481858196810E94852F6D8F7E8F66
:1055F0008F8F98A3C501B4010E94852FCB01098D1F
:105600001A8D2D8D3E8D41EA50E06D897E890E9474
:10561000B3078823A9F0FB852F85F21789F0D601FF
:105620008C91882369F020E030E040E85FE3C50119
:10563000B4010E940E2FF1016383748385839683E6
:10564000FB85FF5FFB8727E1C20ED11CF53009F017
:10565000AACFD1011396CD90DD90ED90FC901697D6
:10566000A701960169897A898B899C890E947B2F81
:1056700087FF6AC020E030E040E85FE3C701B60181
:105680000E940E2FF10163837483858396835CE00F
:10569000C52E55E0D52E1B86D10113968D909D9079
:1056A000AD90BC901697D6011196ED91FC91129792
:1056B000EE0FFF1FEA53FD4FE080F18017966D91CA
:1056C0007D918D919C911A970E94852F698F7A8F79
:1056D0008B8F9C8FF60163817481858196810E94F6
:1056E000852F6D8F7E8F8F8F98A3C501B4010E9487
:1056F000852FCB01098D1A8D2D8D3E8D41EA50E00D
:105700006D897E890E94B3078823A9F0FB852F85C8
:10571000F21789F0D6018C91882369F020E030E0FF
:1057200040E85FE3C501B4010E940F2FF1016383DC
:10573000748385839683FB85FF5FFB8727E1C20E19
:10574000D11CF53009F0A8CFD1011D966D917C9147
:10575000072E000C880B990B0E94BD2F4B015C019A
:10576000AC019B01C301B2010E94AC3018160CF0D1
:1057700077C020E030E040E85FE3C301B2010E945F
:105780000E2FF10167837087818792873CE0C32EDB
:1057900035E0D32E1B86D10117964D905D906D900C
:1057A0007C901A97D6011196ED91FC911297EE0F0D
:1057B000FF1FEA53FD4FE080F18017966D917D91B8
:1057C0008D919C911A970E94852F6D8B7E8B8F8B6C
:1057D000988FF60163817481858196810E94852F5F
:1057E000698F7A8F8B8F9C8FC301B2010E94852FA6
:1057F0006D8F7E8F8F8F98A3D10113966D917D91C0
:105800008D919C9116970E94852FCB010D891E8941
:10581000298D3A8D41EA50E06D8D7E8D0E94B3074F
:105820008823A9F0BB85EF85BE1789F0D6018C913E
:10583000882369F020E030E040E85FE3C301B20173
:105840000E940F2FF1016783708781879287FB8504
:10585000FF5FFB8727E1C20ED11CF53009F09BCF1B
:10586000D1011796CD90DD90ED90FC901A97A7018D
:105870009601C501B4010E94AC3018160CF077C037
:1058800020E030E040E85FE3C701B6010E940F2F3F
:10589000F10167837087818792879CE0C92E95E02C
:1058A000D92E1B86D10117964D905D906D907C90FE
:1058B0001A97D6011196ED91FC911297EE0FFF1FEA
:1058C000EA53FD4FE080F18017966D917D918D91A7
:1058D0009C911A970E94852F6D8B7E8B8F8B988F52
:1058E000F60163817481858196810E94852F698F7D
:1058F0007A8F8B8F9C8FC301B2010E94852F6D8F91
:105900007E8F8F8F98A3D10113966D917D918D918C
:105910009C9116970E94852FCB010D891E89298D98
:105920003A8D41EA50E06D8D7E8D0E94B307882349
:10593000A9F0BB85EF85BE1789F0D6018C9188232D
:1059400069F020E030E040E85FE3C301B2010E946B
:105950000E2FF1016783708781879287FB85FF5F38
:10596000FB8727E1C20ED11CF53009F09BCFD10196
:1059700013962D913D914D915C91169769897A8985
:105980008B899C890E947B2F811119CCF101278181
:10599000308541855285C501B4010E947B2F81115C
:1059A0000ECC62E070E080E090E00E94B50F709352
:1059B000260360932503672BD9F460E470E080E050
:1059C00090E00E94B50F685F7F4F8F4F9F4FD101CE
:1059D0001C967C936E931B9717966D917D918D917C
:1059E0009C911A970E94852FF10176876587E7CBF6
:1059F00060E270E080E090E00E94B50F6C5F7F4F46
:105A00008F4F9F4FD1011E967C936E931D971396D7
:105A10006D917D918D919C9116970E94852FF1013A
:105A200074876387CCCB29893A89B901330F880BF6
:105A3000990B0E94BD2F698B7A8B8B8B9C8B9B0162
:105A4000AC01C501B4010E940E2F6B017C0120E066
:105A500030E0A9010E94AC30181624F0F7FAF09457
:105A6000F7F8F0944B855C85BA01550F880B990BBC
:105A70000E94BD2F6D8B7E8B8F8B988F9B01AC010D
:105A8000C301B2010E940E2F6B877C878D879E8792
:105A900020E030E0A9010E94AC3018164CF08B8554
:105AA0009C85AD85BE85B0588B879C87AD87BE87AA
:105AB0002B853C854D855E85C701B6010E94AC30C3
:105AC000181624F529893A894B895C89C501B401E6
:105AD0000E94AC3020E030E040E85FE3181664F448
