:100000000C9426030C944E030C944E030C944E0354
:100010000C944E030C944E030C944E030C944E031C
:100020000C944E030C944E030C944E030C94A60FA8
:100030000C944E030C944E030C944E030C944E03FC
:100040000C945C0F0C944E030C944E030C944E03D2
:100050000C944E030C944E030C944E030C944E03DC
:100060000C944E030C944E030101FF030101F703AE
:100070006C00680000000000240027002A00000037
:100080000000250028002B000500893008023802F6
:10009000497868140000506F6E674C6F63616C4D57
:1000A000756C746900050068013801000005077F60
:1000B0004141417F3E5B4F5B3E3E6B4F6B3E183C88
:1000C000783C18183C7E3C181C577D571C1C5E7FE2
:1000D0005E1C007E43437E007E73737E007E7F7FC6
:1000E0007E7F4141417F30483A060E062979290634
:1000F0007F4141417F60703F02042A1C361C2A7FE9
:100100003E1C080000081C3E7F14227F22143C3C49
:100110003C7EFF18423C817E3E6375633E3E616BD0
:10012000633E3E636B6B3E04027F020410207F201F
:100130001008082A1C08081C2A0808143E554122E9
:10014000637569756310181C1810040C1C0C0400EE
:100150000000000000005F00000007000700147F9F
:10016000147F14042A7F2A10231308646236495628
:1001700020500008070300001C2241000041221CFF
:10018000002A1C3E1C2A08083E080800E060000007
:100190000808080808006060000060100804033EBA
:1001A0005149453E00427F40006251494946214144
:1001B000494D331814127F1027454545393C4A49AB
:1001C000493041211109073649494936064949292B
:1001D0001E0000240000008064000008142241007A
:1001E0001414141414004122140802015909063E83
:1001F000415D594E7C1211127C7F494949363E417E
:100200004141227F4141221C7F494949417F0909DF
:1002100009013E414151327F0808087F00417F417A
:10022000002041413F017F081422417F404040406F
:100230007F020C027F7F0204087F3E4141413E7FE6
:10024000090909063E416141BE7F0919294626492F
:1002500049493201017F01013F4040403F1F20409A
:10026000201F3F4038403F631408146303047804A0
:10027000036151494543007F414100030408106078
:100280000041417F000402010204808080808000E0
:100290000307080020545478407F284444383844E9
:1002A000444428384444287F3854545418087E095C
:1002B000090218A4A49C787F0804047800447D40B7
:1002C00000006080847D7F1010284400417F400042
:1002D0007C047804787C080404783844444438FC6E
:1002E0001824241818242418FC7C08040408085432
:1002F000545420043F4444203C4040207C1C204077
:10030000201C3C4020403C44281028444C909090B5
:100310007C4464544C44000836410000007F0000D7
:100320000041360800180408100C7F4141417F50FD
:100330006F6E67202D20504155534544000500380D
:1003400001680100001753440016137800161314B7
:10035000001510200015201000540A03E181867F4B
:100360003E186D830F0F0E0183866033186DC3191D
:100370008F1803C38E6033186DE330CF1803C39E0C
:10038000603630CDE360CF3006C79E7E3E30CDB3C1
:1003900060CF300CC6F6603330D9B660CF33CFCCE7
:1003A000F66061B0DB1E60CF30D86CE6C061B0DBB8
:1003B0001E618F19986CC6C063B19B0E330F0FB0CE
:1003C00078C6FF7E1F1B061E0F0A0A153A49676E84
:1003D0006F7265006D560A0A504C454153452054D2
:1003E00055524E204F464620004C4F572042415414
:1003F0005445525921200003053F213F1208120A9B
:10040000100A0E1C0E0C1E0C141A14161F161E13A6
:100410001E1E1B1E1E1F1E3F213F3A2F3A173D175F
:100420003F213F181F02040A041F0E04040E1F0A76
:100430001F0A0E0E1F04110E2E252E2F2A2E2629DE
:1004400029021F02081F08150E04040E150E1515AB
:100450001B151B040604040C040000000017000315
:1004600000031F0A1F16371A1904130A153A00034E
:1004700000000E11110E000A040A040E04003000E0
:100480000404040010001804031F111F121F101D84
:10049000151711151F07041F17151D1F151D010125
:1004A0001F1F151F17151F000A00003200040A1134
:1004B0000A0A0A110A040115020E11171E051E1F51
:1004C000150A0E110A1F110E1F15111F05010E111D
:1004D0001D1F041F111F1108100F1F041B1F1010D8
:1004E0001F061F1E040F0E110E1F09060E112E1FD0
:1004F000051A121509011F011F101F0F180F1F0CDD
:100500001F1B041B031C03191513001F11030418E0
:10051000111F000201022020200001020C121E1FE8
:10052000120C0C12120C121F0C1A14041E05242A91
:100530001E1F021C141D1020201D1F0814111F1047
:100540001E041E1E021C0C120C3E0A040C123E1E3F
:10055000040214160A020F120E101E0E100E1E08B0
:100560001E120C1226281E322A26041E21001F00ED
:10057000211E040102013F213FF6E8DBCFC3B8AEE4
:10058000A49B928A827B746E68625C57524E494586
:10059000413E3A3734312E2C292725232145006846
:1005A000010000172B152010204C4F4144455200EC
:1005B000172B16201314000A4E6F2053442063613A
:1005C0007264206F720A6E6F204C4F414445522E68
:1005D0004845580A0A153A45786974001D20466C4A
:1005E000617368696E670A20206C6F616465722EA2
:1005F0002E2E0A0A444F4E2754205455524E204F57
:1006000046462100000000002300260029000404C3
:1006100004040404040402020202020203030303AA
:100620000303010204081020408001020408102086
:10063000010204081020000000080002010000036D
:1006400004070000000000000000751411241FBE04
:10065000CFEFD8E0DEBFCDBF11E0A0E0B1E0E0E435
:10066000FEE202C005900D92A032B107D9F723E057
:10067000A0E2B1E001C01D92A53CB207E1F713E092
:10068000C6E2D3E004C02197FE010E941817C532CC
:10069000D107C9F70E94E70F0C941E170C940000B5
:1006A00090E0880F991FE0917203F0917303E80FB7
:1006B000F91F259134913093830320938203F9012C
:1006C0008591949190916703989F802D1124809338
:1006D0008403F90165917491472F50E08417150642
:1006E00029F020F0F90125913491832F989F802DD6
:1006F0001124809385030895DC01ED91FC91019014
:10070000F081E02D0994AF92BF92CF92DF92EF92E9
:10071000FF920F931F93CF93DF936C017B018B01AB
:10072000040F151FEB015E01AE18BF08C017D107FB
:1007300059F06991D601ED91FC910190F081E02D85
:10074000C6010995892B79F7C501DF91CF911F91DA
:100750000F91FF90EF90DF90CF90BF90AF900895F2
:10076000833081F028F4813099F08230A9F0089527
:100770008730A9F08830C9F08430B1F480918000CE
:100780008F7D03C0809180008F77809380000895D3
:1007900084B58F7784BD089584B58F7DFBCF80911C
:1007A000B0008F778093B00008958091B0008F7D66
:1007B000F9CF1F93CF93DF93282F30E0F901EA5C44
:1007C000F94F8491F901EE5DF94FD491F901E25F9F
:1007D000F94FC491CC23A9F0162F81110E94B003C8
:1007E000EC2FF0E0EE0FFF1FE258FF4FA591B49100
:1007F0008FB7F894EC91111108C0D095DE23DC93EB
:100800008FBFDF91CF911F910895DE2BF8CFCF934B
:10081000C82FF89460E080919B030E94D9038091D7
:100820009C0318161CF460E00E94D903CEBD0000A2
:100830000DB407FEFDCF8EB580919C0318161CF4F5
:1008400061E00E94D9037894CF9108950F931F938C
:10085000CF93809198038F5F809398030EE311E00C
:10086000C0E08C2F80640E94070480E80E94070487
:1008700061E080919B030E94D90380919C0318162C
:100880001CF460E00E94D903F80184E591919EBDBB
:1008900000000DB407FEFDCF9EB58150B9F78091E1
:1008A0009C0318161CF461E00E94D903CF5F0C5A18
:1008B0001F4FC630B1F680E4CF911F910F910C9479
:1008C0000704CF93DF9390E0FC01EE5DF94F249194
:1008D000825F994FFC0184918823C9F090E0880FD2
:1008E000991FFC01EC58FF4FA591B491FC01E2580F
:1008F000FF4FC591D49161110DC09FB7F8948C91B1
:10090000209582238C938881282328839FBFDF91A1
:10091000CF910895623051F49FB7F8943C91822FA3
:10092000809583238C93E8812E2BEFCF8FB7F8949B
:10093000EC912E2B2C938FBFEACFFF920F931F9336
:10094000CF93DF93CEE3D3E0FF24FA9462E08A856D
:100950000E9461042A8530E0F901EA5CF94F849134
:10096000F901EE5DF94F0491F901E25FF94F14913D
:100970001123E1F081110E94B003E12FF0E0EE0FAE
:10098000FF1FEC5FF94FA591B491EC9189890E237B
:1009900069F0811113C0219683E0C534D807B1F600
:1009A000DF91CF911F910F91FF90089589898F5FFB
:1009B000898B60E08A850E946104EDCF8F3F11F43E
:1009C000198AF7CFF98AF5CF1F93CF93DF93182FAA
:1009D000EB0161E00E946104209739F460E0812F0F
:1009E000DF91CF911F910C94D903CF3FD10511F422
:1009F00061E0F5CFE12FF0E0EA5CF94FE491E330FC
:100A000031F140F4E130B1F0E230E1F0C038D1052D
:100A10007CF7E4CFE73029F1E83059F1E430B1F761
:100A200080918000806280938000D0938B00C0937F
:100A30008A0004C084B5806884BDC7BDDF91CF91B2
:100A40001F91089584B5806284BDC8BDF7CF8091A1
:100A50008000806880938000D0938900C0938800D4
:100A6000EDCF8091B00080688093B000C093B30058
:100A7000E5CF8091B00080628093B000C093B40055
:100A8000DDCF8E50806480937C0080917A008064FA
:100A900080937A0080917A0086FDFCCF8091780067
:100AA000909179000895809162038F7149F584E1F6
:100AB0000E944105BC01990F880B990B0E94DB1520
:100AC00026EE3FE34EEC50E40E943F160E94AA152A
:100AD0009B017093590360935803672BB9F084E02E
:100AE00080935703EAE5F3E080E0419151912417A8
:100AF000350718F48093570308958F5F8430A9F762
:100B0000809162038F5F8093620308958FEF8093DB
:100B10005703F6CF3FB7F8948091220190912301BB
:100B2000A0912401B091250126B5A89B05C02F3FB7
:100B300019F00196A11DB11D3FBFBA2FA92F982F03
:100B40008827BC01CD01620F711D811D911D42E0FE
:100B5000660F771F881F991F4A95D1F708958F92C6
:100B60009F92AF92BF92CF92DF92EF92FF924B0192
:100B70005C010E948A056B017C010E948A056C1948
:100B80007D098E099F09683E734081059105A8F390
:100B900021E0821A9108A108B10888EEC80E83E00E
:100BA000D81EE11CF11C81149104A104B10429F7A1
:100BB000FF90EF90DF90CF90BF90AF909F908F907D
:100BC0000895FC01178A158A14A213A2108E1092A0
:100BD000350110923601109239011092B400089537
:100BE0000F931F93CF93DF93EC018B010E94E105DC
:100BF0001E870D871B8A1A8A81E0898389E08E8B84
:100C0000198E1B8E1D8EDF91CF911F910F9108952C
:100C1000E0916C038E2F90E0880F991FE0916A039A
:100C2000F0916B03E80FF91F859194918F3F98071E
:100C300019F410926303089590936F039927880F16
:100C4000991FE0916D03F0916E03E80FF91F659114
:100C5000749183E693E00E94F00580916C038F5FAE
:100C600080936C030895DC01FB0184918F5F1496DF
:100C70008C9314973196E491EF5F1596EC9315974A
:100C80006E5F7F4F5F967C936E935E970895DC0155
:100C9000643570F5403360F590968C919097E62F0F
:100CA000062E000CFF0B242F25952595259594E500
:100CB0002902E00DF11D1124E25CFE4F2081342F4A
:100CC00037708230B1F4822F90E0032E02C09595E8
:100CD00087950A94E2F780958170811114C081E0B4
:100CE00090E001C0880F3A95EAF7809582238083CF
:100CF0000895833091F71C968C91817064276095DC
:100D000061708613ECCF81E090E001C0880F3A95C6
:100D1000EAF7822BECCFAF92BF92CF92DF92EF92A5
:100D2000FF920F931F93CF93DF93182F062FC0E0EE
:100D3000D3E08AEFD82E9EEFE92E842F8470C82E40
:100D4000842F8270B82E842F8870A82E4170F42EC4
:100D5000CF5F8C2F880F8F5FE80ECC2081F0402F63
:100D60004D0F612F6C0F8CE893E00E944706402FD7
:100D70004C0F6D2F610F8CE893E00E944706BB205B
:100D800081F0402F4D1B612F6C0F8CE893E00E9487
:100D90004706402F4C1B6D2F610F8CE893E00E949B
:100DA0004706AA2081F0402F4C0F612F6D1B8CE865
:100DB00093E00E944706402F4D0F612F6C1B8CE87B
:100DC00093E00E944706FF2081F0402F4C1B612FCB
:100DD0006D1B8CE893E00E944706402F4D1B612F4E
:100DE0006C1B8CE893E00E944706CD173CF4E7FCAF
:100DF000AFCFD150D394D394ED0CAACFDF91CF9144
:100E00001F910F91FF90EF90DF90CF90BF90AF9028
:100E100008950F931F93CF93DF93D82F162F042F8E
:100E2000C0E0C0174CF4412F4C0F6D2F8CE893E0BD
:100E30000E944706CF5FF5CFDF91CF911F910F91B1
:100E400008958F929F92AF92BF92CF92DF92EF92CE
:100E5000FF920F931F93CF93DF93082FA62E842E1C
:100E6000922E83E0F82ED0E0C3E09AEFE92E1EEF39
:100E7000BB24B394B20EDF5F1F0D4C2F440F6A2DBD
:100E80006C1BC92CCF0CDA2CDD1A81E04B0D8812BB
:100E900015C0802F8D0F0E9409074C2D6D2D8C2FB2
:100EA000800F0E940907DC1794F417FD04C0C1509D
:100EB000E394E3941E0DF394F394DDCF802F8D1B08
:100EC0000E9409074C2D6D2D802F8C1BEACFDF91DE
:100ED000CF911F910F91FF90EF90DF90CF90BF9037
:100EE000AF909F908F900895CF92DF92EF92FF92F4
:100EF0000F931F93CF93DF937C01D62EC22EC42F66
:100F0000002E000C110B040F111D47FD1A958C2F9C
:100F10000C2E000C990B801791076CF4D0E0DC15B7
:100F200044F46D2D6D0F4C2FC7010E944706DF5F03
:100F3000F6CFCF5FECCFDF91CF911F910F91FF9054
:100F4000EF90DF90CF9008954F925F926F927F92D3
:100F50008F929F92AF92BF92CF92DF92EF92FF92C9
:100F60000F931F93CF93DF93EC016A3049F42885E8
:100F70009D818A85299F800D11248A871986A6C0A4
:100F80006D3009F4A3C0898483E588150CF487C00B
:100F9000DA848FE28D150CF482C018852C812150E3
:100FA000330B129FC001139F900D1124880D911DCA
:100FB00087FC9A95181619060CF071C02D818D2D9D
:100FC0000D2C000C990B129F800D911D11241816E9
:100FD00019060CF064C078A0C82C912CE62EF12CD8
:100FE000292D092C000C330B8C8190E02817390730
:100FF0000CF054C00197E0E02817390771F0E89E23
:10100000F001E99EF00DF89EF00D11242E0F3F1F08
:10101000EE8DFF8DE20FF31FE4915D2C612C492CC6
:10102000480C2D81862D062C000C990B28171906CB
:1010300091F18CF1AE2EB12CE0FF16C0113061F4AD
:10104000462D4D0D642DCE010E944706F501F59504
:10105000E7956394510EE5CF012F212F452D6C2D7F
:10106000CE010E947407F2CF89A198A1891771F36C
:1010700088A3113041F4462D4D0D642DCE010E9400
:10108000470678A2E3CF012F212F452D6C2DCE01ED
:101090000E947407F6CF9394C10EA2CF78A2288540
:1010A0003C818985239F800D112489879F81992305
:1010B00069F0082E000C990B44E550E0239F40197D
:1010C00051091124481759070CF452CF81E090E0E0
:1010D000DF91CF911F910F91FF90EF90DF90CF9014
:1010E000BF90AF909F908F907F906F905F904F9048
:1010F00008950F931F93CF93DF938C01D0E0C0E04E
:10110000F801EC0FFD1F6491662341F08CE893E039
:101110000E94A407892B11F02196F2CFCE01DF9116
:10112000CF911F910F910895089590E080E0089568
:10113000FB0101900020E9F73197AF01461B570BE7
:10114000DC01ED91FC910280F381E02D0994CF93B5
:10115000DF930E947908EC0165E171E08CE893E08F
:101160000E9498088C0F9D1FDF91CF910895EEE3A8
:10117000F1E088EF91E0DF019C011D9221503040A9
:10118000E1F710929503109296038CED95E00E9482
:1011900079080E9426048CB583608CBD8DB58E7F46
:1011A0008DBD88E191E0EEEFFFE309951092920387
:1011B00087EB95E00E94A7080E9426040E949D04E8
:1011C00080915303813039F062E370E080E090E079
:1011D0000E94AF05F3CF08958F929F92AF92BF9276
:1011E000EF92FF920F931F93CF93DF93CDB7DEB7AC
:1011F000A1970FB6F894DEBF0FBECDBF7C01FA01F8
:10120000CB0119A2223008F42AE08E010F5D1F4F96
:10121000822E912CB12CA12CBF01A50194010E941A
:101220007915F901CA016A300CF5605DD8016E9339
:101230008D01232B242B252B79F790E080E010974C
:1012400021F0BD01C7010E949808A1960FB6F8943D
:10125000DEBF0FBECDBFDF91CF911F910F91FF90E9
:10126000EF90BF90AF909F908F900895695CDECF14
:10127000CF92DF92EF92FF920F931F93CF93DF9362
:101280006B01770FEE08FF08F7FE1BC0EC016DE263
:101290000E947C038C0144275527BA014C195D0933
:1012A0006E097F092AE0CE010E94EC08800F911F91
:1012B000DF91CF911F910F91FF90EF90DF90CF9032
:1012C00008952AE0B701A601DF91CF911F910F91F8
:1012D000FF90EF90DF90CF900C94EC084F925F92CC
:1012E0006F927F928F929F92AF92BF92CF92DF9236
:1012F000EF92FF920F931F93CF93DF9300D000D014
:101300001F92CDB7DEB74091BE035091BF036091ED
:10131000C0037091C1032FB7F89480913A01909166
:101320003B01A0913C01B0913D012FBF481B590BDF
:101330006A0B7B0B8091BD0390E0B0E0A0E00091D0
:10134000B9031091BA032091BB033091BC038417F9
:101350009507A607B70708F0CEC0011511052105AE
:10136000310509F4C8C02FB7F89480913A019091E3
:101370003B01A0913C01B0913D012FBF2091BD03E5
:10138000820F911DA11DB11D8093BE039093BF03D9
:10139000A093C003B093C1038091AF039091B003B9
:1013A000A091B103B091B2030196A11DB11D80932C
:1013B000AF039093B003A093B103B093B203109224
:1013C000B9031092BA031092BB031092BC030E949F
:1013D0008A056093B5037093B6038093B703909327
:1013E000B80380913F03909140032FE0289FA00114
:1013F000299F500D11245A83498385E10E9441059C
:10140000A981BA818A0F9B1FB4E096958795BA95FA
:10141000E1F79093400380933F0320913E03222302
:1014200009F448C060914203262F30E050E040E0CC
:1014300029833A834B835C83C0904303D12CF12CE6
:10144000E12C40914603509147034A01B12CA12C55
:1014500020914403309145032901712C612C82179E
:10146000930728F09C014817590708F49A0150E0A7
:1014700040E0241935094609570969817A818B8131
:101480009C816C197D098E099F090E94D416A501C3
:10149000940124193509460957090E944715C20EBF
:1014A000D31EE41EF51EC09241036C2D70E085E052
:1014B0000E94E4040E949D0480915A0390915B0372
:1014C000892B11F00E94530581E00F900F900F902F
:1014D0000F900F90DF91CF911F910F91FF90EF90A0
:1014E000DF90CF90BF90AF909F908F907F906F9044
:1014F0005F904F900895012B022B032B09F075C1CB
:101500008091550381508E3F28F58091540381309E
:1015100009F5809168038F5F6091690387FD09C0B9
:10152000082E000C990B70E06F5F7F4F0E94F01641
:10153000682F6093680380EB95E09093C3038093DA
:10154000C20388E48093C4036DE975E083E693E009
:101550000E94F0058091550381508E3F70F4809178
:101560005303813009F017C383EA95E09093C303D6
:101570008093C20388E48093C4038091630388232B
:1015800031F080916403811102C00E9408068091AD
:101590006403882309F43EC08091780381113AC026
:1015A0008091700390917103E0917503F09176033F
:1015B000EE0FFF1FE80FF91F25913491211531051A
:1015C00009F46AC1A9015695479556954795842F08
:1015D00020FD0DC18F738093770380916703839FF4
:1015E000802D112480937803109288031092870332
:1015F0001092860381E080937A03809339011092E0
:101600007B03809175039091760301969093760306
:101610008093750380917A03882341F08091780349
:10162000811156C183E693E00E94E1058091C403D5
:10163000882309F490C08C3008F034C23CE0381B99
:101640003983FF24F394F09294031092AC03109228
:10165000AD03409191034D831981141B042F0D5F3D
:101660004DE2410F2EE463E08CE893E00E947407A2
:101670005D8154505D83105D252F41E0612F80E531
:101680000E9421072D8142E0612F83E00E94210703
:10169000F092AC03F092AD030091910383E0800FD0
:1016A0008D831981101B9DE2E92EE10E23E0F22EBD
:1016B0004E2D6F2D8CE893E00E944706F39491E540
:1016C000F912F6CFAD81AE0DAD83EA2EEA9483E038
:1016D000F82E4E2D6F2D8CE893E00E944706F39470
:1016E000B1E5FB12F6CF0350105D402F612F80E073
:1016F0000E940907402F612F83E50E94090741E0FE
:10170000612F83E00E948B0642E0612F80E50E94FA
:101710008B062D8124502D8344E0622F80E50E94AA
:101720008B0648E06D8183E00E948B0684E0809305
:101730009503809191033981381B315D3093960375
:101740008091C2039091C3030E9479088091C403E1
:1017500081508093C40380915A0390915B03892B3D
:10176000E1F041E04093AC031092AD0390919003FF
:1017700085E5891B8093950310929603609157032A
:10178000613009F4ECC108F48FC1809156036530D3
:1017900008F0FCC16B5F8111F4C10E9426048091A6
:1017A000920381110EC0EEE3F1E088EF91E0DF01DA
:1017B0009C011D9221503040E1F710929503109248
:1017C00096030E948A056093B9037093BA038093CD
:1017D000BB039093BC032091B5033091B603621B09
:1017E000730B7093B4036093B30380E06ECEC901B2
:1017F000E6E096958795EA95E1F78F71932F969598
:101800009695969590514F70423099F1D0F44423BB
:1018100009F43CC04130B9F1E0917503F0917603D1
:101820003196F0937603E0937503CF01880F991FEB
:10183000E0917003F0917103E80FF91F2591349145
:10184000C1CE433061F0443039F720916703289FBF
:10185000802D11248093800390938103DDCF20910C
:101860006703289F802D112480937E0390937F032C
:10187000D3CF20916703289F802D112480937C0370
:1018800090937D03C9CF0E945003C6CF8B3008F0E0
:101890008AE080937903C0CF20917403211112C094
:1018A0001092640380916303811105C083E693E085
:1018B0000E94E105AFCE0E940806809175039091C9
:1018C0007603B4CF1092760310927503FC01B6CF65
:1018D00081508093780380918803811142C02091C8
:1018E0008603309187032F5F3F4FC901880F991FEF
:1018F000E0918203F0918303E80FF91F85919491A1
:10190000482F477040938903492F46954695409349
:101910008A03AC0164E0569547956A95E1F74F73E9
:1019200090916703499F402D11244093880383FBC6
:10193000882780F9809338013093870320938603AA
:101940008091840390E02817390758F0209185038F
:10195000222309F49FC0821B9109909387038093EF
:1019600086038091880381508093880380917B0354
:1019700031E0380F30937B034091770320918A0345
:10198000240F80916F03280F2093650360917E03DD
:10199000662371F070E0832F032E000C990B0E94D8
:1019A000F01680917F03869F200D112420936503FC
:1019B0008091650390E0849664E270E00E94F016E6
:1019C00080936503209179032093660360917C03E3
:1019D000662381F0062E000C770B832F032E000C5C
:1019E000990B0E94F01680917D03869F200D112493
:1019F00020936603609180036623A1F0832F330F49
:101A0000990B70E00E94F016CB0162E070E00E943A
:101A1000F0162091810390916603289F900D112468
:101A2000909366034F3309F43AC0809166038A307D
:101A30000CF089E087FD80E080936603F894E091E4
:101A40006503F0E0E758FA4FE491E0933701209105
:101A50008B03309166033203900111244091890376
:101A60004203C001439F900D11242091680302C0DE
:101A7000880F991F2A95E2F797FF02C081589F4F60
:101A8000880F892F881F990B809336018093350129
:101A90007894CCCD83E693E00E94E10562CF10926A
:101AA0006603CCCF1982CDCD83E693E00E94E10599
:101AB0001092640351E05093940367EF73E08CE855
:101AC00093E00E94330610925B0310925A03109227
:101AD000920388EA89830E946E098823E1F389EEE4
:101AE00093E00E947908409158035091590370E0A7
:101AF00060E02AE08CE893E00E94EC0884ED93E03B
:101B00000E947908698162956F7070E08CE893E0BB
:101B10000E94380989EC93E00E9479088091530370
:101B2000813009F43ACE9981915099839111D3CFA4
:101B300070E060E085E00E94E40483B7817F846008
:101B400083BF83B7816083BF83B7816083BF88957C
:101B500083B78E7F83BF83B78E7F83BFBCCF8091D7
:101B6000AF039091B003A091B103B091B2038F7015
:101B70009927AA27BB2767E00897A105B10508F0B8
:101B800068E78CE893E00E947C0307CE882309F481
:101B900004CE6FE2F6CF893209F0EFCC0E94B7088D
:101BA000ECCC3F924F925F926F927F928F929F9276
:101BB000AF92BF92CF92DF92EF92FF920F931F935B
:101BC000CF93DF93EC0181E0809394031092930311
:101BD00010929203109256038093AC038093AD034E
:101BE0009AE5892E93E0992E11E00CE00E946E098F
:101BF0008823E1F3FE018491E9E5F3E0A490F40188
:101C0000C4900A2C000CBB081A141B040CF0A3C0CF
:101C10001C140CF0A0C0F090AC039C2D91330CF080
:101C200090E36A2DF5E5AF16B1040CF064E5E090A1
:101C3000980387E0A80EB11C83E0B594A7948A9519
:101C4000E1F770E02EE331E081E04BE553E0C92E8F
:101C5000990FDD087C151D040CF07DC0FA019491EC
:101C6000F1E0FF1220C0FA01D9016894772477F8D7
:101C7000672C692219F06C90682A6C92769429F48A
:101C8000319694916894772477F811966A2E621AA7
:101C9000661670F3880F19F42C5A3F4F81E07F5F6E
:101CA0004A0D5B1DD7CFF1101AC0682E6094FA015F
:101CB000D9016894772477F8592E572019F05C9051
:101CC00056205C92769429F4319694916894772406
:101CD00077F811965A2E521A561670F3DBCFE3E0BE
:101CE000FE1221C0482E4094FA01D901689466245E
:101CF00067F8512C762C792239F07C90352C3E24D3
:101D000030FE0FC0782A7C92669429F43196949123
:101D10006894662467F853941196561658F3E12692
:101D2000B9CF7420F0CFFA01D9016894772477F8FD
:101D3000672C692219F06C9068266C92769429F4CD
:101D4000319694916894772477F811966A2E621AE6
:101D5000661670F39FCF1092950300939603CE0101
:101D60000E94790880919003982F990F990F891BF1
:101D70008D5A8093950380919103982F990F990F15
:101D8000891B835D809396038091AF0384FF6AC0B3
:101D900085E593E00E94A70880919003982F990F02
:101DA000990F891B8D5A80939503809196038F5FBD
:101DB0008093960380916803882309F456C08DE4CC
:101DC00093E00E94A70880919003982F990F990F94
:101DD000891B8D5A80939503809196038F5F809322
:101DE000960385E493E00E94A70880915403813014
:101DF000C1F4809168038F5F6091690387FD09C01A
:101E0000082E000C990B70E06F5F7F4F0E94F01658
:101E1000682F609368036DE975E083E693E00E94A4
:101E2000F00580915303813019F18091AE03482F62
:101E300050E070E060E0C090AF03D090B003E0905D
:101E4000B103F090B203C416D506E606F70610F00B
:101E50008F3F71F480915503813009F0C7CE0E9405
:101E6000B708C4CE81E593E095CF89E493E0A9CF8C
:101E70008FEF8093AE0383E693E00E94E10510921A
:101E800064036DE373E083E693E00E94F00581E074
:101E900080935603DF91CF911F910F91FF90EF90A8
:101EA000DF90CF90BF90AF909F908F907F906F907A
:101EB0005F904F903F9008951F920F920FB60F9230
:101EC00011242F933F938F939F93AF93BF93809150
:101ED0003A0190913B01A0913C01B0913D013091BC
:101EE000210123E0230F2D3758F50196A11DB11DC7
:101EF0002093210180933A0190933B01A0933C01F0
:101F0000B0933D018091220190912301A091240181
:101F1000B09125010196A11DB11D809322019093DE
:101F20002301A0932401B0932501BF91AF919F910C
:101F30008F913F912F910F900FBE0F901F9018958A
:101F400026E8230F0296A11DB11DD2CF1F920F923A
:101F50000FB60F9211242F936F937F938F939F93BC
:101F600060913601662349F1809120018F5F809353
:101F7000200190913701891700F12091390181E00A
:101F8000282720933901109220018091380188235D
:101F900069F08091000193E4899F802D1124895B71
:101FA000809300010E94E4169093350180913501E1
:101FB000211101C080E08093B4009F918F917F91A7
:101FC0006F912F910F900FBE0F901F9018957894DE
:101FD00084B5826084BD84B5816084BD85B582602E
:101FE00085BD85B5816085BD80916E0081608093DF
:101FF0006E00109281008091810082608093810048
:102000008091810081608093810080918000816057
:10201000809380008091B10084608093B1008091B2
:10202000B00081608093B00080917A0084608093DA
:102030007A0080917A00826080937A0080917A00A1
:10204000816080937A0080917A00806880937A0022
:102050001092C10082E38093BD0381E090E0A0E094
:10206000B0E08093B9039093BA03A093BB03B093FD
:10207000BC038FEF8093AE03E0E8F7E7259134913E
:102080002130304C09F0EFC3E6E9F7E7E491E09343
:102090009703E7E9F7E7E491E0934203E8E9F7E71C
:1020A000E491E0934303E9E9F7E7859194919093F4
:1020B000450380934403EBE9F7E78591949190936E
:1020C00047038093460387E080936903EEE9F7E7CF
:1020D000E491E0936803EFE9F7E7E491E093AE035E
:1020E000E0EAF7E78591949190935B0380935A031C
:1020F000E2EAF7E78591949190935D0380935C0306
:10210000E4EAF7E78591949190935F0380935E03EF
:10211000E6EAF7E7859194919093610380936003D9
:10212000C1E0C0933E036FEF70E085E00E94E404DD
:1021300088E08093480389E08093490387E0809397
:102140004A0386E080934B03D4E0D0934C0382E0B3
:1021500080934D0381E180934E030E949D048CE3A4
:102160009FE09093590380935803D0935703C093F3
:1021700062038BE080939A038DE08093990380E162
:1021800080939B038EE080939D038FE080939C035C
:10219000C0939403C093AC031092AD03C093930318
:1021A00067EF73E08CE893E00E943306CFB7F894B2
:1021B00080912601811127C0E8E1F6E08491ECE2EC
:1021C000F6E09491E82FF0E0EE0FFF1FEC58FF4F80
:1021D000A591B491EC91E92321F461E08AE00E9499
:1021E000D90361E08AE00E9461048CB580618CBDF6
:1021F0008CB580648CBD61E08DE00E94610461E07B
:102200008BE00E946104809126018F5F80932601FC
:10221000CFBF8CB58F7D8CBD8CB58C7F81608CBD24
:102220008DB581608DBD8CB58C608CBD61E0809179
:102230009A030E94610461E0809199030E94610405
:1022400061E080919B030E94610480919D031816B8
:102250001CF461E00E94610480919C0318161CF438
:1022600061E00E94610480919D03181674F460E09F
:102270000E94D9036AE070E080E090E00E94AF0520
:1022800061E080919D030E94D90380919903082EFB
:10229000000C990BFC01E25FF94FE491F0E0EE0FC6
:1022A000FF1FE258FF4F259134913093A1032093F3
:1022B000A003FC01EE5DF94FE491E093A703809148
:1022C0009A03082E000C990BFC01E25FF94FE49190
:1022D000F0E0EE0FFF1FE258FF4F2591349130934D
:1022E0009F0320939E03FC01EE5DF94FE491E09380
:1022F000A60380919C03082E000C990BFC01E25F61
:10230000F94FE491F0E0EE0FFF1FE258FF4F2591E7
:1023100034913093A3032093A203FC01EE5DF94FA7
:10232000E491E093A80380919B03082E000C990B85
:10233000FC01E25FF94FE491F0E0EE0FFF1FE2587D
:10234000FF4F259134913093A5032093A403FC0102
:10235000EE5DF94FE491E093A90381E20E94070446
:1023600084E10E9407048091970387FF03C08FE7F1
:10237000809397038091970380680E94070480E20E
:102380000E9407048CE00E9407040E94260481E05A
:102390008093670384E080938B0380E790E09093C1
:1023A00073038093720380E00E94500361E070E049
:1023B00083E00E94E4048091B100887F8160809373
:1023C000B100F89410928000109281001092850064
:1023D0001092840088E191E09093890080938800B6
:1023E000809181008860809381008091810081606C
:1023F0008093810080916F00826080936F00789459
:1024000080915A0390915B03892B11F00E94530530
:1024100080915403813009F453C28091570388237B
:1024200009F44EC268E870E083E693E00E94F0058C
:102430006DEA70E08CE893E00E9433068091AE0371
:10244000882321F086E990E00E94D10DC0905803C6
:10245000D0905903C094D094F12CE12C0E948A05AD
:102460004B015C010E948A05A501940120953095DD
:102470004095509560957095809590950E94D416E2
:102480009B01AC01C701B6010E94D4164B015C014F
:10249000C0903F03D0904003F12CE12C0E948A05AC
:1024A0006C0D7D1D8E1D9F1D680D791D8A1D9B1D48
:1024B000611571058105910511F00E943E1510927C
:1024C00056039AE2492E512C612C712C2BE3222EBB
:1024D000312C33E1832E912C43E0C42ED12C80E0AB
:1024E000A82E80E0B82E0E946E09882309F46DC1E1
:1024F00080915503813069F48091AE03882321F0E7
:102500008FE293E00E94D10D1092560382E08093F7
:1025100094038091500381508E3F68F48091330181
:1025200090913401029797FF02C090E080E0909371
:102530003401809333018091520381508E3F70F4B7
:10254000809133019091340102968132910514F00B
:1025500080E290E09093340180933301E090030196
:10256000F0900401C0913101D0913201CE0DDF1DF8
:10257000D0933201C0933101809101019091020109
:1025800020912F0130913001280F391F37FD9BC159
:102590003093300120932F0180912F0190913001D1
:1025A0008B97BCF08AE290E09093300180932F01EA
:1025B00080910101909102019195819591099093EB
:1025C0000201809301016DE975E083E693E00E94CA
:1025D000F00500912F011091300125962897F8F40D
:1025E000809133019091340198012A5F3F4F821707
:1025F0009307ACF44096081719078CF4D092320177
:10260000C0923101F194E194F108F0920401E0925A
:1026100003016DE975E083E693E00E94F005809187
:102620002B0190912C012091310130913201A901AF
:102630004A5F5F4F841795075CF5AC014D5F5F4FB4
:10264000241735072CF520912D0130912E01A8017A
:102650004A5F5F4F24173507DCF4205F3F4F0217B6
:102660001307B4F40697909332018093310180915F
:102670000301909104019195819591099093040132
:10268000809303016DE975E083E693E00E94F00515
:10269000809131019091320197FF2AC080912901E8
:1026A00090912A01019690932A018093290165EA6D
:1026B00070E083E693E00E94F005909232018092F0
:1026C0003101809103019091040197FF03C091951E
:1026D0008195910990930401809303010E94EF1466
:1026E000A30192010E9447157093300160932F015E
:1026F00080913101909132018F3491056CF180917C
:102700002701909128010196909328018093270139
:1027100065EA70E083E693E00E94F00530923201B2
:1027200020923101809103019091040197FF03C031
:1027300091958195910991958195910990930401C5
:10274000809303010E94EF14A30192010E94471598
:102750007093300160932F0180912701909128019F
:102760000A9731F08091290190912A010A9741F44A
:10277000109228011092270110922A01109229012B
:102780008091540381508E3F68F480912D01909187
:102790002E01029797FF02C090E080E090932E01F7
:1027A00080932D018091530381508E3F70F480916E
:1027B0002D0190912E0102968132910514F080E254
:1027C00090E090932E0180932D0167EF73E08CE8E9
:1027D00093E00E94330692E0909394038FE08093FD
:1027E000950390E1909396036091270170912801E1
:1027F0008CE893E00E94380989E38093950390E187
:10280000909396036091290170912A018CE893E0DE
:102810000E9438096DEA70E08CE893E00E9433066C
:1028200006E026E040912F01609131018CE893E0B1
:102830000E94740700E123E04091330160E08CE8DE
:1028400093E00E94740723E040912D0160912B01D9
:102850008CE893E00E947407A114B10409F443CEFC
:102860000E9400003CCE9CE3909397031092420399
:102870008093430380E293E0909345038093440365
:1028800084ED93E0909347038093460387E0809321
:102890006903809368038CEA9DE090935B038093C7
:1028A0005A038EED9DE090935D0380935C0384E773
:1028B0009EE090935F0380935E038CE39FE02CCCBB
:1028C00010926803B5CD1092300110922F019195AE
:1028D0008195910990930201809301016DE975E062
:1028E00083E693E00E94F00557CE87E8EEE3F3E03D
:1028F000DF011D928A95E9F710928F0310928E03E3
:102900008DE091E090938D0380938C0380E190E0C3
:10291000909334018093330121E530E030932C0112
:1029200020932B0190932E0180932D018AE490E057
:10293000909332018093310185E190E090933001D2
:1029400080932F0108958F929F92AF92BF92CF9262
:10295000DF92EF92FF92CF93DF93EC016881798150
:102960008A819B81611571058105910521F464E2DD
:1029700079ED8BE597E02DE133EF41E050E00E94E7
:10298000471549015A019B01AC01A7EAB1E40E9435
:1029900066156B017C01ACEEB4EFA50194010E94B9
:1029A0007415C60ED71EE81EF91EF7FE06C081E09C
:1029B000C81AD108E10880E8F80AC882D982EA82F8
:1029C000FB82C701B6019F77DF91CF91FF90EF9017
:1029D000DF90CF90BF90AF909F908F9008958F928F
:1029E0009F92AF92BF92CF92DF92EF92FF9260914F
:1029F0000501709106018091070190910801611510
:102A000071058105910521F464E279ED8BE597E08C
:102A10002DE133EF41E050E00E94471549015A0192
:102A20009B01AC01A7EAB1E40E9466156B017C0131
:102A3000ACEEB4EFA50194010E947415C60ED71E2A
:102A4000E81EF91EF7FE06C081E0C81AD108E108A9
:102A500080E8F80AC0920501D0920601E0920701D1
:102A6000F0920801C701B6019F77FF90EF90DF90C9
:102A7000CF90BF90AF909F908F9008956093050185
:102A80007093060180930701909308010895052E25
:102A900097FB1EF400940E945E1557FD07D00E941C
:102AA000791507FC03D04EF40C945E1550954095B3
:102AB000309521953F4F4F4F5F4F089590958095EA
:102AC000709561957F4F8F4F9F4F08950E949B1582
:102AD000A59F900DB49F900DA49F800D911D112472
:102AE0000895B7FF0C9466150E946615821B930B20
:102AF0000895A1E21A2EAA1BBB1BFD010DC0AA1F3F
:102B0000BB1FEE1FFF1FA217B307E407F50720F056
:102B1000A21BB30BE40BF50B661F771F881F991FD1
:102B20001A9469F760957095809590959B01AC011A
:102B3000BD01CF010895A29FB001B39FC001A39F23
:102B4000700D811D1124911DB29F700D811D1124E6
:102B5000911D08950E941E1688F09F5798F0B92F76
:102B60009927B751B0F0E1F0660F771F881F991FC2
:102B70001AF0BA95C9F714C0B13091F00E94381616
:102B8000B1E008950C943816672F782F8827B85F26
:102B900039F0B93FCCF3869577956795B395D9F71A
:102BA0003EF490958095709561957F4F8F4F9F4F24
:102BB0000895E89409C097FB3EF490958095709530
:102BC00061957F4F8F4F9F4F9923A9F0F92F96E979
:102BD000BB279395F695879577956795B795F111EE
:102BE000F8CFFAF4BB0F11F460FF1BC06F5F7F4F8B
:102BF0008F4F9F4F16C0882311F096E911C077239D
:102C000021F09EE8872F762F05C0662371F096E8A5
:102C1000862F70E060E02AF09A95660F771F881F74
:102C2000DAF7880F9695879597F9089557FD90588C
:102C3000440F551F59F05F3F71F04795880F97FB80
:102C4000991F61F09F3F79F087950895121613063A
:102C50001406551FF2CF4695F1DF08C01616170669
:102C60001806991FF1CF869571056105089408959E
:102C7000E894BB2766277727CB0197F908950E9430
:102C800052160C94C3160E94B51638F00E94BC165A
:102C900020F0952311F00C94AC160C94B21611246C
:102CA0000C9439160E94161670F3959FC1F3950F78
:102CB00050E0551F629FF001729FBB27F00DB11DC0
:102CC000639FAA27F00DB11DAA1F649F6627B00D50
:102CD000A11D661F829F2227B00DA11D621F739F39
:102CE000B00DA11D621F839FA00D611D221F749F47
:102CF0003327A00D611D231F849F600D211D822F8E
:102D0000762F6A2F11249F5750409AF0F1F08823B4
:102D10004AF0EE0FFF1FBB1F661F771F881F9150E1
:102D20005040A9F79E3F510580F00C94AC160C94CE
:102D300039165F3FE4F3983ED4F38695779567950F
:102D4000B795F795E7959F5FC1F7FE2B880F911D0B
:102D50009695879597F9089597F99F6780E870E0B1
:102D600060E008959FEF80EC089500240A94161601
:102D7000170618060906089500240A941216130669
:102D8000140605060895092E0394000C11F48823F7
:102D900052F0BB0F40F4BF2B11F460FF04C06F5F13
:102DA0007F4F8F4F9F4F0895DB018F939F930E941A
:102DB0006615BF91AF91A29F800D911DA39F900DAD
:102DC000B29F900D11240895991B79E004C0991FBA
:102DD000961708F0961B881F7A95C9F78095089575
:102DE00097FB072E16F4009407D077FD09D00E94B8
:102DF000041707FC05D03EF4909581959F4F0895E8
:102E0000709561957F4F0895AA1BBB1B51E107C0C8
:102E1000AA1FBB1FA617B70710F0A61BB70B881F6A
:102E2000991F5A95A9F780959095BC01CD010895F9
:102E3000EE0FFF1F0590F491E02D0994F894FFCF59
:102E400001030003000100000000000000A407834C
:102E500003950894080D0A004C4F41444552000068
:00000001FF
