:100000000C94BF030C94E7030C94E7030C94E703F0
:100010000C94E7030C94E7030C94E7030C94E703B8
:100020000C94E7030C94E7030C94E7030C94D215AB
:100030000C94E7030C94E7030C94E7030C94E70398
:100040000C9488150C94E7030C94E7030C94E703D5
:100050000C94E7030C94E7030C94E7030C94E70378
:100060000C94E7030C94E7030101FF030101F7037C
:10007000080780C0E0A0808000080770F8A8F88812
:10008000F8706C0068000500893008023802497871
:100090006814000017534400161378001613140058
:1000A0001510200015201000540A03E181867F3EC0
:1000B000186D830F0F0E0183866033186DC3198F7F
:1000C0001803C38E6033186DE330CF1803C39E60EE
:1000D0003630CDE360CF3006C79E7E3E30CDB36074
:1000E000CF300CC6F6603330D9B660CF33CFCCF604
:1000F0006061B0DB1E60CF30D86CE6C061B0DB1E43
:10010000618F19986CC6C063B19B0E330F0FB07826
:10011000C6FF7E1F1B061E0F4024FFFFFFFFFFFFD1
:10012000FFFF8000000000000001B0180000000088
:100130000001B838003FB45DDDDDBC7801BFA451DB
:100140001515BEFB01B0A4511515BFFB61B02451BC
:100150001515B7D871B024511515B39B71B0245142
:100160001D1DB11B79BC34599199B01B7DB8145138
:100170001115B01A2FB014511115B010A7B01551A8
:100180001115B00483B015511115B023D3BF95518B
:100190001115B017E1BFB29DD1D5B00FFC00000022
:1001A0000005B78FF1FFFFFFFFF5B03FFC00000037
:1001B0000005B00FF00020000495B017E800408063
:1001C00002A5B023C40041040005B0052000820848
:1001D00026B5B0008001C71C7005B0010001C71C26
:1001E00072A5B0008001C71C7495B00100E000004A
:1001F0000001B00081E03285D115B00101E0390580
:100200005109B00081203119DDC9B0010020000082
:100210000001B000802011D59CDDB00100203955CF
:10022000C889B0008070119D9D89B00100F8000060
:100230000001FFFFFFFFFFFFFFFF00450068010017
:100240000000000000240027002A00000000002514
:100250000028002B00050068013801000005003867
:100260000168010000596F7520776F6E21203A29CF
:1002700000596F75206C6F73742E203A28000507A3
:100280007F4141417F3E5B4F5B3E3E6B4F6B3E1873
:100290003C783C18183C7E3C181C577D571C1C5E53
:1002A0007F5E1C007E43437E007E73737E007E7FF4
:1002B0007F7E7F4141417F30483A060E06297929E9
:1002C000067F4141417F60703F02042A1C361C2A90
:1002D0007F3E1C080000081C3E7F14227F22143C35
:1002E0003C3C7EFF18423C817E3E6375633E3E612E
:1002F0006B633E3E636B6B3E04027F020410207F03
:10030000201008082A1C08081C2A0808143E554119
:1003100022637569756310181C1810040C1C0C04FA
:10032000000000000000005F00000007000700144C
:100330007F147F14042A7F2A10231308646236492D
:100340005620500008070300001C224100004122F3
:100350001C002A1C3E1C2A08083E080800E0600019
:100360000008080808080060600000601008040326
:100370003E5149453E00427F400062514949462175
:1003800041494D331814127F1027454545393C4AE1
:100390004949304121110907364949493606494939
:1003A000291E00002400000080640000081422417F
:1003B00000141414141400412214080201590906EF
:1003C0003E415D594E7C1211127C7F494949363EAF
:1003D000414141227F4141221C7F494949417F09D6
:1003E0000909013E414151327F0808087F00417FE1
:1003F00041002041413F017F081422417F4040409D
:10040000407F020C027F7F0204087F3E4141413E53
:100410007F090909063E416141BE7F091929462627
:100420004949493201017F01013F4040403F1F20BF
:1004300040201F3F4038403F631408146303047892
:1004400004036151494543007F4141000304081002
:10045000600041417F0004020102048080808080AE
:10046000000307080020545478407F28444438385B
:1004700044444428384444287F3854545418087E4F
:1004800009090218A4A49C787F0804047800447D1C
:100490004000006080847D7F1010284400417F4030
:1004A000007C047804787C08040478384444443898
:1004B000FC1824241818242418FC7C0804040808B8
:1004C00054545420043F4444203C4040207C1C2091
:1004D00040201C3C4020403C44281028444C909034
:1004E000907C4464544C44000836410000007F0076
:1004F000000041360800180408100C7F4141417F7C
:100500000A0A153A49676E6F7265006D560A0A50FD
:100510004C45415345205455524E204F46462000ED
:100520004C4F572042415454455259212000030555
:100530003F213F1208120A100A0E1C0E0C1E0C144A
:100540001A14161F161E131E1E1B1E1E1F1E3F21D1
:100550003F3A2F3A173D173F213F181F02040A0464
:100560001F0E04040E1F0A1F0A0E0E1F04110E2E6A
:10057000252E2F2A2E262929021F02081F08150EB4
:1005800004040E150E15151B151B040604040C049B
:100590000000000017000300031F0A1F16371A1976
:1005A00004130A153A000300000E11110E000A048C
:1005B0000A040E04003000040404001000180403B0
:1005C0001F111F121F101D151711151F07041F17CC
:1005D000151D1F151D01011F1F151F17151F000ACF
:1005E00000003200040A110A0A0A110A0401150265
:1005F0000E11171E051E1F150A0E110A1F110E1FC0
:1006000015111F05010E111D1F041F111F110810C8
:100610000F1F041B1F10101F061F1E040F0E110EAC
:100620001F09060E112E1F051A121509011F011FA1
:10063000101F0F180F1F0C1F1B041B031C03191581
:1006400013001F11030418111F00020102202020B3
:100650000001020C121E1F120C0C12120C121F0CA5
:100660001A14041E05242A1E1F021C141D1020200B
:100670001D1F0814111F101E041E1E021C0C120C3C
:100680003E0A040C123E1E040214160A020F120E39
:10069000101E0E100E1E081E120C1226281E322AC4
:1006A00026041E21001F00211E040102013F213FDC
:1006B000F6E8DBCFC3B8AEA49B928A827B746E68E7
:1006C000625C57524E4945413E3A3734312E2C290F
:1006D00027252321172B152010204C4F414445522C
:1006E00000172B16201314000A4E6F20534420636A
:1006F000617264206F720A6E6F204C4F4144455204
:100700002E4845580A0A153A45786974001D204656
:100710006C617368696E670A20206C6F6164657232
:100720002E2E2E0A0A444F4E2754205455524E2046
:100730004F46462100000000002300260029000447
:100740000404040404040402020202020203030378
:100750000303030102040810204080010204081072
:10076000200102040810200000000800020100001F
:100770000304070000000000000000000F1811240F
:100780001FBECFEFD8E0DEBFCDBF11E0A0E0B1E0EB
:10079000E0E4F5E302C005900D92AE32B107D9F75F
:1007A00025E0AEE2B1E001C01D92A139B207E1F748
:1007B00013E0CFEBD3E004C02197FE010E94981A0A
:1007C000CE3BD107C9F70E9413160C949E1A0C94C5
:1007D000000090E0880F991FE0913E05F0913F05E1
:1007E000E80FF91F2591349130934F0520934E0562
:1007F000F9018591949190913305989F802D112452
:1008000080935005F90165917491472F50E084174A
:10081000150629F020F0F90125913491832F989F36
:10082000802D1124809351050895AF92BF92CF92ED
:10083000DF92EF92FF920F931F93CF93DF936C01A0
:100840007B018B01040F151FEB015E01AE18BF0881
:10085000C017D10759F06991D601ED91FC91019033
:10086000F081E02DC6010995892B79F7C501DF914B
:10087000CF911F910F91FF90EF90DF90CF90BF909D
:10088000AF900895833081F028F4813099F0823060
:10089000A9F008958730A9F08830C9F08430B1F408
:1008A000809180008F7D03C0809180008F7780933E
:1008B0008000089584B58F7784BD089584B58F7DB9
:1008C000FBCF8091B0008F778093B0000895809126
:1008D000B0008F7DF9CF1F93CF93DF93282F30E0A7
:1008E000F901E959F84F8491F901ED5AF84FD49183
:1008F000F901E15CF84FC491CC23A9F0162F8111C6
:100900000E944204EC2FF0E0EE0FFF1FE55BFD4F6D
:10091000A591B4918FB7F894EC91111108C0D095BE
:10092000DE23DC938FBFDF91CF911F910895DE2BE3
:10093000F8CFCF93C82FF89460E0809167050E94AC
:100940006B048091680518161CF460E00E946B042B
:10095000CEBD00000DB407FEFDCF8EB580916805B9
:1009600018161CF461E00E946B047894CF910895EE
:100970000F931F93CF93809164058F5F80936405DD
:100980000AE013E0C0E08C2F80640E94990480E8A4
:100990000E94990461E0809167050E946B04809138
:1009A000680518161CF460E00E946B04F80184E5E9
:1009B00091919EBD00000DB407FEFDCF9EB5815004
:1009C000B9F78091680518161CF461E00E946B0469
:1009D000CF5F0C5A1F4FC630B1F680E4CF911F9104
:1009E0000F910C949904CF93DF9390E0FC01ED5AA2
:1009F000F84F2491815C984FFC0184918823C9F0C1
:100A000090E0880F991FFC01EF5BFD4FA591B49119
:100A1000FC01E55BFD4FC591D49161110DC09FB7FD
:100A2000F8948C91209582238C93888128232883A5
:100A30009FBFDF91CF910895623051F49FB7F89432
:100A40003C91822F809583238C93E8812E2BEFCFCE
:100A50008FB7F894EC912E2B2C938FBFEACFFF9297
:100A60000F931F93CF93DF93CAE0D5E0FF24FA944E
:100A700062E08A850E94F3042A8530E0F901E95991
:100A8000F84F8491F901ED5AF84F0491F901E15CB6
:100A9000F84F14911123E1F081110E944204E12FDB
:100AA000F0E0EE0FFF1FEB5CF84FA591B491EC91D5
:100AB00089890E2369F0811113C0219685E0C13127
:100AC000D807B1F6DF91CF911F910F91FF90089554
:100AD00089898F5F898B60E08A850E94F304EDCF5E
:100AE0008F3F11F4198AF7CFF98AF5CF1F93CF936F
:100AF000DF93182FEB0161E00E94F304209739F493
:100B000060E0812FDF91CF911F910C946B04CF3F58
:100B1000D10511F461E0F5CFE12FF0E0E959F84F8C
:100B2000E491E33031F140F4E130B1F0E230E1F052
:100B3000C038D1057CF7E4CFE73029F1E83059F12E
:100B4000E430B1F780918000806280938000D09380
:100B50008B00C0938A0004C084B5806884BDC7BD83
:100B6000DF91CF911F91089584B5806284BDC8BD87
:100B7000F7CF80918000806880938000D0938900B7
:100B8000C0938800EDCF8091B00080688093B00062
:100B9000C093B300E5CF8091B00080628093B00035
:100BA000C093B400DDCF8E50806480937C00809130
:100BB0007A00806480937A0080917A0086FDFCCF71
:100BC0008091780090917900089580912E058F7121
:100BD00049F584E10E94D305BC01990F880B990B5C
:100BE0000E945B1926EE3FE34EEC50E40E94BF19D1
:100BF0000E942A199B017093250560932405672B99
:100C0000B9F084E080932305E6E2F5E080E04191CD
:100C100051912417350718F48093230508958F5FA9
:100C20008430A9F780912E058F5F80932E0508955B
:100C30008FEF80932305F6CF3FB7F894809135016D
:100C400090913601A0913701B091380126B5A89B4B
:100C500005C02F3F19F00196A11DB11D3FBFBA2F4E
:100C6000A92F982F8827BC01CD01620F711D811D0E
:100C7000911D42E0660F771F881F991F4A95D1F793
:100C800008958F929F92AF92BF92CF92DF92EF9290
:100C9000FF924B015C010E941C066B017C010E94CB
:100CA0001C066C197D098E099F09683E73408105F9
:100CB0009105A8F321E0821A9108A108B10888EEF5
:100CC000C80E83E0D81EE11CF11C81149104A1041C
:100CD000B10429F7FF90EF90DF90CF90BF90AF90D5
:100CE0009F908F900895FC01178A158A14A213A271
:100CF000108E1092010310920203109205031092BD
:100D0000B40008950F931F93CF93DF93EC018B01F1
:100D10000E9473061E870D871B8A1A8A81E08983C9
:100D200089E08E8B198E1B8E1D8EDF91CF911F91C6
:100D30000F910895E09138058E2F90E0880F991F4C
:100D4000E0913605F0913705E80FF91F85919491F0
:100D50008F3F980719F410922F05089590933B0543
:100D60009927880F991FE0913905F0913A05E80F0E
:100D7000F91F659174918FE295E00E94820680913F
:100D800038058F5F8093380508956BE372E00C940B
:100D90008206DC01FB0184918F5F14968C9314977B
:100DA0003196E491EF5F1596EC9315976E5F7F4F48
:100DB0005F967C936E935E9708952F923F925F9219
:100DC0006F927F928F929F92AF92BF92CF92DF925B
:100DD000EF92FF920F931F93CF93DF93EC01F901F2
:100DE000E4903196849164350CF015C10E2C000C02
:100DF000FF08062F062E000C110BF701E00FF11F64
:100E00001E161F060CF007C140330CF004C1A82FBA
:100E1000C42E042E000CDD085601A80EB11C87FD5F
:100E2000BA941A141B040CF0F6C02E5F3F4F570102
:100E300097E0A90EB11CB7FE04C05701BEE0AB0E8F
:100E4000B11CB3E0B594A794BA95E1F747FF0AC087
:100E5000A42FA80FAC9CC001AD9C900D1124281BA1
:100E6000390B40E08A2F0A2E000C990B840F911D3C
:100E700047FD9A95C19714F0A0E3A41BF8A067FD65
:100E800060E0E535F10514F0E4E5F0E09E2FCC8557
:100E9000C427C62E062E000CDD08F601E01BF10B60
:100EA0008F014F01F7E08F229924E0E8F0E002C0C3
:100EB000F595E7958A94E2F77E2F17FF02C0095F48
:100EC0001F4FF3E015950795FA95E1F7200F311FB5
:100ED000542F577081E001C0880F5A95EAF7459565
:100EE00045954595F601B4E54B02E00DF11D112441
:100EF000AF01465F5C4FD0E02A2EAA0F3308EE24E4
:100F0000E394BB24D21513040CF085C0F90154906E
:100F1000F1E0FF121AC0962E8A01E72F6901991697
:100F200008F057C08E2E852021F0D8018C90882A99
:100F30008C92E69531F4BFEFCB1ADB0AF6015490A0
:100F4000E0E893940F5F1F4FEACFF1101CC0782E9A
:100F50007094962E8A01E72F6901991608F039C01E
:100F60008E2E852021F0D8018C9087208C92E695DA
:100F700031F4BFEFCB1ADB0AF6015490E0E893940A
:100F80000F5F1F4FEACFF3E0FF122CC0782E709452
:100F9000862E8A01972E69018916D0F4E92DE52164
:100FA00041F0D801EC916C2E682460FE0FC0E82B54
:100FB000EC93969439F4BFEFCB1ADB0AF601549008
:100FC000E0E89E2E83940F5F1F4FE6CFE721F0CF1E
:100FD000CE25880F19F44C5A5F4F81E0DF5F2A0D50
:100FE0003B1D90CF962E8A01E72F6901991688F74D
:100FF0008E2E852021F0D8018C9088268C92E69543
:1010000031F4BFEFCB1ADB0AF6015490E0E8939479
:101010000F5F1F4FEBCFDF91CF911F910F91FF908B
:10102000EF90DF90CF90BF90AF909F908F907F9088
:101030006F905F903F902F900895DC01643570F5BC
:10104000403360F590968C919097E62F062E000C19
:10105000FF0B242F25952595259594E52902E00D74
:10106000F11D1124E65FFC4F2081342F3770823050
:10107000B1F4822F90E0032E02C0959587950A94D3
:10108000E2F780958170811114C081E090E001C089
:10109000880F3A95EAF780958223808308958330FC
:1010A00091F71C968C91817064276095617086130E
:1010B000ECCF81E090E001C0880F3A95EAF7822BEF
:1010C000ECCFAF92BF92CF92DF92EF92FF920F934D
:1010D0001F93CF93DF93182F062FC0E0D3E08AEF42
:1010E000D82E9EEFE92E842F8470C82E842F827014
:1010F000B82E842F8870A82E4170F42ECF5F8C2FCD
:10110000880F8F5FE80ECC2081F0402F4D0F612FAC
:101110006C0F88E595E00E941D08402F4C0F6D2F45
:10112000610F88E595E00E941D08BB2081F0402FEB
:101130004D1B612F6C0F88E595E00E941D08402F24
:101140004C1B6D2F610F88E595E00E941D08AA20B9
:1011500081F0402F4C0F612F6D1B88E595E00E94B8
:101160001D08402F4D0F612F6C1B88E595E00E94F4
:101170001D08FF2081F0402F4C1B612F6D1B88E55F
:1011800095E00E941D08402F4D1B612F6C1B88E5C8
:1011900095E00E941D08CD173CF4E7FCAFCFD1507D
:1011A000D394D394ED0CAACFDF91CF911F910F91DF
:1011B000FF90EF90DF90CF90BF90AF900895EF92A7
:1011C000FF920F931F93CF93DF938C01F62ED42FB2
:1011D000E22EC0E0CE1544F46F2D6C0F4D2FC801E8
:1011E0000E941D08CF5FF6CFDF91CF911F910F9125
:1011F000FF90EF9008952F923F924F925F926F92DF
:101200007F928F929F92AF92BF92CF92DF92EF9296
:10121000FF920F931F93CF93DF9300D000D0CDB7F1
:10122000DEB79C838B8364350CF0C2C040330CF076
:10123000BFC0DC011496EC911497E150FF0B0E9F98
:10124000C0010F9F900D1124860F911D67FD9A9587
:10125000181619060CF0ACC015963C911597842F02
:10126000042E000C990B039F800D911D112418165C
:1012700019060CF09DC0142F6A83FD01F0A1F983BB
:10128000562E412CE22EF12CA02E002E000CBB0875
:10129000E42D042C000CFF0BAB81BC8114968C91C7
:1012A000149790E0E817F9070CF07DC00197E81754
:1012B000F90799F1E89E6001E99ED00CF89ED00CE8
:1012C0001124CE0EDF1E5E96ED91FC91EC0DFD1DFE
:1012D000E491712E612C3A80340CAB81BC8115965F
:1012E0002C911597862D062C000C990B28171906A2
:1012F00009F00CF455C0CE2ED12CE0FF26C00130F1
:1013000071F4462D410F632DCD010E941D08F60199
:10131000F595E7956394700EE0CFE0E0DACF272CE7
:101320004501870C911C77FC9A94822D022C000CAD
:10133000990B881599055CF7202F422D652D8B811F
:101340009C810E94DF082394F0CFEB81FC8181A176
:1013500090A18917E1F280A3013061F4462D410F7D
:10136000632DCF010E941D08E981AB81BC8190965D
:10137000EC93CDCF272C4501870C911C77FC9A94D8
:10138000822D022C000C990B881599056CF7202FE3
:10139000422D652D8B819C810E94DF082394F0CF24
:1013A0004394500E75CFE981AB81BC819096EC934C
:1013B0000F900F900F900F90DF91CF911F910F9191
:1013C000FF90EF90DF90CF90BF90AF909F908F9065
:1013D0007F906F905F904F903F902F9008950F9364
:1013E000CF93DF93EC016A3049F428859D818A858B
:1013F000299F800D11248A8719861EC06D30E1F067
:10140000262F08854A8569850E94FB0828853C812E
:101410008985239F800D112489879F81992361F0FD
:10142000082E000C990B44E550E0239F4019510908
:10143000112448175907D4F281E090E0DF91CF9151
:101440000F910895682F88E595E00C94EF090F93AC
:101450001F93CF93DF938C01D0E0C0E0F801EC0F35
:10146000FD1F6491662341F088E595E00E94EF0935
:10147000892B11F02196F2CFCE01DF91CF911F91F0
:101480000F910895EF92FF920F931F93CF93DF93E5
:101490008C01D62FF42EE22EC0E0CE1544F44F2D51
:1014A0004C0F6D2FC8010E941D08CF5FF6CFDF9152
:1014B000CF911F910F91FF90EF9008950F931F937D
:1014C000CF93DF93182FD62FC42F022F242F462F10
:1014D000682F88E595E00E94DF084FEF400F4D0F21
:1014E0002C2F612F88E595E00E94DF08202F4D2FDB
:1014F000612F88E595E00E94420A6FEF6C0F610F43
:10150000202F4D2F88E595E0DF91CF911F910F910E
:101510000C94420A8F929F92AF92BF92CF92DF9229
:10152000EF92FF920F931F93CF93DF93082FB62E66
:10153000942EA22E83E0F82ED0E0C3E09AEFE92E9D
:101540001EEFCC24C394C20EDF5F1F0D2C2F220F81
:101550004B2D4C1B8A2C8F0CDB2CDD1A81E02C0DC3
:10156000602F981218C06D0F88E595E00E94420A1E
:10157000282D4D2D6C2F600F88E595E00E94420AC2
:10158000DC179CF417FD04C0C150E394E3941E0DD6
:10159000F394F394D9CF6D1B88E595E00E94420A3D
:1015A000282D4D2D602F6C1BE7CFDF91CF911F9120
:1015B0000F91FF90EF90DF90CF90BF90AF909F90F2
:1015C0008F900895CF92DF92EF92FF920F931F9327
:1015D000CF93DF93C82FD62F01E010E0FF24FA94B9
:1015E000FC0E8BE08F1508F449C0EE24EA94ED0E52
:1015F00085E08E1508F442C088E0C89FF0011124F0
:10160000ED0FF11DEE0FFF1FEE0FFF1FE55CFE4F0C
:1016100082819381892B91F5808181112FC0138361
:101620000283809139018F5F80933901818181111B
:1016300025C0DD24D394DD0ECC24C394CC0E6D2DB7
:101640008C2D0E94E20A6D2F8C2D0E94E20A6E2DD5
:101650008C2D0E94E20A6D2D8C2F0E94E20A6E2DC5
:101660008C2F0E94E20A6D2D8F2D0E94E20A6D2FB1
:101670008F2D0E94E20ADE2DCF2DB0CFDF91CF91CA
:101680001F910F91FF90EF90DF90CF900895909170
:1016900031018091320122E0290F42E0480FEBEF47
:1016A000F2E03181609130016150939F600D11240F
:1016B0009081899F802D11248C5E0C945E0A30E00D
:1016C00020E0F901E55AFE4F96E08481811121C0A6
:1016D00081E04081411101C080E0408541118F5F70
:1016E000DF0190974C9141118F5FDF015C974C9126
:1016F00041118F5FDF0158974C9141118F5F40A1DD
:1017000041118F5F44A141118F5F40A541118F5F4F
:101710008583915034969111D8CF205E3F4F203869
:1017200081E0380771F60895089590E080E008950B
:101730006F927F928F929F92AF92BF92CF92DF92E1
:10174000EF92FF920F931F93CF93DF9380911F052A
:10175000813009F070C080932E016EE772E088E559
:1017600095E00E94C906D0913101C091320180916B
:10177000FE029091FF0201E021E0029709F463C0AC
:1017800080912E01882309F45CC0E091FB02F0E017
:1017900031968091FC0290E023E0EE0FFF1F2A9526
:1017A000E1F70196E80FF91FEE0FFF1FEE0FFF1F85
:1017B000E55CFE4F82819381892B09F042C029E7C5
:1017C00030E04D2F6C2F88E595E00E94DD066EE23B
:1017D00075E088E595E00E94C906B12CA12C96E140
:1017E000E92EC501855A9E4F6C01712C86E0682E4A
:1017F000D60116968D919C911797F0903001009725
:1018000049F511E01F0D170D812E012E000C9908CE
:10181000B5E08B0E911C812F012E000C990B8815C1
:1018200099052CF523E0412F6E2D88E595E00E9467
:10183000DF081F5FF0CF8F3F09F08FCF10922E018E
:101840008CCF01E022E04D2F6C2F88E595E00E94BF
:10185000FB08BDCF82309105C1F541E04F0D470D2A
:1018600020E730E06E2D88E595E00E94DD066A9461
:10187000B4E0CB0ED11C7D0E6110BACFEC0EE0E2CD
:10188000AE0EB11CF0E8AF16F1E0BF0609F0A9CF2B
:101890002D2F220F2D0F220F2E5F4CE0C49F402DC5
:1018A00011244E5F6FEF6F0D84E1DF91CF911F9197
:1018B0000F91FF90EF90DF90CF90BF90AF909F90EF
:1018C0008F907F906F900C945E0A019781F641E0B3
:1018D0004F0D470DF601848101E02AE2811107C016
:1018E0001596EC91F0E0EB5FFE4F01E020816E2D4C
:1018F00088E595E00E94FB08BACFFB01019000202B
:10190000E9F73197AF01461B570BDC01ED91FC91D4
:101910000280F381E02D0994CF93DF930E94270A80
:10192000EC016BE171E088E595E00E947D0C8C0F85
:101930009D1FDF91CF910895EAE0F3E088EF91E0F9
:10194000DF019C011D9221503040E1F710926105AA
:10195000109262058DE097E00E94270A0E94B80469
:101960008CB583608CBD8DB58E7F8DBD8EE191E091
:10197000EEEFFFE3099510925E0588EE96E00E9477
:101980008C0C0E94B8040E942F0580911F058130A5
:1019900039F062E370E080E090E00E944106F3CF0E
:1019A00008958F929F92AF92BF92EF92FF920F9302
:1019B0001F93CF93DF93CDB7DEB7A1970FB6F894FF
:1019C000DEBF0FBECDBF7C01FA01CB0119A22230D0
:1019D00008F42AE08E010F5D1F4F822E912CB12C4E
:1019E000A12CBF01A50194010E94F918F901CA01B7
:1019F0006A300CF5605DD8016E938D01232B242B8A
:101A0000252B79F790E080E0109721F0BD01C70108
:101A10000E947D0CA1960FB6F894DEBF0FBECDBF1D
:101A2000DF91CF911F910F91FF90EF90BF90AF90FA
:101A30009F908F900895695CDECF4F925F926F9276
:101A40007F928F929F92AF92BF92CF92DF92EF924E
:101A5000FF920F931F93CF93DF9300D000D01F927C
:101A6000CDB7DEB740918A0550918B0560918C050A
:101A700070918D052FB7F89480910603909107031C
:101A8000A0910803B09109032FBF481B590B6A0BA3
:101A90007B0B8091890590E0B0E0A0E00091850586
:101AA0001091860520918705309188058417950748
:101AB000A607B70708F0CEC00115110521053105AD
:101AC00009F4C8C02FB7F8948091060390910703DA
:101AD000A0910803B09109032FBF20918905820FBF
:101AE000911DA11DB11D80938A0590938B05A09334
:101AF0008C05B0938D0580917B0590917C05A0911C
:101B00007D05B0917E050196A11DB11D80937B05D9
:101B100090937C05A0937D05B0937E05109285057A
:101B20001092860510928705109288050E941C0667
:101B3000609381057093820580938305909384055B
:101B400080910B0590910C052FE0289FA001299F03
:101B5000500D11245A83498385E10E94D305A98140
:101B6000BA818A0F9B1FB4E096958795BA95E1F7E5
:101B700090930C0580930B0520910A05222309F40C
:101B800048C060910E05262F30E050E040E02983E8
:101B90003A834B835C83C0900F05D12CF12CE12C50
:101BA00040911205509113054A01B12CA12C2091AE
:101BB0001005309111052901712C612C82179307B2
:101BC00028F09C014817590708F49A0150E040E0BA
:101BD000241935094609570969817A818B819C81CD
:101BE0006C197D098E099F090E94541AA501940160
:101BF00024193509460957090E94C718C20ED31E79
:101C0000E41EF51EC0920D056C2D70E085E00E946B
:101C100076050E942F058091260590912705892B36
:101C200011F00E94E50581E00F900F900F900F904A
:101C30000F90DF91CF911F910F91FF90EF90DF9068
:101C4000CF90BF90AF909F908F907F906F905F905C
:101C50004F900895012B022B032B09F0D9C28091DC
:101C6000210581508E3F18F5809120058130F9F4CF
:101C7000809134058F5F6091350587FD09C0082E7E
:101C8000000C990B70E06F5F7F4F0E94701A682FF5
:101C90006093340581EE96E090938F0580938E05D6
:101CA00088E4809390058FE295E00E94C5068091BC
:101CB000210581508E3F70F480911F05813009F01D
:101CC00022C384ED96E090938F0580938E0588E47F
:101CD0008093900580912F05882331F08091300505
:101CE000811102C00E949A0680913005882309F470
:101CF0003EC08091440581113AC080913C0590918D
:101D00003D05E0914105F0914205EE0FFF1FE80F00
:101D1000F91F259134912115310509F4BDC0A901A0
:101D20005695479556954795842F20FD60C08F7333
:101D30008093430580913305839F802D11248093E8
:101D4000440510925405109253051092520581E0FB
:101D500080934605809305031092470580914105C5
:101D600090914205019690934205809341058091A0
:101D70004605882341F0809144058111A9C08FE276
:101D800095E00E94730680919005882309F4F7C1BD
:101D90008C3008F087C13CE0381B398381E08093A8
:101DA0006005109278051092790540915D054D838C
:101DB00093E0E92EE40E1981141B0DE2010F0E2CA5
:101DC000000CFF08E00EF11C07FDFA94802F002E96
:101DD000000C990B8E159F050CF066C12EE4402F68
:101DE00063E088E595E00E94DF080F5FEFCFC9014F
:101DF000E6E096958795EA95E1F78F71932F969592
:101E00009695969590514F70423099F1D0F44423B5
:101E100009F43CC04130B9F1E0914105F09142052F
:101E20003196F0934205E0934105CF01880F991F49
:101E3000E0913C05F0913D05E80FF91F25913491A3
:101E40006ECF433061F0443039F720913305289F3D
:101E5000802D112480934C0590934D05DDCF20916A
:101E60003305289F802D112480934A0590934B05BC
:101E7000D3CF20913305289F802D112480934805CE
:101E800090934905C9CF0E94E903C6CF8B3008F073
:101E90008AE080934505C0CF20914005211112C0F2
:101EA0001092300580912F05811105C08FE295E0D9
:101EB0000E9473065CCF0E949A0680914105909122
:101EC0004205B4CF1092420510924105FC01B6CFF5
:101ED00081508093440580915405811142C0209126
:101EE0005205309153052F5F3F4FC901880F991F4D
:101EF000E0914E05F0914F05E80FF91F85919491FF
:101F0000482F477040935505492F46954695409375
:101F10005605AC0164E0569547956A95E1F74F7315
:101F200090913305499F402D11244093540583FB24
:101F3000882780F98093040330935305209352053A
:101F40008091500590E02817390758F020915105ED
:101F5000222309F49FC0821B91099093530580931B
:101F60005205809154058150809354058091470516
:101F700031E0380F309347054091430520915605D5
:101F8000240F80913B05280F2093310560914A056D
:101F9000662371F070E0832F032E000C990B0E94D2
:101FA000701A80914B05869F200D112420933105D6
:101FB0008091310590E0849664E270E00E94701A8E
:101FC00080933105209145052093320560914805A5
:101FD000662381F0062E000C770B832F032E000C56
:101FE000990B0E94701A80914905869F200D11243B
:101FF0002093320560914C056623A1F0832F330FA7
:10200000990B70E00E94701ACB0162E070E00E94B0
:10201000701A20914D0590913205289F900D112442
:10202000909332054F3309F43AC0809132058A30DB
:102030000CF089E087FD80E080933205F894E09110
:102040003105F0E0E055F94FE491E093030320916E
:102050005705309132053203900111244091550506
:102060004203C001439F900D11242091340502C00A
:10207000880F991F2A95E2F797FF02C081589F4F5A
:10208000880F892F881F990B809302038093010387
:10209000789479CE8FE295E00E94730662CF109219
:1020A0003205CCCF19827ACE5D8154505D83105DAC
:1020B000252F41E0612F80E50E948A0A2D8142E0B0
:1020C000612F83E00E948A0A81E0809378058093E3
:1020D000790500915D051981101B8DE2F82EF10E36
:1020E0002EE44F2D63E088E595E00E94DF0883E051
:1020F000800F8F0D8D83482F41502EE463E088E5DB
:1021000095E00E94DF080350105D202F412F60E012
:1021100088E595E00E94420A202F412F63E588E57B
:1021200095E00E94420A41E0612F83E00E9461082D
:1021300042E0612F80E50E9461089D8194509D835B
:1021400044E0692F80E50E94610848E06D8183E0EA
:102150000E94610884E08093610580915D05A981FA
:10216000A81BA15DA093620580918E0590918F05BB
:102170000E94270A8091900581508093900580915C
:10218000260590912705892BD9F0B1E0B093780509
:102190001092790590915C0585E5891B8093610516
:1021A0001092620580912305813009F491C090F16D
:1021B00090912205853008F0A1C08B5F911199C0E4
:1021C0000E94B80480915E0581110EC0EAE0F3E040
:1021D00088EF91E0DF019C011D9221503040E1F732
:1021E00010926105109262050E941C06609385059D
:1021F00070938605809387059093880520918105CB
:1022000030918205621B730B7093800560937F058C
:1022100080E00ACD8FE295E00E94730610923005AF
:1022200021E0209360056EE275E088E595E00E946C
:10223000C906109227051092260510925E0538EA0D
:1022400039830E941D0D8823E1F380E295E00E940E
:10225000270A409124055091250570E060E02AE0AE
:1022600088E595E00E94D10C8BE095E00E94270A5A
:10227000498142954F7050E070E060E02AE088E5C7
:1022800095E00E94D10C80E095E00E94270A8091A1
:102290001F05813009F494CF498141504983411190
:1022A000D0CF70E060E085E00E94760583B7817F43
:1022B000846083BF83B7816083BF83B7816083BF3E
:1022C000889583B78E7F83BF83B78E7F83BFB9CF57
:1022D00080917B0590917C05A0917D05B0917E0554
:1022E0008F709927AA27BB270897A105B10520F46D
:1022F00087E00E94220A64CF88E7FBCF992309F484
:102300005FCF8FE2F6CF893209F0E4CC0E949C0CBB
:10231000E1CC8F929F92AF92BF92CF92DF92EF92D9
:10232000FF920F931F93CF93DF9382E380938905EE
:1023300081E090E0A0E0B0E0809385059093860571
:10234000A0938705B09388058FEF80937A05E0E826
:10235000F7E7259134912130304C09F090C2E6E93D
:10236000F7E7E491E0936305E7E9F7E7E491E093A9
:102370000E05E8E9F7E7E491E0930F05E9E9F7E7EF
:10238000859194919093110580931005EBE9F7E7FF
:1023900085919491909313058093120587E0809323
:1023A0003505EEE9F7E7E491E0933405EFE9F7E767
:1023B000E491E0937A05E0EAF7E7859194919093B0
:1023C000270580932605E2EAF7E78591949190939B
:1023D000290580932805E4EAF7E785919491909385
:1023E0002B0580932A05E6EAF7E78591949190936F
:1023F0002D0580932C05C1E0C0930A056FEF70E0B6
:1024000085E00E94760588E08093140589E080933A
:10241000150587E08093160586E080931705D4E0C4
:10242000D093180582E08093190581E180931A0505
:102430000E942F058CE39FE090932505809324054F
:10244000D0932305C0932E058BE0809366058DE025
:102450008093650580E1809367058EE08093690530
:102460008FE080936805C0936005C0937805109253
:102470007905C0935F056EE275E088E595E00E94FE
:10248000C906CFB7F89480912F01811127C0E9E4E4
:10249000F7E08491EDE5F7E09491E82FF0E0EE0F9E
:1024A000FF1FEF5BFD4FA591B491EC91E92321F45F
:1024B00061E08AE00E946B0461E08AE00E94F3041C
:1024C0008CB580618CBD8CB580648CBD61E08DE085
:1024D0000E94F30461E08BE00E94F30480912F01DD
:1024E0008F5F80932F01CFBF8CB58F7D8CBD8CB556
:1024F0008C7F81608CBD8DB581608DBD8CB58C600D
:102500008CBD61E0809166050E94F30461E08091DA
:1025100065050E94F30461E0809167050E94F30461
:102520008091690518161CF461E00E94F304809103
:10253000680518161CF461E00E94F3048091690597
:10254000181674F460E00E946B046AE070E080E0AA
:1025500090E00E94410661E0809169050E946B0451
:1025600080916505082E000C990BFC01E15CF84F89
:10257000E491F0E0EE0FFF1FE55BFD4F25913491F4
:1025800030936D0520936C05FC01ED5AF84FE491F2
:10259000E093730580916605082E000C990BFC01F1
:1025A000E15CF84FE491F0E0EE0FFF1FE55BFD4FBB
:1025B0002591349130936B0520936A05FC01ED5A07
:1025C000F84FE491E093720580916805082E000CA5
:1025D000990BFC01E15CF84FE491F0E0EE0FFF1F76
:1025E000E55BFD4F2591349130936F0520936E0587
:1025F000FC01ED5AF84FE491E09374058091670572
:10260000082E000C990BFC01E15CF84FE491F0E01E
:10261000EE0FFF1FE55BFD4F25913491309371055F
:1026200020937005FC01ED5AF84FE491E093750595
:1026300081E20E94990484E10E94990480916305DB
:1026400087FF03C08FE780936305809163058068EF
:102650000E94990480E20E9499048CE00E949904EF
:102660000E94B80481E08093330584E0809357058D
:1026700082E890E090933F0580933E0580E00E94C1
:10268000E90361E070E083E00E9476058091B1008B
:10269000887F81608093B100F8941092800010923E
:1026A0008100109285001092840088E191E090935F
:1026B00089008093880080918100886080938100E8
:1026C0008091810081608093810080916F008260A1
:1026D00080936F0078948091260590912705892B2F
:1026E00011F00E94E50580912005813009F4F4C0C5
:1026F00080912305882309F4EFC066E870E08FE23B
:1027000095E00E9482066EE772E088E595E00E94FF
:10271000C90680917A05882309F4F9C081E0809385
:10272000600510925F0510925E051092220580935D
:10273000780580937905CAE3D2E01CE00E941D0D64
:102740008823E1F3FE010491011100915D0528EA5F
:1027500030E040E060E088E595E00E94DD064CE076
:10276000400F28E131E060E088E595E00E94DD0659
:1027700010926105109362058AE392E00E94270A95
:1027800080915C05982F990F990F891B8D5A809322
:10279000610580915D05982F990F990F891B835DC5
:1027A0008093620580917B0584FF99C084EA90E064
:1027B0000E948C0C80915C05982F990F990F891BB2
:1027C0008D5A80936105809162058F5F80936205C9
:1027D00080913405882309F485C08CE990E00E943B
:1027E0008C0C80915C05982F990F990F891B8D5A3D
:1027F00080936105809162058F5F8093620584E913
:1028000090E00E948C0C809120058130B1F4809181
:1028100034058F5F6091350587FD09C0082E000CD7
:10282000990B70E06F5F7F4F0E94701A682F609362
:1028300034058FE295E00E94C50680911F05813026
:1028400009F453C080917A05482F50E070E060E0B1
:10285000C0907B05D0907C05E0907D05F0907E05D2
:10286000C416D506E606F70610F08F3FF1F5809105
:102870002105813009F062CF0E949C0C5FCF9CE360
:102880009093630510920E0580930F0580E293E00C
:10289000909311058093100584ED93E090931305B8
:1028A0008093120587E080933505809334058CEA88
:1028B0009DE090932705809326058EED9DE09093F3
:1028C00029058093280584E79EE090932B0580934B
:1028D0002A058CE39FE08BCD1092340514CF80EA5B
:1028E00090E066CF88E990E07ACF8FEF80937A0509
:1028F0008FE295E00E947306109230056DE572E05C
:102900008FE295E00E94820681E0809322056EE2CC
:1029100075E088E595E00E94C906C0902405D09036
:102920002505C094D094F12CE12C0E941C064B018B
:102930005C010E941C06A5019401209530954095EC
:10294000509560957095809590950E94541A9B01C2
:10295000AC01C701B6010E94541A4B015C01C09042
:102960000B05D0900C05F12CE12C0E941C066C0D7F
:102970007D1D8E1D9F1D680D791D8A1D9B1D611576
:1029800071058105910511F00E94BE181092220573
:102990006EE275E088E595E00E94C9061092FF029C
:1029A0001092FE0290E080E0FC01E55AFE4F21E02B
:1029B00014821582178216822F5F34962730C1F752
:1029C00080968038F1E09F0779F71092FB02109211
:1029D000FC02109239011092000381E080933A01C9
:1029E0001092FD02DF91CF911F910F91FF90EF9018
:1029F000DF90CF90BF90AF909F908F9008954F92AF
:102A00005F926F927F928F929F92AF92BF92CF927E
:102A1000DF92EF92FF92CF93DF9300D000D01F920E
:102A2000CDB7DEB71D824BE0C42ED12CE12CF12CAA
:102A300055E0852E912CA12CB12C0E946F182B01F2
:102A40003C010E946F1869837A838B839C83C30146
:102A5000B201A70196010E94C7186F5F7F4F8F4F89
:102A60009F4F662E712C69817A818B819C81A50193
:102A700094010E94C7186F5F7F4F8F4F9F4FE62FC3
:102A8000F0E0C30123E0880F991F2A95E1F7DC01EC
:102A9000AE0FBF1FAA0FBB1FAA0FBB1FA55CBE4F67
:102AA0002C9121111DC02091FB0230E02F5F3F4F80
:102AB0006216730641F42091FC0230E02F5F3F4F15
:102AC000E217F30769F0E80FF91FEE0FFF1FEE0F93
:102AD000FF1FE55CFE4F81E080838D818F5F8D83DA
:102AE0008D818C3009F0A9CF0F900F900F900F902F
:102AF0000F90DF91CF91FF90EF90DF90CF90BF903C
:102B0000AF909F908F907F906F905F904F900895BF
:102B10001F920F920FB60F9211242F933F938F9312
:102B20009F93AF93BF938091060390910703A09169
:102B30000803B09109033091340123E0230F2D37AE
:102B400058F50196A11DB11D209334018093060311
:102B500090930703A0930803B09309038091350174
:102B600090913601A0913701B09138010196A11DD5
:102B7000B11D8093350190933601A0933701B09336
:102B80003801BF91AF919F918F913F912F910F90FD
:102B90000FBE0F901F90189526E8230F0296A11DD7
:102BA000B11DD2CF1F920F920FB60F9211242F9307
:102BB0006F937F938F939F9360910203662349F1F4
:102BC000809133018F5F80933301909103038917C4
:102BD00000F12091050381E028272093050310923E
:102BE000330180910403882369F08091000193E40C
:102BF000899F802D1124895B809300010E94641AB3
:102C00009093010380910103211101C080E0809322
:102C1000B4009F918F917F916F912F910F900FBE74
:102C20000F901F901895789484B5826084BD84B508
:102C3000816084BD85B5826085BD85B5816085BDB7
:102C400080916E00816080936E001092810080916F
:102C500081008260809381008091810081608093F7
:102C60008100809180008160809380008091B1001C
:102C700084608093B1008091B00081608093B00047
:102C800080917A00846080937A0080917A008260DB
:102C900080937A0080917A00816080937A0080919D
:102CA0007A00806880937A001092C1000E94891196
:102CB000E2E04E2E512C01E010E066246394712C6A
:102CC000A0E0EA2EA0E0FA2EB2E0CB2ED12CC5E691
:102CD000AC2EC2E0BC2ED1E78D2ED2E09D2E0E94FC
:102CE0001D0D882309F455C16EE772E088E595E073
:102CF0000E94C90665E271E088E595E00E947D0CBE
:102D00006EE275E088E595E00E94C90640910003F7
:102D100050E070E060E02AE088E595E00E94D10C88
:102D20006BE271E088E595E00E947D0C2AE04CE0C2
:102D300050E060E070E088E595E00E94D10C6EE222
:102D400075E088E595E00E94C9068091FE029091A9
:102D5000FF02892B09F0FDC080911F05813011F51C
:102D60008093FD028091FB0290E001962091FC028D
:102D700030E063E0880F991F6A95E1F72F5F3F4FBE
:102D8000280F391FF901EE0FFF1FEE0FFF1FE55C43
:102D9000FE4F82819381892B09F05CC08FE295E020
:102DA0000E94C50680911F058F3F09F053C0809196
:102DB000FD02882309F44EC080913A01882331F046
:102DC00010923A010E94FF140E945F0B2090FB02B8
:102DD000C22DD0E021963090FC02832D90E0019628
:102DE00043E0CC0FDD1F4A95E1F7C80FD91FCC0F88
:102DF000DD1FCC0FDD1FC55CDE4F8A819B81892BD7
:102E000049F58881882309F4CBC090E080E0FC017B
:102E1000E55AFE4F26E03481332311F017830683F1
:102E2000215034962111F7CF8096803821E0920707
:102E300071F7D092FF02C092FE0290928F058092AD
:102E40008E0584E38093900565E572E08FE295E05E
:102E50000E94820680912005813089F580913A0197
:102E6000882331F010923A010E94FF140E945F0BF8
:102E7000E091FB02F0E031968091FC0290E0019637
:102E800023E0EE0FFF1F2A95E1F7E80FF91FEE0F81
:102E9000FF1FEE0FFF1FE55CFE4F828193810097BD
:102EA00009F0A8C053824282809100038F5F809313
:102EB00000036DE572E08FE295E00E94820680914A
:102EC0002105813011F40E94891180911C05813007
:102ED00061F48091FC02882309F495C081508093AD
:102EE000FC028FE295E00E94C50680911E058130AC
:102EF00061F48091FC02853008F087C08F5F809379
:102F0000FC028FE295E00E94C50680911B0581308E
:102F100061F48091FB02882309F47AC08150809388
:102F2000FB028FE295E00E94C50680911D0581306D
:102F300061F48091FB028B3008F06EC08F5F80934C
:102F4000FB028FE295E00E94C5060E94980B0E944A
:102F5000470B8091FE029091FF02019751F40E946D
:102F6000980B0E94470B80912105813091F40E94BB
:102F700089118091FE029091FF02029751F40E9404
:102F8000980B0E94470B80912105813011F40E941B
:102F90008911E114F10409F4A2CE0E9400009FCE31
:102FA0006DE572E08FE295E00E94820689818111D1
:102FB00019C061E0630D81E0820D0E94E20A8091F8
:102FC00039018C3309F046CF7092FF026092FE0205
:102FD000B0928F05A0928E0524E3209390056DE5B5
:102FE00072E034CF1B830A83809139018F5F809315
:102FF0003901E5CF029709F062CF138212828091E6
:103000000003815054CF85E06ACF1092FC0279CF43
:103010002BE02093FB0285CF1092FB0292CF1092FF
:103020005B0510925A0583E191E0909359058093D6
:10303000580585E08093320187E08093310183E079
:103040008093300108958F929F92AF92BF92CF925A
:10305000DF92EF92FF92CF93DF93EC016881798149
:103060008A819B81611571058105910521F464E2D6
:1030700079ED8BE597E02DE133EF41E050E00E94E0
:10308000C71849015A019B01AC01A7EAB1E40E94AB
:10309000E6186B017C01ACEEB4EFA50194010E942F
:1030A000F418C60ED71EE81EF91EF7FE06C081E012
:1030B000C81AD108E10880E8F80AC882D982EA82F1
:1030C000FB82C701B6019F77DF91CF91FF90EF9010
:1030D000DF90CF90BF90AF909F908F9008958F9288
:1030E0009F92AF92BF92CF92DF92EF92FF92609148
:1030F0000101709102018091030190910401611519
:1031000071058105910521F464E279ED8BE597E085
:103110002DE133EF41E050E00E94C71849015A0108
:103120009B01AC01A7EAB1E40E94E6186B017C01A7
:10313000ACEEB4EFA50194010E94F418C60ED71EA0
:10314000E81EF91EF7FE06C081E0C81AD108E108A2
:1031500080E8F80AC0920101D0920201E0920301D6
:10316000F0920401C701B6019F77FF90EF90DF90C6
:10317000CF90BF90AF909F908F9008956093010182
:103180007093020180930301909304010895052E2A
:1031900097FB1EF400940E94DE1857FD07D00E9492
:1031A000F91807FC03D04EF40C94DE1850954095A6
:1031B000309521953F4F4F4F5F4F089590958095E3
:1031C000709561957F4F8F4F9F4F08950E941B19F7
:1031D000A59F900DB49F900DA49F800D911D11246B
:1031E0000895B7FF0C94E6180E94E618821B930B13
:1031F0000895A1E21A2EAA1BBB1BFD010DC0AA1F38
:10320000BB1FEE1FFF1FA217B307E407F50720F04F
:10321000A21BB30BE40BF50B661F771F881F991FCA
:103220001A9469F760957095809590959B01AC0113
:10323000BD01CF010895A29FB001B39FC001A39F1C
:10324000700D811D1124911DB29F700D811D1124DF
:10325000911D08950E949E1988F09F5798F0B92FEC
:103260009927B751B0F0E1F0660F771F881F991FBB
:103270001AF0BA95C9F714C0B13091F00E94B8198C
:10328000B1E008950C94B819672F782F8827B85F9C
:1032900039F0B93FCCF3869577956795B395D9F713
:1032A0003EF490958095709561957F4F8F4F9F4F1D
:1032B0000895E89409C097FB3EF490958095709529
:1032C00061957F4F8F4F9F4F9923A9F0F92F96E972
:1032D000BB279395F695879577956795B795F111E7
:1032E000F8CFFAF4BB0F11F460FF1BC06F5F7F4F84
:1032F0008F4F9F4F16C0882311F096E911C0772396
:1033000021F09EE8872F762F05C0662371F096E89E
:10331000862F70E060E02AF09A95660F771F881F6D
:10332000DAF7880F9695879597F9089557FD905885
:10333000440F551F59F05F3F71F04795880F97FB79
:10334000991F61F09F3F79F0879508951216130633
:103350001406551FF2CF4695F1DF08C01616170662
:103360001806991FF1CF8695710561050894089597
:10337000E894BB2766277727CB0197F908950E9429
:10338000D2190C94431A0E94351A38F00E943C1A44
:1033900020F0952311F00C942C1A0C94321A11245D
:1033A0000C94B9190E94961970F3959FC1F3950F6B
:1033B00050E0551F629FF001729FBB27F00DB11DB9
:1033C000639FAA27F00DB11DAA1F649F6627B00D49
:1033D000A11D661F829F2227B00DA11D621F739F32
:1033E000B00DA11D621F839FA00D611D221F749F40
:1033F0003327A00D611D231F849F600D211D822F87
:10340000762F6A2F11249F5750409AF0F1F08823AD
:103410004AF0EE0FFF1FBB1F661F771F881F9150DA
:103420005040A9F79E3F510580F00C942C1A0C9443
:10343000B9195F3FE4F3983ED4F386957795679585
:10344000B795F795E7959F5FC1F7FE2B880F911D04
:103450009695879597F9089597F99F6780E870E0AA
:1034600060E008959FEF80EC089500240A941616FA
:10347000170618060906089500240A941216130662
:10348000140605060895092E0394000C11F48823F0
:1034900052F0BB0F40F4BF2B11F460FF04C06F5F0C
:1034A0007F4F8F4F9F4F0895DB018F939F930E9413
:1034B000E618BF91AF91A29F800D911DA39F900D23
:1034C000B29F900D11240895991B79E004C0991FB3
:1034D000961708F0961B881F7A95C9F7809508956E
:1034E00097FB072E16F4009407D077FD09D00E94B1
:1034F000841A07FC05D03EF4909581959F4F08955E
:10350000709561957F4F0895AA1BBB1B51E107C0C1
:10351000AA1FBB1FA617B70710F0A61BB70B881F63
:10352000991F5A95A9F780959095BC01CD010895F2
:10353000EE0FFF1F0590F491E02D0994F894FFCF52
:10354000010100000020313233343536373839007C
:10355000000000EF091504950B940B0D0A004C4F69
:0E35600041444552000A0A0A0A0A002F0000E0
:00000001FF
