:100000000C942D060C9455060C9455060C9455062C
:100010000C9455060C9455060C9455060C945506F4
:100020000C9455060C9455060C9455060C94AE1D74
:100030000C9455060C9455060C9455060C945506D4
:100040000C94641D0C9455060C9455060C9455069E
:100050000C9455060C9455060C9455060C945506B4
:100060000C9455060C945506101000000060062AEA
:100070001A5EF7B4DFECCC1E6FE07F3C32861FB017
:100080002E3C05F801A41140000010100000006093
:1000900006200240F780CE04C8F865C07B0032C855
:1000A000130005C000900080000000001010000048
:1000B0000000400048008000D400A0001000C400F0
:1000C00040002000000000000000000000001010B0
:1000D0007F00FD80FF80FF802F803F8007C207E206
:1000E0000FF30BFF03FF03FF03FE03FC02100630B8
:1000F000101000FE01BF01FF01FF01F401FC43E00D
:1001000047E0CFF0FFD0FFC0FFC07FC03FC0084036
:100110000C6010107F00FD80FF80FF800F803F800B
:1001200007C107E11FF313FF03FF03FF01FE01FCFB
:1001300001100330101000FE01BF01FF01FF01F0AC
:1001400001FC83E087E0CFF8FFC8FFC0FFC07F80DD
:100150003F801100198010100000000020020200F2
:100160000020048000040002202A048001161400EC
:1001700008925601092A00041010000000006600D1
:100180002442346615A4156C17DAD7FE65A235BE75
:10019000798AAFBBEEAF7BBE3FFC101000000000C1
:1001A0000000000000000000000027C22FFE2FA268
:1001B0003FF87FFEFFFFEEEF7FFE3FFC10100000D8
:1001C00000000000000000000000000087C24FFE99
:1001D0006FA23FF87FFEFFFFFFFF77763FFC020232
:1001E000000000180A0FC000307E00486180A8603F
:1001F00040A5A0408DC340800040B80EC0EFFBC0BA
:100200007FFF80180E003000FFE800803C00803F38
:1002100000802D80D17C80800C8089B4809DB88046
:10022000880180B01C80A81580FFFF807FFF001828
:100230000C01800006C000793F80E9B7C0E833C0F8
:10024000E6D7C0EEEFC0910940F92FC0FD0FC0EF17
:10025000FDC07FFF80180C03E0000230007E3F00ED
:10026000823180BE3080BE3080BED18080E0808010
:100270000080B81D80EFF7807FFF00180A07E000BC
:100280007C3F808C3040EC3D40EBFD40873040FFB0
:10029000FFC0FFFFC0EFFDC07FFF800101FF030132
:1002A00001F70305003801680100001753440016E8
:1002B0001378001613140015102000152010005498
:1002C0000A03E181867F3E186D830F0F0E0183863E
:1002D0006033186DC3198F1803C38E6033186DE334
:1002E00030CF1803C39E603630CDE360CF3006C7F1
:1002F0009E7E3E30CDB360CF300CC6F6603330D931
:10030000B660CF33CFCCF66061B0DB1E60CF30D8A3
:100310006CE6C061B0DB1E618F19986CC6C063B11A
:100320009B0E330F0FB078C6FF7E1F1B061E0F40BB
:10033000240000000000000000FFFFFFFFFFFFFFA0
:10034000FE8000000000000002BF3E3B30E3673D3E
:10035000FABF336DE1F36DB1FA8C336CC31B6DB032
:10036000628DBE78C31B6F1C628DB661E31B6C6C23
:10037000628C373B31F1C73C6280000000F800001E
:10038000028000000000000002FFFFFFFFFFFFFFF0
:10039000FE000001E0000000000000061800000060
:1003A000007676C4C81FFE0000556489247FF3C020
:1003B00000764249E47FF3C0004576C5287FFFC040
:1003C00000000006187FFFC000000001E07FFFC0B2
:1003D00000000000007FFFC00030FF01807FFFC0F1
:1003E0000033FFFF8000FFC00033FFFF8007FFC026
:1003F0000033FEC18007FFC00033FEC180001FF044
:10040000063FFFFC00001FF8063FFFFC0001FFFF56
:100410001E7FFFFF8001FFFF1E7FFFFFE001FFFF48
:100420001E7FFFFFE0010FFFFE73E7CFE0000FFF2D
:10043000FE73E7CFE912EF334E7FFFFF955547ADCF
:100440006E3FFFFE14E2439368000000000003FFCC
:10045000F800582B000000000000C0000000000061
:10046000000FFFFE0188020000000003FFFFFF03F2
:1004700018C6800000001FFFFFFF86318D801C0022
:10048000007FFFFFFF8E639B00600000FFFFFFFF08
:100490008C472031C00000FFFFFFFF983F00F603AC
:1004A0008001FC1FFFFF987FFFE40F0001FC1FFF8E
:1004B000FF80F3FFC07E6001FC1FFFFF83E7C007E2
:1004C000F9F001FC1FFFFF0FCFFFFFFFF001FFFF5F
:1004D000FFFF3C3FFF80000001FFFFFFFF3FFF03E6
:1004E000FFFFF001FFFFFFFE3BFFFFFFFFF001FFFB
:1004F000FFFFF86207FFFFFFF001FFFFFF00FFFFB4
:10050000FC00000001FFFFFC1F8FFFFFFFFFF00159
:10051000FFFFF07FFFFFFFFFFFF001FFFFF1FCFF98
:10052000C00000000001FFFFE7878000000000001E
:1005300001FFFFE7FF80000000000003FFFFE1FE76
:10054000FE001FFFFFF003FFFFE03F7FFFFFFFFF05
:10055000F007FFFFF81F9FFFFFFFFFF007FFFFFF00
:10056000EFFE00780000700FFFFFFFE7FFFFFFFFC7
:10057000FFF01FFFFFFFE3F3FFFFFFFFF03FFFFF71
:10058000FC03F9F1E04FFB90FFFFFF8001BE7E3FCF
:10059000387FC0FFFFFF00019E7FFF067EE0FFFF68
:1005A000FF0001DF0FF7E38FE0FFFFFF0001CF8BBC
:1005B0003BFCC660FFFFFF000063C198FF0720FF00
:1005C000FFFF000030F0C607C300FFFFFFFF801BE6
:1005D000386300E000FFFFFFFFC0098C21C000006E
:1005E000FFFFFFFFC0088610400000FFFFFFFEC0B6
:1005F0000CC200000000FFFFFFE6C0046300000023
:1006000000FFFFE06600041800000000FFFFC0309C
:1006100000060C00000000FFFFC000000006000004
:100620000000FFFFC000000002000000004C455623
:10063000454C3A200040240000000000000000FF6C
:10064000FFFFFFFFFFFFFE800000000000000280B0
:100650007080380E45DC02808145201145120288E9
:1006600083CAB015459E229C9A28A0152914728829
:100670008A28A01139122280FA28B80E11D20280DD
:10068000000000000000028000000000000002FFE7
:10069000FFFFFFFFFFFFFE00000000000000000062
:1006A0000001E000000000000006180000000076D5
:1006B00076C508000001FC556489C4000001FC7681
:1006C000424924000001FE4576C5C8000001FE0035
:1006D00000061800000DFE000001E000000DFE0005
:1006E00000000000000DFE0000000000038FFE006F
:1006F0000000000001CFEA00000000380CCFF60037
:100700000000003007FFEA000000003CFFFFFE0091
:100710000000001FFFFFFE000000001FFFFFFE00A3
:100720000000001FFFFFFC000000000FFFFFFC00A7
:1007300000000007FFFFF8244B999607FFFC0055C7
:10074000550A520F8FF9F053890D921FF87BFC0068
:1007500000000079FFF00053636F72653A200018C3
:100760000E1004003258001B3F004E7A0016D18054
:100770005B33004FE7006CDF003F7A002FEA808B8D
:100780009500E5278035EE0006680058100000004F
:100790000000001000000480000000000842013347
:1007A0002662500000000000001219818370FFFFD4
:1007B000FFFFFFFFFFFFFFFFF000000000204008E9
:1007C0000F8F8070F3CFEF9F1801009838C730006B
:1007D000000002000404011039F0000000000010C5
:1007E00050010000700000000001000039CCD8303A
:1007F0009FEFBF8FF01004E0764FF0000000000084
:1008000002403C1BF1F0FFFFFFFFFFFFFFFFFFFF78
:10081000F0000000000000481E070FF0000000007C
:10082000004800F03C7BA000000200100043846000
:10083000C2600000000100100401C0004008080868
:100840001C264349995A3408080076DFBFDF6E3C06
:10085000181009040008007F00FE80FE80FF80FF62
:10086000807F003E001009100008001C003E003A86
:10087000003C001C0018003000581200000000006E
:100880000000000000000000000000000000000068
:100890000000000000000000000000000000000058
:1008A0000000000000000000000000000000000048
:1008B0000000000000000000000000000000000038
:1008C0000000000000000000000000000000000028
:1008D00000000000000000000000000000007C7C20
:1008E0007C7C7C7C7C7C7C7C7C00000000000000AC
:1008F00000000000000000000000000000000000F8
:10090000000000000000000000000700000000E000
:100910000000000000020000000040000000000095
:100920000200008000400000000010020000800073
:10093000400004000810FFFFFFFFFFF77FFFFFE309
:10094000FF580A000000000000F8001F000000002F
:1009500000001F010600E07BBE3B8043DF20E15723
:10096000012A84414460A420EAF1058160A6D5668D
:1009700063B6AAE08B55772A84414466B420EF859C
:10098000054960A6D544681EAAF80555692A844120
:10099000666A9C200A45054960A6D544781EAA08C7
:1009A0000555692A844144029C200A45004820A438
:1009B000559F029B0200000000240027002A00002F
:1009C000000000250028002B0005008930080238AF
:1009D000024978681400000A0A153A49676E6F7276
:1009E00065006D560A0A504C4541534520545552F6
:1009F0004E204F464620004C4F572042415454450C
:100A0000525921200003053F213F1208120A100A03
:100A10000E1C0E0C1E0C141A14161F161E131E1E6E
:100A20001B1E1E1F1E3F213F3A2F3A173D173F2125
:100A30003F181F02040A041F0E04040E1F0A1F0A97
:100A40000E0E1F04110E2E252E2F2A2E26292902C6
:100A50001F02081F08150E04040E150E15151B1590
:100A60001B040604040C040000000017000300032C
:100A70001F0A1F16371A1904130A153A000300003B
:100A80000E11110E000A040A040E040030000404C2
:100A9000040010001804031F111F121F101D15174A
:100AA00011151F07041F17151D1F151D01011F1FFD
:100AB000151F17151F000A00003200040A110A0A48
:100AC0000A110A040115020E11171E051E1F150A30
:100AD0000E110A1F110E1F15111F05010E111D1FEA
:100AE000041F111F1108100F1F041B1F10101F06D9
:100AF0001F1E040F0E110E1F09060E112E1F051AC0
:100B0000121509011F011F101F0F180F1F0C1F1BAB
:100B1000041B031C03191513001F11030418111FD4
:100B2000000201022020200001020C121E1F120CE4
:100B30000C12120C121F0C1A14041E05242A1E1F5C
:100B4000021C141D1020201D1F0814111F101E044C
:100B50001E1E021C0C120C3E0A040C123E1E040245
:100B600014160A020F120E101E0E100E1E081E1270
:100B70000C1226281E322A26041E21001F00211EC8
:100B8000040102013F213FF6E8DBCFC3B8AEA49BCE
:100B9000928A827B746E68625C57524E4945413E30
:100BA0003A3734312E2C29272523214500680100AE
:100BB00000172B152010204C4F4144455200172B95
:100BC00016201314000A4E6F205344206361726490
:100BD000206F720A6E6F204C4F414445522E48459B
:100BE000580A0A153A45786974001D20466C6173ED
:100BF00068696E670A20206C6F616465722E2E2E04
:100C00000A0A444F4E2754205455524E204F464610
:100C10002100000000002300260029000404040431
:100C20000404040402020202020203030303030396
:100C30000102040810204080010204081020010273
:100C4000040810200000000800020100000304074F
:100C50000000000000000000411E11241FBECFEF65
:100C6000D8E0DEBFCDBF11E0A0E0B1E0E2E9F1E401
:100C700002C005900D92A035B107D9F724E0A0E598
:100C8000B1E001C01D92A130B207E1F716E0CDE25C
:100C9000D6E004C02197FE010E94C120CC32D107CA
:100CA000C9F70E94EF1D0C94C7200C940000EAE7DE
:100CB000F3E014AE12AE1092C3031092C20315AE4D
:100CC0001092790110927801109277011092B4007D
:100CD0000895CF93DF93E091A8038E2F90E0880FC3
:100CE000991FE091A603F091A703E80FF91F8591E2
:100CF00094918F3F980729F410929F03DF91CF9131
:100D000008959093AB039927880F991FE091A90349
:100D1000F091AA03E80FF91FC591D4910E945706DC
:100D2000D093AD03C093AC031092B2031092B10301
:100D300081E08093A00389E08093B5031092B8030B
:100D40001092BA031092BC038091A8038F5F809326
:100D5000A803D4CF90E0880F991FE091AE03F091E3
:100D6000AF03E80FF91F259134913093BF0320930F
:100D7000BE03F901859194919091A303989F802DD2
:100D800011248093C003F90165917491472F50E0BD
:100D90008417150629F020F0F90125913491832F4D
:100DA000989F802D11248093C10308954F925F92E4
:100DB0006F927F928F929F92AF92BF92CF92DF926B
:100DC000EF92FF920F931F93CF93DF93FA01A490BA
:100DD000B12C3196C491F701C4903196E49145014C
:100DE000880E991E281539050CF0A3C0C20ED32E0B
:100DF000D11C8C159D050CF09CC0D0E03E01660E08
:100E0000771E061517050CF094C0E00FF12FF11DA9
:100E10006E177F070CF08DC02901481A590A8217F6
:100E200093070CF0412CD801A61BB70B6017710774
:100E30000CF0A0E08C149D041CF05601A81AB90A0D
:100E40006E167F061CF0EF01C61BD70B1A2FA0E809
:100E5000B0E0882E821A962E901A812F90E08C177F
:100E60009D070CF066C0042DC92CC10ED12C202F7B
:100E700030E02A153B050CF05AC0FA01649170E08D
:100E8000695F7F4FE3E075956795EA95E1F7689FA5
:100E9000F001699FF00D789FF00D112463E0359506
:100EA00027956A95E1F72E5F3F4FE20FF31FE40F9E
:100EB000F51FE491202F2770BD0102C0759567953D
:100EC0002A95E2F7F0E0E623F723EF2B71F1F70123
:100ED000249130E0295F3F4F63E0359527956A956F
:100EE000E1F7C29EF001C39EF00DD29EF00D1124D9
:100EF000682D600F262F30E073E0359527957A95A1
:100F0000E1F72E5F3F4FE20FF31FEE0DFF1DE4915F
:100F100067709D0102C0359527956A95E2F7B90182
:100F2000F0E0E223F723EF2BB1F40F5FA0CF1F5FB8
:100F300094CF80E0DF91CF911F910F91FF90EF90C0
:100F4000DF90CF90BF90AF909F908F907F906F90E9
:100F50005F904F90089581E0EDCFDC01ED91FC9121
:100F60000190F081E02D0994EF92FF920F931F936F
:100F7000CF93DF938C017B01D0E0C0E0F701EC0F51
:100F8000FD1F6491662361F0D801ED91FC91019001
:100F9000F081E02DC8010995892B11F02196EECF43
:100FA000CE01DF91CF911F910F91FF90EF900895A7
:100FB000AF92BF92CF92DF92EF92FF920F931F9367
:100FC000CF93DF936C017B018B01040F151FEB01A5
:100FD0005E01AE18BF08C017D10759F06991D6015C
:100FE000ED91FC910190F081E02DC6010995892BCE
:100FF00079F7C501DF91CF911F910F91FF90EF908D
:10100000DF90CF90BF90AF900895833081F028F4A7
:10101000813099F08230A9F008958730A9F08830A6
:10102000C9F08430B1F4809180008F7D03C080913D
:1010300080008F7780938000089584B58F7784BD7A
:10104000089584B58F7DFBCF8091B0008F7780931A
:10105000B00008958091B0008F7DF9CF1F93CF939A
:10106000DF93282F30E0F901EC5BF34F8491F90115
:10107000E05DF34FD491F901E45EF34FC491CC23CA
:10108000A9F0162F81110E940508EC2FF0E0EE0F59
:10109000FF1FE154F64FA591B4918FB7F894EC91EE
:1010A000111108C0D095DE23DC938FBFDF91CF9163
:1010B0001F910895DE2BF8CFCF93C82FF89460E0EE
:1010C0008091D7030E942E088091D80318161CF433
:1010D00060E00E942E08CEBD00000DB407FEFDCFDB
:1010E0008EB58091D80318161CF461E00E942E087A
:1010F0007894CF9108950F931F93CF938091D40349
:101100008F5F8093D4030AE711E0C0E08C2F8064E6
:101110000E945C0880E80E945C0861E08091D7032F
:101120000E942E088091D80318161CF460E00E94DB
:101130002E08F80184E591919EBD00000DB407FED4
:10114000FDCF9EB58150B9F78091D80318161CF4D5
:1011500061E00E942E08CF5F0C5A1F4FC630B1F6D7
:1011600080E4CF911F910F910C945C08CF93DF9393
:1011700090E0FC01E05DF34F2491845E934FFC010D
:1011800084918823C9F090E0880F991FFC01EB54EB
:10119000F64FA591B491FC01E154F64FC591D4915D
:1011A00061110DC09FB7F8948C91209582238C9388
:1011B0008881282328839FBFDF91CF9108956230D3
:1011C00051F49FB7F8943C91822F809583238C93A0
:1011D000E8812E2BEFCF8FB7F894EC912E2B2C9328
:1011E0008FBFEACFFF920F931F93CF93DF93CAE78E
:1011F000D3E0FF24FA9462E08A850E94B6082A852B
:1012000030E0F901EC5BF34F8491F901E05DF34FBD
:101210000491F901E45EF34F14911123E1F081117F
:101220000E940508E12FF0E0EE0FFF1FEE5EF34F86
:10123000A591B491EC9189890E2369F0811113C0B5
:10124000219683E0C138D807B1F6DF91CF911F9185
:101250000F91FF90089589898F5F898B60E08A855F
:101260000E94B608EDCF8F3F11F4198AF7CFF98AA3
:10127000F5CF1F93CF93DF93182FEB0161E00E940E
:10128000B608209739F460E0812FDF91CF911F914C
:101290000C942E08CF3FD10511F461E0F5CFE12F7A
:1012A000F0E0EC5BF34FE491E33031F140F4E130F6
:1012B000B1F0E230E1F0C038D1057CF7E4CFE7309F
:1012C00029F1E83059F1E430B1F780918000806273
:1012D00080938000D0938B00C0938A0004C084B5B3
:1012E000806884BDC7BDDF91CF911F91089584B5FB
:1012F000806284BDC8BDF7CF8091800080688093F4
:101300008000D0938900C0938800EDCF8091B00019
:1013100080688093B000C093B300E5CF8091B000A7
:1013200080628093B000C093B400DDCF8E508064A3
:1013300080937C0080917A00806480937A00809111
:101340007A0086FDFCCF8091780090917900089515
:1013500080919E038F7149F584E10E949609BC013A
:10136000990F880B990B0E94841F26EE3FE34EECE9
:1013700050E40E94E81F0E94531F9B017093950345
:1013800060939403672BB9F084E080939303E6E9BC
:10139000F3E080E0419151912417350718F48093D0
:1013A000930308958F5F8430A9F780919E038F5F28
:1013B00080939E0308958FEF80939303F6CF3FB7FA
:1013C000F89480916C0190916D01A0916E01B091A3
:1013D0006F0126B5A89B05C02F3F19F00196A11DEE
:1013E000B11D3FBFBA2FA92F982F8827BC01CD016F
:1013F000620F711D811D911D42E0660F771F881FCE
:10140000991F4A95D1F708958F929F92AF92BF92FC
:10141000CF92DF92EF92FF924B015C010E94DF09B5
:101420006B017C010E94DF096C197D098E099F09FF
:10143000683E734081059105A8F321E0821A910866
:10144000A108B10888EEC80E83E0D81EE11CF11C8B
:1014500081149104A104B10429F7FF90EF90DF906B
:10146000CF90BF90AF909F908F900895CF93DF93D0
:1014700082E38093F90381E090E0A0E0B0E0809304
:10148000F5039093F603A093F703B093F8038FEF5F
:101490008093EA03E0E8F7E7259134912130304C5E
:1014A00009F0F5C1E6E9F7E7E491E093D303E7E952
:1014B000F7E7E491E0937E03E8E9F7E7E491E0934E
:1014C0007F03E9E9F7E785919491909381038093F5
:1014D0008003EBE9F7E785919491909383038093E0
:1014E000820387E08093A503EEE9F7E7E491E093B8
:1014F000A403EFE9F7E7E491E093EA03E0EAF7E712
:10150000859194919093970380939603E2EAF7E78D
:10151000859194919093990380939803E4EAF7E777
:101520008591949190939B0380939A03E6EAF7E761
:101530008591949190939D0380939C03C1E0C09307
:101540007A036FEF70E085E00E94390988E08093AC
:10155000840389E08093850387E08093860386E097
:1015600080938703D4E0D093880382E0809389033B
:1015700081E180938A030E94F2088CE39FE09093BC
:10158000950380939403D0939303C0939E038BE0C1
:101590008093D6038DE08093D50380E18093D703B9
:1015A0008EE08093D9038FE08093D803C093D0035B
:1015B000C093E8031092E903C093CF03E5E0FAE09B
:1015C000E491EF5FE093CC03E6E0FAE0E491EF5FB3
:1015D000E093CD0387E09AE09093E7038093E603DE
:1015E000CFB7F89480917001811127C0E6E2FCE04A
:1015F0008491EAE3FCE09491E82FF0E0EE0FFF1F06
:10160000EB54F64FA591B491EC91E92321F461E0FC
:101610008AE00E942E0861E08AE00E94B6088CB53C
:1016200080618CBD8CB580648CBD61E08DE00E94D2
:10163000B60861E08BE00E94B608809170018F5F70
:1016400080937001CFBF8CB58F7D8CBD8CB58C7FA6
:1016500081608CBD8DB581608DBD8CB58C608CBD7D
:1016600061E08091D6030E94B60861E08091D503C5
:101670000E94B60861E08091D7030E94B60880916D
:10168000D90318161CF461E00E94B6088091D803B3
:1016900018161CF461E00E94B6088091D903181650
:1016A00074F460E00E942E086AE070E080E090E050
:1016B0000E94040A61E08091D9030E942E08809163
:1016C000D503082E000C990BFC01E45EF34FE49166
:1016D000F0E0EE0FFF1FE154F64F25913491309367
:1016E000DD032093DC03FC01E05DF34FE491E09324
:1016F000E3038091D603082E000C990BFC01E45EF5
:10170000F34FE491F0E0EE0FFF1FE154F64F259107
:1017100034913093DB032093DA03FC01E05DF34F57
:10172000E491E093E2038091D803082E000C990B1A
:10173000FC01E45EF34FE491F0E0EE0FFF1FE15493
:10174000F64F259134913093DF032093DE03FC01A3
:10175000E05DF34FE491E093E4038091D703082E1A
:10176000000C990BFC01E45EF34FE491F0E0EE0F06
:10177000FF1FE154F64F259134913093E1032093FC
:10178000E003FC01E05DF34FE491E093E50381E2C7
:101790000E945C0884E10E945C088091D30387FF6B
:1017A00003C08FE78093D3038091D30380680E94A6
:1017B0005C0880E20E945C088CE00E945C080E9449
:1017C0007B0881E08093A30384E08093C70381EBCF
:1017D00099E09093AF038093AE0380E00E94AA0645
:1017E00061E070E083E00E9439098091B100887F58
:1017F00081608093B100F894109280001092810073
:10180000109285001092840088E191E09093890005
:10181000809388008091810088608093810080910E
:10182000810081608093810080916F00826080934D
:101830006F0078948091960390919703892B11F013
:101840000E94A80980919003813009F44DC08091D5
:101850009303882309F448C00E94570689EC99E055
:101860009093AD038093AC031092B2031092B10336
:1018700081E08093A00389E08093B5031092B803C0
:101880001092BA031092BC03DF91CF9108959CE3AC
:101890009093D30310927E0380937F0380E293E0C2
:1018A000909381038093800384ED93E0909383036E
:1018B0008093820387E08093A5038093A4038CEA3E
:1018C0009DE090939703809396038EED9DE0909317
:1018D00099038093980384E79EE090939B03809301
:1018E0009A038CE39FE026CE1092A403CDCF2F92D3
:1018F0003F925F926F927F928F929F92AF92BF9230
:10190000CF92DF92EF92FF920F931F93CF93DF93CB
:10191000EC01F901E4903196849164350CF015C125
:101920000E2C000CFF08062F062E000C110BF701E1
:10193000E00FF11F1E161F060CF007C140330CF01C
:1019400004C1A82FC42E042E000CDD085601A80ED9
:10195000B11C87FDBA941A141B040CF0F6C02E5F5C
:101960003F4F570197E0A90EB11CB7FE04C05701C5
:10197000BEE0AB0EB11CB3E0B594A794BA95E1F705
:1019800047FF0AC0A42FA80FAC9CC001AD9C900DCE
:101990001124281B390B40E08A2F0A2E000C990BCA
:1019A000840F911D47FD9A95C19714F0A0E3A41BE5
:1019B000F8A067FD60E0E535F10514F0E4E5F0E03E
:1019C0009E2FCC85C427C62E062E000CDD08F601FE
:1019D000E01BF10B8F014F01F7E08F229924E0E823
:1019E000F0E002C0F595E7958A94E2F77E2F17FFA5
:1019F00002C0095F1F4FF3E015950795FA95E1F7CF
:101A0000200F311F542F577081E001C0880F5A9565
:101A1000EAF7459545954595F601B4E54B02E00D8D
:101A2000F11D1124AF0146585E4FD0E02A2EAA0FB7
:101A30003308EE24E394BB24D21513040CF085C0C4
:101A4000F9015490F1E0FF121AC0962E8A01E72F97
:101A50006901991608F057C08E2E852021F0D80113
:101A60008C90882A8C92E69531F4BFEFCB1ADB0A72
:101A7000F6015490E0E893940F5F1F4FEACFF11006
:101A80001CC0782E7094962E8A01E72F6901991652
:101A900008F039C08E2E852021F0D8018C90872047
:101AA0008C92E69531F4BFEFCB1ADB0AF601549025
:101AB000E0E893940F5F1F4FEACFF3E0FF122CC0D2
:101AC000782E7094862E8A01972E69018916D0F49B
:101AD000E92DE52141F0D801EC916C2E682460FEDF
:101AE0000FC0E82BEC93969439F4BFEFCB1ADB0AC6
:101AF000F6015490E0E89E2E83940F5F1F4FE6CFCF
:101B0000E721F0CFCE25880F19F44C5A5F4F81E0C2
:101B1000DF5F2A0D3B1D90CF962E8A01E72F6901CA
:101B2000991688F78E2E852021F0D8018C90882672
:101B30008C92E69531F4BFEFCB1ADB0AF601549094
:101B4000E0E893940F5F1F4FEBCFDF91CF911F9190
:101B50000F91FF90EF90DF90CF90BF90AF909F904C
:101B60008F907F906F905F903F902F900895DC0151
:101B7000643570F5403360F590968C919097E62F20
:101B8000062E000CFF0B242F25952595259594E511
:101B90002902E00DF11D1124E658FE4F2081342F5B
:101BA00037708230B1F4822F90E0032E02C09595F9
:101BB00087950A94E2F780958170811114C081E0C5
:101BC00090E001C0880F3A95EAF7809582238083E0
:101BD0000895833091F71C968C91817064276095ED
:101BE00061708613ECCF81E090E001C0880F3A95D8
:101BF000EAF7822BECCFAF92BF92CF92DF92EF92B7
:101C0000FF920F931F93CF93DF93182F062FC0E0FF
:101C1000D3E08AEFD82E9EEFE92E842F8470C82E51
:101C2000842F8270B82E842F8870A82E4170F42ED5
:101C3000CF5F8C2F880F8F5FE80ECC2081F0402F74
:101C40004D0F612F6C0F88EC93E00E94B70D402F71
:101C50004C0F6D2F610F88EC93E00E94B70DBB20F5
:101C600081F0402F4D1B612F6C0F88EC93E00E9498
:101C7000B70D402F4C1B6D2F610F88EC93E00E9435
:101C8000B70DAA2081F0402F4C0F612F6D1B88ECFF
:101C900093E00E94B70D402F4D0F612F6C1B88EC15
:101CA00093E00E94B70DFF2081F0402F4C1B612F65
:101CB0006D1B88EC93E00E94B70D402F4D1B612FE8
:101CC0006C1B88EC93E00E94B70DCD173CF4E7FC49
:101CD000AFCFD150D394D394ED0CAACFDF91CF9155
:101CE0001F910F91FF90EF90DF90CF90BF90AF903A
:101CF00008959F92AF92BF92CF92DF92EF92FF92A0
:101D00000F931F93CF93DF93C82FD62F042FE22E6C
:101D1000022E000CFF08E61AF10867FDF394F7FEA7
:101D200003C0F194E194F108C02E002E000CDD08F0
:101D3000CC1AD108C7FDD394D7FE03C0D194C19467
:101D4000D108CE14DF0434F4802F022F282F8C2FDB
:101D5000CD2FD82F0C1734F48D2FD22F282F8C2F66
:101D6000C02F082FA02EAC1A822F022E000C990B28
:101D70008D1B9109D7FD939597FF03C09195819590
:101D80009109B82E1A2DA7FE02C011E01A0D159563
:101D900099249A94D21714F4992493940C1794F0DC
:101DA0004C2F6D2FCE14DF0414F04D2F6C2F88ECC8
:101DB00093E00E94B70D1B1917FF02C0D90D1A0D31
:101DC000CF5FECCFDF91CF911F910F91FF90EF90FC
:101DD000DF90CF90BF90AF909F900895EF92FF92C9
:101DE0000F931F93CF93DF938C01F62ED42FE22E07
:101DF000C0E0CE1544F46F2D6C0F4D2FC8010E942A
:101E0000B70DCF5FF6CFDF91CF911F910F91FF906C
:101E1000EF900895DF92EF92FF920F931F93CF936D
:101E2000DF937C01D62FD22EC42F002E000C110B75
:101E3000040F111D47FD1A958C2F0C2E000C990BC9
:101E40008017910744F42D2D4C2F6D2FC7010E9450
:101E5000EE0ECF5FF1CFDF91CF911F910F91FF90E9
:101E6000EF90DF9008954F925F926F927F928F92E2
:101E70009F92AF92BF92CF92DF92EF92FF920F9319
:101E80001F93CF93DF93EC016A3049F428859D813D
:101E90008A85299F800D11248A871986A6C06D30F6
:101EA00009F4A3C0898483E588150CF487C0DA841B
:101EB0008FE28D150CF482C018852C812150330BD4
:101EC000129FC001139F900D1124880D911D87FC56
:101ED0009A95181619060CF071C02D818D2D0D2CB8
:101EE000000C990B129F800D911D112418161906D4
:101EF0000CF064C078A0C82C912CE62EF12C292D72
:101F0000092C000C330B8C8190E0281739070CF05A
:101F100054C00197E0E02817390771F0E89EF001FE
:101F2000E99EF00DF89EF00D11242E0F3F1FEE8D4F
:101F3000FF8DE20FF31FE4915D2C612C492C480CBE
:101F40002D81862D062C000C990B2817190691F16E
:101F50008CF1AE2EB12CE0FF16C0113061F4462D8D
:101F60004D0D642DCE010E94B70DF501F595E79555
:101F70006394510EE5CF012F212F452D6C2DCE01FD
:101F80000E940A0FF2CF89A198A1891771F388A343
:101F9000113041F4462D4D0D642DCE010E94B70D38
:101FA00078A2E3CF012F212F452D6C2DCE010E9469
:101FB0000A0FF6CF9394C10EA2CF78A228853C8158
:101FC0008985239F800D112489879F81992369F03A
:101FD000082E000C990B44E550E0239F401951094D
:101FE0001124481759070CF452CF81E090E0DF919B
:101FF000CF911F910F91FF90EF90DF90CF90BF9006
:10200000AF909F908F907F906F905F904F900895CA
:10201000EF92FF920F931F93CF93DF938C01D62FF4
:10202000F42EE22EC0E0CE1544F44F2D4C0F6D2F50
:10203000C8010E94B70DCF5FF6CFDF91CF911F91FE
:102040000F91FF90EF9008958F929F92AF92BF9261
:10205000CF92DF92EF92FF920F931F93CF93DF9374
:10206000082FB62E942EA22E83E0F82ED0E0C3E0E7
:102070009AEFE92E1EEFCC24C394C20EDF5F1F0D32
:102080002C2F220F4B2D4C1B8A2C8F0CDB2CDD1A96
:1020900081E02C0D602F981218C06D0F88EC93E032
:1020A0000E940810282D4D2D6C2F600F88EC93E0B6
:1020B0000E940810DC179CF417FD04C0C150E39483
:1020C000E3941E0DF394F394D9CF6D1B88EC93E049
:1020D0000E940810282D4D2D602F6C1BE7CFDF913B
:1020E000CF911F910F91FF90EF90DF90CF90BF9015
:1020F000AF909F908F900895CF93C82F24E142E036
:10210000682F88EC93E00E94EE0E24E144E06C2FEF
:1021100088EC93E00E94EE0E23E042E06C2F88EC06
:1021200093E00E94081063E16C0F23E042E088EC2A
:1021300093E0CF910C940810089590E080E008950A
:102140002F923F924F925F926F927F928F929F92C7
:10215000AF92BF92CF92DF92EF92FF920F931F93B5
:10216000CF93DF93262E7A01FA0144903196E491C1
:10217000C42CD12C3601F7E06F0E711C93E07594DE
:1021800067949A95E1F78150480E512C20E8A22ED1
:10219000B12C0E2F10E0852D052C000C990B8C1501
:1021A0009D050CF03EC0C52D57FE02C0C7E0C50D11
:1021B000C595C595C595852D877887FF03C0815046
:1021C000886F8F5F450102C0959487948A95E2F7E6
:1021D000312C0C2E000CDD0B2296832D032C000CD1
:1021E000990B80179107D4F4689EF001699EF00D59
:1021F000789EF00D1124EC0FFD1FEE0DFF1DE491F4
:10220000F0E0E821F921EF2B39F0432D420D642D48
:1022100088EC93E00E94B70D3394DFCF4A94539437
:10222000BACFDF91CF911F910F91FF90EF90DF9088
:10223000CF90BF90AF909F908F907F906F905F9066
:102240004F903F902F900895CF92DF92EF92FF92A0
:102250006B017C01C114D104E104F10441F00E943E
:10226000981EA70196010E94F01E6B017C01C70118
:10227000B601FF90EF90DF90CF9008958AE290E052
:1022800090930D0180930C0110925B0110925A0102
:102290006CE170E080E090E00E942411665F7F4F67
:1022A0008F4F9F4F70930901609308011092610155
:1022B000109260018BE090E090930B0180930A01F3
:1022C00081E090E09093510180935001909301013F
:1022D0008093000165E070E080E090E00E942411AE
:1022E0006D5D7F4F8F4F9F4F7093650160936401C9
:1022F0000895FB0101900020E9F73197AF01461BDB
:10230000570BDC01ED91FC910280F381E02D0994E3
:10231000CF93DF93BC0188EC93E00E94B407EC01FB
:1023200065E471E088EC93E00E9479118C0F9D1FA9
:10233000DF91CF9108958F929F92AF92BF92EF92CB
:10234000FF920F931F93CF93DF93CDB7DEB7A19783
:102350000FB6F894DEBF0FBECDBF7C01FA01CB01F2
:1023600019A2223008F42AE08E010F5D1F4F822E41
:10237000912CB12CA12CBF01A50194010E94221F18
:10238000F901CA016A300CF5605DD8016E938D01C8
:10239000232B242B252B79F790E080E0109721F058
:1023A000BD01C7010E947911A1960FB6F894DEBF56
:1023B0000FBECDBFDF91CF911F910F91FF90EF9096
:1023C000BF90AF909F908F900895695CDECFCF92C1
:1023D000DF92EF92FF920F931F93CF93DF936B01E6
:1023E000770FEE08FF08F7FE1BC0EC016DE20E94BC
:1023F000AD078C0144275527BA014C195D096E09B8
:102400007F092AE0CE010E949B11800F911FDF916E
:10241000CF911F910F91FF90EF90DF90CF90089593
:102420002AE0B701A601DF91CF911F910F91FF9094
:10243000EF90DF90CF900C949B11EAE7F1E028EF4A
:1024400031E0DF01A9011D9241505040E1F7DC016C
:1024500019961C9219971A961C92089588EC93E08D
:102460000E941D126AEE7BE088EC93E00E94B407A4
:102470000E947B088CB583608CBD8DB58E7F8DBD31
:1024800088E491E0EEEFFFE309951092CE0385EC2E
:102490009BE00E9488110E947B080E94F2088091B4
:1024A0008F03813039F062E370E080E090E00E94B9
:1024B000040AF3CF08954F925F926F927F928F92AA
:1024C0009F92AF92BF92CF92DF92EF92FF920F93C3
:1024D0001F93CF93DF9300D000D01F92CDB7DEB70C
:1024E0004091FA035091FB036091FC037091FD034E
:1024F0002FB7F8948091730190917401A0917501A8
:10250000B09176012FBF481B590B6A0B7B0B809152
:10251000F90390E0B0E0A0E00091F5031091F6031C
:102520002091F7033091F80384179507A607B707A2
:1025300008F0CEC0011511052105310509F4C8C008
:102540002FB7F8948091730190917401A091750157
:10255000B09176012FBF2091F903820F911DA11D2B
:10256000B11D8093FA039093FB03A093FC03B093F7
:10257000FD038091EB039091EC03A091ED03B091EA
:10258000EE030196A11DB11D8093EB039093EC0324
:10259000A093ED03B093EE031092F5031092F603AF
:1025A0001092F7031092F8030E94DF096093F10381
:1025B0007093F2038093F3039093F40380917B0371
:1025C00090917C032FE0289FA001299F500D11249A
:1025D0005A83498385E10E94960929813A81820FB5
:1025E000931FB4E096958795BA95E1F790937C0395
:1025F00080937B0320917A03222309F448C06091E1
:102600007E03262F30E050E040E029833A834B835D
:102610005C83C0907F03D12CF12CE12C409182038C
:10262000509183034A01B12CA12C20918003309159
:1026300081032901712C612C8217930728F09C01DA
:102640004817590708F49A0150E040E02419350969
:102650004609570969817A818B819C816C197D09B2
:102660008E099F090E947D20A50194012419350936
:10267000460957090E94F01EC20ED31EE41EF51E25
:10268000C0927D036C2D70E085E00E9439090E94A4
:10269000F2088091960390919703892B11F00E9484
:1026A000A80981E00F900F900F900F900F90DF918D
:1026B000CF911F910F91FF90EF90DF90CF90BF903F
:1026C000AF909F908F907F906F905F904F90089504
:1026D000012B022B032B09F074C1809191038150CF
:1026E0008E3FB8F580919003813099F58091A403D5
:1026F0008F5F6091A50387FD09C0082E000C990B20
:1027000070E06F5F7F4F0E949920682F6093A40351
:102710008EEB9BE09093FF038093FE0388E480930D
:1027200000040E9457068BEA9BE09093AD038093D0
:10273000AC031092B2031092B10381E08093A00326
:1027400089E08093B5031092B8031092BA031092F7
:10275000BC038091910381508E3F70F480918F0370
:10276000813009F00FC381EB9BE09093FF038093CE
:10277000FE0388E48093000480919F03882331F056
:102780008091A003811102C00E9469068091A0037C
:10279000882309F43EC08091B40381113AC080912E
:1027A000AC039091AD03E091B103F091B203EE0F51
:1027B000FF1FE80FF91F259134912115310509F408
:1027C00057C1A9015695479556954795842F20FDE9
:1027D000FAC08F738093B3038091A303839F802DEE
:1027E00011248093B4031092C4031092C303109277
:1027F000C20381E08093B603809377011092B70300
:102800008091B1039091B20301969093B2038093AB
:10281000B1038091B603882331F08091B403811114
:1028200041C10E94570680910004882309F489C0A1
:102830008C3008F01EC23CE0381B3983FF24F3942F
:10284000F092D0031092E8031092E9034091CD0377
:102850004D831981141B042F0D5F4DE2410F2EE4AF
:1028600063E088EC93E00E940A0F5D8154505D8321
:10287000105D252F41E0612F80E50E9424102D81FD
:1028800042E0612F83E00E942410F092E803F0926E
:10289000E9030091CD031981101B8DE2F82EF10E92
:1028A0002EE44F2D63E088EC93E00E94EE0E83E06F
:1028B000800F8F0D8D83482F41502EE463E088EC0C
:1028C00093E00E94EE0E0350105D202F412F60E038
:1028D00088EC93E00E940810202F412F63E588ECDC
:1028E00093E00E94081041E0612F83E00E94FB0DFD
:1028F00042E0612F80E50E94FB0D9D8194509D83F5
:1029000044E0692F80E50E94FB0D48E06D8183E083
:102910000E94FB0D84E08093D1038091CD03298137
:10292000281B215D2093D2036091FE037091FF0369
:1029300088EC93E00E94B40780910004815080935A
:1029400000048091960390919703892BE1F031E088
:102950003093E8031092E9039091CC0385E5891B3D
:102960008093D1031092D20360919303613009F4F4
:10297000EDC108F480C180919203653008F0FDC17B
:102980006B5F8111F5C10E947B088091CE0381119C
:1029900004C088EC93E00E941D120E94DF0960933E
:1029A000F5037093F6038093F7039093F803209157
:1029B000F1033091F203621B730B7093F003609389
:1029C000EF0380E06FCEC901E6E096958795EA9522
:1029D000E1F78F71932F96959695969590514F703C
:1029E000423099F1D0F4442309F43CC04130B9F1AC
:1029F000E091B103F091B2033196F093B203E0930A
:102A0000B103CF01880F991FE091AC03F091AD03A2
:102A1000E80FF91F25913491D4CE433061F0443052
:102A200039F72091A303289F802D11248093BC03A4
:102A30009093BD03DDCF2091A303289F802D112407
:102A40008093BA039093BB03D3CF2091A303289F15
:102A5000802D11248093B8039093B903C9CF0E94AD
:102A6000AA06C6CF8B3008F08AE08093B503C0CFAA
:102A70002091B003211110C01092A00380919F03F8
:102A8000811103C00E945706C4CE0E94690680913E
:102A9000B1039091B203B6CF1092B2031092B1037A
:102AA000FC01B8CF81508093B4038091C40381119D
:102AB00042C02091C2033091C3032F5F3F4FC90131
:102AC000880F991FE091BE03F091BF03E80FF91F33
:102AD00085919491482F47704093C503492F46959F
:102AE00046954093C603AC0164E0569547956A95B8
:102AF000E1F74F739091A303499F402D1124409318
:102B0000C40383FB882780F9809372013093C30349
:102B10002093C2038091C00390E02817390758F032
:102B20002091C103222309F49EC0821B9109909336
:102B3000C3038093C2038091C40381508093C40374
:102B40008091B70331E0380F3093B7034091B3035E
:102B50002091C603240F8091AB03280F2093A1037B
:102B60006091BA03662371F070E0832F032E000C8E
:102B7000990B0E9499208091BB03869F200D112400
:102B80002093A1038091A10390E0849664E270E019
:102B90000E9499208093A1032091B5032093A20362
:102BA0006091B803662381F0062E000C770B832F0B
:102BB000032E000C990B0E9499208091B903869FE7
:102BC000200D11242093A2036091BC036623A1F081
:102BD000832F330F990B70E00E949920CB0162E0A4
:102BE00070E00E9499202091BD039091A203289F3C
:102BF000900D11249093A2034F33C1F18091A20351
:102C00008A300CF089E087FD80E08093A203F8947D
:102C1000E091A103F0E0E957F44FE491E0937101F2
:102C20002091C7033091A2033203900111244091F7
:102C3000C5034203C001439F900D11242091A403BA
:102C400002C0880F991F2A95E2F797FF02C08158AA
:102C50009F4F880F892F881F990B8093780180934D
:102C600079017894E0CD0E94570665CF1092A203B7
:102C7000CECF1982E3CD0E9457061092A00341E007
:102C80004093D003E5E0FAE0E491EF5FE093CC03FA
:102C9000E6E0FAE0E491EF5FE093CD0387E09AE0AD
:102CA0009093E7038093E6031092970310929603A4
:102CB0001092CE0358EA59830E945B128823E1F3F5
:102CC00067EF79E088EC93E00E94B40740919403A9
:102CD0005091950370E060E02AE088EC93E00E9458
:102CE0009B1162EE79E088EC93E00E94B407698161
:102CF00062956F7070E088EC93E00E94E71167EDD9
:102D000079E088EC93E00E94B40780918F038130D2
:102D100009F439CE8981815089838111CDCF70E04A
:102D200060E085E00E94390983B7817F846083BFBA
:102D300083B7816083BF83B7816083BF889583B782
:102D40008E7F83BF83B78E7F83BFB6CF8091EB0327
:102D50009091EC03A091ED03B091EE038F70992751
:102D6000AA27BB2767E00897A105B10508F068E727
:102D700088EC93E00E94AD0706CE882309F403CEC9
:102D80006FE2F6CF893209F0F7CC0E942E12F4CC14
:102D90008F929F92AF92BF92CF92DF92EF92FF926B
:102DA0000F931F93CF93DF938091EA03882309F455
:102DB000F0C081E08093D0031092CF031092CE0335
:102DC000109292038093E8038093E903C1E5D4E075
:102DD0008CE0F82E0BEA1BE0EE24E39499E0D92E68
:102DE0000E945B128823E1F3FE01C490C110C090E1
:102DF000CD032FEB32E040E060E088EC93E00E94EE
:102E0000770C4CE04C0D2FE233E060E088EC93E06F
:102E10000E94770C1092D103F092D20361E574E026
:102E200088EC93E00E94B4078091CC03982F990F0F
:102E3000990F891B8D5A8093D1038091CD03982FD0
:102E4000990F990F891B835D8093D2038091EB03C7
:102E500084FF78C08BEB92E00E9488118091CC03B4
:102E6000982F990F990F891B8D5A8093D1038091C8
:102E7000D2038F5F8093D2038091A403882309F447
:102E800064C083EB92E00E9488118091CC03982F5C
:102E9000990F990F891B8D5A8093D1038091D2038A
:102EA0008F5F8093D2038BEA92E00E948811809119
:102EB0009003813031F58091A4038F5F6091A50369
:102EC00087FD09C0082E000C990B70E06F5F7F4FE3
:102ED0000E949920682F6093A4030E9457061093C4
:102EE000AD030093AC031092B2031092B103E092D1
:102EF000A003D092B5031092B8031092BA031092B7
:102F0000BC0380918F03813019F18091EA03482F2F
:102F100050E070E060E08090EB039090EC03A090B4
:102F2000ED03B090EE0384169506A606B70610F0E2
:102F30008F3F71F480919103813009F051CF0E944D
:102F40002E124ECF87EB92E087CF8FEA92E09BCF95
:102F50008FEF8093EA030E9457061092A0030E940D
:102F6000570683EA92E09093AD038093AC031092EE
:102F7000B2031092B10381E08093A00399E0909393
:102F8000B5031092B8031092BA031092BC03809359
:102F90009203C0909403D0909503C094D094F12CE8
:102FA000E12C0E94DF094B015C010E94DF09A501B1
:102FB0009401209530954095509560957095809539
:102FC00090950E947D209B01AC01C701B6010E9433
:102FD0007D204B015C01C0907B03D0907C03F12CE1
:102FE000E12C0E94DF096C0D7D1D8E1D9F1D680D5B
:102FF000791D8A1D9B1D611571058105910511F0D3
:103000000E94E71E10929203DF91CF911F910F91C2
:10301000FF90EF90DF90CF90BF90AF909F908F90F8
:1030200008952F923F924F925F926F927F928F926C
:103030009F92AF92BF92CF92DF92EF92FF920F9347
:103040001F93CF93DF935524539490EF292E33246D
:103050003A94AA24A394B12C3BE0632E712C44E64D
:10306000442E0E945B12882309F41BC5C09168019D
:1030700021E439E048E06C2F88EC93E00E94770C63
:1030800064E56C0F21E439E048E088EC93E00E94AD
:10309000770C6CEA6C0F21E439E048E088EC93E0AF
:1030A0000E94770CC0916601D091670129E738E052
:1030B0004EE16C2F88EC93E00E94770C6C2F6C5AD9
:1030C00029E738E04EE188EC93E00E94770C6C2F02
:1030D000645529E738E04EE188EC93E00E94770CD4
:1030E0001092E8031092E9031091640141E0410F4E
:1030F0006C2F665A09E028E188EC93E00E940A0FE1
:103100005092E8035092E903E0916201F09163016B
:10311000EE0FFF1FE35DFE4F208131816C2F675A58
:10312000412F88EC93E00E94770CC835DF4FC1F542
:1031300010926701109266016CE070E080E090E010
:103140000E942411605E7F4F8F4F9F4F70936501E7
:10315000609364016AE470E080E090E00E942411D2
:10316000665F7F4F8F4F9F4F7093110160931001E7
:103170006DE070E080E090E00E9424116C5E7F4F73
:103180008F4F9F4F70930F0160930E0164E070E0CA
:1031900080E090E00E9424117093630160936201CB
:1031A000809168019091690188359F4F21F41092B8
:1031B00069011092680180910C0190910D01CC97EA
:1031C0000CF046C380919103813031F40E943E118E
:1031D0000E94360A0E94C81622E144E562E180E0BE
:1031E0000E94790E86E30E947C10C4E580910A015A
:1031F0004C2F481B23E063E086E30E94790E88E1B0
:103200000E947C1080910C014C2F481B23E063E04E
:1032100088E10E94790E5092D1031092D203C0909F
:103220006001D09061010D2C000CEE08FF082AE02F
:10323000B701A601F7FE0DC06DE288EC93E00E9495
:10324000AD0744275527BA014C195D096E097F095E
:103250002AE088EC93E00E949B1165E471E088EC21
:1032600093E00E94791180915E0190915F0125E6C3
:1032700038E0059711F021E538E040910E016091AA
:10328000100188EC93E00E94770C80905A01909096
:103290005B01E0915C01F0915D01EE0FFF1FEB5DC2
:1032A000FE4F4081518160910801882D0E94A0103D
:1032B00027E438E040E06FE088EC93E00E94770C70
:1032C0002DE338E040E06DE288EC93E00E94770C5B
:1032D0001092E8031092E903C0905801D090590170
:1032E000C6018D7FC0910601D0910701E0900401D5
:1032F000F0900501009709F051C303E025E04C2F41
:1033000067E06E0D88EC93E00E940A0F5092E8038C
:103310005092E903F601EE0FFF1FE35EFE4F20819E
:1033200031814C2F6E2D88EC93E00E94770C109227
:1033300057011092560180918D0381508E3FD8F530
:1033400080911001909111012091680130916901E3
:103350002150310930936901209368012091660161
:103360003091670122503109309367012093660143
:1033700021E0821A910890925B0180925A01019794
:1033800090931101809310018BE3E816F1043CF453
:103390009FEFE91AF90AF0920501E092040122E098
:1033A000C20ED11C83E0C816D1040CF0FFC2D0922B
:1033B0005901C092580180918B0381508E3F08F0D3
:1033C00041C0209110013091110180910401909130
:1033D000050140916801509169014F5F5F4F509323
:1033E00069014093680140916601509167014E5F09
:1033F0005F4F509367014093660140915A0150918D
:103400005B014F5F5F4F50935B0140935A012F5F09
:103410003F4F3093110120931001181619062CF418
:103420000197909305018093040180915801909138
:1034300059010296843091050CF0BDC29093590158
:103440008093580180918E0381508E3F40F4C832A2
:10345000D1052CF42196D0930701C09306018091E9
:103460008C0381508E3F60F480910601909107019A
:10347000873091052CF00197909307018093060106
:1034800080918F0381508E3FE8F480910A019091E2
:103490000B018E3191052CF4019690930B018093D2
:1034A0000A0120915801309159012D7F6091060148
:1034B000809104012115310509F482C221303105C2
:1034C00009F4AFC200910E0110910F01209110017B
:1034D00030911101E0915801F0915901EE0FFF1F59
:1034E000E35EFE4F408151816091060170910701BA
:1034F000E1E5EE2EE8E0FE2E8091040190910501B9
:103500000E94D606882309F458C0809160019091EA
:103510006101059690936101809360016AE470E017
:1035200080E090E00E942411665F7F4F8F4F9F4F95
:1035300070931101609310016DE070E080E090E005
:103540000E9424116C5E7F4F8F4F9F4F70930F012D
:1035500060930E0180915E0190915F01059709F0E3
:1035600095C2B0925501A092540188E590E09093E5
:1035700003018093020170920B0160920A0169E0DD
:1035800070E080E090E00E9424116F5F7F4F8F4FCA
:103590009F4F70935F0160935E0180910A0190914B
:1035A0000B018C3091054CF004978B3091050CF495
:1035B00063C290930B0180930A0120915A013091CC
:1035C0005B018091060190910701409104015091A7
:1035D0000501FA0170962E173F070CF5B901685FD7
:1035E0007F4F46175707DCF46091640170916501C5
:1035F000DC0112966A177B0794F46E5F7F4F861783
:1036000097076CF460910C0170910D016C3371059A
:1036100034F46F5F7F4F70930D0160930C016091E4
:103620000801709109012E173F07DCF4F90170962B
:103630004E175F07B4F4FC0132966E177F078CF4C7
:10364000FB0132968E179F0764F4E0910C01F09114
:103650000D01EC33F1052CF43196F0930D01E0935C
:103660000C01E0918F03E150EE3F08F0B0C0E09113
:103670000A01F0910B017E970CF0A9C04F5E5F4FDD
:10368000E0910201F0910301E40FF51F2E173F07AF
:103690000CF040C0205F3F4F42175307DCF5AC01F0
:1036A0004E5E5F4F9B01205F3F4F2417350794F517
:1036B00040966E5E7F4F8617970764F5809158019C
:1036C000909159018D7F892B29F5B0925701A092D5
:1036D000560183E090E090935D0180935C0130920D
:1036E0005B0120925A016CE170E080E090E00E9462
:1036F0002411665F7F4F8F4F9F4F70930901609336
:10370000080180916001909161010A969093610196
:103710008093600180915A0190915B012091040196
:10372000309105012151310940910201509103016D
:10373000420F531F841795070CF049C04096281775
:1037400039070CF044C08091080190910901209143
:10375000060130910701BC01605F7F4FA9014E5EF9
:103760005F4F641775079CF5205F3F4F42962817FF
:1037700039076CF580915801909159018D7F813006
:10378000910529F5909357018093560183E090E0CD
:1037900090935D0180935C0130925B0120925A010D
:1037A0006CE170E080E090E00E942411665F7F4F42
:1037B0008F4F9F4F709309016093080180916001C2
:1037C000909161010A9690936101809360018091CC
:1037D00056019091570118161906D4F180915A019B
:1037E00090915B01813F2FEF920754F020910001EF
:1037F00030910101821B930B90935B0180935A01DE
:1038000080915A0190915B01803F9F4FA4F484E620
:1038100090E090935B0180935A016CE170E080E04E
:1038200090E00E942411665F7F4F8F4F9F4F7093EF
:1038300009016093080180915C0190915D010196FE
:10384000823091050CF01DC190935D0180935C0165
:10385000D090640110916501C0916601D09167011B
:10386000E0916201F0916301EE0FFF1FE35DFE4FF7
:10387000E080F1809E01275A3F4FE0915801F0917E
:103880005901EE0FFF1FE35EFE4F408151816091B1
:103890000601709107010D2D8091040190910501A1
:1038A0000E94D606882379F06C2F675A2FE537E0FF
:1038B0004D2D88EC93E00E94770C84E490E0909387
:1038C00065018093640180910C0190910D01CC976A
:1038D0000CF188EC93E00E941D1267E577E088EC1C
:1038E00093E00E94B407609160017091610188ECDF
:1038F00093E00E94E71125E336E04AE06AE088ECB5
:1039000093E00E94770C8091900381508E3F10F4D9
:103910000E943E118091500190915101489E90016A
:10392000499E300D112480916001909161018217B0
:1039300093070CF4B6C088EC93E00E941D126DE270
:1039400076E088EC93E00E94B4076091500170919A
:10395000510188EC93E00E94E71122E534E045E054
:1039600060E088EC93E00E94770C80919003815096
:103970008E3F08F096C080915001909151010196C0
:103980009093510180935001809100019091010129
:103990000196909301018093000163CB019709F098
:1039A000B5CC03E025E04C2F63E0ABCC109259017D
:1039B0001092580100CDB0925901A092580142CD09
:1039C000C0915201D091530120910A0130910B0115
:1039D0002D313105ECF42091540130915501211520
:1039E000310579F4FE01EE0FFF1FE95EFE4F2081E5
:1039F00031818F5E462F682F88EC93E00E94770C10
:103A000007C064504BE857E0865F2130310561F113
:103A10002196C330D1055CF5D0935301C093520178
:103A200051CDC0915201D091530120910A013091A2
:103A30000B012E31310564F720915401309155016D
:103A40002130310539F44CEF460F6FEA680F2BE84F
:103A500037E0D2CF232BE1F6FE01EE0FFF1FE95E28
:103A6000FE4F4081518181510E94A010D1CF109210
:103A700053011092520126CD70920B0160920A01FF
:103A80009CCD10925D0110925C01E2CE1092550126
:103A90001092540180E190E0909303018093020121
:103AA0006ECDDF91CF911F910F91FF90EF90DF903E
:103AB000CF90BF90AF909F908F907F906F905F90CE
:103AC0004F903F902F9008951F920F920FB60F9234
:103AD00011242F933F938F939F93AF93BF93809124
:103AE000730190917401A0917501B09176013091AC
:103AF0006B0123E0230F2D3758F50196A11DB11D51
:103B000020936B018093730190937401A0937501CE
:103B1000B093760180916C0190916D01A0916E013E
:103B2000B0916F010196A11DB11D80936C0190931E
:103B30006D01A0936E01B0936F01BF91AF919F9102
:103B40008F913F912F910F900FBE0F901F9018955E
:103B500026E8230F0296A11DB11DD2CF1F920F920E
:103B60000FB60F9211242F936F937F938F939F9390
:103B700060917801662349F180916A018F5F80939B
:103B80006A0190917101891700F12091770181E01C
:103B900028272093770110926A018091720188236F
:103BA00069F08091120193E4899F802D1124895B33
:103BB000809312010E948D20909379018091790168
:103BC000211101C080E08093B4009F918F917F917B
:103BD0006F912F910F900FBE0F901F9018957894B2
:103BE00084B5826084BD84B5816084BD85B5826002
:103BF00085BD85B5816085BD80916E0081608093B3
:103C00006E0010928100809181008260809381001B
:103C1000809181008160809381008091800081602B
:103C2000809380008091B10084608093B100809186
:103C3000B00081608093B00080917A0084608093AE
:103C40007A0080917A00826080937A0080917A0075
:103C5000816080937A0080917A00806880937A00F6
:103C60001092C1000E943E110E94360A0E94C8169E
:103C7000C0E0D0E00E9411182097E1F30E940000FC
:103C8000F9CF1092CB031092CA038DE391E0909389
:103C9000C9038093C80308958F929F92AF92BF92F9
:103CA000CF92DF92EF92FF92CF93DF93EC01688186
:103CB00079818A819B81611571058105910521F4C6
:103CC00064E279ED8BE597E02DE133EF41E050E0E0
:103CD0000E94F01E49015A019B01AC01A7EAB1E420
:103CE0000E940F1F6B017C01ACEEB4EFA5019401A3
:103CF0000E941D1FC60ED71EE81EF91EF7FE06C045
:103D000081E0C81AD108E10880E8F80AC882D9829F
:103D1000EA82FB82C701B6019F77DF91CF91FF90C6
:103D2000EF90DF90CF90BF90AF909F908F900895CD
:103D30008F929F92AF92BF92CF92DF92EF92FF92BB
:103D400060911301709114018091150190911601F9
:103D5000611571058105910521F464E279ED8BE52A
:103D600097E02DE133EF41E050E00E94F01E490161
:103D70005A019B01AC01A7EAB1E40E940F1F6B013D
:103D80007C01ACEEB4EFA50194010E941D1FC60E8C
:103D9000D71EE81EF91EF7FE06C081E0C81AD1083A
:103DA000E10880E8F80AC0921301D0921401E09271
:103DB0001501F0921601C701B6019F77FF90EF90B1
:103DC000DF90CF90BF90AF909F908F9008956093B9
:103DD00013017093140180931501909316010895B7
:103DE000052E97FB1EF400940E94071F57FD07D075
:103DF0000E94221F07FC03D04EF40C94071F50951D
:103E00004095309521953F4F4F4F5F4F08959095C6
:103E10008095709561957F4F8F4F9F4F08950E94B9
:103E2000441FA59F900DB49F900DA49F800D911DE0
:103E300011240895B7FF0C940F1F0E940F1F821BBF
:103E4000930B0895A1E21A2EAA1BBB1BFD010DC006
:103E5000AA1FBB1FEE1FFF1FA217B307E407F5073A
:103E600020F0A21BB30BE40BF50B661F771F881F16
:103E7000991F1A9469F760957095809590959B01AC
:103E8000AC01BD01CF010895A29FB001B39FC00155
:103E9000A39F700D811D1124911DB29F700D811D76
:103EA0001124911D08950E94C71F88F09F5798F014
:103EB000B92F9927B751B0F0E1F0660F771F881F2F
:103EC000991F1AF0BA95C9F714C0B13091F00E9449
:103ED000E11FB1E008950C94E11F672F782F882728
:103EE000B85F39F0B93FCCF3869577956795B39570
:103EF000D9F73EF490958095709561957F4F8F4FDF
:103F00009F4F0895E89409C097FB3EF490958095E3
:103F1000709561957F4F8F4F9F4F9923A9F0F92F8F
:103F200096E9BB279395F695879577956795B7950D
:103F3000F111F8CFFAF4BB0F11F460FF1BC06F5FF3
:103F40007F4F8F4F9F4F16C0882311F096E911C005
:103F5000772321F09EE8872F762F05C0662371F026
:103F600096E8862F70E060E02AF09A95660F771F3A
:103F7000881FDAF7880F9695879597F9089557FD6A
:103F80009058440F551F59F05F3F71F04795880FC7
:103F900097FB991F61F09F3F79F08795089512165E
:103FA00013061406551FF2CF4695F1DF08C016160A
:103FB00017061806991FF1CF8695710561050894BB
:103FC0000895E894BB2766277727CB0197F90895D2
:103FD0000E94FB1F0C946C200E945E2038F00E940F
:103FE000652020F0952311F00C9455200C945B2053
:103FF00011240C94E21F0E94BF1F70F3959FC1F320
:10400000950F50E0551F629FF001729FBB27F00D86
:10401000B11D639FAA27F00DB11DAA1F649F6627DB
:10402000B00DA11D661F829F2227B00DA11D621F2A
:10403000739FB00DA11D621F839FA00D611D221FE4
:10404000749F3327A00D611D231F849F600D211DC8
:10405000822F762F6A2F11249F5750409AF0F1F04B
:1040600088234AF0EE0FFF1FBB1F661F771F881FB4
:1040700091505040A9F79E3F510580F00C94552077
:104080000C94E21F5F3FE4F3983ED4F38695779556
:104090006795B795F795E7959F5FC1F7FE2B880F5A
:1040A000911D9695879597F9089597F99F6780E8F0
:1040B00070E060E008959FEF80EC089500240A947A
:1040C0001616170618060906089500240A941216F3
:1040D0001306140605060895092E0394000C11F426
:1040E000882352F0BB0F40F4BF2B11F460FF04C0D3
:1040F0006F5F7F4F8F4F9F4F0895DB018F939F938B
:104100000E940F1FBF91AF91A29F800D911DA39F91
:10411000900DB29F900D11240895991B79E004C071
:10412000991F961708F0961B881F7A95C9F78095F6
:10413000089597FB072E16F4009407D077FD09D059
:104140000E94AD2007FC05D03EF4909581959F4FCD
:104150000895709561957F4F0895AA1BBB1B51E18F
:1041600007C0AA1FBB1FA617B70710F0A61BB70BE7
:10417000881F991F5A95A9F780959095BC01CD018C
:104180000895EE0FFF1F0590F491E02D0994F89427
:02419000FFCF5F
:10419200010010000A000A0014000B002A001E0091
:1041A2001E000101000000AC008A00680034011208
:1041B20001F000CE00BC019A01780156017B025544
:1041C200022F020302E301DE0100000000330FD8D8
:1041D200079D109C100D0A004C4F414445520000AF
:00000001FF
