:100000000C9451080C9479080C9479080C94790894
:100010000C9479080C9479080C9479080C9479085C
:100020000C9479080C9479080C9479080C94881F26
:100030000C9479080C9479080C9479080C9479083C
:100040000C943E1F0C9479080C9479080C94790850
:100050000C9479080C9479080C9479080C9479081C
:100060000C9479080C9479080101FF030101F7034E
:100070007073796368696300C3A96C65637472699E
:100080007175650067726F756E6400706C616E7477
:10009000005761746572004361746368002D3E000F
:1000A00046697265006F6E736C6175676874006392
:1000B0006C617700536C6F74203400536C6F742044
:1000C0003300536C6F74203200536C6F7420310016
:1000D0004E6F005965730008087EFF5A7E187E3CFB
:1000E000660808DBC3C30000C3C3DB08080814228A
:1000F00041081422410808002804000002440008B6
:10010000080010100E106010100808BD00819999A9
:100110008100BD0808000000000000000008080081
:100120000020000000080008080000040000000093
:100130000008083C26DBA5AD93443C080800006697
:100140005A424242420808000220000002400008D1
:100150000802050200205020000808FF81818181EB
:100160008181FF0808818181818181818108080066
:1001700040201818040200080810204080000102E6
:100180000408087C2C3C281808182808087C2C3CFB
:10019000080C0A14220808FC7C7C107C1028080833
:1001A00008FC7C7C107C10282008083E343C141885
:1001B00010181408083E343C103050284408087EBB
:1001C000547C107C10280808087E547C107C102871
:1001D0002008087C2C3C08380808180808FC7C7C9F
:1001E000107C10284408083E343C101C10101808DD
:1001F000087E547C107C1028444368616E6765203B
:1002000067616D650046757475726F64657800543A
:1002100065616D001818FFFFE0AAAAA0FFFFE0AB20
:10022000FAA0FFFFE0ABFAA0FFFFE0AAAAA0FFFF41
:10023000E0AAAAA0FFFFE0AAAAA0FFFFE0AAAAA046
:10024000FFFFE0AAAAA0FFFFE0AAAAA0FFFFE0AA82
:10025000AAA0FFFFE0FFFFE0120900120900181832
:10026000FFFFE0AAAAA0FFFFE0AB1AA0FF5FE0AB90
:100270001AA0FFFFE0AAAAA0FFFFE0A000A0E7FCF1
:10028000E0A6ACA0E5F4E0A71CA0E514E0A71CA044
:10029000E514E0A71CA0E000E0BFFFA0D55560FF7B
:1002A000FFE0120900120900101405000A800880FE
:1002B000050002001F8030F025102850285024A08F
:1002C00030A015201A600D4004C006B87DECC5446E
:1002D0008924101405000A800880050002001F8090
:1002E00030F020102D902010222032201020186095
:1002F0000C4004C006B87DECC544892418180738A2
:10030000000528000738000210000210000210004B
:1003100003F800075C000554000554000554003F35
:10032000FF804000403FFF8010010030A18060400E
:10033000C040A040400040400040D40560880220FA
:100340009405208000201818073800052800073879
:100350000002100002100002100003F800060C005A
:1003600004A4000404000404003FFF804000403F58
:10037000FF8010010030A1806040C040A0404000DC
:100380004040A040C0406080A020800020FFFFE0EF
:100390001815C00018C0003839FEE00F0380087837
:1003A000801800C031FE6020003023FF10200010B4
:1003B00027FF902000103FFFF008944008B6601916
:1003C000A220113320211130633190422090C63099
:1003D000D81815C00018C0003839FEE00F03800897
:1003E000008019FCC030F860207030202010200000
:1003F0001027FF902132103FFFF008944008B660AC
:1004000019A220113320211130633190422090C66F
:1004100030D818143C07802404804208405A0B400E
:100420005A0B405AEB405B1B40580340460C404C73
:10043000E6404802404000403FFF806250E09A534F
:1004400090CE5E30865810C0003080E010FF1FF064
:1004500018143C07802404804208405A0B405A0B71
:100460004042E8404318405E0F404A0A404A0A4072
:100470004F1E404000403FFF806250E09A5390CEB4
:100480005E30865810C0003080E010FF1FF0181654
:10049000003000003C00E027009820808E23E0839D
:1004A0003C3891D83C98F01E4CB01364C01F2660B5
:1004B0000D2220032267E262EC624688C44CC984A4
:1004C00088E70C99B0389B98F08E0F80B80000E058
:1004D00000001816000C00003C0000E4070104199D
:1004E00007C4711C3CC13C1B89700F19C60D328AB0
:1004F0000326860664F03444D8564488974689110A
:100500006299F332F00711C00D997F19D91DF0716E
:1005100000001D00000718187F8FF050A85070A829
:100520007000F80000840C810218C1023060842041
:100530003B4B400C3080040080026900034B0004F8
:10054000848004488002010003030004788004488A
:100550008002CD00014A00014A00014A0001CE009C
:1005600018187F8FF050A85070A87000F800008411
:1005700000814A04C1020860B418334B600C30801B
:1005800004008002490002B500048480044880020F
:10059000310003030004788004488002CD00014A42
:1005A00000014A00014A0001CE00181603F0600E57
:1005B0001FC0180C603004002006002442002EE208
:1005C0000C244238201FF820010C2001802444C054
:1005D0002EEE602444302000182000047FFFFED55A
:1005E0005553800001C000036AAAAE3FFFFC1816F5
:1005F000060FC003F87006301800200C00600400DD
:1006000042243047741C42241FF8043080040180C7
:10061000040322240677740C22241800042000040A
:100620007FFFFECAAAAB800001C000037555563F8C
:10063000FFFC181600FFC007C8F81E083E3BFFF37A
:1006400077E27B5C220F4C220D5FE27973E3ED339E
:1006500063471E232E0FE17C01E3E001E1C0078028
:100660007008001808000C107F0630E3867FE3FF57
:10067000E7C1E7880011181600FFC007C8F81E0878
:100680003E33FFF377E3FB5C000F4C738D5F73B970
:1006900073003D3300471E1E2E0F807C01E3E000F7
:1006A000E1C007807008001808000C107F0630E3D6
:1006B000867FE3FFE7C1E788001118160FE7F00F08
:1006C000E7F00FE7F00FE7F00FE7F00FE7F00100BA
:1006D0008001008001008001008001008001008015
:1006E0000100800100800100800FFFF018001C391C
:1006F000FF9669FF93C9FF918FFFF1FE007F1816E7
:100700000FE7F00824100924100925900824100F81
:10071000E7F00100800100800100800100800100FD
:10072000800100800100800100800100800FFFF047
:1007300018001C387E16683C13C800118FFFF1FEAC
:10074000007F100C00000F803800602041E0C700DF
:100750009800307021C023000600040008037F00C9
:10076000FE080EE070381C16122A4B55A5954A2437
:10077000180804406090E01005C00038E785027258
:1007800079040408081D264991A6C8B0C0101000BD
:10079000802100308419828FE44C382812199D1969
:1007A000985810AC3C07E205851880204010801056
:1007B000100100010001000100010001000380029E
:1007C000800280044008201FF01838200440028076
:1007D0000110103FF82000AFFCA004A074A814ABD7
:1007E000D4AA14AA5488D588118FD18005FF0D0092
:1007F000010FFF3007FFFFFFFFFFF8AAAAAAAAAA6E
:10080000A88000020000088000000000088020008E
:10081000002008AAAAAAAAAAA8FFFFFFFFFFF803C0
:1008200000050401022F0058503A004465663A0062
:10083000466F723A0053706565643A002F00487045
:100840003A004C764C3A004368616D70696F6E20D7
:100850006B696C6C203A20006C006800000000009E
:10086000240027002A0000000000250028002B009B
:1008700005008930080238024978681400001753CF
:1008800044001613780016131400151020001520CC
:100890001000540A03E181867F3E186D830F0F0E0E
:1008A0000183866033186DC3198F1803C38E6033BC
:1008B000186DE330CF1803C39E603630CDE360CFB0
:1008C0003006C79E7E3E30CDB360CF300CC6F6609A
:1008D0003330D9B660CF33CFCCF66061B0DB1E6069
:1008E000CF30D86CE6C061B0DB1E618F19986CC642
:1008F000C063B19B0E330F0FB078C6FF7E1F1B067F
:100900001E0F46757475726F6D6F6E0020746F20C8
:100910006D61696E206D656E7500170020746F2023
:10092000636F6E74696E7565001500507265737340
:10093000203A0047616D65206F7665720005077F7C
:100940004141417F3E5B4F5B3E3E6B4F6B3E183CEF
:10095000783C18183C7E3C181C577D571C1C5E7F49
:100960005E1C007E43437E007E73737E007E7F7F2D
:100970007E7F4141417F30483A060E06297929069B
:100980007F4141417F60703F02042A1C361C2A7F50
:100990003E1C080000081C3E7F14227F22143C3CB1
:1009A0003C7EFF18423C817E3E6375633E3E616B38
:1009B000633E3E636B6B3E04027F020410207F2087
:1009C0001008082A1C08081C2A0808143E55412251
:1009D000637569756310181C1810040C1C0C040056
:1009E0000000000000005F00000007000700147F07
:1009F000147F14042A7F2A10231308646236495690
:100A000020500008070300001C2241000041221C66
:100A1000002A1C3E1C2A08083E080800E06000006E
:100A20000808080808006060000060100804033E21
:100A30005149453E00427F400062514949462141AB
:100A4000494D331814127F1027454545393C4A4912
:100A50004930412111090736494949360649492992
:100A60001E000024000000806400000814224100E1
:100A70001414141414004122140802015909063EEA
:100A8000415D594E7C1211127C7F494949363E41E5
:100A90004141227F4141221C7F494949417F090947
:100AA00009013E414151327F0808087F00417F41E2
:100AB000002041413F017F081422417F40404040D7
:100AC0007F020C027F7F0204087F3E4141413E7F4E
:100AD000090909063E416141BE7F09192946264997
:100AE00049493201017F01013F4040403F1F204002
:100AF000201F3F4038403F63140814630304780408
:100B0000036151494543007F4141000304081060DF
:100B10000041417F00040201020480808080800047
:100B20000307080020545478407F28444438384450
:100B3000444428384444287F3854545418087E09C3
:100B4000090218A4A49C787F0804047800447D401E
:100B500000006080847D7F1010284400417F4000A9
:100B60007C047804787C080404783844444438FCD5
:100B70001824241818242418FC7C08040408085499
:100B8000545420043F4444203C4040207C1C2040DE
:100B9000201C3C4020403C44281028444C9090901D
:100BA0007C4464544C44000836410000007F00003F
:100BB0000041360800180408100C7F4141417F08AD
:100BC000052060FC6020476F2100AF00A500700089
:100BD0009D009700AF00A50078009D009700AF0032
:100BE000A50084009D009700AF00A5008B009D002C
:100BF0009700AF00A50091009D009700AF00A500F1
:100C0000A0009D009700C900C200BB00B40053774C
:100C10006974636800D300D00041646420746F205D
:100C20007465616D3F002E2E2E00596F757079210D
:100C30000041206368616D70696F6E0061207769A3
:100C40006C642046757475726F6D6F6E2100456E11
:100C500064000808007E664242667E0008080018AC
:100C60003C4A523C18002E566965773A002E4B6973
:100C70006C6C3A00417265613A0003030705070591
:100C8000040505040503060302070202010202032C
:100C9000020E090E0E0D0E0E0F0E070507050307B7
:100CA000050F0507050706070102050200070202F6
:100CB00007000207020002070200070603060707F3
:100CC00002020505020102020402000502020500FB
:100CD00006070505070502030202060200000000E0
:100CE0000B000300030705070407010502050707BA
:100CF00004000300000705050700050005020702C0
:100D0000000C0002020200040004020107050705AE
:100D10000704010704050702030207040701070689
:100D200006010107070707030307000500000D0080
:100D30000205000505050005020107030F0903066A
:100D40000306070702020505070702070705070351
:100D50000107050607020705070504040307020546
:100D6000070404070307070106070507070303072E
:100D7000050307030604070101070107040703042D
:100D80000307060705020501060101070400070520
:100D9000010204050700020102080808000300061A
:100DA00003060707020205050705020707050703F3
:100DB00001070506070207050705040403070205E6
:100DC00007040407030707010607050707030307CE
:100DD00005030703060407010107010704070304CD
:100DE00003070607050205010601010704020705BE
:100DF0000007000507020602030705074368616E46
:100E000067652067616D65000F020502F901050045
:100E100068013801000005003801680100000A0A75
:100E2000153A49676E6F7265006D560A0A504C4557
:100E3000415345205455524E204F464620004C4FBA
:100E400057204241545445525921200003053F2167
:100E50003F1208120A100A0E1C0E0C1E0C141A1453
:100E6000161F161E131E1E1B1E1E1F1E3F213F3A5D
:100E70002F3A173D173F213F181F02040A041F0E87
:100E800004040E1F0A1F0A0E0E1F04110E2E252E1B
:100E90002F2A2E262929021F02081F08150E0404D6
:100EA0000E150E15151B151B040604040C0400007A
:100EB000000017000300031F0A1F16371A19041336
:100EC0000A153A000300000E11110E000A040A046C
:100ED0000E040030000404040010001804031F1165
:100EE0001F121F101D151711151F07041F17151DA1
:100EF0001F151D01011F1F151F17151F000A0000D8
:100F00003200040A110A0A0A110A040115020E111C
:100F1000171E051E1F150A0E110A1F110E1F15118F
:100F20001F05010E111D1F041F111F1108100F1F97
:100F3000041B1F10101F061F1E040F0E110E1F0989
:100F4000060E112E1F051A121509011F011F101F71
:100F50000F180F1F0C1F1B041B031C031915130074
:100F60001F11030418111F0002010220202000019C
:100F7000020C121E1F120C0C12120C121F0C1A144F
:100F8000041E05242A1E1F021C141D1020201D1FD4
:100F90000814111F101E041E1E021C0C120C3E0A07
:100FA000040C123E1E040214160A020F120E101E2A
:100FB0000E100E1E081E120C1226281E322A26049F
:100FC0001E21001F00211E040102013F213FF6E8FF
:100FD000DBCFC3B8AEA49B928A827B746E68625CDE
:100FE00057524E4945413E3A3734312E2C29272558
:100FF0002321450068010000172B152010204C4FBD
:101000004144455200172B16201314000A4E6F203E
:1010100053442063617264206F720A6E6F204C4FDC
:10102000414445522E4845580A0A153A4578697494
:10103000001D20466C617368696E670A20206C6F22
:10104000616465722E2E2E0A0A444F4E2754205496
:1010500055524E204F464621000000000023002636
:10106000002900040404040404040402020202022D
:10107000020303030303030102040810204080015C
:1010800002040810200102040810200000000800DB
:10109000020100000304070000000000000000003F
:1010A000A82E11241FBECFEFD8E0DEBFCDBF12E0C7
:1010B000A0E0B1E0E6ECF4E602C005900D92A831A4
:1010C000B107D9F725E0A8E1B2E001C01D92AE3E1C
:1010D000B207E1F718E0C1E5D8E004C02197FE01AE
:1010E0000E944732C035D107C9F70E94C91F0C942E
:1010F00061320C940000E3E6F5E014AE12AE1092FB
:10110000AC051092AB0515AE10926203109261030C
:10111000109260031092B4000895CF93DF93EC0116
:101120000E947B08E3E6F5E0D3ABC2AB10AE17AA92
:1011300081E086A389E083AF16AE1092A3051092DA
:10114000A505DF91CF910895E09191058E2F90E054
:10115000880F991FE0918F05F0919005E80FF91F16
:10116000859194918F3F980719F4109288050895FE
:10117000909394059927880F991FE0919205F0911B
:101180009305E80FF91F859194910E948D08809135
:1011900091058F5F80939105089590E0880F991FC6
:1011A000E0919705F0919805E80FF91F259134918A
:1011B0003093A8052093A705F9018591949190910A
:1011C0008C05989F802D11248093A905F9016591C4
:1011D0007491472F50E08417150629F020F0F9018B
:1011E00025913491832F989F802D11248093AA05F7
:1011F0000895CF93DF93CDB7DEB7E0915803F09118
:101200005903898D90E0AC014F5F5F4F24E1249F2B
:10121000D001259FB00D1124AE0FBF1F4B895C89F3
:101220004D935C93289FA001299F500D1124E40F3A
:10123000F51F8E818783898586838287838788854A
:1012400081878F8180878B8584878C859D85968714
:1012500085878E859F85908B87878889818B8F89ED
:10126000808FDF91CF910895DC01ED91FC91019089
:10127000F081E02D0994EF92FF920F931F93CF938B
:10128000DF938C017B01D0E0C0E0F701EC0FFD1F84
:101290006491662361F0D801ED91FC910190F08199
:1012A000E02DC8010995892B11F02196EECFCE01D2
:1012B000DF91CF911F910F91FF90EF900895AF9222
:1012C000BF92CF92DF92EF92FF920F931F93CF9333
:1012D000DF936C017B018B01040F151FEB015E0195
:1012E000AE18BF08C017D10759F06991D601ED912A
:1012F000FC910190F081E02DC6010995892B79F7C9
:10130000C501DF91CF911F910F91FF90EF90DF907A
:10131000CF90BF90AF900895833081F028F4813052
:1013200099F08230A9F008958730A9F08830C9F08B
:101330008430B1F4809180008F7D03C08091800063
:101340008F7780938000089584B58F7784BD08954A
:1013500084B58F7DFBCF8091B0008F778093B000F4
:1013600008958091B0008F7DF9CF1F93CF93DF93C5
:10137000282F30E0F901E557FF4E8491F901E95833
:10138000FF4ED491F901ED59FF4EC491CC23A9F041
:10139000162F81110E948C09EC2FF0E0EE0FFF1F39
:1013A000EA59F74FA591B4918FB7F894EC911111C8
:1013B00008C0D095DE23DC938FBFDF91CF911F91C2
:1013C0000895DE2BF8CFCF93C82FF89460E080917A
:1013D000C0050E94B5098091C10518161CF460E093
:1013E0000E94B509CEBD00000DB407FEFDCF8EB53D
:1013F0008091C10518161CF461E00E94B50978942B
:10140000CF9108950F931F93CF938091BD058F5F68
:101410008093BD0503E613E0C0E08C2F80640E943A
:10142000E30980E80E94E30961E08091C0050E9421
:10143000B5098091C10518161CF460E00E94B50939
:10144000F80184E591919EBD00000DB407FEFDCF2B
:101450009EB58150B9F78091C10518161CF461E062
:101460000E94B509CF5F0C5A1F4FC630B1F680E419
:10147000CF911F910F910C94E309CF93DF9390E0EC
:10148000FC01E958FF4E24918D599F4EFC01849137
:101490008823C9F090E0880F991FFC01E45AF74FA8
:1014A000A591B491FC01EA59F74FC591D49161110E
:1014B0000DC09FB7F8948C91209582238C938881DE
:1014C000282328839FBFDF91CF910895623051F484
:1014D0009FB7F8943C91822F809583238C93E88169
:1014E0002E2BEFCF8FB7F894EC912E2B2C938FBF30
:1014F000EACFFF920F931F93CF93DF93C3E6D5E01C
:10150000FF24FA9462E08A850E943D0A2A8530E031
:10151000F901E557FF4E8491F901E958FF4E049116
:10152000F901ED59FF4E14911123E1F081110E9450
:101530008C09E12FF0E0EE0FFF1FE75AFF4EA59157
:10154000B491EC9189890E2369F0811113C0219621
:1015500085E0CA36D807B1F6DF91CF911F910F9180
:10156000FF90089589898F5F898B60E08A850E944A
:101570003D0AEDCF8F3F11F4198AF7CFF98AF5CFE5
:101580001F93CF93DF93182FEB0161E00E943D0A78
:10159000209739F460E0812FDF91CF911F910C9457
:1015A000B509CF3FD10511F461E0F5CFE12FF0E0AF
:1015B000E557FF4EE491E33031F140F4E130B1F012
:1015C000E230E1F0C038D1057CF7E4CFE73029F113
:1015D000E83059F1E430B1F7809180008062809367
:1015E0008000D0938B00C0938A0004C084B58068CB
:1015F00084BDC7BDDF91CF911F91089584B58062EE
:1016000084BDC8BDF7CF8091800080688093800042
:10161000D0938900C0938800EDCF8091B00080689E
:101620008093B000C093B300E5CF8091B00080629A
:101630008093B000C093B400DDCF8E50806480935F
:101640007C0080917A00806480937A0080917A0097
:1016500086FDFCCF8091780090917900089580916B
:1016600087058F7149F584E10E941D0BBC01990F1C
:10167000880B990B0E94103126EE3FE34EEC50E4AC
:101680000E9474310E94DF309B0170937E0560934D
:101690007D05672BB9F084E080937C05EFE7F5E0EA
:1016A00080E0419151912417350718F480937C050F
:1016B00008958F5F8430A9F7809187058F5F8093AD
:1016C000870508958FEF80937C05F6CF3FB7F89498
:1016D00080911C0290911D02A0911E02B0911F02E8
:1016E00026B5A89B05C02F3F19F00196A11DB11D7D
:1016F0003FBFBA2FA92F982F8827BC01CD01620FB9
:10170000711D811D911D42E0660F771F881F991F73
:101710004A95D1F708958F929F92AF92BF92CF9240
:10172000DF92EF92FF924B015C010E94660B6B010E
:101730007C010E94660B6C197D098E099F09683E29
:10174000734081059105A8F321E0821A9108A10850
:10175000B10888EEC80E83E0D81EE11CF11C81148C
:101760009104A104B10429F7FF90EF90DF90CF908E
:10177000BF90AF909F908F900895DC01FB01849102
:101780008F5F14968C9314973196E491EF5F1596C2
:10179000EC9315976E5F7F4F5F967C936E935E9789
:1017A00008952F923F925F926F927F928F929F92B5
:1017B000AF92BF92CF92DF92EF92FF920F931F935F
:1017C000CF93DF93EC01F901E49031968491643575
:1017D0000CF015C10E2C000CFF08062F062E000C75
:1017E000110BF701E00FF11F1E161F060CF007C1C9
:1017F00040330CF004C1A82FC42E042E000CDD08C9
:101800005601A80EB11C87FDBA941A141B040CF0E3
:10181000F6C02E5F3F4F570197E0A90EB11CB7FEEF
:1018200004C05701BEE0AB0EB11CB3E0B594A79461
:10183000BA95E1F747FF0AC0A42FA80FAC9CC001DE
:10184000AD9C900D1124281B390B40E08A2F0A2EE5
:10185000000C990B840F911D47FD9A95C19714F0C8
:10186000A0E3A41BF8A067FD60E0E535F10514F0E6
:10187000E4E5F0E09E2FCC85C427C62E062E000C92
:10188000DD08F601E01BF10B8F014F01F7E08F221D
:101890009924E0E8F0E002C0F595E7958A94E2F734
:1018A0007E2F17FF02C0095F1F4FF3E015950795C4
:1018B000FA95E1F7200F311F542F577081E001C0D6
:1018C000880F5A95EAF7459545954595F601B4E593
:1018D0004B02E00DF11D1124AF014D595C4FD0E0DA
:1018E0002A2EAA0F3308EE24E394BB24D215130446
:1018F0000CF085C0F9015490F1E0FF121AC0962E49
:101900008A01E72F6901991608F057C08E2E8520AD
:1019100021F0D8018C90882A8C92E69531F4BFEFA3
:10192000CB1ADB0AF6015490E0E893940F5F1F4F47
:10193000EACFF1101CC0782E7094962E8A01E72F02
:101940006901991608F039C08E2E852021F0D80142
:101950008C9087208C92E69531F4BFEFCB1ADB0A8E
:10196000F6015490E0E893940F5F1F4FEACFF3E045
:10197000FF122CC0782E7094862E8A01972E690152
:101980008916D0F4E92DE52141F0D801EC916C2EB7
:10199000682460FE0FC0E82BEC93969439F4BFEFF7
:1019A000CB1ADB0AF6015490E0E89E2E83940F5F79
:1019B0001F4FE6CFE721F0CFCE25880F19F44C5A00
:1019C0005F4F81E0DF5F2A0D3B1D90CF962E8A018D
:1019D000E72F6901991688F78E2E852021F0D8010E
:1019E0008C9088268C92E69531F4BFEFCB1ADB0AF7
:1019F000F6015490E0E893940F5F1F4FEBCFDF9117
:101A0000CF911F910F91FF90EF90DF90CF90BF90FB
:101A1000AF909F908F907F906F905F903F902F90AE
:101A20000895DC01643570F5403360F590968C9133
:101A30009097E62F062E000CFF0B242F2595259559
:101A4000259594E52902E00DF11D1124ED59FC4F77
:101A50002081342F37708230B1F4822F90E0032E32
:101A600002C0959587950A94E2F78095817081115F
:101A700014C081E090E001C0880F3A95EAF78095A4
:101A8000822380830895833091F71C968C91817016
:101A90006427609561708613ECCF81E090E001C00F
:101AA000880F3A95EAF7822BECCF2F923F924F9214
:101AB0005F926F927F928F929F92AF92BF92CF92DE
:101AC000DF92EF92FF920F931F93CF93DF9300D09B
:101AD00000D01F92CDB7DEB7482E362E7A01802F68
:101AE000211120C001111EC09A01462F642D81EBE7
:101AF00095E00F900F900F900F900F90DF91CF9186
:101B00001F910F91FF90EF90DF90CF90BF90AF901B
:101B10009F908F907F906F905F904F903F902F900D
:101B20000C94D10BF70124903196B490C22CD12C97
:101B3000A601495F5F4FBA0133E0759567953A9505
:101B4000E1F77B836A83022F037010E08B2C912CCA
:101B50002A94AA24AA94AB0C212F012E000C330B3B
:101B60002C153D050CF06EC0198317FF03C077E0FC
:101B7000710F798399819595959595959983912F75
:101B8000977897FF03C09150986F9F5F20E8622E6F
:101B9000712C02C0759467949A95E2F7512CE981F3
:101BA0000E2E000CFF0B3296FD83EC83252D052CA9
:101BB000000C330B281539050CF042C04A815B81BB
:101BC000429FF001439FF00D529FF00D11246C8154
:101BD0007D81E60FF71FEE0DFF1DE491F0E0E62199
:101BE000F721EF2B49F1023069F06A2D6519412F79
:101BF000033061F0422D411B652D013039F0452D38
:101C0000612F04C0622D611B4A2D45198823B1F054
:101C1000782F7370798380FF03C0922D961B692FF4
:101C200081FF03C0EB2DE41B4E2F640D430D81EBB0
:101C300095E00E94110D89815394B8CF1982F5CF98
:101C40001F5F8ACF0F900F900F900F900F90DF9132
:101C5000CF911F910F91FF90EF90DF90CF90BF90A9
:101C6000AF909F908F907F906F905F904F903F903C
:101C70002F900895AF92BF92CF92DF92EF92FF9292
:101C80000F931F93CF93DF93182F062FC0E0D3E05D
:101C90008AEFD82E9EEFE92E842F8470C82E842FD1
:101CA0008270B82E842F8870A82E4170F42ECF5FDA
:101CB0008C2F880F8F5FE80ECC2081F0402F4D0FC6
:101CC000612F6C0F81EB95E00E94110D402F4C0F9E
:101CD0006D2F610F81EB95E00E94110DBB2081F00B
:101CE000402F4D1B612F6C0F81EB95E00E94110D71
:101CF000402F4C1B6D2F610F81EB95E00E94110D61
:101D0000AA2081F0402F4C0F612F6D1B81EB95E0D5
:101D10000E94110D402F4D0F612F6C1B81EB95E040
:101D20000E94110DFF2081F0402F4C1B612F6D1B75
:101D300081EB95E00E94110D402F4D1B612F6C1B14
:101D400081EB95E00E94110DCD173CF4E7FCAFCF7D
:101D5000D150D394D394ED0CAACFDF91CF911F91A2
:101D60000F91FF90EF90DF90CF90BF90AF900895CC
:101D70000F931F93CF93DF93D82F162F042FC0E01C
:101D8000C0174CF4412F4C0F6D2F81EB95E00E9452
:101D9000110DCF5FF5CFDF91CF911F910F91089576
:101DA0008F929F92AF92BF92CF92DF92EF92FF926B
:101DB0000F931F93CF93DF93082FA62E842E922E7E
:101DC00083E0F82ED0E0C3E09AEFE92E1EEFBB24AB
:101DD000B394B20EDF5F1F0D4C2F440F6A2D6C1BA6
:101DE000C92CCF0CDA2CDD1A81E04B0D881215C0FE
:101DF000802F8D0F0E94B80E4C2D6D2D8C2F800FD3
:101E00000E94B80EDC1794F417FD04C0C150E3948F
:101E1000E3941E0DF394F394DDCF802F8D1B0E946D
:101E2000B80E4C2D6D2D802F8C1BEACFDF91CF91FA
:101E30001F910F91FF90EF90DF90CF90BF90AF90E8
:101E40009F908F900895EF92FF920F931F93CF93DF
:101E5000DF938C01F62ED42FE22EC0E0CE1544F491
:101E60006F2D6C0F4D2FC8010E94110DCF5FF6CF63
:101E7000DF91CF911F910F91FF90EF9008951F93E5
:101E8000CF93DF93C82F162F2EE4482F63E081EB0A
:101E900095E00E94230FDC2FD10F4FEF4D0F2EE462
:101EA00063E081EB95E00E94230F1650CD5F412F38
:101EB0006C2F80E00E94B80E412F6C2F83E50E94AA
:101EC000B80E41E06C2F83E00E943A0E42E06C2F86
:101ED00080E50E943A0ED45044E06D2F80E50E94C8
:101EE0003A0E48E06D2F83E0DF91CF911F910C9463
:101EF0003A0EDF92EF92FF920F931F93CF93DF93EF
:101F00007C01D62FD22EC42F002E000C110B040FF3
:101F1000111D47FD1A958C2F0C2E000C990B801764
:101F2000910744F42D2D4C2F6D2FC7010E94230FD4
:101F3000CF5FF1CFDF91CF911F910F91FF90EF9085
:101F4000DF9008954F925F926F927F928F929F924F
:101F5000AF92BF92CF92DF92EF92FF920F931F93B7
:101F6000CF93DF93EC016A3049F428859D818A85FF
:101F7000299F800D11248A871986A6C06D3009F427
:101F8000A3C0898483E588150CF487C0DA848FE2C6
:101F90008D150CF482C018852C812150330B129FB3
:101FA000C001139F900D1124880D911D87FC9A95F7
:101FB000181619060CF071C02D818D2D0D2C000CFA
:101FC000990B129F800D911D1124181619060CF003
:101FD00064C078A0C82C912CE62EF12C292D092C58
:101FE000000C330B8C8190E0281739070CF054C09B
:101FF0000197E0E02817390771F0E89EF001E99EAB
:10200000F00DF89EF00D11242E0F3F1FEE8DFF8D69
:10201000E20FF31FE4915D2C612C492C480C2D81BB
:10202000862D062C000C990B2817190691F18CF1BE
:10203000AE2EB12CE0FF16C0113061F4462D4D0DCF
:10204000642DCE010E94110DF501F595E79563947D
:10205000510EE5CF012F212F452D6C2DCE010E9471
:10206000790FF2CF89A198A1891771F388A3113054
:1020700041F4462D4D0D642DCE010E94110D78A224
:10208000E3CF012F212F452D6C2DCE010E94790F1A
:10209000F6CF9394C10EA2CF78A228853C81898582
:1020A000239F800D112489879F81992369F0082E31
:1020B000000C990B44E550E0239F4019510911246D
:1020C000481759070CF452CF81E090E0DF91CF918F
:1020D0001F910F91FF90EF90DF90CF90BF90AF9046
:1020E0009F908F907F906F905F904F900895CF92C8
:1020F000DF92EF92FF920F931F93CF93DF9323EF23
:1021000037E040E062E081EB95E00E94D10BC091A6
:102110005803D0915903FE01E85AFE4F848194E19F
:10212000C92EC89EE00DF11D1124838524E6D22E10
:102130008D9DC0011124628570E00E9433321BE244
:10214000619FC001112434E6E32EF12CB7010E94F7
:102150003332262F06E041E063E081EB95E00E94F8
:10216000790F23EF37E049E267E281EB95E00E94C7
:10217000D10B8C81C89EC00DD11D11248B858D9DE6
:10218000C00111246A8570E00E943332619FC00152
:102190001124B7010E943332262F63E5621B49E206
:1021A00081EB95E00E94790FDF91CF911F910F9104
:1021B000FF90EF90DF90CF900895E42FF0E0ED5B7B
:1021C000FD4F90819923A1F0292F30E043E0359510
:1021D00027954A95E1F7277028130AC0892F877041
:1021E000861306C0892F82958695869583700895FB
:1021F0008FEF08958230D1F028F48823A1F0813048
:1022000049F00895843061F040F08530D1F78DE0D9
:1022100091E0089581E291E0089587E191E00895C9
:1022200082E191E0089586E291E008958CE191E0E9
:1022300008958A3008F042C0E82FF0E0EE5DFE4ECF
:102240000C9447322C11311136113B1140114511BC
:102250004A114F1154115911611131C08AEB96E0A6
:10226000089561112FC082E396E0089561112DC099
:102270008AEA95E0089561112BC086E195E0089502
:10228000611129C08EE894E00895611127C082E1B0
:1022900094E00895611125C080E993E008956111EB
:1022A00023C08CEF92E00895611121C088EA92E08A
:1022B000089561111FC084E192E0089508958EEFA2
:1022C00096E0089586E796E008958EEE95E00895ED
:1022D00080E695E0089582ED94E0089580E594E02D
:1022E000089581ED93E0089586E493E0089582EDEA
:1022F00092E008958EE592E00895089590E080E0E0
:102300000895FC01358120E0321741F04496FC012C
:102310003E974081141624F02F5FF6CF80E0089599
:1023200081E00895FC013696AC014A5A5F4F2FEFC9
:10233000118A238B7496E417F507D1F7FC011582F7
:10234000248308958F929F92AF92BF92CF92DF9293
:10235000EF92FF92C0907D05D0907E05C094D094FE
:10236000F12CE12C0E94660B4B015C010E94660B74
:10237000A5019401209530954095509560957095F4
:10238000809590950E9409329B01AC01C701B6016E
:102390000E9409324B015C01C0906405D090650534
:1023A000F12CE12C0E94660B6C0D7D1D8E1D9F1D76
:1023B000680D791D8A1D9B1D6115710581059105AB
:1023C00051F0FF90EF90DF90CF90BF90AF909F9033
:1023D0008F900C947330FF90EF90DF90CF90BF9070
:1023E000AF909F908F900895CF92DF92EF92FF92DF
:1023F0006B017C01C114D104E104F10441F00E949D
:102400002430A70196010E947C306B017C01C7013A
:10241000B601FF90EF90DF90CF900895282F682F9E
:1024200070E090E080E0222321F00E94F411862FDA
:10243000089580E00895CF92DF92EF92FF9280910D
:10244000530390915403919581959109880F991F99
:10245000845D9E4F9C018233910510F422E330E0AD
:102460006901F12CE12C843F914070F464EF71E03C
:1024700080E090E06C197D098E099F090E94F4119B
:10248000C60ED71EE81EF91ED0923902C09238023D
:10249000FF90EF90DF90CF900895CF92DF92EF9270
:1024A000FF920F931F93CF93DF93809153039091EB
:1024B00054030196909354038093530384E00E9445
:1024C0000E1280935503C82FCC0FCC0F09E412E0F5
:1024D0007801D3E0DC0F84E00E940E128295880F11
:1024E000880F807C8D0FF70181937F0184E00E942B
:1024F0000E12F701E151FF4F8295880F880F807C03
:102500008D0F8083F9E5EF16F2E0FF0621F784E0F6
:102510000E940E128295880F880F807C8D0FF80123
:10252000808384E00E940E128295880F880F807C41
:102530008D0FF8018787005F1F4FF3E009341F07F5
:1025400031F782E00E940E12C80F8AE4C82E82E0A2
:10255000D82E0FEF760111E00C3008F06DC011306D
:1025600009F46AC01E3009F467C085E00E940E12AB
:10257000811162C0F701D08B1F5FF0E1EF0EF11CFB
:102580001F3051F78FEFC81AD80A0F5F0D3011F7BF
:1025900082E08093C9028093D80282E48093510242
:1025A00080934103C3E4D2E08FE00E940E12182F03
:1025B0008FE00E940E12082F84E00E940E12829576
:1025C000880F880F807C110F110F110F810F800F62
:1025D0008993E2E0C634DE0739F7E0915503F0E075
:1025E000E65CFD4F8081811132C083E00E940E12B3
:1025F00081112DC08EE00E940E12E0915803F091DF
:102600005903E85AFE4F8F5F80838EE00E940E12BE
:10261000E0915803F0915903E75AFE4F8F5F808392
:1026200010923E02DF91CF911F910F91FF90EF909A
:10263000DF90CF900C941B1284E00E940E128295C2
:10264000880F880F807C8C0FF701808B95CF81E0FD
:1026500080933E028091580390915903FC01E85AFF
:10266000FE4F24ED2083875A9E4FFC012083DACF52
:1026700064E070E080E090E00E94F4118EEF860F3D
:102680000895FF920F931F93CF93DF93EC01042FD4
:10269000162F623008F412E0F12EFF0C0E9438135E
:1026A0008F0D89830E9438138F0D88838C838D83CF
:1026B0000E9438138F0D8B830E9438138F0D8A83ED
:1026C0001E83119FB00111247595679578876F83DC
:1026D0001A86198662E070E080E090E00E94F411B2
:1026E000023089F160F40023C9F0013011F18B85CB
:1026F0008A8BDF91CF911F910F91FF900895043045
:10270000A1F138F1053099F7E62FF0E0E35DFE4FD7
:10271000808190E09F878E8784E009C0E62FF0E0FB
:10272000E15DFE4F808190E09F878E8785E08B87FB
:10273000DECF83E090E0662369F385E090E09F8739
:102740008E871B86D4CF611112C01F861E8682E041
:10275000EECF6623D1F3E62FF0E0E55DFE4F8081FA
:1027600090E09F878E8783E0E2CF6111E6CF84E01F
:1027700090E09F878E8781E0DACF90E0B0E0A0E024
:1027800082309105A105B10574F0BC01CD01615005
:102790007109810991090E94F411DC01CB010196B4
:1027A000A11DB11D089581E090E0A0E0B0E0089582
:1027B000EF92FF920F931F93CF93DF937C018B01D6
:1027C000DB018C9115968C931597F701C1811296B8
:1027D0008C919389913009F056C06C2F669566955F
:1027E0006C0F7727771F681B7109072E000C880B69
:1027F000990B0E94F411C62F8C2F0E94BD13D82F65
:10280000D70152968C910E94FA10F7012389820F0A
:10281000911DDC019C918DEF890F8730B0F5F80197
:1028200063859250E92FF0E0262F30E0DF01A15EB2
:10283000B74F4C91042E000C550B81E04217530703
:1028400079F0215E374FD9012C91022E000C330B09
:102850008FEFE217F30721F081E0691380E08195A3
:10286000D89FC00D11241C160CF0C1E0F801808126
:102870008C1B87FD0CC08083DF91CF911F910F913E
:10288000FF90EF900895C81BB7CF80E0E9CF10828A
:10289000F3CF0F931F93CF93DF93182F862FD42F4F
:1028A000C22F0E94FA10810F911DDC01EC91EA30D9
:1028B00038F5F0E0E25AFB4E0C944732681491145C
:1028C000D914161568158B15CF15271680147D168B
:1028D000DD23D9F0CF31A0F082E08093D105809341
:1028E000D2054DED4C0F67E66C1B22E437E081EB1F
:1028F00095E00E94D10B81E08093D1058093D205B1
:10290000DF91CF911F910F910895CF31C8F382E0ED
:102910008093D1058093D2054FE34C1B61EF6C0F80
:10292000E4CFDD2329F1CF3158F36DE270E06C1B69
:102930007109C62FCC0F82E08093D1058093D20518
:102940006CE36C0F2CE537E042E081EB95E00E94F0
:10295000D10B66E46C0F2CE537E04AE081EB95E0A3
:102960000E94D10B61E46C0F2CE537E044E1BFCF4E
:10297000CF3130F2CD5ACC0F82E08093D1058093D5
:10298000D20569E16C0F2CE537E04CE181EB95E075
:102990000E94D10B6FE06C0F2CE537E044E281EB35
:1029A00095E00E94D10B64E16C0F2CE537E048E222
:1029B0009ECF8C2F8370C1F068E070E080E090E0E3
:1029C0000E94F41164507109810991096093190200
:1029D00068E070E080E090E00E94F41164507109BA
:1029E0008109910960931802DD2389F0CF3108F441
:1029F00087CF82E08093D1058093D2054091180261
:102A00004B5F609119026F5B21E637E070CFCF31E9
:102A100008F476CF82E08093D1058093D20540916F
:102A200018024D5D609119026B5FEECFDD2341F11D
:102A3000CF3108F465CFDDE2DC1B82E08093D10565
:102A40008093D205C0E0DC1709F455CFC0FD16C055
:102A500063E170E080E090E00E94F411162F63E1E2
:102A600070E080E090E00E94F41141E0410F685C6A
:102A700021E737E081EB95E00E94D10BCF5FE3CFF8
:102A8000CF3108F43DCFDDE2DC1B82E08093D1053D
:102A90008093D205C0E0DC1709F42DCFC0FD16C02D
:102AA00063E170E080E090E00E94F411162F63E192
:102AB00070E080E090E00E94F41143E1410F6F5F0D
:102AC00021E737E081EB95E00E94D10BCF5FE3CFA8
:102AD000DD2391F0CF3108F413CF82E08093D1054C
:102AE0008093D2056DE270E06C1B7109660F645C27
:102AF00027E737E042E0FBCECF3108F401CF82E098
:102B00008093D1058093D2056C2F660F615427E71F
:102B100037E04CE1ECCEDD2349F1C632A0F08DE286
:102B200090E08C1B9109880F92E09093D1059093CF
:102B3000D20564E1681B01E020E043E857E0845CD3
:102B40000E94550DD8CECF3108F4DACE82E68C0F34
:102B5000880F92E09093D1059093D20564E1681BB1
:102B600001E020E043E857E08F5BEACF8BE58C0F74
:102B7000C63238F4CF3108F4C3CE85E290E08C1B26
:102B80009109880F92E09093D1059093D2056EE160
:102B9000681B01E020E043E857E08E5FD1CFDD23E2
:102BA00059F1CF3108F4ACCE82E08093D105809307
:102BB000D20564E070E080E090E00E94F411062FFE
:102BC00064E070E080E090E00E94F411D62F68E0AD
:102BD00070E080E090E00E94F411C62F68E070E0A1
:102BE00080E090E00E94F411862F61E06C0F2D2FA1
:102BF0004DE857E0835CA4CFCF3108F481CE82E06A
:102C00008093D1058093D20564E070E080E090E08D
:102C10000E94F411062F64E070E080E090E00E94D2
:102C2000F411D62F68E070E080E090E00E94F4118B
:102C3000C62F68E070E080E090E00E94F411862FDB
:102C400068E16C0F2D2F4DE857E08F5F79CFDD23C2
:102C500051F1CF3108F454CE82E08093D1058093B6
:102C6000D20564E070E080E090E00E94F411062F4D
:102C700064E070E080E090E00E94F411D62F68E0FC
:102C800070E080E090E00E94F411C62F68E070E0F0
:102C900080E090E00E94F411862F61E06C0F2D2FF0
:102CA0004FEA57E0A7CFCF3108F42ACE82E08093D5
:102CB000D1058093D20564E070E080E090E00E944E
:102CC000F411062F64E070E080E090E00E94F411BF
:102CD000D62F68E070E080E090E00E94F411C62FEB
:102CE00068E070E080E090E00E94F411862F68E1D7
:102CF0006C0F2D2F4FEA57E0A8CFDD2351F1CF31D4
:102D000008F4FECD82E08093D1058093D20564E083
:102D100070E080E090E00E94F411062F64E070E023
:102D200080E090E00E94F411D62F68E070E080E02F
:102D300090E00E94F411C62F68E070E080E090E01F
:102D40000E94F411862F61E06C0F2D2F41ED57E0AA
:102D500051CFCF3108F4D4CD82E08093D105809358
:102D6000D20564E070E080E090E00E94F411062F4C
:102D700064E070E080E090E00E94F411D62F68E0FB
:102D800070E080E090E00E94F411C62F68E070E0EF
:102D900080E090E00E94F411862F68E16C0F2D2FE7
:102DA00041ED57E052CF1092460210925403109218
:102DB0005303109248021092470282E38093570314
:102DC000E0915803F091590315820E94A2110E94CC
:102DD0004D1264E070E080E090E00E94F4116C5FBE
:102DE0007F4F8F4F9F4F709342026093410264E088
:102DF00070E080E090E00E94F4116C5F7F4F8F4F95
:102E00009F4F7093400260933F02209141023091A6
:102E1000420283E0220F331F8A95E1F73093520379
:102E20002093510393E0660F771F9A95E1F7709313
:102E30004E0360934D0310924A031092490384EFAE
:102E400091E090933902809338020895FB0101903C
:102E50000020E9F73197AF01461B570BDC01ED91DC
:102E6000FC910280F381E02D09948F929F92AF92A2
:102E7000BF92EF92FF920F931F93CF93DF93CDB743
:102E8000DEB7A1970FB6F894DEBF0FBECDBF7C01B1
:102E9000FA01CB0119A2223008F42AE08E010F5D5D
:102EA0001F4F822E912CB12CA12CBF01A5019401A2
:102EB0000E94AE30F901CA016A300CF5605DD8019C
:102EC0006E938D01232B242B252B79F790E080E046
:102ED000109721F0BD01C7010E942617A1960FB6D9
:102EE000F894DEBF0FBECDBFDF91CF911F910F9140
:102EF000FF90EF90BF90AF909F908F900895695C86
:102F0000DECFAB0170E060E02AE00C943517CF9380
:102F1000DF93482F50E070E060E02AE081EB95E01D
:102F20000E943517EC0165E771E081EB95E00E94A6
:102F300026178C0F9D1FDF91CF910895009729F0E0
:102F4000BC0181EB95E00C94261790E080E0089599
:102F50006CE47EE081EB95E00E94BD0B88E791E098
:102F60000E949E17609153037091540381EB95E08A
:102F70000E9481178EE791E00E949E1780E891E001
:102F80000E949E17609147027091480281EB95E084
:102F90000E94811765E771E081EB95E00E9426179A
:102FA00086E891E00E949E174091460250E070E052
:102FB00060E02AE081EB95E00E9435178EE791E012
:102FC0000E949E178CE891E00E949E17809121023A
:102FD0000E94871767E478E081EB95E00E943B0947
:102FE000EAE3F2E080819181890F9281890F9381D8
:102FF000890F0C948717CF93DF93BC0181EB95E089
:103000000E942617EC0165E771E081EB95E00E94D4
:1030100026178C0F9D1FDF91CF9108950F931F935B
:10302000CF93DF93EC010E943B098C0165E771E0CF
:10303000CE010E942617800F911FDF91CF911F9123
:103040000F910895E3E6F3E088EF91E0DF019C0142
:103050001D9221503040E1F71092BA051092BB0545
:1030600061E370E181EB95E00E943B090E94020A56
:103070008CB583608CBD8DB58E7F8DBD83E991E06D
:10308000EEEFFFE309951092B7056CE070E181EB7C
:1030900095E00E940E180E94020A0E94790A80910F
:1030A0007805813039F062E370E080E090E00E94C2
:1030B0008B0BF3CF08954F925F926F927F928F9216
:1030C0009F92AF92BF92CF92DF92EF92FF920F93B7
:1030D0001F93CF93DF9300D000D01F92CDB7DEB700
:1030E0004091E3055091E4056091E5057091E60596
:1030F0002FB7F89480915C0390915D03A0915E03DB
:10310000B0915F032FBF481B590B6A0B7B0B80915B
:10311000E20590E0B0E0A0E0C090DE05D090DF05D1
:10312000E090E005F090E10584179507A607B70742
:1031300008F0CEC0C114D104E104F10409F4C8C000
:103140002FB7F89480915C0390915D03A0915E038A
:10315000B0915F032FBF2091E205820F911DA11D49
:10316000B11D8093E3059093E405A093E505B0932A
:10317000E6058091D4059091D505A091D605B09132
:10318000D7050196A11DB11D8093D4059093D50557
:10319000A093D605B093D7051092DE051092DF05F7
:1031A0001092E0051092E1050E94660B6093DA052B
:1031B0007093DB058093DC059093DD0580916405B9
:1031C000909165052FE0289FA001299F500D1124A3
:1031D0005A83498385E10E941D0BA981BA818A0F18
:1031E0009B1FB4E096958795BA95E1F79093650596
:1031F0008093640520916305222309F448C06091FF
:103200006705262F30E050E040E029833A834B8366
:103210005C83C0906805D12CF12CE12C40916B05AA
:1032200050916C054A01B12CA12C20916905309177
:103230006A052901712C612C8217930728F09C01E3
:103240004817590708F49A0150E040E0241935095D
:103250004609570969817A818B819C816C197D09A6
:103260008E099F090E940932A5019401241935098C
:10327000460957090E947C30C20ED31EE41EF51E7B
:10328000C09266056C2D70E085E00E94C00A0E9425
:10329000790A80917F0590918005892B11F00E9419
:1032A0002F0B81E00F900F900F900F900F90DF91F8
:1032B000CF911F910F91FF90EF90DF90CF90BF9033
:1032C000AF909F908F907F906F905F904F900895F8
:1032D000CD28CE28CF2809F033C180917A058150BE
:1032E0008E3F18F5809179058130F9F480918D0534
:1032F0008F5F60918E0587FD09C0082E000C990B29
:1033000070E06F5F7F4F0E943332682F60938D05AE
:1033100085E090E19093E8058093E70588E4809349
:10332000E90582EF9FE00E948D0880917A05815027
:103330008E3F70F480917805813009F0D6C288EF15
:103340009FE09093E8058093E70588E48093E90582
:1033500080918805882331F080918905811102C010
:103360000E94A40880918905882309F43EC08091B9
:103370009D0581113AC08091950590919605E09147
:103380009A05F0919B05EE0FFF1FE80FF91F25919D
:1033900034912115310509F42AC1A90156954795A3
:1033A00056954795842F20FDCDC08F7380939C0543
:1033B00080918C05839F802D112480939D05109210
:1033C000AD051092AC051092AB0581E080939F058E
:1033D000809360031092A00580919A0590919B05BF
:1033E000019690939B0580939A0580919F05882371
:1033F00031F080919D05811114C10E947B0880915C
:10340000E905882309F452C08C3008F0F1C13CE092
:10341000381B3983FF24F394F092B9051092D1053B
:103420001092D2054091B6054D831981141B042FCB
:103430000D5F4DE2410F2EE463E081EB95E00E94C9
:10344000790F5D8154505D83105D252F41E0612F20
:1034500080E50E94D00E2D8142E0612F83E00E9422
:10346000D00EF092D105F092D2058091B60563E0BE
:10347000680F9981981B892F835D0E943F0F84E01C
:103480008093BA058091B605A981A81BA15DA09380
:10349000BB056091E7057091E80581EB95E00E941E
:1034A0003B098091E90581508093E90580917F0572
:1034B00090918005892BE1F0B1E0B093D105109295
:1034C000D2059091B50585E5891B8093BA051092C8
:1034D000BB0560917C05613009F4EBC108F48AC139
:1034E00080917B05653008F0FBC16B5F8111F3C1F2
:1034F0000E94020A8091B70581110EC0E3E6F3E055
:1035000088EF91E0DF019C011D9221503040E1F7EE
:103510001092BA051092BB050E94660B6093DE05FF
:103520007093DF058093E0059093E1052091DA0523
:103530003091DB05621B730B7093D9056093D8053E
:1035400080E0B0CEC901E6E096958795EA95E1F76F
:103550008F71932F96959695969590514F70423016
:1035600099F1D0F4442309F43CC04130B9F1E09121
:103570009A05F0919B053196F0939B05E0939A058F
:10358000CF01880F991FE0919505F0919605E80FFE
:10359000F91F2591349101CF433061F0443039F760
:1035A00020918C05289F802D11248093A505909350
:1035B000A605DDCF20918C05289F802D11248093B6
:1035C000A3059093A405D3CF20918C05289F802D2F
:1035D00011248093A1059093A205C9CF0E94CD0824
:1035E000C6CF8B3008F08AE080939E05C0CF209133
:1035F0009905211110C010928905809188058111CB
:1036000003C00E947B08F1CE0E94A40880919A0515
:1036100090919B05B6CF10929B0510929A05FC01E4
:10362000B8CF815080939D058091AD05811142C036
:103630002091AB053091AC052F5F3F4FC901880F3A
:10364000991FE091A705F091A805E80FF91F859152
:103650009491482F47704093AE05492F4695469563
:103660004093AF05AC0164E0569547956A95E1F744
:103670004F7390918C05499F402D11244093AD05C7
:1036800083FB882780F980935B033093AC052093FC
:10369000AB058091A90590E02817390758F02091D3
:1036A000AA05222309F49EC0821B91099093AC05C0
:1036B0008093AB058091AD0581508093AD058091DD
:1036C000A00531E0380F3093A00540919C05209172
:1036D000AF05240F80919405280F20938A056091EF
:1036E000A305662371F070E0832F032E000C990B65
:1036F0000E9433328091A405869F200D11242093CF
:103700008A0580918A0590E0849664E270E00E94C8
:10371000333280938A0520919E0520938B0560911A
:10372000A105662381F0062E000C770B832F032E54
:10373000000C990B0E9433328091A205869F200DC8
:10374000112420938B056091A5056623A1F0832F9A
:10375000330F990B70E00E943332CB0162E070E0CE
:103760000E9433322091A60590918B05289F900DE1
:10377000112490938B054F33C1F180918B058A30D2
:103780000CF089E087FD80E080938B05F894E09150
:103790008A05F0E0E253F04FE491E0935A03209160
:1037A000B00530918B053203900111244091AE0594
:1037B0004203C001439F900D112420918D0502C04A
:1037C000880F991F2A95E2F797FF02C081589F4FF3
:1037D000880F892F881F990B809361038093620360
:1037E00078940DCE0E947B0865CF10928B05CECFCA
:1037F000198210CE0E947B081092890521E0209347
:10380000B9056CE47EE081EB95E00E94BD0B10925F
:10381000800510927F051092B70538EA39830E941F
:103820005B188823E1F36EE37EE081EB95E00E9474
:103830003B0960917D0570917E0581EB95E00E94CA
:10384000811769E27EE081EB95E00E943B094981A6
:1038500042954F7050E070E060E02AE081EB95E027
:103860000E9435176EE17EE081EB95E00E943B09F6
:1038700080917805813009F43BCE498141504983DC
:103880004111CDCF70E060E085E00E94C00A83B7AF
:10389000817F846083BF83B7816083BF83B781608A
:1038A00083BF889583B78E7F83BF83B78E7F83BFA7
:1038B000B6CF8091D4059091D505A091D605B09151
:1038C000D7058F709927AA27BB2767E00897A1051E
:1038D000B10508F068E781EB95E00E94340908CE55
:1038E000882309F405CE6FE2F6CF893209F030CD96
:1038F0000E9422182DCDEF92FF920F931F93CF932A
:10390000DF930DE210E084E1F82EE02E0E945B18B8
:103910008823E1F30E9477108E2D8370823020F08F
:103920008AEF8E0D8331C8F0E0915803F09159036E
:10393000848190E00196F89E9001F99E300D11244B
:10394000E20FF31F60E080810E9419119C0148E1A1
:1039500062E081EB95E00E94D10BC0915803D091B9
:103960005903C85ADE4F8C8190E00196F89EF00111
:10397000F99EF00D1124EC0FFD1F61E080810E9483
:1039800019119C0140E06CE381EB95E00E94D10BA2
:103990008C81F89EC00DD11D11242E2D40E0688D24
:1039A000898D0E9449140115110501F1E091580318
:1039B000F09159038481F89EE00DF11D11242385B7
:1039C0003681C32F032E000CDD0B822F90E08C1B61
:1039D0009D0BB8010E943332261B2C171D0624F0C4
:1039E00023870150110991CF3387FBCFDF91CF910E
:1039F0001F910F91FF90EF900895EF92FF920F9318
:103A00001F93CF93DF93CDE2D0E014E10C2F0E94FF
:103A10005B188823E1F30E947710802F8370823037
:103A200020F08AEF800F8331D8F0E0915803F091B5
:103A30005903E85AFE4F848190E00196189F900147
:103A4000199F300D1124E20FF31F61E080810E9465
:103A500019119C0140E06CE381EB95E00E94D10BD1
:103A6000E0905803F0905903F701848190E00196AB
:103A7000189FF001199FF00D1124EE0DFF1D60E05D
:103A800080810E9419119C0148E162E081EB95E080
:103A90000E94D10BF7018481189FE00DF11D1124C4
:103AA000202F41E0608D818D0E944914209709F1FB
:103AB000E0915803F0915903E85AFE4F8481189F12
:103AC000E00DF11D112423853681E32E032E000C19
:103AD000FF08822F90E08E199F09BE010E943332A9
:103AE000261B2E151F041CF0238721978FCF3387A9
:103AF000FCCFDF91CF911F910F91FF90EF90089530
:103B00001F93CF93DF9310922202CCE314E10E9423
:103B10005B188823E1F3DEE1DC0FCF3138F48091CC
:103B20007805813001F1CC23F1F0DCE3C150E09164
:103B30005803F0915903E85AFE4F848190E00196B2
:103B4000189F9001199F300D1124E20FF31F61E0BF
:103B500080810E9419119C0140E06D2F81EB95E05E
:103B60000E94D10BD4CFDF91CF911F9108952F9256
:103B70003F924F925F926F927F928F929F92AF92FD
:103B8000BF92CF92DF92EF92FF920F931F93CF934A
:103B9000DF93382E292ED62E1092B70555245A942D
:103BA000412CD0E000E3C0E0CC24C394862E912CBD
:103BB0000E945B188823E1F390917805002E000C99
:103BC000110B913049F080917905813021F080917D
:103BD0007A058130F9F480E0D091B605D195DD9D6C
:103BE000D02D1124D250882381F086E19EE00E94DE
:103BF0008D085C2EC8018D1B9109D7FD9395029706
:103C00000CF492C04424439432C08EE09EE00E94A3
:103C10008D08F0CF4110EECF809177058F3F41F0B6
:103C20008370813029F4CF5F82EF9FE00E948D087E
:103C3000809175058F3F41F08370813029F4C15028
:103C400082EF9FE00E948D088C2F0C2E000C990BA8
:103C50008815990509F466C0C7FF02C0CFEFCD0DE6
:103C60008091B605D4E0D80F8C9FD01911240D0F88
:103C7000111DD7FD1A9517FF02C00F5F1F4FC80116
:103C800095958795182F082F1092BA058093BB053C
:103C9000C092B9051092B805E32CF22CB12CA12CDE
:103CA0006C2E0C2E000C77086A147B0459F483E008
:103CB0008093BA058091B605912FC89F900D11246D
:103CC0009093BB05F7016591749181EB95E00E949B
:103CD0000E188FEFA81AB80A92E0E90EF11CAD1485
:103CE00018F31092D1051092D2058091B605412F9C
:103CF000C89F400D1124415024E560E081EB95E020
:103D00000E94230FC092D105C092D2058091B605C2
:103D100063E0680FC89F100D1124812F82500E940C
:103D20003F0F46CFC0E09CCF852DDF91CF911F91F3
:103D30000F91FF90EF90DF90CF90BF90AF909F904A
:103D40008F907F906F905F904F903F902F9008954D
:103D5000CF92DF92EF92FF921F93CF93DF93CDB775
:103D6000DEB71EE10E945B188823E1F361E0888DD5
:103D70000E9419119C01412F41956CE381EB95E064
:103D80000E94D10B1111135062E478E081EB95E0B1
:103D90000E943B0988890E9487176EE378E081EBD7
:103DA00095E00E943B09CA840C2C000CDD08EE084B
:103DB000FF082AE0B701A601F7FE0DC06DE281EB16
:103DC00095E00E94340944275527BA014C195D0932
:103DD0006E097F092AE081EB95E00E9435176CE3BC
:103DE00078E081EB95E00E943B098E850E94871761
:103DF00065E378E081EB95E00E943B098D850E94A8
:103E0000871760E378E081EB95E00E943B098B85A2
:103E10000E9487176BE278E081EB95E00E943B09F6
:103E20008C850E94871767E278E081EB95E00E941D
:103E30003B096B897C8981EB95E00E94811765E2E3
:103E400078E081EB95E00E943B0969897A8981EBF2
:103E500095E00E94811765E771E081EB95E00E9493
:103E6000261780917805813009F07CCFDF91CF91C2
:103E70001F91FF90EF90DF90CF9008951F920F92C7
:103E80000FB60F9211242F933F938F939F93AF936D
:103E9000BF9380915C0390915D03A0915E03B0910C
:103EA0005F0330911B0223E0230F2D3758F5019655
:103EB000A11DB11D20931B0280935C0390935D03B1
:103EC000A0935E03B0935F0380911C0290911D024A
:103ED000A0911E02B0911F020196A11DB11D8093F9
:103EE0001C0290931D02A0931E02B0931F02BF916B
:103EF000AF919F918F913F912F910F900FBE0F9097
:103F00001F90189526E8230F0296A11DB11DD2CF50
:103F10001F920F920FB60F9211242F936F937F93DE
:103F20008F939F9360916103662349F180911A02F8
:103F30008F5F80931A0290915A03891700F12091A4
:103F4000600381E028272093600310921A02809179
:103F50005B03882369F08091000193E4899F802DA1
:103F60001124895B809300010E94193290936203AF
:103F700080916203211101C080E08093B4009F9181
:103F80008F917F916F912F910F900FBE0F901F9087
:103F90001895CF93DF9300D000D01F92CDB7DEB736
:103FA000789484B5826084BD84B5816084BD85B514
:103FB000826085BD85B5816085BD80916E00816020
:103FC00080936E00109281008091810082608093C6
:103FD00081008091810081608093810080918000C8
:103FE0008160809380008091B10084608093B100F3
:103FF0008091B00081608093B00080917A008460ED
:1040000080937A0080917A00826080937A00809118
:104010007A00816080937A0080917A008068809332
:104020007A001092C10082E38093E20581E090E083
:10403000A0E0B0E08093DE059093DF05A093E0055B
:10404000B093E1058FEF8093D305E0E8F7E7259182
:1040500034912130304C09F087C2E6E9F7E7E4916A
:10406000E093BC05E7E9F7E7E491E0936705E8E949
:10407000F7E7E491E0936805E9E9F7E78591949122
:1040800090936A0580936905EBE9F7E78591949130
:1040900090936C0580936B0587E080938E05EEE925
:1040A000F7E7E491E0938D05EFE9F7E7E491E0931A
:1040B000D305E0EAF7E7859194919093800580938A
:1040C0007F05E2EAF7E785919491909382058093CA
:1040D0008105E4EAF7E785919491909384058093B4
:1040E0008305E6EAF7E7859194919093860580939E
:1040F000850511E0109363056FEF70E085E00E9485
:10410000C00A88E080936D0589E080936E0587E0A2
:1041100080936F0586E08093700504E0009371053D
:1041200082E08093720581E1809373050E94790A91
:104130008CE39FE090937E0580937D0500937C0542
:10414000109387058BE08093BF058DE08093BE05BB
:1041500080E18093C0058EE08093C2058FE080935C
:10416000C1051093B9051093D1051092D205109393
:10417000B8056CE47EE081EB95E00E94BD0B1FB7B3
:10418000F89480912002811127C0EDE6F0E184913E
:10419000E1E8F0E19491E82FF0E0EE0FFF1FE45A20
:1041A000F74FA591B491EC91E92321F461E08AE005
:1041B0000E94B50961E08AE00E943D0A8CB58061E9
:1041C0008CBD8CB580648CBD61E08DE00E943D0AA1
:1041D00061E08BE00E943D0A809120028F5F809316
:1041E00020021FBF8CB58F7D8CBD8CB58C7F81600C
:1041F0008CBD8DB581608DBD8CB58C608CBD61E052
:104200008091BF050E943D0A61E08091BE050E9439
:104210003D0A61E08091C0050E943D0A8091C2057F
:1042200018161CF461E00E943D0A8091C105181621
:104230001CF461E00E943D0A8091C205181674F4D6
:1042400060E00E94B5096AE070E080E090E00E94C2
:104250008B0B61E08091C2050E94B5098091BE057B
:10426000082E000C990BFC01ED59FF4EE491F0E093
:10427000EE0FFF1FEA59F74F259134913093C60591
:104280002093C505FC01E958FF4EE491E093CC056D
:104290008091BF05082E000C990BFC01ED59FF4ED3
:1042A000E491F0E0EE0FFF1FEA59F74F25913491AA
:1042B0003093C4052093C305FC01E958FF4EE491F7
:1042C000E093CB058091C105082E000C990BFC01F1
:1042D000ED59FF4EE491F0E0EE0FFF1FEA59F74F62
:1042E000259134913093C8052093C705FC01E95806
:1042F000FF4EE491E093CD058091C005082E000C9F
:10430000990BFC01ED59FF4EE491F0E0EE0FFF1F19
:10431000EA59F74F259134913093CA052093C90586
:10432000FC01E958FF4EE491E093CE0581E20E9442
:10433000E30984E10E94E3098091BC0587FF03C083
:104340008FE78093BC058091BC0580680E94E309DB
:1043500080E20E94E3098CE00E94E3090E94020AC5
:1043600081E080938C0584E08093B00588E598E037
:10437000909398058093970580E00E94CD0861E0B6
:1043800070E083E00E94C00A8091B100887F816064
:104390008093B100F89410928000109281001092E6
:1043A00085001092840088E191E0909389008093C9
:1043B00088008091810088608093810080918100D5
:1043C00081608093810080916F00826080936F0094
:1043D000789480917F0590918005892B11F00E943F
:1043E0002F0B80917905813009F4EBC080917C0519
:1043F000882309F4E6C080E798E00E948D08809148
:10440000D305882309F4EEC081E08093B9051092AA
:10441000B8051092B70510927B058093D105809363
:10442000D20502E019E00E945B188823E1F3F8014D
:10443000849122E938E040E060E081EB95E00E9461
:10444000D10B1092BA05FCE0F093BB0562E079E075
:1044500081EB95E00E943B098091B505982F990F5B
:10446000990F891B8D5A8093BA058091B605982FB4
:10447000990F990F891B835D8093BB058091D405AB
:104480006EE878E084FD02C06AE878E081EB95E0B0
:104490000E940E188091B505982F990F990F891BCE
:1044A0008D5A8093BA058091BB058F5F8093BB05C1
:1044B00080918D0566E878E0811102C062E878E0BD
:1044C00081EB95E00E940E188091B505982F990F09
:1044D000990F891B8D5A8093BA058091BB058F5F18
:1044E0008093BB056EE778E081EB95E00E940E18A3
:1044F000809179058130B1F480918D058F5F609155
:104500008E0587FD09C0082E000C990B70E06F5FC7
:104510007F4F0E943332682F60938D0582EF9FE0BA
:104520000E948D0880917805813009F44DC08091FA
:10453000D305482F50E070E060E08090D405909063
:10454000D505A090D605B090D70584169506A60689
:10455000B70610F08F3FC1F580917A05813009F0E0
:1045600062CF0E9422185FCF9CE39093BC0510920B
:1045700067058093680580E293E090936A058093D5
:10458000690584ED93E090936C0580936B0587E05B
:1045900080938E0580938D058CEA9DE09093800535
:1045A00080937F058EED9DE0909382058093810539
:1045B00084E79EE090938405809383058CE39FE0DD
:1045C00094CD10928D051BCF8FEF8093D3050E9461
:1045D0007B081092890586E19EE00E948D0881E0AB
:1045E00080937B050E94A21180EB91E00E94B32E84
:1045F0009D838C8380EB91E0AC81BD81FC011D9299
:104600003197E9F78C819D810E9492118C819D8167
:104610008A5A9F4F0E9492118C819D8184559F4F91
:104620000E9492118C819D818E5F9E4F0E949211FB
:10463000EC80FD80F8EAEF1AFEEFFF0AC7010E9446
:1046400092110C811D81109359030093580386E544
:1046500090E00E94B32E6C010E94921186E5F60153
:10466000AC81BD8101900D928A95E1F7F801E15589
:10467000FE4F81E0808386E590E00E94B32E8C019E
:104680000E94921186E5F801D70101900D928A955A
:10469000E1F70E94D3160E945B18882379F080917D
:1046A0005703823311F40C94C82C78F4882309F44E
:1046B0004EC0813009F426C510927B0580E090E061
:1046C000892B49F30E940000E6CF833311F40C9448
:1046D000F52C833689F76DE379E081EB95E00E9454
:1046E000BD0B63E379E081EB95E00E940E180E9418
:1046F000A8176BE279E081EB95E00E943B0969E243
:1047000079E081EB95E00E943B096CE179E081EB77
:1047100095E00E940E186AE179E081EB95E00E9435
:104720003B096CE079E081EB95E00E940E188091E6
:104730007805813011F40C94B52D80917A05813083
:1047400011F00C94302E0E9422180C94B72D8091F9
:104750004903E0914102F091420220913F023091E1
:104760004002882379F1AF0183E0440F551F8A95F9
:10477000E1F78091510390915203B901A3E0660FD4
:10478000771FAA95E1F74817590709F445C184171F
:1047900095070CF03FC1019690935203809351030B
:1047A00080914D0390914E038617970709F0E3C05F
:1047B00080915103909152034817590709F0DBC0CB
:1047C00010924903409176054F3F79F04370413094
:1047D00061F4CF01419660E170E00E943332909322
:1047E00042028093410240934A03809174058F3FB7
:1047F00099F08370813081F480914102909142025E
:104800000F9660E170E00E943332909342028093F1
:10481000410283E080934A03809177058F3F79F0CE
:104820008370813061F4C901419660E170E00E94BB
:1048300033329093400280933F0210924A0380915A
:1048400075058F3F99F08370813081F480913F022C
:10485000909140020F9660E170E00E943332909395
:10486000400280933F0282E080934A0340913F02DE
:10487000509140026091410270914202DB01BB27DE
:1048800004E0AA0FBB1F0A95E1F7A75BBD4FA40F79
:10489000B11D8C918F73A82FB0E01196A370BB2728
:1048A000AB2B99F0E0905803F0905903670118EA98
:1048B000C11A1EEFD10AD6019C9196171706D1F4A2
:1048C00011969C9194171506A9F4F0934202E09377
:1048D00041023093400220933F02DF01BB2714E0E6
:1048E000AA0FBB1F1A95E1F7A75BBD4FA20FB11D21
:1048F0008C918F734091410250914202E417F50769
:1049000039F440913F02509140022417350799F144
:1049100091E09093490390E0029683709927892B48
:1049200051F50E944D122091410230914202211511
:10493000310509F084C08FE090E0909342028093AB
:1049400041028091410290914202F3E0880F991F49
:10495000FA95E1F7909352038093510380913F02BF
:1049600090914002A3E0880F991FAA95E1F79093D8
:104970004E0380934D0380917805813009F09FC1EB
:1049800010914A03F0903F02E090410266246A943D
:104990006F0C77247A947E0CAA24A394AF0C112375
:1049A00061F0992493949E0CAF2C113039F01230A1
:1049B00009F462C0972C133009F09E2CE091580343
:1049C000F0915903FD83EC83E3E4CE2EE2E0DE2E8A
:1049D00000E0AA949A94402F662D872D0E94DD1046
:1049E0008F3F41F4402F6A2D892D0E94DD108F3FAB
:1049F00009F474C0D6011C92811140C0EC81FD8184
:104A00002581821709F46AC090859F5F90878F5F28
:104A10007496F7CF0197C0CE80914D0390914E03CD
:104A20006817790709F4BCCE8617970734F4019606
:104A300090934E0380934D03B3CE0197F9CF8091AD
:104A40003F02909140022F30310529F4109242022A
:104A50001092410276CF009739F48FE090E0909366
:104A6000400280933F026DCF0F9709F06ACF1092FA
:104A7000400210923F0265CFA62C9FCF813079F47F
:104A8000AC81BD8115962C911597FD0180E08217B0
:104A900029F197819F5F97838F5F7496F8CF82305B
:104AA00061F4EC81FD81258180E08217B9F0918568
:104AB0009F5F91878F5F7496F8CF833079F4AC81D4
:104AC000BD8115962C911597FD0180E0821731F07C
:104AD0009285938796838F5F7496F8CF0F5FBFEFB1
:104AE000CB1ADB0A033009F076CF80913E028111A8
:104AF000E6C01111D7C0F394EC81FD81E85AFE4F56
:104B000080818E11DCC0EC81FD81E75AFE4F8081EF
:104B10008F11D5C011E0109356030E941B12E09133
:104B20005503F0E0E65CFD4F80818F5F808310933A
:104B30003E0280915603811131C28AE00E940E121A
:104B40002091580330915903D901A85ABE4F1596A8
:104B50008C911597843028F5482F50E0BA016F5F8B
:104B60007F4F94E1969FF001979FF00D1124EA0F7B
:104B7000FB1F11821082949FF001959FF00D11246C
:104B8000EA0FFB1F17821682128613861186108683
:104B9000148616861586108A17868F5F15968C9355
:104BA000159714961C921497255A3E4F81E0F901EF
:104BB00080838D010A5F1F4FB0905503C09053034F
:104BC000D0905403B60176956795769567956C0DF0
:104BD0007D2D711DCB01B0E0A0E0F12CE12CC816B9
:104BE000D906EA06FB065CF4CD016C197D098E0935
:104BF0009F090E94F411C60ED71EE81EF91E4B2D08
:104C00006C2DC8010E94411381E08093570380916D
:104C10007A05813009F050CD63E088E09EE00E9483
:104C2000B71D813009F43BC2823009F45FC28111A3
:104C300043CDE0915803F0915903148210E004E150
:104C4000E0915803F09159038581181708F016C2B6
:104C50000E945B188823A1F3E0915803F091590357
:104C60008481809FE00DF11D11243696ADB7BEB74B
:104C700054970FB6F894BEBF0FBEADBF1196802FEC
:104C800001900D928A95E1F70E94A81E1F5FE091A6
:104C90005803F091590314830FB6F894DEBF0FBE8A
:104CA000CDBFCECF113011F4E39426CF123029F0CE
:104CB000133009F021CFE72C1FCFF62C1DCF8091A8
:104CC00038020E940E12811105C00E941B12109220
:104CD00056032FCF8091380290913902019790931B
:104CE0003902809338024090510350905203520190
:104CF000E2E2AE1AB10880914D0390914E034C014F
:104D0000F0E18F1A9108B0925003A0924F03909255
:104D10004C0380924B0328E130E07901E81AF90A4C
:104D2000C201880F991F8C01075B1D4F6801332456
:104D30003A9422242394230C18EF1E0D1B836AE25D
:104D4000662E712C6418750810E02DE5621671044A
:104D5000E8F539E3E316F104C8F500E08FEF810FC1
:104D60008C83402F632D8C810E94DD108F3F71F565
:104D70000F5F0330B1F78091580390915903FC0104
:104D8000E85AFE4F2081211306C0875A9E4FDC014E
:104D90008C918215D9F0F301EE0FFF1FE455F10954
:104DA000EC0DFD1DE0812E2F229526952695237072
:104DB000EF73F0E0EE0FFF1FE35CFE4F4081518187
:104DC00000E06B8188EF860D0E94550D1F5FB8E0F3
:104DD0006B0E711C103109F0B8CFE8E0EE0EF11C3B
:104DE000FFEFCF1ADF0A322C0FE02012A2CF03E42C
:104DF00012E01D830C8306E412E0AC81BD818D912D
:104E0000BD83AC83882361F1682F70E093E07595D2
:104E100067959A95E1F7677070E06F5F7F4F23E0C9
:104E2000660F771F2A95E1F76A197B09482F4770AB
:104E300050E04F5F5F4F33E0440F551F3A95E1F765
:104E40004819590982958695869583702CE53CE032
:104E5000833011F422E53CE081EB95E00E94D10B18
:104E6000EC81FD810E171F0741F680915803909148
:104E70005903FC01E75AFE4F4081F8E04F9FA00123
:104E8000112448195909885A9E4FDC016C91B8E0E9
:104E90006B9FB00111246A197B0927ED30E081EB8B
:104EA00095E00E94D10B6AE77CE081EB95E00E94DF
:104EB000BD0B64E77CE081EB95E00E943B096091CB
:104EC00053037091540381EB95E00E9481176DE6C6
:104ED0007CE081EB95E00E943B0960914702709174
:104EE000480281EB95E00E94811766E67CE081EB49
:104EF00095E00E943B094091460250E070E060E07E
:104F00002AE081EB95E00E9435176CE47EE081EBAE
:104F100095E00E94BD0B00915103109152038091C6
:104F20004F0390915003081B190BC801409685361A
:104F3000910590F5E0904D03F0904E0380914B0366
:104F400090914C03E81AF90AC70140968134910503
:104F500018F5E0914A0380914903882381F02E2FB0
:104F6000220FE4E0E20F8091D4059091D50568E02E
:104F700070E00E943332049714F0E5E0E20FF0E0B5
:104F8000EE0FFF1FE35AFE4F208131814E2D602F1F
:104F900081EB95E00E94D10B80E037CEE091580381
:104FA000F0915903E55AFE4F108206E010E0A091FF
:104FB0005803B0915903A85ABE4F15968C91159776
:104FC000843028F5282F30E0A9014F5F5F4F94E12E
:104FD000949FF001959FF00D1124EA0FFB1F1182A1
:104FE0001082929FF001939FF00D1124EA0FFB1F96
:104FF00017821682128613861186108614861686EC
:105000001586108A17868F5F15968C9315977D01EC
:10501000E00EF11EC090550380905303909054030E
:10502000B40176956795680D792D711DCB01B0E0BF
:10503000A0E0B12CA12C88169906AA06BB065CF448
:10504000CD01681979098A099B090E94F411860E1D
:10505000971EA81EB91E4C2D682DC7010E94411332
:105060000C5E1F4F0635110509F0A1CFE0915803E2
:10507000F0915903E85AFE4F1482C6CD0E945B1886
:105080008823E1F30E94A817809178058130B1F759
:10509000E0915803F09159038FEF84830DCB10E01A
:1050A000EAE0EE2EF4E3BF2E1A3090F70E945B1870
:1050B0008823D1F3E12FF0E0E25DFD4FCF018E5266
:1050C00092402191AA24A394A10E211152C51A2D18
:1050D0001B30A1F7EEE4FCE0F093E805E093E70570
:1050E000B092E9057BC586E891E058C50E94221878
:1050F0008CEF9DE09093E8058093E70584E380932F
:10510000E905DACA612C04E110E01D830C8363E039
:10511000C62ED12C5524539477E0972E11E00E948F
:105120005B188823E1F32C813D8121153105B1F114
:10513000215031093D832C83C901B6010E943332CD
:10514000892B09F46524A12C8A2C880C880CB12C9D
:105150003A2D3170732E8B2D8170662061F0811194
:105160000CC0772061F0B3948FE0B812F4CFA39411
:10517000A812EACFD4CF8111F4CF7720A1F3B99C44
:10518000402D112407E024E0682D81EB95E00E947A
:10519000790F1093D1051093D205E5CFE091580314
:1051A000F0915903E55AFE4F8081882309F4B7C076
:1051B0008CE39CE09093E8058093E7058AE2809376
:1051C000E9050E94801DE0915803F09159038FEF8B
:1051D000848314E156ECA52E5BE0B52E0CE1E09142
:1051E0005803F0915903E85AFE4F84818F3F99F498
:1051F00080E091E0980FDF01189FA00DB11D1124F0
:1052000016962C91121624F02581921708F48AC064
:1052100084830E94801DA0915803B0915903FD0121
:10522000E85AFE4F848190E00196189F9001199FE3
:10523000300D1124E20FF31F0190F081E02DE25DAB
:10524000FD4F8081811107C081E0808380914602FB
:105250008F5F8093460214968C918F3F09F06EC049
:1052600064E086E09CE00E94B71DE0915803F09155
:1052700059038483189FE00DF11D112486811816AF
:105280007CF7B092E805A092E70588E48093E905F1
:105290009CE39C830E945B188823E1F3AC81AF31CF
:1052A00008F442C0B02FBA1BBB832C8121502C8341
:1052B000E0905803F0905903F701E85AFE4F8481BB
:1052C00090E00196189F9001199F300D1124E20F74
:1052D000F31F61E080810E9419119C0140E06CE3A2
:1052E00081EB95E00E94D10BD70114968C9190E050
:1052F0000196189F9001199F300D1124E20EF31EA4
:1053000060E0F70180810E9419119C0148E16B81E6
:1053100081EB95E00E94D10B0E947710BBCF81E317
:105320009CE048CF892F65CF80917805813031F09E
:10533000EC81EE2319F0F2E0FB83B7CFE090580345
:10534000F0905903F8EAEF1AFEEFFF0AD70114961E
:10535000CC90D12C63E070E080E090E00E94F411EA
:105360001C9DC0011D9D900D1124E80EF91EF70132
:10537000618FE0915803F09159038481189FE00DEB
:10538000F11D1124808D823049F1F0F48823A9F1B8
:1053900022EF3BE08130F9F065E089819A810E943B
:1053A000B71D10922302E0905803F0905903833008
:1053B00039F1843009F4A6C0F7019481199FE00DFA
:1053C000F11D1124818F20C0843091F060F02AEC0F
:1053D0003BE0853009F73A832983DECF88EE9BE0F6
:1053E0009A838983D9CFAEEDBBE0BA83A983D4CFAA
:1053F000E4EDFBE0FA83E983CFCF8CEF9BE0F0CFC5
:105400008FEFD70114968C939701285A3E4F3D8316
:105410002C83D90114968C918F3F09F4E0CEF701CB
:1054200094819F3F09F4DBCE209123022111B5C165
:10543000199FE00DF11D1124E1848E2D0E94BD13F2
:10544000E80EFF24FF1CE0915803F0915903E85A3D
:10545000FE4F8481189FE00DF11D1124D1848D2D04
:105460000E94BD132D2D280F3327331FC901309102
:105470005803209159038E159F050CF047C0E32E69
:10548000F22EC701885A9E4F9D838C8381E08093C2
:105490000201AC81BD8114968C911497BD01819F4E
:1054A000600D711D11246A5F7F4FF70184819701A0
:1054B000819F200D311D1124C90106960E94D81329
:1054C000AC81BD8114968C911497FD01189FE00D5D
:1054D000F11D11249681191624F5F7019481B70165
:1054E000919F600D711D11246A5F7F4F819FA00DF8
:1054F000B11D1124CD0106960E94D81381E080933E
:10550000010111C091E09093230256CF3C832D837B
:10551000EC80FD8098EAE91A9EEFF90A10920201E8
:10552000B8CF1092010180910201882309F48CC147
:105530000E94FD1C8091010181110E947B1CE09161
:105540005803F0915903DF01A85ABE4F14968C916D
:105550001497189FA00DB11D112416968C91181642
:105560000CF47CC11B820E945B188823E1F30E942B
:105570007710E0905803F0905903F701E85AFE4F76
:10558000848190E00196189F9001199F300D11249D
:10559000E20FF31F61E080810E9419119C014B8191
:1055A0006CE381EB95E00E94D10BF701848190E0E0
:1055B0000196189F9001199F300D1124E20EF31EE1
:1055C00060E0D7018C910E9419119C0148E162E0D2
:1055D00081EB95E00E94D10BBB81B150BB83B73DFD
:1055E00011F6E0915803F09159038481482F50E05F
:1055F000DF01189FA00DB11D11246FEF59966C9318
:105600007F0128EAE21A2EEFF20AD70114967C9164
:10561000272F30E06701179FC00CD11C1124D60141
:1056200059966C93599716966C9116164CF080917A
:105630004702909148020196909348028093470256
:1056400080912202882309F40DC3809123028823CC
:1056500009F4C6C2719FE00DF11D1124E25AFE4FFC
:105660002DB73EB7245131090FB6F8943EBF0FBE97
:105670002DBFADB7BEB71196812F01900D928A95BF
:10568000E1F70E94A81E89E19CE09093E8058093D1
:10569000E70534E33093E90562E085E19CE00E9490
:1056A000B71D0FB6F894DEBF0FBECDBF81113EC04F
:1056B000E0915803F09159038581843008F419C1B1
:1056C0008EE09CE09093E8058093E705B4E3B09307
:1056D000E90564E086E09CE00E94B71DE091580374
:1056E000F09159038F93DF01A85ABE4F14968C9105
:1056F000819FE00DF11D1124E25AFE4F2DB73EB7F8
:10570000245131090FB6F8943EBF0FBE2DBFADB77F
:10571000BEB7119684E101900D928A95E1F70E943F
:10572000F9080FB6F894DEBF0FBECDBF80912202FC
:10573000811159C2E0905803F0905903C7010E94AB
:105740008111882309F44FC2670198EAC91A9EEFB4
:10575000D90AC6010E948111882309F444C2D601E6
:1057600014968C91F601189FE00DF11D112486818D
:1057700018161CF08FEFF6018483D70114968C91D4
:10578000F701189FE00DF11D1124868118160CF405
:1057900026CD8FEFF701848322CD91E09093020113
:1057A00090E0E55AFE4F2081222309F43EC0189F65
:1057B000F001199FF00D11242C813D81E20FF31FA0
:1057C000668167FD6F5F6595062E000C770B6F5F36
:1057D0007F4F16161706FCF010920101AC81BD81B7
:1057E00014962C91149730E02F5F3F4F129FC00109
:1057F000139F900D1124A80FB91FED91FC91EC5D42
:10580000FD4F81E0808380932202809121028F5F8F
:105810008093210288CE072E000C880B990B0E94E2
:10582000F411672B682B692BB9F2F7018481B7015A
:10583000819F600D711D11246A5F7F4FAC81BD8116
:1058400014968C91149752CE0E947B1C809101017A
:10585000882309F474CE0E94FD1C71CE8481189FA8
:10586000E00DF11D1124868118160CF4BACEE8E182
:10587000EB830E945B188823E1F30E947710E0908D
:105880005803F0905903F701E85AFE4F848190E0E5
:105890000196189F9001199F300D1124E20FF31FFC
:1058A00061E080810E9419119C0140E06CE381EB72
:1058B00095E00E94D10BD70114968C9190E001964F
:1058C000189F9001199F300D1124E20EF31E60E025
:1058D000F70180810E9419119C014B8162E081EBEC
:1058E00095E00E94D10BFB81FF5FFB83F13409F649
:1058F00078CE282F30E0A9014F5F5F4F149FD00171
:10590000159FB00D1124AE0FBF1F1D921C92129F48
:10591000D001139FB00D1124AE0FBF1F17961C921C
:10592000179716961C9216971A961C921A971B9602
:105930001C921B9719961C92199718961C921897EF
:105940001C961C921C971E961C921E921D97509698
:105950001C921E921F9791E0980F95838F93DF0101
:10596000A85ABE4F14968C91819FE00DF11D112411
:10597000E25AFE4FADB7BEB754970FB6F894BEBF0C
:105980000FBEADBFC6CE86E29CE038C180E05AC1F2
:1059900081E08093B80510E00E945B188823E1F352
:1059A0008AE991E00E94FB17111106C080917805E9
:1059B000813091F71F5FF0CF87EB91E00E94FB17DA
:1059C0001130A1F38DED91E00E94FB17123071F3BD
:1059D00086EF91E00E94FB17133041F31092B80557
:1059E00083E3809357030C945C23F12C10E023E0B5
:1059F000E22E0E945B188823E1F32FEB3BE04AE0A4
:105A000065E081EB95E00E94D10B01E020E04FEBD7
:105A10005BE06AE08BE40E94550D61E0812F0E94FB
:105A200019119C0148E16EE16F0D81EB95E00E9438
:105A3000D10B1F140CF091C0B8EFFB0E80917405D0
:105A4000813039F4810F6E2D0E942532192F98E292
:105A5000F92E80917605813031F4115088EDF82EC1
:105A60001F3F09F480C080917805813011F6E091E4
:105A70005803F091590385818430A8F5282F30E030
:105A8000A9014F5F5F4F94E1949FD001959FB00DA6
:105A90001124AE0FBF1F1D921C92929FD001939FA5
:105AA000B00D1124AE0FBF1F17961C9217971696B4
:105AB0001C9216971A961C921A971B961C921B976B
:105AC00019961C92199718961C9218971C961C925E
:105AD0001C971E961C921E921D9750961C921E9209
