:100000000C94B8040C94E0040C94E0040C94E00408
:100010000C94E0040C94E0040C94E0040C94E004D0
:100020000C94E0040C94E0040C94E0040C9402148E
:100030000C94E0040C94E0040C94E0040C94E004B0
:100040000C94B8130C94E0040C94E0040C94E004B9
:100050000C94E0040C94E0040C94E0040C94E00490
:100060000C94E0040C94E0040101FF030101F70388
:10007000100F020007400FE00FE01D7014503AB857
:10008000729CF11EF83E8FE2FFFEFF1EFF1E0EE087
:10009000100F020007400FE00FE01D7014503AB837
:1000A000729CF11EF83E8FE2FFFEF1FEF1FE0EE0C3
:1000B000100FF21ED756BFFA8FE2FB7EF83EFABE53
:1000C000F29E711C18300FE00FE00FE00FE00EE021
:1000D0000809FE929292FE929292FE0809FE96986C
:1000E000D6BE9292D6FC0809FE8688D6B212AAC65F
:1000F000FC08091C1628C6A212AAC67C280B7FFF82
:10010000FFFFFC924924924AFFFFFFFFFE8200009E
:100110000082443838384434444444581C82828233
:100120007034828282581C8282827034FEFEFE58B5
:100130001C00000070280B7FFFFFFFFC92492492F7
:100140004AFFFFFFFFFE8200000082443838384437
:1001500034444444581C8282827034828282581C07
:100160008282827034FEFEFE581C00000070280B54
:100170007FFC003FFC924900524AFFFF83BFFE8292
:1001800000440082440828384434547844581CA25F
:100190008882703492949A581C8282A67034FEFE33
:1001A000C0581C00000070280B7C000003FC92402B
:1001B000004A4AFFF80137FE8209006082440A00C3
:1001C000B84434540024581CA6004270349B005A92
:1001D000581CA280E67034C08180581C00FE00705C
:1001E0002825F7FFFFFFDE1C000000703400000030
:1001F000581C0000007034000000581C0000007003
:1002000034000000581C0000007034000000581C2E
:100210000000007034000000581C00000070F7FF60
:10022000FFFFDE1C0000007034000000581C0000BE
:10023000007034000000581C000000703400000002
:10024000581C0000007034000000581C00000070B2
:1002500034000000581C00000070F7FFFFFFDE1C98
:100260000000007034000000581C000000703400D2
:100270000000581C0000007034000000581C0000F2
:10028000007034000000581C0000007034000000B2
:10029000581C00000070F7FFFFFFDE280B1C000059
:1002A000007034000000581C000000703400000092
:1002B000581C0000007034003000581C00480070CA
:1002C00034008400581C0084007034008400581CE2
:1002D000008400706C00680000000000240027000B
:1002E0002A0000000000250028002B0005008930AE
:1002F000080238024978681400005830FFFFFFFFF9
:10030000FFFFFFFFFFFFF0FFFFFFFF0FC3F3FFFF44
:10031000FFF0FFFFFFFFAFFFFEFFFFFFF0FFFFFF5C
:10032000FF6FBFEBFFFFFFF0FFFFFFFFD87FC7FFAF
:10033000FFFFF0FFFFFFFFFFFBF7FFFFFFF0FFFFF7
:10034000FFE07FFC783FFFFFF0FFFFFFFFFFFFFDB7
:10035000FFFFFFF0FFFFFFF7FFFFFC3FFFFFF0FF96
:10036000FFFFFBFFFFFEFFFFFFF0FFFFFFFBFFFFB5
:10037000FCFFFFFFF0FFFFFF8BFFFFFC97FFFFF08D
:10038000FFFFFF1FEFFF7FF7FFFFF0FFFFFFFFF013
:10039000007FFFFFFFF0FFFFFFFFF0007FBFFFFFC9
:1003A000F0FFFFFFFFE0007F3FFFFFF0FFFFFFFBDD
:1003B000C6031EFFFFFFF0FFFFFFFBC6031EFFFF8C
:1003C000FFF0FFFFFFFFC0001DFFFFFFF0FFFFFF7B
:1003D000EFC18C1CFFFFFFF0FFFFFFFF418C1BFFF5
:1003E000FFFFF0FFFFFFC040001817FFFFF0FFFF07
:1003F000FFC0C0001017FFFFF0FFFFFFE0C18C102F
:100400003FFFFFF0FFFFFFE0C18C103FFFFFF0FF59
:10041000FFFFE0C18C183FFFFFF0FFFFFFE0C000CF
:10042000183FFFFFF0FFFFFFE04000103FFFFFF02D
:10043000FFFFFFFE000003FFFFFFF0FFFFFFFE00D6
:100440000003FFFFFFF0FFFFFFFE000003FFFFFFC1
:10045000F0FFFFFFF8000000FFFFFFF0FFFFFFF8D5
:10046000000000FFFFFFF0FFFFFFF8300060FFFF1C
:10047000FFF0FFFFFFF8300060FFFFFFF0FFFFFF1E
:10048000F8FFFFF8FFFFFFF0FFFFFFF8FFFFF8FFA7
:10049000FFFFF0FFFFFFF8FFFFF8FFFFFFF0FFFF98
:1004A000FFF8C7FF18FFFFFFF0FFFFFFF8C7FF18B7
:1004B000FFFFFFF0FFFFFFF8F00078FFFFFFF0FF06
:1004C000FFFFF8F00078FFFFFFF0FFFFFFF870007C
:1004D00070FFFFFFF0FFFFFFFF000003FFFFFFF0D3
:1004E000FFFFFFFF000003FFFFFFF0FFFFFFFFC064
:1004F000001FFFFFFFF0FFFFFFFFC0001FFFFFFF18
:10050000F0FFFFFFFFC0001FFFFFFFF005003801F5
:100510006801000040240000003FFE0000000000D1
:10052000001FF80000000000007FFE000000000037
:10053000003C1E000000000007FB6FE00000000010
:100540001CFC93FC000000007C7DD3FF0000000138
:10055000FC7BE7FFC0000003FE39CFFFC0000003B3
:10056000FE300FFFC0000007FE30EFFFE000000785
:10057000FF110FFFE0000007FF180FFFE000000F62
:10058000FF0C1FFFF000000EEF0FFFFE70000008D1
:100590006F0FFFF630000008030FFFF0080000089F
:1005A000031FFFF008000008020FFFF0080000081A
:1005B000035FFFF008000008031FFFE008000008C9
:1005C000031FFFE00800000803FFFFE00800000829
:1005D00003FFFFE00800000803FFFFE00800000839
:1005E00003FFFFE00800000803FFFFC00800000849
:1005F0001FFFFFFC0800000800FFFFC00800000804
:10060000007FFF8008000008007FFF00080000084E
:10061000003FFE0008000008003FFE000800000840
:100620000C3FFF3808000008377FFF501800000813
:1006300050FFFF88100049276D20676F6E6E6120A4
:10064000777265636B27697400175344001613783B
:1006500000161314001510200015201000540A0372
:10066000E181867F3E186D830F0F0E018386603314
:10067000186DC3198F1803C38E6033186DE330CF24
:100680001803C39E603630CDE360CF3006C79E7E30
:100690003E30CDB360CF300CC6F6603330D9B66093
:1006A000CF33CFCCF66061B0DB1E60CF30D86CE6C4
:1006B000C061B0DB1E618F19986CC6C063B19B0E20
:1006C000330F0FB078C6FF7E1F1B061E0F0A0A15D8
:1006D0003A49676E6F7265006D560A0A504C454183
:1006E0005345205455524E204F464620004C4F57FC
:1006F000204241545445525921200003053F213FD7
:100700001208120A100A0E1C0E0C1E0C141A1416D3
:100710001F161E131E1E1B1E1E1F1E3F213F3A2F9B
:100720003A173D173F213F181F02040A041F0E0409
:10073000040E1F0A1F0A0E0E1F04110E2E252E2F47
:100740002A2E262929021F02081F08150E04040E4E
:10075000150E15151B151B040604040C04000000DF
:100760000017000300031F0A1F16371A1904130A83
:10077000153A000300000E11110E000A040A040EBF
:10078000040030000404040010001804031F111FAB
:10079000121F101D151711151F07041F17151D1FF8
:1007A000151D01011F1F151F17151F000A0000321C
:1007B00000040A110A0A0A110A040115020E11178F
:1007C0001E051E1F150A0E110A1F110E1F15111FDF
:1007D00005010E111D1F041F111F1108100F1F040A
:1007E0001B1F10101F061F1E040F0E110E1F0906DF
:1007F0000E112E1F051A121509011F011F101F0FC0
:10080000180F1F0C1F1B041B031C03191513001FBB
:1008100011030418111F0002010220202000010210
:100820000C121E1F120C0C12120C121F0C1A1404A4
:100830001E05242A1E1F021C141D1020201D1F0827
:1008400014111F101E041E1E021C0C120C3E0A0462
:100850000C123E1E040214160A020F120E101E0E77
:10086000100E1E081E120C1226281E322A26041EE6
:1008700021001F00211E040102013F213FF6E8DB99
:10088000CFC3B8AEA49B928A827B746E68625C57B9
:10089000524E4945413E3A3734312E2C29272523E3
:1008A00021450068010000172B152010204C4F41F6
:1008B00044455200172B16201314000A4E6F205384
:1008C000442063617264206F720A6E6F204C4F4146
:1008D0004445522E4845580A0A153A45786974002D
:1008E0001D20466C617368696E670A20206C6F6119
:1008F0006465722E2E2E0A0A444F4E2754205455FA
:10090000524E204F464621000000000023002600E2
:100910002900040404040404040402020202020282
:1009200003030303030301020408102040800102B3
:100930000408102001020408102000000008000232
:100940000100000304070000000000000000100F79
:10095000020007400FE00FE01D70145032B8729C87
:10096000F11EF83E8FE2FFFEFFFEFFFE0EE05B1879
:1009700011241FBECFEFD8E0DEBFCDBF11E0A0E055
:10098000B1E0EEE6F4E302C005900D92A831B107A4
:10099000D9F724E0A8E1B1E001C01D92AF32B2075F
:1009A000E1F714E0C8EBD4E004C02197FE010E94F7
:1009B0002F1AC73BD107C9F70E9443140C94351A6C
:1009C0000C940000E8EAF3E014AE12AE1092F103CA
:1009D0001092F00315AE1092A7011092A60110928A
:1009E000A5011092B4000895CF93DF93E091D60350
:1009F0008E2F90E0880F991FE091D403F091D503DA
:100A0000E80FF91F859194918F3F980729F4109270
:100A1000CD03DF91CF9108959093D9039927880F43
:100A2000991FE091D703F091D803E80FF91FC59102
:100A3000D4910E94E204D093DB03C093DA031092B6
:100A4000E0031092DF0381E08093CE0389E080937E
:100A5000E3031092E6031092E8031092EA038091F8
:100A6000D6038F5F8093D603D4CF90E0880F991F71
:100A7000E091DC03F091DD03E80FF91F259134913B
:100A80003093ED032093EC03F901859194919091BB
:100A9000D103989F802D11248093EE03F901659175
:100AA0007491472F50E08417150629F020F0F901C2
:100AB00025913491832F989F802D11248093EF03EB
:100AC0000895AF92BF92CF92DF92EF92FF920F9371
:100AD0001F93CF93DF936C017B018B01040F151FD4
:100AE000EB015E01AE18BF08C017D10759F069913C
:100AF000D601ED91FC910190F081E02DC6010995A0
:100B0000892B79F7C501DF91CF911F910F91FF904C
:100B1000EF90DF90CF90BF90AF900895833081F039
:100B200028F4813099F08230A9F008958730A9F037
:100B30008830C9F08430B1F4809180008F7D03C08B
:100B4000809180008F7780938000089584B58F779F
:100B500084BD089584B58F7DFBCF8091B0008F77E1
:100B60008093B00008958091B0008F7DF9CF1F93DE
:100B7000CF93DF93282F30E0F901E65CF64F8491A4
:100B8000F901EA5DF64FD491F901EE5EF64FC4919A
:100B9000CC23A9F0162F81110E948E05EC2FF0E0D6
:100BA000EE0FFF1FEE51FD4FA591B4918FB7F89452
:100BB000EC91111108C0D095DE23DC938FBFDF913B
:100BC000CF911F910895DE2BF8CFCF93C82FF894C3
:100BD00060E0809105040E94B70580910604181614
:100BE0001CF460E00E94B705CEBD00000DB407FE06
:100BF000FDCF8EB58091060418161CF461E00E94AA
:100C0000B7057894CF9108950F931F93CF93809158
:100C100002048F5F8093020408EA11E0C0E08C2F89
:100C200080640E94E50580E80E94E50561E080910E
:100C300005040E94B7058091060418161CF460E0B4
:100C40000E94B705F80184E591919EBD00000DB4A6
:100C500007FEFDCF9EB58150B9F7809106041816A6
:100C60001CF461E00E94B705CF5F0C5A1F4FC630DD
:100C7000B1F680E4CF911F910F910C94E505CF93CD
:100C8000DF9390E0FC01EA5DF64F24918E5E964F73
:100C9000FC0184918823C9F090E0880F991FFC0122
:100CA000E852FD4FA591B491FC01EE51FD4FC59165
:100CB000D49161110DC09FB7F8948C912095822337
:100CC0008C938881282328839FBFDF91CF9108953B
:100CD000623051F49FB7F8943C91822F8095832322
:100CE0008C93E8812E2BEFCF8FB7F894EC912E2BBD
:100CF0002C938FBFEACFFF920F931F93CF93DF9375
:100D0000C8EAD3E0FF24FA9462E08A850E943F0695
:100D10002A8530E0F901E65CF64F8491F901EA5D3D
:100D2000F64F0491F901EE5EF64F14911123E1F0B4
:100D300081110E948E05E12FF0E0EE0FFF1FE85FAA
:100D4000F64FA591B491EC9189890E2369F0811138
:100D500013C0219683E0CF3AD807B1F6DF91CF9147
:100D60001F910F91FF90089589898F5F898B60E0B3
:100D70008A850E943F06EDCF8F3F11F4198AF7CF85
:100D8000F98AF5CF1F93CF93DF93182FEB0161E022
:100D90000E943F06209739F460E0812FDF91CF91C8
:100DA0001F910C94B705CF3FD10511F461E0F5CF49
:100DB000E12FF0E0E65CF64FE491E33031F140F4EE
:100DC000E130B1F0E230E1F0C038D1057CF7E4CF9A
:100DD000E73029F1E83059F1E430B1F78091800033
:100DE000806280938000D0938B00C0938A0004C0FF
:100DF00084B5806884BDC7BDDF91CF911F910895F0
:100E000084B5806284BDC8BDF7CF809180008068C2
:100E100080938000D0938900C0938800EDCF8091AB
:100E2000B00080688093B000C093B300E5CF80919C
:100E3000B00080628093B000C093B400DDCF8E50CC
:100E4000806480937C0080917A00806480937A0033
:100E500080917A0086FDFCCF809178009091790096
:100E600008958091CC038F7149F584E10E941F079A
:100E7000BC01990F880B990B0E94F21826EE3FE3F4
:100E80004EEC50E40E9456190E94C1189B017093C9
:100E9000C3036093C203672BB9F084E08093C1035E
:100EA000E4ECF3E080E0419151912417350718F408
:100EB0008093C10308958F5F8430A9F78091CC039C
:100EC0008F5F8093CC0308958FEF8093C103F6CF9B
:100ED0003FB7F89480911A0190911B01A0911C01D9
:100EE000B0911D0126B5A89B05C02F3F19F00196B2
:100EF000A11DB11D3FBFBA2FA92F982F8827BC0174
:100F0000CD01620F711D811D911D42E0660F771F9B
:100F1000881F991F4A95D1F708958F929F92AF929B
:100F2000BF92CF92DF92EF92FF924B015C010E9441
:100F300068076B017C010E9468076C197D098E09A6
:100F40009F09683E734081059105A8F321E0821A4C
:100F50009108A108B10888EEC80E83E0D81EE11CF4
:100F6000F11C81149104A104B10429F7FF90EF90C2
:100F7000DF90CF90BF90AF909F908F9008952F9269
:100F80003F925F926F927F928F929F92AF92BF92A9
:100F9000CF92DF92EF92FF920F931F93CF93DF9345
:100FA000EC01F901E4903196849164350CF015C19F
:100FB0000E2C000CFF08062F062E000C110BF7015B
:100FC000E00FF11F1E161F060CF007C140330CF096
:100FD00004C1A82FC42E042E000CDD085601A80E53
:100FE000B11C87FDBA941A141B040CF0F6C02E5FD6
:100FF0003F4F570197E0A90EB11CB7FE04C057013F
:10100000BEE0AB0EB11CB3E0B594A794BA95E1F77E
:1010100047FF0AC0A42FA80FAC9CC001AD9C900D47
:101020001124281B390B40E08A2F0A2E000C990B43
:10103000840F911D47FD9A95C19714F0A0E3A41B5E
:10104000F8A067FD60E0E535F10514F0E4E5F0E0B7
:101050009E2FCC85C427C62E062E000CDD08F60177
:10106000E01BF10B8F014F01F7E08F229924E0E89C
:10107000F0E002C0F595E7958A94E2F77E2F17FF1E
:1010800002C0095F1F4FF3E015950795FA95E1F748
:10109000200F311F542F577081E001C0880F5A95DF
:1010A000EAF7459545954595F601B4E54B02E00D07
:1010B000F11D1124AF0148555E4FD0E02A2EAA0F32
:1010C0003308EE24E394BB24D21513040CF085C03E
:1010D000F9015490F1E0FF121AC0962E8A01E72F11
:1010E0006901991608F057C08E2E852021F0D8018D
:1010F0008C90882A8C92E69531F4BFEFCB1ADB0AEC
:10110000F6015490E0E893940F5F1F4FEACFF1107F
:101110001CC0782E7094962E8A01E72F69019916CB
:1011200008F039C08E2E852021F0D8018C908720C0
:101130008C92E69531F4BFEFCB1ADB0AF60154909E
:10114000E0E893940F5F1F4FEACFF3E0FF122CC04B
:10115000782E7094862E8A01972E69018916D0F414
:10116000E92DE52141F0D801EC916C2E682460FE58
:101170000FC0E82BEC93969439F4BFEFCB1ADB0A3F
:10118000F6015490E0E89E2E83940F5F1F4FE6CF48
:10119000E721F0CFCE25880F19F44C5A5F4F81E03C
:1011A000DF5F2A0D3B1D90CF962E8A01E72F690144
:1011B000991688F78E2E852021F0D8018C908826EC
:1011C0008C92E69531F4BFEFCB1ADB0AF60154900E
:1011D000E0E893940F5F1F4FEBCFDF91CF911F910A
:1011E0000F91FF90EF90DF90CF90BF90AF909F90C6
:1011F0008F907F906F905F903F902F900895DC01CB
:10120000643570F5403360F590968C919097E62F99
:10121000062E000CFF0B242F25952595259594E58A
:101220002902E00DF11D1124E855FE4F2081342FD5
:1012300037708230B1F4822F90E0032E02C0959572
:1012400087950A94E2F780958170811114C081E03E
:1012500090E001C0880F3A95EAF780958223808359
:101260000895833091F71C968C9181706427609566
:1012700061708613ECCF81E090E001C0880F3A9551
:10128000EAF7822BECCF2F923F924F925F926F92B0
:101290007F928F929F92AF92BF92CF92DF92EF9206
:1012A000FF920F931F93CF93DF9300D000D01F9234
:1012B000CDB7DEB741111FC02EE439E0462F682FAD
:1012C00086EF93E00F900F900F900F900F90DF91AB
:1012D000CF911F910F91FF90EF90DF90CF90BF9033
:1012E000AF909F908F907F906F905F904F903F90C6
:1012F0002F900C94BF074983362E8A83EEE4F9E0E1
:101300008491EFE4F9E06490E82EF12C8701095F05
:101310001F4F93E0159507959A95E1F7712C20E8FA
:10132000C22ED12CA62CB12C44244A94480E6A9487
:10133000872D072C000C990B8E159F050CF054C0BF
:101340007B8277FE03C087E0870D8B839B81959519
:10135000959595959B83872D877887FF03C081504E
:10136000886F8F5F460102C0959487948A95E2F753
:10137000512C8B81082E000C990B02969D838C8337
:10138000242C2718852D052C000C990B8A159B05FC
:101390004CF5089FF001099FF00D189FF00D1124E6
:1013A0008C819D81E80FF91FE25BF64FE491F0E03C
:1013B000E821F921EF2BA1F09981622D462D4519E5
:1013C000923039F0422D652D933019F4662D651950
:1013D000472D8A81680F430D86EF93E00E94FF0836
:1013E0005394D0CF7394A4CF0F900F900F900F9081
:1013F0000F90DF91CF911F910F91FF90EF90DF90B1
:10140000CF90BF90AF909F908F907F906F905F90A4
:101410004F903F902F900895AF92BF92CF92DF925E
:10142000EF92FF920F931F93CF93DF93182F062F06
:10143000C0E0D3E08AEFD82E9EEFE92E842F84708F
:10144000C82E842F8270B82E842F8870A82E4170E9
:10145000F42ECF5F8C2F880F8F5FE80ECC2081F0A9
:10146000402F4D0F612F6C0F86EF93E00E94FF0815
:10147000402F4C0F6D2F610F86EF93E00E94FF0805
:10148000BB2081F0402F4D1B612F6C0F86EF93E046
:101490000E94FF08402F4C1B6D2F610F86EF93E0D9
:1014A0000E94FF08AA2081F0402F4C0F612F6D1B76
:1014B00086EF93E00E94FF08402F4D0F612F6C1BB9
:1014C00086EF93E00E94FF08FF2081F0402F4C1B25
:1014D000612F6D1B86EF93E00E94FF08402F4D1B8C
:1014E000612F6C1B86EF93E00E94FF08CD173CF440
:1014F000E7FCAFCFD150D394D394ED0CAACFDF91BA
:10150000CF911F910F91FF90EF90DF90CF90BF9000
:10151000AF9008950F931F93CF93DF93D82F162F7B
:10152000042FC0E0C0174CF4412F4C0F6D2F86EFF5
:1015300093E00E94FF08CF5FF5CFDF91CF911F911D
:101540000F9108958F929F92AF92BF92CF92DF92A8
:10155000EF92FF920F931F93CF93DF93082FA62E46
:10156000842E922E83E0F82ED0E0C3E09AEFE92E8D
:101570001EEFBB24B394B20EDF5F1F0D4C2F440F40
:101580006A2D6C1BC92CCF0CDA2CDD1A81E04B0DB7
:10159000881215C0802F8D0F0E948A0A4C2D6D2D48
:1015A0008C2F800F0E948A0ADC1794F417FD04C068
:1015B000C150E394E3941E0DF394F394DDCF802F98
:1015C0008D1B0E948A0A4C2D6D2D802F8C1BEACF1B
:1015D000DF91CF911F910F91FF90EF90DF90CF900F
:1015E000BF90AF909F908F900895CF92DF92EF922F
:1015F000FF920F931F93CF93DF937C01D62EC22EC1
:10160000C42F002E000C110B040F111D47FD1A955D
:101610008C2F0C2E000C990B801791076CF4D0E0E6
:10162000DC1544F46D2D6D0F4C2FC7010E94FF088F
:10163000DF5FF6CFCF5FECCFDF91CF911F910F919E
:10164000FF90EF90DF90CF9008954F925F926F924E
:101650007F928F929F92AF92BF92CF92DF92EF9242
:10166000FF920F931F93CF93DF93EC016A3049F4FD
:1016700028859D818A85299F800D11248A87198656
:10168000A6C06D3009F4A3C0898483E588150CF4E5
:1016900087C0DA848FE28D150CF482C018852C8106
:1016A0002150330B129FC001139F900D1124880D00
:1016B000911D87FC9A95181619060CF071C02D81A2
:1016C0008D2D0D2C000C990B129F800D911D112456
:1016D000181619060CF064C078A0C82C912CE62EC0
:1016E000F12C292D092C000C330B8C8190E028174C
:1016F00039070CF054C00197E0E02817390771F062
:10170000E89EF001E99EF00DF89EF00D11242E0FD9
:101710003F1FEE8DFF8DE20FF31FE4915D2C612CD6
:10172000492C480C2D81862D062C000C990B28176E
:10173000190691F18CF1AE2EB12CE0FF16C01130DC
:1017400061F4462D4D0D642DCE010E94FF08F50178
:10175000F595E7956394510EE5CF012F212F452D87
:101760006C2DCE010E94F50AF2CF89A198A18917AC
:1017700071F388A3113041F4462D4D0D642DCE0137
:101780000E94FF0878A2E3CF012F212F452D6C2D59
:10179000CE010E94F50AF6CF9394C10EA2CF78A293
:1017A00028853C818985239F800D112489879F810D
:1017B000992369F0082E000C990B44E550E0239F13
:1017C000401951091124481759070CF452CF81E0F0
:1017D00090E0DF91CF911F910F91FF90EF90DF90FC
:1017E000CF90BF90AF909F908F907F906F905F90C1
:1017F0004F900895682F86EF93E00C94250B0F937C
:101800001F93CF93DF938C01D0E0C0E0F801EC0F81
:10181000FD1F6491662341F086EF93E00E94250B43
:10182000892B11F02196F2CFCE01DF91CF911F913C
:101830000F9108951F93CF93DF9310919B01DFE2E7
:10184000D11BC0E04D2F6C2F86EF93E00E94FF0864
:10185000CF5FC535B9F78091990190919A01C4E1A4
:10186000D0E0C81BD90B44E2411B2BE932E06C2FBE
:1018700086EF93E00E94BF07412F409520EE31E0B4
:101880006C2F86EF93E00E94BF074BED411B20EECB
:1018900031E06C2F86EF93E00E94BF0780918B01AF
:1018A00090918C0140ED411B27EA31E08E3191058A
:1018B00054F02EE631E0843B91052CF08E309140BF
:1018C00054F425E331E06C2F86EF93E0DF91CF9164
:1018D0001F910C94BF072CEF30E0F5CF0F931F93AF
:1018E000CF93DF93CFE1D1E00BE811E088819981BC
:1018F00021EF30E08A30910564F026EE30E082334B
:1019000091053CF020ED30E08336910514F42BED89
:1019100030E04C8180919B01481B6A818091990144
:10192000681B86EF93E00E94BF0726960C171D07E1
:10193000E9F6DF91CF911F910F9108958091970162
:10194000909198018032910534F40196909398011A
:101950008093970108951092940110929301089535
:10196000CF93EFE1F1E089E190E024E630E0ACE1F3
:10197000B0E044E250E06CE270E031832083B38356
:10198000A2839583848337832683518740879387F7
:1019900082873587248777876687918B808B7296BD
:1019A0000C97813DCFEF9C0741F78CE291E090933B
:1019B0008C0180938B0150938E0140938D0180EDBB
:1019C0009FEF9093900180938F0180E290E090933D
:1019D00098018093970182E090E090939601809324
:1019E0009501109294011092930110929E01109211
:1019F0009D011092C003CF910895089590E080E07A
:101A00000895FC0101900020E9F73197AF01481BD0
:101A1000590BBC0186EF93E00C9461058F929F9265
:101A2000AF92BF920F931F93CF93DF93CDB7DEB7E3
:101A3000A1970FB6F894DEBF0FBECDBF19A24230FA
:101A400008F44AE08E010F5D1F4F842E912CB12CBB
:101A5000A12CA50194010E949018E62FB901CA019A
:101A6000EA30F4F4E05DD801EE938D01232B242BB2
:101A7000252B79F790E080E0109719F0CD010E94B6
:101A8000010DA1960FB6F894DEBF0FBECDBFDF915A
:101A9000CF911F910F91BF90AF909F908F9008951D
:101AA000E95CE1CFCF93DF930E94FF0BEC018DE067
:101AB00091E00E94010D8C0F9D1FDF91CF91089541
:101AC000E8EAF1E088EF91E0DF019C011D922150EE
:101AD0003040E1F71092FF031092000480EE98E08E
:101AE0000E94FF0B0E9404068CB583608CBD8DB5EF
:101AF0008E7F8DBD80E191E0EEEFFFE309951092BE
:101B0000FC038BEB98E00E94520D0E9404060E9499
:101B10007B068091BD03813039F062E370E080E0A4
:101B200090E00E948D07F3CF08954F925F926F92DD
:101B30007F928F929F92AF92BF92CF92DF92EF925D
:101B4000FF920F931F93CF93DF9300D000D01F928B
:101B5000CDB7DEB7409128045091290460912A0442
:101B600070912B042FB7F8948091A1019091A2015C
:101B7000A091A301B091A4012FBF481B590B6A0B80
:101B80007B0B8091270490E0B0E0A0E0009123045B
:101B90001091240420912504309126048417950780
:101BA000A607B70708F0CEC00115110521053105BC
:101BB00009F4C8C02FB7F8948091A1019091A201B7
:101BC000A091A301B091A4012FBF20912704820FFF
:101BD000911DA11DB11D8093280490932904A09309
:101BE0002A04B0932B048091190490911A04A091B7
:101BF0001B04B0911C040196A11DB11D8093190412
:101C000090931A04A0931B04B0931C041092230415
:101C10001092240410922504109226040E94680752
:101C200060931F04709320048093210490932204F6
:101C30008091A9039091AA032FE0289FA001299FDA
:101C4000500D11245A83498385E10E941F07A98101
:101C5000BA818A0F9B1FB4E096958795BA95E1F7F4
:101C60009093AA038093A9032091A803222309F447
:101C700048C06091AC03262F30E050E040E029835B
:101C80003A834B835C83C090AD03D12CF12CE12CC3
:101C90004091B0035091B1034A01B12CA12C209185
:101CA000AE033091AF032901712C612C8217930789
:101CB00028F09C014817590708F49A0150E040E0C9
:101CC000241935094609570969817A818B819C81DC
:101CD0006C197D098E099F090E94EB19A5019401D9
:101CE00024193509460957090E946618C20ED31EE9
:101CF000E41EF51EC092AB036C2D70E085E00E94DF
:101D0000C2060E947B068091C4039091C503892B73
:101D100011F00E94310781E00F900F900F900F900B
:101D20000F90DF91CF911F910F91FF90EF90DF9077
:101D3000CF90BF90AF909F908F907F906F905F906B
:101D40004F900895012B022B032B09F085C1809140
:101D5000BF0381508E3FB8F58091BE03813099F565
:101D60008091D2038F5F6091D30387FD09C0082E55
:101D7000000C990B70E06F5F7F4F0E94071A682F6D
:101D80006093D20384EB98E090932D0480932C040D
:101D900088E480932E040E94E20481EA98E0909304
:101DA000DB038093DA031092E0031092DF0381E0FB
:101DB0008093CE0389E08093E3031092E6031092B0
:101DC000E8031092EA038091BF0381508E3F70F4C4
:101DD0008091BD03813009F018C387EA98E09093A1
:101DE0002D0480932C0488E480932E048091CD03ED
:101DF000882331F08091CE03811102C00E94F40447
:101E00008091CE03882309F43EC08091E2038111C2
:101E10003AC08091DA039091DB03E091DF03F09107
:101E2000E003EE0FFF1FE80FF91F259134912115F4
:101E3000310509F468C1A90156954795569547950E
:101E4000842F20FD0BC18F738093E1038091D10318
:101E5000839F802D11248093E2031092F20310924D
:101E6000F1031092F00381E08093E4038093A501D5
:101E70001092E5038091DF039091E0030196909327
:101E8000E0038093DF038091E403882331F08091A5
:101E9000E203811152C10E94E20480912E04882342
:101EA00009F490C08C3008F02FC23CE0381B398315
:101EB000FF24F394F092FE0310921604109217047C
:101EC0004091FB034D831981141B042F0D5F4DE2DC
:101ED000410F2EE463E086EF93E00E94F50A5D81F6
:101EE00054505D83105D252F41E0612F80E50E94F5
:101EF000A20A2D8142E0612F83E00E94A20AF092A3
:101F00001604F09217040091FB0383E0800F8D8389
:101F10001981101B9DE2E92EE10E23E0F22E4E2DD9
:101F20006F2D86EF93E00E94FF08F39491E5F9127C
:101F3000F6CFAD81AE0DAD83EA2EEA9483E0F82EA4
:101F40004E2D6F2D86EF93E00E94FF08F394B1E5CC
:101F5000FB12F6CF0350105D402F612F80E00E94EE
:101F60008A0A402F612F83E50E948A0A41E0612F8F
:101F700083E00E940C0A42E0612F80E50E940C0A77
:101F80002D8124502D8344E0622F80E50E940C0AAD
:101F900048E06D8183E00E940C0A84E08093FF0397
:101FA0008091FB033981381B315D309300048091AF
:101FB0002C0490912D040E94FF0B80912E048150DF
:101FC00080932E048091C4039091C503892BE1F086
:101FD00041E040931604109217049091FA0385E5AE
:101FE000891B8093FF03109200048091C10381300C
:101FF00009F4F0C108F48AC19091C003853008F05B
:10200000FFC18B5F9111F7C10E9404068091FC0310
:1020100081110EC0E8EAF1E088EF91E0DF019C0158
:102020001D9221503040E1F71092FF0310920004FE
:102030000E9468076093230470932404809325040E
:102040009093260420911F0430912004621B730B8F
:1020500070931E0460931D0480E05ECEC901E6E02B
:1020600096958795EA95E1F78F71932F96959695BA
:10207000969590514F70423099F1D0F4442309F471
:102080003CC04130B9F1E091DF03F091E0033196BB
:10209000F093E003E093DF03CF01880F991FE091F5
:1020A000DA03F091DB03E80FF91F25913491C3CED9
:1020B000433061F0443039F72091D103289F802DBF
:1020C00011248093EA039093EB03DDCF2091D10399
:1020D000289F802D11248093E8039093E903D3CFA8
:1020E0002091D103289F802D11248093E6039093A3
:1020F000E703C9CF0E943505C6CF8B3008F08AE0D0
:102100008093E303C0CF2091DE03211110C0109211
:10211000CE038091CD03811103C00E94E204B3CEAF
:102120000E94F4048091DF039091E003B6CF1092F7
:10213000E0031092DF03FC01B8CF81508093E203EB
:102140008091F203811142C02091F0033091F1039C
:102150002F5F3F4FC901880F991FE091EC03F09169
:10216000ED03E80FF91F85919491482F4770409334
:10217000F303492F469546954093F403AC0164E080
:10218000569547956A95E1F74F739091D103499F12
:10219000402D11244093F20383FB882780F980931C
:1021A000A0013093F1032093F0038091EE0390E0BF
:1021B0002817390758F02091EF03222309F49EC015
:1021C000821B91099093F1038093F0038091F203B5
:1021D00081508093F2038091E50331E0380F309312
:1021E000E5034091E1032091F403240F8091D9038A
:1021F000280F2093CF036091E803662371F070E00D
:10220000832F032E000C990B0E94071A8091E9037B
:10221000869F200D11242093CF038091CF0390E05F
:10222000849664E270E00E94071A8093CF032091A5
:10223000E3032093D0036091E603662381F0062E2A
:10224000000C770B832F032E000C990B0E94071AAA
:102250008091E703869F200D11242093D003609185
:10226000EA036623A1F0832F330F990B70E00E94DD
:10227000071ACB0162E070E00E94071A2091EB037D
:102280009091D003289F900D11249093D0034F3349
:10229000C1F18091D0038A300CF089E087FD80E0A5
:1022A0008093D003F894E091CF03F0E0E358F74F28
:1022B000E491E0939F012091F5033091D003320324
:1022C000900111244091F3034203C001439F900DFC
:1022D00011242091D20302C0880F991F2A95E2F79A
:1022E00097FF02C081589F4F880F892F881F990B35
:1022F0008093A6018093A7017894CFCD0E94E20439
:1023000065CF1092D003CECF1982D2CD0E94E204C5
:102310001092CE0351E05093FE03EBEFF6E0E49110
:10232000EF5FE093FA03ECEFF6E0E491EF5FE09308
:10233000FB038DEF96E090931504809314041092A4
:10234000C5031092C4031092FC0388EA89830E949B
:10235000950D8823E1F38DEE96E00E94FF0B6091CE
:10236000C2037091C30390E080E04AE00E940E0D2A
:1023700088ED96E00E94FF0B698162956F7070E0B6
:1023800090E080E04AE00E940E0D8DEC96E00E9405
:10239000FF0B8091BD03813009F436CE99819150B5
:1023A00099839111D4CF70E060E085E00E94C2066D
:1023B00083B7817F846083BF83B7816083BF83B726
:1023C000816083BF889583B78E7F83BF83B78E7FFD
:1023D00083BFBDCF8091190490911A04A0911B0472
:1023E000B0911C048F709927AA27BB270897A105D5
:1023F000B10520F487E00E94FA0B06CE88E7FBCFF8
:10240000992309F401CE8FE2F6CF893209F0EECCA0
:102410000E94600DEBCC8F929F92AF92BF92CF92B1
:10242000DF92EF92FF920F931F93CF93DF9381E0A0
:102430008093FE031092FD031092FC031092C003E0
:102440008093160480931704C6E3D6E08CE0F82E40
:1024500001EA18E0EE24E39499E0D92E0E94950D4C
:102460008823E1F3FE01C490C110C090FB032DE569
:1024700036E040E060E086EF93E00E94BF074CE06A
:102480004C0D24E135E060E086EF93E00E94BF0749
:102490001092FF03F092000486E396E00E94FF0B87
:1024A0008091FA03982F990F990F891B8D5A809369
:1024B000FF038091FB03982F990F990F891B835D70
:1024C000809300048091190484FF78C089E596E028
:1024D0000E94520D8091FA03982F990F990F891B32
:1024E0008D5A8093FF03809100048F5F80930004D6
:1024F0008091D203882309F464C081E596E00E94AC
:10250000520D8091FA03982F990F990F891B8D5ABC
:102510008093FF03809100048F5F8093000489E41F
:1025200096E00E94520D8091BE03813031F580917A
:10253000D2038F5F6091D30387FD09C0082E000C82
:10254000990B70E06F5F7F4F0E94071A682F6093AE
:10255000D2030E94E2041093DB030093DA0310928B
:10256000E0031092DF03E092CE03D092E3031092D7
:10257000E6031092E8031092EA038091BD038130D4
:1025800019F180911804482F50E070E060E08090CD
:10259000190490901A04A0901B04B0901C04841697
:1025A0009506A606B70610F08F3F71F48091BF0321
:1025B000813009F053CF0E94600D50CF85E596E041
:1025C00087CF8DE496E09BCF8FEF809318040E9415
:1025D000E2041092CE030E94E2048CE095E0909316
:1025E000DB038093DA031092E0031092DF0381E0B3
:1025F0008093CE0399E09093E3031092E603109248
:10260000E8031092EA038093C003DF91CF911F91FA
:102610000F91FF90EF90DF90CF90BF90AF909F9081
:102620008F9008958091930190919401823091054B
:1026300009F44AC02CF40097D1F0019729F10895CC
:102640008330910521F0049709F45DC0089540910D
:10265000970180919B01481B6091950180919901A0
:10266000681B2EE439E086EF93E00E94BF0740919B
:10267000970180919B01481B609195018091990180
:10268000681B2EE439E01CC04091970180919B01AA
:10269000481B6091950180919901681B80911904F4
:1026A00090911A04A0911B04B0911C048770992783
:1026B000AA27BB270497A105B10518F320EB30E04A
:1026C00086EF93E00C94BF074091970180919B01A6
:1026D000481B6091950180919901681B80911904B4
:1026E00090911A04A0911B04B0911C048770992743
:1026F000AA27BB2720E930E00497A105B10500F720
:1027000020E730E0DDCF6091190470911A048091C8
:102710001B0490911C0424E130E040E050E00E9452
:1027200090183091970120919B01E32FE21B30918B
:10273000950120919901532F521B6F30710581052E
:10274000910528F02EE439E04E2F652FB9CF41E0F6
:102750006A3071058105910538F442E065307105F4
:102760008105910508F443E06E2F852F0C944309F1
:102770001F920F920FB60F9211242F933F938F93B6
:102780009F93AF93BF938091A1019091A201A091DB
:10279000A301B091A4013091190123E0230F2D373B
:1027A00058F50196A11DB11D209319018093A10137
:1027B0009093A201A093A301B093A40180911A0168
:1027C00090911B01A0911C01B0911D010196A11DCA
:1027D000B11D80931A0190931B01A0931C01B0932B
:1027E0001D01BF91AF919F918F913F912F910F90BC
:1027F0000FBE0F901F90189526E8230F0296A11D7B
:10280000B11DD2CF1F920F920FB60F9211242F93AA
:102810006F937F938F939F936091A601662349F1F5
:10282000809118018F5F8093180190919F01891703
:1028300000F12091A50181E028272093A5011092A5
:1028400018018091A001882369F08091000193E430
:10285000899F802D1124895B809300010E94FB19C0
:102860009093A7018091A701211101C080E080937E
:10287000B4009F918F917F916F912F910F900FBE18
:102880000F901F901895789484B5826084BD84B5AC
:10289000816084BD85B5826085BD85B5816085BD5B
:1028A00080916E00816080936E0010928100809113
:1028B000810082608093810080918100816080939B
:1028C0008100809180008160809380008091B100C0
:1028D00084608093B1008091B00081608093B000EB
:1028E00080917A00846080937A0080917A0082607F
:1028F00080937A0080917A00816080937A00809141
:102900007A00806880937A001092C10082E38093FD
:10291000270481E090E0A0E0B0E08093230490934E
:102920002404A0932504B09326048FEF8093180409
:10293000E0E8F7E7259134912130304C09F031C2BD
:10294000E6E9F7E7E491E0930104E7E9F7E7E491CA
:10295000E093AC03E8E9F7E7E491E093AD03E9E93C
:10296000F7E7859194919093AF038093AE03EBE9E1
:10297000F7E7859194919093B1038093B00387E03A
:102980008093D303EEE9F7E7E491E093D203EFE914
:10299000F7E7E491E0931804E0EAF7E78591949172
:1029A0009093C5038093C403E2EAF7E7859194917D
:1029B0009093C7038093C603E4EAF7E78591949167
:1029C0009093C9038093C803E6EAF7E78591949151
:1029D0009093CB038093CA03C1E0C093A8036FEF29
:1029E00070E085E00E94C20688E08093B20389E02F
:1029F0008093B30387E08093B40386E08093B503AC
:102A0000D4E0D093B60382E08093B70381E1809352
:102A1000B8030E947B068CE39FE09093C3038093EE
:102A2000C203D093C103C093CC038BE08093040412
:102A30008DE08093030480E1809305048EE0809311
:102A400007048FE080930604C093FE03C09316042E
:102A500010921704C093FD03EBEFF6E0E491EF5FF3
:102A6000E093FA03ECEFF6E0E491EF5FE093FB0311
:102A70008DEF96E09093150480931404CFB7F894EB
:102A800080911E01811127C0ECE1F9E08491E0E31F
:102A9000F9E09491E82FF0E0EE0FFF1FE852FD4FB0
:102AA000A591B491EC91E92321F461E08AE00E94C0
:102AB000B70561E08AE00E943F068CB580618CBD5D
:102AC0008CB580648CBD61E08DE00E943F0661E0C2
:102AD0008BE00E943F0680911E018F5F80931E0154
:102AE000CFBF8CB58F7D8CBD8CB58C7F81608CBD4C
:102AF0008DB581608DBD8CB58C608CBD61E08091A1
:102B000004040E943F0661E0809103040E943F0696
:102B100061E0809105040E943F0680910704181629
:102B20001CF461E00E943F068091060418161CF414
:102B300061E00E943F0680910704181674F460E07B
:102B40000E94B7056AE070E080E090E00E948D0787
:102B500061E0809107040E94B70580910304082E6C
:102B6000000C990BFC01EE5EF64FE491F0E0EE0FE5
:102B7000FF1FEE51FD4F2591349130930B042093AC
:102B80000A04FC01EA5DF64FE491E09311048091A0
:102B90000404082E000C990BFC01EE5EF64FE49144
:102BA000F0E0EE0FFF1FEE51FD4F25913491309371
:102BB000090420930804FC01EA5DF64FE491E093D8
:102BC000100480910604082E000C990BFC01EE5EA7
:102BD000F64FE491F0E0EE0FFF1FEE51FD4F25910F
:102BE000349130930D0420930C04FC01EA5DF64F00
:102BF000E491E093120480910504082E000C990BD7
:102C0000FC01EE5EF64FE491F0E0EE0FFF1FEE5197
:102C1000FD4F2591349130930F0420930E04FC0155
:102C2000EA5DF64FE491E093130481E20E94E5052A
:102C300084E10E94E5058091010487FF03C08FE7CE
:102C4000809301048091010480680E94E50580E280
:102C50000E94E5058CE00E94E5050E94040681E0E3
:102C60008093D10384E08093F50384ED92E0909308
:102C7000DD038093DC0380E00E94350561E070E0B5
:102C800083E00E94C2068091B100887F81608093BA
:102C9000B100F8941092800010928100109285008B
:102CA0001092840088E191E09093890080938800DD
:102CB0008091810088608093810080918100816093
:102CC0008093810080916F00826080936F00789480
:102CD0008091C4039091C503892B11F00E943107A4
:102CE0008091BE03813009F489C08091C10388239B
:102CF00009F484C00E94E2048CEE92E09093DB031E
:102D00008093DA031092E0031092DF0381E0809356
:102D1000CE0389E08093E3031092E6031092E80368
:102D20001092EA038091180481110E940B120E94F4
:102D3000B00C0CE010E0EE24E394F12C34E0232EF0
:102D4000312C43E0C42ED12C52E0A52EB12C62E1EF
:102D5000462E512C86E0982E90E0692E90E0792E38
:102D60000E94950D8823B9F08091BF03813039F41A
:102D70008091180481110E940B120E94B00CC09126
:102D80009D01D0919E01C130D10509F466C1CCF5F9
:102D9000209709F450C06114710411F30E940000DF
:102DA000D9CF9CE3909301041092AC038093AD03C0
:102DB00080E293E09093AF038093AE0384ED93E0C1
:102DC0009093B1038093B00387E08093D303809303
:102DD000D2038CEA9DE09093C5038093C4038EEDEB
:102DE0009DE09093C7038093C60384E79EE0909391
:102DF000C9038093C8038CE39FE0EACD1092D2030D
:102E000091CFCA30D10509F43FC1649721F60E94E1
:102E10001A0C0E946E0C0E941213809195019091E1
:102E20009601863491050CF034C101969093960179
:102E300080939501B0CF0E941A0C0E946E0C0E94E4
:102E4000121380919301909194018130910599F52D
:102E50002091910130919201929EF001939EF00D8C
:102E60001124E15EFE4F80819181049718161906A6
:102E700094F4918380838091BA03813009F4CBC0AC
:102E80008091BC03813009F0CFC080919B0190916B
:102E90009C010196C5C0118210821092940110927B
:102EA00093012231310539F784E190E090939E013E
:102EB00080939D01E0CFEFE1F1E08430910519F4BA
:102EC0000E949E0CD8CF208131812E3131056CF4C7
:102ED000BE016F5F7F4F46815781421753072CF029
:102EE0003696EB016131710571F7D0939201C09371
:102EF00091012091910130919201929EF001939E57
:102F0000F00D1124E15EFE4F20813181121613066F
:102F100024F05092920140929101209191013091C0
:102F20009201929ED001939EB00D1124A15EBE4FDE
:102F30001496CD91DC911597E0919701F09198014D
:102F4000039709F442C012968D919C9120919501AE
:102F500030919601A901495F5F4F48175907BCF0AE
:102F6000BC01695F7F4F461757078CF4AF01495F7B
:102F70005F4F4C175D075CF0BE01675F7F4F4617E0
:102F800057072CF4F0929401E092930174CFA901B9
:102F90004C5F5F4F481759075CF4B0929401A092C0
:102FA00093012F5F3F4F309396012093950163CF9C
:102FB000A9014D5F5F4F481759073CF0B09294014B
:102FC000A092930121503109EECFCF018097B80133
:102FD0000E94071A9B01CE018F97B8010E94071A21
:102FE0006217730754F4D0929401C0929301319701
:102FF000F0939801E09397013ECF2617370734F4FA
:10300000D0929401C09293013196F2CF1092940124
:103010001092930130CF80919B0190919C01019778
:1030200090939C0180939B018091B903813059F06A
:103030008091BB03813009F0AECE809199019091CF
:103040009A01019605C08091990190919A0101978A
:1030500090939A01809399019ECE8091BD03813017
:1030600021F08091BE03813031F410929E011092C4
:103070009D010E94B00C2AEF32E040E060E086EF54
:1030800093E00E94BF0787CE10929E0110929D018F
:1030900082CE809197019091980180973CF4309274
:1030A0009401209293010E949E0C75CEF0929E0195
:1030B000E0929D0170CE1092F9031092F80385E022
:1030C00091E09093F7038093F6030895052E97FB04
:1030D0001EF400940E947D1857FD07D00E9490189E
:1030E00007FC03D04EF40C947D1850954095309514
:1030F00021953F4F4F4F5F4F089590958095709564
:1031000061957F4F8F4F9F4F08950E94B218A59FE2
:10311000900DB49F900DA49F800D911D11240895D2
:10312000A1E21A2EAA1BBB1BFD010DC0AA1FBB1FCB
:10313000EE1FFF1FA217B307E407F50720F0A21B3D
:10314000B30BE40BF50B661F771F881F991F1A94AA
:1031500069F760957095809590959B01AC01BD01D4
:10316000CF010895A29FB001B39FC001A39F700D2E
:10317000811D1124911DB29F700D811D1124911D7F
:1031800008950E94351988F09F5798F0B92F992714
:10319000B751B0F0E1F0660F771F881F991F1AF042
:1031A000BA95C9F714C0B13091F00E944F19B1E03F
:1031B00008950C944F19672F782F8827B85F39F03E
:1031C000B93FCCF3869577956795B395D9F73EF4DB
:1031D00090958095709561957F4F8F4F9F4F089583
:1031E000E89409C097FB3EF49095809570956195A1
:1031F0007F4F8F4F9F4F9923A9F0F92F96E9BB2757
:103200009395F695879577956795B795F111F8CFD2
:10321000FAF4BB0F11F460FF1BC06F5F7F4F8F4F3D
:103220009F4F16C0882311F096E911C0772321F033
:103230009EE8872F762F05C0662371F096E8862FCB
:1032400070E060E02AF09A95660F771F881FDAF722
:10325000880F9695879597F9089557FD9058440FD4
:10326000551F59F05F3F71F04795880F97FB991FE5
:1032700061F09F3F79F087950895121613061406A2
:10328000551FF2CF4695F1DF08C01616170618062F
:10329000991FF1CF86957105610508940895E8940A
:1032A000BB2766277727CB0197F908950E946919F4
:1032B0000C94DA190E94CC1938F00E94D31920F02E
:1032C000952311F00C94C3190C94C91911240C9472
:1032D00050190E942D1970F3959FC1F3950F50E07E
:1032E000551F629FF001729FBB27F00DB11D639FB8
:1032F000AA27F00DB11DAA1F649F6627B00DA11D5E
:10330000661F829F2227B00DA11D621F739FB00D03
:10331000A11D621F839FA00D611D221F749F332773
:10332000A00D611D231F849F600D211D822F762F0C
:103330006A2F11249F5750409AF0F1F088234AF0E9
:10334000EE0FFF1FBB1F661F771F881F9150504055
:10335000A9F79E3F510580F00C94C3190C945019A5
:103360005F3FE4F3983ED4F3869577956795B795DC
:10337000F795E7959F5FC1F7FE2B880F911D9695F6
:10338000879597F9089597F99F6780E870E060E066
:1033900008959FEF80EC089500240A9416161706EE
:1033A00018060906089500240A9412161306140636
:1033B00005060895092E0394000C11F4882352F099
:1033C000BB0F40F4BF2B11F460FF04C06F5F7F4F51
:1033D0008F4F9F4F0895DB018F939F930E94851815
:1033E000BF91AF91A29F800D911DA39F900DB29FA1
:1033F000900D11240895991B79E004C0991F961728
:1034000008F0961B881F7A95C9F78095089597FB59
:10341000072E16F4009407D077FD09D00E941B1ADE
:1034200007FC05D03EF4909581959F4F08957095C7
:1034300061957F4F0895AA1BBB1B51E107C0AA1FCE
:10344000BB1FA617B70710F0A61BB70B881F991F45
:103450005A95A9F780959095BC01CD010895EE0F7E
:0E346000FF1F0590F491E02D0994F894FFCF22
:10346E000100000000250B6105FE0CFD0C0D0A008D
:08347E004C4F4144455200008F
:00000001FF
