:100000000C949B030C94C3030C94C3030C94C30380
:100010000C94C3030C94C3030C94C3030C94C30348
:100020000C94C3030C94C3030C94C3030C9492125A
:100030000C94C3030C94C3030C94C3030C94C30328
:100040000C9448120C94C3030C94C3030C94C30384
:100050000C94C3030C94C3030C94C3030C94C30308
:100060000C94C3030C94C3030101FF030101F703C4
:10007000050038016801000017534400161378008A
:10008000161314001510200015201000540A03E167
:1000900081867F3E186D830F0F0E018386603318B3
:1000A0006DC3198F1803C38E6033186DE330CF18FA
:1000B00003C39E603630CDE360CF3006C79E7E3EE0
:1000C00030CDB360CF300CC6F6603330D9B660CFD8
:1000D00033CFCCF66061B0DB1E60CF30D86CE6C0A9
:1000E00061B0DB1E618F19986CC6C063B19B0E3383
:1000F0000F0FB078C6FF7E1F1B061E0F00401E00AC
:100100001FE00079B19E6300FFFC00FDBBBF7303DD
:10011000FFFF00FDBFBF7B07FFFF80EDBFBF7F0B71
:10012000E01F40E1BFB77F139FE720F9BFB37F3ED9
:100130006AB9F07DB5B36F3CD55CF01DB1BF677D8A
:10014000EAAEF8FDB1BF637BF55F78F9B19E637AE3
:10015000FABB7800000000F43FFDBCF8CDB19EF57D
:10016000586ABCFCCDB1BFF41037BCCCCDB9BFF6DA
:10017000B4AABCFCCDBDB3F4103DBCFECDBFB3F5FD
:10018000532ABCEEDDBFB7F41877BCE6FDBFBFF65F
:10019000BFFABCE6FDB7BF7A703D78FEFDB3BF7B0A
:1001A000E01F78FC79B19E7DC00EF8000000003C95
:1001B000C00CF00001C1803E6019F00653E0A013AE
:1001C0009FE72007736C900BE01F400723EAB507F9
:1001D000FFFF800003EAD503FFFF1767736DBB00C5
:1001E000FFFC1677700801001FE0775753E8066C94
:1001F00000680000000000240027002A0000000022
:1002000000250028002B000500893008023802492B
:1002100078681400001018000000000200000008B8
:10022000800000222000000880000022200000083A
:10023000800000222000000880000022200000082A
:1002400080000002000000101801000A8015402AFA
:10025000805540AAA055402AA055502AA015502AE2
:10026000A015502AA015502AA05550AAA055402AE2
:10027000A015400A8005000200101803000A801D26
:10028000C02A807760AAA0DDC02AA077702AA01DAE
:10029000D02AA037702AA01DD02AA07770AAA0DD8E
:1002A000C02AA037400A800D80020010180200000A
:1002B000000A8004402AA00000AAA044402AA0000E
:1002C000002AA004402AA000002AA044402AA0003E
:1002D00000AAA044402A8000000A800000101803F1
:1002E000000F801FC03FC07FE0FFE0FFE07FF07F96
:1002F000F03FF03FF03FF03FF03FF03FF07FF07F06
:10030000F0FFE0FFE07FE03FC01FC00F8003004030
:1003100030003FFFE007FFFC00007FFF0000FFFE12
:100320000000FFF83FFC1FFF0001FFF1FFFF8FFF00
:100330008001FFC7E007E3FF8003FF9F0000F9FF94
:10034000C007FF3C00003CFFE007FE7800001E7F76
:10035000E00FFCF000000F3FF01FF9F000000F9FCE
:10036000F81FF3F800001FCFF81FF7F800001FEF89
:10037000F83FE73C00003CE7FC3FCE0E0000707306
:10038000FC7FCC0707E0E033FE7FDC039FF9C03B36
:10039000FE7F9801F81F8019FE7F9800E007001982
:1003A000FEFFB800C003001DFFFF30018001800C7C
:1003B000FFFF30018001800CFFFF30030000C00C04
:1003C000FFFF30030000C00CFFFF30030000C00C33
:1003D000FFFF30031818C00CFFFF30032424C00CAB
:1003E000FFFF30032424C00CFFFF30019999800CDB
:1003F000FFFF30018241800CFFFFB800C243001DA7
:10040000FF7F9800E1870019FE7F9801F81F80198F
:10041000FE7FDC039FF9C03BFE7FCC0707E0E033A3
:10042000FE3FCE0E00007073FC3FE73C00003CE74F
:10043000FC1FF7F800001FEFF81FF3F800001FCFB4
:10044000F81FF9F000000F9FF80FFCF000000F3FBD
:10045000F007FE7800001E7FE007FF3C00003CFF35
:10046000E003FF9F0000F9FFC001FFC7E007E3FFC3
:100470008001FFF1FFFF8FFF8000FFF83FFC1FFFAF
:1004800000007FFF0000FFFE00003FFFE007FFFCD1
:1004900000101007E01FF83FFC7FFE67E6CBD3CBD0
:1004A000D3CBD3E7E7FFFFC0036006700E3C3C1FD1
:1004B000F807E00A0A153A49676E6F7265006D56D3
:1004C0000A0A504C45415345205455524E204F4640
:1004D0004620004C4F572042415454455259212048
:1004E0000003053F213F1208120A100A0E1C0E0CD1
:1004F0001E0C141A14161F161E131E1E1B1E1E1F62
:100500001E3F213F3A2F3A173D173F213F181F0248
:10051000040A041F0E04040E1F0A1F0A0E0E1F04F5
:10052000110E2E252E2F2A2E262929021F02081FE2
:1005300008150E04040E150E15151B151B040604D4
:10054000040C040000000017000300031F0A1F161C
:10055000371A1904130A153A000300000E11110E80
:10056000000A040A040E0400300004040400100011
:100570001804031F111F121F101D151711151F0737
:10058000041F17151D1F151D01011F1F151F17150E
:100590001F000A00003200040A110A0A0A110A04A4
:1005A0000115020E11171E051E1F150A0E110A1F36
:1005B000110E1F15111F05010E111D1F041F111F04
:1005C0001108100F1F041B1F10101F061F1E040F01
:1005D0000E110E1F09060E112E1F051A1215090104
:1005E0001F011F101F0F180F1F0C1F1B041B031CC4
:1005F00003191513001F11030418111F0002010233
:100600002020200001020C121E1F120C0C12120CD2
:10061000121F0C1A14041E05242A1E1F021C141D6E
:100620001020201D1F0814111F101E041E1E021C66
:100630000C120C3E0A040C123E1E040214160A028E
:100640000F120E101E0E100E1E081E120C1226285F
:100650001E322A26041E21001F00211E0401020151
:100660003F213FF6E8DBCFC3B8AEA49B928A827BE2
:10067000746E68625C57524E4945413E3A37343198
:100680002E2C2927252321450068010000172B1552
:100690002010204C4F4144455200172B16201314B4
:1006A000000A4E6F2053442063617264206F720A07
:1006B0006E6F204C4F414445522E4845580A0A154A
:1006C0003A45786974001D20466C617368696E67ED
:1006D0000A20206C6F616465722E2E2E0A0A444F28
:1006E0004E2754205455524E204F464621000000BC
:1006F0000000230026002900040404040404040468
:1007000002020202020203030303030301020408BC
:10071000102040800102040810200102040810206B
:1007200000000008000201000003040700000000B0
:10073000000000000E1711241FBECFEFD8E0DEBF6F
:10074000CDBF11E0A0E0B1E0ECE2F3E302C0059020
:100750000D92AE36B107D9F724E0AEE6B1E001C0A4
:100760001D92A234B207E1F713E0CBE9D3E004C055
:100770002197FE010E948E19CA39D107C9F70E943C
:10078000D3120C9494190C940000EBEBF3E014AE2C
:1007900012AE109204041092030415AE1092BA0126
:1007A0001092B9011092B8011092B4000895CF933D
:1007B000DF93E091E9038E2F90E0880F991FE0917D
:1007C000E703F091E803E80FF91F859194918F3FBB
:1007D000980729F41092E003DF91CF910895909348
:1007E000EC039927880F991FE091EA03F091EB033E
:1007F000E80FF91FC591D4910E94C503D093EE0371
:10080000C093ED031092F3031092F20381E0809302
:10081000E10389E08093F6031092F9031092FB0341
:100820001092FD038091E9038F5F8093E903D4CF99
:10083000DC01ED91FC910190F081E02D0994AF92E3
:10084000BF92CF92DF92EF92FF920F931F93CF93BD
:10085000DF936C017B018B01040F151FEB015E011F
:10086000AE18BF08C017D10759F06991D601ED91B4
:10087000FC910190F081E02DC6010995892B79F753
:10088000C501DF91CF911F910F91FF90EF90DF9005
:10089000CF90BF90AF900895833081F028F48130DD
:1008A00099F08230A9F008958730A9F08830C9F016
:1008B0008430B1F4809180008F7D03C080918000EE
:1008C0008F7780938000089584B58F7784BD0895D5
:1008D00084B58F7DFBCF8091B0008F778093B0007F
:1008E00008958091B0008F7DF9CF1F93CF93DF9350
:1008F000282F30E0F901E05EF84F8491F901E45FC0
:10090000F84FD491F901E850F94FC491CC23A9F0E4
:10091000162F81110E944C04EC2FF0E0EE0FFF1F08
:10092000E350FE4FA591B4918FB7F894EC9111115B
:1009300008C0D095DE23DC938FBFDF91CF911F914C
:100940000895DE2BF8CFCF93C82FF89460E0809104
:1009500018040E9475048091190418161CF460E0B4
:100960000E947504CEBD00000DB407FEFDCF8EB50C
:100970008091190418161CF461E00E9475047894A3
:10098000CF9108950F931F93CF93809115048F5F9C
:10099000809315040BEB11E0C0E08C2F80640E9463
:1009A000A30480E80E94A30461E0809118040E94DF
:1009B00075048091190418161CF460E00E947504F7
:1009C000F80184E591919EBD00000DB407FEFDCFB6
:1009D0009EB58150B9F78091190418161CF461E096
:1009E0000E947504CF5F0C5A1F4FC630B1F680E4E9
:1009F000CF911F910F910C94A304CF93DF9390E0BC
:100A0000FC01E45FF84F24918850994FFC018491D8
:100A10008823C9F090E0880F991FFC01ED50FE4F2C
:100A2000A591B491FC01E350FE4FC591D4916111A1
:100A30000DC09FB7F8948C91209582238C93888168
:100A4000282328839FBFDF91CF910895623051F40E
:100A50009FB7F8943C91822F809583238C93E881F3
:100A60002E2BEFCF8FB7F894EC912E2B2C938FBFBA
:100A7000EACFFF920F931F93CF93DF93CBEBD3E09B
:100A8000FF24FA9462E08A850E94FD042A8530E002
:100A9000F901E05EF84F8491F901E45FF84F0491A9
:100AA000F901E850F94F14911123E1F081110E94EE
:100AB0004C04E12FF0E0EE0FFF1FE251F94FA5913A
:100AC000B491EC9189890E2369F0811113C02196AC
:100AD00083E0C23CD807B1F6DF91CF911F910F910F
:100AE000FF90089589898F5F898B60E08A850E94D5
:100AF000FD04EDCF8F3F11F4198AF7CFF98AF5CFB6
:100B00001F93CF93DF93182FEB0161E00E94FD0448
:100B1000209739F460E0812FDF91CF911F910C94E1
:100B20007504CF3FD10511F461E0F5CFE12FF0E07E
:100B3000E05EF84FE491E33031F140F4E130B1F0A0
:100B4000E230E1F0C038D1057CF7E4CFE73029F19D
:100B5000E83059F1E430B1F78091800080628093F1
:100B60008000D0938B00C0938A0004C084B5806855
:100B700084BDC7BDDF91CF911F91089584B5806278
:100B800084BDC8BDF7CF80918000806880938000CD
:100B9000D0938900C0938800EDCF8091B000806829
:100BA0008093B000C093B300E5CF8091B000806225
:100BB0008093B000C093B400DDCF8E5080648093EA
:100BC0007C0080917A00806480937A0080917A0022
:100BD00086FDFCCF809178009091790008958091F6
:100BE000DF038F7149F584E10E94DD05BC01990F97
:100BF000880B990B0E94511826EE3FE34EEC50E40F
:100C00000E94B5180E9420189B017093D603609330
:100C1000D503672BB9F084E08093D403E7EDF3E0CC
:100C200080E0419151912417350718F48093D40343
:100C300008958F5F8430A9F78091DF038F5F8093E1
:100C4000DF0308958FEF8093D403F6CF3FB7F89476
:100C50008091700190917101A0917201B091730126
:100C600026B5A89B05C02F3F19F00196A11DB11D07
:100C70003FBFBA2FA92F982F8827BC01CD01620F43
:100C8000711D811D911D42E0660F771F881F991FFE
:100C90004A95D1F708958F929F92AF92BF92CF92CB
:100CA000DF92EF92FF924B015C010E9426066B01DE
:100CB0007C010E9426066C197D098E099F09683EF9
:100CC000734081059105A8F321E0821A9108A108DB
:100CD000B10888EEC80E83E0D81EE11CF11C811417
:100CE0009104A104B10429F7FF90EF90DF90CF9019
:100CF000BF90AF909F908F900895CF93DF93DC01CA
:100D000070E0660F771F1F96ED91FC915097E60FEC
:100D1000F71F2591349190963C932E935F97F9019C
:100D20004591549114968C911497849F402D1124D1
:100D300091964C939197F901C591D4916D2F70E0E4
:100D40004617170629F020F0F90125913491432F19
:100D5000849F402D112492964C93DF91CF9108955A
:100D60004F925F927F928F929F92AF92BF92CF925B
:100D7000DF92EF92FF920F931F93CF93DF93EC01DB
:100D8000F901E490319684910E2C000CFF08062F97
:100D9000062E000C110BF801EE0DFF1D1E161F068E
:100DA0000CF0E1C040330CF0DEC0A82FA42E042EBE
:100DB000000CBB086501C80ED11C87FDDA941C1419
:100DC0001D040CF0D0C02E5F3F4F670177E0C70EC7
:100DD000D11CD7FE04C067019EE0C90ED11C93E070
:100DE000D594C7949A95E1F747FF0AC0A42FA80F9E
:100DF000CA9CC001CB9C900D1124281B390B40E0EC
:100E00008A2F0A2E000C990B840F911D47FD9A958D
:100E1000C19714F0A0E3A41BF8A0E535F10514F088
:100E2000E4E5F0E09E2FCC85C427542F577081E075
:100E300001C0880F5A95EAF7459545954595F80103
:100E400074E54702E00DF11D1124AF0145545E4FDA
:100E5000D0E04A2EAA0F5508EE24E394DD24D415E1
:100E600015040CF080C0F9017491F1E0FF1219C073
:100E7000A62E8A01F901B0E8BB2EA91608F052C0CF
:100E80009B2C972221F0D8019C90982A9C92B69492
:100E900021F431967491A0E8BA2EA3940F5F1F4FEE
:100EA000ECCFF1101BC0882E8094A62E8A01F90188
:100EB000B0E8BB2EA91608F035C09B2C972221F074
:100EC000D8019C9098209C92B69421F4319674910C
:100ED000A0E8BA2EA3940F5F1F4FECCFB3E0FB1234
:100EE0002AC0882E8094962E8A01F901B0E8AB2E94
:100EF0009916B8F4BA2CB72241F0D801BC907C2ED8
:100F0000792470FE0CC0B82ABC92A69421F43196C4
:100F10007491A0E8AA2E93940F5F1F4FE9CFB820D9
:100F2000F3CFCE25880F19F44C5A5F4F81E0DF5F75
:100F30002C0D3D1D94CFA62E8A01F901B0E8BB2EE1
:100F4000A91680F79B2C972221F0D8019C90982617
:100F50009C92B69421F431967491A0E8BA2EA39491
:100F60000F5F1F4FEDCFDF91CF911F910F91FF903A
:100F7000EF90DF90CF90BF90AF909F908F907F9039
:100F80005F904F900895DC01643570F5403360F553
:100F900090968C919097E62F062E000CFF0B242F35
:100FA00025952595259594E52902E00DF11D11243F
:100FB000E554FE4F2081342F37708230B1F4822FF8
:100FC00090E0032E02C0959587950A94E2F78095EC
:100FD0008170811114C081E090E001C0880F3A95C2
:100FE000EAF78095822380830895833091F71C96D9
:100FF0008C9181706427609561708613ECCF81E0DD
:1010000090E001C0880F3A95EAF7822BECCFAF92BF
:10101000BF92CF92DF92EF92FF920F931F93CF93E5
:10102000DF93182F062FC0E0D3E08AEFD82E9EEF73
:10103000E92E842F8470C82E842F8270B82E842FBE
:101040008870A82E4170F42ECF5F8C2F880F8F5F91
:10105000E80ECC2081F0402F4D0F612F6C0F89E0FE
:1010600094E00E94C307402F4C0F6D2F610F89E061
:1010700094E00E94C307BB2081F0402F4D1B612FDD
:101080006C0F89E094E00E94C307402F4C1B6D2F2A
:10109000610F89E094E00E94C307AA2081F0402FED
:1010A0004C0F612F6D1B89E094E00E94C307402F15
:1010B0004D0F612F6C1B89E094E00E94C307FF2055
:1010C00081F0402F4C1B612F6D1B89E094E00E9442
:1010D000C307402F4D1B612F6C1B89E094E00E94D9
:1010E000C307CD173CF4E7FCAFCFD150D394D394D2
:1010F000ED0CAACFDF91CF911F910F91FF90EF9050
:10110000DF90CF90BF90AF9008950F931F93CF9330
:10111000DF93D82F162F042FC0E0C0174CF4412FB7
:101120004C0F6D2F89E094E00E94C307CF5FF5CF8D
:10113000DF91CF911F910F9108958F929F92AF925F
:10114000BF92CF92DF92EF92FF920F931F93CF93B4
:10115000DF93082FA62E842E922E83E0F82ED0E067
:10116000C3E09AEFE92E1EEFBB24B394B20EDF5F0B
:101170001F0D4C2F440F6A2D6C1BC92CCF0CDA2C81
:10118000DD1A81E04B0D881215C0802F8D0F0E9453
:1011900085084C2D6D2D8C2F800F0E948508DC1743
:1011A00094F417FD04C0C150E394E3941E0DF3942E
:1011B000F394DDCF802F8D1B0E9485084C2D6D2D63
:1011C000802F8C1BEACFDF91CF911F910F91FF9061
:1011D000EF90DF90CF90BF90AF909F908F90089549
:1011E0002F923F924F925F926F927F928F929F9237
:1011F000AF92BF92CF92DF92EF92FF920F931F9325
:10120000CF93DF9300D000D000D01F92CDB7DEB7D0
:10121000211121C001111FC09A01462F682F89E0BA
:1012200094E027960FB6F894DEBF0FBECDBFDF91D6
:10123000CF911F910F91FF90EF90DF90CF90BF90D3
:10124000AF909F908F907F906F905F904F903F9066
:101250002F900C94B0060D8329838A016C838B83B5
:10126000FA0134903196E491E32CF12C3701F7E048
:101270006F0E711C83E0759467948A95E1F7512C89
:1012800090E8C92ED12CAE2EB12C3A9422242A9467
:101290002E0E852D052C000C990B8E159F050CF03C
:1012A00062C05A8257FE03C087E0850D8A839A8107
:1012B0009595959595959A83852D877887FF03C099
:1012C0008150886F8F5F460102C0959487948A95FC
:1012D000E2F7412CEA810E2E000CFF0B3296FF83C1
:1012E000EE83F32DF519FA83842D042C000C990B51
:1012F0008A159B05B4F5689EF001699EF00D789EF5
:10130000F00D11248E819F81E80FF91FE00FF11F6E
:10131000E491F0E0E821F921EF2B09F19981923075
:1013200061F0622D6419452D933059F04A81642D86
:10133000913039F0442D652D04C0632D6519422D7F
:101340004419ED81EE2319F0F32DF61B6F2F8B81DD
:10135000680F9C81490F89E094E00E94C307439481
:10136000C3CF539496CF27960FB6F894DEBF0FBE27
:10137000CDBFDF91CF911F910F91FF90EF90DF9044
:10138000CF90BF90AF909F908F907F906F905F9025
:101390004F903F902F900895CF92DF92EF92FF925F
:1013A0000F931F93CF93DF937C01D62EC22EC42FB1
:1013B000002E000C110B040F111D47FD1A958C2FE8
:1013C0000C2E000C990B801791076CF4D0E0DC1503
:1013D00044F46D2D6D0F4C2FC7010E94C307DF5FD2
:1013E000F6CFCF5FECCFDF91CF911F910F91FF90A0
:1013F000EF90DF90CF9008954F925F926F927F921F
:101400008F929F92AF92BF92CF92DF92EF92FF9214
:101410000F931F93CF93DF93EC016A3049F4288533
:101420009D818A85299F800D11248A871986A6C0EF
:101430006D3009F4A3C0898483E588150CF487C056
:10144000DA848FE28D150CF482C018852C8121502E
:10145000330B129FC001139F900D1124880D911D15
:1014600087FC9A95181619060CF071C02D818D2DE8
:101470000D2C000C990B129F800D911D1124181634
:1014800019060CF064C078A0C82C912CE62EF12C23
:10149000292D092C000C330B8C8190E0281739077B
:1014A0000CF054C00197E0E02817390771F0E89E6E
:1014B000F001E99EF00DF89EF00D11242E0F3F1F54
:1014C000EE8DFF8DE20FF31FE4915D2C612C492C12
:1014D000480C2D81862D062C000C990B2817190617
:1014E00091F18CF1AE2EB12CE0FF16C0113061F4F9
:1014F000462D4D0D642DCE010E94C307F501F595D3
:10150000E7956394510EE5CF012F212F452D6C2DCA
:10151000CE010E94CC09F2CF89A198A1891771F35D
:1015200088A3113041F4462D4D0D642DCE010E944B
:10153000C30778A2E3CF012F212F452D6C2DCE01BB
:101540000E94CC09F6CF9394C10EA2CF78A2288531
:101550003C818985239F800D112489879F81992350
:1015600069F0082E000C990B44E550E0239F4019C8
:1015700051091124481759070CF452CF81E090E02B
:10158000DF91CF911F910F91FF90EF90DF90CF905F
:10159000BF90AF909F908F907F906F905F904F9093
:1015A00008950F931F93CF93DF938C01D0E0C0E099
:1015B000F801EC0FFD1F6491662341F089E094E08F
:1015C0000E94FC09892B11F02196F2CFCE01DF9108
:1015D000CF911F910F91089581E080930501809331
:1015E00004018093030180930201089580917701A3
:1015F000833089F028F4813041F0823049F0089539
:10160000843091F0853051F00895109205010895CD
:10161000109204010895109203010895109205019B
:10162000109204011092030110920201089508958E
:1016300090E080E00895CF93DF93EC0183E0CC0F3E
:10164000DD1F8A95E1F7FE01E85EFE4F96819B3033
:1016500008F09AE09093F603C85EDE4F688180EE52
:1016600093E00E947D068C8181959091E4032D8109
:10167000299F202D11242093F9038093FA038A8156
:101680008A532B81299F202D11242093FB038093C3
:10169000FC038F8129812093F403899F802D1124DD
:1016A0008093F50310920504109204041092030431
:1016B00081E08093F7038093B8011092F803DF91E3
:1016C000CF91089580917701833091F028F4813093
:1016D00041F0823051F00895843069F0853071F026
:1016E000089590E080E00C941B0B81E090E0FBCF2C
:1016F00082E090E0F8CF83E090E0F5CF84E090E0E6
:10170000F2CFFB0101900020E9F73197AF01461BB2
:10171000570BDC01ED91FC910280F381E02D0994DF
:10172000CF93DF930E94D10AEC0160E471E089E07D
:1017300094E00E94810B8C0F9D1FDF91CF91089543
:10174000EBEBF1E088EF91E0DF019C011D9221506D
:101750003040E1F7109212041092130486EC96E0E8
:101760000E94D10A0E94C2048CB583608CBD8DB5E5
:101770008E7F8DBD83E491E0EEEFFFE3099510923B
:101780000F0481EA96E00E94900B0E94C2040E941E
:1017900039058091D003813039F062E370E080E058
:1017A00090E00E944B06F3CF08958F929F92AF92E4
:1017B000BF92EF92FF920F931F93CF93DF93CDB71A
:1017C000DEB7A1970FB6F894DEBF0FBECDBF7C0188
:1017D000FA01CB0119A2223008F42AE08E010F5D34
:1017E0001F4F822E912CB12CA12CBF01A501940179
:1017F0000E94EF17F901CA016A300CF5605DD8014B
:101800006E938D01232B242B252B79F790E080E01C
:10181000109721F0BD01C7010E94810BA1960FB660
:10182000F894DEBF0FBECDBFDF91CF911F910F9116
:10183000FF90EF90BF90AF909F908F900895695C5C
:10184000DECFCF92DF92EF92FF920F931F93CF9351
:10185000DF936B01770FEE08FF08F7FE1BC0EC016A
:101860006DE20E9418048C0144275527BA014C19D7
:101870005D096E097F092AE0CE010E94D50B800F19
:10188000911FDF91CF911F910F91FF90EF90DF900B
:10189000CF9008952AE0B701A601DF91CF911F9163
:1018A0000F91FF90EF90DF90CF900C94D50B4F925B
:1018B0005F926F927F928F929F92AF92BF92CF92E0
:1018C000DF92EF92FF920F931F93CF93DF9300D09D
:1018D00000D01F92CDB7DEB740913B0450913C043D
:1018E00060913D0470913E042FB7F8948091B4014B
:1018F0009091B501A091B601B091B7012FBF481BDF
:10190000590B6A0B7B0B80913A0490E0B0E0A0E0A9
:101910000091360410913704209138043091390435
:1019200084179507A607B70708F0CEC00115110563
:101930002105310509F4C8C02FB7F8948091B4018E
:101940009091B501A091B601B091B7012FBF209140
:101950003A04820F911DA11DB11D80933B04909309
:101960003C04A0933D04B0933E0480912C049091DC
:101970002D04A0912E04B0912F040196A11DB11D3C
:1019800080932C0490932D04A0932E04B0932F04E5
:1019900010923604109237041092380410923904D1
:1019A0000E942606609332047093330480933404BB
:1019B000909335048091BC039091BD032FE0289F44
:1019C000A001299F500D11245A83498385E10E946B
:1019D000DD05A981BA818A0F9B1FB4E09695879592
:1019E000BA95E1F79093BD038093BC032091BB03AC
:1019F000222309F448C06091BF03262F30E050E055
:101A000040E029833A834B835C83C090C003D12C90
:101A1000F12CE12C4091C3035091C4034A01B12C35
:101A2000A12C2091C1033091C2032901712C612C9A
:101A30008217930728F09C014817590708F49A0168
:101A400050E040E0241935094609570969817A8137
:101A50008B819C816C197D098E099F090E944A190E
:101A6000A501940124193509460957090E94BD179B
:101A7000C20ED31EE41EF51EC092BE036C2D70E094
:101A800085E00E9480050E9439058091D7039091DE
:101A9000D803892B11F00E94EF0581E00F900F9081
:101AA0000F900F900F90DF91CF911F910F91FF90AA
:101AB000EF90DF90CF90BF90AF909F908F907F90EE
:101AC0006F905F904F900895012B022B032B09F02C
:101AD00084C18091D20381508E3FB8F58091D103AB
:101AE000813099F58091E5038F5F6091E60387FD72
:101AF00009C0082E000C990B70E06F5F7F4F0E94A9
:101B00006619682F6093E5038AE996E09093400494
:101B100080933F0488E4809341040E94C50387E8D2
:101B200096E09093EE038093ED031092F3031092EE
:101B3000F20381E08093E10389E08093F603109241
:101B4000F9031092FB031092FD038091D2038150A0
:101B50008E3F70F48091D003813009F01BC38DE873
:101B600096E09093400480933F0488E4809341047E
:101B70008091E003882331F08091E103811102C05C
:101B80000E94D7038091E103882309F43DC080912E
:101B9000F503811139C02091ED033091EE03E091FE
:101BA000F203F091F303EE0FFF1FE20FF31F859195
:101BB0009491009709F46AC19C0136952795369552
:101BC0002795422F80FD0BC14F734093F403809102
:101BD000E403899F802D11248093F503109205045E
:101BE000109204041092030481E08093F703809321
:101BF000B8011092F8038091F2039091F3030196DB
:101C00009093F3038093F2038091F703882331F0DC
:101C10008091F503811154C10E94C5038091410454
:101C2000882309F490C08C3008F031C23CE0381BA6
:101C30003983FF24F394F092110410922904109236
:101C40002A0440910E044D831981141B042F0D5F4B
:101C50004DE2410F2EE463E089E094E00E94CC095C
:101C60005D8154505D83105D252F41E0612F80E53B
:101C70000E949D082D8142E0612F83E00E949D0813
:101C8000F0922904F0922A0400910E0483E0800F60
:101C90008D831981101B9DE2E92EE10E23E0F22EC7
:101CA0004E2D6F2D89E094E00E94C307F39491E5D7
:101CB000F912F6CFAD81AE0DAD83EA2EEA9483E042
:101CC000F82E4E2D6F2D89E094E00E94C307F39407
:101CD000B1E5FB12F6CF0350105D402F612F80E07D
:101CE0000E948508402F612F83E50E94850841E00E
:101CF000612F83E00E94070842E0612F80E50E9487
:101D000007082D8124502D8344E0622F80E50E9436
:101D1000070848E06D8183E00E94070884E0809313
:101D2000120480910E043981381B315D3093130405
:101D300080913F04909140040E94D10A8091410417
:101D40008150809341048091D7039091D803892BCF
:101D5000E1F041E04093290410922A0490910D048F
:101D600085E5891B80931204109213046091D403BB
:101D7000613009F4F3C108F48CC18091D30365305C
:101D800008F003C26B5F8111FBC10E94C204809105
:101D90000F0481110EC0EBEBF1E088EF91E0DF0161
:101DA0009C011D9221503040E1F7109212041092D4
:101DB00013040E94260660933604709337048093C0
:101DC0003804909339042091320430913304621B1B
:101DD000730B709331046093300480E05FCEBC01DC
:101DE000E6E076956795EA95E1F76F71892F86951C
:101DF0008695869580512F70223099F1D0F4222358
:101E000009F43EC02130B9F1E091F203F091F303FF
:101E10003196F093F303E093F203CF01880F991FFB
:101E2000E091ED03F091EE03E80FF91F8591949195
:101E3000C3CE233061F0243039F79091E403969FAC
:101E4000602D11246093FD038093FE03DDCF9091FC
:101E5000E403969F602D11246093FB038093FC03A1
:101E6000D3CF9091E403969F602D11246093F903E2
:101E70008093FA03C9CF80EE93E00E947D06C4CF21
:101E80006B3008F06AE06093F603BECF8091F103F7
:101E9000811110C01092E1038091E003811103C011
:101EA0000E94C503B1CE0E94D7038091F2039091A6
:101EB000F303B4CF1092F3031092F203F901B6CFFB
:101EC00081508093F50380910504811142C02091D7
:101ED0000304309104042F5F3F4FC901880F991FFD
:101EE000E091FF03F0910004E80FF91F85919491B0
:101EF000482F477040930604492F469546954093D6
:101F00000704AC0164E0569547956A95E1F74F7375
:101F10009091E403499F402D11244093050483FBD5
:101F2000882780F98093B30130930404209303043D
:101F30008091010490E02817390758F0209102049D
:101F4000222309F49EC0821B91099093040480937C
:101F50000304809105048150809305048091F80367
:101F600031E0380F3093F8034091F40320910704D7
:101F7000240F8091EC03280F2093E2036091FB0370
:101F8000662371F070E0832F032E000C990B0E94E2
:101F900066198091FC03869F200D11242093E20393
:101FA0008091E20390E0849664E270E00E946619FA
:101FB0008093E2032091F6032093E3036091F903F9
:101FC000662381F0062E000C770B832F032E000C66
:101FD000990B0E9466198091FA03869F200D1124A7
:101FE0002093E3036091FD036623A1F0832F330F59
:101FF000990B70E00E946619CB0162E070E00E94CC
:1020000066192091FE039091E303289F900D1124FF
:102010009093E3034F33C1F18091E3038A300CF0D6
:1020200089E087FD80E08093E303F894E091E20388
:10203000F0E0ED59F94FE491E093B20120910804EA
:102040003091E303320390011124409106044203CE
:10205000C001439F900D11242091E50302C0880F19
:10206000991F2A95E2F797FF02C081589F4F880F6A
:10207000892F881F990B8093B9018093BA017894B6
:10208000CDCD0E94C50365CF1092E303CECF198258
:10209000D0CD0E94C5031092E10351E0509311048A
:1020A000E1EEF4E0E491EF5FE0930D04E2EEF4E0A2
:1020B000E491EF5FE0930E0483EE94E090932804A4
:1020C000809327041092D8031092D70310920F0424
:1020D00088EA89830E94570C8823E1F383ED94E01A
:1020E0000E94D10A4091D5035091D60370E060E080
:1020F0002AE089E094E00E94D50B8EEB94E00E94E8
:10210000D10A698162956F7070E089E094E00E9465
:10211000210C83EB94E00E94D10A8091D00381309E
:1021200009F433CE9981915099839111D3CF70E006
:1021300060E085E00E94800583B7817F846083BF73
:1021400083B7816083BF83B7816083BF889583B77E
:102150008E7F83BF83B78E7F83BFBCCF80912C04DB
:1021600090912D04A0912E04B0912F048F70992787
:10217000AA27BB2767E00897A105B10508F068E723
:1021800089E094E00E94180400CE882309F4FDCD74
:102190006FE2F6CF893209F0EBCC0E94A00BE8CCBD
:1021A0008F929F92AF92BF92CF92DF92EF92FF9267
:1021B0000F931F93CF93DF9380912B04882309F40F
:1021C000EEC081E0809311041092100410920F046D
:1021D0001092D3038093290480932A04CCEFD0E09B
:1021E0009CE0F92E07E816E0EE24E39429E0D22ED5
:1021F0000E94570C8823E1F3FE01C490C110C090E7
:102200000E042CE830E040E060E089E094E00E94B9
:10221000B0064CE04C0D2DEF30E060E089E094E03A
:102220000E94B00610921204F09213048CEF90E01A
:102230000E94D10A80910D04982F990F990F891B44
:102240008D5A8093120480910E04982F990F990F44
:10225000891B835D8093130480912C0484FF78C0D4
:1022600088E890E00E94900B80910D04982F990FC0
:10227000990F891B8D5A80931204809113048F5FEC
:10228000809313048091E503882309F464C080E8F7
:1022900090E00E94900B80910D04982F990F990F58
:1022A000891B8D5A80931204809113048F5F809351
:1022B000130488E790E00E94900B8091D103813055
:1022C00031F58091E5038F5F6091E60387FD09C0DA
:1022D000082E000C990B70E06F5F7F4F0E9466190B
:1022E000682F6093E5030E94C5031093EE030093EB
:1022F000ED031092F3031092F203E092E103D09207
:10230000F6031092F9031092FB031092FD038091E3
:10231000D003813019F180912B04482F50E070E0F8
:1023200060E080902C0490902D04A0902E04B0903A
:102330002F0484169506A606B70610F08F3F71F499
:102340008091D203813009F053CF0E94A00B50CF6F
:1023500084E890E087CF8CE790E09BCF8FEF80936D
:102360002B040E94C5031092E1030E94C50380E77D
:1023700090E09093EE038093ED031092F30310929C
:10238000F20381E08093E10399E09093F6031092C9
:10239000F9031092FB031092FD038093D303C090C6
:1023A000D503D090D603C094D094F12CE12C0E9498
:1023B00026064B015C010E942606A501940120958A
:1023C00030954095509560957095809590950E94B8
:1023D0004A199B01AC01C701B6010E944A194B0181
:1023E0005C01C090BC03D090BD03F12CE12C0E9495
:1023F00026066C0D7D1D8E1D9F1D680D791D8A1D85
:102400009B1D611571058105910511F00E94B4179E
:10241000C7E7D1E00BEA11E084E0C82ED12CE12C13
:10242000F12C0E946517A70196010E94BD176F5FEE
:1024300069930C171D07A9F71092B10181E08093F1
:10244000050180930401809303018093020180932E
:10245000010180930601109275011092B001109253
:102460007601109277011092AF01809307011092CC
:10247000AD011092AE01DF91CF911F910F91FF90AE
:10248000EF90DF90CF90BF90AF909F908F90089586
:102490001F920F920FB60F9211242F933F938F9399
:1024A0009F93AF93BF938091B4019091B501A09198
:1024B000B601B091B70130916F0123E0230F2D37A2
:1024C00058F50196A11DB11D20936F018093B401B1
:1024D0009093B501A093B601B093B70180917001BC
:1024E00090917101A0917201B09173010196A11DAB
:1024F000B11D8093700190937101A0937201B0930C
:102500007301BF91AF919F918F913F912F910F9048
:102510000FBE0F901F90189526E8230F0296A11D5D
:10252000B11DD2CF1F920F920FB60F9211242F938D
:102530006F937F938F939F936091B901662349F1C5
:1025400080916E018F5F80936E019091B201891727
:1025500000F12091B80181E028272093B801109262
:102560006E018091B301882369F08091000193E4AA
:10257000899F802D1124895B809300010E945A1944
:102580009093BA018091BA01211101C080E080933B
:10259000B4009F918F917F916F912F910F900FBEFB
:1025A0000F901F901895789484B5826084BD84B58F
:1025B000816084BD85B5826085BD85B5816085BD3E
:1025C00080916E00816080936E00109281008091F6
:1025D000810082608093810080918100816080937E
:1025E0008100809180008160809380008091B100A3
:1025F00084608093B1008091B00081608093B000CE
:1026000080917A00846080937A0080917A00826061
:1026100080937A0080917A00816080937A00809123
:102620007A00806880937A001092C10082E38093E0
:102630003A0481E090E0A0E0B0E08093360490930B
:102640003704A0933804B09339048FEF80932B04A0
:10265000E0E8F7E7259134912130304C09F03EC293
:10266000E6E9F7E7E491E0931404E7E9F7E7E4919A
:10267000E093BF03E8E9F7E7E491E093C003E9E9F9
:10268000F7E7859194919093C2038093C103EBE99E
:10269000F7E7859194919093C4038093C30387E0F7
:1026A0008093E603EEE9F7E7E491E093E503EFE9D1
:1026B000F7E7E491E0932B04E0EAF7E78591949142
:1026C0009093D8038093D703E2EAF7E7859194913A
:1026D0009093DA038093D903E4EAF7E78591949124
:1026E0009093DC038093DB03E6EAF7E7859194910E
:1026F0009093DE038093DD03C1E0C093BB036FEFD3
:1027000070E085E00E94800588E08093C50389E041
:102710008093C60387E08093C70386E08093C80355
:10272000D4E0D093C90382E08093CA0381E180930F
:10273000CB030E9439058CE39FE09093D6038093EE
:10274000D503D093D403C093DF038BE080931704A9
:102750008DE08093160480E1809318048EE08093CE
:102760001A048FE080931904C0931104C0932904C4
:1027700010922A04C0931004E1EEF4E0E491EF5FBC
:10278000E0930D04E2EEF4E0E491EF5FE0930E04D9
:1027900083EE94E09093280480932704CFB7F894B5
:1027A00080917401811127C0E2E0F7E08491E6E1B5
:1027B000F7E09491E82FF0E0EE0FFF1FED50FE4F91
:1027C000A591B491EC91E92321F461E08AE00E94A3
:1027D000750461E08AE00E94FD048CB580618CBDC7
:1027E0008CB580648CBD61E08DE00E94FD0461E0E9
:1027F0008BE00E94FD04809174018F5F80937401CF
:10280000CFBF8CB58F7D8CBD8CB58C7F81608CBD2E
:102810008DB581608DBD8CB58C608CBD61E0809183
:1028200017040E94FD0461E0809116040E94FD04DB
:1028300061E0809118040E94FD0480911A0418162A
:102840001CF461E00E94FD048091190418161CF428
:1028500061E00E94FD0480911A04181674F460E08F
:102860000E9475046AE070E080E090E00E944B06F0
:1028700061E080911A040E94750480911604082E6C
:10288000000C990BFC01E850F94FE491F0E0EE0FD9
:10289000FF1FE350FE4F2591349130931E04209387
:1028A0001D04FC01E45FF84FE491E093240480915F
:1028B0001704082E000C990BFC01E850F94FE49125
:1028C000F0E0EE0FFF1FE350FE4F2591349130935F
:1028D0001C0420931B04FC01E45FF84FE491E09397
:1028E000230480911904082E000C990BFC01E85078
:1028F000F94FE491F0E0EE0FFF1FE350FE4F2591FA
:1029000034913093200420931F04FC01E45FF84FBE
:10291000E491E093250480911804082E000C990B93
:10292000FC01E850F94FE491F0E0EE0FFF1FE35097
:10293000FE4F259134913093220420932104FC0111
:10294000E45FF84FE491E093260481E20E94A3043F
:1029500084E10E94A3048091140487FF03C08FE7E1
:10296000809314048091140480680E94A30480E280
:102970000E94A3048CE00E94A3040E94C20481E090
:102980008093E40384E0809308048FEE91E09093B9
:10299000F0038093EF0360E080EE93E00E947D06F9
:1029A00061E070E083E00E9480058091B100887F43
:1029B00081608093B100F8941092800010928100A1
:1029C000109285001092840088E191E09093890034
:1029D000809388008091810088608093810080913D
:1029E000810081608093810080916F00826080937C
:1029F0006F0078948091D7039091D803892B11F0C0
:102A00000E94EF058091D103813009F494C0809138
:102A1000D403882309F48FC00E94C50387E092E0A5
:102A20009093EE038093ED031092F3031092F20360
:102A300081E08093E10389E08093F6031092F9032B
:102A40001092FB031092FD030E94D01080E0E82E4C
:102A500080E0F82EC1E097E2D92E22E1C22E13E0E9
:102A600035E0B32E44E0A42E0E94570C882381F158
:102A70008091D203813011F40E94D0108091B10175
:102A800081110BC08091B0018F5F8093B0018131C3
:102A900020F01092AF01C093B10100910701C093E3
:102AA0002904C0932A04043308F448C021E934E01F
:102AB00040E162E289E094E00E94B00610921204C4
:102AC000109213046AE471E089E094E00E94810BA3
:102AD000E114F10449F20E940000C6CF9CE39093F8
:102AE00014041092BF038093C00380E293E090939C
:102AF000C2038093C10384ED93E09093C403809359
:102B0000C30387E08093E6038093E5038CEA9DE0AE
:102B10009093D8038093D7038EED9DE09093DA03D2
:102B20008093D90384E79EE09093DC038093DB03DA
:102B30008CE39FE0DDCD1092E50386CF2FE033E0FC
:102B400040E06AE089E094E00E94B0068091AE0126
:102B500081113BC08091B1018823E9F18091060188
:102B6000882309F4D8C08091AD01811112C0D091A1
:102B7000AF01ED2FF0E0E858FE4F808180937701A0
:102B80000E94620B0E94F60ADF5FD093AF01C093F0
:102B9000AD018091AD01882319F08F5F8093AD0165
:102BA0008091AD018131B8F08091AF01801708F4B8
:102BB000ADC01092AF011092AD010E94EC0A1092CC
:102BC00006018091AE01882331F08F5F893008F0D3
:102BD00017C18093AE01809105018823B9F010934D
:102BE000290410932A0400E021E04DED52E060E05A
:102BF0008EE10E94F008C0932904C0932A0421E0CA
:102C00004BEA52E060E08EE10E94F00880910401FE
:102C10008823C1F01093290410932A042DED32E08B
:102C20004CE062E389E094E00E94B006C09329047E
:102C3000C0932A0429E732E04CE062E389E094E0A3
:102C40000E94B006809103018823B9F010932904F3
:102C500010932A0400E023E04DED52E060E28EE1A3
:102C60000E94F008C0932904C0932A0423E047E49B
:102C700052E060E28EE10E94F00880910201882318
:102C8000B9F01093290410932A0401E020E04DEDDF
:102C900052E06CE082E10E94F008C0932904C093E6
:102CA0002A0420E045E152E06CE082E10E94F00855
:102CB00080910601882309F4A6C0C0932904C0931B
:102CC0002A0402E022E049E165E289E094E00E9402
:102CD000CC0980910101882361F0C0932904C0933D
:102CE0002A0402E022E04CE169E289E094E00E94DB
:102CF000CC09D0921204C092130460910701615074
:102D0000770B89E094E00E94210CE2CE1092AD0195
:102D10000E94EC0A56CF8091760181112EC08091DD
:102D2000CD03813031F480937601809377010E9446
:102D3000620B8091CE03813039F48093760182E07A
:102D4000809377010E94620B8091CF03813031F430
:102D500080937601109377010E94620B8091CC03DF
:102D6000813031F480937601A09277010E94620B4A
:102D700080917601882309F424CFD1E0D80FD09335
:102D800076010E94F60AD93008F41BCF0E94EC0AA3
:102D90008091AF01E82FF0E0E858FE4F208190913C
:102DA00077012917A9F0D0917501DF5FD0937501E4
:102DB000B0927701D23010F40E94620B0E94F60AA2
:102DC000D13108F4FECE0E94D01010927701F9CED6
:102DD0008F5F8093AF01C093AD0110927601801791
:102DE00008F4EFCE1092AF011092AD010E94EC0AF0
:102DF000C09306010F5F00930701C093AE01E1CEBF
:102E00001092AE01E8CE0E94EC0AC0932904C09350
:102E10002A0402E022E049E16DE257CF10920C044F
:102E200010920B0480E191E090930A0480930904CE
:102E300008958F929F92AF92BF92CF92DF92EF92BE
:102E4000FF92CF93DF93EC01688179818A819B8126
:102E5000611571058105910521F464E279ED8BE539
:102E600097E02DE133EF41E050E00E94BD174901AA
:102E70005A019B01AC01A7EAB1E40E94DC176B0187
:102E80007C01ACEEB4EFA50194010E94EA17C60ED6
:102E9000D71EE81EF91EF7FE06C081E0C81AD10849
:102EA000E10880E8F80AC882D982EA82FB82C70179
:102EB000B6019F77DF91CF91FF90EF90DF90CF9099
:102EC000BF90AF909F908F9008958F929F92AF92F6
:102ED000BF92CF92DF92EF92FF92609108017091C2
:102EE000090180910A0190910B016115710581051D
:102EF000910521F464E279ED8BE597E02DE133EF64
:102F000041E050E00E94BD1749015A019B01AC010C
:102F1000A7EAB1E40E94DC176B017C01ACEEB4EFD0
:102F2000A50194010E94EA17C60ED71EE81EF91EDD
:102F3000F7FE06C081E0C81AD108E10880E8F80A67
:102F4000C0920801D0920901E0920A01F0920B01AF
:102F5000C701B6019F77FF90EF90DF90CF90BF90B1
:102F6000AF909F908F90089560930801709309012E
:102F700080930A0190930B010895052E97FB1EF490
:102F800000940E94D41757FD07D00E94EF1707FC4A
:102F900003D04EF40C94D41750954095309521955C
:102FA0003F4F4F4F5F4F0895909580957095619575
:102FB0007F4F8F4F9F4F08950E941118A59F900D2E
:102FC000B49F900DA49F800D911D11240895B7FF0B
:102FD0000C94DC170E94DC17821B930B0895A1E26E
:102FE0001A2EAA1BBB1BFD010DC0AA1FBB1FEE1F83
:102FF000FF1FA217B307E407F50720F0A21BB30BCE
:10300000E40BF50B661F771F881F991F1A9469F749
:1030100060957095809590959B01AC01BD01CF01A5
:103020000895A29FB001B39FC001A39F700D811DA1
:103030001124911DB29F700D811D1124911D0895C1
:103040000E94941888F09F5798F0B92F9927B7518C
:10305000B0F0E1F0660F771F881F991F1AF0BA953C
:10306000C9F714C0B13091F00E94AE18B1E00895D4
:103070000C94AE18672F782F8827B85F39F0B93FC6
:10308000CCF3869577956795B395D9F73EF49095EF
:103090008095709561957F4F8F4F9F4F0895E8946D
:1030A00009C097FB3EF490958095709561957F4F90
:1030B0008F4F9F4F9923A9F0F92F96E9BB2793953E
:1030C000F695879577956795B795F111F8CFFAF44E
:1030D000BB0F11F460FF1BC06F5F7F4F8F4F9F4F7F
:1030E00016C0882311F096E911C0772321F09EE8DD
:1030F000872F762F05C0662371F096E8862F70E043
:1031000060E02AF09A95660F771F881FDAF7880F1C
:103110009695879597F9089557FD9058440F551F38
:1031200059F05F3F71F04795880F97FB991F61F049
:103130009F3F79F087950895121613061406551FC0
:10314000F2CF4695F1DF08C0161617061806991F2C
:10315000F1CF86957105610508940895E894BB2721
:1031600066277727CB0197F908950E94C8180C9419
:1031700039190E942B1938F00E94321920F095233A
:1031800011F00C9422190C94281911240C94AF18E6
:103190000E948C1870F3959FC1F3950F50E0551F56
:1031A000629FF001729FBB27F00DB11D639FAA279C
:1031B000F00DB11DAA1F649F6627B00DA11D661FEB
:1031C000829F2227B00DA11D621F739FB00DA11D0C
:1031D000621F839FA00D611D221F749F3327A00DC6
:1031E000611D231F849F600D211D822F762F6A2F62
:1031F00011249F5750409AF0F1F088234AF0EE0FC7
:10320000FF1FBB1F661F771F881F91505040A9F7F3
:103210009E3F510580F00C9422190C94AF185F3F2B
:10322000E4F3983ED4F3869577956795B795F7952F
:10323000E7959F5FC1F7FE2B880F911D96958795A7
:1032400097F9089597F99F6780E870E060E0089526
:103250009FEF80EC089500240A94161617061806AE
:103260000906089500240A9412161306140605068A
:103270000895092E0394000C11F4882352F0BB0F1B
:1032800040F4BF2B11F460FF04C06F5F7F4F8F4F7E
:103290009F4F0895DB018F939F930E94DC17BF918E
:1032A000AF91A29F800D911DA39F900DB29F900D95
:1032B00011240895991B79E004C0991F961708F00E
:1032C000961B881F7A95C9F78095089597FB072E5E
:1032D00016F4009407D077FD09D00E947A1907FCF4
:1032E00005D03EF4909581959F4F08957095619516
:1032F0007F4F0895AA1BBB1B51E107C0AA1FBB1F2C
:10330000A617B70710F0A61BB70B881F991F5A9571
:10331000A9F780959095BC01CD010895EE0FFF1F90
:0C3320000590F491E02D0994F894FFCF83
:10332C000101010101010101010000000000000088
:10333C00FC091F04180B170B0000000C03040508F4
:10334C00000C13080404050600130D1004070508EF
:10335C00001B061104050507001E39010511042F79
:10336C000D0A004C4F414445520020434F4E4752EA
:10337C004154554C4154494F4E5321210A20202091
:0E338C0020201720746F207265736574000096
:00000001FF
