:100000000C9419030C9441030C9441030C94410388
:100010000C9441030C9441030C9441030C94410350
:100020000C9441030C9441030C9441030C94DB0F9A
:100030000C9441030C9441030C9441030C94410330
:100040000C94910F0C9441030C9441030C944103C4
:100050000C9441030C9441030C9441030C94410310
:100060000C9441030C9441030101FF030101F703C8
:1000700005003801680100004500680100006C00BF
:10008000680000000000240027002A000000000093
:10009000250028002B000500893008023802497825
:1000A00068140000506F6E670005077F4141417F73
:1000B0003E5B4F5B3E3E6B4F6B3E183C783C1818E6
:1000C0003C7E3C181C577D571C1C5E7F5E1C007ECE
:1000D00043437E007E73737E007E7F7F7E7F41413F
:1000E000417F30483A060E06297929067F41414171
:1000F0007F60703F02042A1C361C2A7F3E1C0800C9
:1001000000081C3E7F14227F22143C3C3C7EFF18DA
:10011000423C817E3E6375633E3E616B633E3E635F
:100120006B6B3E04027F020410207F201008082A17
:100130001C08081C2A0808143E554122637569757D
:100140006310181C1810040C1C0C040000000000A4
:1001500000005F00000007000700147F147F1404F4
:100160002A7F2A102313086462364956205000085B
:10017000070300001C2241000041221C002A1C3EF3
:100180001C2A08083E080800E0600000080808086B
:1001900008006060000060100804033E5149453EBD
:1001A00000427F400062514949462141494D331880
:1001B00014127F1027454545393C4A4949304121B1
:1001C0001109073649494936064949291E000024C4
:1001D000000000806400000814224100141414146C
:1001E00014004122140802015909063E415D594E8E
:1001F0007C1211127C7F494949363E414141227FA0
:100200004141221C7F494949417F090909013E4179
:100210004151327F0808087F00417F410020414161
:100220003F017F081422417F404040407F020C0282
:100230007F7F0204087F3E4141413E7F0909090654
:100240003E416141BE7F091929462649494932018B
:10025000017F01013F4040403F1F2040201F3F40A1
:1002600038403F6314081463030478040361514960
:100270004543007F41410003040810600041417F75
:1002800000040201020480808080800003070800CF
:1002900020545478407F2844443838444444283813
:1002A0004444287F3854545418087E09090218A47D
:1002B000A49C787F0804047800447D40000060809E
:1002C000847D7F1010284400417F40007C04780426
:1002D000787C080404783844444438FC18242418F2
:1002E00018242418FC7C08040408085454542004DE
:1002F0003F4444203C4040207C1C2040201C3C408B
:1003000020403C44281028444C9090907C446454F5
:100310004C44000836410000007F000000413608D0
:1003200000180408100C7F4141417F506F6E670038
:1003300017534400161378001613140015102000EC
:1003400015201000540A03E181867F3E186D830F4B
:100350000F0E0183866033186DC3198F1803C38E87
:100360006033186DE330CF1803C39E603630CDE3A1
:1003700060CF3006C79E7E3E30CDB360CF300CC616
:10038000F6603330D9B660CF33CFCCF66061B0DBE6
:100390001E60CF30D86CE6C061B0DB1E618F19984B
:1003A0006CC6C063B19B0E330F0FB078C6FF7E1FC3
:1003B0001B061E0F0A0A153A49676E6F7265006DBB
:1003C000560A0A504C45415345205455524E204F31
:1003D000464620004C4F5720424154544552592123
:1003E000200003053F213F1208120A100A0E1C0EBE
:1003F0000C1E0C141A14161F161E131E1E1B1E1E76
:100400001F1E3F213F3A2F3A173D173F213F181F2C
:1004100002040A041F0E04040E1F0A1F0A0E0E1FF8
:1004200004110E2E252E2F2A2E262929021F0208FE
:100430001F08150E04040E150E15151B151B0406BA
:1004400004040C040000000017000300031F0A1F2F
:1004500016371A1904130A153A000300000E111179
:100460000E000A040A040E04003000040404001004
:10047000001804031F111F121F101D151711151F3F
:1004800007041F17151D1F151D01011F1F151F171D
:10049000151F000A00003200040A110A0A0A110A94
:1004A000040115020E11171E051E1F150A0E110A52
:1004B0001F110E1F15111F05010E111D1F041F1105
:1004C0001F1108100F1F041B1F10101F061F1E04F2
:1004D0000F0E110E1F09060E112E1F051A121509F7
:1004E000011F011F101F0F180F1F0C1F1B041B03E0
:1004F0001C03191513001F11030418111F0002011A
:10050000022020200001020C121E1F120C0C1212DD
:100510000C121F0C1A14041E05242A1E1F021C1480
:100520001D1020201D1F0814111F101E041E1E0266
:100530001C0C120C3E0A040C123E1E040214160A75
:10054000020F120E101E0E100E1E081E120C122686
:10055000281E322A26041E21001F00211E0401022B
:10056000013F213FF6E8DBCFC3B8AEA49B928A825D
:100570007B746E68625C57524E4945413E3A37344F
:10058000312E2C2927252321172B152010204C4FE5
:100590004144455200172B16201314000A4E6F20B9
:1005A00053442063617264206F720A6E6F204C4F57
:1005B000414445522E4845580A0A153A457869740F
:1005C000001D20466C617368696E670A20206C6F9D
:1005D000616465722E2E2E0A0A444F4E2754205411
:1005E00055524E204F4646210000000000230026B1
:1005F00000290004040404040404040202020202A8
:1006000002030303030303010204081020408001D6
:100610000204081020010204081020000000080055
:1006200002010000030407000000000000000000B9
:100630008A1411241FBECFEFD8E0DEBFCDBF11E07A
:10064000A0E0B1E0E4E8FEE202C005900D92AC311A
:10065000B107D9F723E0ACE1B1E001C01D92A13DA3
:10066000B207E1F713E0C9E1D3E004C02197FE012E
:100670000E943A17C831D107C9F70E941C100C9488
:1006800040170C94000090E0880F991FE0917E03C2
:10069000F0917F03E80FF91F2591349130938F0378
:1006A00020938E03F9018591949190917303989F03
:1006B000802D112480939003F90165917491472F47
:1006C00050E08417150629F020F0F90125913491A6
:1006D000832F989F802D1124809391030895DC012E
:1006E000ED91FC910190F081E02D0994AF92BF92C1
:1006F000CF92DF92EF92FF920F931F93CF93DF93EE
:100700006C017B018B01040F151FEB015E01AE181C
:10071000BF08C017D10759F06991D601ED91FC913E
:100720000190F081E02DC6010995892B79F7C5016B
:10073000DF91CF911F910F91FF90EF90DF90CF90BD
:10074000BF90AF900895833081F028F4813099F004
:100750008230A9F008958730A9F08830C9F084303C
:10076000B1F4809180008F7D03C0809180008F77ED
:1007700080938000089584B58F7784BD089584B5F3
:100780008F7DFBCF8091B0008F778093B00008956C
:100790008091B0008F7DF9CF1F93CF93DF93282FE7
:1007A00030E0F901E55EF94F8491F901E95FF94F15
:1007B000D491F901ED50FA4FC491CC23A9F0162F32
:1007C00081110E94A303EC2FF0E0EE0FFF1FE4570E
:1007D000FF4FA591B4918FB7F894EC91111108C017
:1007E000D095DE23DC938FBFDF91CF911F910895C9
:1007F000DE2BF8CFCF93C82FF89460E08091A70349
:100800000E94CC038091A80318161CF460E00E949B
:10081000CC03CEBD00000DB407FEFDCF8EB5809198
:10082000A80318161CF461E00E94CC037894CF91C1
:1008300008950F931F93CF938091A4038F5F8093AC
:10084000A4030AE411E0C0E08C2F80640E94FA0344
:1008500080E80E94FA0361E08091A7030E94CC0324
:100860008091A80318161CF460E00E94CC03F801E4
:1008700084E591919EBD00000DB407FEFDCF9EB5AD
:100880008150B9F78091A80318161CF461E00E940A
:10089000CC03CF5F0C5A1F4FC630B1F680E4CF9126
:1008A0001F910F910C94FA03CF93DF9390E0FC011A
:1008B000E95FF94F24918D509A4FFC018491882370
:1008C000C9F090E0880F991FFC01EE57FF4FA591EA
:1008D000B491FC01E457FF4FC591D49161110DC053
:1008E0009FB7F8948C91209582238C93888128233C
:1008F00028839FBFDF91CF910895623051F49FB755
:10090000F8943C91822F809583238C93E8812E2B41
:10091000EFCF8FB7F894EC912E2B2C938FBFEACFAB
:10092000FF920F931F93CF93DF93CAE4D3E0FF248A
:10093000FA9462E08A850E9454042A8530E0F90125
:10094000E55EF94F8491F901E95FF94F0491F901EE
:10095000ED50FA4F14911123E1F081110E94A3038D
:10096000E12FF0E0EE0FFF1FE751FA4FA591B49190
:10097000EC9189890E2369F0811113C0219683E0DF
:10098000C135D807B1F6DF91CF911F910F91FF903C
:10099000089589898F5F898B60E08A850E9454045D
:1009A000EDCF8F3F11F4198AF7CFF98AF5CF1F9356
:1009B000CF93DF93182FEB0161E00E94540420973E
:1009C00039F460E0812FDF91CF911F910C94CC031B
:1009D000CF3FD10511F461E0F5CFE12FF0E0E55E06
:1009E000F94FE491E33031F140F4E130B1F0E2301D
:1009F000E1F0C038D1057CF7E4CFE73029F1E830E9
:100A000059F1E430B1F780918000806280938000DA
:100A1000D0938B00C0938A0004C084B5806884BDE5
:100A2000C7BDDF91CF911F91089584B5806284BDC9
:100A3000C8BDF7CF80918000806880938000D093FC
:100A40008900C0938800EDCF8091B00080688093CA
:100A5000B000C093B300E5CF8091B0008062809376
:100A6000B000C093B400DDCF8E50806480937C00D2
:100A700080917A00806480937A0080917A0086FD6C
:100A8000FCCF8091780090917900089580916E0359
:100A90008F7149F584E10E943405BC01990F880BE0
:100AA000990B0E94FD1526EE3FE34EEC50E40E94A8
:100AB00061160E94CC159B017093650360936403DB
:100AC000672BB9F084E080936303E6E6F3E080E00F
:100AD000419151912417350718F4809363030895C9
:100AE0008F5F8430A9F780916E038F5F80936E03D0
:100AF00008958FEF80936303F6CF3FB7F89480910A
:100B00001E0190911F01A0912001B091210126B5F5
:100B1000A89B05C02F3F19F00196A11DB11D3FBF35
:100B2000BA2FA92F982F8827BC01CD01620F711D04
:100B3000811D911D42E0660F771F881F991F4A95FE
:100B4000D1F708958F929F92AF92BF92CF92DF928A
:100B5000EF92FF924B015C010E947D056B017C01CD
:100B60000E947D056C197D098E099F09683E7340BE
:100B700081059105A8F321E0821A9108A108B10826
:100B800088EEC80E83E0D81EE11CF11C811491048C
:100B9000A104B10429F7FF90EF90DF90CF90BF90B0
:100BA000AF909F908F900895FC01178A158A14A228
:100BB00013A2108E10924101109242011092450131
:100BC0001092B4000895CF93DF93E09178038E2FB5
:100BD00090E0880F991FE0917603F0917703E80F7A
:100BE000F91F859194918F3F980729F410926F0314
:100BF000DF91CF91089590937B039927880F991FD8
:100C0000E0917903F0917A03E80FF91FC591D4912F
:100C10008FE693E00E94D405D0937D03C0937C03BC
:100C2000109282031092810381E08093700389E027
:100C3000809385031092880310928A0310928C038C
:100C4000809178038F5F80937803D2CFCF93DF9327
:100C5000EC010E94D40588E790E09E878D871B8A6F
:100C60001A8A81E0898389E08E8B198E1B8E1D8EF6
:100C7000DF91CF910895CF93DF93EC010E94D405CB
:100C800080E790E09E878D871B8A1A8A81E089839E
:100C900089E08E8B198E1B8E1D8EDF91CF9108956A
:100CA000DC01FB0184918F5F14968C93149731962D
:100CB000E491EF5F1596EC9315976E5F7F4F5F960B
:100CC0007C936E935E970895DC01643570F5403334
:100CD00060F590968C919097E62F062E000CFF0BF6
:100CE000242F25952595259594E52902E00DF11DE4
:100CF0001124E65BFE4F2081342F37708230B1F42F
:100D0000822F90E0032E02C0959587950A94E2F712
:100D100080958170811114C081E090E001C0880F3E
:100D20003A95EAF78095822380830895833091F77E
:100D30001C968C9181706427609561708613ECCF4E
:100D400081E090E001C0880F3A95EAF7822BECCF62
:100D5000AF92BF92CF92DF92EF92FF920F931F93C9
:100D6000CF93DF93182F062FC0E0D3E08AEFD82E61
:100D70009EEFE92E842F8470C82E842F8270B82EA7
:100D8000842F8870A82E4170F42ECF5F8C2F880F8F
:100D90008F5FE80ECC2081F0402F4D0F612F6C0F3C
:100DA00088E993E00E946406402F4C0F6D2F610F7D
:100DB00088E993E00E946406BB2081F0402F4D1B20
:100DC000612F6C0F88E993E00E946406402F4C1B52
:100DD0006D2F610F88E993E00E946406AA2081F0DC
:100DE000402F4C0F612F6D1B88E993E00E94640631
:100DF000402F4D0F612F6C1B88E993E00E94640621
:100E0000FF2081F0402F4C1B612F6D1B88E993E080
:100E10000E946406402F4D1B612F6C1B88E993E0F4
:100E20000E946406CD173CF4E7FCAFCFD150D394B9
:100E3000D394ED0CAACFDF91CF911F910F91FF902A
:100E4000EF90DF90CF90BF90AF9008950F931F93D6
:100E5000CF93DF93D82F162F042FC0E0C0174CF488
:100E6000412F4C0F6D2F88E993E00E946406CF5FFD
:100E7000F5CFDF91CF911F910F9108958F929F929F
:100E8000AF92BF92CF92DF92EF92FF920F931F9398
:100E9000CF93DF93082FA62E842E922E83E0F82E78
:100EA000D0E0C3E09AEFE92E1EEFBB24B394B20E5C
:100EB000DF5F1F0D4C2F440F6A2D6C1BC92CCF0C0C
:100EC000DA2CDD1A81E04B0D881215C0802F8D0FB2
:100ED0000E9426074C2D6D2D8C2F800F0E94260717
:100EE000DC1794F417FD04C0C150E394E3941E0D85
:100EF000F394F394DDCF802F8D1B0E9426074C2D99
:100F00006D2D802F8C1BEACFDF91CF911F910F9118
:100F1000FF90EF90DF90CF90BF90AF909F908F9019
:100F20000895CF92DF92EF92FF920F931F93CF938A
:100F3000DF937C01D62EC22EC42F002E000C110B85
:100F4000040F111D47FD1A958C2F0C2E000C990BC8
:100F5000801791076CF4D0E0DC1544F46D2D6D0F13
:100F60004C2FC7010E946406DF5FF6CFCF5FECCF46
:100F7000DF91CF911F910F91FF90EF90DF90CF9075
:100F800008954F925F926F927F928F929F92AF924D
:100F9000BF92CF92DF92EF92FF920F931F93CF9366
:100FA000DF93EC016A3049F428859D818A85299F69
:100FB000800D11248A871986A6C06D3009F4A3C05C
:100FC000898483E588150CF487C0DA848FE28D1557
:100FD0000CF482C018852C812150330B129FC00164
:100FE000139F900D1124880D911D87FC9A9518165A
:100FF00019060CF071C02D818D2D0D2C000C990B54
:10100000129F800D911D1124181619060CF064C052
:1010100078A0C82C912CE62EF12C292D092C000C3F
:10102000330B8C8190E0281739070CF054C00197DE
:10103000E0E02817390771F0E89EF001E99EF00D15
:10104000F89EF00D11242E0F3F1FEE8DFF8DE20F45
:10105000F31FE4915D2C612C492C480C2D81862DC9
:10106000062C000C990B2817190691F18CF1AE2E65
:10107000B12CE0FF16C0113061F4462D4D0D642DEA
:10108000CE010E946406F501F595E7956394510E33
:10109000E5CF012F212F452D6C2DCE010E94910708
:1010A000F2CF89A198A1891771F388A3113041F477
:1010B000462D4D0D642DCE010E94640678A2E3CF2B
:1010C000012F212F452D6C2DCE010E949107F6CFC7
:1010D0009394C10EA2CF78A228853C818985239F55
:1010E000800D112489879F81992369F0082E000CB7
:1010F000990B44E550E0239F4019510911244817EA
:1011000059070CF452CF81E090E0DF91CF911F910D
:101110000F91FF90EF90DF90CF90BF90AF909F9096
:101120008F907F906F905F904F9008950F931F93D3
:10113000CF93DF938C01D0E0C0E0F801EC0FFD1FEE
:101140006491662341F088E993E00E94C107892BEE
:1011500011F02196F2CFCE01DF91CF911F910F9127
:101160000895209127013091280184E590E0821BA9
:10117000930B97FD01969595879590932401809305
:10118000230190932601809325018091290190915C
:101190002A0191958195910990932A0180932901C3
:1011A0000895089590E080E00895FB0101900020EB
:1011B000E9F73197AF01461B570BDC01ED91FC912C
:1011C0000280F381E02D0994CF93DF930E9496086B
:1011D000EC0161E171E088E993E00E94D5088C0F91
:1011E0009D1FDF91CF910895EAE4F1E088EF91E04F
:1011F000DF019C011D9221503040E1F71092A103C4
:101200001092A20381EC95E00E9496080E941904B6
:101210008CB583608CBD8DB58E7F8DBD84E191E0F2
:10122000EEEFFFE3099510929E038CE995E00E9492
:10123000E4080E9419040E94900480915F038130A9
:1012400039F062E370E080E090E00E94A205F3CF05
:1012500008958F929F92AF92BF92EF92FF920F9359
:101260001F93CF93DF93CDB7DEB7A1970FB6F89456
:10127000DEBF0FBECDBF7C01FA01CB0119A2223027
:1012800008F42AE08E010F5D1F4F822E912CB12CA5
:10129000A12CBF01A50194010E949B15F901CA016F
:1012A0006A300CF5605DD8016E938D01232B242BE1
:1012B000252B79F790E080E0109721F0BD01C70160
:1012C0000E94D508A1960FB6F894DEBF0FBECDBF21
:1012D000DF91CF911F910F91FF90EF90BF90AF9052
:1012E0009F908F900895695CDECFCF92DF92EF924E
:1012F000FF920F931F93CF93DF9377FF1DC06A0177
:101300007B01EC016DE20E946F038C01442755279D
:10131000BA014C195D096E097F092AE0CE010E94CD
:101320002909800F911FDF91CF911F910F91FF909D
:10133000EF90DF90CF9008952AE0DF91CF911F9139
:101340000F91FF90EF90DF90CF900C9429094F926E
:101350005F926F927F928F929F92AF92BF92CF9245
:10136000DF92EF92FF920F931F93CF93DF9300D002
:1013700000D01F92CDB7DEB74091CA035091CB0386
:101380006091CC037091CD032FB7F8948091460102
:1013900090914701A0914801B09149012FBF481B8E
:1013A000590B6A0B7B0B8091C90390E0B0E0A0E081
:1013B0000091C5031091C6032091C7033091C80363
:1013C00084179507A607B70708F0CEC001151105C9
:1013D0002105310509F4C8C02FB7F8948091460162
:1013E00090914701A0914801B09149012FBF2091F0
:1013F000C903820F911DA11DB11D8093CA03909353
:10140000CB03A093CC03B093CD038091BB03909109
:10141000BC03A091BD03B091BE030196A11DB11DF7
:101420008093BB039093BC03A093BD03B093BE0312
:101430001092C5031092C6031092C7031092C803FE
:101440000E947D056093C1037093C2038093C30320
:101450009093C40380914B0390914C032FE0289FFD
:10146000A001299F500D11245A83498385E10E94D0
:101470003405A981BA818A0F9B1FB4E096958795A0
:10148000BA95E1F790934C0380934B0320914A0364
:10149000222309F448C060914E03262F30E050E02B
:1014A00040E029833A834B835C83C0904F03D12C67
:1014B000F12CE12C40915203509153034A01B12C7D
:1014C000A12C20915003309151032901712C612CE2
:1014D0008217930728F09C014817590708F49A01CE
:1014E00050E040E0241935094609570969817A819D
:1014F0008B819C816C197D098E099F090E94F616CB
:10150000A501940124193509460957090E94691556
:10151000C20ED31EE41EF51EC0924D036C2D70E06A
:1015200085E00E94D7040E94900480916603909108
:101530006703892B11F00E94460581E00F900F9000
:101540000F900F900F90DF91CF911F910F91FF900F
:10155000EF90DF90CF90BF90AF909F908F907F9053
:101560006F905F904F900895012B022B032B09F091
:1015700073C18091610381508E3F18F580916003A3
:101580008130F9F4809174038F5F6091750387FD5A
:1015900009C0082E000C990B70E06F5F7F4F0E940E
:1015A0001217682F6093740385E995E09093CF0339
:1015B0008093CE0388E48093D0038FE693E00E946B
:1015C00026068091610381508E3F70F480915F0305
:1015D000813009F019C388E895E09093CF03809398
:1015E000CE0388E48093D00380916F03882331F089
:1015F00080917003811102C00E94E3058091700305
:10160000882309F43EC08091840381113AC08091FF
:101610007C0390917D03E0918103F0918203EE0FB2
:10162000FF1FE80FF91F259134912115310509F4A9
:101630006AC1A9015695479556954795842F20FD77
:101640000DC18F738093830380917303839F802DDB
:1016500011248093840310929403109293031092A8
:10166000920381E080938603809345011092870363
:1016700080918103909182030196909382038093DD
:10168000810380918603882341F080918403811136
:1016900056C18FE693E00E94D4058091D003882341
:1016A00009F490C08C3008F034C23CE0381B398318
:1016B000FF24F394F092A0031092B8031092B903A0
:1016C00040919D034D831981141B042F0D5F4DE242
:1016D000410F2EE463E088E993E00E9491075D8169
:1016E00054505D83105D252F41E0612F80E50E94FD
:1016F0003E072D8142E0612F83E00E943E07F09279
:10170000B803F092B90300919D0383E0800F8D83AD
:101710001981101B9DE2E92EE10E23E0F22E4E2DE1
:101720006F2D88E993E00E946406F39491E5F91225
:10173000F6CFAD81AE0DAD83EA2EEA9483E0F82EAC
:101740004E2D6F2D88E993E00E946406F394B1E575
:10175000FB12F6CF0350105D402F612F80E00E94F6
:101760002607402F612F83E50E94260741E0612F65
:1017700083E00E94A80642E0612F80E50E94A8064F
:101780002D8124502D8344E0622F80E50E94A8061D
:1017900048E06D8183E00E94A80684E08093A10365
:1017A00080919D033981381B315D3093A203809174
:1017B000CE039091CF030E9496088091D003815070
:1017C0008093D0038091660390916703892BE1F0A9
:1017D00041E04093B8031092B90390919C0385E5D2
:1017E000891B8093A1031092A2036091630361306F
:1017F00009F4EEC108F48FC180916203653008F0EE
:10180000FEC16B5F8111F6C10E94190480919E0395
:1018100081110EC0EAE4F1E088EF91E0DF019C0164
:101820001D9221503040E1F71092A1031092A203C3
:101830000E947D056093C5037093C6038093C70320
:101840009093C8032091C1033091C203621B730BB4
:101850007093C0036093BF0380E070CEC901E6E0DF
:1018600096958795EA95E1F78F71932F96959695C2
:10187000969590514F70423099F1D0F4442309F479
:101880003CC04130B9F1E0918103F091820331967F
:10189000F0938203E0938103CF01880F991FE091B9
:1018A0007C03F0917D03E80FF91F25913491C1CE9F
:1018B000433061F0443039F720917303289F802D25
:1018C000112480938C0390938D03DDCF20917303BB
:1018D000289F802D112480938A0390938B03D3CF6C
:1018E00020917303289F802D112480938803909367
:1018F0008903C9CF0E944303C6CF8B3008F08AE02A
:1019000080938503C0CF20918003211112C01092D3
:10191000700380916F03811105C08FE693E00E94F0
:10192000D405AFCE0E94E30580918103909182039C
:10193000B4CF1092820310928103FC01B6CF815084
:101940008093840380919403811142C0209192037B
:10195000309193032F5F3F4FC901880F991FE0918A
:101960008E03F0918F03E80FF91F85919491482F12
:10197000477040939503492F4695469540939603AB
:10198000AC0164E0569547956A95E1F74F739091E5
:101990007303499F402D11244093940383FB8827B0
:1019A00080F98093440130939303209392038091B4
:1019B000900390E02817390758F0209191032223D3
:1019C00009F49FC0821B9109909393038093920323
:1019D000809194038150809394038091870331E038
:1019E000380F309387034091830320919603240F8F
:1019F00080917B03280F2093710360918A036623F3
:101A000071F070E0832F032E000C990B0E941217C7
:101A100080918B03869F200D112420937103809168
:101A2000710390E0849664E270E00E941217809344
:101A300071032091850320937203609188036623CC
:101A400081F0062E000C770B832F032E000C990BD0
:101A50000E94121780918903869F200D11242093E4
:101A6000720360918C036623A1F0832F330F990BCF
:101A700070E00E941217CB0162E070E00E94121722
:101A800020918D0390917203289F900D11249093C3
:101A900072034F3309F43AC0809172038A300CF01C
:101AA00089E087FD80E080937203F894E0917103F0
:101AB000F0E0EC59FA4FE491E09343012091970351
:101AC0003091720332039001112440919503420337
:101AD000C001439F900D11242091740302C0880F10
:101AE000991F2A95E2F797FF02C081589F4F880FF0
:101AF000892F881F990B809342018093410178942C
:101B0000CCCD8FE693E00E94D40562CF1092720391
:101B1000CCCF1982CDCD8FE693E00E94D4051092F0
:101B2000700351E05093A00362EE73E088E993E004
:101B30000E945006109267031092660310929E0353
:101B400088EA89830E94A7098823E1F384ED93E062
:101B50000E949608409164035091650370E060E034
:101B60002AE088E993E00E9429098FEB93E00E9424
:101B70009608498142954F7050E070E060E088E936
:101B800093E00E94750984EB93E00E94960880918F
:101B90005F03813009F438CE998191509983911176
:101BA000D1CF70E060E085E00E94D70483B7817FE9
:101BB000846083BF83B7816083BF83B7816083BF45
:101BC000889583B78E7F83BF83B78E7F83BFBACF5D
:101BD0008091BB039091BC03A091BD03B091BE0363
:101BE0008F709927AA27BB2767E00897A105B10541
:101BF00008F068E788E993E00E946F0305CE882328
:101C000009F402CE6FE2F6CF893209F0EDCC0E94E2
:101C1000F408EACC3F924F925F926F927F928F923C
:101C20009F92AF92BF92CF92DF92EF92FF920F936B
:101C30001F93CF93DF93EC0181E08093A003109278
:101C40009F0310929E03109262038093B8038093C7
:101C5000B90395E4892E93E0992E11E00CE00E94DF
:101C6000A7098823E1F3FE018491E4E4F3E0A49062
:101C7000F401C4900A2C000CBB081A141B040CF0CD
:101C8000A3C01C140CF0A0C0F090B8039C2D91339D
:101C90000CF090E36A2DF5E5AF16B1040CF064E5A5
:101CA000E090A40387E0A80EB11C83E0B594A7944C
:101CB0008A95E1F770E02AE431E081E046E453E000
:101CC000C92E990FDD087C151D040CF07DC0FA01AA
:101CD0009491F1E0FF1220C0FA01D90168947724B1
:101CE00077F8672C692219F06C90682A6C927694C8
:101CF00029F4319694916894772477F811966A2E96
:101D0000621A661670F3880F19F42C5A3F4F81E05F
:101D10007F5F4A0D5B1DD7CFF1101AC0682E60940B
:101D2000FA01D9016894772477F8592E572019F0D1
:101D30005C9056205C92769429F431969491689444
:101D4000772477F811965A2E521A561670F3DBCF75
:101D5000E3E0FE1221C0482E4094FA01D9016894B4
:101D6000662467F8512C792E762039F07C90352C3A
:101D70003E2430FE0FC0782A7C92669429F4319676
:101D800094916894662467F853941196561658F304
:101D9000E126B9CF7420F0CFFA01D90168947724F5
:101DA00077F8672C692219F06C9068266C9276940B
:101DB00029F4319694916894772477F811966A2ED5
:101DC000621A661670F39FCF1092A1030093A203CC
:101DD000CE010E94960880919C03982F990F990F2D
:101DE000891B8D5A8093A10380919D03982F990F91
:101DF000990F891B835D8093A2038091BB0384FFAD
:101E000068C080E493E00E94E40880919C03982FCE
:101E1000990F990F891B8D5A8093A1038091A2037A
:101E20008F5F8093A20380917403882309F454C0C8
:101E300088E393E00E94E40880919C03982F990F17
:101E4000990F891B8D5A8093A1038091A2038F5F04
:101E50008093A20380E393E00E94E40880916003F2
:101E60008130B1F4809174038F5F6091750387FDB9
:101E700009C0082E000C990B70E06F5F7F4F0E9425
:101E80001217682F609374038FE693E00E94260672
:101E900080915F03813019F18091BA03482F50E09F
:101EA00070E060E0C090BB03D090BC03E090BD0345
:101EB000F090BE03C416D506E606F70610F08F3F75
:101EC00071F480916103813009F0C9CE0E94F40859
:101ED000C6CE8CE393E097CF84E393E0ABCF8FEF54
:101EE0008093BA038FE693E00E94D40510927003AA
:101EF0008FE693E00E943B0681E080936203DF91CE
:101F0000CF911F910F91FF90EF90DF90CF90BF90F6
:101F1000AF909F908F907F906F905F904F903F9089
:101F200008951F920F920FB60F9211242F933F9393
:101F30008F939F93AF93BF938091460190914701F8
:101F4000A0914801B091490130911D0123E0230F78
:101F50002D3758F50196A11DB11D20931D018093C9
:101F6000460190934701A0934801B09349018091A5
:101F70001E0190911F01A0912001B09121010196B5
:101F8000A11DB11D80931E0190931F01A0932001FC
:101F9000B0932101BF91AF919F918F913F912F916C
:101FA0000F900FBE0F901F90189526E8230F0296F2
:101FB000A11DB11DD2CF1F920F920FB60F92112407
:101FC0002F936F937F938F939F936091420166232A
:101FD00049F180911C018F5F80931C019091430116
:101FE000891700F12091450181E0282720934501C0
:101FF00010921C0180914401882369F080910001B6
:1020000093E4899F802D1124895B809300010E94B5
:1020100006179093410180914101211101C080E098
:102020008093B4009F918F917F916F912F910F902A
:102030000FBE0F901F901895789484B5826084BD70
:1020400084B5816084BD85B5826085BD85B58160BC
:1020500085BD80916E00816080936E00109281003A
:1020600080918100826080938100809181008160F5
:1020700080938100809180008160809380008091B6
:10208000B10084608093B1008091B0008160809342
:10209000B00080917A00846080937A0080917A0009
:1020A000826080937A0080917A00816080937A00C8
:1020B00080917A00806880937A001092C10082E358
:1020C0008093C90381E090E0A0E0B0E08093C50375
:1020D0009093C603A093C703B093C8038FEF809378
:1020E000BA03E0E8F7E7259134912130304C09F04C
:1020F000C1C2E6E9F7E7E491E093A303E7E9F7E774
:10210000E491E0934E03E8E9F7E7E491E0934F03AD
:10211000E9E9F7E7859194919093510380935003F7
:10212000EBE9F7E7859194919093530380935203E1
:1021300087E080937503EEE9F7E7E491E093740399
:10214000EFE9F7E7E491E093BA03E0EAF7E7859176
:1021500094919093670380936603E2EAF7E7859191
:1021600094919093690380936803E4EAF7E785917B
:10217000949190936B0380936A03E6EAF7E7859165
:10218000949190936D0380936C03C1E0C0934A03D4
:102190006FEF70E085E00E94D70488E080935403DD
:1021A00089E08093550387E08093560386E080930F
:1021B0005703D4E0D093580382E08093590381E120
:1021C00080935A030E9490048CE39FE090936503F0
:1021D00080936403D0936303C0936E038BE080937A
:1021E000A6038DE08093A50380E18093A7038EE092
:1021F0008093A9038FE08093A803C093A003C093AA
:10220000B8031092B903C0939F0362EE73E088E9AC
:1022100093E00E945006CFB7F8948091220181117B
:1022200027C0EDEFF5E08491E1E1F6E09491E82F2D
:10223000F0E0EE0FFF1FEE57FF4FA591B491EC9128
:10224000E92321F461E08AE00E94CC0361E08AE0A6
:102250000E9454048CB580618CBD8CB580648CBDAB
:1022600061E08DE00E94540461E08BE00E94540420
:10227000809122018F5F80932201CFBF8CB58F7D2B
:102280008CBD8CB58C7F81608CBD8DB581608DBD22
:102290008CB58C608CBD61E08091A6030E945404D3
:1022A00061E08091A5030E94540461E08091A7033E
:1022B0000E9454048091A90318161CF461E00E9446
:1022C00054048091A80318161CF461E00E94540481
:1022D0008091A903181674F460E00E94CC036AE0B0
:1022E00070E080E090E00E94A20561E08091A90387
:1022F0000E94CC038091A503082E000C990BFC01D1
:10230000ED50FA4FE491F0E0EE0FFF1FE457FF4F5E
:10231000259134913093AD032093AC03FC01E95F28
:10232000F94FE491E093B3038091A603082E000CCB
:10233000990BFC01ED50FA4FE491F0E0EE0FFF1F16
:10234000E457FF4F259134913093AB032093AA03B8
:10235000FC01E95FF94FE491E093B2038091A80397
:10236000082E000C990BFC01ED50FA4FE491F0E0BF
:10237000EE0FFF1FE457FF4F259134913093AF03C9
:102380002093AE03FC01E95FF94FE491E093B403BD
:102390008091A703082E000C990BFC01ED50FA4F19
:1023A000E491F0E0EE0FFF1FE457FF4F25913491C9
:1023B0003093B1032093B003FC01E95FF94FE4913E
:1023C000E093B50381E20E94FA0384E10E94FA03DC
:1023D0008091A30387FF03C08FE78093A3038091BD
:1023E000A30380680E94FA0380E20E94FA038CE053
:1023F0000E94FA030E94190481E08093730384E031
:10240000809397038EE790E090937F0380937E0301
:1024100080E00E94430361E070E083E00E94D70403
:102420008091B100887F81608093B100F894109210
:10243000800010928100109285001092840088E143
:1024400091E090938900809388008091810088605A
:1024500080938100809181008160809381008091D0
:102460006F00826080936F007894809166039091F2
:102470006703892B11F00E9446058091600381302B
:1024800009F425C180916303882309F420C18FE6F4
:1024900093E00E94D40586E990E090937D038093B9
:1024A0007C03109282031092810381E08093700379
:1024B00089E0809385031092880310928A0310921A
:1024C0008C0369EA70E088E993E00E9450068091ED
:1024D000BA03882321F084EA90E00E940A0EC0909B
:1024E0006403D0906503C094D094F12CE12C0E9439
:1024F0007D054B015C010E947D05A501940120959D
:1025000030954095509560957095809590950E9476
:10251000F6169B01AC01C701B6010E94F6164B01ED
:102520005C01C0904B03D0904C03F12CE12C0E9435
:102530007D056C0D7D1D8E1D9F1D680D791D8A1DED
:102540009B1D611571058105910511F00E946015B3
:102550001092620390E3E92EF12CC0E0D0E022E07B
:10256000922E3FE0C32E10E149E3D42E0E94A7092A
:10257000882309F4B9C080916103813009F4AAC0AD
:1025800080915C0381508E3F60F480913B0190917B
:102590003C01181619062CF4029790933C01809385
:1025A0003B0180915E0381508E3F90F480913B010E
:1025B00090913C0120913F0130914001280F391F3B
:1025C000203331052CF4029690933C0180933B011B
:1025D0004091250150912601A0912701B091280139
:1025E0009A012A0F3B1F37FF02C02F5F3F4F3595DF
:1025F0002795809131019091320160913501709160
:102600003601680F791FFB0177FD3196F595E79547
:102610002E173F070CF06EC0181619062CF40297FF
:102620009093320180933101809123019091240194
:102630002091290130912A01820F931F9093240148
:102640008093230180912B0190912C01480F591FF9
:1026500057FF5AC01092260110922501919581953D
:10266000910990932C0180932B018FE693E00E94B7
:10267000260655C09CE39093A30310924E038093CB
:102680004F0380E293E0909351038093500384EDD5
:1026900093E0909353038093520387E080937503F4
:1026A000809374038CEA9DE09093670380936603A4
:1026B0008EED9DE0909369038093680384E79EE02C
:1026C00090936B0380936A038CE39FE05ACD109242
:1026D0007403F7CE8091BA03882321F08BE293E054
:1026E0000E940A0E10926203209709F43FCF0E94C5
:1026F00000003CCFE217F3070CF096CF6033710572
:102700000CF092CF02968CCF9A012A0F3B1F2133F7
:1027100031050CF0AEC05093260140932501809105
:10272000390190913A01209127013091280140917F
:10273000250150912601E0912301F0912401D90156
:10274000AE0FBF1F8A179B07ECF460913D0170919B
:102750003E01860F971FE817F907A4F460913B012B
:1027600070913C015901A40EB51E6A157B0554F405
:10277000A0903F01B09040016A0D7B1D461757079E
:102780000CF4A0C080912F01909130018A179B0713
:102790000CF477C0809123019091240197FFA6C08B
:1027A00080912D0190912E01019690932E0180939E
:1027B0002D018FE693E00E943B060E94B1088091B4
:1027C0003701909138010A9731F080912D01909155
:1027D0002E010A9741F4109238011092370110929D
:1027E0002E0110922D019092A003C092A10310938C
:1027F000A2034091370150913801052E000C660B61
:10280000770B88E993E00E947509D092A103109399
:10281000A20340912D0150912E01052E000C660B54
:10282000770B88E993E00E94750900913F012091A0
:102830003D0140913B016091390188E993E00E949C
:102840009107009135012091330140913101609150
:102850002F0188E993E00E94910720912701022F20
:10286000409125016091230188E993E00E9491073E
:102870003BCF97012A1B3B0B309326012093250168
:10288000EDCE6091330170913401680F791FE61726
:10289000F7070CF07FCF6091310170913201F9019F
:1028A000E40FF51F6E177F070CF074CFE091350130
:1028B000F09136016E0F7F1F461757070CF06ACF55
:1028C000821B930B90932401809323018091290113
:1028D00090912A0191958195910990932A01809375
:1028E00029018FE693E00E94260654CF209127010C
:1028F00030912801820F931F853591050CF45FCF2D
:10290000809137019091380101969093380180931E
:1029100037014FCF10929B0310929A0389E091E008
:102920009093990380939803E7E3F1E0118210827A
:102930001382128283E090E09783868320E130E067
:102940003187208735832483EDE2F1E01182108204
:1029500041E550E053834283978386833187208704
:1029600035832483E3E2F1E026E030E035832483FD
:10297000978386839187808787E290E09183808325
:1029800085E190E09383828308958F929F92AF9226
:10299000BF92CF92DF92EF92FF92CF93DF93EC0141
:1029A000688179818A819B81611571058105910515
:1029B00021F464E279ED8BE597E02DE133EF41E01E
:1029C00050E00E94691549015A019B01AC01A7EA38
:1029D000B1E40E9488156B017C01ACEEB4EFA50157
:1029E00094010E949615C60ED71EE81EF91EF7FE2A
:1029F00006C081E0C81AD108E10880E8F80AC88258
:102A0000D982EA82FB82C701B6019F77DF91CF911D
:102A1000FF90EF90DF90CF90BF90AF909F908F90FE
:102A200008958F929F92AF92BF92CF92DF92EF92D2
:102A3000FF926091010170910201809103019091D8
:102A40000401611571058105910521F464E279EDB8
:102A50008BE597E02DE133EF41E050E00E946915EE
:102A600049015A019B01AC01A7EAB1E40E94881513
:102A70006B017C01ACEEB4EFA50194010E949615A8
:102A8000C60ED71EE81EF91EF7FE06C081E0C81A62
:102A9000D108E10880E8F80AC0920101D092020151
:102AA000E0920301F0920401C701B6019F77FF9005
:102AB000EF90DF90CF90BF90AF909F908F90089550
:102AC00060930101709302018093030190930401CC
:102AD0000895052E97FB1EF400940E94801557FD63
:102AE00007D00E949B1507FC03D04EF40C94801570
:102AF00050954095309521953F4F4F4F5F4F08952A
:102B000090958095709561957F4F8F4F9F4F089559
:102B10000E94BD15A59F900DB49F900DA49F800DA0
:102B2000911D11240895B7FF0C9488150E948815F3
:102B3000821B930B0895A1E21A2EAA1BBB1BFD0159
:102B40000DC0AA1FBB1FEE1FFF1FA217B307E4078C
:102B5000F50720F0A21BB30BE40BF50B661F771FE4
:102B6000881F991F1A9469F76095709580959095C4
:102B70009B01AC01BD01CF010895A29FB001B39F9D
:102B8000C001A39F700D811D1124911DB29F700D76
:102B9000811D1124911D08950E94401688F09F57B1
:102BA00098F0B92F9927B751B0F0E1F0660F771F71
:102BB000881F991F1AF0BA95C9F714C0B13091F067
:102BC0000E945A16B1E008950C945A16672F782F78
:102BD0008827B85F39F0B93FCCF38695779567952C
:102BE000B395D9F73EF490958095709561957F4F98
:102BF0008F4F9F4F0895E89409C097FB3EF490953E
:102C00008095709561957F4F8F4F9F4F9923A9F0C5
:102C1000F92F96E9BB279395F69587957795679554
:102C2000B795F111F8CFFAF4BB0F11F460FF1BC098
:102C30006F5F7F4F8F4F9F4F16C0882311F096E92B
:102C400011C0772321F09EE8872F762F05C06623D9
:102C500071F096E8862F70E060E02AF09A95660F92
:102C6000771F881FDAF7880F9695879597F908954B
:102C700057FD9058440F551F59F05F3F71F047952D
:102C8000880F97FB991F61F09F3F79F08795089512
:102C9000121613061406551FF2CF4695F1DF08C031
:102CA000161617061806991FF1CF8695710561054E
:102CB00008940895E894BB2766277727CB0197F9F6
:102CC00008950E9474160C94E5160E94D71638F0E9
:102CD0000E94DE1620F0952311F00C94CE160C9471
:102CE000D41611240C945B160E94381670F3959F2D
:102CF000C1F3950F50E0551F629FF001729FBB27F3
:102D0000F00DB11D639FAA27F00DB11DAA1F649F8E
:102D10006627B00DA11D661F829F2227B00DA11D41
:102D2000621F739FB00DA11D621F839FA00D611DC7
:102D3000221F749F3327A00D611D231F849F600DE8
:102D4000211D822F762F6A2F11249F5750409AF011
:102D5000F1F088234AF0EE0FFF1FBB1F661F771F9D
:102D6000881F91505040A9F79E3F510580F00C9468
:102D7000CE160C945B165F3FE4F3983ED4F3869531
:102D800077956795B795F795E7959F5FC1F7FE2B08
:102D9000880F911D9695879597F9089597F99F67E4
:102DA00080E870E060E008959FEF80EC08950024D3
:102DB0000A941616170618060906089500240A94A0
:102DC00012161306140605060895092E0394000C26
:102DD00011F4882352F0BB0F40F4BF2B11F460FFB5
:102DE00004C06F5F7F4F8F4F9F4F0895DB018F931C
:102DF0009F930E948815BF91AF91A29F800D911D56
:102E0000A39F900DB29F900D11240895991B79E016
:102E100004C0991F961708F0961B881F7A95C9F76A
:102E20008095089597FB072E16F4009407D077FD40
:102E300009D00E94261707FC05D03EF49095819595
:102E40009F4F0895709561957F4F0895AA1BBB1BF6
:102E500051E107C0AA1FBB1FA617B70710F0A61B9A
:102E6000B70B881F991F5A95A9F780959095BC01BB
:102E7000CD010895EE0FFF1F0590F491E02D099408
:042E8000F894FFCFF4
:102E8400010100000000000000C1077603D208D150
:0C2E9400080D0A004C4F4144455200005C
:00000001FF
