:100000000C94430E0C946B0E0C946B0E0C946B0EB4
:100010000C946B0E0C946B0E0C946B0E0C946B0E7C
:100020000C946B0E0C946B0E0C946B0E0C940F2BAB
:100030000C946B0E0C946B0E0C946B0E0C946B0E5C
:100040000C94C52A0C946B0E0C946B0E0C946B0ED6
:100050000C946B0E0C946B0E0C946B0E0C946B0E3C
:100060000C946B0E0C946B0E0101FF030101F7035E
:10007000250001050101040002030004020004053B
:10008000010504000505020A05000806010904042B
:100090000B03040A05041404040E07010F050013E2
:1000A00003021802021904051A05001A06001A07AD
:1000B000002008051E07012203002502002A08016E
:1000C0002804022D02062A05003208070102030A4D
:1000D0000700161718161718161213161314000512
:1000E000060D0F100E0F111011120002030402036F
:1000F000080B0E080A0B000102001E0108090A087D
:100100000A0B4652554954000000425245414400F2
:1001100000004D45415400000000544F4E4943003B
:10012000000054454100000000004C4951554F5219
:100130000000100005006801380100002048495403
:10014000200000000A20464F522000002044414D6C
:1001500041474500204845414C2000002046414C85
:100160004C530000594F552057494E0020585020FD
:100170004745540054524150504544002053504488
:100180002055500020464F554E440A000A2047494A
:1001900056452000544F2057484F3F0050524F546F
:1001A0004543540020444D472055500020444546C7
:1001B00020555000414C4C000000000042414720B7
:1001C0004D4158002055534553200000464C4149AD
:1001D0004C00000052414C4C590000005345415224
:1001E000434800004F5448455200000053545249C0
:1001F0004B45000056414E49534800004841535476
:10020000450000004F544845520000004850204F20
:100210004E450000485020414C4C000050524F5475
:10022000454354004F54484552000000464F4F4448
:10023000000000004452494E4B00000052554E0051
:100240000000000000000000000000004C005850BA
:10025000002F00081040782C242A1D2125255694B3
:100260001C1432E2830810000000000000000000AF
:100270000000015279FE7C0810000018183C7EFF37
:10028000F7F98E7E7E666624660810000000000086
:10029000004281C381BD42A9817E2408103C7CA418
:1002A000243C7EC3FFA5BD243C7E4242C3081018F7
:1002B0003C3C2418FF81E7A5A52424243C2466089F
:1002C00010C381BDA5BDFF5A66427E3C7C6C6C6E3E
:1002D000E608103C3C7E24247EFFBDBDBD3C3C7E38
:1002E0004242C3FF0118FF020FFF0304450000FF55
:1002F000050EFF0607590000FF080DFF090CFF0A55
:100300000B4A00003F000056000047000049000073
:10031000FF1013FF11125300004F0000FF1417FFCE
:1003200015164400004C0000480000FF192EFF1A6B
:1003300021FF1B1C410000FF1D1E550000FF1F2058
:10034000430000460000FF2229FF2324000000FF95
:100350002526500000FF27284B0000420000FF2AFE
:100360002B4E0000FF2C2D4D0000570000FF2F30BA
:10037000200000FF3132540000FF33340A000052E5
:100380000000E734D31F131A7B308762E85C704C9F
:10039000821A19ECC90DCBED5360B90A1F26FC9ADD
:1003A0003E992271ECE65BE8AEA5463B7B738DCBB4
:1003B00078FD2F7368DCE354ABFF649A0A8B163226
:1003C000DBDAE9334ED8E4D5C9EDCE37CCA8FD3918
:1003D000C1347C6AD65BEDED09AE931B1FAC94E78C
:1003E00034C69A2BACBBD96C32CFB9C20F6E78EC45
:1003F000D32A1292B307F738DCB78FD0F3C15196E6
:10040000BA0F950CF69FEB7689E3FEC4597F2563FE
:100410006B6879E0A8D1BA12B7B73C76BCDADD5484
:1004200013DA33CACCF864EAD652BCBB4E7F4EC452
:10043000597B5D24ED57D4A8C7ED33AA0D79A06987
:10044000288056DCE34D1D545FED1AA6C4C32CFE74
:10045000CC134305A6148C59FDB8D3386B3DABAC17
:10046000ACCD79F39DA93FC0CE3FA2CCF6AFF3B19E
:1004700079C7F72FB38FE9E39C7E9CE34D1D545F52
:10048000ECD309ACBFE7A1165991F1B97D8EDC3FE1
:1004900038F8C76F6B89ABC90EC110A69CF16AD83A
:1004A0008B2A1EBE1344FF8367B4EBFD71334E717C
:1004B0004B89A78E71FCD32A13DA3B738CC59AB291
:1004C0007B72EE719165CF43BAAF84432A35797759
:1004D000B596FC4596BA49DED54226B89B82752F63
:1004E0000D6E62D87B1E4786B71429DBD88B2C761D
:1004F000D5E3B9A28D34E16F6E791699D5ACF69E2D
:1005000039C7F45752A297BAE2D426E71F05343D03
:100510001763B3057E0CF620EC7A12B7B5CBF196D3
:100520007C45952E260D604EF66448B7E1FC69EDDA
:1005300058D968AAA0CDCAB4471AB596F4CB3FB231
:1005400009BE39373827B5F16ECE6C60B52A68849C
:1005500018B5DCBEDCE35732F239D5EC76DCE33C8F
:100560007EBAFE9CE6991CEAC69ED7B8F8CE69EC26
:10057000C8916FC3F8D288E35F09A35A5F41ED1DAC
:10058000B9C698F89ECEA951F4375EE2D4471A75E1
:100590009599ED1904DF1DB97DB9C6A9B05C8539FF
:1005A000E2D5B116543D7493B7C74BF6DCBEDCE31D
:1005B0003AA547D0DA738CE21998B372FFD9E131CA
:1005C0006B61AE8651C6BA183738D5360B90F68BAC
:1005D000331EBA49DED39D99965DAF7252F1AF36A4
:1005E000B7386D5EC4596F8E97EDB9C7C50F3175B9
:1005F00097B77E49DEC4596AF2EC79E0A8F6B2E911
:100600009D4E614E719D52A3E86FB1A6B2FF9E9CB4
:10061000E69AA6C4C31A7B4CF0A94BDE3B3C26717C
:10062000ECC5B029A22E22CB049A2A0CA5EE4D1FB0
:10063000188B2F6629D8BDCE68534597F17F11D905
:10064000A2183FED743068B659E71FA1E9964D66D0
:10065000B2F6F8434EA738D5360B90F634C957C4D6
:1006600030EC5D235C68F1550FB5F0996CD27B4E90
:10067000BFDCE354ABFA1165AE5B270FD2F1AE924B
:10068000762D772EE71EDCB78FEE5D32DA7FADBBBD
:10069000DB9C668860FD39CD372DE3F8D3D99162B4
:1006A000C7D6494BC6BA49DAB8C92F8F6BC68F8DEA
:1006B000F10C2511773841A3E3DB9C68B7263F6B2B
:1006C000CDADD37E48F422CB5E6D6EAA09ED3AFF24
:1006D0001165FD37CEE094BDE3B4DF3B8214FB1E11
:1006E0008BB4CD1163B17EDCE34C7C4A1165A3E38E
:1006F000D9813BEA43B178FA87D8D3316C28459643
:100700008F8CD10C1FF6B2DFAE931B1FAD468866EF
:10071000E71AA0B5347B45998F5E6D6FB430A9A000
:10072000C45952CBECD1DB9C6A82D4D1ECC131B03C
:100730006E707FD3C70A45999175E7CFB9C7B4C723
:10074000C4D1DB9C1FFDA703A87C9A7974BE3360DB
:100750009EC76DCE33C5989967F68C8762DA35D21D
:100760006363F5A97BC7661B3DB9C134CEAA80A6D9
:100770009CF1D8D3DA2CBCE3F9397E4A5E1B32DC1B
:10078000372EE71ED3996FC762F578FD0F45DB9CC6
:100790006E5AB4E65BF0FD2732DFB5C297134DF118
:1007A0007E784F6BA5C7630CD1667B745616D71342
:1007B000239D543D1769A2AE83B6B2DF4E78B56C67
:1007C00045969D7FEC9CB554762F738BA9CE69AF6F
:1007D0008F875920C69ED3C9ADCB3EFC727B386D46
:1007E00054E71AB996584EDF8EF60547F3445499EC
:1007F00065D4BDC5FEDCEA837E393D9268F866B8F3
:1008000053E733E4B2D74F6699519C7C50F45D8A2C
:100810008F937CE67A1EE73B56D7412B8F6E78ED9F
:100820007C268F6AE7DAE94CF445B82D864E568F60
:100830006B89AF8F84A738268F8C76F6E78ED7C763
:10084000C3AC90539E2D5934EBFF62C771D8BDCE17
:100850002EF6AF1356A0000808FF818181C1818167
:10086000810808F09C979595F59D870808FFFFBFC4
:10087000AFABABABFF0808AA55AA55AA55AA5508B5
:100880000855555555FF8181FF08087E8181C3BDFC
:100890008181810808818181E7BD81BDC30808008D
:1008A000007E817E183C42080822FF88FF22FF88D4
:1008B000FF080800FFA199C5A399FF0808FF8991C7
:1008C000A3C58991FF0808186681E79981E7FF08A9
:1008D00008000000FF000000FF0808186681E79983
:1008E00081E7FF08089981E7FF998166180808FFEA
:1008F0008181FF8799E1FF0808010101FF101010B5
:10090000FF08087E8181C3BD8181810808818181C2
:10091000E7BD81BDC308081C36ECDE5B3B77DC0B12
:100920000F0102050F010203010426081B0425051F
:10093000010102010101020D01010205110B01017A
:10094000020501010203010426011B010B041B0126
:100950000B011B042505010102010101020D01012A
:100960000205110701011301010113010101020137
:100970000101130101011301010102030104260811
:100980001B042505010102010101020501021306F4
:1009900001010205110A01010E0102010E0301010C
:1009A0000E01020101010E01010426011B010B04CD
:1009B0001B010B011B0425050101020101010201BC
:1009C00001010E0101010E010102130101010E04DA
:1009D00001010205110801010401010109010201DF
:1009E00009010101040101010901020101010901DB
:1009F000010426081B04250101010E0101010E015D
:100A000001010201000102010101090101010904C2
:100A1000010109010101040201010205110B00019C
:100A20002009000426011B010B041B010B011B0400
:100A30002501010109010101090101010210000163
:100A40001504110B00012009000426081B042515BC
:100A500000011A011504110B0A0103050A01030321
:100A6000000426011B010B041B010B011B042506BE
:100A70000001030C0A010301000119011504110B07
:100A80000F0102050F010203000426081B042506BE
:100A90000001020C0F01020200011504110B0F01ED
:100AA00002050F010203000426011B010B041B01B8
:100AB0000B011B042504000103010A01020C0F01B4
:100AC00002010A010305110B0101020501010203E4
:100AD000000426081B042504000120011B01020C50
:100AE0001B0102011B012005110B01010201010183
:100AF00013010101130101010203000426011B017E
:100B00000B041B010B011B042504000120011B0128
:100B100002011B0113011B0113041B0113011B0123
:100B200013011B0102011B012005110B0101020130
:100B30000E0301010E010203000426081B04250414
:100B4000000120010001020C1B010201000120052F
:100B5000110B010102010901010104010101090157
:100B60000203000426011B010B041B010B011B04E3
:100B7000250400012001000102011B0113011B01DA
:100B800013041B0113011B0113011B0102010001CE
:100B90002005110F00012005000426081B04250470
:100BA000000120010001020C1B01020100012005CF
:100BB000110F0001200500012A01290226011B0155
:100BC0000B041B010B011B01270125012701280430
:100BD00000012001000102011B0113011B0113018F
:100BE00024021B01240113011B0113011B0102013B
:100BF0000001200511110A01030500012A01290342
:100C00001B0204031B01270128060001200100012B
:100C100002051B0204051B01020100012005111140
:100C20000F010217000120100001200511030A0125
:100C3000030D0F01020300011A130001201000012F
:100C4000200511030C010204010103030A0103043E
:100C5000010102030001190500011A0D000120061F
:100C600000012402000124060001200511030C01EB
:100C70000204010102030C0102020101130101013E
:100C80000209000119011A0700011A0400010306F4
:100C90000A010302000103060A0103051103010111
:100CA00002040A0102030C0102040101020A00010C
:100CB000190600011A011904000102061B010202B3
:100CC000000102061B0102051103010102040101DA
:100CD00002011301010113010202010113010101CB
:100CE000021100011905000102061B0102020001A8
:100CF00002061B01020511030101020401010201A8
:100D000001012301010102040101022800011A0569
:100D100011050A010302000102011301040113017C
:100D200003100A01031B00011A01190511050C012A
:100D30000206000102100D01020103020A0103175D
:100D40000002190511050C010206000102100D0236
:100D5000020201010201030B0A0103040001030660
:100D60000A01030511050101020600010204130333
:100D70001B0413031B02130202020102020B0D01EA
:100D80000204000102060C01020511050101020620
:100D9000000102101B0102040001020B0D010201FF
:100DA00003020001030102060C0102051102010108
:100DB000050101010501020600010204130D1B04D7
:100DC0000001020B010202020002020601010205FB
:100DD00011020101070101010701020136010302AD
:100DE0000001030132023601320133120001020315
:100DF00001011302010113020101130101010204A7
:100E00000001020101011302010113010101020CA1
:100E100011012002000120041101370133110001EA
:100E200002010101040901010204000102020101A1
:100E300004030101020C1101030200010305110169
:100E40003001030D0A07000103140001150411020B
:100E5000360132013601320236010202000102017E
:100E600036013201330211013001020D0D0700017C
:100E700003140001150411060A01030600013002E3
:100E800011013401020D0D070001031400011504C6
:100E900011060C0102060001300211013401020D9D
:100EA0001B07000103140001150411060C010206C2
:100EB0000001340211013401020B1B01030A0A0173
:100EC000030400012D0D14051106010102060001A5
:100ED000340211013401020113031B0113031B012E
:100EE00013021B01020A0D01020400011512110177
:100EF0000104130101010206000130021101300159
:100F0000020B1B01020A0D0102040001150611016A
:100F10001404110114031101140211060101020647
:100F2000000103020A01030C0001020A010102048C
:100F3000000115061101140411011403110114021A
:100F400011050A010307000102020101020C000160
:100F5000020A0101020400012B03170311012004FE
:100F6000110120031101200211050C01020C0001E6
:100F700003070A0103020001020A0101020600013F
:100F80001A010001150217011F0417011F031701A1
:100F90001F0217050C010207000103020A010301E9
:100FA000000102070C0102020001020A010102060F
:100FB0000001190100012B012F012E041C01040363
:100FC0001C010B011C011E011D0501010201000194
:100FD00003030A01030100010202010102010001F1
:100FE000020701010204000103040A0103070A01C8
:100FF000030900011A0400011C011E011D02110257
:101000000102130101010201000102030C010201AE
:1010100000010202110102010001020105010101AA
:10102000050101010501010105010204000102049D
:101030000C0102070D01020600011A02000119014C
:101040001A0300011504110201021301010102013A
:1010500000010203010102013101350211013001D9
:10106000000102010701010107010101070101015E
:1010700007010204000102040C0102070D0102062F
:10108000000119011A020001190200011A011504D8
:1010900011050A0103010001020105010101050119
:1010A0000201300311013701320102010701010180
:1010B00007010101070101010701020133030001DA
:1010C00002040101020701010206000219050001E4
:1010D0001901150411050C010201000102010701AB
:1010E000010107010201350E110137013302000130
:1010F00002040101020213030102130102040001B0
:101100002D09140511050C0102010001341411010F
:10111000370133010001020401010203010104034C
:10112000010102040001150E110501010201000177
:101130003009110131013201360133081101341334
:101140000001150E1102010213010101020100014B
:10115000370136013307110130020001370133072F
:101160001101370136013303000103080A010304AA
:101170000001150B17031102010213010101020303
:1011800000013701320136013201360132013601E8
:1011900032013503000137013601320136013201D7
:1011A000330411013003000102080D0102040001A3
:1011B0002B012F012E051C0104011C011E011D0322
:1011C0001105010102060001210122010001220393
:1011D0000001220400012201000130041101340346
:1011E000000102080D01020E0001150411080A0198
:1011F0000303000121040001220121030001220355
:101200000001300411013003000102080101020E47
:101210000001150411080C01020400012202000162
:101220002207000121012201300411010303000102
:1012300002080101020400012D09140511080C0126
:101240000203000122030001220100012204000127
:1012500021020001370133031101200300010201C3
:1012600001010E0501010E01020400011507110123
:101270001A061108010102030001210400012103E3
:1012800000012201000122030001300311010303C8
:101290000001020101010902010104020101090129
:1012A000020400012B0617011A0119011A05110881
:1012B00001010202000121040001220300012101B9
:1012C0000001220400013403110120180003190158
:1012D00015041105010105010101050102050001C7
:1012E00031023601330700012201310135031101BA
:1012F00003010001030100010301000103010001DA
:1013000003010001030100010301000103010001C9
:10131000030B00011504110501010701010107017B
:101320000202360132013601320135021101370263
:101330003201360232013602320135041101020156
:10134000140102011401020114010201140102013D
:101350001401020114010201140102011401020B23
:1013600014FF11061108081866818142BC5A210831
:101370000818668181423CDB240808186681814296
:101380003D5A840808186681A542BC5A21080818ED
:101390006681A5423CDB240808186681A5423D5AB7
:1013A000840808186681A1423C5A1408081866810E
:1013B000A1423C5A240808186681A1423C5A2808D8
:1013C0000818668185423C5A2808081866818542BB
:1013D0003C5A24080818668185423C5A14080800C3
:1013E00000000000000000080822FF88FF22FF889C
:1013F000FF0808818181FF818181FF0808186681CB
:10140000FF8181DBFF0808FF818181C18181810823
:10141000083C7EFFFFFF85565208083C7EFFFFFF19
:1014200091564608085242424A4A4A4252080846E1
:10143000525252424A4A4A08083AFF98FF3AFF98E5
:10144000FF080800FFAA5500AA55FF08083C66FFE0
:10145000A5A5FF663C080822668899226688990837
:1014600008225488152254881508083AFFA4E72654
:10147000E798FF0808225588552255885508082204
:1014800055005522550055080800205C0000041A3C
:101490000008080001E200008043000808FF999955
:1014A000FF9999FFFF0808FF553614141414140807
:1014B000088090AC808084BA8008088084BA8080DC
:1014C00090AC800808021D0008740000FF08082086
:1014D0005C00040B0000FF0808FF8991A3C58991F7
:1014E000FF080800FFA199C5A399FF0808010101A1
:1014F000FF101010FF0808000000FF000000FF08A8
:101500000800030CF0C00000000808000000FF0104
:101510000E7080080814141414141414FF0808140E
:1015200014141414141414080800005866BABDE307
:10153000FF080800045A32663B6610080818DBC32F
:1015400008DEDE1C000808181818FFFF1818180815
:1015500008030C30D0131D31C10808C0300C0BC873
:10156000B88C830808030C30D0131C30C008080363
:101570000C30C0000000000808C0300C0BC8380C4C
:10158000030808C0300C030000000008088090AE7B
:101590008088B480FF080880849A8090AE80FF081D
:1015A00008FFD5B694949494940808000000FF8036
:1015B000700EFF080800C0300F030000FF0808107D
:1015C0000808100808040808080000182413100868
:1015D00010080800000C92610000000808000018C4
:1015E00024C204081008080810100804081008088D
:1015F0000810080408C4221C0008080000006996AE
:10160000000000080810202041221A04006C006825
:101610000000000000240027002A00000000002530
:101620000028002B0005008930080238024978683C
:1016300014000005003801680100000003070006DF
:101640001F000A0F000E0C00191500201D010210CA
:1016500002020C0302190402180502105241540040
:10166000000000005343414D5000000052554646D3
:1016700049414E0054485547000000004249472068
:1016800052415400504154524F4E0000424F554E6B
:1016900043455200534C41564552000053454120AA
:1016A0005241540053574142424945005341494C2D
:1016B0004F520000534B4950504552004341505443
:1016C00041494E0042414420524154005741544345
:1016D0004845520042525549534552004D555343D7
:1016E0004C455200444F43544F520000504154491E
:1016F000454E54005355424A454354004D555441BC
:101700004E5400004D41444D414E0000574F57206C
:1017100052415400534E4F4200000000524943488A
:101720004D414E004D4158205241540047554152C1
:1017300044000000474F4C454D0000004F464649CD
:10174000434552004C4541444552000043524142FA
:1017500000000000534841444F57000000020002BF
:10176000E3010007000400020B0202030005000071
:101770005B02000100070000860200010008010072
:10178000AD02000300090102CE02000F000B0102AE
:10179000DE020304000C04007C030201000D0403BC
:1017A000CE02000C000F0403F00303020010040338
:1017B0006404000100110403830401020012060006
:1017C000C404010200120700C4040102001306064B
:1017D000EC04001500130706EC04001500140606BF
:1017E000FB04000200140706FB04000200150606B5
:1017F0001405011500150706140501150016060647
:1018000047050002001607064705000200170606F6
:10181000600501150017070660050115001806068A
:10182000830500020018070683050002001A060659
:101830008F050002001A07068F050002001B0A0030
:10184000C0050101001B0B00C0050101001C0A0EB0
:10185000F705001D001C0B0EF705001D001D0A0EEC
:101860001C060002001D0B0E1C060002001E0A0EC4
:101870003A06001D001E0B0E3A06001D001F0A0E40
:1018800060060002001F0B0E6006000200210A0E17
:101890007706020100210B0E7706020100220A0ED4
:1018A000C606000200220B0EC606000200230A0E26
:1018B000EC06030500230B0EEC06030501000200F5
:1018C00071070006010102048E07011002000300E7
:1018D000AC07000C02010301D507000A0203030054
:1018E000E607000C030008000308000603010805D2
:1018F0002908000503030800490800060400090040
:1019000065080017040109017B0800180403090099
:101910008A08001705000500AE0801060501050349
:10192000CE02001005030500E20800060A180003B5
:1019300004050628380003030809283001050A08B1
:101940000939330202090A0B382A0204090A0B3644
:101950001F01040E0F103210030711121331100370
:1019600007111213370401061616160E040002178B
:1019700018171C10030F1A1B1C1D10030F1A1B1C19
:10198000594F552057494E00104C4F414400474194
:101990004D45204F564552001000534156450042D8
:1019A00041434B00504155534544001000515549A7
:1019B00054004C4F4144004E455700554E4445524B
:1019C0002054484520544F574552004D55444C41F2
:1019D000524B00534841444F5700004E5552534517
:1019E0000000004749524C00000000464154484561
:1019F00052000000000000000000004D414E0000B9
:101A00000000000A0A153A49676E6F7265006D564C
:101A10000A0A504C45415345205455524E204F46DA
:101A20004620004C4F5720424154544552592120E2
:101A30000003053F213F1208120A100A0E1C0E0C6B
:101A40001E0C141A14161F161E131E1E1B1E1E1FFC
:101A50001E3F213F3A2F3A173D173F213F181F02E3
:101A6000040A041F0E04040E1F0A1F0A0E0E1F0490
:101A7000110E2E252E2F2A2E262929021F02081F7D
:101A800008150E04040E150E15151B151B0406046F
:101A9000040C040000000017000300031F0A1F16B7
:101AA000371A1904130A153A000300000E11110E1B
:101AB000000A040A040E04003000040404001000AC
:101AC0001804031F111F121F101D151711151F07D2
:101AD000041F17151D1F151D01011F1F151F1715A9
:101AE0001F000A00003200040A110A0A0A110A043F
:101AF0000115020E11171E051E1F150A0E110A1FD1
:101B0000110E1F15111F05010E111D1F041F111F9E
:101B10001108100F1F041B1F10101F061F1E040F9B
:101B20000E110E1F09060E112E1F051A121509019E
:101B30001F011F101F0F180F1F0C1F1B041B031C5E
:101B400003191513001F11030418111F00020102CD
:101B50002020200001020C121E1F120C0C12120C6D
:101B6000121F0C1A14041E05242A1E1F021C141D09
:101B70001020201D1F0814111F101E041E1E021C01
:101B80000C120C3E0A040C123E1E040214160A0229
:101B90000F120E101E0E100E1E081E120C122628FA
:101BA0001E322A26041E21001F00211E04010201EC
:101BB0003F213FF6E8DBCFC3B8AEA49B928A827B7D
:101BC000746E68625C57524E4945413E3A37343133
:101BD0002E2C2927252321450068010000172B15ED
:101BE0002010204C4F4144455200172B162013144F
:101BF000000A4E6F2053442063617264206F720AA2
:101C00006E6F204C4F414445522E4845580A0A15E4
:101C10003A45786974001D20466C617368696E6787
:101C20000A20206C6F616465722E2E2E0A0A444FC2
:101C30004E2754205455524E204F46462100000056
:101C40000000230026002900040404040404040402
:101C50000202020202020303030303030102040857
:101C60001020408001020408102001020408102006
:101C7000000000080002010000030407000000004B
:101C800000000000283511241FBECFEFD8E0DEBFD2
:101C9000CDBF11E0A0E0B1E0E4E4F0E702C00590C0
:101CA0000D92AC34B107D9F725E0ACE4B1E001C046
:101CB0001D92AC35B207E1F71EE0C3E4DEE004C0DC
:101CC0002197FE010E941A38C234D107C9F70E9439
:101CD000502B0C9420380C94000090E0880F991F32
:101CE000E0910905F0910A05E80FF91F259134915B
:101CF00030931A0520931905F901859194919091DB
:101D0000FE04989F802D112480931B05F901659195
:101D10007491472F50E08417150629F020F0F9013F
:101D200025913491832F989F802D112480931C0539
:101D300008952F923F925F926F927F928F929F921F
:101D4000AF92BF92CF92DF92EF92FF920F931F93C9
:101D5000CF93DF93FA01C4913196E49184350CF06E
:101D600015C10C2E000CDD0B082F082E000C110BDA
:101D70009E01200F311F121613060CF007C16033AD
:101D80000CF004C1AE2FE62E062E000CFF086701F2
:101D9000CE0ED11CE7FDDA941C141D040CF0F6C025
:101DA0004E5F5F4F5E01F7E0AF0EB11CB7FE04C09F
:101DB0005E019EE0A90EB11CB3E0B594A794BA955C
:101DC000E1F767FF0AC0A62FAE0FAE9CB001AF9C33
:101DD000700D1124461B570B60E0EA2F0A2E000CF1
:101DE000FF0BE60FF11D67FDFA95F19714F0A0E3E4
:101DF000A61BF090430587FD80E02535310514F0E2
:101E000024E530E0922FC0912F05C627C82E082E5A
:101E1000000CDD08F601E01BF10B8F01E770FF27D6
:101E200020E830E002C035952795EA95E2F7322F99
:101E300017FF02C0095F1F4FF3E015950795FA954C
:101E4000E1F7400F511F762F777021E001C0220F7C
:101E50007A95EAF7659565956595F601B4E56B02A7
:101E6000E00DF11D1124BF016B527D4FD0E02A2EF1
:101E7000AA0F3308EE24E394BB24D21513040CF00C
:101E800085C0FA015490F1E0FF121AC0982E8B0120
:101E9000E32F6A01991608F057C08E2E852021F095
:101EA000D8018C90822A8C92E69531F4BFEFCB1A40
:101EB000DB0AF6015490E0E893940F5F1F4FEACFDE
:101EC000F1101CC0722E7094982E8B01E32F6A01C2
:101ED000991608F039C08E2E852021F0D8018C90FB
:101EE00087208C92E69531F4BFEFCB1ADB0AF6011E
:101EF0005490E0E893940F5F1F4FEACFF3E0FF1296
:101F00002CC0722E7094882E8B01932E6A01891634
:101F1000D0F4E92DE52141F0D801EC91682C6C2634
:101F200060FE0FC0E22BEC93969439F4BFEFCB1A0E
:101F3000DB0AF6015490E0E89E2E83940F5F1F4F5A
:101F4000E6CFE721F0CFCE25220F19F46C5A7F4F50
:101F500021E0DF5F4A0D5B1D90CF982E8B01E32FB0
:101F60006A01991688F78E2E852021F0D8018C9071
:101F700082268C92E69531F4BFEFCB1ADB0AF6018C
:101F80005490E0E893940F5F1F4FEBCFDF91CF9118
:101F90001F910F91FF90EF90DF90CF90BF90AF9087
:101FA0009F908F907F906F905F903F902F900895BB
:101FB0005EEF580F90E00196840F911DA62FB0E0C0
:101FC0001196252F30E082179307BCF04FEF460F94
:101FD00074E0220F331F7A95E1F72B523E4FE42F26
:101FE000F0E0AE17BF073CF0E20FF31F70817930CD
:101FF00031F04F5FF4CF5F5FE4CF81E0089580E080
:102000000895DC01ED91FC910190F081E02D09949F
:10201000EF92FF920F931F93CF93DF938C017B017D
:10202000D0E0C0E0F701EC0FFD1F6491662361F082
:10203000D801ED91FC910190F081E02DC801099546
:10204000892B11F02196EECFCE01DF91CF911F9118
:102050000F91FF90EF900895AF92BF92CF92DF92D1
:10206000EF92FF920F931F93CF93DF936C017B014D
:102070008B01040F151FEB015E01AE18BF08C017DE
:10208000D10759F06991D601ED91FC910190F08151
:10209000E02DC6010995892B79F7C501DF91CF9114
:1020A0001F910F91FF90EF90DF90CF90BF90AF9076
:1020B0000895833081F028F4813099F08230A9F0BE
:1020C00008958730A9F08830C9F08430B1F4809148
:1020D00080008F7D03C0809180008F778093800087
:1020E000089584B58F7784BD089584B58F7DFBCF27
:1020F0008091B0008F778093B00008958091B000F8
:102100008F7DF9CF1F93CF93DF93282F30E0F90114
:10211000E059F34E8491F901E45AF34ED491F90158
:10212000E85BF34EC491CC23A9F0162F81110E94D5
:102130005910EC2FF0E0EE0FFF1FE55EF94EA59170
:10214000B4918FB7F894EC91111108C0D095DE23AB
:10215000DC938FBFDF91CF911F910895DE2BF8CFD5
:10216000CF93C82FF89460E0809132050E948210CE
:102170008091330518161CF460E00E948210CEBDD9
:1021800000000DB407FEFDCF8EB580913305181603
:102190001CF461E00E9482107894CF9108950F930F
:1021A0001F93CF9380912F058F5F80932F0505EDAF
:1021B00012E0C0E08C2F80640E94B01080E80E9482
:1021C000B01061E0809132050E9482108091330549
:1021D00018161CF460E00E948210F80184E59191C9
:1021E0009EBD00000DB407FEFDCF9EB58150B9F72E
:1021F0008091330518161CF461E00E948210CF5FB5
:102200000C5A1F4FC630B1F680E4CF911F910F9149
:102210000C94B010CF93DF9390E0FC01E45AF34E9E
:102220002491885B934EFC0184918823C9F090E04F
:10223000880F991FFC01EF5EF94EA591B491FC0146
:10224000E55EF94EC591D49161110DC09FB7F89428
:102250008C91209582238C938881282328839FBF8B
:10226000DF91CF910895623051F49FB7F8943C917B
:10227000822F809583238C93E8812E2BEFCF8FB70D
:10228000F894EC912E2B2C938FBFEACFFF920F93F3
:102290001F93CF93DF93C5EDD4E0FF24FA9462E05F
:1022A0008A850E940A112A8530E0F901E059F34E2F
:1022B0008491F901E45AF34E0491F901E85BF34E7D
:1022C00014911123E1F081110E945910E12FF0E0E7
:1022D000EE0FFF1FE25CF34EA591B491EC9189895A
:1022E0000E2369F0811113C0219684E0CC3DD807FC
:1022F000B1F6DF91CF911F910F91FF9008958989D9
:102300008F5F898B60E08A850E940A11EDCF8F3F35
:1023100011F4198AF7CFF98AF5CF1F93CF93DF9382
:10232000182FEB0161E00E940A11209739F460E058
:10233000812FDF91CF911F910C948210CF3FD10557
:1023400011F461E0F5CFE12FF0E0E059F34EE491B4
:10235000E33031F140F4E130B1F0E230E1F0C03887
:10236000D1057CF7E4CFE73029F1E83059F1E430CA
:10237000B1F780918000806280938000D0938B00C1
:10238000C0938A0004C084B5806884BDC7BDDF9156
:10239000CF911F91089584B5806284BDC8BDF7CFE9
:1023A00080918000806880938000D0938900C093E2
:1023B0008800EDCF8091B00080688093B000C0931A
:1023C000B300E5CF8091B00080628093B000C093ED
:1023D000B400DDCF8E50806480937C0080917A00C1
:1023E000806480937A0080917A0086FDFCCF809192
:1023F00078009091790008958091F9048F7149F5E2
:1024000084E10E94EA11BC01990F880B990B0E948C
:10241000DD3626EE3FE34EEC50E40E9441370E9449
:10242000AC369B017093F0046093EF04672BB9F016
:1024300084E08093EE04E1EFF4E080E0419151917B
:102440002417350718F48093EE0408958F5F8430C5
:10245000A9F78091F9048F5F8093F90408958FEFB5
:102460008093EE04F6CF3FB7F89480917401909179
:102470007501A0917601B091770126B5A89B05C0A2
:102480002F3F19F00196A11DB11D3FBFBA2FA92FF3
:10249000982F8827BC01CD01620F711D811D911DF0
:1024A00042E0660F771F881F991F4A95D1F708955C
:1024B0008F929F92AF92BF92CF92DF92EF92FF9254
:1024C0004B015C010E9433126B017C010E943312AC
:1024D0006C197D098E099F09683E7340810591053D
:1024E000A8F321E0821A9108A108B10888EEC80E6D
:1024F00083E0D81EE11CF11C81149104A104B104F5
:1025000029F7FF90EF90DF90CF90BF90AF909F9012
:102510008F900895FC01178A158A14A213A2108EB9
:102520001092CC011092CD011092D0011092B40003
:1025300008950F931F93CF93DF93EC018B010E94BB
:102540008A121E870D871B8A1A8A81E0898389E097
:102550008E8B198E1B8E1D8EDF91CF911F910F9147
:102560000895E09103058E2F90E0880F991FE09168
:102570000105F0910205E80FF91F859194918F3FB5
:10258000980719F41092FA04089590930605992774
:10259000880F991FE0910405F0910505E80FF91FD8
:1025A000659174918AEF94E00E94991280910305DD
:1025B0008F5F809303050895DC01643570F5403327
:1025C00060F590968C919097E62F062E000CFF0BED
:1025D000242F25952595259594E52902E00DF11DDB
:1025E0001124EB52FD4F2081342F37708230B1F42B
:1025F000822F90E0032E02C0959587950A94E2F70A
:1026000080958170811114C081E090E001C0880F35
:102610003A95EAF78095822380830895833091F775
:102620001C968C9181706427609561708613ECCF45
:1026300081E090E001C0880F3A95EAF7822BECCF59
:10264000AF92BF92CF92DF92EF92FF920F931F93C0
:10265000CF93DF93182F062FC0E0D3E08AEFD82E58
:102660009EEFE92E842F8470C82E842F8270B82E9E
:10267000842F8870A82E4170F42ECF5F8C2F880F86
:102680008F5FE80ECC2081F0402F4D0F612F6C0F33
:1026900083E295E00E94DC12402F4C0F6D2F610FFA
:1026A00083E295E00E94DC12BB2081F0402F4D1B9D
:1026B000612F6C0F83E295E00E94DC12402F4C1BCF
:1026C0006D2F610F83E295E00E94DC12AA2081F059
:1026D000402F4C0F612F6D1B83E295E00E94DC12AE
:1026E000402F4D0F612F6C1B83E295E00E94DC129E
:1026F000FF2081F0402F4C1B612F6D1B83E295E082
:102700000E94DC12402F4D1B612F6C1B83E295E071
:102710000E94DC12CD173CF4E7FCAFCFD150D3942C
:10272000D394ED0CAACFDF91CF911F910F91FF9021
:10273000EF90DF90CF90BF90AF900895EF92FF920F
:102740000F931F93CF93DF938C01F62ED42FE22E9D
:10275000C0E0CE1544F46F2D6C0F4D2FC8010E94C0
:10276000DC12CF5FF6CFDF91CF911F910F91FF90D9
:10277000EF9008952F923F924F925F926F927F92C7
:102780008F929F92AF92BF92CF92DF92EF92FF9281
:102790000F931F93CF93DF9300D000D0CDB7DEB758
:1027A0009C838B836A3099F4DC0118962C911897DE
:1027B00015969C9115971A968C911A97299F800DC2
:1027C00011241A968C931A9719961C92F0C06D30AA
:1027D00009F4EDC0EB81FC815184F3E5F5150CF4AF
:1027E000C3C0AB81BC811A96FC90BFE2BF150CF44C
:1027F000BBC0EB81FC81108524812150330B129FDB
:10280000C001139F900D1124850D911D57FC9A95C1
:10281000181619060CF0A8C025818F2D0F2C000C5E
:10282000990B129F800D911D1124181619060CF09A
:102830009BC0F0A1F983752C612C262E312CA12E82
:10284000012E000CBB08E62D062C000CFF0BAB8103
:10285000BC8114968C91149790E0E817F9070CF05E
:102860007EC00197E817F907A1F1289E6001299E13
:10287000D00C389ED00C1124CE0EDF1E5E96ED914A
:10288000FC91EC0DFD1DE4910F2DE12CB62DB50D45
:10289000BA83AB81BC8115962C9115978E2D0E2C89
:1028A000000C990B2817190609F00CF455C0CE2E10
:1028B000D12CE0FF26C0113071F44E2D4F0D6A81EE
:1028C000CD010E94DC12F601F595E795E394010F26
:1028D000E0CFE0E0D9CF402E4501800E911C07FDEE
:1028E0009A94842D042C000C990B881599055CF79B
:1028F000212F442D672D8B819C810E949E13439430
:10290000F0CFEB81FC8181A190A18917E1F280A336
:10291000113061F44E2D4F0D6A81CF010E94DC12FF
:10292000E981AB81BC819096EC93CDCF402E4501DF
:10293000800E911C07FD9A94842D042C000C990B99
:10294000881599056CF7212F442D672D8B819C816B
:102950000E949E134394F0CF6394710E74CFE9816B
:10296000AB81BC819096EC93AB81BC8118962C9185
:10297000189714963C91149719968C911997239F48
:10298000800D112419968C93199717969C9117977F
:10299000992369F0082E000C990B44E550E0239F21
:1029A000401951091124481759070CF401CF81E04F
:1029B00090E00F900F900F900F90DF91CF911F91AB
:1029C0000F91FF90EF90DF90CF90BF90AF909F90CE
:1029D0008F907F906F905F904F903F902F900895D1
:1029E000EF92FF920F931F93CF93DF938C01D62F1B
:1029F000F42EE22EC0E0CE1544F44F2D4C0F6D2F77
:102A0000C8010E94DC12CF5FF6CFDF91CF911F91FA
:102A10000F91FF90EF9008950F931F93CF93DF9343
:102A2000182FD62FC42F022F242F462F682F83E272
:102A300095E00E949E134FEF400F4D0F2C2F612FFA
:102A400083E295E00E949E13202F4D2F612F83E299
:102A500095E00E94F0146FEF6C0F610F202F4D2F47
:102A600083E295E0DF91CF911F910F910C94F014C8
:102A70008F929F92AF92BF92CF92DF92EF92FF928E
:102A80000F931F93CF93DF93082FB62E942EA22E71
:102A900083E0F82ED0E0C3E09AEFE92E1EEFCC24BD
:102AA000C394C20EDF5F1F0D2C2F220F4B2D4C1B2A
:102AB0008A2C8F0CDB2CDD1A81E02C0D602F9812F4
:102AC00018C06D0F83E295E00E94F014282D4D2D63
:102AD0006C2F600F83E295E00E94F014DC179CF4E9
:102AE00017FD04C0C150E394E3941E0DF394F394D6
:102AF000D9CF6D1B83E295E00E94F014282D4D2D57
:102B0000602F6C1BE7CFDF91CF911F910F91FF904A
:102B1000EF90DF90CF90BF90AF909F908F900895EF
:102B2000BC0180917001909171016817790740F4A0
:102B300010926F0110926E0110927101109270014B
:102B400020916E0130916F0140917001509171019F
:102B50002C358AE03807E0F4F901E05EF64F849105
:102B6000F901E15EF64FE491E40FF52FF11DD90173
:102B700012966E177F0748F430936F0120936E0111
:102B8000509371014093700108959D01AF01E0CF12
:102B9000509371014093700130936F0120936E0147
:102BA00008953F924F925F926F927F928F929F9281
:102BB000AF92BF92CF92DF92EF92FF920F931F934B
:102BC000CF93DF932091240130912501C90163E067
:102BD000969587956A95E1F7882E7CEF772E780E8B
:102BE000D0E07C0144E0E40EF11C84EFA82EA21A90
:102BF000E6EF6E2EFAE09F2E072D0D0F002E000C33
:102C0000110BE016F10608F45AC02091260130910C
:102C10002701C90133E0969587953A95E1F7582E3B
:102C20004AEF442E480E56E0000F111F5A95E1F767
:102C3000C82DCD0FCC0FCC0FCC0FCA0DB12C6C0111
:102C400046E0C40ED11C362C321A842D8B0D082E72
:102C5000000C990BC816D90680F1800F911F0E94B5
:102C60009015482F282F30E0852D8B0D880F880F69
:102C7000880F830D413129F0B0F4453011F0473011
:102C8000C1F49091CA019430A0F02F5F3F4F929E03
:102C9000A001939E500D112443525C4E6C2F0E9454
:102CA000990EB394D2CF473161F34B3251F3453192
:102CB00041F3499DA0011124EFCFDF5F9DCF8091AB
:102CC000220123E0829FC00111242091C50122230B
:102CD00031F12091CB01322F3B7F323000F5269528
:102CE000820F911D2AE0289FA001299F500D1124D9
:102CF0004B595C4E64E186E2DF91CF911F910F91B9
:102D0000FF90EF90DF90CF90BF90AF909F908F900B
:102D10007F906F905F904F903F900C94990E01962A
:102D2000E1CF873089F1883009F441C0863009F05D
:102D30003DC084E08093C90188EE8093C80181E0A2
:102D4000809329058091C40127E0829FC00111244E
:102D5000FC01E45DF64EE49128E0E29FF0011124CD
:102D6000F0932701E0932601835D964EFC01849148
:102D700090E0019623E0880F991F2A95E1F7909340
:102D800025018093240108958091C201809323013D
:102D90008F5F8093C2011092C30186E08093C901C6
:102DA00088EE8093C80181E0809329050895809181
:102DB000C201809323018150ECCFBF92CF92DF926A
:102DC000EF92FF920F931F93CF93DF93C5EDD1E066
:102DD000F12C84E1D82E96E2C92E2AE0E22E37E0CB
:102DE000B32E10E000E0FE01E00FF11F9081992367
:102DF00061F1292F30E0809124016D2D681B6F0D4A
:102E0000809126014C2D481B802F880F880F880F3A
:102E1000840F963008F04CC0E091C401EB9DF001A6
:102E20001124E25DF64E94912250310944E0949FC2
:102E3000F0011124E20FF31FEE9EA001EF9E500D52
:102E400011244158574F0E94990E0F5F1F4F0031B8
:102E5000110549F6609688E0F80E20E8F212C1CF1D
:102E60008091220143E0849FC00111242091C5017B
:102E7000222341F12091CB01322F3B7F323010F5DC
:102E80002695820F911D2AE0289FA001299F500DB1
:102E900011244B595C4E64E186E2DF91CF911F9182
:102EA0000F91FF90EF90DF90CF90BF900C94990E10
:102EB00026503109E29EA001E39E500D1124495A8B
:102EC000574FC1CF0196DFCFCF93BC0190916801DE
:102ED00020916B014091690150916A0130E0C3E09B
:102EE000FA01EE57FC4F84919C9FF001112482233C
:102EF000B9F4EC51FD4F94919C9FF0011124ED51D8
:102F0000FD4FE491EF3F31F06115710561F06150C3
:102F1000710990E0269521F74F5F5F4F20E8E0CFE1
:102F2000EB51FD4FE8CFA32FB0E0A658BE4FEC9376
:102F3000EE2311F03F5FEDCF50936A01409369019A
:102F400020936B0190936801CF910895CF93DF9305
:102F5000EAE0F1E0C5E5D1E022E631E0D901808187
:102F6000882331F083819581980F8C91890F8C9300
:102F700088818F3F41F013968C9113979981890F27
:102F800013968C93139738962496119681E0E2322B
:102F9000F80729F7E0E080E0D9014D919D01AE2FBF
:102FA000B0E0AE59BE4F9C9194170CF4E82F8F5FA0
:102FB000863091F7E23019F48FEF80930101E093AE
:102FC000020110925401E093C601F0E0EE59FE4F69
:102FD0001082DF91CF9108951F93E091540188E012
:102FE000E89FF0011124E65FFE4F84819091530128
:102FF000890F84839081492F50E09A01220F331F5B
:1030000082171306ECF0292F220F821B8483BA014A
:103010006F5F7F4F84E1869F9001879F300D112461
:103020001CEE1403B001159F700D1124260F371FDD
:1030300041815281240F351F328321839F5F90830A
:103040008FEF809302018091C7018093C9011F9186
:10305000089528E0829FC0011124A42FB0E0A65853
:10306000BE4F30E020E0680F791F822FFB01E20F96
:10307000F31FE491EE2339F0ED932F5F3F4F28309B
:10308000310599F70895840F0895EF92FF920F93F9
:103090001F93CF93DF93F82ED62F8A01C22F2223BE
:1030A00049F08CEF820F833028F088EF820F823056
:1030B00008F069C040E06BEC79E18F2D0E9429187F
:1030C000482FC43009F08DC06CE371E083E00E94AA
:1030D0002918C1115BC1482F6CE576E18D2F0E9444
:1030E0002918482F6CE371E081E00E942918E82F2D
:1030F000282F30E026583E4FC80164E670E00E9459
:10310000F237605DD9016C9321E02E0F30E0265834
:103110003E4F6AE070E00E94F237605DD9016C9327
:1031200043E04E0FEE5FF0E0E658FE4F805D808397
:103130006CE371E082E00E942918C13009F035C1CA
:10314000D13009F032C190916101992309F42DC168
:1031500010926101E82FF0E0E658FE4F9AE090836C
:1031600042E0480FE1E0E80FF0E0E658FE4F80E271
:1031700080836BEC79E181E00E942918482F6CE391
:1031800071E089E058C040E0213029F1273009F092
:1031900043C06CE371E08CE00E94291841E0480FC5
:1031A000E82FF0E0E658FE4F80E2E82EE0826BEC7C
:1031B00079E18D2F0E942918E82FF0E0E658FE4FA4
:1031C0009AE0908342E0480F8F5FE82FF0E0E658E6
:1031D000FE4FE082D2E06CE576E18F2D0E94291847
:1031E000482FCA3009F470CF6CE371E088E0C53035
:1031F00011F16CE371E08DE0C83031F0C93009F0B5
:1032000075C06CE371E08EE00E94291898EF9C0F66
:10321000923008F066CFC9C06CE576E1223021F02B
:103220002B3061F46BEC79E18F2D0E942918482F27
:103230006CE371E084E00E942918B7C0233009F0E4
:103240004BC06CE371E085E00E942918E82FA82F9D
:10325000B0E0A658BE4F8AE08C93A1E0AE0FB0E07C
:10326000A658BE4F80E28C93C2E0CE0FD0E0C65885
:10327000DE4FC80164E670E00E94F237605D68834B
:10328000C3E0CE0FD0E0C658DE4F6AE070E00E9487
:10329000F237605D688345E04E0FEC5FF0E0E65882
:1032A000FE4F805D80836CE371E086E00E94291808
:1032B00090911201911105C090911A01992309F47E
:1032C00074C0482F6CE371E08AE00E942918482FEF
:1032D0006CE371E08BE0AFCF2A3009F053C06CE3B0
:1032E00071E08FE00E942918482FEECEC63009F019
:1032F00049C06CE371E089E00E94291841E0480F61
:10330000E82FF0E0E658FE4FC0E2C08362E071E0D3
:10331000802F0E942918F801EC5FFE4F90819930B0
:1033200008F443C0E82FF0E0E658FE4FDAE0D0831F
:1033300042E0480FE1E0E80FF0E0E658FE4FC083BE
:103340006CE371E080E10E942918E82FF0E0E65874
:10335000FE4FD08342E0480F8F5FE82FF0E0E65841
:10336000FE4FC0836BEC79E180E00E942918482F62
:103370006CE371E081E10E942918482F62E071E05E
:10338000802F59CF6CE371E080E0A1CEC13011F005
:10339000C73031F4482F6BEC79E18D2F0E9429184A
:1033A0009BEF9C0F923008F031CFE82FF0E0E65809
:1033B000FE4F1082DF91CF911F910F91FF90EF9000
:1033C000089528E0829FC0011124AAEBB1E030E00B
:1033D00020E0680F791FFB01E20FF31FE491ED93EA
:1033E0002F5F3F4F27303105B1F70895CF93DF931B
:1033F000EC01842F9091C9019093C701D0936D0186
:10340000C0936C0160937901B9010E94E11980E8D1
:1034100080936B0110926A01109269011092680109
:10342000CE010E94641783E08093C901DF91CF91A0
:1034300008959091C701911143C0209124013091CA
:103440002501220F232F221F330B31959CE0929FE1
:10345000F001939FF00D1124209126013091270156
:10346000220F232F221F330B3195A901440F551F23
:10347000240F351FE20FF31FE80FF11DEE52FF4F2F
:10348000949143E0949F900111242E583F4FF901ED
:103490008491F4E06F9FD0011124AB5ABE4F8C93FE
:1034A000F9013196E4911196EC9311972E5F3F4FFD
:1034B000F901249112962C93129713969C930895D8
:1034C000923089F4E091C40197E0E99FF001112462
:1034D0003496E80FF11DE45DF64E9491E3E09E9F73
:1034E00090011124D2CF81E080934C01F3E09F9FA3
:1034F000900111242E583F4F82E08093C701C7CF1F
:103500000F931F93CF93DF93C0E009E110E0D4E560
:103510008091C8014C2F50E0282F082E000C330B4F
:1035200037FF03C0319521953109B801621B730B38
:103530004617570704F520E340E06C2F83E295E03F
:103540000E94F0146D2F6C1B20E340E083E295E0B5
:103550000E94F01424E54C2F60E083E295E00E9485
:103560009E1340E34C1B24E560E083E295E00E945B
:103570009E13CF5FCDCF8C5F8093C80187FD09C0BC
:103580001092290589312CF08091C90184508093D3
:10359000C901DF91CF911F910F910895089590E097
:1035A00080E008952F923F924F925F926F927F92A8
:1035B0008F929F92AF92BF92CF92DF92EF92FF9243
:1035C0000F931F93CF93DF93CDB7DEB762970FB6FC
:1035D000F894DEBF0FBECDBF4C017A8769875C8748
:1035E0004B873A8B298B5801FC82EB82DE82CD829D
:1035F000C60124E0880F991F2A95E1F79401280F4E
:10360000391F38872F83A701425051095E874D87A4
:10361000C6010397988B8F872B803C80E989FA89B4
:103620002E1A3F0A4D805E804A185B08F6E02F167E
:103630003104ECF428E0421651046CF562960FB6A2
:10364000F894DEBF0FBECDBFDF91CF911F910F91D8
:10365000FF90EF90DF90CF90BF90AF909F908F90B2
:103660007F906F905F904F903F902F900895C10191
:103670000897049768F4C2010A97049748F40E94D7
:103680007F3564E670E00E9406388A359105B4F211
:103690002414350484F5A50104E0440F551F0A9550
:1036A000E1F7A989BA89A40FB51F8B819C81480FC6
:1036B000591FB50130E020E090E080E0ED81FE810F
:1036C0006E177F070CF0ADC0FD01E20FF31FE80D90
:1036D000F91DE081E11101C00196FA01E20FF31F2B
:1036E000E80DF91DE081E11101C001966F5F7F4F88
:1036F000205F3F4FE3CF750114E0EE0CFF1C1A95DD
:10370000E1F7E80CF91CEF81F88529893A89E20F85
:10371000F31FD901AE0DBF1D90E080E09F014F81E6
:103720005885241B350B4B815C81241735074CF4DD
:103730002D91211101C0019621912111EFCF019608
:10374000EDCF0596821593050CF078CF09891A897B
:103750000E5F1F4F0E947F35B1010E9406386988B5
:103760007A88680E791E9FEF6916790699F3061517
:10377000170584F78D859E85681679065CF7F70135
:10378000E60DF71D8081882329F3EF81F885E60D8A
:10379000F71D80818823F1F27501AFEFEA1AFA0A6A
:1037A0000E947F356201E3E0CE1AD108B6010E9483
:1037B00006388C010E0D1F1D8FEF9FEFFAE04F169C
:1037C00051043CF00E947F35B6010E9406388E0DF0
:1037D0009F1D9501A8014F5F5F4FBC016F5F7F4F39
:1037E000ED81FE812E173F070CF098C0201731079E
:1037F000A9F04217530791F02817390779F062179B
:10380000730761F0F901A4E0EE0FFF1FAA95E1F73D
:10381000E60DF71DE80DF91DA9E0A0832F5F3F4FCE
:10382000DFCF0796841595050CF008CF7501F3E0FE
:10383000EF0EF11C0E947F35B2010E940638FC0198
:10384000EA0DFB1DFA83E9833196A1F329813A81C0
:10385000E216F3067CF74F8558892417350754F78D
:103860008901B4E0000F111FBA95E1F7080D191D89
:10387000E989FA89E00FF11F80818823D9F2EB8171
:10388000FC81E00FF11F80818823A1F2E988FA888A
:103890003FEFE31AF30A0E947F35610141E0C41A49
:1038A000D108B6010E9406383C016E0C7F1C8FEFD8
:1038B0009FEF5AE0251631043CF00E947F35B60197
:1038C0000E9406388E0D9F1D29893A89EB81FC8163
:1038D0002E173F0774F42615370541F028173907CE
:1038E00029F0F801E20FF31F49E040832F5F3F4FBB
:1038F000EDCFC980DA80EB80FC80850129893A8987
:103900004B855C8569857A85C4010E94D21A6988D5
:103910007A88A980BA807A8A698A7ECECD80DE8054
:103920007301850129893A894B855C8569857A858A
:10393000C4010E94D21ABA82A982EBCFFB01019086
:103940000020E9F73197AF01461B570BDC01ED91E1
:10395000FC910280F381E02D09948F929F92AF92A7
:10396000BF92EF92FF920F931F93CF93DF93CDB748
:10397000DEB7A1970FB6F894DEBF0FBECDBF7C01B6
:10398000FA01CB0119A2223008F42AE08E010F5D62
:103990001F4F822E912CB12CA12CBF01A5019401A7
:1039A0000E947B36F901CA016A300CF5605DD801CE
:1039B0006E938D01232B242B252B79F790E080E04B
:1039C000109721F0BD01C7010E949E1CA1960FB661
:1039D000F894DEBF0FBECDBFDF91CF911F910F9145
:1039E000FF90EF90BF90AF909F908F900895695C8B
:1039F000DECFCF92DF92EF92FF920F931F93CF9380
:103A0000DF936B01770FEE08FF08F7FE1BC0EC0198
:103A10006DE20E9401108C0144275527BA014C1910
:103A20005D096E097F092AE0CE010E94AD1C800F5E
:103A3000911FDF91CF911F910F91FF90EF90DF9039
:103A4000CF9008952AE0B701A601DF91CF911F9191
:103A50000F91FF90EF90DF90CF900C94AD1CE8E2B7
:103A6000F1E08EE291E030E020E04191240F311D41
:103A700047FD3A958E179F07C1F744E6429FC00164
:103A8000439F900D11244B9622E220932C052AE2AD
:103A900020932D0567E370E00E94F237AB0170E0E0
:103AA00060E02AE083E295E00E94AD1C60E770E0F0
:103AB00083E295E00C9408100F931F93CF93DF934C
:103AC000EC010E9408108C0162E471E0CE010E94BA
:103AD0009E1C800F911FDF91CF911F910F91089530
:103AE000E5EDF2E088EF91E0DF019C011D922150AD
:103AF0003040E1F710922C0510922D0566E17CE133
:103B000083E295E00E9408100E94CF108CB583607C
:103B10008CBD8DB58E7F8DBD85E491E0EEEFFFE32A
:103B200009951092290561EF7BE183E295E00E94FF
:103B30005C1D0E94CF100E9446118091EA048130E2
:103B400039F062E370E080E090E00E945812F3CF19
:103B500008954F925F926F927F928F929F92AF9251
:103B6000BF92CF92DF92EF92FF920F931F93CF936A
:103B7000DF9300D000D01F92CDB7DEB7409155053E
:103B80005091560560915705709158052FB7F894DC
:103B90008091D1019091D201A091D301B091D40133
:103BA0002FBF481B590B6A0B7B0B8091540590E08B
:103BB000B0E0A0E000915005109151052091520510
:103BC0003091530584179507A607B70708F0CEC0B4
:103BD000011511052105310509F4C8C02FB7F89466
:103BE0008091D1019091D201A091D301B091D401E3
:103BF0002FBF20915405820F911DA11DB11D8093EF
:103C0000550590935605A0935705B093580580919C
:103C1000460590914705A0914805B0914905019648
:103C2000A11DB11D8093460590934705A0934805BB
:103C3000B09349051092500510925105109252050B
:103C4000109253050E94331260934C0570934D05FA
:103C500080934E0590934F058091D6049091D704A0
:103C60002FE0289FA001299F500D11245A834983DA
:103C700085E10E94EA11A981BA818A0F9B1FB4E0F5
:103C800096958795BA95E1F79093D7048093D604DB
:103C90002091D504222309F448C06091D904262F2D
:103CA00030E050E040E029833A834B835C83C0904E
:103CB000DA04D12CF12CE12C4091DD045091DE048A
:103CC0004A01B12CA12C2091DB043091DC042901A4
:103CD000712C612C8217930728F09C014817590713
:103CE00008F49A0150E040E02419350946095709C3
:103CF00069817A818B819C816C197D098E099F096C
:103D00000E94D637A501940124193509460957099F
:103D10000E944936C20ED31EE41EF51EC092D8047E
:103D20006C2D70E085E00E948D110E9446118091FB
:103D3000F1049091F204892B11F00E94FC1181E0B2
:103D40000F900F900F900F900F90DF91CF911F91D8
:103D50000F91FF90EF90DF90CF90BF90AF909F902A
:103D60008F907F906F905F904F900895012B022B62
:103D7000032B09F0DDC28091EC0481508E3F28F5C1
:103D80008091EB04813009F58091FF048F5F609191
:103D9000000587FD09C0082E000C990B70E06F5FCD
:103DA0007F4F0E940638682F6093FF048AEE9BE1E4
:103DB00090935A058093590588E480935B0567EDDD
:103DC0007BE18AEF94E00E9499128091EC0481508B
:103DD0008E3F70F48091EA04813009F034C38DED98
:103DE0009BE190935A058093590588E480935B0585
:103DF0008091FA04882331F08091FB04811102C084
:103E00000E94B1128091FB04882309F43EC0809186
:103E10000F0581113AC08091070590910805E09146
:103E20000C05F0910D05EE0FFF1FE80FF91F25910E
:103E300034912115310509F4BDC0A9015695479566
:103E400056954795842F20FD60C08F7380930E0593
:103E50008091FE04839F802D112480930F05109282
:103E60001F0510921E0510921D0581E0809311051B
:103E70008093D0011092120580910C0590910D0550
:103E8000019690930D0580930C0580911105882370
:103E900041F080910F058111A9C08AEF94E00E9442
:103EA0008A1280915B05882309F4F9C18C3008F0EF
:103EB00087C13CE0381B398381E080932B05109249
:103EC000430510924405409128054D8393E0E92E67
:103ED000E40E1981141B0DE2010F0E2C000CFF08DB
:103EE000E00EF11C07FDFA94802F002E000C990BB8
:103EF0008E159F050CF066C12EE4402F63E083E22F
:103F000095E00E949E130F5FEFCFC901E6E0969502
:103F10008795EA95E1F78F71932F969596959695EB
:103F200090514F70423099F1D0F4442309F43CC0D1
:103F30004130B9F1E0910C05F0910D053196F09307
:103F40000D05E0930C05CF01880F991FE09107053F
:103F5000F0910805E80FF91F259134916ECF433099
:103F600061F0443039F72091FE04289F802D112400
:103F70008093170590931805DDCF2091FE04289FAC
:103F8000802D11248093150590931605D3CF209191
:103F9000FE04289F802D112480931305909314050F
:103FA000C9CF0E946D0EC6CF8B3008F08AE0809397
:103FB0001005C0CF20910B05211112C01092FB04F7
:103FC0008091FA04811105C08AEF94E00E948A1260
:103FD0005CCF0E94B11280910C0590910D05B4CF79
:103FE00010920D0510920C05FC01B6CF8150809304
:103FF0000F0580911F05811142C020911D05309150
:104000001E052F5F3F4FC901880F991FE0911905C9
:10401000F0911A05E80FF91F85919491482F477088
:1040200040932005492F4695469540932105AC01C4
:1040300064E0569547956A95E1F74F739091FE04B9
:10404000499F402D112440931F0583FB882780F949
:104050008093CF0130931E0520931D0580911B0591
:1040600090E02817390758F020911C05222309F405
:104070009FC0821B910990931E0580931D0580911E
:104080001F05815080931F058091120531E0380F84
:104090003093120540910E0520912105240F809147
:1040A0000605280F2093FC0460911505662371F026
:1040B00070E0832F032E000C990B0E94063880912C
:1040C0001605869F200D11242093FC048091FC048A
:1040D00090E0849664E270E00E9406388093FC04CD
:1040E000209110052093FD0460911305662381F053
:1040F000062E000C770B832F032E000C990B0E94C9
:10410000063880911405869F200D11242093FD040C
:10411000609117056623A1F0832F330F990B70E090
:104120000E940638CB0162E070E00E9406382091C0
:1041300018059091FD04289F900D11249093FD0483
:104140004F3309F43AC08091FD048A300CF089E0C5
:1041500087FD80E08093FD04F894E091FC04F0E09A
:10416000ED54F44EE491E093CE012091220530917C
:10417000FD04320390011124409120054203C00147
:10418000439F900D11242091FF0402C0880F991FB6
:104190002A95E2F797FF02C081589F4F880F892F19
:1041A000881F990B8093CD018093CC01789479CEB0
:1041B0008AEF94E00E948A1262CF1092FD04CCCF65
:1041C00019827ACE5D8154505D83105D252F41E0C8
:1041D000612F80E50E9438152D8142E0612F83E038
:1041E0000E94381581E08093430580934405009137
:1041F00028051981101B8DE2F82EF10E2EE44F2DAB
:1042000063E083E295E00E949E1383E0800F8F0DB0
:104210008D83482F41502EE463E083E295E00E94B5
:104220009E130350105D202F412F60E083E295E044
:104230000E94F014202F412F63E583E295E00E9455
:10424000F01441E0612F83E00E94201342E0612FCF
:1042500080E50E9420139D8194509D8344E0692F46
:1042600080E50E94201348E06D8183E00E942013C6
:1042700084E080932C0580912805A981A81BA15D6D
:10428000A0932D056091590570915A0583E295E040
:104290000E94081080915B05815080935B0580919E
:1042A000F1049091F204892BD9F0B1E0B093430569
:1042B000109244059091270585E5891B80932C0574
:1042C00010922D056091EE04613009F4A0C090F1C8
:1042D0008091ED04653008F0B1C06B5F8111A9C019
:1042E0000E94CF108091290581110EC0E5EDF2E00A
:1042F00088EF91E0DF019C011D9221503040E1F7F1
:1043000010922C0510922D050E94331260935005D7
:1043100070935105809352059093530520914C055D
:1043200030914D05621B730B70934B0560934A05EA
:1043300080E006CD8AEF94E00E948A121092FB047E
:1043400021E020932B05E1E3FAE1E491EF5FE093B4
:104350002705E2E3FAE1E491EF5FE093280583E3C8
:104360009AE190934205809341051092F2041092D5
:10437000F1041092290538EA39830E94A91D882387
:10438000E1F363E27AE183E295E00E940810409154
:10439000EF045091F00470E060E02AE083E295E0E1
:1043A0000E94AD1C6EE07AE183E295E00E94081065
:1043B000698162956F7070E083E295E00E94F91C5C
:1043C00063E07AE183E295E00E9408108091EA04BC
:1043D000813009F485CF4981415049834111CDCFC6
:1043E00070E060E085E00E948D1183B7817F84607A
:1043F00083BF83B7816083BF83B7816083BF8895A4
:1044000083B78E7F83BF83B78E7F83BFB6CF809104
:10441000460590914705A0914805B09149058F70D8
:104420009927AA27BB2767E00897A105B10508F0DF
:1044300068E783E295E00E94011052CF882309F4D7
:104440004FCF6FE2F6CF893209F0D2CC0E94701DB7
:10445000CFCC1F93CF93DF93EC01162F0E943336FE
:10446000181739F0612FCE01DF91CF911F910C9475
:104470003B36DF91CF911F9108950C9433360F9303
:104480001F93CF93DF9390E080E00E943D2284351C
:1044900009F058C008E211E0C1E0D0E0CE010E946E
:1044A0003D22F80181938F012196C730D105B1F7E4
:1044B0000AE011E0C8E0D0E0CE0101970E943D2261
:1044C000F8018083CE010E943D22F8018183CE0154
:1044D00001960E943D22F8018283CE0102960E943D
:1044E0003D22F8018483085F1F4F2496C431D10513
:1044F00019F704E011E0C3E1D0E0CE010E943D22B3
:10450000F80181938F012196C931D105B1F789E175
:1045100090E00E943D22F8E08F9FC001112490930B
:104520002701809326018AE190E00E943D2228E045
:10453000829FC0011124909325018093240184E07F
:104540008093C901DF91CF911F910F9108953F9200
:104550004F925F926F927F928F929F92AF92BF9293
:10456000CF92DF92EF92FF920F931F93CF93DF933F
:1045700000D01F92CDB7DEB72091020129832F3FD3
:1045800009F087C01092530110924C010E94DB3554
:1045900033E0C32ED12CE12CF12CA70196010E940F
:1045A0004936862F61E00E94191A80915901909135
:1045B0005301980F909353013AE08302C0011124F4
:1045C0009093500180934F010E94DB3522E030E050
:1045D00040E050E00E944936672B682B692B09F0B8
:1045E000FBC00E94DB35A70196010E944936862F49
:1045F00060E00E94191A8091550190915301980F23
:10460000909353014AE08402C001112490934E011B
:1046100080934D010E94DB3522E030E040E050E025
:104620000E944936672B682B692B09F0D9C00E947C
:10463000DB3523E030E040E050E00E944936862F31
:1046400062E00E94191A80915D0190915301980FC8
:10465000909353016AE08602C001112490935201A5
:1046600080935101A2E6B1E0EAE0F1E080E09FEF43
:104670009D93833018F41582168217828F5F3896C7
:104680008630B1F7109261018FEF809301010E9493
:10469000A61710922D05809155018F3FD1F01092F1
:1046A0002C056CE576E1809158010E94E1196AEBD6
:1046B00071E083E295E00E949E1C4091570182E1E7
:1046C000489FA00111244D5A5D4F66E081E10E9490
:1046D000990E809159018F3FD9F08CE180932C0580
:1046E0006CE576E180915C010E94E1196AEB71E072
:1046F00083E295E00E949E1C40915B0192E1499FFC
:10470000A00111244D5A5D4F66E086E20E94990E89
:1047100080915D018F3FD9F088E380932C056CE593
:1047200076E1809160010E94E1196AEB71E083E219
:1047300095E00E949E1C40915F01E2E14E9FA00126
:1047400011244D5A5D4F66E08BE30E94990EF09163
:104750000201F9838F2F8650823018F0F93009F06A
:10476000E5C084E080932C0588E180932D056AE7FD
:1047700071E083E295E00E949E1C8091EA04813002
:1047800009F096C067ED7BE18AEF94E00E949912F0
:1047900080910201873009F03FC080911201882387
:1047A00019F188E08093020185E08093C6010F90A3
:1047B0000F900F90DF91CF911F910F91FF90EF908D
:1047C000DF90CF90BF90AF909F908F907F906F9031
:1047D0005F904F903F9008955981509355011ACFA3
:1047E0008FEF80935D013ECF109254010F900F9098
:1047F0000F90DF91CF911F910F91FF90EF90DF907D
:10480000CF90BF90AF909F908F907F906F905F9070
:104810004F903F900C94EC17893031F49FEF9093B8
:1048200002018093C901C3CF809155018F3F09F0E8
:1048300059C0809159018F3F09F054C080915D01AA
:104840008F3F09F04FC087E08093020140915301F0
:1048500050E023E060E080E00E94451890E025E50C
:1048600031E0AAE0B1E06DE471E0F12CE12C8E2D95
:10487000F90140814F3FC1F1FB0140815181452B3E
:1048800099F58701000F111F000F111F0B5A1E4FC2
:1048900022E050E040E060E0F80183810E9445188A
:1048A00097012E593E4F8FEFF9018383F8018083E2
:1048B00029E144E567E180E00F900F900F90DF91D0
:1048C000CF911F910F91FF90EF90DF90CF90BF900D
:1048D000AF909F908F907F906F905F904F903F90A0
:1048E0000C940C1591E0BBCF11964D915C911297F1
:1048F000452B51F42BE050E040E060E00E94451869
:1049000089E080930201D4CFFFEFEF1AFF0A2C5FFA
:104910003F4F18966E5F7F4F43E0E416F10409F0B5
:10492000A6CF992329F20E94A617C2CF59815330EE
:1049300008F44DC0583009F026C5E090C60182E168
:1049400080932D0546E0812C03E0A02EB12CE416C7
:1049500029F0B3E08B2E16E0A12EB12C3E2C330CA7
:10496000330C8AE091E09B838A836C0110E000E0C5
:10497000F12C44244394E4E05E2E9AEF9E0D99833B
:10498000F8E77F2EAAE06A2E902E40922C058091A7
:104990002D058A5F80932D0580915401801306C0F8
:1049A00062E371E083E295E00E94081050922C05CA
:1049B00010927A01E3E0EE1508F4BCC040E06CEC24
:1049C00071E0832D890D0E942918F82ED2C023E0B2
:1049D00048E269E18AE20E940C15698188E0680278
:1049E000F0011124E65FFE4F2181328146E2429FB1
:1049F000C001439F900D11246081E4E16E9FB001DE
:104A000011240E94F237665D6A839AE2F92E6A32B7
:104A10001CF0F62EFAE2FA830F2D2A81021B102FCA
:104A200007FF02C011E0100F15958AE1E82E4E2D08
:104A30006A8183E295E00E94DC1217FF02C0EA94CB
:104A4000100F3A813F5F3A83F3168CF743E34093AC
:104A50002C058EE180932D056BEC79E189810E9414
:104A6000E1196AEB71E083E295E00E949E1C53E33A
:104A700050932C0584E280932D05E091020168E0BB
:104A8000E602F0011124E65FFE4F4181528170E0A1
:104A900060E02AE083E295E00E94AD1C61E572E0EF
:104AA00083E295E00E940810E091020188E0E802AC
:104AB000F0011124E65FFE4F608194E1699FB0012F
:104AC000112483E295E00E94F91CE3E3E0932C05B6
:104AD0008AE280932D056EE472E083E295E00E9405
:104AE0000810E091020128E0E202F0011124E65FE3
:104AF000FE4F448150E070E060E02AE083E295E000
:104B00000E94AD1C6CE472E083E295E00E94081004
:104B1000E091020138E0E302F0011124E65FFE4F6C
:104B2000408150E070E060E02AE083E295E00E947E
:104B3000AD1C03CFF4E0EF1244C0E5E5F1E090E0F6
:104B400080E020E030813F3F79F02F5F921660F4E3
:104B5000880F991F880F991FFC01EB5AFE4F40E008
:104B60006CE576E183812FCF0196349683309105F1
:104B700049F7EF2DF0E0E658FE4F10826AE771E04A
:104B800083E295E00E949E1C0F5F1F4FF8E0CF0E5E
:104B9000D11C0430110509F0F7CE8091E704813073
:104BA00009F456C08091E904813009F079C067EDBD
:104BB0007BE18AEF94E00E949912809154018F5F0B
:104BC00050C029812230B0F5882D90E098012F5FE8
:104BD0003F4F482F50E04A155B055CF64C5F5E4F37
:104BE000FA01908091109F5F9217130609F540E03B
:104BF00062E071E00E942918282FA82FB0E0A65883
:104C0000BE4F7C92E1E0E80FF0E0E658FE4F892DC0
:104C1000662D0E94E637805D808363E0F62EF20EFB
:104C20002E5FE22FF0E0E658FE4F905D9083A1CF1B
:104C30008F5FCFCFF3E09F1609F49BCFF601808101
:104C4000882309F496CF40E06BEC79E1892DBBCE47
:104C500067ED7BE18AEF94E00E9499128091540104
:104C60008150809354018091C601843009F07CC347
:104C70008091550113E08F3F09F412E080915901B2
:104C80008F3F09F4115080915D018F3F09F411505D
:104C900080915401612F0E94E6379093540108CE11
:104CA0001091C6018091EA04813081F463E376E1DA
:104CB0008AEF94E00E9499121230D0F4809154014E
:104CC000811122C084E08093C601CDCF8091EB0496
:104CD000813049F664E371E08AEF94E00E94991212
:104CE0008DEF810F833008F03AC38091020112C02A
:104CF000123009F02FC180915401811124C08FEF2F
:104D00008093010185E0DFCF111109C0813009F0E6
:104D100055C085E08093C60110925401A4CF813024
:104D200009F005C1809161018F5F8093610140E0CE
:104D30006CEC71E085E00E942918E82FF0E0E6585D
:104D4000FE4F108237C0813009F0FEC040911A0139
:104D5000242F30E0C90164E170E00E94F2376F5FF8
:104D60007F4F80912001869FA001879F500D1124C5
:104D7000420F531F64E1EA81FB8121813281240FBC
:104D8000351F328321838081869FC00111248217C1
:104D9000930710F4928381832A813B81285F3F4FE0
:104DA0003B832A832252314031F72AE060E080E0E1
:104DB0000E94451886E08093020155CF823009F0A9
:104DC000CBC00E94DB3524E630E040E050E00E949A
:104DD00049366E3171058105910524F590910401E4
:104DE0009F5F99839093040126E050E040E060E0EB
:104DF00080E00E944518E981E93008F468C088E045
:104E00008093040180910A0190E0880F991F2091FE
:104E10000B0130910C01820F931F90930C01809332
:104E20000B0155C00E94DB3524E630E040E050E045
:104E30000E9449366E31710581059105FCF4F091AF
:104E40000501FF5FF983F093050126E041E050E0A2
:104E500060E080E00E94451829812930C0F188E097
:104E60008093050120910A0180910B0190910C0122
:104E700033E0239F800D911D1124CFCF0E94DB359D
:104E800024E030E040E050E00E9449366E5F6983E4
:104E9000462F50E08A010C5F1E4FF801F081FF5F42
:104EA000FA832F2FF801208326E060E080E00E9443
:104EB00045183A81393058F088E0F8018083F9814B
:104EC000F230C1F4809110018C5F809310018091C9
:104ED0000A0164E1869FC001112420910B013091E9
:104EE0000C018217930708F065CF90930C01809313
:104EF0000B0160CF2981233041F420910A01809178
:104F00000B0190910C0135E0B4CF4981443031F46C
:104F100080910F018C5F80930F01D9CF598155305B
:104F2000B1F6809111018E5F80931101D0CF823054
:104F300099F4809117018D5F8093170125E041E07E
:104F400050E060E081E034CF823031F484E080933F
:104F50000101DFCE133038F480915401833009F021
:104F600046C083E0D7CE133009F041C08091540190
:104F700081110FC080910401811109C08091050148
:104F8000811105C080910601882309F481CE86E055
:104F9000C1CE813079F480910701811109C08091DF
:104FA0000801811105C080910901882309F470CEA0
:104FB00087E0B0CE80914C01882329F040E06CE37B
:104FC00071E087E0B8CE0E94DB3522E030E040E0BF
:104FD00050E00E944936672B682B692B79F78FEFD9
:104FE000809302018091C7018093C9013CCE1430A7
:104FF00009F07AC0F09002018F2D98E08902F0014B
:105000001124DF01A65FBE4F2C914AE0249F90013E
:10501000112443E0359527954A95E1F7F11027C013
:10502000220F331FC90164E170E00E94F2376F5F05
:105030007F4FE65FFE4F8681869F8001879F100D20
:105040001124020F131F80915401813001F154E0AB
:10505000859FF0011124EB5AFE4F8330E8F49081D4
:1050600021E0280F34969F3FB9F4822FF6CF51E00C
:10507000F512D8CF8091610190E00196A901489F77
:105080009001499F300D589F300D1124CBCF909146
:1050900055019F3FE1F682E08093540160915401F5
:1050A000862F90E09B838A83FC01EE0FFF1FEE0F9B
:1050B000FF1FEB5AFE4F20E0A80163818F2D0E9455
:1050C0004518EA81FB81EE0FFF1FE35BFE4F8081F5
:1050D00091818017910718F4118210826BCE801B8A
:1050E000910B9183808366CE153009F063C0809167
:1050F0000201883009F47ACBE0915401E983809170
:10510000620181110FC028E0E29FF0011124E65FE7
:10511000FE4F86818E5F868328E041E050E060E0AC
:10512000898146CE809101018F3F79F540911A0126
:1051300053E0459F90011124C90164E170E00E9491
:10514000F2376F5F7F4F80912001869FA001879F7C
:10515000500D1124420F531F898168E0869FF00192
:105160001124E65FFE4F21813281240F351F3283E7
:105170002183808164E1869FC001112482179307F7
:1051800010F49283818324E0CACF89818093010146
:1051900040E06CE371E08CE00E94291841E0480F88
:1051A000E82FF0E0E658FE4F80E280836BEC79E177
:1051B0008981C1CD8AEF810F823008F0A4C140916E
:1051C000540150E04F5F5F4F30E020E090E0822FCD
:1051D000B901163011F06D5F7F4F6C5F7E4FFB01A0
:1051E000608161119F5F9417150631F493E0980F69
:1051F0001630D1F5982F05C02F5F3F4F2330310572
:1052000031F7911131C08091020128E08202F00152
:105210001124E65FFE4F408150E0440F551F21816D
:105220003281240F351F32832183909104019150E4
:105230009093040124E060E00E944518E09102018F
:1052400088E0E802F0011124E65FFE4F808124E14E
:10525000829FC0011124218132818217930708F0B7
:10526000A9CD92838183A6CD80910201282F082E9B
:10527000000C330B9130C9F4E3E0220F331FEA95A1
:10528000E1F7F901E65FFE4F408133E0439FA00163
:10529000112421813281240F351F32832183909183
:1052A0000501915090930501C5CF9230A1F473E0B0
:1052B000220F331F7A95E1F7F901E65FFE4F9681E1
:1052C0009C5F96839091060191509093060128E08F
:1052D00041E050E0B0CF9330C9F463E0220F331FB8
:1052E0006A95E1F7F901E65FFE4F408165E0469F70
:1052F000A001112421813281240F351F32832183A3
:105300009091070191509093070194CF943091F4BC
:1053100053E0220F331F5A95E1F7F901E65FFE4F84
:1053200095819C5F9583909108019150909308011D
:1053300025E0CECF953009F081CF43E0220F331F17
:105340004A95E1F7F901E65FFE4F97819E5F9783EB
:105350009091090191509093090129E0B9CF16501D
:10536000123008F080CCFDCD853009F0CEC08091A0
:10537000120111E0811112E080911A01882309F4D1
:1053800087CC1F5F85CC89818350833008F090CA19
:10539000298134E02302F0011124E75BFE4FE08015
:1053A0004AE0E49E70011124C70123E0959587959A
:1053B0002A95E1F79B838A8380911A01882309F457
:1053C00060C00E94DB3523E030E040E050E00E9406
:1053D0004936162F212F30E0E091020194E0E902D6
:1053E000F0011124E75BFE4F038180910101082E3B
:1053F000000C990B8217930709F054C080911A0191
:1054000090E0EA81FB818E179F070CF046C0E81BF5
:10541000F90BFB83EA838A819B8164E170E00E943F
:1054200006386F5F7F4F20912101269FC001279F83
:10543000900D11244A815B81481B590B5B834A8381
:105440001416150624F081E090E09B838A8327E000
:105450004A815B81612F802F0E94451812E038E05D
:10546000139FF0011124E65FFE4F818192814A81F2
:105470005B818417950708F03FC01282118286E095
:1054800040CA10911201112309F4A4CF0E94DB3508
:1054900022E030E040E050E09ACF21E030E03B8372
:1054A0002A83B9CFC70160EA70E00E9406386F5FB7
:1054B0007F4F83E0220F331F8A95E1F7F901E65F02
:1054C000FE4F2781269FC001279F900D1124EA815E
:1054D000FB81E81BF90BFB83EA831E161F0624F0F1
:1054E00021E030E03B832A8321E04A815B81612F08
:1054F000802F0E944518B3CF2A813B81821B930BDA
:1055000092838183BCCF8091C60113E0833009F47C
:10551000BFCB9AEF980F9230B0F430E020E010E06B
:10552000A901863011F04D5F5F4F4C5F5E4FFA016D
:10553000908191111F5F2F5F3F4F2330310581F71D
:10554000143008F4A5CB14E0A3CB80910001815066
:1055500080930001811118C08091C9018093C70117
:1055600085E08093C90188EE8093C80181E0809333
:1055700029050E94DB3520EC30E040E050E00E943D
:105580004936605C6093000108951F920F920FB638
:105590000F9211242F933F938F939F93AF93BF93B9
:1055A0008091D1019091D201A091D301B091D40109
:1055B0003091730123E0230F2D3758F50196A11D7B
:1055C000B11D209373018093D1019093D201A093D8
:1055D000D301B093D4018091740190917501A09191
:1055E0007601B09177010196A11DB11D80937401E0
:1055F00090937501A0937601B0937701BF91AF911D
:105600009F918F913F912F910F900FBE0F901F9000
:10561000189526E8230F0296A11DB11DD2CF1F9227
:105620000F920FB60F9211242F936F937F938F9346
:105630009F936091CD01662349F1809172018F5F44
:10564000809372019091CE01891700F12091D001D1
:1056500081E028272093D001109272018091CF0120
:10566000882369F08091030193E4899F802D1124A0
:10567000895B809303010E94E6379093CC0180916F
:10568000CC01211101C080E08093B4009F918F91E3
:105690007F916F912F910F900FBE0F901F901895D3
:1056A000CF93DF93CDB7DEB72D970FB6F894DEBF5B
:1056B0000FBECDBF789484B5826084BD84B581600F
:1056C00084BD85B5826085BD85B5816085BD8091CD
:1056D0006E00816080936E00109281008091810045
:1056E000826080938100809181008160809381003D
:1056F000809180008160809380008091B1008460FF
:105700008093B1008091B00081608093B00080915F
:105710007A00846080937A0080917A00826080931E
:105720007A0080917A00816080937A0080917A007B
:10573000806880937A001092C10082E380935405C0
:1057400081E090E0A0E0B0E0809350059093510597
:10575000A0935205B09353058FEF80934505E0E881
:10576000F7E7259134912130304C09F018C2E6E971
:10577000F7E7E491E0932E05E7E9F7E7E491E0939A
:10578000D904E8E9F7E7E491E093DA04E9E9F7E717
:10579000859194919093DC048093DB04EBE9F7E727
:1057A000859194919093DE048093DD0487E080934B
:1057B0000005EEE9F7E7E491E093FF04EFE9F7E78E
:1057C000E491E0934505E0EAF7E7859194919093A1
:1057D000F2048093F104E2EAF7E7859194919093C3
:1057E000F4048093F304E4EAF7E7859194919093AD
:1057F000F6048093F504E6EAF7E785919491909397
:10580000F8048093F70411E01093D5046FEF70E073
:1058100085E00E948D1188E08093DF0489E0809309
:10582000E00487E08093E10486E08093E20404E0F2
:105830000093E30482E08093E40481E18093E50433
:105840000E9446118CE39FE09093F0048093EF0454
:105850000093EE041093F9048BE0809331058DE002
:105860008093300580E1809332058EE0809334058B
:105870008FE08093330510932B051093430510920E
:10588000440510932A05E1E3FAE1E491EF5FE09328
:105890002705E2E3FAE1E491EF5FE093280583E373
:1058A0009AE190934205809341051FB7F894809147
:1058B0007801811127C0E2E5FCE18491E6E6FCE194
:1058C0009491E82FF0E0EE0FFF1FEF5EF94EA591E7
:1058D000B491EC91E92321F461E08AE00E94821006
:1058E00061E08AE00E940A118CB580618CBD8CB5A4
:1058F00080648CBD61E08DE00E940A1161E08BE064
:105900000E940A11809178018F5F809378011FBFF8
:105910008CB58F7D8CBD8CB58C7F81608CBD8DB539
:1059200081608DBD8CB58C608CBD61E0809131054E
:105930000E940A1161E0809130050E940A1161E025
:10594000809132050E940A118091340518161CF4CA
:1059500061E00E940A118091330518161CF461E081
:105960000E940A1180913405181674F460E00E94B8
:1059700082106AE070E080E090E00E94581261E0DE
:10598000809134050E94821080913005082E000C11
:10599000990BFC01E85BF34EE491F0E0EE0FFF1F82
:1059A000E55EF94E25913491309338052093370503
:1059B000FC01E45AF34EE491E0933E0580913105F9
:1059C000082E000C990BFC01E85BF34EE491F0E02B
:1059D000EE0FFF1FE55EF94E2591349130933605A9
:1059E00020933505FC01E45AF34EE491E0933D0524
:1059F00080913305082E000C990BFC01E85BF34EF7
:105A0000E491F0E0EE0FFF1FE55EF94E2591349131
:105A100030933A0520933905FC01E45AF34EE491A2
:105A2000E0933F0580913205082E000C990BFC0194
:105A3000E85BF34EE491F0E0EE0FFF1FE55EF94EF8
:105A40002591349130933C0520933B05FC01E45AA9
:105A5000F34EE491E093400581E20E94B01084E1AE
:105A60000E94B01080912E0587FF03C08FE78093BE
:105A70002E0580912E0580680E94B01080E20E9461
:105A8000B0108CE00E94B0100E94CF1081E0809393
:105A9000FE0484E0809322058DE096E190930A0550
:105AA0008093090580E00E946D0E61E070E083E064
:105AB0000E948D118091B100887F81608093B10038
:105AC000F89410928000109281001092850010923C
:105AD000840088E191E09093890080938800809110
