:100000000C94B3070C94DB070C94DB070C94DB0710
:100010000C94DB070C94DB070C94DB070C94DB07D8
:100020000C94DB070C94DB070C94DB070C94F02B8F
:100030000C94DB070C94DB070C94DB070C94DB07B8
:100040000C94A62B0C94DB070C94DB070C94DB07B9
:100050000C94DB070C94DB070C94DB070C94DB0798
:100060000C94DB070C94DB070101FF030101F7038C
:100070004920414D2044454154480A2020494E43DF
:1000800041524E41544521004252494E4720274596
:100090004D204F4E2100444F4E2754204855525476
:1000A000204D452E0043414E204920504C41592CB3
:1000B0002044414444593F00484F5720544F55472E
:1000C000482041524520594F553F00515549540051
:1000D0004E45572047414D4500434F4E54494E55DC
:1000E0004500574F4C46454E4455494E4F203344EA
:1000F0000005003C017004FC029401FC019402FC28
:100100000194020000050050018C029401FC0120C2
:1001100001FC0218011401FC0110020C0100000591
:10012000004C0145007401640160013401200105A7
:10013000000C0104010801FC0508010000450084D1
:10014000010500340130012C012801240120021C8A
:1001500001000045008401050018021C0120012453
:10016000012C0134010000000306090D10131619BB
:100170001C1F2225282B2E3134373A3C3F4244475E
:100180004A4C4F515456585B5D5F61636567696ABD
:100190006C6E6F717274757677797A7A7B7C7D7EFE
:1001A0007E7F7F7F8080808000000000230026000B
:1001B00029000000000800020100000304070000FD
:1001C0000000000000006C00680000000000240037
:1001D00027002A00010204081020408001020408C0
:1001E0001020010204081020000000002500280053
:1001F0002B000404040404040404020202020202A8
:100200000303030303030500893008023802497819
:100210006814000053442043415244204D4F554E32
:1002200054204552524F52004E4F20574F4C4633A8
:10023000442E44415420464F554E442100E200D004
:1002400000B2157305BE15CB0061250000B800A5EE
:1002500000A61596009D158800941570008B15005A
:100260000000FF01000001FF00E200D900AE15D040
:1002700000B2157305BE15CB006125000002000217
:10028000000200AA00650A65A6650AAA0002000825
:100290000090004002000900A80A50994265A69506
:1002A00029A80A200020000800080009800940024F
:1002B000600290009800A88A95009569954065A60F
:1002C000955A995609A88A95000080090000600295
:1002D00000009800000008000000020028005802FA
:1002E00050A542A52A95AA56AA52A5822500280003
:1002F000080A0069094056A99095AA68A5AA59A9B3
:100300004A56A9909600080A0002000000090A0057
:1003100000A525000265958A0965A56A256AA5AA32
:100320009565A56A2565958A09A5250002090A0033
:100330000002000000820A009056020059A50290B7
:1003400095AA2A5AA9AA9A95AA2A59A502905602AC
:1003500000820A0000A86A25955002092000A2AA7E
:10036000566225580226800220000800020028AAB2
:10037000825A0966256896406502540A4025009411
:100380000240220008000000020000AA2A805A0948
:1003900060690268A50096A580952540550A40959C
:1003A00000402500400900400200800000000000DD
:1003B00008080340000A09019A000F0F0100000914
:1003C00009045100090B04B4000B10036401090E69
:1003D000040000060609240009070763000A0A064C
:1003E000C7000D0C03003C00FA3F829E5BEA9F971A
:1003F000FAFB08000F00D00FA0FF3EA2FF6EA9FF7E
:1004000079A9FF3E02D00F00C003E8EF23FABB2515
:100410007A7989FE8F00F0000200003AC000FAEFFE
:1004200023006F96005F96FAEF233AC000020000A7
:100430000280003A8000FA6F22005B998056A5FA8C
:100440005B293A6002028000008000080001E80396
:1004500003EAEF23FAEF9600809700D0000000082F
:10046000080000A0008002F80308E8EF0700BF17AB
:10047000000004000000080000000000000208283E
:10048000800808003F00802F00F81B00B00700C064
:1004900008000D00002028283C083FD00AC00FF0BB
:1004A000033C0203340888A92E0F8F9E1F0F0303FD
:1004B000010000060B054200060C058A00060B052C
:1004C000CC00080C042C01090C049801070C05EC65
:1004D00001090D066102090B07C40209070703039E
:1004E0000B04059A767071B67A7671B0ACEB7240F7
:1004F000CBBA2E07B4ACEB7240CBBA2E07B4ACEB40
:100500007240CBBA2E0704080808888A0A080A8AAB
:10051000820008A880000208A0A0020A38E8A0A370
:10052000820A0A080A080822080A080A0808220893
:100530000000020307060007040422000603063435
:1005400000060305460006030658000603066A0077
:100550000603067C000603068E000B0403BA000D9A
:100560000501FB0007040417010704044F4E004F68
:10057000464600534F554E443A0047455420505389
:1005800059434845442100A8AA8030AABE803CA80F
:100590003C0C3CFFFFAC3C803CA8BE803CA8BE00AD
:1005A00030A8AA58666A99A965A69699A2AA025A7D
:1005B000A1AAA6AAA6AA06AA0200200000880828C6
:1005C00080AAA800AAAA55A98A0AA00A28808A0097
:1005D0000022000033802AFF3FAAFEFFABF23F005B
:1005E00000A8000000FE021080FF065055FEB6F382
:1005F0007FA9BD5F5555B513000005A0AA96AA02B4
:10060000000050000000540100000D0802680006C0
:1006100009059E00050806C600080D042E01040DFC
:100620000662010A1004010000000100000005003C
:10063000000005000000050000000500000805009E
:100640000024050000A405000024050000080500A2
:10065000000005000000050000000100000001008E
:10066000000020A6BA3C3C7A7E3C0C0C0420A6BAC2
:100670003C3C7A7E3C0C0C040100000001000000B0
:10068000050000000500000005000000050000084E
:1006900005000024050000A4050000240500000852
:1006A000050000000500000005000000010000003A
:1006B0000100000001000000010000000500000032
:1006C00005000000050000000500000805000024EA
:1006D000050000A405000024050000080500000036
:1006E00005000000050000000100000001000000FE
:1006F00000000F1001F0000B04051C010B0405485D
:10070000010F100138020F10010A0A153A49676EED
:100710006F7265006D560A0A504C4541534520548E
:1007200055524E204F464620004C4F5720424154D0
:100730005445525921200003053F213F1208120A57
:10074000100A0E1C0E0C1E0C141A14161F161E1363
:100750001E1E1B1E1E1F1E3F213F3A2F3A173D171C
:100760003F213F181F02040A041F0E04040E1F0A33
:100770001F0A0E0E1F04110E2E252E2F2A2E26299B
:1007800029021F02081F08150E04040E150E151568
:100790001B151B040604040C0400000000170003D2
:1007A00000031F0A1F16371A1904130A153A00030B
:1007B00000000E11110E000A040A040E040030009D
:1007C0000404040010001804031F111F121F101D41
:1007D000151711151F07041F17151D1F151D0101E2
:1007E0001F1F151F17151F000A00003200040A11F1
:1007F0000A0A0A110A040115020E11171E051E1F0E
:10080000150A0E110A1F110E1F15111F05010E11D9
:100810001D1F041F111F1108100F1F041B1F101094
:100820001F061F1E040F0E110E1F09060E112E1F8C
:10083000051A121509011F011F101F0F180F1F0C99
:100840001F1B041B031C03191513001F110304189D
:10085000111F000201022020200001020C121E1FA5
:10086000120C0C12120C121F0C1A14041E05242A4E
:100870001E1F021C141D1020201D1F0814111F1004
:100880001E041E1E021C0C120C3E0A040C123E1EFC
:10089000040214160A020F120E101E0E100E1E086D
:1008A0001E120C1226281E322A26041E21001F00AA
:1008B000211E040102013F213FF6E8DBCFC3B8AEA1
:1008C000A49B928A827B746E68625C57524E494543
:1008D000413E3A3734312E2C292725232145006803
:1008E000010000172B152010204C4F4144455200A9
:1008F000172B16201314000A4E6F205344206361F7
:100900007264206F720A6E6F204C4F414445522E24
:100910004845580A0A153A45786974001D20466C06
:10092000617368696E670A20206C6F616465722E5E
:100930002E2E0A0A444F4E2754205455524E204F13
:10094000464621009665559696655596AAAAAA969A
:10095000565655965656559656AAAA96565659968E
:10096000AA565996665659AA6656599966AA5A9928
:10097000AA55599996AA5A99966559999665599979
:1009800096A5AAAA96659595966595959665959569
:1009900096659595966595AAAAAAAA955655959590
:1009A000565595955655AA9556559695AAAAAAAA0A
:1009B000966555969665559696655596966A55969A
:1009C00096A5AAAA966555969A655596AAAAAA9634
:1009D000FADFF79FFADFF79FFA57D69F5A65D99F3C
:1009E000FA9B5695FA97E6AF5A655995FA97D59FAF
:1009F000FADFF79FFADFF79F9A65D9999A65D99937
:100A000096A5AAAA9665559696655596AAAAAAAAE3
:100A10005A5555955A5595965A61A9969A00A99A8C
:100A20009A00AA9A9A022AAA9AAA0AA85A9A2AA8BC
:100A30005A55AA9A5A555595AAAAAAAA9665599995
:100A400096A5AAAA6AAA9AAA5A5555955A5555958D
:100A50005AAA69AA5A5555955AAAAAAA56555595F9
:100A60005AAAAAAA5A5555955AAAAAAA5A555595A4
:100A700056AAAAAA5A5555955A5555956AAA9AAA98
:100A80006AAA9AAA96AAAAAA669595A56A9595A50C
:100A900096A9AAAA5656A9AA96995699AA9AAA991F
:100AA00096555995965999A9969A9A95AA99A6AA4A
:100AB0005656A9AA96A9AAAA6A655996666559962C
:100AC00096AAAAAA6AAA9AAA5A5555955A55559508
:100AD0005AAA69AA5A5555955AAAAAAA5655559579
:100AE0005AAAAAA05A5515955AAAAA805A5555919C
:100AF00056AAAA825A5555955A5555956AAA9AAA40
:100B00006AAA9AAA6AAA9AAA6AAA9AAA6AAA9AAA85
:100B10006A5595AA6AAA99AA6AAA99AA56AA59953B
:100B20006AAAA9A96A5555A96AA6AAA96AA6AAA9DC
:100B300056555595AAAA9AAAAAAA9AAA565595AA06
:100B40006AAA9AAA6AAA9AAA6AAA9AAA6AAA9AAA45
:100B50006A5555956A6A6AAA566A6AAAAA56559546
:100B6000AAA6A6AAAAA6A6AAAAA6A6AAAAA6A6AA05
:100B700056A5A6AAA656559556A69AAA6A5595AA06
:100B80006AAA9AAA56555595A6AAAAAA6A4555A52B
:100B9000660100A062A84AA4265665A52A6AAAAAE8
:100BA000266A65A5225669A5266665A5266AAAAAAB
:100BB0002A5625A426A84AA4664100A1A2AAAAAA48
:100BC0005655559556555595AAAAAAAA5A5555A5AA
:100BD0005A5555A55A5595A65A61A9A69A00AAAA8A
:100BE0009A00AAAA9A022AAA9AAA0AA85A9A2AA8EB
:100BF0005A55AAAA5A55A9A65A5555A5AAAAAAAAA3
:100C0000565555955655559556555595AAAAAAAA7D
:100C1000565555950200008056555595AAAAAAAA80
:100C20005655559502000080565555955655559583
:100C3000AAAAAAAA56555595565555950200008060
:100C400056555595AAAAAAAA96195095A62952951D
:100C500096195095565555955601509556055495EB
:100C60004615559406551594065405940655159445
:100C7000461555945605549556015095565555951B
:100C8000AAAAAAAA5655559556555595A6AAAA9AFE
:100C90006655559166000091664A0491660200917E
:100CA000664004916608049166424491664840910A
:100CB0006600009166555591060000905655559571
:100CC000565555955655559556555595A6AAAA9AD1
:100CD0006655559166555591665555916655559190
:100CE0006655559166555591665555916655559180
:100CF0006655559166555591060000905655559587
:100D0000565555955655218056552180565521806A
:100D100056552180565521805655218056552180A3
:100D20005655218056552180565521805655218093
:100D30005655218056552180565521805655218083
:100D400056552180565965955659659556A96A9507
:100D5000AA5A65955659A5AA565965955659659545
:100D60005659659556596595AA5A659556A96A9535
:100D7000565965955659A5AA56596595565965957A
:100D8000AA5A6595565965955659659556016095C7
:100D9000AA004095168000AA06080294062208942C
:100DA00086000294060820940A8208940608029499
:100DB00016200095560080AA5601609556596595F3
:100DC000AA5A6595AAAAAAAAFEFFFFBF5E956AB5B0
:100DD0005E5555B55EA56AB55E6566B55EA56AB534
:100DE0005E5555B55E5555B55E5555B55E5555B50F
:100DF0005E5555B55E5555B55E5555B5FEFFFFBF01
:100E0000AAAAAAAAAAAAAAAA565555952600009047
:100E10006655559166555591A6AAAA9A5655559567
:100E2000AAAAAAAAAAAAAAAA565555950600009047
:100E30006655559166555591A6AAAA9A5655559547
:100E4000AAAAAAAA56555595AA5555959AA96A953A
:100E50008A4965959AA96A95AA55559556854A95E0
:100E6000160648929606689A1606489256854A953E
:100E70005655559556955A95AAAA58950A005895CB
:100E8000AAAA5A95AAAAAAAA565555955655599549
:100E900056556995565559955655599556555995DE
:100EA00056555995565569955655599556555995CE
:100EB00056555995565569955655599556555595C2
:100EC000AAAAAAAA4552524F522052454144494E1D
:100ED000472053442043415244000000E002030CE9
:100EE0005F7DF66A994CAA6A6000C045D1018C10FA
:100EF000C411100184100002980C3F7EF243BD5EC5
:100F0000B17E877CB776BF76217CBF7EB77E4001FD
:100F1000500144454A295111A10A2E5EBE78BF2ACC
:100F20002E2A3F3ABF46BF042E769F7CF147083EEB
:100F30009F6C1F42DF7C9E3C2E3A3F192E5BBF68A0
:100F4000B226E1071F7E0F3F9F7D9B6C830FB94E3A
:100F5000E0478360F1032208000053013D011F01B7
:100F60000501F100312C11241FBECFEFD8E0DEBF08
:100F7000CDBF11E0A0E0B1E0E4E1F9E702C00590E7
:100F80000D92AC39B107D9F727E0ACE9B1E001C067
:100F90001D92A834B207E1F717E0C3EBD7E004C015
:100FA0002197FE010E94493CC23BD107C9F70E942C
:100FB0004E2C0C94883C0C94000020912207309118
:100FC000230780E0E82FEE0FEF5FEE0FFF0BE20F3D
:100FD000F31F45915491452B11F08F5FF3CF089586
:100FE00090E0880F991FE0912904F0912A04E80FFE
:100FF000F91F2591349130933A0420933904F90173
:101000008591949190911E04989F802D1124809336
:101010003B04F90165917491472F50E08417150640
:1010200029F020F0F90125913491832F989F802D8C
:10103000112480933C0408958FEF8EBD0DB407FEFC
:10104000FDCF8EB508958EBD0DB407FEFDCF08957A
:10105000AF92BF92CF92DF92EF92FF920F931F93C6
:10106000CF93DF936C017B018B01040F151FEB0104
:101070005E01AE18BF08C017D10759F06991D601BB
:10108000ED91FC910190F081E02DC6010995892B2D
:1010900079F7C501DF91CF911F910F91FF90EF90EC
:1010A000DF90CF90BF90AF900895833081F028F407
:1010B000813099F08230A9F008958730A9F0883006
:1010C000C9F08430B1F4809180008F7D03C080919D
:1010D00080008F7780938000089584B58F7784BDDA
:1010E000089584B58F7DFBCF8091B0008F7780937A
:1010F000B00008958091B0008F7DF9CFCF93DF933A
:10110000282F30E0F901EE54FE4F8491F901EC52A2
:10111000FE4FD491F901EE50FE4FC491CC23A1F0C3
:1011200081110E945508EC2FF0E0EE0FFF1FE855EB
:10113000FE4FA591B491EC91ED2381E090E009F48C
:1011400080E0DF91CF91089580E090E0FACF1F9387
:10115000CF93DF93282F30E0F901EE54FE4F8491B6
:10116000F901EC52FE4FD491F901EE50FE4FC491BB
:10117000CC23A9F0162F81110E945508EC2FF0E026
:10118000EE0FFF1FE851FE4FA591B4918FB7F89471
:10119000EC91111108C0D095DE23DC938FBFDF9155
:1011A000CF911F910895DE2BF8CF60E08091DE0192
:1011B0000C94A70861E08091DE010C94A708CF93FE
:1011C000DF9390E0FC01EC52FE4F24918E509E4F35
:1011D000FC0184918823C9F090E0880F991FFC01DD
:1011E000E653FE4FA591B491FC01E851FE4FC59125
:1011F000D49161110DC09FB7F8948C9120958223F2
:101200008C938881282328839FBFDF91CF910895F5
:10121000623051F49FB7F8943C91822F80958323DC
:101220008C93E8812E2BEFCF8FB7F894EC912E2B77
:101230002C938FBFEACF1F93CF93DF93C5EFD3E0FB
:101240001FEF62E08A850E94DF088A850E947E087F
:101250002989892B79F42F5F298B60E08A850E9488
:10126000DF08219683E0CC3FD80759F7DF91CF9173
:101270001F9108952223A9F32F3F11F4198AEDCF6E
:10128000198BEBCF1F93CF93DF93182FEB0161E006
:101290000E94DF08209739F460E0812FDF91CF9121
:1012A0001F910C94A708CF3FD10511F461E0F5CF51
:1012B000E12FF0E0EE54FE4FE491E33031F140F4E1
:1012C000E130B1F0E230E1F0C038D1057CF7E4CF95
:1012D000E73029F1E83059F1E430B1F7809180002E
:1012E000806280938000D0938B00C0938A0004C0FA
:1012F00084B5806884BDC7BDDF91CF911F910895EB
:1013000084B5806284BDC8BDF7CF809180008068BD
:1013100080938000D0938900C0938800EDCF8091A6
:10132000B00080688093B000C093B300E5CF809197
:10133000B00080628093B000C093B400DDCF8E50C7
:10134000806480937C0080917A00806480937A002E
:1013500080917A0086FDFCCF809178009091790091
:101360000895809119048F7149F584E10E949F09C5
:10137000BC01990F880B990B0E94FE3A26EE3FE3C1
:101380004EEC50E40E94623B0E94CD3A9B01709368
:10139000100460930F04672BB9F084E080930E046F
:1013A000E1E1F4E080E0419151912417350718F410
:1013B00080930E0408958F5F8430A9F780911904FB
:1013C0008F5F8093190408958FEF80930E04F6CFFA
:1013D0003FB7F89480919F019091A001A091A10145
:1013E000B091A20126B5A89B05C02F3F19F0019628
:1013F000A11DB11D3FBFBA2FA92F982F8827BC016F
:10140000CD01620F711D811D911D42E0660F771F96
:10141000881F991F4A95D1F708958F929F92AF9296
:10142000BF92CF92DF92EF92FF924B015C010E943C
:10143000E8096B017C010E94E8096C197D098E099D
:101440009F09683E734081059105A8F321E0821A47
:101450009108A108B10888EEC80E83E0D81EE11CEF
:10146000F11C81149104A104B10429F7FF90EF90BD
:10147000DF90CF90BF90AF909F908F9008950F9383
:101480001F93E091EF03F091F003DC0112972085A8
:1014900031852250310960E070E0CB01A217B3071B
:1014A00060F4218130E00E94BE3A028913892489C8
:1014B0003589600F711F821F931F1F910F9108952F
:1014C000CF93DF93EC01A091EF03B091F003198269
:1014D00018828C819D8181309105E9F018962D91BB
:1014E0003C91199782179307B0F49F838E830097DE
:1014F00059F00E943F0A688779878A879B8790E026
:1015000080E0DF91CF9108951E966D917D918D9130
:101510009C915197F0CF81E090E0F3CFFF920F9331
:101520001F93CF93DF93C82FD42F152F062FF72E9D
:1015300087FF0AC040E050E0BA0187E70E948E0AA8
:10154000823008F04BC0CF77E091B001F091B1014B
:101550000995E091B201F091B3010995E091B401D0
:10156000F091B5010995E091B401F091B5010995AB
:101570008F3FC9F7E091B601F091B7018C2F099523
:10158000E091B601F091B7018F2D0995E091B60178
:10159000F091B701802F0995E091B601F091B70164
:1015A000812F0995E091B601F091B7018D2F099532
:1015B00085E9C03421F087E8C83409F081E0E09182
:1015C000B601F091B7010995CAE0E091B401F0913C
:1015D000B501099587FF02C0C150B9F7DF91CF91DE
:1015E0001F910F91FF900895E091B001F091B1012A
:1015F0000995E091B401F091B5010994AF92BF92C1
:10160000CF92DF92EF92FF920F931F93CF93DF93CE
:101610006C015901E801DF77209709F481C0CE0100
:10162000820F931F8130924008F07AC080919D0113
:1016300083FD07C029E0440F551F661F771F2A95B9
:10164000D1F781E50E948E0A81110FC098EEE92E34
:1016500093E0F92EE091B401F091B50109958F3F27
:10166000B1F481E0E81AF108A9F70E94F40A81E0D8
:1016700090E0CD2B09F480E0DF91CF911F910F9185
:10168000FF90EF90DF90CF90BF90AF9008958E3F86
:1016900061F782E0E82EFE2CEA18FB08EC1AFD0A3E
:1016A000E1E0AE1AB10830F517FF2AC0F0E0E0E043
:1016B000099510E000E0F8010995E091B401F0917E
:1016C000B5010995F6010995B82EF80109952197FC
:1016D00011F0B110F0CFF0E0E0E00995EC0EFD1E46
:1016E000E091B401F091B5010995F1E0EF1AF1082C
:1016F000B9F7BBCFE091B401F091B5010995D0CF16
:10170000CC0DDD1DE091B401F091B5010995F60114
:1017100081936F01CE17DF07A9F7D0E0C0E0E0CFDB
:1017200084E090E0A9CFCF92DF92EF92FF920F93E7
:101730001F93CF93DF93EC016A017B0102E010E07D
:101740002EEF31E00E94FE0A892BF1F48881998105
:1017500085359A4AD9F426E330E0B701A601CE01D7
:101760000E94FE0A892BA1F481E028813981263468
:10177000314409F480E0DF91CF911F910F91FF90E8
:10178000EF90DF90CF90089583E0F5CF82E0F3CF24
:1017900081E0F1CF4F925F926F927F928F929F92F2
:1017A000AF92BF92EF92FF920F931F93CF93DF936D
:1017B000CDB7DEB7A8970FB6F894DEBF0FBECDBF8A
:1017C0007C0140E050E0BA01CE0101960E94930BEB
:1017D000412C512C32018130A1F500E110E02EEBBB
:1017E00031E040E050E0BA01CE0101960E94FE0ACD
:1017F000892BB9F081E090E0A8960FB6F894DEBF8F
:101800000FBECDBFDF91CF911F910F91FF90EF9051
:10181000BF90AF909F908F907F906F905F904F9010
:1018200008958D81811103C089E090E0E5CF49845E
:101830005A846B847C84B301A201CE0101960E947C
:10184000930B8330B9F28111EFCF04E210E02DE069
:1018500030E0B301A201CE0101960E94FE0A892B5D
:1018600049F62A853B8550E040E0211531054105C8
:10187000510521F4288D398D4A8D5B8DAC81B0E006
:101880000E94913A6DA37EA38FA398A74A815B81A2
:1018900070E060E0440E551E661E771ED7011A9652
:1018A0004D925D926D927C921D97198111961C93B9
:1018B00011978D809E8015969C928E9214978F81A1
:1018C0009885B0E0A0E00097A105B10521F48C89CE
:1018D0009D89AE89BF8924E0969487942A95E1F783
:1018E000B12CA12C841B950BA60BB70BBC01CD0111
:1018F0002DA13EA14FA158A5621B730B840B950B24
:10190000681979098A099B09212F30E050E040E0ED
:101910000E949C3ADA01C9010296A11DB11DF7018E
:1019200091878087873FFFE09F07A105B10540F1C0
:10193000873F9F4FA105B10508F076CF82E0D70120
:101940008C932DA13EA14FA158A5420E531E641E9B
:10195000751E1E964D925D926D927C925197480C29
:10196000591C6A1C7B1CF701428A538A648A758A57
:101970001282F092F003E092EF0390E080E03CCF1F
:1019800081E0DDCF8F929F92AF92BF92CF92DF9294
:10199000EF92FF920F931F93CF93DF9300D000D06D
:1019A000CDB7DEB78230910518F481E090E071C0C8
:1019B000C090EF03D090F003F601208531858217A7
:1019C000930798F77C0180818130D9F0823069F7E4
:1019D00097013327220F331FEF2CFF2442855385B5
:1019E000648575854E0D5F1D611D711D02E010E05F
:1019F000CE0101960E94FE0A892BB9F689819A814F
:101A000048C04701969487948E0C9F1C94013170B6
:101A1000892C99248694B12CA12C42855385648508
:101A20007585480D591D6A1D7B1D02E010E0CE0131
:101A300001962F3FF1E03F07E1F401E010E02FEFC6
:101A400031E0CE0101960E94FE0A892B09F0ADCF4C
:101A5000F60142855385648575854F5F5F4F6F4FF3
:101A60007F4F480D591D6A1D7B1D30E020E0CE01DF
:101A700002960E94FE0A892B09F097CF89819A81EC
:101A8000E0FC02C09F7005C024E0969587952A95DA
:101A9000E1F70F900F900F900F90DF91CF911F9172
:101AA0000F91FF90EF90DF90CF90BF90AF909F90FD
:101AB0008F9008957F928F929F92AF92BF92CF9214
:101AC000DF92EF92FF920F931F93CF93DF93EC017E
:101AD0006B01FB0180818F3219F4FFEFCF1ADF0A0F
:101AE0001D821C82F6018081E0E27E2E803208F0A9
:101AF000D1C0CE010E94600A7C01E091EF03F09119
:101B0000F0030680F781E02D1082C701DF91CF91AD
:101B10001F910F91FF90EF90DF90CF90BF90AF900B
:101B20009F908F907F9008957192B9C0222309F4FD
:101B3000DCC0C30ED11C91E0803208F090E01B960F
:101B40009C93CE010E94600A7C01009709F088C036
:101B5000E091EF03F091F003A680B78028813981EE
:101B60002F70332775E0220F331F7A95E1F74885F0
:101B700059856A857B8500E210E0C5010E94FE0A56
:101B8000892B09F0B6C0F50180818823E1F18385B6
:101B900083FD11C06A817B81C501DB01AB01455F1B
:101BA0005F4F4A175B0709F463C0FC013191CF0115
:101BB0002D913217B1F3088119810F5F1F4F19F171
:101BC00088859985AA85BB850097A105B105D9F0BF
:101BD00098012F703327232B09F03FC08090EF032B
:101BE0009090F0030196A11DB11D88879987AA875F
:101BF000BB878E819F81F401009771F48481958168
:101C00000817190750F1EA81FB818385882361F168
:101C100083E0E82EF12C79CF21812150330BA801EC
:101C200064E0569547956A95E1F724233523232BE5
:101C3000A1F40E94C20C8230910508F45AC0F4014C
:101C40002085318582179307F0F69F838E830E944B
:101C50003F0A688779878A879B87198308837ECFA5
:101C6000039709F052CFCFCF34E0E32EF12C4DCFC4
:101C7000FB018385811149CFE091EF03F091F003DF
:101C80000680F781E02D838584FFEECF828D938DD2
:101C90009D838C83AA81BB81FD01CD010B96E81742
:101CA000F90709F041CF20E0E0E098E031E03E0F95
:101CB000EC0DFD2DF11D8081803208F437CF8F327D
:101CC00009F434CF8E32C9F0291778F48F3768F4CD
:101CD000682F70E0E5E7F1E04191442391F0042E94
:101CE000000C550B64177507B9F795E0E92EF12C38
:101CF0000CCFEE24E394F12C08CF9830B1F78BE0B1
:101D00000CC04FE9480F4A3108F48052FD01E20F40
:101D1000F11D8083892F91E0920F292FE32F982FB7
:101D2000C5CFCF92DF92EF92FF920F931F93CF9385
:101D3000DF9300D000D0CDB7DEB714E6E091B40158
:101D4000F091B50109951150C9F740E050E0BA0192
:101D500080E40E948E0A182F813009F04DC04AEAB3
:101D600051E060E070E088E40E948E0A813009F062
:101D700058C0CE0101967C016E0195E0C90ED11CC0
:101D80008701E091B401F091B5010995F8018193C3
:101D90008F01CE16DF06A9F78B81813069F58C8122
:101DA0008A3A51F598EAC92E91E6D92E40E050E0E2
:101DB00060E070E489EE0E948E0A811119C040E053
:101DC00050E0BA018AE70E948E0A811115C0E091A5
:101DD000B401F091B5010995F70181937F010E17C8
:101DE0001F07A9F7898114E086FF07C01CE005C022
:101DF000F1E0CF1AD108D1F610E010939D010E94B6
:101E0000F40A81E0111180E00F900F900F900F9075
:101E1000DF91CF911F910F91FF90EF90DF90CF90C6
:101E2000089540E050E0BA0189EE0E948E0A01E474
:101E3000823010F412E009EE88EAE82E81E6F82EEE
:101E400040E050E0BA01802F0E948E0A81110AC042
:101E500040E052E060E070E080E50E948E0A81116F
:101E6000CBCFCBCFF1E0EF1AF10851F7C5CFFC0192
:101E7000178A158A14A213A2108E1092E6011092EE
:101E8000E7011092EA011092B4000895CF93DF9316
:101E90009091F20390FD20C0E82FF0E0EE0FFF1FBD
:101EA000E65AF04FC591D4918AE194E00E94370F31
:101EB000D0932804C093270410922D0410922C0470
:101EC00081E080931B0489E08093300410923304F6
:101ED0001092350410923704DF91CF910895CF937B
:101EE000DF93E09123048E2F90E0880F991FE091FB
:101EF0002104F0912204E80FF91F859194918F3FFE
:101F0000980729F410921A04DF91CF9108959093C5
:101F100026049927880F991FE0912404F091250445
:101F2000E80FF91FC591D4918AE194E00E94370F20
:101F3000D0932804C093270410922D0410922C04EF
:101F400081E080931B0489E0809330041092330475
:101F50001092350410923704809123048F5F809390
:101F60002304D2CF1F93CF93DF93EC01162FF89465
:101F700060E08F850E94A708888918161CF460E02D
:101F80000E94A7081EBD00000DB407FEFDCF8EB550
:101F9000888918161CF461E00E94A7087894DF91E4
:101FA000CF911F910895EF92FF921F93CF93DF93EC
:101FB000EC018C858F5F8C878FEEE82E81E0F82E08
:101FC00010E0612F6064CE010E94B20F60E8CE0184
:101FD0000E94B20F61E08F850E94A70888891816B9
:101FE0001CF460E00E94A708F70184E591919EBD72
:101FF00000000DB407FEFDCF9EB58150B9F788896A
:1020000018161CF461E00E94A7081F5F84E5E80E23
:10201000F11C1630B1F660E4CE01DF91CF911F9133
:10202000FF90EF900C94B20FDC01643570F54033F3
:1020300060F590968C919097E62F062E000CFF0B82
:10204000242F25952595259594E52902E00DF11D70
:102050001124E151FE4F2081342F37708230B1F4CA
:10206000822F90E0032E02C0959587950A94E2F79F
:1020700080958170811114C081E090E001C0880FCB
:102080003A95EAF78095822380830895833091F70B
:102090001C968C9181706427609561708613ECCFDB
:1020A00081E090E001C0880F3A95EAF7822BECCFEF
:1020B000AF92BF92CF92DF92EF92FF920F931F9356
:1020C000CF93DF93182F062FC0E0D3E08AEFD82EEE
:1020D0009EEFE92E842F8470C82E842F8270B82E34
:1020E000842F8870A82E4170F42ECF5F8C2F880F1C
:1020F0008F5FE80ECC2081F0402F4D0F612F6C0FC9
:1021000083E494E00E941410402F4C0F6D2F610F58
:1021100083E494E00E941410BB2081F0402F4D1BFB
:10212000612F6C0F83E494E00E941410402F4C1B2D
:102130006D2F610F83E494E00E941410AA2081F0B7
:10214000402F4C0F612F6D1B83E494E00E9414100C
:10215000402F4D0F612F6C1B83E494E00E941410FC
:10216000FF2081F0402F4C1B612F6D1B83E494E016
:102170000E941410402F4D1B612F6C1B83E494E0D0
:102180000E941410CD173CF4E7FCAFCFD150D3948C
:10219000D394ED0CAACFDF91CF911F910F91FF90B7
:1021A000EF90DF90CF90BF90AF9008950F931F9363
:1021B000CF93DF93D82F162F042FC0E0C0174CF415
:1021C000412F4C0F6D2F83E494E00E941410CF5FD9
:1021D000F5CFDF91CF911F910F9108958F929F922C
:1021E000AF92BF92CF92DF92EF92FF920F931F9325
:1021F000CF93DF93082FA62E842E922E83E0F82E05
:10220000D0E0C3E09AEFE92E1EEFBB24B394B20EE8
:10221000DF5F1F0D4C2F440F6A2D6C1BC92CCF0C98
:10222000DA2CDD1A81E04B0D881215C0802F8D0F3E
:102230000E94D6104C2D6D2D8C2F800F0E94D61031
:10224000DC1794F417FD04C0C150E394E3941E0D11
:10225000F394F394DDCF802F8D1B0E94D6104C2D6C
:102260006D2D802F8C1BEACFDF91CF911F910F91A5
:10227000FF90EF90DF90CF90BF90AF909F908F90A6
:102280000895CF92DF92EF92FF920F931F93CF9317
:10229000DF937C01D62EC22EC42F002E000C110B12
:1022A000040F111D47FD1A958C2F0C2E000C990B55
:1022B000801791076CF4D0E0DC1544F46D2D6D0FA0
:1022C0004C2FC7010E941410DF5FF6CFCF5FECCF19
:1022D000DF91CF911F910F91FF90EF90DF90CF9002
:1022E00008954F925F926F927F928F929F92AF92DA
:1022F000BF92CF92DF92EF92FF920F931F93CF93F3
:10230000DF93EC016A3049F428859D818A85299FF5
:10231000800D11248A871986A6C06D3009F4A3C0E8
:10232000898483E588150CF487C0DA848FE28D15E3
:102330000CF482C018852C812150330B129FC001F0
:10234000139F900D1124880D911D87FC9A951816E6
:1023500019060CF071C02D818D2D0D2C000C990BE0
:10236000129F800D911D1124181619060CF064C0DF
:1023700078A0C82C912CE62EF12C292D092C000CCC
:10238000330B8C8190E0281739070CF054C001976B
:10239000E0E02817390771F0E89EF001E99EF00DA2
:1023A000F89EF00D11242E0F3F1FEE8DFF8DE20FD2
:1023B000F31FE4915D2C612C492C480C2D81862D56
:1023C000062C000C990B2817190691F18CF1AE2EF2
:1023D000B12CE0FF16C0113061F4462D4D0D642D77
:1023E000CE010E941410F501F595E7956394510E06
:1023F000E5CF012F212F452D6C2DCE010E944111DB
:10240000F2CF89A198A1891771F388A3113041F403
:10241000462D4D0D642DCE010E94141078A2E3CFFD
:10242000012F212F452D6C2DCE010E944111F6CF99
:102430009394C10EA2CF78A228853C818985239FE1
:10244000800D112489879F81992369F0082E000C43
:10245000990B44E550E0239F401951091124481776
:1024600059070CF452CF81E090E0DF91CF911F919A
:102470000F91FF90EF90DF90CF90BF90AF909F9023
:102480008F907F906F905F904F900895682F83E4B6
:1024900094E00C9471110F931F93CF93DF938C01F1
:1024A000D0E0C0E0F801EC0FFD1F6491662341F01D
:1024B00083E494E00E947111892B11F02196F2CFF0
:1024C000CE01DF91CF911F910F910895089590E073
:1024D00080E00895DC0113969C91139712962C913D
:1024E000129730E043E050E0092E02C0440F551F20
:1024F0000A94E2F724233523092E02C03595279547
:102500000A94E2F79E5F13969C931397983069F4B0
:10251000ED91FC91119731961196FC93EE93E49115
:102520001296EC93129713961C92822F0895E62F21
:10253000F0E0EE0FFF1FE75FFE4F0190F081E02D0E
:10254000E80FF11DE151FE4F8081677021E030E01E
:1025500001C0220F6A95EAF7442321F02095282331
:1025600020830895282BFCCFE62FF0E0EE0FFF1F0D
:10257000E75FFE4F0190F081E02DE80FF11DE15182
:10258000FE4F677021E030E001C0220F6A95EAF744
:1025900020958081282320830895BF92CF92DF92D7
:1025A000EF92FF920F931F93CF93DF93162FD42FA9
:1025B000880F990BFC01E652F14F6F018FEFC81A9B
:1025C000D80AC49183E0E82EE60EFF24F39495E048
:1025D000B92EB40E0D2F41E08F2D8C2309F040E071
:1025E000602F812F0E949712FF0C39F4C6010196CB
:1025F000F601C4916C01FF24F3940F5FB012EBCF8E
:102600001F5F1E11E7CF6D2F812F0E94B412DF5F75
:10261000D013F9CFDF91CF911F910F91FF90EF90E1
:10262000DF90CF90BF9008950F931F93CF93DF93C8
:10263000D82F162FC0E00AE01D162CF04BE2612FB8
:1026400080E0C11108C08D2F602F0E94133C4BE227
:10265000612F80E1890F0E94CD1214508D2F602FC1
:102660000E94133CD82FCF5FC33031F7DF91CF9159
:102670001F910F910895EF92FF920F931F93CF93A5
:10268000DF938B01E42EF22ECE2D01C0CC5FF8013A
:10269000D4910F5F1F4F80EE8D0F803420F44F2DAB
:1026A0006C2F0E94CD12DA3019F4F6E0FF0EECCF59
:1026B000D111ECCFDF91CF911F910F91FF90EF904F
:1026C000089520E040E0BC018CE794E00E943B13B9
:1026D00083E494E00C94D30F2F923F924F925F9239
:1026E0006F927F928F929F92AF92BF92CF92DF9222
:1026F000EF92FF920F931F93CF93DF93CDB7DEB787
:102700002E970FB6F894DEBF0FBECDBF8B879C8788
:10271000042E000C550B022E000C330B6111BAC0B5
:1027200006E0220F331F0A95E1F7420F531F440FB3
:10273000551FCA01550FAA0BBB0B89839A83AB8324
:10274000BC831E821D82A091EF03B091F003BE876F
:10275000AD87109709F4C2C012968C91129780FF32
:10276000BDC05A96CD90DD90ED90FC905D9789812B
:102770009A81AB81BC818C159D05AE05BF0510F417
:102780006C017D01AD85BE8556964D905D906D9036
:102790007C905997FD01168A178A108E118EC114EC
:1027A000D104E104F10409F4E7C08180912CB12C3B
:1027B000A12CA9E0880C991CAA1CBB1CAA95D1F7D6
:1027C000411451046104710409F46DC0F1E04F1A21
:1027D000510861087108C701B6016150710981098A
:1027E0009109A50194010E949C3A2F83388749875B
:1027F0005A87C301B201A50194010E949C3A8F81BE
:102800009885A985BA8582179307A407B50708F4A8
:102810004AC088279927DC0188199909AA09BB09A8
:1028200084219521A621B721ED85FE85868B978B86
:10283000A08FB18FC81AD90AEA0AFB0A80A191A118
:102840008C149D04AE04BF04C8F1ED85FE85468955
:102850005789608D718D4C0D5D1D6E1D7F1DDF01D3
:10286000468B578B608F718FF9E0F694E794D7947D
:10287000C794FA95D1F7C3941396CC920E943F0A5D
:10288000611571058105910509F066C0ED85FE852C
:10289000128224C016E0440F551F1A95E1F7420F2B
:1028A000531F505F44CFAD85BE855E968D919C9140
:1028B0005F9791969C938E939097C2CF0E94C20C83
:1028C0008230910538F0ED85FE85208531858217AF
:1028D000930768F1AD85BE8512961C928D819E810D
:1028E00001969E838D83049724F084EC9EE00E94E1
:1028F000611390E22916310408F425CF2E960FB605
:10290000F894DEBF0FBECDBFDF91CF911F910F9125
:10291000FF90EF90DF90CF90BF90AF909F908F90FF
:102920007F906F905F904F903F902F900895ED852E
:10293000FE8591A380A346895789608D718D480DCE
:10294000591D6A1D7B1D468B578B608F718FC81870
:10295000D908EA08FB0874CF61507109810991090F
:102960006C0D711D811D911DAD85BE8592966D9377
:102970007D938D939C939597E091EF03F091F003F5
:10298000F887EF833097B1F1828180FF33C0828D69
:10299000938DA48DB58D46895789608D718D841B6B
:1029A000950BA60BB70B80329105A105B10508F078
:1029B000ADC07C01AB84BC84312C212C66C0EF817E
:1029C000F88580A191A10E94C20C95C0EF81F88585
:1029D00091A380A31382AF81B88590968D919C912D
:1029E0000E943F0A611571058105910531F4EF815F
:1029F000F8851282312C212C71CFAF81B8851396C6
:102A00002C911397AB01BC01420F511D611D711D2B
:102A1000FD0142A353A364A375A381E0820F8383C6
:102A2000AF81B88556962D913C913170C12C82E0D2
:102A3000D82EC21AD30AEC14FD0408F46701EF8102
:102A4000F88542A153A164A175A18281860186FF08
:102A50005BC010688B859C850E94FE0A892B09F05B
:102A60004EC0AC0CBD1CEF81F88586899789A08D7E
:102A7000B18D8C0D9D1DA11DB11D868B978BA08FD7
:102A8000B18F2C0C3D1CEC18FD08E114F10409F485
:102A900025CFAF81B88556964D905D906D907C9016
:102AA0005997D301C2019170AA27BB27892B8A2B82
:102AB0008B2B09F0B5CFEF81F885218130E050E014
:102AC00040E0C301B201E9E0969587957795679557
:102AD000EA95D1F70E949C3A672B682B692B09F085
:102AE0007ACF45284628472809F069CFAF81B885B5
:102AF0005E968D919C918230910508F067CFAF81F1
:102B0000B88512961C9276CFC501A6CF80E290E0E0
:102B1000A0E0B0E04ECF83E08093430710921F0502
:102B200086E080934207089582E0809343071092E5
:102B30001F0586E080934207089581E08093430754
:102B400010921F0586E08093420708951092430774
:102B500010921F0586E080934207089583E08093DA
:102B6000420708958DE492E0909323078093220713
:102B70001092240781E0809325070895E2EFF3E0A7
:102B80009081892F8E7F90FF816080830895FC0162
:102B9000A0816A1744F1218142172CF10A2E000C02
:102BA000BB0B1F96862F062E000C990BA817B90792
:102BB000D4F0022E000C330B215F3F4F842F042EE4
:102BC000000C990B2817390774F04F7080E1489F6B
:102BD000A00111246F70E40FF51FE60FF11DED58F1
:102BE000FF4F808108958FEF0895462F682F88E268
:102BF00095E00E94C71599EE980F81E0983008F093
:102C000080E008952F923F924F925F926F927F9251
:102C10008F929F92AF92BF92CF92DF92EF92FF92EC
:102C20000F931F93CF93DF9300D000D0CDB7DEB7C3
:102C30009A8389837B016A013C832B8338014B0192
:102C400015E0959487941A95E1F7190105E03594FC
:102C500027940A95E1F78214930409F465C082145D
:102C600093040CF0F0C0C4010196A5E0880F991FF1
:102C7000AA95E1F72C01461A570AAA24A394B12C6D
:102C8000B3016C197D09072E000C880B990BE5E048
:102C9000660F771F881F991FEA95D1F72B813C811A
:102CA0002E193F0937FF03C0319521953109032EB5
:102CB000000C440B550B0E94723A0FEF1FE72115D1
:102CC00090E839074105510544F489012130304825
:102CD0004F4F5F4F14F401E010E89801D2010E94B9
:102CE0004F3C20E230E040E050E00E94723A260182
:102CF000420E531E8A0C9B1C2A0C3B1CA20165E051
:102D0000559547956A95E1F7400E511E682D8981CA
:102D10009A810E94C7158A0C9B1C8150863108F449
:102D2000A9C02814390451F7560145E0B594A79479
:102D30004A95E1F7430155E0959487945A95E1F758
:102D4000A814B90409F467C0A814B9040CF083C02E
:102D500015019FEF291A390A35E0220C331C3A95E8
:102D6000E1F72C183D0801E010E06B817C816E19C1
:102D70007F09072E000C880B990B25E0660F771F43
:102D8000881F991F2A95D1F793012C193D0937FF08
:102D900003C0319521953109032E000C440B550BCE
:102DA0000E94723A211590E83907410551050CF04F
:102DB00059C0213080E838078FEF480758070CF4D6
:102DC00056C03C832B832B813C81D1010E944F3C18
:102DD00020E230E040E050E00E94723AE20EF31E42
:102DE000A00EB11E800E911EB70185E07595679506
:102DF0008A95E1F78B819C81E80EF91E4A2D898125
:102E00009A810E94C715A00EB11E8150863190F1A3
:102E10008A149B0449F781E00F900F900F900F9058
:102E2000DF91CF911F910F91FF90EF90DF90CF90A6
:102E3000BF90AF909F908F907F906F905F904F90DA
:102E40003F902F9008952B018FE148225524AA240A
:102E5000AA94BA2C15CF16018FE1282233240FEF44
:102E60001FEF83CF8FEF9FE79C838B83ACCF81E0F5
:102E700090E8FACF80E0D0CF0E94C7159FEF980F5F
:102E800081E0963108F080E008950F931F93CF936F
:102E9000DF938C01C62FD42F0E94C7159FEF980F88
:102EA0009631F8F085538630E0F0F8019801285B00
:102EB0003F4F8281882359F09381C91308C09481C0
:102EC000D91305C0893069F08581803150F036967C
:102ED000E217F30771F780E0DF91CF911F910F9117
:102EE000089581E0F9CFFC0180816817CCF0218141
:102EF0004217B4F0082E000C990B0F96062E000C0A
:102F0000770B8617970764F0022E000C330B215FB6
:102F10003F4F042E000C550B81E0241735070CF4AD
:102F200080E00895BF92CF92DF92EF92FF920F93CD
:102F30001F93CF93DF937C01DC01A65BBF4F90E032
:102F4000CFEF8C91882391F00E3F89F013968C91EE
:102F5000139780130CC080E0DF91CF911F910F91E8
:102F6000FF90EF90DF90CF90BF900895C92F1496F7
:102F70009F5F9A3031F7D22FB42E162FCF3FB1F486
:102F800067018BE4C80ED11CC0E0D60111964C91AC
:102F900011976C91C7010E947317882339F0B4E030
:102FA000CB0ED11CCF5FCA3081F7D5CFEC2FCC0F21
:102FB000FF0BCF01880F991F880F991F8E0D9F1D42
:102FC000DC01A65BBF4F1C9313960C93855B9F4F50
:102FD000DC01BC927396EE0FFF1FEE0FFF1FEE0D8C
:102FE000FF1DD08381E0B8CFBF92CF92DF92EF92E6
:102FF000FF920F931F93CF93DF937C01C62EB42EC5
:10300000D22F2F3F39F00E94C715853119F485E082
:1030100080934207F70110E000E08281882309F4E1
:1030200051C093819C114EC094819B114BC089303B
:10303000B1F5DF3F51F18D2F880F990BFC01EF594E
:10304000FD4FD490FC01EE59FD4FC491CB0DDC0C2B
:103050004C2F6D2D88E295E00E9473178823A9F00C
:103060004C2F6D2D88E295E00E943C1781110DC018
:103070000F5F1F4F26E0209FC001219F900D11245C
:10308000E80EF91EDD5FF701D083DF91CF911F912C
:103090000F91FF90EF90DF90CF90BF90089586E062
:1030A000809FE001819FD00D1124CE0DDF1D8E8108
:1030B000813029F08D81811102C00E94460F81E08C
:1030C0008E83E3CF0F5F1F4F36960C30110509F04A
:1030D000A4CFDBCFCF93DF93FC01A585B685858197
:1030E0009681681B790BC785D08987819085481B9D
:1030F000590BA69FC001A79F900DB69F900D11245C
:10310000C49F9001C59F300DD49F300D1124821BA8
:10311000930B80389F4FC4F06C9F90016D9F300DD2
:103120007C9F300D1124A49FC001A59F900DB49FDA
:10313000900D1124280F391F81E020383F4F0CF0EB
:1031400080E0DF91CF91089581E0FBCFBF92CF92D5
:10315000DF92EF92FF920F931F93CF93DF930AE2D8
:1031600015E0F801CFEF90E03081CF3F99F43323A1
:1031700009F44CC0318134130FC0328132130CC0BA
:10318000DF91CF911F910F91FF90EF90DF90CF9043
:10319000BF9008953111EECF36969F5F9C3021F796
:1031A000D22FD42EC62EB82ECF3F91F58AE2E82E2C
:1031B00085E0F82EC0E0F7018081893041F042813E
:1031C000618188E295E00E947317882309F1F6E097
:1031D000EF0EF11CCF5FCC3071F7C0E0F8018081B9
:1031E000893071F04281042E000C550B6181062E4E
:1031F000000C770B8CE794E00E946A18811108C0DC
:103200000A5F1F4FCF5FCC3049F7BACFC92FC4CF69
:10321000EC2FCC0FFF0B26E02E9FD0012F9FB00D7F
:103220001124A85DBA4F1396DC9213971496DC9381
:10323000149715961C92159731962E9FC0012F9FBB
:10324000900D1124FC01E85DFA4F10821296BC9299
:1032500012971796CC9294CF0F93CF93C82F89EEE5
:103260008C0F883070F483EE8C0F6CE0823008F0A5
:1032700062E18AEE8C0F0E94A6188C2FCF910F91DD
:10328000089587ED8C0F8C3000F5862F90E0362F57
:10329000369536953695A32FB0E058E0359F8019C6
:1032A00091091124E1E0F0E001C0EE0F8A95EAF700
:1032B000A556B94F8C918E2331F4062F6C2F88E2DE
:1032C00095E00E949217C0E0D8CF81EE8C0F863037
:1032D00008F078C0862F90E0362F369536953695D3
:1032E000A32FB0E0E8E03E9F801991091124E1E0AE
:1032F000F0E001C0EE0F8A95EAF7A554B94F8C9122
:103300008E2309F7C03241F1C13209F1CF31D9F62C
:10331000809126076817B9F280913307681799F2F0
:10332000809127078823E9F080913407882361F092
:103330008091320781FF02C080FF13C080913F0758
:1033400081FFC1CF80FDBFCFE1E0F0E00CC08091F4
:103350004307833008F4B7CF809143078230C0F62B
:10336000B2CFF0E0E0E03DE03E9FC0013F9F900D16
:10337000112484589B4FFC01E655FD4F6083319624
:1033800031E0308335961082349730E2439FB001AC
:103390001124605F7F4F71836083329650E2259FD6
:1033A000B0011124605F7F4F718360833696408344
:1033B000319620838E549D4F29E130E0FC0131830A
:1033C000208381CFC03409F058CF809142078230EA
:1033D00009F079CF89E00E94A61875CFDF92EF92AD
:1033E000FF920F931F93CF93DF93D82E80912107E5
:1033F000882351F0209129052D0D4091280560E08A
:103400008BED96E00E946C13009129050D0D0F7055
:1034100080E1089F800111248BEDE82E86E0F82ED4
:10342000D0E0085D1A4FC0912805CD0F20912905E5
:103430002D0D4C2FF701618180810E942C19EC2FFA
:10344000EF70E00FF12FF11DED58FF4F8083F2E098
:10345000EF0EF11CDF5FD03131F7DF91CF911F917B
:103460000F91FF90EF90DF900895DF92EF92FF921F
:103470000F931F93CF93DF93D82E8091210788233A
:1034800051F0409128054D0D2091290561E08BED0B
:1034900096E00E946C13009128050D0D0F708BEDC6
:1034A000E82E86E0F82ED0E0002E000C110BC09123
:1034B0002905CD0F409128054D0D2C2FF701618175
:1034C00080810E942C19CF7090E1C99FF0011124D6
:1034D000E00FF11FE556FA4F8083E2E0EE0EF11C9B
:1034E000DF5FD03121F7DF91CF911F910F91FF90D6
:1034F000EF90DF9008954F925F926F927F928F923C
:103500009F92AF92BF92CF92DF92EF92FF920F9372
:103510001F93CF93DF93EC014B017A015901A8016E
:10352000F5E055954795FA95E1F7B901A5E0759550
:103530006795AA95E1F70E946A188111AFC0C98406
:10354000DA8489819A81A501481B590BAB84BC841C
:103550008B819C81081B190B9601DA010E944F3C5C
:103560002B013C0137E075946794579447943A9542
:10357000D1F79501D8010E944F3CE7E095958795DA
:1035800077956795EA95D1F7F201E61BF70B1E16C2
:103590001F060CF083C09A01D5010E944F3C2B01FD
:1035A0003C0187E075946794579447948A95D1F7C6
:1035B0009601D8010E944F3C27E095958795779515
:1035C00067952A95D1F7460E571E28E4249DC00121
:1035D000259D900D1124BF010E94353C9B01CB011C
:1035E0008D5A9F4F873A910508F058C080E099E0C6
:1035F000BF010E94353C69010AE2C00ED11CAB013B
:103600006F3F710519F014F04FEF50E0DE01A8593B
:10361000BF4F90E080E02D913C911197232BE1F07A
:103620000196179688309105B1F7DE01AB59BF4F6F
:103630008C919E01E7E08E9F200D311D1124B90170
:1036400065597F4FFB019081941715063CF524596D
:103650003F4FF90190819C9367E0A82EB12C9E0109
:10366000689F200D311D1124890106591F4FD80173
:10367000CC92F901E559FF4F4083359791828082C2
:103680003296F182E082FE01EB59FF4F90819F3F1D
:10369000B1F4808324593F4FF9019083DF91CF919A
:1036A0001F910F91FF90EF90DF90CF90BF90AF9060
:1036B0009F908F907F906F905F904F9008958E01B4
:1036C000699F000D111D1124B80165597F4FDB0161
:1036D0006C916417150609F0BCF467E0FE01699F60
:1036E000E00DF11D1124E459FF4F90819F3F91F4AB
:1036F00080836A9D90016B9D300D1124C20FD31FF2
:10370000C459DF4F9883CACF24593F4FD9019C93A6
:103710008083C4CF9E01699F200D311D112425593E
:103720003F4FD9012C9124171506C1F2BCF26A9DB6
:1037300090016B9D300D1124C20FD31FC459DF4F70
:103740009883E6CF2091000130910101C90196953F
:10375000879520FD0AC0909301018093000180911C
:103760000001909101010197089524EB9227F3CF76
:10377000282F30E0F901E959FE4F813430F08138CB
:1037800038F4E7EEF1E0E21BF30B849190E008954A
:10379000F901E951FF4F813C20F0E7E6F2E0E21B3E
:1037A000F30B849190E09195819591090895E62F0E
:1037B000F0E0EE0FFF1FE75FFE4F0190F081E02D7C
:1037C000E80FF11DE151FE4F677021E030E001C0CC
:1037D000220F6A95EAF78081822B808308952F92C9
:1037E0003F924F925F926F927F928F929F92AF9291
:1037F000BF92CF92DF92EF92FF920F931F93CF93DE
:10380000DF93CDB7DEB763970FB6F894DEBF0FBE78
:10381000CDBF38872F830987EE82CD82E090850463
:10382000F090860480907D0490907E048C010819AD
:103830001909C0908704D090880460907F0470902C
:1038400080045B01A618B7089701D8010E944F3C7D
:103850001B012C0167E055944794379427946A958F
:10386000D1F79601D5010E944F3CE7E095958795E9
:1038700077956795EA95D1F7F101E61BF70B98016B
:10388000D6010E944F3C1B012C01A7E055944794A0
:1038900037942794AA95D1F79701D5010E944F3C00
:1038A0008B019C01B7E03595279517950795BA953B
:1038B000D1F7020D131D481959098F819885861972
:1038C00097093C019701DA010E944F3C4B015C01D2
:1038D00087E0B594A794979487948A95D1F7960139
:1038E000D3010E944F3CA7E0959587957795679502
:1038F000AA95D1F7861A970ADA010E944F3C1B015C
:103900002C01B7E05594479437942794BA95D1F792
:103910009701D3010E944F3C27E0959587957795B5
:1039200067952A95D1F7260E371E181419040CF442
:10393000DAC01E161F060CF042C141E050E04819E3
:103940005909B80162197309469FC001479F900D3C
:10395000569F900D1124BF01681979090E94353CCA
:10396000260E371E88248394912C48E4429DC00182
:10397000439D900D1124B4010E94353C7B019AE2D5
:10398000E90EF11C409FC001419F900D1124BF0121
:103990000E94353C2B0129E2420E511C9701F7FE93
:1039A00002C030E020E0C20144E54416510414F0A6
:1039B00083E590E0821793070CF401C120E039E021
:1039C000C901B4010E94353C8B01C901BF010E94AD
:1039D000353C12012E183F08410195948794061733
:1039E00017070CF09CC0CB01801B910B9C878B8729
:1039F00081E090E09E878D879E814D81C42EC91AFB
:103A000081E0941724F0CE804D81C41A8FEF8F8708
:103A1000898520E4829FC00111249A878987340117
:103A20008C2DCC0C990B9B8B8A8B4E145F040CF461
:103A3000C6C094E5E916F10408F0A0C0F701E45807
:103A4000FB4F8189801711060CF098C00F3F1105BC
:103A500011F00CF06CC0018B5801B594A79498E15B
:103A6000C92ED12CCA18DB08C501489698878F83C8
:103A70009E8124E09202F001112489859A85E80F45
:103A8000F91FEC5BF64F1C82FA83E983E491EB8328
:103A9000CE0101960E946A128D83C7018170992719
:103AA000998B888B8F819885C816D9060CF05EC0DB
:103AB00090E3C916D10450F42D812130D9F108F4D6
:103AC00043C02230E1F1233009F444C04FE0A41A8E
:103AD000B108B7FE47C0CE0101960E946A128D83DD
:103AE000A00EB11EF6CF1E161F060CF43ECF41E00D
:103AF00050E04E1B5F0BB101601B710B469FC00174
:103B0000479F900D569F900D1124B4016E1B7F0BA3
:103B10000E94353C060F171FE1E0F0E026CFC801F8
:103B2000861B970B9C878B878FEF9FEF63CF2FEFC1
:103B3000218B92CF6C2D8E2D0E94B412C7CF6C2D8D
:103B40008E2D0E94D71BC2CFC7018C256C2D80FF04
:103B5000F7CFF1CF888999898C219D216C2D892BF4
:103B600051F3EECF8FEFC81AD80A9CCF8F8198857A
:103B7000C09724F46F818E2D0E94D71B8B859C8566
:103B8000881A990A8A899B89681A790A1214130477
:103B900094F497FE07C08D859E85080F191F820C2F
:103BA000931CF7CF77FE07C09E812F85920F9E83CF
:103BB000620C731CF7CF4FEFE41AF40A36CF63960A
:103BC0000FB6F894DEBF0FBECDBFDF91CF911F912E
:103BD0000F91FF90EF90DF90CF90BF90AF909F90AC
:103BE0008F907F906F905F904F903F902F900895AF
:103BF00020911A0530911B05FC0142815381241B41
:103C0000350B37FF03C031952195310945E03595D6
:103C100027954A95E1F740911C0550911D05FC013F
:103C200084819581481B590B57FF03C051954195DD
:103C3000510985E0559547958A95E1F7822F24171C
:103C40000CF4842F0895FF920F931F93CF93DF936B
:103C50008C01D62FC42F88E295E00E944517882357
:103C600039F06C2F8D2F0E94F515882309F468C058
:103C7000F801F2844C2F6F2D88E295E00E944517E1
:103C8000882339F06C2F8F2D0E94F515882309F4B5
:103C900057C0F801F3844F2D6D2F88E295E00E9404
:103CA0004517882339F06F2D8D2F0E94F515882335
:103CB00009F446C0F7E006321F0709F18091270793
:103CC0008823C9F080912E0790912F0718161906A6
:103CD00094F4209130078D2F0D2E000C990B28178E
:103CE000190649F4209131078C2F0C2E000C990BEA
:103CF0002817190659F187E003331807E9F0809176
:103D000034078823C9F080913B0790913C0718162F
:103D1000190694F420913D078D2F0D2E000C990B60
:103D20002817190649F420913E078C2F0C2E000C01
:103D3000990B2817190651F0F801D287C38781E043
:103D4000DF91CF911F910F91FF90089580E0F8CF00
:103D5000FC014281538120911A0530911B05B90164
:103D60006052710946175707BCF0205E3F4F241779
:103D7000350794F04481558180911C0590911D0573
:103D80009C01205231094217530734F0205C3F4F09
:103D900081E0241735070CF480E00895CF92DF927C
:103DA000EF92FF920F931F93CF93DF93809127079A
:103DB000882369F080912E0790912F071816190615
:103DC00034F486E297E00E94A81E81115EC08091C3
:103DD0003407882369F080913B0790913C071816BF
:103DE000190634F483E397E00E94A81E81114DC0A8
:103DF000C0911C05D0911D0500911A0510911B055D
:103E0000780188E0E81AF10825E0F594E7942A950E
:103E1000E1F76E0188E0C81AD10835E0D594C7945F
:103E20003A95E1F74C2D6E2D88E295E00E944517FA
:103E300081112BC0085F1F4F95E0159507959A9546
:103E4000E1F74C2D602F88E295E00E944517811123
:103E50001CC0289685E0D595C7958A95E1F74C2F2B
:103E6000602F88E295E00E94451781110EC04C2F0B
:103E70006E2D88E295E0DF91CF911F910F91FF9019
:103E8000EF90DF90CF900C944517DF91CF911F9169
:103E90000F91FF90EF90DF90CF900895AF92BF9277
:103EA000CF92DF92EF92FF920F93CF93DF93FC01BB
:103EB00080859185009709F460C0861797070CF0FC
:103EC00066C01186108680859185892B09F06CC0AB
:103ED00086E0868385E087832081822F869586957C
:103EE000869590E0DC01A554B94F33E0880F991F07
:103EF0003A95E1F7281B81E090E0AC0102C0440F45
:103F0000551F2A95E2F78C91842B8C93C281D38123
:103F100045E0D595C7954A95E1F7E480F58055E0F1
:103F2000F594E7945A95E1F74E2D6C2F88E295E0D1
:103F30000E94C7156E0151E0C51AD1080EEF2E2D53
:103F40004C2F8823A9F0CC15DD05BCF0570181E08A
:103F5000A81AB108EA14FB041CF14A2D6C2D88E262
:103F600095E00E94C715811117C00EEF2A2D4C2D28
:103F700069E288E295E00E949217DF91CF910F915C
:103F8000FF90EF90DF90CF90BF90AF900895861B89
:103F9000970B9187808797CF4FEFA41AB40ADACF97
:103FA0005FEFC51AD50ACFCF82E0868385E087838D
:103FB000E4CFFC018281938135E0959587953A9510
:103FC000E1F740912805042E000C550B8417950746
:103FD00004F16481758125E0759567952A95E1F76F
:103FE00020912905022E000C330B621773078CF009
:103FF000415F5F4F4817590764F0215F3F4F91E0E1
:10400000261737070CF090E0848590FB81F98487B0
:10401000089591E0F9CFCF93DF9387FD80E0C62F1D
:1040200067FDC0E0D82F81330CF0D0E3C1330CF032
:10403000C0E380914207823041F130912805832FFF
:10404000032E000C990B4D2F0D2E000C550BBC01AF
:104050006F50710946175707C4F00F9684179507DC
:10406000A4F020912905822F022E000C990B4C2FD1
:104070000C2E000C550BBC016F50710946175707E9
:1040800024F00F9684179507F4F4D0932805C09375
:10409000290580912707882321F086E297E00E9476
:1040A000D91F80913407882321F083E397E00E9491
:1040B000D91FC0E08C2F0E94EE19CF5FC031D1F71D
:1040C000DF91CF9108953D130DC02C17C9F3809156
:1040D00029058C17ECF48F5F809329058FE00E94EF
:1040E000EE19F5CF809128058D173CF48F5F8093F2
:1040F00028058FE00E94351AF5CF80912805D81742
:1041000034F781508093280580E00E94351AF5CF5E
:1041100080912905C817A4F681508093290580E075
:104120000E94EE19F5CF2F923F924F925F926F92BD
:104130007F928F929F92AF92BF92CF92DF92EF9237
:10414000FF920F931F93CF93DF93CDB7DEB72A97DC
:104150000FB6F894DEBF0FBECDBF80911E05805C08
:104160000E94B81B7C0180911E050E94B81B6C0147
:1041700080911F05882309F46BC38091F103282FD8
:1041800020712A87982F9072803109F0B5C18091F3
:10419000210581118EC181E080932105992309F4C5
:1041A000B9C18091270580FD0AC0816080932705F1
:1041B00081FD09C0826080932705109226058091B9
:1041C000270581FF10C0809126058F5F809326050B
:1041D000863009F4C8C208F0A3C1823009F4C7C20E
:1041E000843009F4ABC14091F10342FFD0C257E0E3
:1041F0005E9D90015F9D300D1124220F232F221F01
:10420000330B3195219531095C9DC0015D9D900D69
:104210001124880F892F881F990BAA24BB24A81A60
:10422000B90A40FF17C057E05E9DB0015F9D700D59
:104230001124660F672F661F770B260F371F5C9DB3
:10424000B0015D9D700D1124660F672F661F770BFF
:10425000A60EB71E43FF1BC0EA85EE2309F49CC2DD
:1042600057E05C9DB0015D9D700D1124660F672FB6
:10427000661F770B260F371F5E9DB0015F9D700D87
:104280001124660F672F661F770BA61AB70A41FF26
:104290001BC0FA85FF2309F485C267E06C9DA0016D
:1042A0006D9D500D1124440F452F441F550B241BA9
:1042B000350B6E9DA0016F9D500D1124440F452FAD
:1042C000441F550BA40EB51E80911A0590911B0535
:1042D0009A838983280F391F30931B0520931A0571
:1042E00000911C0510911D05A00EB11EB0921D0578
:1042F000A0921C050E94CE1E8823D1F010931D05AC
:1043000000931C050E94CE1E882391F0E981FA815A
:10431000F0931B05E0931A05B0921D05A0921C05B1
:104320000E94CE1E882321F010931D0500931C05CA
:1043300020911A0530911B0595E0359527959A95A2
:10434000E1F73A832983998000911C0510911D059E
:1043500025E0159507952A95E1F7802E2FEF402F40
:10436000692D88E295E00E94F4179701F7FE04C0DA
:10437000222733272E193F09C601D7FE04C08827FC
:1043800099278C199D09821793070CF014C2698133
:104390001E141F040CF00CC26F5F21E0402F88E256
:1043A00095E00E94F41782E795E09A838983BAE941
:1043B000AB2EB5E0BB2E01E010E082E0782E662443
:1043C0006394E981FA818081882369F1918199124E
:1043D0002AC09281891227C08A3209F423C208F0C8
:1043E000F5C1893209F40AC284E00E94460FE981CE
:1043F000FA8110822381822F86958695869590E09A
:10440000FC01E556F94FA3E0880F991FAA95E1F743
:10441000281BC80102C0880F991F2A95E2F79C014A
:104420008081822B8083E981FA813496FA83E98343
:10443000AE16BF0631F620911C0530911D0585E0B2
:10444000359527958A95E1F7C60163E170E00E94F2
:10445000353C260F371F2850E0911A05F0911B05B7
:1044600095E0F595E7959A95E1F7C70163E170E06E
:104470000E94353CCF01860F971F622F88502A96E5
:104480000FB6F894DEBF0FBECDBFDF91CF911F9165
:104490000F91FF90EF90DF90CF90BF90AF909F90E3
:1044A0008F907F906F905F904F903F902F900C94E3
:1044B0000B20823078F11092210580912305813004
:1044C00059F48091220580FF0BC082E08093230580
:1044D00065CE1092230562CE823031F480912205A0
:1044E00081FFF7CF83E0F2CF8330A1F080912405E4
:1044F000882381F081E0EACF811109C080912105F4
:10450000882341F08F5F80932105863018F0109248
:10451000210544CE809127058E7F809327054FCEBD
:10452000883009F42AC18A3009F05DCE1092250541
:10453000809127058D7F8093270555CE82E080935B
:1045400025050E94460F80912305882329F080913C
:10455000240581508093240590911E0580E4891BD9
:104560000E94B81B98878F8380911E0581950E94B9
:10457000B81B9A838983E0911A05F0911B05FC838F
:10458000EB83E0911C05F0911D05FE83ED832090E7
:104590002305E7E2F7E010E000E02FEF2987312C58
:1045A0008081882309F463C08781908518161906D5
:1045B0000CF05DC0818092808B819C81881A990A61
:1045C000A380B4802D813E81A21AB30A2F81388541
:1045D000D4010E944F3C2B013C0187E07594679405
:1045E000579447948A95D1F729813A81D5010E9441
:1045F0004F3C27E095958795779567952A95D1F754
:10460000A201461B570B423051058CF19401A98140
:10461000BA810E944F3C2B013C01A7E0759467943E
:1046200057944794AA95D1F72F813885D5010E94D8
:104630004F3CB7E09595879577956795BA95D1F7F3
:10464000460E571E39EF43163FEF530684F088E0BD
:104650004816510464F4411590E1590714F02220E2
:1046600031F029852F3F39F14017510724F13D964C
:1046700031E033121DC089858F3F09F466C0282FB1
:10468000880F330B21101AC00E94A21B74E095956D
:1046900087957A95E1F7BC016F707727E985FDE092
:1046A000EF02C00111248A5D984F0E944E1F4DC039
:1046B0003324339475CF8A013986D9CF6DE0B62E75
:1046C000B29EC001B39E900D112484589B4FFC01F3
:1046D000E255FD4F0081118184559D4FFC012081E1
:1046E00031814D815E816B817C8188E295E00E9401
:1046F0000216882379F1F9852B2DF202800111240D
:104700000A5D184FC8010E94F81D8983823044F465
:104710000E94A21B86958695682F70E0C801C5CFC0
:104720003981343034F40E94A21B66E00E94073CB9
:10473000F3CF0E94A21B6CE00E94073C9981292FB5
:10474000990F330B8217130674F780912305882382
:1047500009F449CD80912405811145CD109223059E
:1047600010922605E3CE80912305823021F481E06A
:104770008093250538CD83E0FBCF809123058230DF
:10478000B1F7992309F4D2CE809326052CCDB12C14
:10479000A12C30E020E045CD50911E0553505093A0
:1047A0001E0575CD40911E054D5F40931E058CCDB5
:1047B000615023E0F3CD41E0400F22E01C141D04C2
:1047C0001CF04FEF400F20E06981E9CD8C32B1F150
:1047D000813309F009CE809124058C3508F08BE5F2
:1047E000885F8093240584E00E94460F7092230521
:1047F00080912205816080932205F6CD8091240569
:10480000833608F010CE811106C0909123059111D6
:1048100002C0609223058C3508F08BE5885F809399
:104820002405E2CD80911F05843608F0FCCD8C3440
:1048300008F08BE4875E80931F05D6CD80911F051D
:10484000843608F0F0CD8B3508F08AE5865FF3CF2B
:1048500090911E0580E4891B0E94B81B8C018091F9
:104860001E0581950E94B81B40912005FDE04F9FD9
:10487000A001112444585B4FFA01E455FD4F2081FB
:10488000318160911A0570911B05261B370BDC01E5
:104890000E944F3C4B015C0167E0B594A79497944C
:1048A00087946A95D1F742555D4FFA012081318195
:1048B00080911C0590911D05281B390BD8010E9481
:1048C0004F3CE7E09595879577956795EA95D1F701
:1048D0009401260F371F3A83298380911E051216F3
:1048E00013060CF04FC08D5F80931E0590911E053E
:1048F00080E4891B0E94B81B8C0180911E05819564
:104900000E94B81B409120053DE0439FA001112467
:1049100044585B4FFA01E455FD4F2081318160918D
:104920001A0570911B05261B370BDC010E944F3CBA
:104930004B015C0127E0B594A794979487942A953E
:10494000D1F742555D4FFA012081318180911C05DC
:1049500090911D05281B390BD8010E944F3C37E070
:1049600095958795779567953A95D1F7680D791D57
:1049700029813A8137FF08C077FF0DC085E0809319
:104980007C0459CD8350B0CF89819A81892BB1F3B2
:10499000161617069CF384E0809342071092410795
:1049A00010924007EBCFFC0101900020E9F731970E
:1049B000AF01481B590BBC0183E494E00C94280818
:1049C0008F929F92AF92BF920F931F93CF93DF93DB
:1049D000CDB7DEB7A1970FB6F894DEBF0FBECDBF3F
:1049E00019A2423008F44AE08E010F5D1F4F842E59
:1049F000912CB12CA12CA50194010E949C3AE62F88
:104A0000B901CA01EA30F4F4E05DD801EE938D01FA
:104A1000232B242B252B79F790E080E0109719F0B9
:104A2000CD010E94D324A1960FB6F894DEBF0FBE2D
:104A3000CDBFDF91CF911F910F91BF90AF909F900D
:104A40008F900895E95CE1CFEFEEF1E088EF91E01F
:104A5000DF019C011D9221503040E1F710924C047F
:104A600010924D048CE199E00E944B1283E494E093
:104A70000E94D30F8CB583608CBD8DB58E7F8DBDAC
:104A800085E891E0EEEFFFE309951092490487EF86
:104A900098E00E944B128CE891E00E94D32483E4BA
:104AA00094E00E94D30F0E941B0980910A04813078
:104AB00039F062E370E080E090E00E940D0AF3CFED
:104AC00008950C9424254F925F926F927F928F925B
:104AD0009F92AF92BF92CF92DF92EF92FF920F938D
:104AE0001F93CF93DF9300D000D01F92CDB7DEB7D6
:104AF0004091750450917604609177047091780428
:104B00002FB7F8948091EB019091EC01A091ED0109
:104B1000B091EE012FBF481B590B6A0B7B0B8091A4
:104B2000740490E0B0E0A0E0009170041091710472
:104B3000209172043091730484179507A607B70774
:104B400008F0CEC0011511052105310509F4C8C0D2
:104B50002FB7F8948091EB019091EC01A091ED01B9
:104B6000B091EE012FBF20917404820F911DA11D01
:104B7000B11D8093750490937604A0937704B0934D
:104B800078048091660490916704A0916804B091C4
:104B900069040196A11DB11D80936604909367047A
:104BA000A0936804B0936904109270041092710489
:104BB00010927204109273040E94E80960936C04CE
:104BC00070936D0480936E0490936F048091F6034C
:104BD0009091F7032FE0289FA001299F500D1124E9
:104BE0005A83498385E10E949F09A981BA818A0F6E
:104BF0009B1FB4E096958795BA95E1F79093F703DC
:104C00008093F6032091F503222309F448C06091B4
:104C1000F903262F30E050E040E029833A834B83AC
:104C20005C83C090FA03D12CF12CE12C4091FD0360
:104C30005091FE034A01B12CA12C2091FB0330912D
:104C4000FC032901712C612C8217930728F09C0129
:104C50004817590708F49A0150E040E02419350933
:104C60004609570969817A818B819C816C197D097C
:104C70008E099F090E94F73BA5019401241935096B
:104C8000460957090E94723AC20ED31EE41EF51E51
:104C9000C092F8036C2D70E085E00E9442090E94EA
:104CA0001B098091110490911204892B11F00E942C
:104CB000B10981E00F900F900F900F900F90DF914E
:104CC000CF911F910F91FF90EF90DF90CF90BF9009
:104CD000AF909F908F907F906F905F904F900895CE
:104CE000012B022B032B09F08BC180910C04815006
:104CF0008E3FC8F580910B048130A9F580911F0487
:104D00008F5F6091200487FD09C0082E000C990B6D
:104D100070E06F5F7F4F0E94353C682F60931F04E7
:104D200080EF98E090937A048093790488E48093EC
:104D30007B048AE194E00E94370F8DED98E0909318
:104D400028048093270410922D0410922C0481E0F3
:104D500080931B0489E080933004109233041092F6
:104D600035041092370480910C0481508E3F70F40A
:104D700080910A04813009F023C383EE98E0909378
:104D80007A048093790488E480937B0480911A04E8
:104D9000882331F080911B04811102C00E946F0FA3
:104DA00080911B04882309F43EC080912F04811157
:104DB0003AC08091270490912804E0912C04F0914E
:104DC0002D04EE0FFF1FE80FF91F259134912115D7
:104DD000310509F46CC1A90156954795569547953B
:104DE000842F20FD0FC18F7380932E0480911E04A9
:104DF000839F802D112480932F0410923F041092E2
:104E00003E0410923D0481E0809331048093EA01D6
:104E10001092320480912C0490912D04019690936D
:104E20002D0480932C0480913104882341F08091DB
:104E30002F04811158C18AE194E00E94370F8091BC
:104E40007B04882309F490C08C3008F036C23CE023
:104E5000381B3983FF24F394F0924B0410926304BF
:104E600010926404409148044D831981141B042F4F
:104E70000D5F4DE2410F2EE463E083E494E00E9475
:104E800041115D8154505D83105D252F41E0612FFC
:104E900080E50E94EE102D8142E0612F83E00E94A8
:104EA000EE10F0926304F09264040091480483E0F1
:104EB000800F8D831981101B9DE2E92EE10E23E006
:104EC000F22E4E2D6F2D83E494E00E941410F39483
:104ED00091E5F912F6CFAD81AE0DAD83EA2EEA94DD
:104EE00083E0F82E4E2D6F2D83E494E00E94141081
:104EF000F394B1E5FB12F6CF0350105D402F612F04
:104F000080E00E94D610402F612F83E50E94D610CA
:104F100041E0612F83E00E94581042E0612F80E55C
:104F20000E9458102D8124502D8344E0622F80E58B
:104F30000E94581048E06D8183E00E94581084E080
:104F400080934C04809148043981381B315D309343
:104F50004D048091790490917A040E944B128091C3
:104F60007B04815080937B04809111049091120402
:104F7000892BE1F041E04093630410926404909126
:104F8000470485E5891B80934C0410924D04809161
:104F90000E04813009F4F9C108F491C190910D0417
:104FA000853008F008C28B5F911100C283E494E061
:104FB0000E94D30F8091490481110EC0EFEEF1E001
:104FC00088EF91E0DF019C011D9221503040E1F714
:104FD00010924C0410924D040E94E80960937004F2
:104FE00070937104809372049093730420916C0405
:104FF00030916D04621B730B70936B0460936A04B1
:1050000080E058CEC901E6E096958795EA95E1F7EC
:105010008F71932F96959695969590514F7042303B
:1050200099F1D0F4442309F43CC04130B9F1E09146
:105030002C04F0912D043196F0932D04E0932C0470
:10504000CF01880F991FE0912704F0912804E80F01
:10505000F91F25913491BFCE433061F0443039F7C8
:1050600020911E04289F802D112480933704909353
:105070003804DDCF20911E04289F802D11248093B9
:10508000350490933604D3CF20911E04289F802DA1
:1050900011248093330490933404C9CF0E94F00705
:1050A000C6CF8B3008F08AE080933004C0CF2091C7
:1050B0002B04211112C010921B0480911A0481113B
:1050C00005C08AE194E00E94370FADCE0E946F0FB9
:1050D00080912C0490912D04B4CF10922D04109245
:1050E0002C04FC01B6CF815080932F0480913F04A3
:1050F000811142C020913D0430913E042F5F3F4F0B
:10510000C901880F991FE0913904F0913A04E80F22
:10511000F91F85919491482F477040934004492F7F
:105120004695469540934104AC0164E056954795F9
:105130006A95E1F74F7390911E04499F402D112409
:1051400040933F0483FB882780F98093E9013093E3
:105150003E0420933D0480913B0490E028173907DA
:1051600058F020913C04222309F49FC0821B91092E
:1051700090933E0480933D0480913F04815080933E
:105180003F048091320431E0380F30933204409173
:105190002E0420914104240F80912604280F20938F
:1051A0001C0460913504662371F070E0832F032E98
:1051B000000C990B0E94353C80913604869F200D8F
:1051C000112420931C0480911C0490E0849664E2D6
:1051D00070E00E94353C80931C04209130042093A1
:1051E0001D0460913304662381F0062E000C770BBA
:1051F000832F032E000C990B0E94353C80913404C0
:10520000869F200D112420931D046091370466238E
:10521000A1F0832F330F990B70E00E94353CCB0136
:1052200062E070E00E94353C2091380490911D04AA
:10523000289F900D112490931D044F3309F43AC018
:1052400080911D048A300CF089E087FD80E0809316
:105250001D04F894E0911C04F0E0E754F74FE4914A
:10526000E093E8012091420430911D043203900143
:105270001124409140044203C001439F900D11242A
:1052800020911F0402C0880F991F2A95E2F797FF0B
:1052900002C081589F4F880F892F881F990B8093D8
:1052A000E7018093E6017894CACD8AE194E00E94F8
:1052B000370F62CF10921D04CCCF1982CBCD8AE17B
:1052C00094E00E94370F10921B0451E050934B045E
:1052D000E7E3F7E0E491EF5FE0934704E8E3F7E00A
:1052E000E491EF5FE093480489E397E090936204D0
:1052F00080936104109212041092110410924904D8
:1053000088EA89830E9463258823E1F389E297E094
:105310000E944B1260910F047091100490E080E0A5
:105320004AE00E94E02484E197E00E944B126981E8
:1053300062956F7070E090E080E04AE00E94E024A7
:1053400089E097E00E944B1280910A04813009F4B1
:105350002DCE9981915099839111D4CF70E060E066
:1053600085E00E94420983B7817F846083BF83B751
:10537000816083BF83B7816083BF889583B78E7F49
:1053800083BF83B78E7F83BFBDCF8091660490912A
:105390006704A0916804B09169048F709927AA27C7
:1053A000BB270897A105B10520F487E00E944612AB
:1053B000FDCD88E7FBCF992309F4F8CD8FE2F6CF36
:1053C000893209F0E3CC0E942425E0CC6F927F92D1
:1053D0008F929F92AF92BF92CF92DF92EF92FF9205
:1053E0000F931F93CF93DF93182FD62E0E94632520
:1053F000AD2C0D2C000CBB08C12F012E000CDD0BB9
:10540000A501BE018CE794E00E946A18811136C0A4
:105410008D2D8F7020E1829FC0011124885D9A4FED
:10542000E12FEF70E80FF92FF11DED58FF4F80814C
:10543000882321F195E0CC0FDD1F9A95E1F725E057
:10544000AA0CBB1C2A95E1F795EC980F953028F52E
:105450008501005F1F4F9E01205F3F4F8B53990BCB
:1054600045E0489FB001499F700D11246051794F6C
:1054700046E256E08CE794E00E947B1ADF91CF91E0
:105480001F910F91FF90EF90DF90CF90BF90AF9062
:105490009F908F907F906F9008959BEC980F96301F
:1054A00098F48501005F1F4F9E01205F3F4F855399
:1054B000990B45E0489FB001499F700D1124685F2A
:1054C000794F47E855E0D6CFFF24FA94F80E85E1EE
:1054D0008F15A0F280917F049091800460907D04EC
:1054E00070907E048A159B050CF098C00FEF0D0D8F
:1054F000602F812F0E94F515C615D7050CF049C005
:105500004E0190E2890E911C882331F18FE0C82E64
:10551000E12C03E19501A401B501CE010E94EF1B2E
:1055200080917D0490917E04881699060CF0A6CF98
:105530001F5F6D2D812F0E94F5158823D1F09501F5
:10554000205E3F4FDFE0CD2EE12C03E1A401B50149
:10555000C4010E94EF1B92CF402F612F88E295E09B
:105560000E943C178111DCCF0FE0C02EE12C0F2DE3
:10557000D1CF4D2D612F88E295E00E943C1781111B
:105580007DCF9501205E3F4FCFE0CC2EE12C0F2D3B
:10559000DDCF882331F1BFE0CB2EE12C03E1950173
:1055A000AE01405E5F4FB501CE010E94EF1B8091BE
:1055B0007D0490917E048C179D070CF05FCF1150F5
:1055C0006D2D812F0E94F5158823C1F0B501605E15
:1055D0007F4FFFE0CF2EE12C03E19501AE01CE011C
:1055E000B8CF402F612F88E295E00E943C178111CF
:1055F000DECFAFE0CA2EE12C0F2DD1CF4D2D612F84
:1056000088E295E00E943C17811138CFB501605EB9
:105610007F4FEFE0CE2EE12C0F2DDFCF450120E2B2
:10562000820E911CC615D7050CF04AC03E0120E23F
:10563000620E711C8816990694F401E00D0D602F1E
:10564000812F0E94F515882371F17FE0C72EE12C90
:1056500003E19401AE01B401C3010E94EF1B8091EC
:105660007D0490917E04681679060CF007CF1F5FC9
:105670006D2D812F0E94F5155FE0C52EE12C03E111
:1056800081110CC04D2D612F88E295E00E943C17DE
:105690008111F4CE4FE0C42EE12C0F2D9401A30113
:1056A000B501C30156CF402F612F88E295E00E94DB
:1056B0003C178111D4CF6FE0C62EE12C0F2DC9CF3E
:1056C000881699069CF401E00D0D602F812F0E9431
:1056D000F515882371F13FE0C32EE12C03E194011D
:1056E000AE01B401CE0180960E94EF1B80917D0433
:1056F00090917E048C179D070CF0C0CE11506D2D3B
:10570000812F0E94F5159FE0C92EE12C03E1811144
:105710000CC04D2D612F88E295E00E943C1781114D
:10572000ADCE8FE0C82EE12C0F2D9501AE01B40156
:1057300056CF402F612F88E295E00E943C178111DF
:10574000D5CF2FE0C22EE12C0F2DC9CF1F920F9283
:105750000FB60F9211242F933F938F939F93AF9384
:10576000BF938091EB019091EC01A091ED01B0917C
:10577000EE0130919E0123E0230F2D3758F501965D
:10578000A11DB11D20939E018093EB019093EC012C
:10579000A093ED01B093EE0180919F019091A00143
:1057A000A091A101B091A2010196A11DB11D80930C
:1057B0009F019093A001A093A101B093A201BF917A
:1057C000AF919F918F913F912F910F900FBE0F90AE
:1057D0001F90189526E8230F0296A11DB11DD2CF68
:1057E0001F920F920FB60F9211242F936F937F93F6
:1057F0008F939F936091E701662349F180919C010B
:105800008F5F80939C019091E801891700F12091AE
:10581000EA0181E028272093EA0110929C018091FF
:10582000E901882369F08091020193E4899F802D2A
:105830001124895B809302010E94073C9093E6014A
:105840008091E601211101C080E08093B4009F9116
:105850008F917F916F912F910F900FBE0F901F909E
:10586000189562E070E080E290E00E945E3C9093C8
:10587000F4038093F30310924604109245048DE6DE
:1058800091E09093440480934304EAE2F5E01082AF
:10589000369685E0E237F807D1F70895CF93DF9386
:1058A000CDB7DEB7C555D1090FB6F894DEBF0FBE30
:1058B000CDBF789484B5826084BD84B5816084BD99
:1058C00085B5826085BD85B5816085BD80916E009E
:1058D000816080936E0010928100809181008260CF
:1058E000809381008091810081608093810080910C
:1058F00080008160809380008091B10084608093FB
:10590000B1008091B00081608093B00080917A00F6
:10591000846080937A0080917A00826080937A001C
:1059200080917A00816080937A0080917A0080680B
:1059300080937A001092C10082E38093740481E026
:1059400090E0A0E0B0E08093700490937104A09385
:105950007204B09373048FEF80936504E0E8F7E777
:10596000259134912130304C09F05CC3E6E9F7E72A
:10597000E491E0934E04E7E9F7E7E491E093F9035B
:10598000E8E9F7E7E491E093FA03E9E9F7E78591BD
:1059900094919093FC038093FB03EBE9F7E78591E7
:1059A00094919093FE038093FD0387E080932004FD
:1059B000EEE9F7E7E491E0931F04EFE9F7E7E491FC
:1059C000E0936504E0EAF7E78591949190931204DF
:1059D00080931104E2EAF7E785919491909314047F
:1059E00080931304E4EAF7E7859194919093160469
:1059F00080931504E6EAF7E7859194919093180453
:105A00008093170411E01093F5036FEF70E085E0C9
:105A10000E94420988E08093FF0389E0809300049C
:105A200087E08093010486E08093020404E0009301
:105A3000030482E08093040481E1809305040E94C2
:105A40001B098CE39FE09093100480930F04009354
:105A50000E04109319048BE0809351048DE0809321
:105A6000500480E1809352048EE0809354048FE0D0
:105A70008093530410934B041093630410926404B6
:105A800010934A04E7E3F7E0E491EF5FE093470403
:105A9000E8E3F7E0E491EF5FE093480489E397E0FF
:105AA00090936204809361041FB7F8948091A301DE
:105AB000811127C0ECEFF1E08491EEEDF1E09491DB
:105AC000E82FF0E0EE0FFF1FE653FE4FA591B491D3
:105AD000EC91E92321F461E08AE00E94A70861E0EB
