:100000000C9457100C947F100C947F100C947F105C
:100010000C947F100C947F100C947F100C947F1024
:100020000C947F100C947F100C947F100C94B81FCC
:100030000C947F100C947F100C947F100C947F1004
:100040000C946E1F0C947F100C947F100C947F10F6
:100050000C947F100C947F100C947F100C947F10E4
:100060000C947F100C947F1002140C01010101010B
:100070000101010101010101010101010101010170
:100080000101010101010101010101010101010160
:100090000101010101010101010101010101010150
:1000A0000101010101010101010101010101010140
:1000B0000101010101010101010101010101010130
:1000C0000101010101010101010101010101010120
:1000D0000101010101010101010101010101010110
:1000E0000101010101010101010101010101010100
:1000F00001010101010101010101010101010101F0
:1001000001010101010101010101010101010101DF
:1001100001010101010101010101010101010101CF
:1001200001010101010101010101010101010101BF
:1001300001010102020000000000000000000000B8
:1001400000000000000000020200000000000000AB
:1001500000000000000000000000000440FE01015B
:10016000370101FE0107010737FE010D370D01FEC2
:100170000113011337FE0119371901FE011F011F79
:1001800037FE0125372501FE012B012B37FE0131FA
:10019000373101FE0137013737FE013D373D01FEA2
:1001A0000143014337FE0149374901FE014F014F29
:1001B00037FE0155375501FE015B015B37FE0161DA
:1001C000376101FE0167016737FE016D376D01FE82
:1001D0000173017337FE03013701076D076D37FEA9
:1001E00003013101016D016D31FE03073107017318
:1001F000017331FE030737070773077337FE0304E4
:1002000034040470047034FE036D076D3701370148
:1002100007FE036D016D3101310101FE03730173AE
:100220003107310701FE037307733707370707FEEE
:10023000037004703404340404FE030D2B0D1361A9
:1002400013612BFE030D250D0D610D6125FE0313BA
:1002500025130D670D6725FE03132B131367136713
:100260002BFE031028101064106428FE0361136134
:100270002B0D2B0D13FE03610D61250D250D0DFEBC
:1002800003670D67251325130DFE036713672B13F3
:100290002B1313FE036410642810281010FE03199A
:1002A0001F551FFE0319195519FE031F195B19FE6F
:1002B000031F1F5B1FFE031C1C581CFD0404FD7064
:1002C00004FD7034FF03140A030303000000000060
:1002D000000000000000000000020202030303000F
:1002E0000000000000000000000000000002020208
:1002F00000000100000000000000000000000000FD
:1003000000010000000001010101010101010101E2
:1003100001010101010100000000010101010101D1
:1003200001010101010101010101000000000101C1
:1003300001010101010101010101010101010000AF
:10034000000001010101010101010101010101019F
:100350000101000000000101010101010101010191
:100360000101010101010000000001010101010181
:100370000101010101010101010100000000010171
:10038000010101010101010101010101010100005F
:100390006D04FE030D370D13FE0313131337FE0315
:1003A00019371913FE031F131F37FE0325372513B3
:1003B000FE032B132B37FE0331373113FE033713A4
:1003C0003737FE033D373D13FE0343134337FE0328
:1003D00049374913FE034F134F37FE035537551363
:1003E000FE035B135B37FE0361376113FE03671384
:1003F0006737FE0367130D13FE030D196719FE031C
:10040000671F0D1FFE030D256725FE03672B0D2BB0
:10041000FE030D316731FE0367370D37FD0D37FDE4
:100420006737FF04120C04040101010101010101FD
:1004300001010101010101000404010101010101A7
:10044000010101010101010101000000010101019F
:10045000010101010101010101010100000001018F
:10046000010101010101010101010101010100007E
:10047000010101010101010101010101010101016C
:10048000000000000000000000000000000000006C
:100490000303000000000000000000000000000056
:1004A000000003030000010101010101010101013C
:1004B000010101010101000001010101010101012E
:1004C000010101010101010100000101010101011E
:1004D000010101010101010101000202010101010B
:1004E00001010101010101010101010002020101FB
:1004F00001010101010101010101010101000440AB
:10050000FE020D010D19FE0213191301FE0219015D
:100510001919FE021F191F01FE0225012519FE02ED
:100520002B192B01FE0231013119FE023719370157
:10053000FE023D013D19FE0243194301FE0249013D
:100540004919FE024F194F01FE0255015519FE02CD
:100550005B195B01FE0261016119FE020D430D2B67
:10056000FE02132B1343FE021943192BFE021F2B0D
:100570001F43FE022543252BFE022B2B2B43FE029D
:100580003143312BFE02372B3743FE023D433D2BD7
:10059000FE02432B4343FE024943492BFE024F2BED
:1005A0004F43FE025543552BFE025B2B5B43FE027D
:1005B0006143612BFE0225310D31FE0225370D37D7
:1005C000FE02253D0D3DFE0225430D43FE02432B59
:1005D0002B2BFE0243312B31FE0243372B37FE0219
:1005E000433D2B3DFE0261314931FE0261374937FF
:1005F000FE02613D493DFE0261434943FE020D0199
:100600002501FE020D072507FE020D0D250DFE0238
:100610000D192519FE022B014301FE022B0D430D7E
:10062000FE022B134313FE022B194319FE0249014C
:100630006101FE0249076107FE02490D610DFE02DC
:1006400049196119FF04140A0000010101010101A7
:10065000010101010101010101010000000001018E
:10066000010101010101010101010101010100007C
:100670000404010101010101010101010101010164
:100680000101000004040101010101010101010156
:10069000010101010101000000000101010101014E
:1006A0000101010101010101010103030000010138
:1006B0000101010101010101010101010101030326
:1006C0000202010101010101010101010101010118
:1006D000010100000202010101010101010101010A
:1006E00001010101010100000000010101010101FE
:1006F00001010101010101010101000000000101EE
:1007000001010101010101010101010101010000DB
:100710000428FE010D0D0D01FE010D130D07FE0154
:100720000D190D0DFE010D2B0D1FFE010D310D25B7
:10073000FE010D370D2BFE02132B1301FE021331A8
:100740001307FE021337130DFE0219131901FE02DF
:1007500019251913FE0219371925FE011F011F0D56
:10076000FE011F071F13FE011F0D1F19FE011F1F92
:100770001F2BFE011F251F31FE011F2B1F37FE01FE
:100780002501250DFE0125072513FE01250D25193F
:10079000FE01251F252BFE0125252531FE01252BD8
:1007A0002537FE022B2B2B01FE022B312B07FE02DD
:1007B0002B372B0DFE023101312BFE023107313177
:1007C000FE02310D3137FE0237013713FE023713B7
:1007D0003725FE0237253737FE023D133D01FE0265
:1007E0003D253D13FE023D373D25FE014301430DEE
:1007F000FE0143074313FE01430D4319FE01431F4E
:10080000432BFE0143254331FE01432B4337FE02B8
:10081000492B4901FE0249314907FE024937490D7A
:10082000FE014F014F0DFE014F074F13FE014F0D0B
:100830004F19FE014F1F4F2BFE014F254F31FE0177
:100840004F2B4F37FE0255015513FE025513552508
:10085000FE0255255537FE025B015B2BFE025B074E
:100860005B31FE025B0D5B37FE02612B6101FE0214
:1008700061316107FE026137610DFE016701670D9D
:10088000FE0167076713FE01670D6719FE01671F09
:10089000672BFE0167256731FE01672B6737FD7007
:1008A0001CFF02140A00000101000000000000000B
:1008B0000000000000010100000000010101000033
:1008C0000000000000000000010101000000000025
:1008D0000101010000000000000000010101000012
:1008E0000000000000010101000000000000010103
:1008F00001000000000000000000010101000000F4
:1009000000010101000000000000000000000001E3
:1009100001010000010101000000000000000000D2
:1009200000000000010102020101000000000000BF
:1009300000010101010101010101020201010101A6
:100940000101010101010101010101010102020294
:100950000201010101010101010101010101010186
:10096000010202020201010101010101013A2EFE10
:1009700002312C311EFE022B182B26FE02252025CB
:1009800012FE021F0C1F1AFE0219141906FE024362
:100990001E432CFE0249264918FE024F124F20FE2C
:1009A00002551A550CFE025B065B14FE02012B0178
:1009B00037FE020737072BFE020D2B0D37FE021301
:1009C00037132BFE02192B1937FE021F371F2BFE80
:1009D00002252B2537FE022B372B2BFE02493749E8
:1009E0002BFE024F2B4F37FE025537552BFE025B75
:1009F0002B5B37FE026137612BFE02672B6737FEE8
:100A0000026D376D2BFE02732B7337FD1004FD64EE
:100A100004FD0131FD7331FF03140A0000000000E2
:100A200000010100000000000000000000030300BE
:100A300000000000000101000000000000000000B4
:100A40000003030101010101010101010101010193
:100A50000101010101010101010101010101010186
:100A60000101010101010101010101010101010176
:100A70000101010101010101010101010101010166
:100A80000101010101010101010101010101010156
:100A90000101010101010101010101010101010146
:100AA0000101010101010101010101010101010136
:100AB0000101010101010101010101020200000027
:100AC0000000000000000001010000000000000222
:100AD0000200000000000000000000010100000012
:100AE0000000000434FE03012B010DFE03070D0777
:100AF0002BFE030D2B0D0DFE03130D132BFE0319FF
:100B00002B190DFE031F0D1F2BFE03252B250DFE9C
:100B1000032B0D2B2BFE03312B310DFE03370D372D
:100B20002BFE033D2B3D0DFE03430D432BFE0349DE
:100B30002B490DFE034F0D4F2BFE03552B550DFE7C
:100B4000035B0D5B2BFE03612B610DFE03670D67DD
:100B50002BFE036D2B6D0DFE03730D732BFE0373C4
:100B60000D010DFE0301137313FE0373190119FE2A
:100B700003011F731FFE0373250125FE03012B7361
:100B80002BFF03120A010101010101010100000113
:100B90000101010101020201010101010101010044
:100BA0000001010101010102020101000000000138
:100BB0000100000101000000000000010100000030
:100BC000000101000001010000000000000101001F
:100BD000000000010100000101010101010000010C
:100BE00001000000000101000001010101010100FC
:100BF00000010100000000010100000000000001F0
:100C000001000001010000000001010000000000DF
:100C100000010100000101030300000101010101C5
:100C200001010101010000010103030000010101B4
:100C30000101010101010100006404FE025C083CA5
:100C4000083C005C00FE023C005C005C083C08FEC6
:100C50000244143C143C0C440CFE023C0C440C4476
:100C6000143C14FE025C203C203C185C18FE023C44
:100C7000185C185C203C20FE025C2C542C54245C34
:100C800024FE0254245C245C2C542CFE025C383C70
:100C9000383C305C30FE023C305C305C383C38FE26
:100CA000023838303830303830FE023030383038A2
:100CB000383038FE022C38243824182C18FE022430
:100CC000182C182C382438FE022C142414240C2C34
:100CD0000CFE02240C2C0C2C142414FE022C080CE8
:100CE000080C002C00FE020C002C002C080C08FE46
:100CF000020808000800000800FE020000080008C2
:100D0000080008FE02082C080C000C002CFE020053
:100D10000C002C082C080CFE0208380830003000AB
:100D200038FE020030003808380830FF031208028D
:100D300002010101010101010101010101010100A3
:100D40000002020101010101010101010101010192
:100D50000100000000010101010101010101010187
:100D60000101010000000001010101010101010177
:100D70000101010101000000000101010101010167
:100D80000101010101010100000000010101010157
:100D90000101010101010101010000000001010147
:100DA0000101010101010101010101030300000131
:100DB000010101010101010101010101010303041C
:100DC00004FE040D010D2BFE021301132BFE01196D
:100DD00001192BFE041F011F2BFE022501252BFEEE
:100DE000012B012B2BFE043101312BFE0237013781
:100DF0002BFE013D013D2BFE044301432BFE024926
:100E000001492BFE014F014F2BFE045501552BFECE
:100E1000025B015B2BFD0D2BFD3416FD5B01FF0317
:100E20001408030303010100010101010000010195
:100E300001010000010003030300010001000101A2
:100E4000000001000101000001000000000001009D
:100E50000100000101010100000101010100000089
:100E60000000010001010101000101010101000177
:100E7000010000000000010001000101000001006C
:100E8000010100000100000000000101010000015B
:100E9000010101000001010101000000000000004B
:100EA000000000000000000000000001020200003D
:100EB0000000000000000000000000000000000032
:100EC00002027028FE022501251FFE023701371F8E
:100ED000FE024901491FFE025B015B1FFE026D011C
:100EE0006D1FFE0237012501FE0237132513FE0296
:100EF000490D370DFE02491F371FFE025B014901F4
:100F0000FE025B134913FE026D0D5B0DFE026D1FA9
:100F10005B1FFD3107FD3119FD4313FD5507FD55DD
:100F200019FD6713FD6D07FF0310060000010101A5
:100F300001010101010101010100000202010101A1
:100F4000010101010101010101030302020101018B
:100F5000010101010101010101030302020101017B
:100F6000010101010101010101030302020101016B
:100F7000010101010101010101030300000101015F
:100F800001010101010101010100000410FE020D37
:100F9000012B1F49014F07371F19010D0D1F1F3D61
:100FA000014F13431F25010D19131F31014F1F312D
:100FB00001131F0D192501431F4F133D011F1F0D65
:100FC0000D1901371F4F0749012B1FFE024F1F311B
:100FD00001131F0D192501431F4F133D011F1F0D45
:100FE0000D1901371F4F0749012B1F0D012B1F49F9
:100FF000014F07371F19010D0D1F1F3D014F1343EF
:101000001F25010D19131F3101FE020D1F2B014970
:101010001F4F193701191F0D131F013D1F4F0D439E
:1010200001251F0D071301311F4F01311F13010D42
:1010300007251F43014F0D3D1F1F010D13191F37BA
:10104000014F19491F2B01FE024F01311F13010DE2
:1010500007251F43014F0D3D1F1F010D13191F379A
:10106000014F19491F2B010D1F2B01491F4F193724
:1010700001191F0D131F013D1F4F0D4301251F0DAA
:10108000071301311FFE030D010D1FFE03131F1374
:1010900001FE031901191FFE031F1F1F01FE032577
:1010A00001251FFE032B1F2B01FE033101311FFE03
:1010B00003371F3701FE033D013D1FFE03431F435E
:1010C00001FE034901491FFE034F1F4F01FF030E9D
:1010D0000400000101010101010101010100000200
:1010E00002010101010101010101010303020201E9
:1010F00001010101010101010103030000010101DE
:10110000010101010101010000040AFE020D010DAF
:1011100013FE0213131301FE0219011913FE021F1D
:10112000131F01FE0225012513FE022B132B01FEC6
:101130000231013113FE0237133701FE023D013D3A
:1011400013FE0243134301FD0D01FD1301FD1901BF
:10115000FD1F01FD2501FD2B01FD3101FD3701FDC5
:101160003D01FD4301FD0D07FD1307FD1907FD1F9F
:1011700007FD2507FD2B07FD3107FD3707FD3D075F
:10118000FD4307FD0D0DFD130DFD190DFD1F0DFD9B
:10119000250DFD2B0DFD310DFD370DFD3D0DFD43E5
:1011A0000DFD0D13FD1313FD1913FD1F13FD251365
:1011B000FD2B13FD3113FD3713FD3D13FD4313FDCF
:1011C0001004FD1604FD1C04FD2204FD2804FD2E60
:1011D00004FD3404FD3A04FD4004FD100AFD160A26
:1011E000FD1C0AFD220AFD280AFD2E0AFD340AFD17
:1011F0003A0AFD400AFD1010FD1610FD1C10FD22DC
:1012000010FD2810FD2E10FD3410FD3A10FD401089
:10121000FF03100C000001000000000000000000AF
:1012200000000000000201000000000000000000BB
:1012300000000000000001010101010101010101A4
:101240000101010100000100000001000000000098
:101250000001000000000100010101010101010184
:10126000010100000000010000000100000000007A
:10127000000100000000010000000100000000006B
:101280000001000000000100010101010101010352
:10129000010100000000010000000100000000004A
:1012A0000001000001010101010101010101010131
:1012B000010100000000000000000100000000002B
:1012C000000100000000000000000100000000001C
:1012D000000100000707FE00130DFE002513FE00AD
:1012E0002531FE00253DFE00492BFE0219194F193C
:1012F000FE02192B4F2BFE020D010D37FE024F434C
:101300004F0DFE0201374F37FE025B0D0D0DFE0241
:10131000253A2543250DFF031406000001010101B4
:1013200000000101010101010101010100000000B3
:10133000010101010000010101010101010101019F
:101340000000020201010101000001010101000091
:101350000101010103030202010101010000010179
:10136000010100000101010103030000010101016D
:101370000101010101010000010101010000000063
:10138000010101010101010101010000010101014F
:1013900000000410FE010D01130113070D07FE01EB
:1013A00019011F011F071907FE010D0D130D13135E
:1013B0000D13FE01190D1F0D1F131913FE010D1939
:1013C0001319131F0D1FFE0119191F191F1F191FB4
:1013D000FE0125192B192B1F251FFE013101370195
:1013E00037073107FE013D01430143073D07FE0179
:1013F000310D370D37133113FE013D0D430D4313EE
:101400003D13FE0131193719371F311FFE013D19F8
:101410004319431F3D1FFE0149014F014F07490773
:10142000FE0155015B015B075507FE016101670184
:1014300067076107FE01550D5B0D5B135513FE0138
:10144000610D670D67136113FE0155195B195B1F71
:10145000551FFE0161196719671F611FFD1F01FDFF
:101460003101FD431FFD551FFF03140A0202020054
:10147000010101010101010001010101010101015D
:10148000020202000101010101010100010101014B
:101490000101010101000000010101010101010040
:1014A000010101010101010101010100010101002E
:1014B0000101010001010100000101010101010020
:1014C0000101010001010100010101000001010110
:1014D0000101010001010100010101000101010000
:1014E00000010101010101000101010001010100F0
:1014F00001010100000101010101010101010100DF
:1015000001010101010101000000000101010101CF
:1015100001010100010101010101010000030303B8
:1015200001010101010101000101010101010100AD
:10153000000303030704FE0301370113FE0307132F
:101540000737FE030D370D13FE041337132BFE036D
:1015500019371901FE031F011F37FE032537250127
:10156000FE042B012B0DFE0331373101FE03370141
:101570003737FE033D373D01FE044337432BFE035F
:1015800049374901FE034F014F37FE0355375501D7
:10159000FE045B015B0DFE04610D6101FE0367014A
:1015A0006725FE036D256D01FE0373017325FF039F
:1015B0000A0A000000000303000000000000000011
:1015C000030300000000010101010101010101010B
:1015D00001010101010101010101010101010101FB
:1015E00001010101010101010101010101010101EB
:1015F00001010101010101010101010101010101DB
:1016000001010000000002020000000000000000D4
:101610000202000000001C34FE03010D012BFE033A
:10162000072B070DFE030D0D0D2BFE03132B130DC2
:10163000FE03190D192BFE031F2B1F0DFE03250D95
:10164000252BFE032B2B2B0DFE03310D312BFE031F
:10165000372B370DFE0301193719FE03371F011F02
:10166000FF03090A00000202020003030300000254
:10167000020200030303000001000000010000005B
:101680000001010001010000000001010001010052
:101690000000000101000101000001010101000141
:1016A000010101010100000000000101010101012F
:1016B0000101010101000001010101010000130409
:1016C000FE010D131413FE0114190D19FE010D1F57
:1016D000141FFE0114250D25FE0107250025FE011E
:1016E000002B072BFE0107310031FE010D310D38B3
:1016F000FE0113381331FE0119311938FE011F386C
:101700001F31FE0125312538FE012B313231FE011A
:10171000322B2B2BFE012B253225FE011E252525E4
:10172000FE01251F1E1FFE011E192519FE0125138E
:101730001E13FF04120A020200000101010101014F
:10174000000001010101010102020000010101018B
:10175000010100000101010101010101010101017B
:10176000000001010000010100000101010101016F
:10177000010100000101000001010000010101015F
:10178000000000000000010100000101000004044D
:101790000101000000000000010100000101000043
:1017A0000404010100000101010103030101010121
:1017B000000000000101000001010101030301011B
:1017C0000101000000000101010101010000000011
:1017D00000000101010101010101010101010000FD
:1017E0000000000001010101010104043428FE028F
:1017F000010D070D07130113FE00071CFE00012851
:10180000FE020737013701310731FE00100DFE00DF
:101810001031FE001904FE021F131913190D1F0DBC
:10182000FE001928FE021F37193719311F31FE003B
:101830002807FE002225FE002B2BFE02370731076A
:1018400031013701FE003110FE02311F371F371002
:10185000371FFE0249014F014F074907FE004F1095
:10186000FE00491CFE0249254F254F2B492BFE0047
:101870004934FE005807FE024F315E315E375E315B
:10188000FE026707610761016701FE006110FD64E8
:1018900034FF030C0A0101010100000101010100F4
:1018A000000102000101010100000100000100002F
:1018B0000100000100000100000101010100000120
:1018C000010101000001000001000001000001030E
:1018D00003010000010000010000010303010101F8
:1018E00001000001010101000001000001000001F0
:1018F00000000100000100000101010100000100E1
:10190000000101010100000101010100000707FEC3
:10191000021301131301130101FE02131313250116
:10192000250113FE021325133701370125FE022579
:1019300001251337133701FE0225132525372537D7
:1019400013FE022525253737373725FE02130725D5
:101950000725311331FD0137FD3701FD3737FF030F
:101960001208000000010101010101010101010152
:10197000010000000000000101010101010101015D
:10198000010101000000000000010101010101014D
:101990000101010101000000020202010101010137
:1019A000010101010101010303030202020101011E
:1019B0000101010101010101010303030000000114
:1019C000010101010101010101010100000000000C
:1019D00000010101010101010101010101000000FB
:1019E00000000001010101010101010101010100EB
:1019F00000000716FE051301132BFE051F011F2B08
:101A0000FE052B012B2BFE053701372BFE0543016D
:101A1000432BFE054F014F2BFE05192B1901FE0527
:101A2000252B2501FE05312B3101FE053D2B3D0106
:101A3000FE05492B4901FE05552B5501FD1301FDFE
:101A40005501FD132BFD552BFF020405010000007D
:101A50000101010101020201010202010101010172
:101A60000A10FE020107130713190119FE020707E6
:101A70001307131901190107FE020B0713071319A6
:101A800001190107FE02130D1319011901071307AC
:101A9000FE0213131319011901071307FE0213198C
:101AA000011901071307FE020D1901190107130798
:101AB0001319FE0207190119010713071319FE0272
:101AC0000119010713071319FE0201130107130778
:101AD00013190119FE02010D01071307131901194A
:101AE000FD0101FF031206000000010101010101D7
:101AF00001010101010100000000000001010101DC
:101B000001010101010101010000000202020101C5
:101B100001010101010101010101030303020202AC
:101B200001010101010101010101010103030300A0
:101B30000000010101010101010101010101000099
:101B40000000000001010101010101010101010189
:101B50000000000710FE021301131FFE021F011FE9
:101B60001FFE022B012B1FFE023701371FFE02430F
:101B700001431FFE024F014F1FFE02191F1901FEF4
:101B800002251F2501FE02311F3101FE023D1F3DCE
:101B900001FE02491F4901FE02551F5501FD341087
:101BA000FF03120602020200000000000000000015
:101BB000000101030303020202000101010101010E
:101BC00001010101000303030202020001010101FE
:101BD00001010101010100030303020202000101EE
:101BE00001010101010101010003030302020200DE
:101BF00001010101010101010101000303030202CE
:101C000002010100000000000000000000030303C7
:101C10000710FE024F071907FE02190D4F0DFE02B5
:101C20004F131913FE0219194F19FF0101FF030188
:101C300001F7031753440016137800161314001508
:101C400010200015201000540A03E181867F3E1801
:101C50006D830F0F0E0183866033186DC3198F18C3
:101C600003C38E6033186DE330CF1803C39E603614
:101C700030CDE360CF3006C79E7E3E30CDB360CF1F
:101C8000300CC6F6603330D9B660CF33CFCCF660B7
:101C900061B0DB1E60CF30D86CE6C061B0DB1E6186
:101CA0008F19986CC6C063B19B0E330F0FB078C606
:101CB000FF7E1F1B061E0F00402400F000000400E2
:101CC00007FC012800200A001F808A3593280500A0
:101CD00038FFAAFD52903200EFFEABD59288680122
:101CE000FFE0DA655B309407F98001280000601F8F
:101CF000E200FFFFFFE3103F8400AD899A22C07E1F
:101D00001800A8AAB762A0F830008A9A9B4901F08F
:101D10007000A8AABB5081E0F800AAA9975601C399
:101D20008C00FFFFFDD2038706000000000E038633
:101D3000070000000000078F0C800007FFFF1BFF5B
:101D40009A40000B83806663F520000EA3FCCC88CC
:101D5000EA10000C8211D99C658C000F93FDF10CE8
:101D60001B4200082A30F37C04B1000A1316E60C6B
:101D70000368000E02CF6C5C0094000A0638195C00
:101D8000006B000C074E42AC00160008C6A59AACCA
:101D900000090008C2A5500C0006000B0210106CD0
:101DA0000001000B31FFE06C000000043000018CEA
:101DB00000000004C600719C00000002C955703884
:101DC00000000001870021F000000000FFFFFFE09D
:101DD000000000003FFFFF000000080782442810B9
:101DE0002844820807020488485030202F1C2B1CEE
:101DF00000000000240027002A0000000000250049
:101E000028002B0005008930080238024978681440
:101E10000000050038016801000005006801380174
:101E200000000606AA55AA55AA550A0A153A496796
:101E30006E6F7265006D560A0A504C45415345203D
:101E40005455524E204F464620004C4F5720424199
:101E5000545445525921200003053F213F120812D6
:101E60000A100A0E1C0E0C1E0C141A14161F161E35
:101E7000131E1E1B1E1E1F1E3F213F3A2F3A173DE9
:101E8000173F213F181F02040A041F0E04040E1FEF
:101E90000A1F0A0E0E1F04110E2E252E2F2A2E2683
:101EA0002929021F02081F08150E04040E150E151D
:101EB000151B151B040604040C0400000000170089
:101EC0000300031F0A1F16371A1904130A153A00D4
:101ED0000300000E11110E000A040A040E04003063
:101EE000000404040010001804031F111F121F1027
:101EF0001D151711151F07041F17151D1F151D018F
:101F0000011F1F151F17151F000A00003200040AC9
:101F1000110A0A0A110A040115020E11171E051EE4
:101F20001F150A0E110A1F110E1F15111F05010E94
:101F3000111D1F041F111F1108100F1F041B1F105C
:101F4000101F061F1E040F0E110E1F09060E112E64
:101F50001F051A121509011F011F101F0F180F1F4F
:101F60000C1F1B041B031C03191513001F11030472
:101F700018111F000201022020200001020C121E75
:101F80001F120C0C12120C121F0C1A14041E052422
:101F90002A1E1F021C141D1020201D1F0814111FB3
:101FA000101E041E1E021C0C120C3E0A040C123ED3
:101FB0001E040214160A020F120E101E0E100E1E20
:101FC000081E120C1226281E322A26041E21001F6B
:101FD00000211E040102013F213FF6E8DBCFC3B818
:101FE000AEA49B928A827B746E68625C57524E49A3
:101FF00045413E3A3734312E2C29272523214500EF
:1020000068010000172B152010204C4F4144455209
:1020100000172B16201314000A4E6F205344206320
:10202000617264206F720A6E6F204C4F41444552BA
:102030002E4845580A0A153A45786974001D20460D
:102040006C617368696E670A20206C6F61646572E9
:102050002E2E2E0A0A444F4E2754205455524E20FD
:102060004F464621000000000023002600290004FE
:10207000040404040404040202020202020303032F
:102080000303030102040810204080010204081029
:1020900020010204081020000000080002010000D6
:1020A0000304070000000000000000006525112463
:1020B0001FBECFEFD8E0DEBFCDBF11E0A0E0B1E0A2
:1020C000E6E0F1E502C005900D92A836B107D9F718
:1020D00024E0A8E6B1E001C01D92AB3FB207E1F7F2
:1020E00010E1C7E5D0E104C02197FE010E947428E9
:1020F000C635D107C9F70E94F91F0C9481280C94AA
:10210000000090E0880F991FE091A404F091A504CD
:10211000E80FF91F259134913093B5042093B4044E
:10212000F9018591949190919904989F802D1124A3
:102130008093B604F90165917491472F50E084179C
:10214000150629F020F0F90125913491832F989FED
:10215000802D11248093B7040895DC01ED91FC914A
:102160000190F081E02D0994AF92BF92CF92DF925F
:10217000EF92FF920F931F93CF93DF936C017B013C
:102180008B01040F151FEB015E01AE18BF08C017CD
:10219000D10759F06991D601ED91FC910190F08140
:1021A000E02DC6010995892B79F7C501DF91CF9103
:1021B0001F910F91FF90EF90DF90CF90BF90AF9065
:1021C0000895833081F028F4813099F08230A9F0AD
:1021D00008958730A9F08830C9F08430B1F4809137
:1021E00080008F7D03C0809180008F778093800076
:1021F000089584B58F7784BD089584B58F7DFBCF16
:102200008091B0008F778093B00008958091B000E6
:102210008F7DF9CF1F93CF93DF93282F30E0F90103
:10222000E956FF4D8491F901ED57FF4DD491F90125
:10223000E159FF4DC491CC23A9F0162F81110E94C2
:10224000E110EC2FF0E0EE0FFF1FE650F24EA591EB
:10225000B4918FB7F894EC91111108C0D095DE239A
:10226000DC938FBFDF91CF911F910895DE2BF8CFC4
:10227000CF93C82FF89460E08091CD040E940A119A
:102280008091CE0418161CF460E00E940A11CEBDA5
:1022900000000DB407FEFDCF8EB58091CE04181658
:1022A0001CF461E00E940A117894CF9108950F9375
:1022B0001F93CF938091CA048F5F8093CA0400E775
:1022C00012E0C0E08C2F80640E94381180E80E94E8
:1022D000381161E08091CD040E940A118091CE04F2
:1022E00018161CF460E00E940A11F80184E591912F
:1022F0009EBD00000DB407FEFDCF9EB58150B9F71D
:102300008091CE0418161CF461E00E940A11CF5F80
:102310000C5A1F4FC630B1F680E4CF911F910F9138
:102320000C943811CF93DF9390E0FC01ED57FF4DF3
:10233000249181599F4DFC0184918823C9F090E03C
:10234000880F991FFC01E051F24EA591B491FC0158
:10235000E650F24EC591D49161110DC09FB7F8942B
:102360008C91209582238C938881282328839FBF7A
:10237000DF91CF910895623051F49FB7F8943C916A
:10238000822F809583238C93E8812E2BEFCF8FB7FC
:10239000F894EC912E2B2C938FBFEACFFF920F93E2
:1023A0001F93CF93DF93C0E7D4E0FF24FA9462E059
:1023B0008A850E9492112A8530E0F901E956FF4D85
:1023C0008491F901ED57FF4D0491F901E159FF4D59
:1023D00014911123E1F081110E94E110E12FF0E04E
:1023E000EE0FFF1FEB59FF4DA591B491EC91898938
:1023F0000E2369F0811113C0219684E0C737D807F6
:10240000B1F6DF91CF911F910F91FF9008958989C7
:102410008F5F898B60E08A850E949211EDCF8F3F9C
:1024200011F4198AF7CFF98AF5CF1F93CF93DF9371
:10243000182FEB0161E00E949211209739F460E0BF
:10244000812FDF91CF911F910C940A11CF3FD105BD
:1024500011F461E0F5CFE12FF0E0E956FF4DE49192
:10246000E33031F140F4E130B1F0E230E1F0C03876
:10247000D1057CF7E4CFE73029F1E83059F1E430B9
:10248000B1F780918000806280938000D0938B00B0
:10249000C0938A0004C084B5806884BDC7BDDF9145
:1024A000CF911F91089584B5806284BDC8BDF7CFD8
:1024B00080918000806880938000D0938900C093D1
:1024C0008800EDCF8091B00080688093B000C09309
:1024D000B300E5CF8091B00080628093B000C093DC
:1024E000B400DDCF8E50806480937C0080917A00B0
:1024F000806480937A0080917A0086FDFCCF809181
:102500007800909179000895809194048F7149F535
:1025100084E10E947212BC01990F880B990B0E94F2
:10252000372726EE3FE34EEC50E40E949B270E94A3
:1025300006279B0170938B0460938A04672BB9F084
:1025400084E080938904ECE8F4E080E041915191CB
:102550002417350718F48093890408958F5F843019
:10256000A9F7809194048F5F8093940408958FEF6E
:1025700080938904F6CF3FB7F89480916E019091D3
:102580006F01A0917001B091710126B5A89B05C0A3
:102590002F3F19F00196A11DB11D3FBFBA2FA92FE2
:1025A000982F8827BC01CD01620F711D811D911DDF
:1025B00042E0660F771F881F991F4A95D1F708954B
:1025C0008F929F92AF92BF92CF92DF92EF92FF9243
:1025D0004B015C010E94BB126B017C010E94BB128B
:1025E0006C197D098E099F09683E7340810591052C
:1025F000A8F321E0821A9108A108B10888EEC80E5C
:1026000083E0D81EE11CF11C81149104A104B104E3
:1026100029F7FF90EF90DF90CF90BF90AF909F9001
:102620008F900895FC01178A158A14A213A2108EA8
:10263000109267021092680210926B021092B4001E
:1026400008950F931F93CF93DF93EC018B010E94AA
:1026500012131E870D871B8A1A8A81E0898389E0FD
:102660008E8B198E1B8E1D8EDF91CF911F910F9136
:102670000895E0919E048E2F90E0880F991FE091BD
:102680009C04F0919D04E80FF91F859194918F3F70
:10269000980719F41092950408959093A10499272E
:1026A000880F991FE0919F04F091A004E80FF91F93
:1026B0006591749185E994E00E94211380919E04B4
:1026C0008F5F80939E0408952F923F925F926F9246
:1026D0007F928F929F92AF92BF92CF92DF92EF92B2
:1026E000FF920F931F93CF93DF93EC01F901E490D6
:1026F0003196849164350CF015C10E2C000CFF0846
:10270000062F062E000C110BF701E00FF11F1E160D
:102710001F060CF007C140330CF004C1A82FC42ED3
:10272000042E000CDD085601A80EB11C87FDBA94DA
:102730001A141B040CF0F6C02E5F3F4F570197E0B0
:10274000A90EB11CB7FE04C05701BEE0AB0EB11C10
:10275000B3E0B594A794BA95E1F747FF0AC0A42F58
:10276000A80FAC9CC001AD9C900D1124281B390B07
:1027700040E08A2F0A2E000C990B840F911D47FD13
:102780009A95C19714F0A0E3A41BF8A067FD60E040
:10279000E535F10514F0E4E5F0E09E2FCC85C42783
:1027A000C62E062E000CDD08F601E01BF10B8F0192
:1027B0004F01F7E08F229924E0E8F0E002C0F595A0
:1027C000E7958A94E2F77E2F17FF02C0095F1F4F3B
:1027D000F3E015950795FA95E1F7200F311F542F77
:1027E000577081E001C0880F5A95EAF745954595E5
:1027F0004595F601B4E54B02E00DF11D1124AF0142
:1028000040595D4FD0E02A2EAA0F3308EE24E394FE
:10281000BB24D21513040CF085C0F9015490F1E0EB
:10282000FF121AC0962E8A01E72F6901991608F047
:1028300057C08E2E852021F0D8018C90882A8C924A
:10284000E69531F4BFEFCB1ADB0AF6015490E0E8CD
:1028500093940F5F1F4FEACFF1101CC0782E709435
:10286000962E8A01E72F6901991608F039C08E2E3D
:10287000852021F0D8018C9087208C92E69531F448
:10288000BFEFCB1ADB0AF6015490E0E893940F5F98
:102890001F4FEACFF3E0FF122CC0782E7094862EE3
:1028A0008A01972E69018916D0F4E92DE52141F0BE
:1028B000D801EC916C2E682460FE0FC0E82BEC93DD
:1028C000969439F4BFEFCB1ADB0AF6015490E0E896
:1028D0009E2E83940F5F1F4FE6CFE721F0CFCE25CA
:1028E000880F19F44C5A5F4F81E0DF5F2A0D3B1DC2
:1028F00090CF962E8A01E72F6901991688F78E2EC0
:10290000852021F0D8018C9088268C92E69531F4B0
:10291000BFEFCB1ADB0AF6015490E0E893940F5F07
:102920001F4FEBCFDF91CF911F910F91FF90EF9051
:10293000DF90CF90BF90AF909F908F907F906F90DF
:102940005F903F902F900895DC01643570F540331F
:1029500060F590968C919097E62F062E000CFF0B59
:10296000242F25952595259594E52902E00DF11D47
:102970001124E059FD4F2081342F37708230B1F49B
:10298000822F90E0032E02C0959587950A94E2F776
:1029900080958170811114C081E090E001C0880FA2
:1029A0003A95EAF78095822380830895833091F7E2
:1029B0001C968C9181706427609561708613ECCFB2
:1029C00081E090E001C0880F3A95EAF7822BECCFC6
:1029D0008F929F92AF92BF92CF92DF92EF92FF922F
:1029E0000F931F93CF93DF937C01162FD42EC22F0A
:1029F00081E0C82EC21AB22EB194BB0CD0E0802F59
:102A00008470A82E802F8270982E802F8870882E38
:102A10000170C7FC04C0C150B394B394CB0CDF5F0A
:102A20008D2F880F8F5FC80EAA2071F04D2D4C0F8F
:102A3000612F6D0FC7010E94A4144D2D4D0F6C2FF7
:102A4000610FC7010E94A414992071F04D2D4C1BF9
:102A5000612F6D0FC7010E94A4144D2D4D1B6C2FCB
:102A6000610FC7010E94A414882071F04D2D4D0FF5
:102A7000612F6C1BC7010E94A4144D2D4C0F612FB8
:102A80006D1BC7010E94A414002371F04D2D4D1B36
:102A9000612F6C1BC7010E94A4144D2D4C1B612F8C
:102AA0006D1BC7010E94A414DC170CF4B2CFDF9198
:102AB000CF911F910F91FF90EF90DF90CF90BF903B
:102AC000AF909F908F900895EF92FF920F931F9376
:102AD000CF93DF938C01F62ED42FE22EC0E0CE15DB
:102AE00044F46F2D6C0F4D2FC8010E94A414CF5FCA
:102AF000F6CFDF91CF911F910F91FF90EF90089546
:102B0000DF92EF92FF920F931F93CF93DF937C019D
:102B1000D62FD22EC42F002E000C110B040F111D26
:102B200047FD1A958C2F0C2E000C990B80179107DE
:102B300044F42D2D4C2F6D2FC7010E946415CF5FDB
:102B4000F1CFDF91CF911F910F91FF90EF90DF9028
:102B500008954F925F926F927F928F929F92AF9261
:102B6000BF92CF92DF92EF92FF920F931F93CF937A
:102B7000DF93EC016A3049F428859D818A85299F7D
:102B8000800D11248A871986A6C06D3009F4A3C070
:102B9000898483E588150CF487C0DA848FE28D156B
:102BA0000CF482C018852C812150330B129FC00178
:102BB000139F900D1124880D911D87FC9A9518166E
:102BC00019060CF071C02D818D2D0D2C000C990B68
:102BD000129F800D911D1124181619060CF064C067
:102BE00078A0C82C912CE62EF12C292D092C000C54
:102BF000330B8C8190E0281739070CF054C00197F3
:102C0000E0E02817390771F0E89EF001E99EF00D29
:102C1000F89EF00D11242E0F3F1FEE8DFF8DE20F59
:102C2000F31FE4915D2C612C492C480C2D81862DDD
:102C3000062C000C990B2817190691F18CF1AE2E79
:102C4000B12CE0FF16C0113061F4462D4D0D642DFE
:102C5000CE010E94A414F501F595E7956394510EF9
:102C6000E5CF012F212F452D6C2DCE010E9480151F
:102C7000F2CF89A198A1891771F388A3113041F48B
:102C8000462D4D0D642DCE010E94A41478A2E3CFF1
:102C9000012F212F452D6C2DCE010E948015F6CFDE
:102CA0009394C10EA2CF78A228853C818985239F69
:102CB000800D112489879F81992369F0082E000CCB
:102CC000990B44E550E0239F4019510911244817FE
:102CD00059070CF452CF81E090E0DF91CF911F9122
:102CE0000F91FF90EF90DF90CF90BF90AF909F90AB
:102CF0008F907F906F905F904F9008950F931F93E8
:102D0000CF93DF938C01D0E0C0E0F801EC0FFD1F02
:102D10006491662341F08EEB94E00E94A915892B03
:102D200011F02196F2CFCE01DF91CF911F910F913B
:102D30000895EF92FF920F931F93CF93DF938C012F
:102D4000D62FF42EE22EC0E0CE1544F44F2D4C0FBA
:102D50006D2FC8010E94A414CF5FF6CFDF91CF91F1
:102D60001F910F91FF90EF9008958F929F92AF92D5
:102D7000BF92CF92DF92EF92FF920F931F93CF9368
:102D8000DF93082FB62E942EA22E83E0F82ED0E0EB
:102D9000C3E09AEFE92E1EEFCC24C394C20EDF5F8E
:102DA0001F0D2C2F220F4B2D4C1B8A2C8F0CDB2C34
:102DB000DD1A81E02C0D602F981218C06D0F8EEB7C
:102DC00094E00E949916282D4D2D6C2F600F8EEBEC
:102DD00094E00E949916DC179CF417FD04C0C150C2
:102DE000E394E3941E0DF394F394D9CF6D1B8EEB13
:102DF00094E00E949916282D4D2D602F6C1BE7CF73
:102E0000DF91CF911F910F91FF90EF90DF90CF90C6
:102E1000BF90AF909F908F9008959F92AF92BF9276
:102E2000CF92DF92EF92FF920F931F93CF93DF9396
:102E3000EC01B62E142FD22EAE2CAA0C922E9A187C
:102E4000CE2CC60E292D6C2D0E946415FF24FA94F9
:102E5000F00EF10E292D4F2D6C2DCE010E94641520
:102E60000A191E0D202F412F6B2DCE010E9499169D
:102E7000DB0C6FEF6D0D202F412FCE010E949916B4
:102E800001E02E2D412F6C2DCE010E94E8148E2DD5
:102E90008095D80E02E02E2D412F6D2DCE010E947F
:102EA000E814FE1804E02E2D4F2D6D2DCE010E944A
:102EB000E81408E02E2D4F2D6C2DCE010E94E81451
:102EC000DF91CF911F910F91FF90EF90DF90CF9006
:102ED000BF90AF909F9008950F931F93CF93DF9370
:102EE000482F90916502292F260F3327331FC901E0
:102EF0002091D20156E0259F90011124821793075B
:102F00000CF05FC020916402240F3327331F4091DF
:102F1000D101042F10E0459FA0011124241735078B
:102F20000CF04FC0C6E0D0E0BE010E944C28609F6C
:102F3000F001619FF00D709FF00D1124C901BE01D9
:102F40000E944C28E60FF71FCF010396E091CF01B6
:102F5000F091D001E80FF91F849191E020916B016D
:102F6000281390E020916602922B909366022091A4
:102F70006A01281738F5911125C0682F621B770B5D
:102F8000AB01440F551F2091680130916901240F56
:102F9000351F309369012093680180936A01209165
:102FA0006002E4EDF1E032E0291761F0A191B19106
:102FB00012964C911297413011F412963C939F5FF8
:102FC000F3CF80E0DF91CF911F910F910895109280
:102FD0006302E0916801F091690184918093640239
:102FE0003196E491E093650290916002E4EDF1E0A6
:102FF00080E0981759F0A191B19112962C911297F7
:10300000223011F012961C928F5FF3CF089508952D
:1030100090E080E00895FB0101900020E9F73197EE
:10302000AF01461B570BDC01ED91FC910280F3814F
:10303000E02D0994CF93DF930E947E16EC0163E4A8
:1030400071E08EEB94E00E940B188C0F9D1FDF91B6
:10305000CF910895E0E7F2E088EF91E0DF019C0175
:103060001D9221503040E1F71092C7041092C8041D
:103070008DE390E20E947E160E9457118CB583600A
:103080008CBD8DB58E7F8DBD86E491E0EEEFFFE3C4
:1030900009951092C40488E190E20E941A180E94D7
:1030A00057110E94CE1180918504813039F062E37E
:1030B00070E080E090E00E94E012F3CF08958F92DC
:1030C0009F92AF92BF92EF92FF920F931F93CF9375
:1030D000DF93CDB7DEB7A1970FB6F894DEBF0FBE72
:1030E000CDBF7C01FA01CB0119A2223008F42AE0FD
:1030F0008E010F5D1F4F822E912CB12CA12CBF0190
:10310000A50194010E94D526F901CA016A300CF587
:10311000605DD8016E938D01232B242B252B79F72D
:1031200090E080E0109721F0BD01C7010E940B18CC
:10313000A1960FB6F894DEBF0FBECDBFDF91CF9141
:103140001F910F91FF90EF90BF90AF909F908F9045
:103150000895695CDECFCF92DF92EF92FF920F93DA
:103160001F93CF93DF936B01770FEE08FF08F7FEF5
:103170001BC0EC016DE20E94AD108C014427552765
:10318000BA014C195D096E097F092AE0CE010E943F
:103190005F18800F911FDF91CF911F910F91FF90CA
:1031A000EF90DF90CF9008952AE0B701A601DF915C
:1031B000CF911F910F91FF90EF90DF90CF900C94E3
:1031C0005F184F925F926F927F928F929F92AF9211
:1031D000BF92CF92DF92EF92FF920F931F93CF9304
:1031E000DF9300D000D01F92CDB7DEB74091F0043E
:1031F0005091F1046091F2047091F3042FB7F894A8
:1032000080916C0290916D02A0916E02B0916F025C
:103210002FBF481B590B6A0B7B0B8091EF0490E08A
:10322000B0E0A0E0C090EB04D090EC04E090ED049E
:10323000F090EE0484179507A607B70708F0CEC0F4
:10324000C114D104E104F10409F4C8C02FB7F89403
:1032500080916C0290916D02A0916E02B0916F020C
:103260002FBF2091EF04820F911DA11DB11D8093EE
:10327000F0049093F104A093F204B093F3048091CE
:10328000E1049091E204A091E304B091E40401967A
:10329000A11DB11D8093E1049093E204A093E30487
:1032A000B093E4041092EB041092EC041092ED043D
:1032B0001092EE040E94BB126093E7047093E8043E
:1032C0008093E9049093EA048091710490917204D0
:1032D0002FE0289FA001299F500D11245A83498374
:1032E00085E10E947212A981BA818A0F9B1FB4E006
:1032F00096958795BA95E1F790937204809371043F
:1033000020917004222309F448C060917404262F90
:1033100030E050E040E029833A834B835C83C090E7
:103320007504D12CF12CE12C409178045091790452
:103330004A01B12CA12C2091760430917704290107
:10334000712C612C8217930728F09C0148175907AC
:1033500008F49A0150E040E024193509460957095C
:1033600069817A818B819C816C197D098E099F0905
:103370000E943028A50194012419350946095709EE
:103380000E94AB26C20ED31EE41EF51EC09273042B
:103390006C2D70E085E00E9415120E94CE11809184
:1033A0008C0490918D04892B11F00E94841281E08D
:1033B0000F900F900F900F900F90DF91CF911F9172
:1033C0000F91FF90EF90DF90CF90BF90AF909F90C4
:1033D0008F907F906F905F904F900895CD28CE286A
:1033E000CF2809F03AC18091870481508E3F28F59B
:1033F00080918604813009F580919A048F5F6091F5
:103400009B0487FD09C0082E000C990B70E06F5FCC
:103410007F4F0E944C28682F60939A0481E190E2CC
:103420009093F5048093F40488E48093F6046EEF9F
:103430007FE185E994E00E94211380918704815007
:103440008E3F70F480918504813009F0E8C284E0F9
:1034500090E29093F5048093F40488E48093F6045A
:1034600080919504882331F080919604811102C0E7
:103470000E94391380919604882309F43EC08091FC
:10348000AA0481113AC08091A2049091A304E09112
:10349000A704F091A804EE0FFF1FE80FF91F259174
:1034A00034912115310509F42FC1A901569547958D
:1034B00056954795842F20FDD2C08F738093A90421
:1034C00080919904839F802D11248093AA041092E7
:1034D000BA041092B9041092B80481E08093AC044D
:1034E00080936B021092AD048091A7049091A80480
:1034F00001969093A8048093A7048091AC0488233C
:1035000041F08091AA0481111BC185E994E00E94D9
:1035100012138091F604882309F455C08C3008F00A
:10352000F9C13CE0381B3983FF24F394F092C604C0
:103530001092DE041092DF044091C3044D83198180
:10354000141B042F0D5F4DE2410F2EE463E08EEB60
:1035500094E00E9480155D8154505D83105D252F9D
:1035600041E0612F80E50E94B5162D8142E0612F78
:1035700083E00E94B516F092DE04F092DF048091A1
:10358000C30403E0080F4981481B435D83E0E82E34
:1035900024E560E08EEB94E00E940D1784E08093B8
:1035A000C7048091C3049981981B915D9093C804CE
:1035B0008091F4049091F5040E947E168091F604A7
:1035C00081508093F60480918C0490918D04892B16
:1035D000E1F0A1E0A093DE041092DF049091C20418
:1035E00085E5891B8093C7041092C8046091890403
:1035F000613009F4F8C108F48FC180918804653006
:1036000008F008C26B5F811100C20E9457118091BF
:10361000C40481110EC0E0E7F2E088EF91E0DF0121
:103620009C011D9221503040E1F71092C704109286
:10363000C8040E94BB126093EB047093EC04809367
:10364000ED049093EE042091E7043091E804621BAE
:10365000730B7093E6046093E50480E0A9CEC90182
:10366000E6E096958795EA95E1F78F71932F969509
:103670009695969590514F70423099F1D0F444232D
:1036800009F43CC04130B9F1E091A704F091A804DD
:103690003196F093A804E093A704CF01880F991FF7
:1036A000E091A204F091A304E80FF91F2591349151
:1036B000FCCE433061F0443039F720919904289FC3
:1036C000802D11248093B2049093B304DDCF209118
:1036D0009904289F802D11248093B0049093B10405
:1036E000D3CF20919904289F802D11248093AE047C
:1036F0009093AF04C9CF0E948110C6CF8B3008F0E1
:103700008AE08093AB04C0CF2091A604211112C09F
:103710001092960480919504811105C085E994E08A
:103720000E941213EACE0E9439138091A70490914F
:10373000A804B4CF1092A8041092A704FC01B6CF3D
:1037400081508093AA048091BA04811142C02091D3
:10375000B8043091B9042F5F3F4FC901880F991FFA
:10376000E091B404F091B504E80FF91F85919491AC
:10377000482F47704093BB04492F46954695409388
:10378000BC04AC0164E0569547956A95E1F74F7328
:1037900090919904499F402D11244093BA0483FBD2
:1037A000882780F980936A023093B9042093B80483
:1037B0008091B60490E02817390758F02091B7049B
:1037C000222309F49FC0821B91099093B90480932E
:1037D000B8048091BA0481508093BA048091AD04FA
:1037E00031E0380F3093AD044091A9042091BC041E
:1037F000240F8091A104280F209397046091B004B6
:10380000662371F070E0832F032E000C990B0E9449
:103810004C288091B104869F200D11242093970499
:103820008091970490E0849664E270E00E944C28B6
:10383000809397042091AB04209398046091AE0488
:10384000662381F0062E000C770B832F032E000CCD
:10385000990B0E944C288091AF04869F200D112463
:10386000209398046091B2046623A1F0832F330F54
:10387000990B70E00E944C28CB0162E070E00E943E
:103880004C282091B30490919804289F900D112406
:10389000909398044F3309F43AC0809198048A3089
:1038A0000CF089E087FD80E080939804F894E09123
:1038B0009704F0E0E652F04EE491E0936902209123
:1038C000BD04309198043203900111244091BB044F
:1038D0004203C001439F900D112420919A0402C01D
:1038E000880F991F2A95E2F797FF02C081589F4FD2
:1038F000880F892F881F990B809368028093670235
:10390000789407CE85E994E00E94121362CF10925A
:103910009804CCCF198208CE85E994E00E94121356
:1039200010929604B1E0B093C604E8E5FEE1E4919C
:10393000EF5FE093C204E9E5FEE1E491EF5FE0931D
:10394000C3048AE59EE19093DD048093DC04109229
:103950008D0410928C041092C40428EA29830E94DA
:10396000E1188823E1F38AE49EE10E947E164091EB
:103970008A0450918B0470E060E02AE08EEB94E0C2
:103980000E945F1885E39EE10E947E166981629520
:103990006F7070E08EEB94E00E94AB188AE29EE1BB
:1039A0000E947E1680918504813009F42ECE3981E3
:1039B000315039833111D3CF70E060E085E00E944F
:1039C000151283B7817F846083BF83B7816083BF13
:1039D00083B7816083BF889583B78E7F83BF83B7AA
:1039E0008E7F83BFBCCF8091E1049091E204A091CF
:1039F000E304B091E4048F709927AA27BB2767E0FE
:103A00000897A105B10508F068E78EEB94E00E94E5
:103A1000AD10FBCD882309F4F8CD6FE2F6CF8932E3
:103A200009F01ECD0E942A181BCDCF93C0E08091D3
:103A3000CE01C81760F4EC2FF0E0EE0FFF1FED5839
:103A4000FE4F808191810E940C26CF5FF0CFC0E0B5
:103A500080916002C81760F4EC2FF0E0EE0FFF1FBA
:103A6000EC52FE4F808191810E940C26CF5FF0CFF7
:103A70001092CE0110926002CF910895EF92FF92C2
:103A80000F931F93CF93DF93E091D301F0E0EE0FFC
:103A9000FF1FE55FFE4FC081D181D093D001C0935D
:103AA000CF011092CE0110926002FE0132969491E5
:103AB0009093D201319784918093D101899FC00165
:103AC000112403969E01280F391F3093690120931A
:103AD0006801FE01E80FF91F24912F3F09F460C02F
:103AE0008C010F5F1F4F2491FE01E00FF11F2E3F4D
:103AF000A9F50F5F1F4FF4908AE090E00E947025B7
:103B0000DC01CE01800F911FFC01249130E0119661
:103B10003C932E933196E491F0E01396FC93EE9350
:103B200012971496FC92149716969C938E93159761
:103B300018969C938E93179719961C921997E0915B
:103B4000CE0181E08E0F8093CE01F0E0EE0FFF1FDB
:103B5000ED58FE4FB183A083C801BBCF2D3FE1F7E5
:103B60008C010E5F1F4FF490FE01E00FF11FE490F7
:103B700083E090E00E947025DC01FC921196EC92AB
:103B8000119712961C921297E091600281E08E0FBD
:103B900080936002F0E0EE0FFF1FEC52FE4FDACF91
:103BA000FE01C491C0936B0182E080936A01DF91B2
:103BB000CF911F910F91FF90EF900C94E7170F9307
:103BC000CF93C82F80E28093C7048CE08093C80411
:103BD000CA3030F46DE471E08EEB94E00E940B1873
:103BE0004C2F50E070E060E02AE08EEB94E00E9401
:103BF0005F182C2F2150330BC9010E949526C82F26
:103C00001092DE041092DF040AE02AE04BE060E349
:103C10008EEB94E00E94801505E020E348E160E02F
:103C20008EEB94E00E94801581E08093DE04809307
:103C3000DF042AED3DE1CC2311F023EE3DE14BE022
:103C400060E38EEB94E0CF910F910C946413CF92CC
:103C5000DF92EF92FF920F931F93CF93DF93C82FC2
:103C60000E94151DCC2309F4D4C08091E004882360
:103C700009F4C7C081E08093C6041092C504109275
:103C8000C404109288048093DE048093DF04C7EBA1
:103C9000DCE11CE00E94E1188823E1F3FE010491BD
:103CA00001110091C30427E43CE140E060E08EEBA9
:103CB00094E00E9464134CE0400F28EB3CE160E08C
:103CC0008EEB94E00E9464131092C7041093C80412
:103CD00087EB9CE10E947E168091C204982F990F79
:103CE000990F891B8D5A8093C7048091C304982F24
:103CF000990F990F891B835D8093C8048091E1041B
:103D000084FF6AC083E49CE10E941A188091C20477
:103D1000982F990F990F891B8D5A8093C704809112
:103D2000C8048F5F8093C80480919A04882309F4A3
:103D300056C08BE39CE10E941A188091C204982F10
:103D4000990F990F891B8D5A8093C7048091C804DD
:103D50008F5F8093C80483E39CE10E941A188091CE
:103D600086048130C1F480919A048F5F60919B0436
:103D700087FD09C0082E000C990B70E06F5F7F4F24
:103D80000E944C28682F60939A046EEF7FE185E9CA
:103D900094E00E94211380918504813019F1809173
:103DA000E004482F50E070E060E0C090E104D09063
:103DB000E204E090E304F090E404C416D506E606BD
:103DC000F70610F08F3F71F480918704813009F07D
:103DD00061CF0E942A185ECF8FE39CE195CF87E3E5
:103DE0009CE1A9CF8FEF8093E00485E994E00E94E5
:103DF00012131092960462E17EE185E994E00E943C
:103E000021131092880481E28093EF0481E0809373
:103E10009904C091D301CF5F81E08093C404809363
:103E2000DE041092DF04E0E7F2E088EF91E0DF01CA
:103E30009C011D9221503040E1F71092C70410926E
:103E4000C8046FE471E08EEB94E00E940B186AE501
:103E500071E08EEB94E00E940B188C2F0E94DF1D06
:103E60000E94E1188823E1F380918704813061F199
:103E700080918304813039F4CF5FC73108F0C6E107
:103E80008C2F0E94DF1D80918104813031F4C1505C
:103E900009F4C1E08C2F0E94DF1D809185048130E0
:103EA000F9F6C1501092620210926102C63198F484
:103EB000C093D301DF91CF911F910F91FF90EF90AD
:103EC000DF90CF900C943E1DC150C093D30110924F
:103ED0006202109261020E94151DC7CE1F920F92BE
:103EE0000FB60F9211242F933F938F939F93AF930D
:103EF000BF9380916C0290916D02A0916E02B0917F
:103F00006F0230916D0123E0230F2D3758F5019694
:103F1000A11DB11D20936D0180936C0290936D02E1
:103F2000A0936E02B0936F0280916E0190916F0129
:103F3000A0917001B09171010196A11DB11D8093F6
:103F40006E0190936F01A0937001B0937101BF91C6
:103F5000AF919F918F913F912F910F900FBE0F9036
:103F60001F90189526E8230F0296A11DB11DD2CFF0
:103F70001F920F920FB60F9211242F936F937F937E
:103F80008F939F9360916802662349F180916C0141
:103F90008F5F80936C0190916902891700F12091E5
:103FA0006B0281E0282720936B0210926C018091B4
:103FB0006A02882369F08091000193E4899F802D33
:103FC0001124895B809300010E944028909367022E
:103FD00080916702211101C080E08093B4009F911D
:103FE0008F917F916F912F910F900FBE0F901F9027
:103FF0001895CF93DF9300D000D0CDB7DEB778947B
:1040000084B5826084BD84B5816084BD85B58260DD
:1040100085BD85B5816085BD80916E00816080938E
:104020006E001092810080918100826080938100F7
:104030008091810081608093810080918000816007
:10404000809380008091B10084608093B100809162
:10405000B00081608093B00080917A00846080938A
:104060007A0080917A00826080937A0080917A0051
:10407000816080937A0080917A00806880937A00D2
:104080001092C10082E38093EF0481E090E0A0E011
:10409000B0E08093EB049093EC04A093ED04B09314
:1040A000EE048FEF8093E004E0E8F7E72591349188
:1040B0002130304C09F0D9C2E6E9F7E7E491E0930A
:1040C000C904E7E9F7E7E491E0937404E8E9F7E766
:1040D000E491E0937504E9E9F7E785919491909371
:1040E000770480937604EBE9F7E7859194919093B8
:1040F00079048093780487E080939B04EEE9F7E7E6
:10410000E491E0939A04EFE9F7E7E491E093E004A7
:10411000E0EAF7E78591949190938D0480938C0465
:10412000E2EAF7E78591949190938F0480938E044F
:10413000E4EAF7E785919491909391048093900439
:10414000E6EAF7E785919491909393048093920423
:1041500051E0509370046FEF70E085E00E941512FB
:1041600088E080937A0489E080937B0487E08093E1
:104170007C0486E080937D0484E080937E0482E06A
:1041800080937F0481E1809380040E94CE118CE3B0
:104190009FE090938B0480938A0494E09093890429
:1041A000E1E0E09394048BE08093CC048DE0809375
:1041B000CB0480E18093CD048EE08093CF048FE028
:1041C0008093CE04E093C604E093DE041092DF04F3
:1041D000E093C504E8E5FEE1E491EF5FE093C204FB
:1041E000E9E5FEE1E491EF5FE093C3048AE59EE137
:1041F0009093DD048093DC04FFB7F983F8948091F9
:104200007201811127C0E9E7F0E28491EDE8F0E264
:104210009491E82FF0E0EE0FFF1FE051F24EA591D0
:10422000B491EC91E92321F461E08AE00E940A1143
:1042300061E08AE00E9492118CB580618CBD8CB5E2
:1042400080648CBD61E08DE00E94921161E08BE0A2
:104250000E949211809172018F5F80937201298177
:104260002FBF8CB58F7D8CBD8CB58C7F81608CBD54
:104270008DB581608DBD8CB58C608CBD61E0809109
:10428000CC040E94921161E08091CB040E949211B3
:1042900061E08091CD040E9492118091CF041816A4
:1042A0001CF461E00E9492118091CE0418161CF457
:1042B00061E00E9492118091CF04181674F460E0BE
:1042C0000E940A116AE070E080E090E00E94E01233
:1042D00061E08091CF040E940A118091CB04082EE6
:1042E000000C990BFC01E159FF4DE491F0E0EE0F59
:1042F000FF1FE650F24E259134913093D304209362
:10430000D204FC01ED57FF4DE491E093D904809174
:10431000CC04082E000C990BFC01E159FF4DE491EF
:10432000F0E0EE0FFF1FE650F24E259134913093EE
:10433000D1042093D004FC01ED57FF4DE491E093AC
:10434000D8048091CE04082E000C990BFC01E15991
:10435000FF4DE491F0E0EE0FFF1FE650F24E259185
:1043600034913093D5042093D404FC01ED57FF4DD4
:10437000E491E093DA048091CD04082E000C990BAF
:10438000FC01E159FF4DE491F0E0EE0FFF1FE65014
:10439000F24E259134913093D7042093D604FC013A
:1043A000ED57FF4DE491E093DB0481E20E94381168
:1043B00084E10E9438118091C90487FF03C08FE710
:1043C0008093C9048091C90480680E94381180E2FA
:1043D0000E9438118CE00E9438110E94571181E030
:1043E0008093990484E08093BD048CEE9DE19093CA
:1043F000A5048093A40480E00E94811061E070E035
:1044000083E00E9415128091B100887F81608093C3
:10441000B100F894109280001092810010928500F3
:104420001092840088E191E0909389008093880045
:1044300080918100886080938100809181008160FB
:104440008093810080916F00826080936F007894E8
:1044500080918C0490918D04892B11F00E9484121C
:1044600080918604813009F42DC1809189048823CC
:1044700009F428C164E07EE185E994E00E942113FB
:1044800081E00E94271E11E00E94E118882309F4B0
:10449000DDC2109266028091820481508E3F80F4CA
:1044A000309165023983832F81508093650260E0EB
:1044B00080E00E946C17811108C149814093650218
:1044C0008091840481508E3F80F45091650259831D
:1044D000852F8F5F8093650263E080E00E946C17F8
:1044E0008111FBC089818093650280918104815094
:1044F0008E3F80F4909164029983892F815080933C
:10450000640260E080E00E946C178111EEC0E981D6
:10451000E09364028091830481508E3F80F4F09197
:104520006402F9838F2F8F5F8093640260E083E0E1
:104530000E946C178111E1C0298120936402709060
:104540006402472D50E05C834B838091030190917E
:1045500004019A01280F391F243131052CF40196EA
:1045600090930401809303018091030190910401D1
:104570002B813C81280F391F213431052CF0019704
:10458000909304018093030190906502C92CD12C73
:1045900080910101909102019601280F391F2A3064
:1045A00031052CF4019690930201809301018091D2
:1045B0000101909102019601280F391F2732310520
:1045C0002CF00197909302018093010148EF51E094
:1045D0006FEF7FEF80E792E00E947A281092DE046E
:1045E0001092DF04B12C8091D201B81608F099C066
:1045F00056E0B59E70011124A12C8091D1016091EB
:104600000301709104014091010150910201A8162B
:1046100008F085C0EA2DF0E0B89EE00DF11D1124F0
:10462000CF010396E091CF01F091D001E80FF91F7F
:10463000E49186E0A89E600D711D1124CB010496C3
:104640008B35910580F44E0D5F1DCA0104968934A7
:10465000910548F4E13009F058C006E026E08EEB01
:1046600094E00E948015A394C8CF9CE39093C90462
:10467000109274048093750480E293E09093770421
:104680008093760484ED93E090937904809378048A
:1046900087E080939B0480939A048CEA9DE090933A
:1046A0008D0480938C048EED9DE090938F04809315
:1046B0008E0484E79EE090939104809390048CE3B1
:1046C0009FE042CD10929A04DBCE60E083E00E942E
:1046D0006C17882309F4F1CEF3CE63E083E00E94E7
:1046E0006C17882309F4FECE00CF63E080E00E94BF
:1046F0006C17882309F40BCF0DCF63E083E00E9491
:104700006C17882309F418CF1ACFEE2309F4ABCF26
:1047100022E23EE18EEB94E00E946413A4CFB394B6
:1047200062CFA0900101B0900201E92CEA0C8090C8
:10473000030190900401780C41E04E0D61E0670D9B
:1047400002E022E08EEB94E00E9480151093DE04DC
:104750001093DF0424E04E2D672D8EEB94E00E9431
:10476000641543E04E0D24E0672D8EEB94E00E942B
:10477000641524E04E2D672D8EEB94E00E9499166F
:1047800063E0670D24E04E2D8EEB94E00E949916B5
:10479000512CEB81FC813496FA83E9831601F4E015
:1047A0002F0E311C8091CE01581608F0C5C0E52DA2
:1047B000F0E0EE0FFF1FED58FE4FA081B181809118
:1047C000CD01811150C01496FC901497FF2009F47C
:1047D0004AC06D917C91119715964D915C911697F9
:1047E000FA01249130E03196E491F0E0621773070A
:1047F0000CF07AC06F0D711D261737070CF471C0CD
:1048000011967C936E9312966D917C9113976E170F
:104810007F070CF07EC06F0D711DE617F7070CF4D3
:1048200074C013967C936E9312976D917C9111973F
:1048300026173707C1F412962D913C9113972E1726
:104840003F0789F4FA0132961696FC93EE9315977A
:10485000E491ED3F40F017968D919C911897169634
:104860009C938E93159712966D907C901397ED9074
:10487000FC90C70104962B813C81281739077CF4F2
:1048800049815A81E416F50654F4C3010496C8160A
:10489000D9062CF46214730414F410936302E80C28
:1048A000F91CC70104968B359105C8F46A0C7B1C72
:1048B000C30104968934910590F441E0460D02E06D
:1048C00024E06E2D8EEB94E00E94801561E06E0D69
:1048D00004E022E0462D8EEB94E00E948015539474
:1048E00061CF11963C932E936D917C911197261771
:1048F00037070CF088CF6F197109621773070CF036
:104900007FCF11963C932E937ECF1396FC93EE931C
:10491000129712966D917C911397E617F7070CF09A
:1049200084CF6F1971096E177F070CF07ACF139639
:10493000FC93EE93129779CFF12C2B803C8054E0BE
:10494000250E311C360184E0680E711C80916002D6
:10495000F81608F049C0EF2DF0E0EE0FFF1FEC5203
:10496000FE4F40805180F201828181113BC08081E5
:1049700090E09C012C5F3F4F4B815C8142175307B5
:10498000B4F4821593059CF4818190E09C012C5F26
:104990003F4FC216D3065CF48615970544F451E0E8
:1049A00052836EEF7FE185E994E00E942113F201CA
:1049B0006081680D792D711DCB0104968B359105B1
:1049C00088F441814A0D5B2D511DCA01049689343A
:1049D000910540F4EE24E39404E024E08EEB94E0AF
:1049E0000E940D17F394B2CF1093C7041093C8041C
:1049F0001092DE041093DF046091610270916202F4
:104A00008EEB94E00E94AB188091CD01F1E08F27EE
:104A10008093CD0180916302882301F1809161022E
:104A200090916202019690936202809361026AE122
:104A30007EE185E994E00E9421130E94E7178091AE
:104A40008704813019F480E00E94271E20E030E0C6
:104A5000232B09F419CD0E94000016CD8091660227
:104A6000882369F330916002E4EDF1E090E03917BA
:104A700059F0A191B19121E012964C91411101C0E0
:104A800020E082239F5FF3CF8823C9F262E17EE1B9
:104A900085E994E00E9421138091D30161E090E0C8
:104AA0000E949D260E94151D8091D30191E0980FD0
:104AB0009093D301963130F08093D30180E00E942F
:104AC000271EBDCF0E943E1DBACF1092C104109286
:104AD000C0048BE391E09093BF048093BE040895DB
:104AE0000F931F93CF93DF938230910510F482E0F0
:104AF00090E0E091F904F091FA0430E020E0B0E0B9
:104B0000A0E0309799F42115310509F44AC0281B1B
:104B1000390B24303105D8F58A819B8161157105E7
:104B200089F1FB0193838283FE0111C04081518191
:104B30000281138148175907E0F04817590799F483
:104B4000109761F012960C93129713961C9332965D
:104B5000CF01DF91CF911F910F9108950093F90438
:104B60001093FA04F4CF2115310551F04217530781
:104B700038F0A901DB019A01BD01DF01F801C1CFC5
:104B8000EF01F9CF9093FA048093F904CDCFFE01A1
:104B9000E20FF31F819391932250310939832883C7
:104BA000D7CF2091F7043091F804232B41F42091C2
:104BB0000701309108013093F8042093F704209105
:104BC0000501309106012115310541F42DB73EB79D
:104BD0004091090150910A01241B350BE091F70423
:104BE000F091F804E217F307A0F42E1B3F0B2817EF
:104BF000390778F0AC014E5F5F4F2417350748F056
:104C00004E0F5F1F5093F8044093F70481939193E4
:104C10009FCFF0E0E0E09CCFCF93DF930097E9F0E7
:104C2000FC01329713821282A091F904B091FA0428
:104C3000ED0130E020E01097A1F420813181820F56
:104C4000931F2091F7043091F8042817390709F0D1
:104C500061C0F093F804E093F704DF91CF910895D9
:104C6000EA01CE17DF07E8F54A815B819E01411515
:104C70005105B1F7E901FB83EA8349915991C40FCA
:104C8000D51FEC17FD0761F4808191810296840F96
:104C9000951FE90199838883828193819B838A830D
:104CA000F0E0E0E012968D919C9113970097B9F592
:104CB0002D913C911197CD010296820F931F209167
:104CC000F7043091F8042817390739F6309751F571
:104CD0001092FA041092F904B093F804A093F70428
:104CE000BCCFD383C28340815181840F951FC817E5
:104CF000D90761F44E5F5F4F88819981480F591F32
:104D0000518340838A819B8193838283211531055E
:104D100009F0B0CFF093FA04E093F9049ECFFD01BF
:104D2000DC01C0CF13821282D7CFF999FECF92BD9A
:104D300081BDF89A992780B50895262FF999FECF5D
:104D40001FBA92BD81BD20BD0FB6F894FA9AF99AA8
:104D50000FBE01960895052E97FB1EF400940E9445
:104D6000C22657FD07D00E94D52607FC03D04EF47B
:104D70000C94C22650954095309521953F4F4F4F4A
:104D80005F4F089590958095709561957F4F8F4FF7
:104D90009F4F08950E94F726A59F900DB49F900DF8
:104DA000A49F800D911D11240895A1E21A2EAA1B23
:104DB000BB1BFD010DC0AA1FBB1FEE1FFF1FA217CB
:104DC000B307E407F50720F0A21BB30BE40BF50BC8
:104DD000661F771F881F991F1A9469F76095709551
:104DE000809590959B01AC01BD01CF010895A29FD4
:104DF000B001B39FC001A39F700D811D1124911DAF
:104E0000B29F700D811D1124911D08950E947A2773
:104E100088F09F5798F0B92F9927B751B0F0E1F07B
:104E2000660F771F881F991F1AF0BA95C9F714C02B
:104E3000B13091F00E949427B1E008950C9494272A
:104E4000672F782F8827B85F39F0B93FCCF3869564
:104E500077956795B395D9F73EF4909580957095C1
:104E600061957F4F8F4F9F4F0895E89409C097FB3E
:104E70003EF490958095709561957F4F8F4F9F4F31
:104E80009923A9F0F92F96E9BB279395F695879575
:104E900077956795B795F111F8CFFAF4BB0F11F438
:104EA00060FF1BC06F5F7F4F8F4F9F4F16C08823DF
:104EB00011F096E911C0772321F09EE8872F762F15
:104EC00005C0662371F096E8862F70E060E02AF056
:104ED0009A95660F771F881FDAF7880F9695879542
:104EE00097F9089557FD9058440F551F59F05F3FAB
:104EF00071F04795880F97FB991F61F09F3F79F0FC
:104F000087950895121613061406551FF2CF46957D
:104F1000F1DF08C0161617061806991FF1CF8695FF
:104F20007105610508940895E894BB2766277727E3
:104F3000CB0197F908950E94AE270C941F280E9478
:104F4000112838F00E94182820F0952311F00C94B5
:104F500008280C940E2811240C9495270E9472277F
:104F600070F3959FC1F3950F50E0551F629FF001BC
:104F7000729FBB27F00DB11D639FAA27F00DB11DD5
:104F8000AA1F649F6627B00DA11D661F829F22275E
:104F9000B00DA11D621F739FB00DA11D621F839FE5
:104FA000A00D611D221F749F3327A00D611D231FBB
:104FB000849F600D211D822F762F6A2F11249F5709
:104FC00050409AF0F1F088234AF0EE0FFF1FBB1F0C
:104FD000661F771F881F91505040A9F79E3F5105CB
:104FE00080F00C9408280C9495275F3FE4F3983EDA
:104FF000D4F3869577956795B795F795E7959F5F75
:10500000C1F7FE2B880F911D9695879597F9089506
:1050100097F99F6780E870E060E008959FEF80EC6B
:10502000089500240A94161617061806090608950E
:1050300000240A9412161306140605060895092E74
:105040000394000C11F4882352F0BB0F40F4BF2BE3
:1050500011F460FF04C06F5F7F4F8F4F9F4F089523
:10506000DB018F939F930E94CA26BF91AF91A29FAD
:10507000800D911DA39F900DB29F900D1124089556
:10508000991B79E004C0991F961708F0961B881F9A
:105090007A95C9F78095089597FB072E16F400942A
:1050A00007D077FD09D00E94602807FC05D03EF4A8
:1050B000909581959F4F0895709561957F4F0895C4
:1050C000AA1BBB1B51E107C0AA1FBB1FA617B7072E
:1050D00010F0A61BB70B881F991F5A95A9F780954A
:1050E0009095BC01CD010895EE0FFF1F0590F4913E
:1050F000E02D0994DC0101C06D9341505040E0F770
:065100000895F894FFCFB2
:1051060001060006000000FB048000A11BE41A490A
:105116001A5F19921833176116AF15691417131110
:1051260012CE10280F1F0E2C0D820B180AA208454E
:10513600062304C502680000000000A915B4100883
:105146001807180D0A004C4F414445520020004CE8
:105156006576656C204D656E75000A0A4C65766548
:085166006C2020112020100034
:00000001FF
