:100000000C94C8010C94F0010C94F0010C94F001D4
:100010000C94F0010C94F0010C94F0010C94F0019C
:100020000C94F0010C94F0010C94F0010C948D0EE2
:100030000C94F0010C94F0010C94F0010C94F0017C
:100040000C94430E0C94F0010C94F0010C94F0010C
:100050000C94F0010C94F0010C94F0010C94F0015C
:100060000C94F0010C94F0010101FF030101F7036E
:100070006B487A29002800487A00667265717565B8
:100080006E63793A200068616C662D706572696FE5
:1000900064206379636C65733A200074696D6572DE
:1000A0002076616C75653A200020002000100074F5
:1000B000696D65722076616C75653A0010002900E3
:1000C0002878007072657363616C65723A20202035
:1000D000002000200010007072657363616C65720F
:1000E0003A20200010006C0068000000000024008E
:1000F00027002A0000000000250028002B00050032
:100100008930080238024978681400000A0A153A52
:1001100049676E6F7265006D560A0A504C4541532F
:1001200045205455524E204F464620004C4F5720F4
:100130004241545445525921200003053F213F12AA
:1001400008120A100A0E1C0E0C1E0C141A14161F8C
:10015000161E131E1E1B1E1E1F1E3F213F3A2F3A46
:10016000173D173F213F181F02040A041F0E040405
:100170000E1F0A1F0A0E0E1F04110E2E252E2F2AE7
:100180002E262929021F02081F08150E04040E1529
:100190000E15151B151B040604040C0400000000BA
:1001A00017000300031F0A1F16371A1904130A1534
:1001B0003A000300000E11110E000A040A040E0496
:1001C0000030000404040010001804031F111F1263
:1001D0001F101D151711151F07041F17151D1F15BB
:1001E0001D01011F1F151F17151F000A00003200F7
:1001F000040A110A0A0A110A040115020E11171E37
:10020000051E1F150A0E110A1F110E1F15111F05BD
:10021000010E111D1F041F111F1108100F1F041BB9
:100220001F10101F061F1E040F0E110E1F09060EB1
:10023000112E1F051A121509011F011F101F0F187B
:100240000F1F0C1F1B041B031C03191513001F1188
:10025000030418111F000201022020200001020CDB
:10026000121E1F120C0C12120C121F0C1A14041E58
:1002700005242A1E1F021C141D1020201D1F0814F7
:10028000111F101E041E1E021C0C120C3E0A040C30
:10029000123E1E040214160A020F120E101E0E1039
:1002A0000E1E081E120C1226281E322A26041E219B
:1002B000001F00211E040102013F213FF6E8DBCFB1
:1002C000C3B8AEA49B928A827B746E68625C5752FC
:1002D0004E4945413E3A3734312E2C2927252321DA
:1002E0000A4E6F2053442063617264206F720A6E5D
:1002F0006F204C4F414445522E4845580A0A153A42
:1003000045786974001D20466C617368696E670AE0
:1003100020206C6F616465722E2E2E0A0A444F4EA7
:100320002754205455524E204F4646210045006820
:10033000010000172B152010204C4F41444552005E
:10034000172B16201314000000000023002600299C
:10035000000404040404040404020202020202036E
:100360000303030303010204081020408001020478
:1003700008102001020408102000000008000201FB
:1003800000000304070000000000000000005912F4
:1003900011241FBECFEFD8E0DEBFCDBF11E0A0E03B
:1003A000B1E0EEE8FAE202C005900D92A632B10784
:1003B000D9F723E0A6E2B1E001C01D92AF3BB2073E
:1003C000E1F711E0C8ECD1E004C02197FE010E94E2
:1003D0003F15C73CD107C9F70E94CE0E0C944515B6
:1003E0000C940000E5E3F3E014AE12AE10927E032D
:1003F00010927D0315AE1092BE031092BD031092B1
:10040000BC031092B400089590E0880F991FE0910A
:100410006903F0916A03E80FF91F25913491309335
:100420007A0320937903F9018591949190915E0369
:10043000989F802D112480937B03F901659174911D
:10044000472F50E08417150629F020F0F901259177
:100450003491832F989F802D112480937C030895DD
:10046000CF93DF93E09163038E2F90E0880F991F65
:10047000E0916103F0916203E80FF91F8591949177
:100480008F3F980729F410925A03DF91CF91089576
:10049000909366039927880F991FE0916403F09168
:1004A0006503E80FF91FC591D4910E94F201D09322
:1004B0006803C093670310926D0310926C0381E090
:1004C00080935B0389E08093700310927303109212
:1004D000750310927703809163038F5F80936303AA
:1004E000D4CF860F911DFC018781423038F49FEFF5
:1004F000980F81E09E3F50F080E008C08F3FE1F30D
:10050000642F0E940B1581E09130B1F70895DC0152
:10051000ED91FC910190F081E02D0994EF92FF9212
:100520000F931F93CF93DF938C017B01D0E0C0E04A
:10053000F701EC0FFD1F6491662361F0D801ED9186
:10054000FC910190F081E02DC8010995892B11F0F3
:100550002196EECFCE01DF91CF911F910F91FF90A9
:10056000EF900895AF92BF92CF92DF92EF92FF92F9
:100570000F931F93CF93DF936C017B018B01040FCB
:10058000151FEB015E01AE18BF08C017D10759F067
:100590006991D601ED91FC910190F081E02DC601A9
:1005A0000995892B79F7C501DF91CF911F910F91A3
:1005B000FF90EF90DF90CF90BF90AF900895833081
:1005C00081F028F4813099F08230A9F008958730C5
:1005D000A9F08830C9F08430B1F4809180008F7D1B
:1005E00003C0809180008F7780938000089584B548
:1005F0008F7784BD089584B58F7DFBCF8091B00047
:100600008F778093B00008958091B0008F7DF9CFEF
:100610001F93CF93DF93282F30E0F901E758FC4F69
:100620008491F901EB59FC4FD491F901EF5AFC4F39
:10063000C491CC23A9F0162F81110E94DF02EC2F68
:10064000F0E0EE0FFF1FEC50FF4FA591B4918FB774
:10065000F894EC91111108C0D095DE23DC938FBF84
:10066000DF91CF911F910895DE2BF8CFCF93C82F44
:10067000F89460E0809192030E94080380919303B4
:1006800018161CF460E00E940803CEBD00000DB4F3
:1006900007FEFDCF8EB58091930318161CF461E020
:1006A0000E9408037894CF9108950F931F93CF93DE
:1006B00080918F038F5F80938F0305E311E0C0E08B
:1006C0008C2F80640E94360380E80E94360361E02C
:1006D000809192030E9408038091930318161CF4E2
:1006E00060E00E940803F80184E591919EBD00003E
:1006F0000DB407FEFDCF9EB58150B9F780919303ED
:1007000018161CF461E00E940803CF5F0C5A1F4FBB
:10071000C630B1F680E4CF911F910F910C9436034F
:10072000CF93DF9390E0FC01EB59FC4F24918F5A5B
:100730009C4FFC0184918823C9F090E0880F991F99
:10074000FC01E651FF4FA591B491FC01EC50FF4F25
:10075000C591D49161110DC09FB7F8948C912095EB
:1007600082238C938881282328839FBFDF91CF9198
:100770000895623051F49FB7F8943C91822F809590
:1007800083238C93E8812E2BEFCF8FB7F894EC91D5
:100790002E2B2C938FBFEACFFF920F931F93CF93F3
:1007A000DF93C5E3D3E0FF24FA9462E08A850E94D8
:1007B00090032A8530E0F901E758FC4F8491F90154
:1007C000EB59FC4F0491F901EF5AFC4F149111239E
:1007D000E1F081110E94DF02E12FF0E0EE0FFF1F38
:1007E000E95BFC4FA591B491EC9189890E2369F0E6
:1007F000811113C0219683E0CC33D807B1F6DF9185
:10080000CF911F910F91FF90089589898F5F898BF8
:1008100060E08A850E949003EDCF8F3F11F4198A22
:10082000F7CFF98AF5CF1F93CF93DF93182FEB0102
:1008300061E00E949003209739F460E0812FDF91FE
:10084000CF911F910C940803CF3FD10511F461E0C3
:10085000F5CFE12FF0E0E758FC4FE491E33031F1C0
:1008600040F4E130B1F0E230E1F0C038D1057CF77E
:10087000E4CFE73029F1E83059F1E430B1F7809165
:100880008000806280938000D0938B00C0938A00A8
:1008900004C084B5806884BDC7BDDF91CF911F912E
:1008A000089584B5806284BDC8BDF7CF8091800073
:1008B000806880938000D0938900C0938800EDCF3A
:1008C0008091B00080688093B000C093B300E5CF02
:1008D0008091B00080628093B000C093B400DDCFFF
:1008E0008E50806480937C0080917A008064809335
:1008F0007A0080917A0086FDFCCF809178009091FB
:1009000079000895809159038F7149F584E10E941F
:100910007004BC01990F880B990B0E94D41326EE2A
:100920003FE34EEC50E40E9489140E94A3139B0104
:100930007093500360934F03672BB9F084E080936A
:100940004E03E1E5F3E080E0419151912417350732
:1009500018F480934E0308958F5F8430A9F7809137
:1009600059038F5F8093590308958FEF80934E034F
:10097000F6CF3FB7F8948091280190912901A0917A
:100980002A01B0912B0126B5A89B05C02F3F19F075
:100990000196A11DB11D3FBFBA2FA92F982F8827FF
:1009A000BC01CD01620F711D811D911D42E0660FDA
:1009B000771F881F991F4A95D1F708958F929F92AC
:1009C000AF92BF92CF92DF92EF92FF924B015C0108
:1009D0000E94B9046B017C010E94B9046C197D0965
:1009E0008E099F09683E734081059105A8F321E0B7
:1009F000821A9108A108B10888EEC80E83E0D81EBB
:100A0000E11CF11C81149104A104B10429F7FF90A9
:100A1000EF90DF90CF90BF90AF909F908F90089510
:100A2000DC01643570F5403360F590968C919097B9
:100A3000E62F062E000CFF0B242F259525952595D6
:100A400094E52902E00DF11D1124EB5CFE4F20819D
:100A5000342F37708230B1F4822F90E0032E02C021
:100A6000959587950A94E2F780958170811114C05D
:100A700081E090E001C0880F3A95EAF780958223E3
:100A800080830895833091F71C968C918170642740
:100A9000609561708613ECCF81E090E001C0880F13
:100AA0003A95EAF7822BECCFAF92BF92CF92DF92CA
:100AB000EF92FF920F931F93CF93DF93182F062F80
:100AC000C0E0D3E08AEFD82E9EEFE92E842F847009
:100AD000C82E842F8270B82E842F8870A82E417063
:100AE000F42ECF5F8C2F880F8F5FE80ECC2081F023
:100AF000402F4D0F612F6C0F83E893E00E9410058B
:100B0000402F4C0F6D2F610F83E893E00E9410057A
:100B1000BB2081F0402F4D1B612F6C0F83E893E0C9
:100B20000E941005402F4C1B6D2F610F83E893E04E
:100B30000E941005AA2081F0402F4C0F612F6D1BE1
:100B400083E893E00E941005402F4D0F612F6C1B2E
:100B500083E893E00E941005FF2081F0402F4C1B9A
:100B6000612F6D1B83E893E00E941005402F4D1B01
:100B7000612F6C1B83E893E00E941005CD173CF4B5
:100B8000E7FCAFCFD150D394D394ED0CAACFDF9133
:100B9000CF911F910F91FF90EF90DF90CF90BF907A
:100BA000AF9008950F931F93CF93DF93D82F162FF5
:100BB000042FC0E0C0174CF4412F4C0F6D2F83E879
:100BC00093E00E941005CF5FF5CFDF91CF911F9189
:100BD0000F9108958F929F92AF92BF92CF92DF9222
:100BE000EF92FF920F931F93CF93DF93082FA62EC0
:100BF000842E922E83E0F82ED0E0C3E09AEFE92E07
:100C00001EEFBB24B394B20EDF5F1F0D4C2F440FB9
:100C10006A2D6C1BC92CCF0CDA2CDD1A81E04B0D30
:100C2000881215C0802F8D0F0E94D2054C2D6D2D7E
:100C30008C2F800F0E94D205DC1794F417FD04C09E
:100C4000C150E394E3941E0DF394F394DDCF802F11
:100C50008D1B0E94D2054C2D6D2D802F8C1BEACF51
:100C6000DF91CF911F910F91FF90EF90DF90CF9088
:100C7000BF90AF909F908F900895CF92DF92EF92A8
:100C8000FF920F931F93CF93DF937C01D62EC22E3A
:100C9000C42F002E000C110B040F111D47FD1A95D7
:100CA0008C2F0C2E000C990B801791076CF4D0E060
:100CB000DC1544F46D2D6D0F4C2FC7010E941005FB
:100CC000DF5FF6CFCF5FECCFDF91CF911F910F9118
:100CD000FF90EF90DF90CF9008954F925F926F92C8
:100CE0007F928F929F92AF92BF92CF92DF92EF92BC
:100CF000FF920F931F93CF93DF93EC016A3049F477
:100D000028859D818A85299F800D11248A871986CF
:100D1000A6C06D3009F4A3C0898483E588150CF45E
:100D200087C0DA848FE28D150CF482C018852C817F
:100D30002150330B129FC001139F900D1124880D79
:100D4000911D87FC9A95181619060CF071C02D811B
:100D50008D2D0D2C000C990B129F800D911D1124CF
:100D6000181619060CF064C078A0C82C912CE62E39
:100D7000F12C292D092C000C330B8C8190E02817C5
:100D800039070CF054C00197E0E02817390771F0DB
:100D9000E89EF001E99EF00DF89EF00D11242E0F53
:100DA0003F1FEE8DFF8DE20FF31FE4915D2C612C50
:100DB000492C480C2D81862D062C000C990B2817E8
:100DC000190691F18CF1AE2EB12CE0FF16C0113056
:100DD00061F4462D4D0D642DCE010E941005F501E4
:100DE000F595E7956394510EE5CF012F212F452D01
:100DF0006C2DCE010E943D06F2CF89A198A18917E2
:100E000071F388A3113041F4462D4D0D642DCE01B0
:100E10000E94100578A2E3CF012F212F452D6C2DC4
:100E2000CE010E943D06F6CF9394C10EA2CF78A2C8
:100E300028853C818985239F800D112489879F8186
:100E4000992369F0082E000C990B44E550E0239F8C
:100E5000401951091124481759070CF452CF81E069
:100E600090E0DF91CF911F910F91FF90EF90DF9075
:100E7000CF90BF90AF909F908F907F906F905F903A
:100E80004F900895089590E080E00895FB0101904F
:100E90000020E9F73197AF01461B570BDC01ED91BC
:100EA000FC910280F381E02D09948F929F92AF9282
:100EB000BF92EF92FF920F931F93CF93DF93CDB723
:100EC000DEB7A1970FB6F894DEBF0FBECDBF7C0191
:100ED000FA01CB0119A2223008F42AE08E010F5D3D
:100EE0001F4F822E912CB12CA12CBF01A501940182
:100EF0000E948E12F901CA016A300CF5605DD801BA
:100F00006E938D01232B242B252B79F790E080E025
:100F1000109721F0BD01C7010E944607A1960FB6A8
:100F2000F894DEBF0FBECDBFDF91CF911F910F911F
:100F3000FF90EF90BF90AF909F908F900895695C65
:100F4000DECF4F925F926F927F928F929F92AF927D
:100F5000BF92CF92DF92EF92FF920F931F93CF93A6
:100F60006B017C01742EAC019B010E94F6146FE0B2
:100F700071E0811126C046015701E894B7F82FEFC0
:100F80003FEF4FE75FE7C501B4010E94F6148111FE
:100F90000CC02FEF3FEF4FE75FE7C501B4010E94A0
:100FA0002C1363E171E0181664F02FEF3FEF4FE769
:100FB0005FE4C701B6010E9484141816ACF467E11F
:100FC00071E083E893E0CF911F910F91FF90EF9034
:100FD000DF90CF90BF90AF909F908F907F906F9059
:100FE0005F904F900C9446072FEF3FEF4FE75FEC79
:100FF000C701B6010E942C1387FDE1CF20E030E04D
:10100000A901C701B6010E942C1310E000E087FF80
:101010000AC06DE283E893E00E9487028C01F7FA30
:10102000F094F7F8F094C0E060E070E080E09FE3B7
:101030007C1641F020E030E040E251E40E943113A0
:10104000CF5FF6CFA70196010E94C0122B013C0191
:101050000E94A3134B015C012AE0BC01A40183E8B8
:1010600093E00E9455077C01E00EF11ECC23D1F1E4
:10107000C501B4010E94D2139B01AC01C301B201AE
:101080000E94BF124B015C016EE283E893E00E9474
:101090008702E80EF91EC15028F120E030E040E25E
:1010A00051E4C501B4010E9489142B013C010E9446
:1010B000A3134B01B12CA12C2AE0B501A40183E8B4
:1010C00093E00E945507E80EF91EC501B4010E9485
:1010D000D2139B01AC01C301B2010E94BF124B01AC
:1010E0005C01D9CFC701CF911F910F91FF90EF9075
:1010F000DF90CF90BF90AF909F908F907F906F9038
:101100005F904F9008950F931F93CF93DF93EC015F
:101110000E948E028C016BE171E0CE010E944607B5
:10112000800F911FDF91CF911F910F9108954F92E2
:101130005F926F927F928F929F92AF92BF92CF9267
:10114000DF92EF92FF920F931F93CF93DF9300D024
:1011500000D01F92CDB7DEB74091B5035091B603D2
:101160006091B7037091B8032FB7F8948091310163
:1011700090913201A0913301B09134012FBF481BEF
:10118000590B6A0B7B0B8091B40390E0B0E0A0E0B8
:101190000091B0031091B1032091B2033091B303D9
:1011A00084179507A607B70708F0CEC001151105EB
:1011B0002105310509F4C8C02FB7F8948091310199
:1011C00090913201A0913301B09134012FBF209151
:1011D000B403820F911DA11DB11D8093B50390939F
:1011E000B603A093B703B093B8038091A603909180
:1011F000A703A091A803B091A9030196A11DB11D59
:101200008093A6039093A703A093A803B093A90388
:101210001092B0031092B1031092B2031092B30374
:101220000E94B9046093AC037093AD038093AE0346
:101230009093AF0380913603909137032FE0289F5E
:10124000A001299F500D11245A83498385E10E94F2
:101250007004A981BA818A0F9B1FB4E09695879587
:10126000BA95E1F7909337038093360320913503C5
:10127000222309F448C060913903262F30E050E062
:1012800040E029833A834B835C83C0903A03D12C9E
:10129000F12CE12C40913D0350913E034A01B12CC9
:1012A000A12C20913B0330913C032901712C612C2E
:1012B0008217930728F09C014817590708F49A01F0
:1012C00050E040E0241935094609570969817A81BF
:1012D0008B819C816C197D098E099F090E94FB14EA
:1012E000A501940124193509460957090E94641281
:1012F000C20ED31EE41EF51EC09238036C2D70E0A2
:1013000085E00E9413040E94CC03809151039091C8
:101310005203892B11F00E94820481E00F900F90FC
:101320000F900F900F90DF91CF911F910F91FF9031
:10133000EF90DF90CF90BF90AF909F908F907F9075
:101340006F905F904F900895012B022B032B09F0B3
:1013500087C180914C0381508E3FB8F580914B033B
:10136000813099F580915F038F5F6091600387FD05
:1013700009C0082E000C990B70E06F5F7F4F0E9430
:101380001715682F60935F0380E493E09093BA038E
:101390008093B90388E48093BB030E94F2018DE23D
:1013A00093E0909368038093670310926D0310920B
:1013B0006C0381E080935B0389E08093700310925B
:1013C0007303109275031092770380914C03815040
:1013D0008E3F70F480914A03813009F025C383E386
:1013E00093E09093BA038093B90388E48093BB039E
:1013F00080915A03882331F080915B03811102C0F0
:101400000E94300280915B03882309F43EC08091E2
:101410006F0381113AC08091670390916803E09156
:101420006C03F0916D03EE0FFF1FE80FF91F25917C
:1014300034912115310509F46AC1A90156954795E2
:1014400056954795842F20FD0DC18F7380936E03B1
:1014500080915E03839F802D112480936F031092EF
:101460007F0310927E0310927D0381E080937103CD
:101470008093BC031092720380916C0390916D0372
:10148000019690936D0380936C0380917103882380
:1014900031F080916F03811154C10E94F20180915B
:1014A000BB03882309F492C08C3008F031C2FCE001
:1014B000F81BF983FF24F394F0928B031092A3039B
:1014C0001092A403209188032D831981121B022FEF
:1014D0000D5F4DE2410F2EE463E083E893E00E944C
:1014E0003D063D8134503D83105D232F41E0612F47
:1014F00080E50E94EA052D8142E0612F83E00E9491
:10150000EA05F092A303F092A4030091880343E05C
:10151000400F4D831981101B9DE2E92EE10E23E05F
:10152000F22E4E2D6F2D83E893E00E941005F39468
:1015300051E5F512F6CF8D818E0D8D83E82EEA945C
:1015400083E0F82E4E2D6F2D83E893E00E94100566
:10155000F39491E5F912F6CF0350105D402F612FFF
:1015600080E00E94D205402F612F83E50E94D205C2
:1015700041E0612F83E00E94540542E0612F80E545
:101580000E945405AD81A450AD8344E06A2F80E5EC
:101590000E94540548E06D8183E00E94540584E078
:1015A00080938C0380918803B981B81BB15DB0939F
:1015B0008D036091B9037091BA0383E893E00E94B0
:1015C0008E028091BB0381508093BB0380915103B5
:1015D00090915203892BE1F0E1E0E093A303109294
:1015E000A4039091870385E5891B80938C03109257
:1015F0008D0360914E03613009F4FAC108F48AC189
:1016000080914D03653008F00AC26B5F811102C200
:101610000E9455038091890381110EC0E5E3F1E03A
:1016200088EF91E0DF019C011D9221503040E1F7ED
:1016300010928C0310928D030E94B9046093B00342
:101640007093B1038093B2039093B3032091AC03E2
:101650003091AD03621B730B7093AB036093AA03CD
:1016600080E05CCEC901E6E096958795EA95E1F7C2
:101670008F71932F96959695969590514F70423015
:1016800099F1D0F4442309F43CC04130B9F1E09120
:101690006C03F0916D033196F0936D03E0936C034E
:1016A000CF01880F991FE0916703F0916803E80F5D
:1016B000F91F25913491C1CE433061F0443039F7A0
:1016C00020915E03289F802D1124809377039093AF
:1016D0007803DDCF20915E03289F802D1124809315
:1016E000750390937603D3CF20915E03289F802DBE
:1016F00011248093730390937403C9CF0E94040252
:10170000C6CF8B3008F08AE080937003C0CF209161
:101710006B03211110C010925B0380915A03811159
:1017200003C00E94F201B1CE0E94300280916C038E
:1017300090916D03B6CF10926D0310926C03FC0173
:10174000B8CF815080936F0380917F03811142C095
:1017500020917D0330917E032F5F3F4FC901880F99
:10176000991FE0917903F0917A03E80FF91F8591B1
:101770009491482F477040938003492F4695469592
:1017800040938103AC0164E0569547956A95E1F773
:101790004F7390915E03499F402D112440937F0326
:1017A00083FB882780F98093300130937E03209358
:1017B0007D0380917B0390E02817390758F0209132
:1017C0007C03222309F49EC0821B910990937E031F
:1017D00080937D0380917F03815080937F0380916C
:1017E000720331E0380F3093720340916E03209101
:1017F0008103240F80916603280F20935C0360917E
:101800007503662371F070E0832F032E000C990B93
:101810000E94171580917603869F200D1124209336
:101820005C0380915C0390E0849664E270E00E9427
:10183000171580935C032091700320935D036091E2
:101840007303662381F0062E000C770B832F032E83
:10185000000C990B0E94171580917403869F200D30
:10186000112420935D03609177036623A1F0832FF9
:10187000330F990B70E00E941715CB0162E070E006
:101880000E9417152091780390915D03289F900D79
:10189000112490935D034F33C1F180915D038A3031
:1018A0000CF089E087FD80E080935D03F894E0917F
:1018B0005C03F0E0E454FD4FE491E0932F012091AC
:1018C000820330915D033203900111244091800323
:1018D0004203C001439F900D112420915F0302C079
:1018E000880F991F2A95E2F797FF02C081589F4FF2
:1018F000880F892F881F990B8093BD038093BE03A7
:101900007894CDCD0E94F20165CF10925D03CECFC9
:101910001982D0CD0E94F20110925B03F1E0F093A6
:101920008B03EAE3F1E0E491EF5FE0938703EBE3FD
:10193000F1E0E491EF5FE09388038CE391E0909312
:10194000A2038093A10310925203109251031092AC
:10195000890328EA29830E9497088823E1F36CE22F
:1019600071E083E893E00E948E0240914F03509112
:10197000500370E060E02AE083E893E00E9455079E
:1019800067E171E083E893E00E948E02498142950D
:101990004F7050E070E060E02AE083E893E00E943E
:1019A00055076CE071E083E893E00E948E0280911D
:1019B0004A03813009F42CCE3981315039833111F9
:1019C000CACF70E060E085E00E94130483B7817F96
:1019D000846083BF83B7816083BF83B7816083BF27
:1019E000889583B78E7F83BF83B78E7F83BFB3CF46
:1019F0008091A6039091A703A091A803B091A90399
:101A00008F709927AA27BB2767E00897A105B10522
:101A100008F068E783E893E00E948702F9CD882305
:101A200009F4F6CD6FE2F6CF893209F0E1CCE5E3B7
:101A3000F1E088EF91E0DF019C011D9221503040E0
:101A4000E1F710928C0310928D0365E073E083E858
:101A500093E00E948E020E9455038CB583608CBD7A
:101A60008DB58E7F8DBD8EE191E0EEEFFFE30995A0
:101A70001092890360EE72E083E893E00E9483088D
:101A80000E9455030E94CC0380914A03813009F4DF
:101A9000AFCC62E370E080E090E00E94DE04F2CF21
:101AA0008F929F92AF92BF92CF92DF92EF92FF926E
:101AB000CF93DF9380910201C1E0D0E001C0CC0F51
:101AC0008A95EAF78C2E912CB12CA12C2091010142
:101AD00030E050E040E0220F331F441F551FC50186
:101AE000B4010E94FB140E94D2139B01AC0160E080
:101AF00074E284E79BE40E9431136B017C018091C6
:101B00002D018111AEC064EE70E083E893E00E9485
:101B10008E0267ED70E083E893E00E948E02809170
:101B20002E0165ED70E0811102C063ED70E083E885
:101B300093E00E948E024091020150E070E060E06C
:101B40002AE083E893E00E94550760EC70E083E8A8
:101B500093E00E948E022AE0B501A40183E893E09D
:101B60000E9455076EEB70E083E893E00E948308C3
:101B700080912D01813009F07DC06CEB70E083E82D
:101B800093E00E948E026FEA70E083E893E00E9487
:101B90008E0280912E016DEA70E0811102C06BEA25
:101BA00070E083E893E00E948E024091010150E0D2
:101BB00070E060E02AE083E893E00E9455076BE163
:101BC00071E083E893E00E94460766E870E083E8EE
:101BD00093E00E94830840910101C49FA001112459
:101BE000052E000C660B770B2AE083E893E00E9439
:101BF00055076BE171E083E893E00E9446076AE7CE
:101C000070E083E893E00E94830842E0C701B601D8
:101C10000E94A10767E770E083E893E00E948308D1
:101C200065E770E083E893E00E948E0220E030E0F8
:101C30004AE754E4C701B6010E94311342E00E9412
:101C4000A10760E770E083E893E0DF91CF91FF9018
:101C5000EF90DF90CF90BF90AF909F908F900C94BB
:101C60008E0261ED70E083E893E00E948E0263ECE7
:101C700070E05DCF69EA70E083E893E00E948E0235
:101C80006BE970E08ECF1F920F920FB60F92112466
:101C90002F933F938F939F93AF93BF938091310185
:101CA00090913201A0913301B0913401309127011C
:101CB00023E0230F2D3758F50196A11DB11D209368
:101CC00027018093310190933201A0933301B093A7
:101CD00034018091280190912901A0912A01B091AD
:101CE0002B010196A11DB11D80932801909329011C
:101CF000A0932A01B0932B01BF91AF919F918F9137
:101D00003F912F910F900FBE0F901F90189526E8CE
:101D1000230F0296A11DB11DD2CF1F920F920FB6B5
:101D20000F9211242F936F937F938F939F936091C2
:101D3000BD03662349F1809126018F5F80932601C0
:101D400090912F01891700F12091BC0381E0282791
:101D50002093BC031092260180913001882369F002
:101D60008091000193E4899F802D1124895B8093E9
:101D700000010E940B159093BE038091BE032111B8
:101D800001C080E08093B4009F918F917F916F910B
:101D90002F910F900FBE0F901F901895789484B5D7
:101DA000826084BD84B5816084BD85B5826085BD57
:101DB00085B5816085BD80916E00816080936E00E5
:101DC00010928100809181008260809381008091D7
:101DD0008100816080938100809180008160809388
:101DE00080008091B10084608093B1008091B00048
:101DF00081608093B00080917A00846080937A0043
:101E000080917A00826080937A0080917A0081606C
:101E100080937A0080917A00806880937A00109293
:101E2000C10082E38093B40381E090E0A0E0B0E0E1
:101E30008093B0039093B103A093B203B093B30324
:101E40008FEF8093A503E0E8F7E7259134912130E7
:101E5000304C09F063C2E6E9F7E7E491E0938E03C2
:101E6000E7E9F7E7E491E0933903E8E9F7E7E4917C
:101E7000E0933A03E9E9F7E78591949190933C0365
:101E800080933B03EBE9F7E78591949190933E03B0
:101E900080933D0387E080936003EEE9F7E7E491E8
:101EA000E0935F03EFE9F7E7E491E093A503E0EA4D
:101EB000F7E7859194919093520380935103E2EA5E
:101EC000F7E7859194919093540380935303E4EA48
:101ED000F7E7859194919093560380935503E6EA32
:101EE000F7E7859194919093580380935703C1E04D
:101EF000C09335036FEF70E085E00E94130488E023
:101F000080933F0389E08093400387E080934103FF
:101F100086E080934203D4E0D093430382E0809331
:101F2000440381E1809345030E94CC038CE39FE04E
:101F30009093500380934F03D0934E03C093590363
:101F40008BE0809391038DE08093900380E18093F8
:101F500092038EE0809394038FE080939303C09369
:101F60008B03C093A3031092A403C0938A03EAE3F4
:101F7000F1E0E491EF5FE0938703EBE3F1E0E491BC
:101F8000EF5FE09388038CE391E09093A20380934A
:101F9000A103CFB7F89480912C01811127C0EBE504
:101FA000F3E08491EFE6F3E09491E82FF0E0EE0F98
:101FB000FF1FE651FF4FA591B491EC91E92321F465
:101FC00061E08AE00E94080361E08AE00E949003D9
:101FD0008CB580618CBD8CB580648CBD61E08DE07A
:101FE0000E94900361E08BE00E94900380912C019D
:101FF0008F5F80932C01CFBF8CB58F7D8CBD8CB54E
:102000008C7F81608CBD8DB581608DBD8CB58C6001
:102010008CBD61E0809191030E94900361E080910A
:1020200090030E94900361E0809192030E949003CC
:102030008091940318161CF461E00E949003809133
:10204000930318161CF461E00E949003809194039E
:10205000181674F460E00E9408036AE070E080E003
:1020600090E00E94DE0461E0809194030E940803E6
:1020700080919003082E000C990BFC01EF5AFC4F45
:10208000E491F0E0EE0FFF1FEC50FF4F25913491EB
:102090003093980320939703FC01EB59FC4FE49194
:1020A000E0939E0380919103082E000C990BFC0194
:1020B000EF5AFC4FE491F0E0EE0FFF1FEC50FF4FA2
:1020C000259134913093960320939503FC01EB59AD
:1020D000FC4FE491E0939D0380919303082E000C44
:1020E000990BFC01EF5AFC4FE491F0E0EE0FFF1F5B
:1020F000EC50FF4F2591349130939A03209399032C
:10210000FC01EB59FC4FE491E0939F038091920313
:10211000082E000C990BFC01EF5AFC4FE491F0E003
:10212000EE0FFF1FEC50FF4F2591349130939C032D
:1021300020939B03FC01EB59FC4FE491E093A00337
:1021400081E20E94360384E10E94360380918E036F
:1021500087FF03C08FE780938E0380918E03806892
:102160000E94360380E20E9436038CE00E94360310
:102170000E94550381E080935E0384E08093820394
:1021800086EE90E090936A038093690380E00E945A
:10219000040261E070E083E00E9413048091B100CA
:1021A000887F81608093B100F89410928000109233
:1021B0008100109285001092840088E191E0909354
:1021C00089008093880080918100886080938100DD
:1021D0008091810081608093810080916F00826096
:1021E00080936F0078948091510390915203892BD2
:1021F00011F00E94820480914B03813009F4BBC02E
:1022000080914E03882309F4B6C00E94F2018EEF3C
:1022100090E0909368038093670310926D0310928F
:102220006C0381E080935B0389E0809370031092DC
:10223000730310927503109277038091B0008E7F24
:102240008093B0008091B00082608093B000809154
:10225000B100877F8093B1008091B000806180934E
:10226000B0008091B0008F7D8093B000909102010A
:102270008091B10090FF82C081608093B100809115
:10228000B10091FF7DC082608093B1008091B10068
:1022900092FF78C084608093B100809101018093A7
:1022A000B300539AC0E0D0E011E00E949708882361
:1022B00081F10E94500D80914A03813061F4809336
:1022C0002E0180912D01882309F45EC0813009F42C
:1022D000A7C010922E0180914703813029F480918C
:1022E0002D01815080932D0180914903813029F483
:1022F00080912D018F5F80932D0180912D0182307F
:1023000011F410932D0180912D01833010F0109263
:102310002D01209751F20E940000C7CF9CE39093BB
:102320008E031092390380933A0380E293E09093F6
:102330003C0380933B0384ED93E090933E038093B2
:102340003D0387E08093600380935F038CEA9DE008
:1023500090935203809351038EED9DE0909354032C
:102360008093530384E79EE0909356038093550334
:102370008CE39FE0B8CD10925F035FCF8E7F7DCF5F
:102380008D7F82CF8B7F87CF0E9497088823E1F3D0
:102390000E94500D43E061E08FE393E00E947102E0
:1023A000882329F0809102018F5F8093020143E02E
:1023B00063E08FE393E00E947102882329F080910B
:1023C000020181508093020190910201892F877050
:1023D000809302018091B10090FF1CC081608093C6
:1023E000B1008091B10091FF17C082608093B1006D
:1023F0008091B10092FF12C084608093B1008091FF
:102400004A03813009F465CF80914B03813009F094
:10241000BBCF5FCF8E7FE3CF8D7FE8CF8B7FEDCFBC
:102420000E9497088823E1F30E94500D43E061E089
:102430008FE393E00E947102882329F080910101CB
:102440008F5F8093010143E062E08FE393E00E949D
:102450007102882329F080910101865F8093010138
:1024600043E063E08FE393E00E947102882329F048
:102470008091010181508093010143E060E08FE38E
:1024800093E00E947102882329F0809101018A5013
:1024900080930101809101018093B30080914A03F0
:1024A000813009F416CF80914B03813009F0B8CF09
:1024B00010CF109286031092850387E091E09093ED
:1024C0008403809383030895052E97FB1EF40094E4
:1024D0000E947B1257FD07D00E948E1207FC03D08A
:1024E0004EF40C947B1250954095309521953F4FBA
:1024F0004F4F5F4F089590958095709561957F4FF0
:102500008F4F9F4F08950E94B012A59F900DB49FCA
:10251000900DA49F800D911D11240895A1E21A2E03
:10252000AA1BBB1BFD010DC0AA1FBB1FEE1FFF1F77
:10253000A217B307E407F50720F0A21BB30BE40BC7
:10254000F50B661F771F881F991F1A9469F760950E
:102550007095809590959B01AC01BD01CF010895C8
:10256000A29FB001B39FC001A39F700D811D1124D4
:10257000911DB29F700D811D1124911D0895505819
:10258000BB27AA270E94D7120C944A140E943C141D
:1025900038F00E94431420F039F49F3F19F426F4D8
:1025A0000C9439140EF4E095E7FB0C943314E92FE6
:1025B0000E945B1458F3BA176207730784079507E4
:1025C00020F079F4A6F50C947D140EF4E0950B2E12
:1025D000BA2FA02D0B01B90190010C01CA01A00175
:1025E0001124FF27591B99F0593F50F4503E68F1D0
:1025F0001A16F040A22F232F342F4427585FF3CF11
:10260000469537952795A795F0405395C9F77EF4E1
:102610001F16BA0B620B730B840BBAF09150A1F02A
:10262000FF0FBB1F661F771F881FC2F70EC0BA0FB0
:10263000621F731F841F48F4879577956795B79538
:10264000F7959E3F08F0B0CF9395880F08F0992733
:10265000EE0F9795879508950E940F1408F481E076
:1026600008950E9445130C944A140E94431458F094
:102670000E943C1440F029F45F3F29F00C9433147D
:1026800051110C947E140C9439140E945B1468F35D
:102690009923B1F3552391F3951B550BBB27AA271B
:1026A00062177307840738F09F5F5F4F220F331F55
:1026B000441FAA1FA9F335D00E2E3AF0E0E832D01D
:1026C00091505040E695001CCAF72BD0FE2F29D020
:1026D000660F771F881FBB1F261737074807AB07F2
:1026E000B0E809F0BB0B802DBF01FF2793585F4F67
:1026F0003AF09E3F510578F00C9433140C947E14FC
:102700005F3FE4F3983ED4F3869577956795B79548
:10271000F7959F5FC9F7880F911D9695879597F953
:102720000895E1E0660F771F881FBB1F62177307CC
:102730008407BA0720F0621B730B840BBA0BEE1FE1
:1027400088F7E09508950E94631488F09F5798F0E9
:10275000B92F9927B751B0F0E1F0660F771F881FA6
:10276000991F1AF0BA95C9F714C0B13091F00E94C0
:102770007D14B1E008950C947D14672F782F88277D
:10278000B85F39F0B93FCCF3869577956795B395E7
:10279000D9F73EF490958095709561957F4F8F4F56
:1027A0009F4F0895E89409C097FB3EF4909580955B
:1027B000709561957F4F8F4F9F4F9923A9F0F92F07
:1027C00096E9BB279395F695879577956795B79585
:1027D000F111F8CFFAF4BB0F11F460FF1BC06F5F6B
:1027E0007F4F8F4F9F4F16C0882311F096E911C07D
:1027F000772321F09EE8872F762F05C0662371F09E
:1028000096E8862F70E060E02AF09A95660F771FB1
:10281000881FDAF7880F9695879597F90895990F8D
:102820000008550FAA0BE0E8FEEF16161706E8079A
:10283000F907C0F012161306E407F50798F0621BBB
:10284000730B840B950B39F40A2661F0232B242B90
:10285000252B21F408950A2609F4A140A6958FEFAF
:10286000811D811D089597F99F6780E870E060E001
:1028700008959FEF80EC089500240A941616170619
:1028800018060906089500240A9412161306140661
:1028900005060895092E0394000C11F4882352F0C4
:1028A000BB0F40F4BF2B11F460FF04C06F5F7F4F7C
:1028B0008F4F9F4F089557FD9058440F551F59F063
:1028C0005F3F71F04795880F97FB991F61F09F3F1D
:1028D00079F087950895121613061406551FF2CF46
:1028E0004695F1DF08C0161617061806991FF1CF96
:1028F00086957105610508940895E894BB276627BD
:102900007727CB0197F908950E940F1408F48FEFF1
:1029100008950E949C140C944A140E943C1438F0B0
:102920000E94431420F0952311F00C9433140C945E
:10293000391411240C947E140E945B1470F3959F3B
:10294000C1F3950F50E0551F629FF001729FBB27A6
:10295000F00DB11D639FAA27F00DB11DAA1F649F42
:102960006627B00DA11D661F829F2227B00DA11DF5
:10297000621F739FB00DA11D621F839FA00D611D7B
:10298000221F749F3327A00D611D231F849F600D9C
:10299000211D822F762F6A2F11249F5750409AF0C5
:1029A000F1F088234AF0EE0FFF1FBB1F661F771F51
:1029B000881F91505040A9F79E3F510580F00C941C
:1029C00033140C947E145F3FE4F3983ED4F3869561
:1029D00077956795B795F795E7959F5FC1F7FE2BBC
:1029E000880F911D9695879597F908950E940F1469
:1029F000880B990B0895DB018F939F930E9483129C
:102A0000BF91AF91A29F800D911DA39F900DB29F8A
:102A1000900D11240895991B79E004C0991F961711
:102A200008F0961B881F7A95C9F78095089597FB43
:102A3000072E16F4009407D077FD09D00E942B15BD
:102A400007FC05D03EF4909581959F4F08957095B1
:102A500061957F4F0895AA1BBB1B51E107C0AA1FB8
:102A6000BB1FA617B70710F0A61BB70B881F991F2F
:102A70005A95A9F780959095BC01CD010895EE0F68
:0E2A8000FF1F0590F491E02D0994F894FFCF0C
:102A8E00018001000000006D06B202430742076E8E
:102A9E00616E00696E66006F7666000D0A004C4F1F
:062AAE0041444552000006
:00000001FF
