:100000000C9440030C9468030C9468030C946803EC
:100010000C9468030C9468030C9468030C946803B4
:100020000C9468030C9468030C9468030C94632389
:100030000C9468030C9468030C9468030C94680394
:100040000C9419230C9468030C94E7220C94C1229D
:100050000C9468030C9468030C9468030C94680374
:100060000C9468030C9468034932435F53434C205B
:10007000004932435F534441200042544E5F4320C5
:100080002020005343525F44432020005343525FDB
:1000900043532020005343525F5253542000535087
:1000A000495F434C4B20005350495F4D49534F002B
:1000B0005350495F4D4F53490053445F43532020F1
:1000C0002000557042746E202020004C65667442FA
:1000D000746E2000526967687442746E00446F77D2
:1000E0006E42746E200047425F4261636B4C004178
:1000F00042746E2020202000535045414B45522031
:10010000004242746E2020202000747850696E20D6
:10011000202000727850696E202020000101FF032A
:100120000101F7033D003A4353004641494C454421
:1001300000524541442E2E004F70656E53440049D5
:100140006E6974534400200010004F70656E2000EB
:10015000466C6173682000476574204C464E005021
:10016000726F70657274696573006F70656E20667A
:1001700061696C004C6F6164696E672C20706C65FE
:1001800061736520776169740016202D2043616ECC
:1001900063656C0015202D204F4B00507265706117
:1001A00072696E6720746F20666C617368005072AC
:1001B0006573732015206F72201620746F206361A1
:1001C0006E63656C006973206E6F7420696E2074B5
:1001D000686520726F6F74206469726563746F72F2
:1001E00079005741524E494E473A2000726F6F7462
:1001F00044697253746172743A0066617453746135
:100200007274426C6F636B3A00626C6F636B735015
:1002100065724661743A00626C6F636B735065720D
:10022000436C75737465723A0020566F6C756D651A
:1002300000464154005344206F6B005344206661D4
:10024000696C65640052656164696E67205344207F
:1002500063617264002020202020003C4449523E0B
:1002600000205B4C4142454C5D005B585D20002006
:1002700000205B4C464E5D00706F736974696F6E51
:100280003A200020566F6C756D654E616D650053A8
:10029000686F7700486964650010002044656C65EC
:1002A0007465640053686F770048696465001000E6
:1002B000204C464E0053686F770048696465001013
:1002C0000020426C616E6B20456E7472696573002C
:1002D00053686F7700486964650010004578697459
:1002E000001000526577696E6420746F2062656744
:1002F000696E6E696E67001000446973706C617995
:100300002053657474696E6773001000566F6C75C6
:100310006D652050726F70657274696573001000AE
:10032000200020002010003F201000206F662000D9
:1003300020506167652000110020002D0052002D23
:100340000048002D0053002D0056002D00410020D4
:10035000420053697A653A20006669727374436C8F
:1003600075737465723A2000112050726F70657257
:10037000746965732031206F6620322020003F00B1
:1003800000000000240027002A0020011C010000BA
:100390000000250028002B000500893008023802E3
:1003A0004978681400002D0052002D0048002D00EF
:1003B00053002D0056002D0044002D0041002D005B
:1003C00078002D007800413A002000573A002000C4
:1003D000433A00476942004D6942006B694200534D
:1003E000697A653A2000202050726F7065727469D6
:1003F00065732031206F6620322010000A0A153AFA
:1004000049676E6F7265006D560A0A504C4541533C
:1004100045205455524E204F464620004C4F572001
:100420004241545445525921200003053F213F12B7
:1004300008120A100A0E1C0E0C1E0C141A14161F99
:10044000161E131E1E1B1E1E1F1E3F213F3A2F3A53
:10045000173D173F213F181F02040A041F0E040412
:100460000E1F0A1F0A0E0E1F04110E2E252E2F2AF4
:100470002E262929021F02081F08150E04040E1536
:100480000E15151B151B040604040C0400000000C7
:1004900017000300031F0A1F16371A1904130A1541
:1004A0003A000300000E11110E000A040A040E04A3
:1004B0000030000404040010001804031F111F1270
:1004C0001F101D151711151F07041F17151D1F15C8
:1004D0001D01011F1F151F17151F000A0000320004
:1004E000040A110A0A0A110A040115020E11171E44
:1004F000051E1F150A0E110A1F110E1F15111F05CB
:10050000010E111D1F041F111F1108100F1F041BC6
:100510001F10101F061F1E040F0E110E1F09060EBE
:10052000112E1F051A121509011F011F101F0F1888
:100530000F1F0C1F1B041B031C03191513001F1195
:10054000030418111F000201022020200001020CE8
:10055000121E1F120C0C12120C121F0C1A14041E65
:1005600005242A1E1F021C141D1020201D1F081404
:10057000111F101E041E1E021C0C120C3E0A040C3D
:10058000123E1E040214160A020F120E101E0E1046
:100590000E1E081E120C1226281E322A26041E21A8
:1005A000001F00211E040102013F213FF6E8DBCFBE
:1005B000C3B8AEA49B928A827B746E68625C575209
:1005C0004E4945413E3A3734312E2C2927252321E7
:1005D0000A4E6F2053442063617264206F720A6E6A
:1005E0006F204C4F414445522E4845580A0A153A4F
:1005F00045786974001D20466C617368696E670AEE
:1006000020206C6F616465722E2E2E0A0A444F4EB4
:100610002754205455524E204F464621004500682D
:10062000010000172B152010204C4F41444552006B
:10063000172B1620131400000000002300260029A9
:10064000000404040404040404020202020202037B
:100650000303030303010204081020408001020485
:100660000810200102040810200000000800020108
:100670000000030407000000000000000000A423A5
:1006800011241FBECFEFD8E0DEBFCDBF11E0A0E048
:10069000B1E0E2E7F3E502C005900D92AE35B10797
:1006A000D9F727E0AEE5B1E001C01D92A139B2074C
:1006B000E1F713E0C0E4D3E004C02197FE010E94FB
:1006C000A829CF33D107C9F70E9401240C94B72978
:1006D0000C940000EAE0F7E014AE12AE109253075B
:1006E0001092520715AE1092C4011092C3011092DD
:1006F000C2011092B4000895CF93DF93E0913807C0
:100700008E2F90E0880F991FE0913607F091370700
:10071000E80FF91F859194918F3F980729F4109263
:100720002F07DF91CF91089590933B079927880F6A
:10073000991FE0913907F0913A07E80FF91FC59129
:10074000D4910E946A03D0933D07C0933C07109256
:1007500042071092410781E08093300789E080933F
:1007600045071092480710924A0710924C07809153
:1007700038078F5F80933807D4CF90E0880F991F98
:10078000E0913E07F0913F07E80FF91F2591349162
:1007900030934F0720934E07F901859194919091E2
:1007A0003307989F802D112480935007F90165919C
:1007B0007491472F50E08417150629F020F0F901B5
:1007C00025913491832F989F802D11248093510778
:1007D0000895DC01ED91FC910190F081E02D0994E8
:1007E000EF92FF920F931F93CF93DF938C017B01C6
:1007F000D0E0C0E0F701EC0FFD1F6491662361F0CB
:10080000D801ED91FC910190F081E02DC80109958E
:10081000892B11F02196EECFCE01DF91CF911F9160
:100820000F91FF90EF900895AF92BF92CF92DF9219
:10083000EF92FF920F931F93CF93DF936C017B0195
:100840008B01040F151FEB015E01AE18BF08C01726
:10085000D10759F06991D601ED91FC910190F08199
:10086000E02DC6010995892B79F7C501DF91CF915C
:100870001F910F91FF90EF90DF90CF90BF90AF90BE
:100880000895FC01538D448D252F30E0842F90E096
:10089000821B930B541710F0CF960895019708957B
:1008A000FC01918D828D981761F0A28DAE0FBF2F44
:1008B000B11D5D968C91928D9F5F9F73928F90E09A
:1008C00008958FEF9FEF0895FC01918D828D981709
:1008D00031F0828DE80FF11D858D90E008958FEF46
:1008E0009FEF0895FC01918D228D892F90E0805C0F
:1008F0009F4F821B91098F739927089585EC91E092
:100900000E94720421E0892B09F420E0822F0895CF
:1009100080E090E0892B29F00E947E0481110C94E4
:1009200000000895FC01A48DA80FB92FB11DA35A92
:10093000BF4F2C91848D90E001968F739927848FFF
:10094000A689B7892C93A089B1898C918370806422
:100950008C93938D848D981306C00288F389E02DC3
:1009600080818F7D80830895EF92FF920F931F9374
:10097000CF93DF93EC0181E0888F9B8D8C8D981352
:100980001AC0E889F989808185FF15C09FB7F8945E
:10099000EE89FF896083E889F989808183708064AA
:1009A00080839FBF81E090E0DF91CF911F910F91F5
:1009B000FF90EF900895F62E0B8D10E00F5F1F4F04
:1009C0000F731127E02E8C8D8E110CC00FB607FC13
:1009D000FACFE889F989808185FFF5CFCE010E94A1
:1009E0009204F1CFEB8DEC0FFD2FF11DE35AFF4F79
:1009F000F0829FB7F8940B8FEA89FB89808180622F
:100A0000CFCFCF93DF93EC01888D8823B9F0AA89EB
:100A1000BB89E889F9898C9185FD03C0808186FDB9
:100A20000DC00FB607FCF7CF8C9185FFF2CF808108
:100A300085FFEDCFCE010E949204E9CFDF91CF91E7
:100A40000895833081F028F4813099F08230A9F044
:100A500008958730A9F08830C9F08430B1F48091CE
:100A600080008F7D03C0809180008F77809380000D
:100A7000089584B58F7784BD089584B58F7DFBCFAD
:100A80008091B0008F778093B00008958091B0007E
:100A90008F7DF9CF1F93CF93DF93282F30E0F9019B
:100AA000E759F94F8491F901EB5AF94FD491F901C3
:100AB000EF5BF94FC491CC23A9F0162F81110E944E
:100AC0002105EC2FF0E0EE0FFF1FE257FC4FA59140
:100AD000B4918FB7F894EC91111108C0D095DE2332
:100AE000DC938FBFDF91CF911F910895DE2BF8CF5C
:100AF000CF93DF9390E0FC01EB5AF94F24918F5B89
:100B0000994FFC0184918823C9F090E0880F991FC8
:100B1000FC01E058FC4FA591B491FC01E257FC4F59
:100B2000C591D49161110DC09FB7F8948C91209517
:100B300082238C938881282328839FBFDF91CF91C4
:100B40000895623051F49FB7F8943C91822F8095BC
:100B500083238C93E8812E2BEFCF8FB7F894EC9101
:100B60002E2B2C938FBFEACFFF920F931F93CF931F
:100B7000DF93CAE0D7E0FF24FA9462E08A850E94FE
:100B800078052A8530E0F901E759F94F8491F90198
:100B9000EB5AF94F0491F901EF5BF94F14911123CE
:100BA000E1F081110E942105E12FF0E0EE0FFF1F1F
:100BB000E95CF94FA591B491EC9189890E2369F014
:100BC000811113C0219687E0C131D807B1F6DF91BA
:100BD000CF911F910F91FF90089589898F5F898B25
:100BE00060E08A850E947805EDCF8F3F11F4198A65
:100BF000F7CFF98AF5CF1F93CF93DF93182FEB012F
:100C000061E00E947805209739F460E0812FDF9140
:100C1000CF911F910C944A05CF3FD10511F461E0AB
:100C2000F5CFE12FF0E0E759F94FE491E33031F1EE
:100C300040F4E130B1F0E230E1F0C038D1057CF7AA
:100C4000E4CFE73029F1E83059F1E430B1F7809191
:100C50008000806280938000D0938B00C0938A00D4
:100C600004C084B5806884BDC7BDDF91CF911F915A
:100C7000089584B5806284BDC8BDF7CF809180009F
:100C8000806880938000D0938900C0938800EDCF66
:100C90008091B00080688093B000C093B300E5CF2E
:100CA0008091B00080628093B000C093B400DDCF2B
:100CB0008E50806480937C0080917A008064809361
:100CC0007A0080917A0086FDFCCF80917800909127
:100CD0007900089580912E078F7149F584E10E9473
:100CE0005806BC01990F880B990B0E943D2826EEEF
:100CF0003FE34EEC50E40E94F2280E940C289B0136
:100D00007093250760932407672BB9F084E08093E4
:100D10002307E6E2F7E080E041915191241735077F
:100D200018F48093230708958F5F8430A9F780918A
:100D30002E078F5F80932E0708958FEF80932307F0
:100D4000F6CF3FB7F8948091BB019091BC01A09180
:100D5000BD01B091BE0126B5A89B05C02F3F19F07B
:100D60000196A11DB11D3FBFBA2FA92F982F88272B
:100D7000BC01CD01620F711D811D911D42E0660F06
:100D8000771F881F991F4A95D1F708958F929F92D8
:100D9000AF92BF92CF92DF92EF92FF924B015C0134
:100DA0000E94A1066B017C010E94A1066C197D09BD
:100DB0008E099F09683E734081059105A8F321E0E3
:100DC000821A9108A108B10888EEC80E83E0D81EE7
:100DD000E11CF11C81149104A104B10429F7FF90D6
:100DE000EF90DF90CF90BF90AF909F908F9008953D
:100DF0002FB7F8946091B7017091B8018091B90153
:100E00009091BA012FBF0895CF93DF93EC01E98150
:100E1000FA81908181819CBD8DBDE981FA8160E07C
:100E200082810E944A0581E08B83DF91CF910895F2
:100E30008EBD0DB407FEFDCF08958FEF8EBD0DB4AE
:100E400007FEFDCF8EB508950F931F93CF93DF93C9
:100E5000EC010E94F8068B010E941D078F3F69F08C
:100E60000E94F806601B710BC617D707A8F780E031
:100E7000DF91CF911F910F91089581E0F9CFCF932A
:100E8000DF93FC012381222361F0EC010180F281D8
:100E9000E02D61E082810E944A058FEF0E941807D1
:100EA0001B82DF91CF910895DF92EF92FF920F9313
:100EB0001F93CF93DF938C01C62FD22FF32EE42EF6
:100EC000D52EFC018381811103C0C8010E94040753
:100ED000CC2321F08CE291E00E9424078C2F8064C7
:100EE0000E9418078D2D0E9418078E2D0E9418074A
:100EF0008F2D0E9418078D2F0E94180787E8C111B7
:100F000001C085E90E9418070E941D07CBE00E94DE
:100F10001D07F801848387FF02C0C150C1F7DF912C
:100F2000CF911F910F91FF90EF90DF9008950F9355
:100F30001F93CF93DF93EC0189018D81833039F0CA
:100F400089E0440F551F661F771F8A95D1F79A01D4
:100F5000AB0168E1CE010E945407882319F082E3B7
:100F6000888339C08EEF0E941807F80180818EBDFA
:100F7000818132961E5F0DB407FEFDCF8EBDE01756
:100F8000F10711F08191F7CF0DB407FEFDCF8FEF80
:100F90000E9418078FEF0E9418070E941D078C837C
:100FA0008F71853099F480ED97E00E942407182F07
:100FB0008AE51123A9F220E030E0A9016DE0CE011D
:100FC0000E945407882361F089E2CACF87E58883AD
:100FD000CE010E943F07CE010E943F0710E007C0EC
:100FE0000E941D078111F0CFCE010E943F07812F83
:100FF000DF91CF911F910F910895EF92FF920F9380
:101000001F93CF93DF93EC0179018D81833039F009
:1010100089E0440F551F661F771F8A95D1F79A0103
:10102000AB0161E1CE010E945407882339F080E3CF
:101030008883CE010E943F0780E037C00E94F806F7
:101040008B010E941D078C838F3F69F40E94F80674
:10105000601B710B693E7340A0F385E58883CE0168
:101060000E943F07E6CF8E3F11F080E5F7CF8FEF6C
:101070008EBDF701D701A150BE4F9FEF0DB407FE03
:10108000FDCF8EB59EBD8193AE17BF07B9F70DB4E6
:1010900007FEFDCF8EB58C931C820E941D070E9417
:1010A0001D07CE010E943F0781E0DF91CF911F9184
:1010B0000F91FF90EF900895EF92FF921F93CF93BF
:1010C000DF93EC017C0187E0E80EF11C4B815C8131
:1010D0006D817E81E981FA819701808191810E94F1
:1010E0009707182F811108C010E0812FDF91CF9151
:1010F0001F91FF90EF900895888181FD04C0888141
:101100008E7F8883F2CFE981FA814B815C816D818A
:101110007E8184859585A685B785480F591F6A1FEE
:101120007B1F9701808191810E9497078111E7CFF2
:10113000DBCFCF92DF92EF92FF921F93CF93DF939B
:10114000EC016A017B01122F8B819C81AD81BE81F4
:101150008C159D05AE05BF0529F1888180FD17C05E
:10116000E981FA819E01295F3F4FB701A601808185
:1011700091810E94FD07811110C090E080E0DF9115
:10118000CF911F91FF90EF90DF90CF900895CE0107
:101190000E945C088111E4CFF0CF1882CB82DC8200
:1011A000ED82FE822881212B2883CE010796E7CF8E
:1011B000CF92DF92EF92FF920F931F93CF93DF9323
:1011C000EC011D8281E090E0A0E0B0E08887998783
:1011D000AA87BB878E01005E1F4FDAA3C9A318A29E
:1011E0008FEF9FEFDC018BA39CA3ADA3BEA366236F
:1011F00009F44EC020E040E050E0BA01C8010E946E
:101200009908009751F480E0DF91CF911F910F91E1
:10121000FF90EF90DF90CF900895FC01E254FE4FD5
:1012200020812F7781F78A539E4FFC01C080D180A7
:10123000E280F380C114D104E104F10421F320E041
:10124000B701A601C8010E949908FC01892BD9F2B7
:101250008385948581159240B1F68089823099F614
:1012600086859785892B79F225852A838FEF820FD2
:101270008B831C8249E050E091E0291769F04150CE
:10128000510909F4C0CF990F8C818F5F8C83F5CF02
:10129000C12CD12C7601D3CF4689578970E060E00C
:1012A0004115510521F444A155A166A177A14C87B0
:1012B0005D876E877F878685978597018601080FF2
:1012C000191F211D311D0C8B1D8B2E8B3F8B81898E
:1012D00092899F838E83440F551F661F771F400F8F
:1012E000511F621F731F4C8F5D8F6E8F7F8F81899F
:1012F000928925E0880F991F2A95E1F781509E4F2A
:10130000892F99278695480F591F611D711D488B9C
:10131000598B6A8B7B8B83899489B0E0A0E000971E
:1013200021F480A191A1A2A1B3A1C41AD50AE60A11
:10133000F70A8C0D9D1DAE1DBF1D2C816C017D011A
:1013400004C0F694E794D794C7942A95D2F7D701AE
:10135000C6010196A11DB11D888F998FAA8FBB8FE1
:1013600085EFC8168FE0D806E104F10418F48CE08C
:101370008D8349CF80E125EFC2162FEFD206E1041D
:10138000F10448F084A595A5A6A5B7A58C8F9D8FDF
:10139000AE8FBF8F80E28D8381E036CFCF92DF9218
:1013A000EF92FF920F931F93CF93DF93423051053B
:1013B0006105710550F48FEFDF91CF911F910F916F
:1013C000FF90EF90DF90CF900895FC01C08CD18CFE
:1013D000E28CF38CC416D506E606F70660F38901A5
:1013E0006A017B01EC0185818032B9F58489958998
:1013F000A689B789E7E07695679557954795EA9569
:10140000D1F7480F591F6A1F7B1F22E0CE0180963B
:101410000E949908009779F2E894C7F8DD24EE2439
:10142000FF24CC0CDD1CCC0CDD1C8C0D9D1DFC01A7
:1014300080819181A281B381BF70488D598D6A8D61
:101440007B8D481759076A077B0738F1F8018083BD
:101450009183A283B38381E0AFCF803109F0ABCF1A
:1014600044895589668977894D0D511D611D711D0E
:1014700022E0CF0180960E949908009709F49BCF43
:10148000DD24EE24FF24CC0CDD1CC80ED91EF60191
:1014900080819181B0E0A0E0D0CF80E08DCFCF936C
:1014A000DF93EC018A8182FF3BC04C895D896E89A4
:1014B0007F898E819F8121E080960E949908009704
:1014C00039F489818160898380E0DF91CF9108952B
:1014D000EC81FD81EF70FF2725E0EE0FFF1F2A95BD
:1014E000E1F7E80FF91F309761F38081853E49F3FA
:1014F000888183FF08C0888D998DAA8DBB8D848FCC
:10150000958FA68FB78F8C8D9D8D938F828F8C8DAD
:101510009D8DAE8DBF8DB58BA48B8A818B7F8A8389
:101520008E819F81FC0120A120FD02C081E0CDCFF2
:1015300080960E945C08882321F2F8CF4F925F9238
:101540006F927F928F929F92AF92BF92CF92DF92D3
:10155000EF92FF920F931F93CF93DF93EC014A0119
:101560005B014C845D846E847F84A881AA2309F486
:1015700086C0488959896A897B89481559056A0551
:101580007B0569F081149104A104B10451F41C8617
:101590001D861E861F86888A998AAA8ABB8A81E050
:1015A00073C0A3FF59C0088D198D2A8D3B8D081576
:1015B00019052A053B0508F462C0EE81FF8184818C
:1015C00090E009968A019B01015011092109310916
:1015D000082E04C036952795179507950A94D2F7DB
:1015E00075016401B1E0CB1AD108E108F10804C02B
:1015F000F694E794D794C7948A95D2F7C016D1068B
:10160000E206F30628F0452B462B472B09F052C083
:10161000A6FF4BC0848D958DA68DB78D8C879D8739
:10162000AE87BF878E01045F1F4FC114D104E10450
:10163000F10409F4B0CF4C855D856E857F859801F6
:101640008E819F810E94CE0991E0C91AD108E108DC
:10165000F108181654F313C0A5FFAFCFEE81FF8138
:101660008681978125E0880F991F2A95E1F7B0E0E0
:10167000A0E088159905AA05BB0508F08CCF4C861B
:101680005D866E867F8680E0DF91CF911F910F91FE
:10169000FF90EF90DF90CF90BF90AF909F908F9092
:1016A0007F906F905F904F9008958C8D9D8DAE8D43
:1016B000BF8DB4CFC01AD10AE20AF30AB3CFCF93D9
:1016C000CFB7F8948091B501811127C0EBE4F6E023
:1016D0008491EFE5F6E09491E82FF0E0EE0FFF1F24
:1016E000E058FC4FA591B491EC91E92321F461E01D
:1016F0008AE00E944A0561E08AE00E9478058CB584
:1017000080618CBD8CB580648CBD61E08DE00E94F1
:10171000780561E08BE00E9478058091B5018F5FCC
:101720008093B501CFBFCF9108951F93CF93DF93DF
:10173000EC01162FF89460E08F850E944A05888995
:1017400018161CF460E00E944A051EBD00000DB48E
:1017500007FEFDCF8EB5888918161CF461E00E9443
:101760004A057894DF91CF911F910895CF93DF932D
:10177000EC0160915F0160640E94950B60E8CE010E
:101780000E94950B61E08F850E944A058889181692
:101790001CF460E00E944A05E0E6F1E084EB91E091
:1017A00021912EBD00000DB407FEFDCF2EB58E1782
:1017B0009F07B1F7888918162CF461E0DF91CF916B
:1017C0000C944A05DF91CF910895E4E6F7E080811B
:1017D0008F5F808388E597E00E94B60B60E488E520
:1017E00097E00C94950B8038910530F06EE773E02C
:1017F00088E597E00C94F003682F88E597E00C9457
:10180000E903CF93C82F6BE473E085FF02C06DE45A
:1018100073E088E597E00E94F00367E473E0C3FF9C
:1018200002C069E473E088E597E00E94F00363E496
:1018300073E0C2FF02C065E473E088E597E00E94B0
:10184000F0036FE373E0C1FF02C061E473E088E579
:1018500097E00E94F0036BE373E0C0FF02C06DE30A
:1018600073E088E597E0CF910C94F003EF92FF923C
:101870000F931F93CF93DF93EC018C010F5F1F4FEA
:101880007C012BE0E20EF11CF801819191918F0116
:101890008F3F980711F00E94F30B0E151F05A1F75B
:1018A0008E01025F1F4F7E01FAE1EF0EF11CF8017D
:1018B000819191918F018F3F980711F00E94F30B56
:1018C0000E151F05A1F78C8D9D8D8F3F980711F088
:1018D0000E94F30B8E8D9F8D8F3F980741F0DF9113
:1018E000CF911F910F91FF90EF900C94F30BDF912C
:1018F000CF911F910F91FF90EF900895089590E080
:1019000080E00895FB0101900020E9F73197AF01D5
:10191000461B570BDC01ED91FC910280F381E02D19
:10192000099467E471E00C94820C0F931F93CF939A
:10193000DF93EC010E94F0038C01CE010E94910C18
:10194000800F911FDF91CF911F910F910895CF9339
:10195000DF93D0E0C0E0009731F0BC0188E597E06C
:101960000E94820CEC0188E597E00E94910C8C0F9C
:101970009D1FDF91CF9108958F929F92AF92BF925A
:10198000EF92FF920F931F93CF93DF93CDB7DEB704
:10199000A1970FB6F894DEBF0FBECDBF7C01FA0150
:1019A000CB0119A2223008F42AE08E010F5D1F4FEF
:1019B000822E912CB12CA12CBF01A50194010E9473
:1019C000F726F901CA016A300CF5605DD8016E9303
:1019D0008D01232B242B252B79F790E080E01097A5
:1019E00021F0BD01C7010E94820CA1960FB6F894A8
:1019F000DEBF0FBECDBFDF91CF911F910F91FF9042
:101A0000EF90BF90AF909F908F900895695CDECF6C
:101A1000CF93DF93AB01BC012AE088E597E00E94F9
:101A2000BC0CEC0188E597E00E94910C8C0F9D1F87
:101A3000DF91CF910895CF92DF92EF92FF920F93B3
:101A40001F93CF93DF936B01770FEE08FF08F7FE2C
:101A50001BC0EC016DE20E94E9038C01442755276D
:101A6000BA014C195D096E097F092AE0CE010E9476
:101A7000BC0C800F911FDF91CF911F910F91FF90B0
:101A8000EF90DF90CF9008952AE0B701A601DF9193
:101A9000CF911F910F91FF90EF90DF90CF900C941A
:101AA000BC0C4F925F926F927F928F929F92AF92F7
:101AB000BF92CF92DF92EF92FF920F931F93CF933B
:101AC0006B017C01742EAC019B010E945F296AE4CA
:101AD00071E0811126C046015701E894B7F82FEF55
:101AE0003FEF4FE75FE7C501B4010E945F29811115
:101AF0000CC02FEF3FEF4FE75FE7C501B4010E9435
:101B000095276EE471E0181664F02FEF3FEF4FE772
:101B10005FE4C701B6010E94ED281816ACF462E537
:101B200071E088E597E0CF911F910F91FF90EF90C2
:101B3000DF90CF90BF90AF909F908F907F906F90ED
:101B40005F904F900C94820C2FEF3FEF4FE75FECCC
:101B5000C701B6010E94952787FDE1CF20E030E064
:101B6000A901C701B6010E94952710E000E087FF98
:101B70000AC06DE288E597E00E94E9038C01F7FA5C
:101B8000F094F7F8F094C0E060E070E080E09FE34C
:101B90007C1641F020E030E040E251E40E949A27B8
:101BA000CF5FF6CFA70196010E9429272B013C01A8
:101BB0000E940C284B015C012AE0BC01A40188E5CD
:101BC00097E00E94BC0C7C01E00EF11ECC23D1F109
:101BD000C501B4010E943B289B01AC01C301B201C5
:101BE0000E9428274B015C016EE288E597E00E9485
:101BF000E903E80EF91EC15028F120E030E040E290
:101C000051E4C501B4010E94F2282B013C010E945D
:101C10000C284B01B12CA12C2AE0B501A40188E5C8
:101C200097E00E94BC0CE80EF91EC501B4010E94A9
:101C30003B289B01AC01C301B2010E9428274B0144
:101C40005C01D9CFC701CF911F910F91FF90EF9009
:101C5000DF90CF90BF90AF909F908F907F906F90CC
:101C60005F904F9008950F931F93CF93DF93EC01F4
:101C70008B011092610710926207888169E373E01B
:101C8000813011F067E373E088E597E00E94F0038C
:101C900060E373E088E597E00E94F003488150E03C
:101CA00070E060E02AE088E597E00E94BC0C6BE2FF
:101CB00073E088E597E00E94F003F801408141114C
:101CC00015C067E273E088E597E00E94F003988111
:101CD000F8018081981798F464E273E088E597E052
:101CE000DF91CF911F910F910C94F00350E070E0C1
:101CF00060E02AE088E597E00E94BC0CE8CFDF9125
:101D0000CF911F910F910895FC0180E2DF01982F80
:101D10001D929A95E9F777836683DB0115969C916E
:101D2000903129F0903211F080E0089580E48083B2
:101D300081E0828308950F931F93CF938C01E0E697
:101D4000F1E084E5DF011D928A95E9F7C0E0C093D8
:101D50005F01C8010E94B60BCF5FC630C1F7109279
:101D60005F01F80111861286CF911F910F9108959E
:101D7000CF92DF92EF92FF92CF93DF93EC0188E551
:101D800097E00E949B0E68E673E088E597E00E946A
:101D9000950CCC88DD88F12CE12C7601DD24CC2457
:101DA0008A8D9B8DB0E0A0E0C82AD92AEA2AFB2AB6
:101DB00069E573E088E597E00E94F003C701B6018A
:101DC0000E94080D62E573E088E597E00E94F00349
:101DD0004C8D5D8D6E8D7F8D2AE088E597E00E94A9
:101DE000BC0C6FE473E088E597E0DF91CF91FF9042
:101DF000EF90DF90CF900C94950CCF93C82F88E58F
:101E000097E00E949B0EC11106C06EE173E088E569
:101E100097E00E94F0036CE073E088E597E00E9491
:101E2000F00388E597E00E94910CC13031F46AE03C
:101E300073E088E597E00E94F00369EF72E088E5BF
:101E400097E00E94F00388E597E00E94910CC23071
:101E500031F467EF72E088E597E00E94F00363EEEB
:101E600072E088E597E00E94F00388E597E00E9421
:101E7000910CC33031F461EE72E088E597E00E9486
:101E8000F0036CED72E088E597E00E94F00388E5CE
:101E900097E0CF910C94910CCF93C82F88E597E0F1
:101EA0000E949B0EC11106C06AED72E088E597E0C2
:101EB0000E94F00380915E0165ED72E080FD02C03A
:101EC00060ED72E088E597E00E94F00361EC72E05B
:101ED00088E597E00E94F00388E597E00E94910C66
:101EE000C13031F46FEB72E088E597E00E94F003B7
:101EF00080915E016AEB72E081FD02C065EB72E0E9
:101F000088E597E00E94F00360EB72E088E597E0D7
:101F10000E94F00388E597E00E94910CC23031F4F2
:101F20006EEA72E088E597E00E94F00380915E011E
:101F300069EA72E082FD02C064EA72E088E597E037
:101F40000E94F0036BE972E088E597E00E94F003DD
:101F500088E597E00E94910CC33031F469E972E0A2
:101F600088E597E00E94F00380915E0164E972E0E9
:101F700083FD02C06FE872E088E597E00E94F003FD
:101F800063E872E088E597E0CF910C94950CFF929E
:101F90000F931F93CF93DF936435E0F54033D0F573
:101FA000DC0190961C91F42EF594F594F5945091E3
:101FB0005F01042F0770C62F062E000CDD0BC05AE0
:101FC000DE4F123069F520E05F1109C0288130E052
:101FD000002E02C0359527950A94E2F7217011E092
:101FE00012275F1559F00E94B60BF0925F01E0E6F0
:101FF000F1E084E5DF011D928A95E9F7288181E00F
:1020000090E001C0880F0A95EAF7111116C080957B
:1020100082238883DF91CF911F910F91FF900895C4
:102020001330F9F6642760956170FC0124852170F6
:1020300011E06217B1F210E0D4CF822BEACF8F9279
:102040009F92AF92BF92CF92DF92EF92FF920F9347
:102050001F93CF93DF938C01F62EE42EC0E0D3E0E4
:102060008AEFB82E9EEFC92E822F8470A82E822F61
:102070008270982E822F8870882E2170D22ECF5F8A
:102080008C2F880F8F5FC80EAA2071F04E2D4D0F38
:102090006F2D6C0FC8010E94C70F4E2D4C0F6D2F76
:1020A0006F0DC8010E94C70F992071F04E2D4D1B76
:1020B0006F2D6C0FC8010E94C70F4E2D4C1B6D2F4A
:1020C0006F0DC8010E94C70F882071F04E2D4C0F74
:1020D0006F2D6D1BC8010E94C70F4E2D4D0F6F2D28
:1020E0006C1BC8010E94C70FDD2071F04E2D4C1BE8
:1020F0006F2D6D1BC8010E94C70F4E2D4D1B6F2DFC
:102100006C1BC8010E94C70FCD173CF4C7FCB7CFAA
:10211000D150B394B394CB0CB2CFDF91CF911F9138
:102120000F91FF90EF90DF90CF90BF90AF909F9076
:102130008F900895EF92FF920F931F93CF93DF93A9
:102140008C01F62ED42FE22EC0E0CE1544F46F2D74
:102150006C0F4D2FC8010E94C70FCF5FF6CFDF91E4
:10216000CF911F910F91FF90EF9008952F923F9282
:102170004F925F926F927F928F929F92AF92BF9297
:10218000CF92DF92EF92FF920F931F93CF93DF9343
:1021900000D000D0CDB7DEB79C838B836A3099F432
:1021A000DC0118962C91189715969C9115971A9604
:1021B0008C911A97299F800D11241A968C931A9747
:1021C00019961C92F0C06D3009F4EDC0EB81FC81D2
:1021D0005184F3E5F5150CF4C3C0AB81BC811A96AC
:1021E000FC90BFE2BF150CF4BBC0EB81FC811085F5
:1021F00024812150330B129FC001139F900D112495
:10220000850D911D57FC9A95181619060CF0A8C05B
:1022100025818F2D0F2C000C990B129F800D911D85
:102220001124181619060CF09BC0F0A1F983752C27
:10223000612C262E312CA12E012E000CBB08E62D80
:10224000062C000CFF0BAB81BC8114968C9114976B
:1022500090E0E817F9070CF07EC00197E817F9073E
:10226000A1F1289E6001299ED00C389ED00C11242B
:10227000CE0EDF1E5E96ED91FC91EC0DFD1DE491FE
:102280000F2DE12CB62DB50DBA83AB81BC8115960F
:102290002C9115978E2D0E2C000C990B28171906D2
:1022A00009F00CF455C0CE2ED12CE0FF26C0113021
:1022B00071F44E2D4F0D6A81CD010E94C70FF601BA
:1022C000F595E795E394010FE0CFE0E0D9CF402EFC
:1022D0004501800E911C07FD9A94842D042C000C5E
:1022E000990B881599055CF7212F442D672D8B815B
:1022F0009C810E949A104394F0CFEB81FC8181A1D4
:1023000090A18917E1F280A3113061F44E2D4F0D99
:102310006A81CF010E94C70FE981AB81BC81909691
:10232000EC93CDCF402E4501800E911C07FD9A9471
:10233000842D042C000C990B881599056CF7212F1E
:10234000442D672D8B819C810E949A104394F0CF7D
:102350006394710E74CFE981AB81BC819096EC934C
:10236000AB81BC8118962C91189714963C911497C8
:1023700019968C911997239F800D112419968C938F
:10238000199717969C911797992369F0082E000CBE
:10239000990B44E550E0239F401951091124481737
:1023A00059070CF401CF81E090E00F900F900F904F
:1023B0000F90DF91CF911F910F91FF90EF90DF90E1
:1023C000CF90BF90AF909F908F907F906F905F90D5
:1023D0004F903F902F900895CF93282F6AE00E944E
:1023E0007429205DC22F96EF899FC00D112460E3F0
:1023F000680F88E597E00E94B6106C2F88E597E09B
:10240000CF910C94B6100F931F93CF93DF93CDB75A
:10241000DEB72B970FB6F894DEBF0FBECDBF8C0191
:10242000892F992786958454984F1B86BE01655F36
:102430007F4F33E3839F8827030E811D202D939FB9
:102440009927800D911D1124280F891F911D290F97
:10245000811D911D9695879527953AE0239F212D03
:102460001124FB01205D22938A30910570F56250A2
:1024700071093197805D80836115710521F088E5D0
:1024800097E00E94820C6DE288E597E00E94B6100A
:10249000C80125E0969587952A95E1F78F700E94EF
:1024A000EC116DE288E597E00E94B610802F8F71E5
:1024B0000E94EC112B960FB6F894DEBF0FBECDBF75
:1024C000DF91CF911F910F910895BF01B2CFCF93AC
:1024D000DF93EC018D2F8695869586950E94EC11F1
:1024E0006AE388E597E00E94B610CE0125E0969554
:1024F00087952A95E1F78F730E94EC116AE388E5CE
:1025000097E00E94B6108C2F8F71880FDF91CF91CA
:102510000C94EC11CF92DF92EF92FF921F93CF9326
:10252000DF93EC0188E597E00E949B0E66EE73E076
:1025300088E597E00E94950CBE0188E597E00E942F
:10254000820C90915C07990F990F990F84E5891B74
:10255000809361071B8562EC73E017FF02C064EC97
:1025600073E088E597E00E94F0036EEB73E016FFDE
:1025700002C060EC73E088E597E00E94F0036AEB2C
:1025800073E015FF02C06CEB73E088E597E00E94F2
:10259000F00366EB73E014FF02C068EB73E088E5BC
:1025A00097E00E94F00362EB73E013FF02C064EB5C
:1025B00073E088E597E00E94F0036EEA73E012FF93
:1025C00002C060EB73E088E597E00E94F0036AEADE
:1025D00073E011FF02C06CEA73E088E597E00E94A7
:1025E000F00366EA73E010FF02C068EA73E088E572
:1025F00097E00E94F00388E597E00E94910C6FED50
:1026000073E088E597E00E94F0036C8D7D8D8E8DE0
:102610009F8D0E943B2820E030E040E85AE30E9472
:10262000F2286B017C0120E030E040E854E40E9495
:10263000952787FF4CC042E0C701B6010E94510DAB
:102640006BED73E088E597E00E94950C60ED73E018
:1026500088E597E00E94F003888999890E94031217
:102660006EEC73E088E597E00E94F0038E859F850D
:102670000E94671288E597E00E94910C6BEC73E072
:1026800088E597E00E94F003888D998D0E940312DF
:1026900069EC73E088E597E00E94F0038E899F89DA
:1026A0000E94671288E597E00E94910C66EC73E047
:1026B00088E597E00E94F0038A899B89DF91CF919A
:1026C0001F91FF90EF90DF90CF900C94031220E0C9
:1026D00030E040E85AE3C701B6010E94F2286B01DE
:1026E0007C0120E030E040E854E40E94952787FF19
:1026F00008C042E0C701B6010E94510D67ED73E0CA
:10270000A1CF20E030E040E85AE3C701B6010E94C3
:10271000F2286B017C0120E030E040E854E40E94A4
:10272000952787FF93CF42E0C701B6010E94510D64
:1027300063ED73E087CFEF92FF920F931F93CF93D8
:10274000DF938C01D62FF42EE22EC0E0CE1544F498
:102750004F2D4C0F6D2FC8010E94C70FCF5FF6CFD2
:10276000DF91CF911F910F91FF90EF900895FF920D
:102770000F931F93CF93DF93EC01162FF42E2EE4CB
:10278000462F63E00E949A10012F0F0D4FEF400F6C
:102790002EE463E0CE010E949A108AEFF80E1D5FCE
:1027A0002F2D412F60E0CE010E949B132F2D412F32
:1027B00063E5CE010E949B1321E0412F63E0CE012F
:1027C0000E941F1022E0412F60E5CE010E941F10E1
:1027D000045024E0402F60E5CE010E941F1028E045
:1027E000402F63E0CE01DF91CF911F910F91FF90B9
:1027F0000C941F108F929F92AF92BF92CF92DF9254
:10280000EF92FF920F931F93CF93DF93082FB62E73
:10281000942EA22E83E0F82ED0E0C3E09AEFE92EAA
:102820001EEFCC24C394C20EDF5F1F0D2C2F220F8E
:102830004B2D4C1B8A2C8F0CDB2CDD1A81E02C0DD0
:10284000602F981218C06D0F88E597E00E949B13C7
:10285000282D4D2D6C2F600F88E597E00E949B136B
:10286000DC179CF417FD04C0C150E394E3941E0DE3
:10287000F394F394D9CF6D1B88E597E00E949B13E6
:10288000282D4D2D602F6C1BE7CFDF91CF911F912D
:102890000F91FF90EF90DF90CF90BF90AF909F90FF
:1028A0008F9008954F925F926F927F928F929F9236
:1028B000AF92BF92CF92DF92EF92FF920F931F934E
:1028C000CF93DF9300D000D01F92CDB7DEB7C0907A
:1028D0008A07D0908B07E0908C07F0908D070E94BC
:1028E000F806C61AD70AE80AF90A8091890790E023
:1028F000B0E0A0E04091850750918607609187077E
:10290000709188078C159D05AE05BF0508F0C5C000
:10291000411551056105710509F4BFC00E94F80613
:1029200020918907620F711D811D911D60938A0797
:1029300070938B0780938C0790938D0780917B0712
:1029400090917C07A0917D07B0917E070196A11D13
:10295000B11D80937B0790937C07A0937D07B09374
:102960007E071092850710928607109287071092B3
:1029700088070E94A1066093810770938207809365
:1029800083079093840780910B0790910C072FE0A9
:10299000289FA001299F500D11245A83498385E166
:1029A0000E945806E981FA818E0F9F1FB4E0969528
:1029B0008795BA95E1F790930C0780930B072091C8
:1029C0000A07222309F448C060910E07262F30E041
:1029D00050E040E029833A834B835C83C0900F072B
:1029E000D12CF12CE12C40911207509113074A0190
:1029F000B12CA12C20911007309111072901712CC5
:102A0000612C8217930728F09C014817590708F496
:102A10009A0150E040E024193509460957096981B7
:102A20007A818B819C816C197D098E099F090E9496
:102A30006429A501940124193509460957090E9402
:102A4000CD26C20ED31EE41EF51EC0920D076C2DBE
:102A500070E085E00E94FB050E94B4058091260786
:102A600090912707892B11F00E946A0681E00F9050
:102A70000F900F900F900F90DF91CF911F910F91BA
:102A8000FF90EF90DF90CF90BF90AF909F908F908E
:102A90007F906F905F904F900895452B462B472B6A
:102AA00009F0A8C28091210781508E3FB8F580912E
:102AB0002007813099F5809134078F5F6091350749
:102AC00087FD09C0082E000C990B70E06F5F7F4FE7
:102AD0000E948029682F6093340780E396E09093EA
:102AE0008F0780938E0788E4809390070E946A0383
:102AF0008DE196E090933D0780933C07109242074A
:102B00001092410781E08093300789E08093450768
:102B10001092480710924A0710924C0780912107A3
:102B200081508E3F70F480911F07813009F0ECC214
:102B300083E296E090938F0780938E0788E48093DA
:102B4000900780912F07882331F080913007811101
:102B500002C00E947C0380913007882309F43EC0A4
:102B60008091440781113AC080913C0790913D07C4
:102B7000E0914107F0914207EE0FFF1FE80FF91FA8
:102B8000259134912115310509F4BBC0A901569551
:102B9000479556954795842F20FD5EC08F7380938F
:102BA000430780913307839F802D1124809344072E
:102BB00010925407109253071092520781E08093AD
:102BC00046078093C2011092470780914107909178
:102BD00042070196909342078093410780914607F0
:102BE000882331F0809144078111A5C00E946A03B7
:102BF00080919007882309F4BEC18C3008F082C10F
:102C0000FCE0F81BF98381E080936007109278075D
:102C10001092790720915D072D8383E0E82EE20E64
:102C20001981121B0DE2010F0E2C000CFF08E00EA3
:102C3000F11C07FDFA94802F002E000C990B8E15C5
:102C40009F050CF061C12EE4402F63E088E597E01A
:102C50000E949A100F5FEFCFC901E6E09695879525
:102C6000EA95E1F78F71932F9695969596959051E9
:102C70004F70423099F1D0F4442309F43CC0413004
:102C8000B9F1E0914107F09142073196F093420784
:102C9000E0934107CF01880F991FE0913C07F09125
:102CA0003D07E80FF91F2591349170CF433061F053
:102CB000443039F720913307289F802D11248093C9
:102CC0004C0790934D07DDCF20913307289F802D2F
:102CD000112480934A0790934B07D3CF2091330759
:102CE000289F802D11248093480790934907C9CFCE
:102CF0000E94BD03C6CF8B3008F08AE08093450761
:102D0000C0CF20914007211110C010923007809150
:102D10002F07811103C00E946A0360CF0E947C03C9
:102D20008091410790914207B6CF109242071092CE
:102D30004107FC01B8CF815080934407809154072C
:102D4000811142C020915207309153072F5F3F4FAE
:102D5000C901880F991FE0914E07F0914F07E80FC6
:102D6000F91F85919491482F477040935507492F3B
:102D70004695469540935607AC0164E056954795B5
:102D80006A95E1F74F7390913307499F402D1124C5
:102D90004093540783FB882780F98093C1013093C7
:102DA0005307209352078091500790E02817390766
:102DB00058F020915107222309F49EC0821B9109EB
:102DC00090935307809352078091540781508093CA
:102DD00054078091470731E0380F309347074091FF
:102DE000430720915607240F80913B07280F20931B
:102DF000310760914A07662371F070E0832F032E3C
:102E0000000C990B0E94802980914B07869F200D12
:102E10001124209331078091310790E0849664E279
:102E200070E00E948029809331072091450720930C
:102E3000320760914807662381F0062E000C770B5D
:102E4000832F032E000C990B0E9480298091490743
:102E5000869F200D11242093320760914C07662332
:102E6000A1F0832F330F990B70E00E948029CB01D2
:102E700062E070E00E94802920914D079091320716
:102E8000289F900D1124909332074F33C1F1809108
:102E900032078A300CF089E087FD80E080933207AA
:102EA000F894E0913107F0E0E455FA4FE491E093B3
:102EB000C00120915707309132073203900111244D
:102EC000409155074203C001439F900D112420916A
:102ED000340702C0880F991F2A95E2F797FF02C0B6
:102EE00081589F4F880F892F881F990B8093C301AA
:102EF0008093C40178947CCE0E946A0365CF1092BF
:102F00003207CECF19827FCE3D8134503D83105D94
:102F1000232F41E0612F80E50E94FA132D8142E0CA
:102F2000612F83E00E94FA1381E0809378078093F9
:102F3000790780915D0743E0480F6981681B635DF5
:102F400088E597E00E94B71384E080936107809141
:102F50005D074981481B415D4093620760918E0780
:102F600070918F0788E597E00E94F00380919007A9
:102F70008150809390078091260790912707892B95
:102F8000D9F051E0509378071092790790915C073F
:102F900085E5891B80936107109262076091230782
:102FA000613009F495C040F180912207653008F046
:102FB000A6C06B5F81119EC00E94E50B80915E07E9
:102FC000811104C088E597E00E949B0E0E94A10633
:102FD000609385077093860780938707909388078F
:102FE0002091810730918207621B730B70938007D9
:102FF00060937F0780E03BCD0E946A031092300708
:1030000081E080936007EAE2F4E0E491EF5FE0930F
:103010005C07EBE2F4E0E491E85FE87FE0935D07B2
:103020008CE294E0909377078093760710922707BD
:103030001092260710925E0798EA99830E94521414
:103040008823E1F36CE174E088E597E00E94F003E7
:10305000409124075091250770E060E02AE088E560
:1030600097E00E94BC0C67E074E088E597E00E945E
:10307000F003698162956F7070E088E597E00E94C7
:103080001B0D6CEF73E088E597E00E94F0038091E0
:103090001F07813009F490CFE981E150E983E11104
:1030A000CDCF70E060E085E00E94FB0583B7817FB3
:1030B000846083BF83B7816083BF83B7816083BF30
:1030C000889583B78E7F83BF83B78E7F83BFB6CF4C
:1030D00080917B0790917C07A0917D07B0917E073E
:1030E0008F709927AA27BB2767E00897A105B1052C
:1030F00008F068E788E597E00E94E9035DCF882340
:1031000009F45ACF6FE2F6CF893209F01ACD88E57B
:1031100097E00E949B0E65EF75E088E597E00E94BE
:10312000F0030E94E50B8CB583608CBD8DB58E7F5E
:103130008DBD86E591E0EEEFFFE3099510925E0705
:1031400060ED75E088E597E00E94950C0E94E50B24
:103150000E94B40580911F07813009F4F2CC62E32C
:1031600070E080E090E00E94C606F2CF0E94521408
:103170008823E1F30895CF93DF93EC011092610768
:103180006623C9F168E471E088E597E00E94F003E6
:10319000FE01EF5AFD4F80818130B9F178F1823024
:1031A000B9F18330C1F166E271E088E597E00E94F1
:1031B000F003C05BDD4F6881062E000C770B88E5BD
:1031C00097E00E941B0D64E271E088E597E00E94A1
:1031D000F003E881E43158F4F0E0EE0FFF1FEF5FF9
:1031E000FE4F6081718188E597E00E94F003DF91D6
:1031F000CF910C94B61866E471E0C6CF6FE371E02E
:1032000088E597E00E94F003CECF68E371E0F8CF45
:1032100061E371E0F5CF6AE271E0F2CF88E597E013
:103220000E949B0E60E086EB94E00E94BB1888E54C
:1032300097E00E94910C60E082E692E00E94BB1849
:1032400088E597E00C94910C4F925F926F927F9279
:103250008F929F92AF92BF92CF92DF92EF92FF92A6
:103260000F931F93CF93DF93EC015B018A01888159
:10327000882309F4C1C09A8190FFBEC083FF16C0A5
:10328000888D998DAA8DBB8D488959896A897B89DA
:10329000841B950BA60BB70BA80170E060E04817E4
:1032A00059076A077B07A0F08C0112C085FF10C088
:1032B000EE81FF818681978155E0880F991F5A958D
:1032C000E1F728893989821B930B8017910760F3F6
:1032D00078012E012CE0420E511C612C42E0742E2C
:1032E000E114F10409F4B5C088899989AA89BB89D8
:1032F0004C0121E092222881EE81FF81AC01BD01C9
:1033000039E076956795579547953A95D1F725FF1A
:1033100029C0848D958DA68DB78D480F591F6A1FC2
:103320007B1FEE81FF818114910409F06BC0E114D1
:1033300082E0F80608F466C083A194A1A5A1B6A115
:10334000481759076A077B0709F45CC0950180811B
:1033500091810E94FD07882309F44EC0C12C82E0B0
:10336000D82E66C0D380D4228114910481F4D11068
:103370000EC0892B8A2B8B2B81F526FF29C0848DCB
:10338000958DA68DB78D8C879D87AE87BF87EE8183
:10339000FF814C855D856E857F85425051096109AD
:1033A0007109848104C0440F551F661F771F8A95D9
:1033B000D2F780899189A289B389840F951FA61FAE
:1033C000B71FAC01BD014D0D511D611D711DA9CF70
:1033D0008C8D9D8DAE8DBF8DD6CF4C855D856E85D8
:1033E0007F859201CF010E94CE0987FD05C0811122
:1033F000CECF8881807769F58981826089838FEF5C
:103400009FEF2AC0C3018819990967018E159F058E
:1034100008F46C0120E0CF0180960E949908009783
:1034200059F3BC01680D791DA601C5010E94AE29A2
:10343000AC0CBD1C88899989AA89BB898C0D9D1DFE
:10344000A11DB11D888B998BAA8BBB8BEC18FD0835
:1034500047CFC8018E199F09DF91CF911F910F911E
:10346000FF90EF90DF90CF90BF90AF909F908F90A4
:103470007F906F905F904F900895FF920F931F93EE
:10348000CF93DF931F92CDB7DEB78C01FC0180890B
:103490009189A289B38925E0B695A79597958795D7
:1034A0002A95D1F7F82FFF70FF2E41E050E0BE01C2
:1034B0006F5F7F4FC8010E942419813049F090E06E
:1034C00080E00F90DF91CF911F910F91FF900895B1
:1034D000F80180899189A289B3894F96A11DB11DF8
:1034E000808B918BA28BB38B26813781295D3F4FD7
:1034F000F0E2FF9EC0011124820F931FE2CF0F93D1
:103500001F93FC012081207799F00089118922897D
:1035100033890F71112722273327012B022B032B0D
:1035200039F440E250E00E94241921E0809709F02C
:1035300020E0822F1F910F9108954F925F926F921A
:103540007F92AF92BF92CF92DF92EF92FF920F9352
:103550001F93CF93DF93CDB7DEB7A0970FB6F89444
:10356000DEBF0FBECDBF5C01E22FE150FF0BCF01EC
:1035700035E0880F991F3A95E1F7092E000CAA0B48
:10358000BB0B2A013B01481A590A6A0A7B0AC22E60
:10359000D12CF12CE12C1C2DC01608F055C0F0E206
:1035A0004F1A510861087108B301A201C5010E94B8
:1035B0009E0ABE016F5F7F4FC5010E947F1A88235C
:1035C000E9F189818F71C816B1F080E0A0960FB63D
:1035D000F894DEBF0FBECDBFDF91CF911F910F9149
:1035E000FF90EF90DF90CF90BF90AF907F906F9063
:1035F0005F904F9008958C858F3039F71A3030F4F2
:1036000062E273E088E597E00E94F0032AE0B701E8
:10361000A60188E597E00E94BC0C60E273E088E5B3
:1036200097E00E94F003CE0101960E94360C89813A
:1036300086FDCBCF88E597E00E94910C8FEFC81AEA
:10364000D80AE80AF80AA7CF81E0C0CF5F926F924C
:103650007F928F929F92AF92BF92CF92DF92EF9222
:10366000FF920F931F93CF93DF93CDB7DEB7A09751
:103670000FB6F894DEBF0FBECDBF4C017B0188E5CD
:1036800097E00E949B0EF701408151816281738116
:10369000C4010E949E0A68E772E088E597E00E94F4
:1036A000F003F701608171818281938125E0969515
:1036B0008795779567952A95D1F70E94080D10E0B8
:1036C0006E01FCE0CF0ED11C3CE0732E4EE0542E78
:1036D0005BE0652EBE016F5F7F4FC4010E947F1AC1
:1036E000082F882309F44AC09981992321F1953E36
:1036F00039F18C8583FD24C01F5FCE0101965C01EA
:10370000F50161915F0188E597E00E94E903CA1421
:10371000DB04B1F780915C07869D802D1124809396
:1037200061078C8588716BE572E0803109F465C0B2
:1037300065E572E062C001E0123004F500E01EC0F1
:1037400080915E0180FF7AC01F5F2C852F3069F564
:1037500081FF83C0CE0101960E94360C80915C07E8
:10376000859D802D11248093610761E772E088E5D3
:1037700097E00E94950C153009F0ACCF802FA096F1
:103780000FB6F894DEBF0FBECDBFDF91CF911F9172
:103790000F91FF90EF90DF90CF90BF90AF909F90F0
:1037A0008F907F906F905F900895953E11F482FD09
:1037B00007C0283051F188E597E00E94910CDBCFDB
:1037C0006FE672E088E597E00E94F0035E0192E008
:1037D000A90EB11CF50161915F0188E597E00E9497
:1037E000E903CA14DB04B1F780915C07879D802D43
:1037F0001124809361076AE672E088E597E00E94F1
:10380000F0038C850E94010CD6CF83FFD4CFCE016C
:1038100001965C01F50161915F0188E597E00E94E6
:10382000E903AC14BD04B1F780915C07879D802D3E
:1038300011248093610761E672E099CF11114ACF9C
:10384000F70180819181A281B3818096A11DB11D74
:1038500080839183A283B3833DCF953E09F0ABCFA4
:10386000A6CF2F923F924F925F926F927F928F924C
:103870009F92AF92BF92CF92DF92EF92FF920F93FF
:103880001F93CF93DF93CDB7DEB7C856D1090FB6DC
:10389000F894DEBF0FBECDBF7C01A7966FAFA79790
:1038A0006093620761E00E94BB1867012FEAC21AA9
:1038B0002DEFD20A0E9452148823E1F380911F0752
:1038C000813009F0E8C58701005B1D4FD8018C915C
:1038D00087FDD6C5F6018081813009F067C45E019D
:1038E000F1E4AF0EB11CD5011C9211961C92B701E8
:1038F000C5010E94840E882309F4C2C5A5961CAE9A
:103900001DAE1EAE1FAEA597BE016F597F4FC501FC
:103910000E94261B082F5A2C4B2C0E9452148823DD
:10392000E1F310911F07113009F07AC1A5964CAD53
:103930005DAD6EAD7FADA597C5010E949E0ABE012B
:103940006F5D7F4FC5010E947F1A8CA58871803101
:1039500009F401C1811107C0F5018081807619F059
:1039600089A1853E09F41260A5964CAD5DAD6EADA2
:103970007FADA5974052510961097109C5010E94A7
:103980009E0A882369F0BE016F5F7F4FC5010E94C8
:103990007F1A8C858F3021F489818F71813009F0F5
:1039A0001460109519A6612C812E912C0E9452143E
:1039B0008823E1F380912007813009F42AC18091A6
:1039C0001C07813019F416140CF46A9480911E07B8
:1039D000813009F46394262D90E080E0A401082E44
:1039E00002C0559547950A94E2F740FF05C03FEFA6
:1039F000320F222331F0232F01968430910571F785
:103A00006A94262D90E080E0382EA401082E02C092
:103A1000559547950A94E2F740FF05C03FEF320FF6
:103A2000222339F0232F01968430910569F7E4E0D1
:103A30003E2E61E0762E761860915D07769E602DB1
:103A4000112474E0772E760E88E597E00E949B0E95
:103A5000109261077092620710E000E0802F9401DD
:103A6000002E02C0359527950A94E2F720FF14C076
:103A700020915D0790916207692F092E000C770B4A
:103A8000422F50E0519541955109641775070CF08C
:103A900064C0920F909362070F5F1F4F04301105AF
:103AA000E9F6109278071092790780915D07472D0B
:103AB000689E400D1124415024E560E088E597E0C0
:103AC0000E949A1081E08093780780937907809113
:103AD0005D0743E0480F672D689E600D112462501A
:103AE00088E597E00E94B71310911F07113009F085
:103AF0005DCFF1E03F1609F4A3C13F1608F45DC0A5
:103B000022E0321609F40FC283E038124FCFCE0103
:103B100081960E948A120E9452148823E1F38091B8
:103B20002007813009F442CF80911B07813039F49E
:103B3000113029F0CE0181960E948A1211E0809105
:103B40001D07813041F7123031F3CE0181960E947A
:103B5000B80E12E0E0CF10E006CF30120AC090910C
:103B60005C0790936107972D629E900D11249093AE
:103B700062078230C1F08330E9F06AE471E081309D
:103B800011F460E571E088E597E00E94F003BE0162
:103B90006F5D7F4F88E597E00E94820C88E597E093
:103BA0000E94910C79CF67E571E088E597E00E946B
:103BB000F003F4CF6FE571E0F8CF6AE671E085ECD1
:103BC00091E00E94950CF501848D958DA68DB78DA1
:103BD000892B8A2B8B2B61F48081882319F0C501F6
:103BE0000E944F0AD5011C92B701C5010E94840EA4
:103BF00040E050E0BA01C5010E949E0AF5018089AB
:103C00009189A289B389A5968CAF9DAFAEAFBFAFA6
:103C1000A597BE016F597F4FC5010E94261B082F33
:103C200080911C078F3FC9F163E00E947429913095
:103C3000A1F5A5968CAD9DADAEADBFADA597009796
:103C4000A105B10519F13C014D01F0E26F1A7108AF
:103C500081089108B401A301C5010E949E0ABE011A
:103C60006F5F7F4FC5010E947F1A882379F0898199
:103C7000882361F0853E09F4EDC18C8583FDEAC19E
:103C8000A5966CAE7DAE8EAE9FAEA597BE016F5968
:103C90007F4FC5010E94261B082F80911E078F3F72
:103CA000E9F063E00E9474299130C1F4002379F0B7
:103CB000A5968CAD9DADAEADBFADA5978096A11D6F
:103CC000B11DA5968CAF9DAFAEAFBFAFA597BE019E
:103CD0006F597F4FC5010E94261B082F8091210735
:103CE000813009F01ACE80E00E94FD0E10E055E010
:103CF000952E0E9452148823E1F380912107813090
:103D000009F448C280912007813009F443C2009130
:103D10001F07013009F071C0123009F435C21330A9
:103D200009F4AEC3113009F4B5C188E597E00E94EB
:103D30009B0E61E372E088E597E00E94F003D701F3
:103D400015964C9150E070E060E02AE088E597E03D
:103D50000E94BC0C69E272E088E597E00E94950C35
:103D600067E172E088E597E00E94F003F701428185
:103D700050E070E060E02AE088E597E00E94BC0C2B
:103D800088E597E00E94910C69E072E088E597E091
:103D90000E94F003D7011C966D917D918D919C91AD
:103DA0001F970E94080D6AEF71E088E597E00E9476
:103DB000F003F70164897589868997890E94080D47
:103DC0006CEE71E088E597E00E94F003D7015C9605
:103DD0006D917D918D919C915F970E94080D00934C
:103DE0005E070E9452148823E1F380911F078130FF
:103DF00009F045C1812F0E94FD0E80911C078F3F65
:103E000061F0692D0E947429913039F4112309F46D
:103E1000C9C11150812F0E94FD0E80911E078F3F56
:103E200009F467CF692D0E947429913009F061CFA0
:103E3000133009F4B9C11F5F812F0E94FD0E59CFC5
:103E4000D5018C91807609F442C088E597E00E9404
:103E50009B0E6BE971E088E597E00E94950CCE011E
:103E600081960E94A70C88E597E00E94910C64E976
:103E700071E088E597E00E94950C88E597E00E9444
:103E8000910C69E871E088E597E00E94950C0E942A
:103E9000B6180E9452148823E1F380911F078130E5
:103EA00089F488E597E00E949B0E64E771E088E55D
:103EB00097E00E94950C0E945214CE018196EEEF7D
:103EC000FFE3099580912007813019F76FCD88E5D0
:103ED00097E00E949B0E62EE71E088E597E00E94F9
:103EE000950CCE0181960E94A70C65EC71E088E5E7
:103EF00097E00E94950C88E597E00E94910C88E578
:103F000097E00E94910C6EEA71E088E597E00E94CC
:103F1000950C80911F07813009F448CD80912007CE
:103F20008130A9F643CDA6961FAFA697198288E5E2
:103F300097E00E949B0E88E597E00E94910CA69660
:103F40008FADA697282F220F220F280F01E0020F16
:103F50002450A5964CAD5DAD6EAD7FADA597C50166
:103F60000E949D1A811104C0A6968FADA6978983E1
:103F7000BE016F5F7F4FCE018B599F4F0E94330E62
:103F80000E9452148823E1F380912007813009F4C4
:103F90000DCD80911B07813099F5A6968FADA69720
:103FA000813021F08150A6968FAFA69788E597E0E3
:103FB0000E949B0E88E597E00E94910CA6968FAD1B
:103FC000A697282F220F220F280F01E0020F24505E
:103FD000A5964CAD5DAD6EAD7FADA597852D942DAD
:103FE0000E949D1A811104C0A6968FADA697898361
:103FF000BE016F5F7F4FCE018B599F4F0E94330EE2
:1040000080911D07813009F0BBCFA6968FADA69792
:104010009981891721F08F5FA6968FAFA69788E5C3
:1040200097E00E949B0E88E597E00E94910CA6966F
:104030008FADA697282F220F220F280F01E0020F25
:104040002450A5964CAD5DAD6EAD7FADA597852D89
:10405000942D86CF80915E0180FD12CE6114710493
:104060008104910409F412CE20E2621A71088108D9
:104070009108B401A301C5010E949E0AEBCD809175
:104080002007813009F4B6CE80912107813009F0F4
:10409000A8CEB0CE80E00E944C0F00E00E945214E7
:1040A0008823E1F380912107813009F4A3CE809128
:1040B0002007813009F49ECE80911F07813089F559
:1040C00080915E01023009F1033009F44DC00130E6
:1040D00079F080FD0BC0816080935E0180915E016C
:1040E00080FD1CC0817F80935E0118C08E7FF4CF5D
:1040F00081FD09C0826080935E0180915E0181FF35
:104100000DC08160F0CF8D7FF6CF82FD2BC0846023
:1041100080935E0180915E0182FDF3CF802F0E942B
:104120004C0F80911C078F3F59F0692D0E94742914
:10413000913031F4002321F10150802F0E944C0F67
:1041400080911E078F3F09F4A9CF692D0E94742921
:10415000913009F0A3CF0330A9F00F5F802F0E94A8
:104160004C0F9CCF8B7FD4CF83FD08C08860809399
:104170005E0180915E0183FFD1CFC3CF877FF7CFF0
:1041800003E0DBCF00E0EACFA5961CAE1DAE1EAE6D
:104190001FAEA597BE016F597F4FC5010E94261B18
:1041A000082FBBCB13E036CE10E046CE65E472E0BC
:1041B00085EC91E00E94950C82E0F601808361E03D
:1041C000C7010E94BB18D8019C90F701EE5AFD4F21
:1041D000B081A996BFAFA99731962081A8962FAF3D
:1041E000A8978701095B1D4FD80113961C9213975E
:1041F0001C9215961C921597C701835B9D4F1296D2
:104200009C938E9311970E94F8062B01F801A180D0
:10421000B280D50112969C9261E0892D0E947805AA
:1042200061E0F50182810E944A050E945F0BD8017E
:104230001196ED91FC91129782E58083118213967D
:104240008C91811103C0C8010E9404075701B8EB8B
:10425000AB1ABDEFBB0AD501ED91FC9161E0828103
:104260000E944A054AE0942E8FEF0E9418079A9404
:104270009110FACFD501ED91FC9160E082810E940E
:104280004A053AE0932E20E030E0A90160E0C80141
:104290000E945407B82EB1E08B1709F44CC09A94D1
:1042A00091103BC080E2F8018083C8010E943F0763
:1042B0006BE372E085EC91E00E94950C83E0D601FF
:1042C0008C9361E0C7010E94BB1881E080935E0778
:1042D0000E9452148823E1F380911F078130C1F0BE
:1042E000809120078130A1F080912107813081F0F9
:1042F00080911C07813061F080911E07813041F070
:1043000080911B07813021F080911D07813001F7DA
:10431000109207071092B304B3C08DEF0E941807E4
:1043200028E0A22E22E0B22E0E941D07F1E0AF1A73
:10433000B108D1F7A8CF2AEA31E040E050E068E0C8
:10434000C8010E945407853069F5F701E45BFD4F11
:10435000B0821701F4EB2F1AFDEF3F0AD1018C91C7
:10436000812C912C5401823029F4812C912CA12C88
:1043700080E4B82E20E030E0A90167E3C8010E9484
:104380005407A501940169E2C8010E9454078823DB
:10439000E9F00E94F80664197509613D774050F311
:1043A00083E481CF94E0B92E0E941D07D8011496B2
:1043B0008C93BA94B110F8CF8A3A31F482E0F701C5
:1043C000E45BFD4F8083C5CF85E26DCFD1018C9139
:1043D0008230C9F420E030E0A9016AE3C8010E94FC
:1043E0005407882311F087E35ECF0E941D07807C6D
:1043F000803C19F483E0D1018C930E941D070E9438
:104400001D070E941D07C8010E943F07D801119691
:10441000ED91FC91A996BFADA997B083A8962FAD59
:10442000A8972183D7010D931C938701095D1D4F28
:10443000F8018081811189C0D8011C9261E0C70117
:104440000E94D808882309F484C0F8018081811172
:104450002FCFB701C8010E94840E882309F428CF0A
:10446000D8018C91807709F423CF65E372E085EC65
:1044700091E00E94950C0E94B61881E0F6018083BD
:104480000E940E19A796BFADA797B093620761E08F
:10449000C7010E94BB1880911B078F3FA9F065E000
:1044A0000E947429913081F4F6018081811108C045
:1044B000F701E05BFD4F808187FD02C08150808362
:1044C00061E0C7010E94BB1880911D078F3FA9F0D2
:1044D00065E00E947429913081F4D6018C9181119C
:1044E00008C0F701E05BFD4F8081833114F48F5FDA
:1044F000808361E0C7010E94BB1880911C078F3F39
:1045000079F165E00E947429913051F560E0C701AE
:104510000E94BB188FEFC859DF4F0FB6F894DEBF6B
:104520000FBECDBFDF91CF911F910F91FF90EF9004
:10453000DF90CF90BF90AF909F908F907F906F90C3
:104540005F904F903F902F900895C8010E944F0AAE
:1045500073CF60E0C7010E94D808811176CFA8CE42
:1045600080911E078F3F09F4A5C965E00E94742958
:10457000913009F09FC960E0C7010E94BB1881E03B
:10458000CACF1F920F920FB60F9211242F933F9311
:104590004F935F936F937F938F939F93AF93BF934B
:1045A000EF93FF9385EC91E00E949204FF91EF91CD
:1045B000BF91AF919F918F917F916F915F914F913B
:1045C0003F912F910F900FBE0F901F9018951F9243
:1045D0000F920FB60F9211242F938F939F93EF9307
:1045E000FF93E091D501F091D6018081E091DB014C
:1045F000F091DC0182FD1BC090818091DE018F5F14
:104600008F732091DF01821741F0E091DE01F0E02D
:10461000EB53FE4F958F8093DE01FF91EF919F91B9
:104620008F912F910F900FBE0F901F901895808142
:10463000F4CF1F920F920FB60F9211242F933F9336
:104640008F939F93AF93BF938091B7019091B801DF
:10465000A091B901B091BA013091B60123E0230FC6
:104660002D3758F50196A11DB11D2093B6018093F9
:10467000B7019093B801A093B901B093BA018091AA
:10468000BB019091BC01A091BD01B091BE0101960A
:10469000A11DB11D8093BB019093BC01A093BD01EE
:1046A000B093BE01BF91AF919F918F913F912F9198
:1046B0000F900FBE0F901F90189526E8230F0296BB
:1046C000A11DB11DD2CF1F920F920FB60F921124D0
:1046D0002F936F937F938F939F936091C301662372
:1046E00049F18091B4018F5F8093B4019091C00132
:1046F000891700F12091C20181E028272093C2018F
:104700001092B4018091C101882369F08091000169
:1047100093E4899F802D1124895B809300010E947E
:1047200074299093C4018091C401211101C080E0DB
:104730008093B4009F918F917F916F912F910F90F3
:104740000FBE0F901F901895E5ECF1E013821282D6
:1047500088EE93E0A0E0B0E084839583A683B783DE
:104760008DE291E09183808385EC90E0958784874A
:1047700084EC90E09787868780EC90E0918B808B2B
:1047800081EC90E0938B828B82EC90E0958B848B14
:1047900086EC90E0978B868B118E128E138E148E82
:1047A00010925B0710925A078FE391E0909359079C
:1047B000809358071092BB041092DD061092DE061B
:1047C00094E69093FD061092020780E5809303071C
:1047D000109204078093080710920907109267024D
:1047E0001092890410928A049093A9041092AE0446
:1047F0008093AF041092B0048093B4041092B50477
:104800000895789484B5826084BD84B5816084BD48
:1048100085B5826085BD85B5816085BD80916E005E
:10482000816080936E00109281008091810082608F
:1048300080938100809181008160809381008091CC
:1048400080008160809380008091B10084608093BB
:10485000B1008091B00081608093B00080917A00B7
:10486000846080937A0080917A00826080937A00DD
:1048700080917A00816080937A0080917A008068CC
:1048800080937A001092C100E091D501F091D60199
:1048900082E08083E091D101F091D2011082E09119
:1048A000D301F091D40180E180831092DD01E09189
:1048B000D901F091DA0186E08083E091D701F0918F
:1048C000D801808180618083E091D701F091D80187
:1048D000808188608083E091D701F091D801808148
:1048E00080688083E091D701F091D80180818F7D2D
:1048F000808382E38093890781E090E0A0E0B0E0CC
:104900008093850790938607A0938707B0938807C5
:104910008FEF80937A07E0E8F7E725913491213013
:10492000304C09F0FAC1E6E9F7E7E491E093630758
:10493000E7E9F7E7E491E0930E07E8E9F7E7E491A8
:10494000E0930F07E9E9F7E78591949190931107B8
:1049500080931007EBE9F7E7859194919093130703
:104960008093120787E080933507EEE9F7E7E4913B
:10497000E0933407EFE9F7E7E491E0937A07E0EAA0
:10498000F7E7859194919093270780932607E2EAB1
:10499000F7E7859194919093290780932807E4EA9B
:1049A000F7E78591949190932B0780932A07E6EA85
:1049B000F7E78591949190932D0780932C07C1E0A0
:1049C000C0930A076FEF70E085E00E94FB0588E066
:1049D0008093140789E08093150787E0809316077A
:1049E00086E080931707D4E0D093180782E0809385
:1049F000190781E180931A070E94B4058CE39FE0B8
:104A00009093250780932407D0932307C0932E0704
:104A10008BE0809366078DE08093650780E180934B
:104A200067078EE0809369078FE080936807C093E3
:104A30006007C093780710927907C0935F07EAE296
:104A4000F4E0E491EF5FE0935C07EBE2F4E0E491E3
:104A5000E85FE87FE0935D078CE294E0909377074E
:104A6000809376070E945F0B8CB58F7D8CBD8CB5D3
:104A70008C7F81608CBD8DB581608DBD8CB58C6067
:104A80008CBD61E0809166070E94780561E08091AD
:104A900065070E94780561E0809167070E947805AC
:104AA0008091690718161CF461E00E9478058091D6
:104AB000680718161CF461E00E9478058091690768
:104AC000181674F460E00E944A056AE070E080E025
:104AD00090E00E94C60661E0809169070E944A0545
:104AE00080916507082E000C990BFC01EF5BF94FD4
:104AF000E491F0E0EE0FFF1FE257FC4F2591349157
:104B000030936D0720936C07FC01EB5AF94FE49149
:104B1000E093730780916607082E000C990BFC0147
:104B2000EF5BF94FE491F0E0EE0FFF1FE257FC4F0F
:104B30002591349130936B0720936A07FC01EB5A5F
:104B4000F94FE491E093720780916807082E000CFA
:104B5000990BFC01EF5BF94FE491F0E0EE0FFF1FC2
:104B6000E257FC4F2591349130936F0720936E07E5
:104B7000FC01EB5AF94FE491E093740780916707C9
:104B8000082E000C990BFC01EF5BF94FE491F0E06B
:104B9000EE0FFF1FE257FC4F2591349130937107C0
:104BA00020937007FC01EB5AF94FE491E0937507ED
:104BB00061E288E597E00E94950B64E188E597E063
:104BC0000E94950B8091630787FF03C08FE7809356
:104BD000630760916307606888E597E00E94950B22
:104BE00060E288E597E00E94950B6CE088E597E02D
:104BF0000E94950B0E94E50B81E08093330784E0CF
:104C0000809357078AE893E090933F0780933E078D
:104C100080E00E94BD0361E070E083E00E94FB053C
:104C20008091B100887F81608093B100F8941092E8
:104C3000800010928100109285001092840088E11B
:104C400091E0909389008093880080918100886032
:104C500080938100809181008160809381008091A8
:104C60006F00826080936F00789480912607909106
:104C70002707892B11F00E946A0680912007813056
:104C800009F478C080912307882309F473C00E9437
:104C90006A0388E993E090933D0780933C07109264
:104CA00042071092410781E08093300789E08093AA
:104CB00045071092480710924A0710924C0781E06E
:104CC00080935E0798E29093890780933307109250
:104CD0005F078AE0809306070E940E19C0E0D0E0CB
:104CE00011E08091BF01882309F447C0813009F4A5
:104CF0004FC08091BF0187FD1093BF018091BF011C
:104D0000823014F01092BF01209759F30E947E0464
:104D1000882339F30E940000E4CF9CE3909363075B
:104D200010920E0780930F0780E293E09093110793
:104D30008093100784ED93E09093130780931207FC
:104D400087E080933507809334078CEA9DE0909349
:104D50002707809326078EED9DE090932907809387
:104D6000280784E79EE090932B0780932A078CE323
:104D70009FE021CE10923407A2CF60E086EB94E052
:104D80000E94311C9091BF01890F8093BF01B1CF68
:104D900060915D0782E692E0F3CF052E97FB1EF44B
:104DA00000940E94E42657FD07D00E94F72607FCD6
:104DB00003D04EF40C94E4265095409530952195FF
:104DC0003F4F4F4F5F4F0895909580957095619537
:104DD0007F4F8F4F9F4F08950E941927A59F900DD9
:104DE000B49F900DA49F800D911D11240895A1E200
:104DF0001A2EAA1BBB1BFD010DC0AA1FBB1FEE1F55
:104E0000FF1FA217B307E407F50720F0A21BB30B9F
:104E1000E40BF50B661F771F881F991F1A9469F71B
:104E200060957095809590959B01AC01BD01CF0177
:104E30000895A29FB001B39FC001A39F700D811D73
:104E40001124911DB29F700D811D1124911D089593
:104E50005058BB27AA270E9440270C94B3280E94D1
:104E6000A52838F00E94AC2820F039F49F3F19F4AF
:104E700026F40C94A2280EF4E095E7FB0C949C28F1
:104E8000E92F0E94C42858F3BA17620773078407F2
:104E9000950720F079F4A6F50C94E6280EF4E09539
:104EA0000B2EBA2FA02D0B01B90190010C01CA01E4
:104EB000A0011124FF27591B99F0593F50F4503E8F
:104EC00068F11A16F040A22F232F342F4427585F81
:104ED000F3CF469537952795A795F0405395C9F799
:104EE0007EF41F16BA0B620B730B840BBAF0915051
:104EF000A1F0FF0FBB1F661F771F881FC2F70EC0F0
:104F0000BA0F621F731F841F48F4879577956795C2
:104F1000B795F7959E3F08F0B0CF9395880F08F0AE
:104F20009927EE0F9795879508950E94782808F4A1
:104F300081E008950E94AE270C94B3280E94AC280B
:104F400058F00E94A52840F029F45F3F29F00C9406
:104F50009C2851110C94E7280C94A2280E94C42884
:104F600068F39923B1F3552391F3951B550BBB2798
:104F7000AA2762177307840738F09F5F5F4F220FDD
:104F8000331F441FAA1FA9F335D00E2E3AF0E0E8D4
:104F900032D091505040E695001CCAF72BD0FE2F1E
:104FA00029D0660F771F881FBB1F261737074807B2
:104FB000AB07B0E809F0BB0B802DBF01FF2793586A
:104FC0005F4F3AF09E3F510578F00C949C280C946A
:104FD000E7285F3FE4F3983ED4F38695779567958D
:104FE000B795F7959F5FC9F7880F911D969587959F
:104FF00097F90895E1E0660F771F881FBB1F6217BE
:1050000073078407BA0720F0621B730B840BBA0B7B
:10501000EE1F88F7E09508950E94CC2888F09F57EE
:1050200098F0B92F9927B751B0F0E1F0660F771FCC
:10503000881F991F1AF0BA95C9F714C0B13091F0C2
:105040000E94E628B1E008950C94E628672F782F97
:105050008827B85F39F0B93FCCF386957795679587
:10506000B395D9F73EF490958095709561957F4FF3
:105070008F4F9F4F0895E89409C097FB3EF4909599
:105080008095709561957F4F8F4F9F4F9923A9F021
:10509000F92F96E9BB279395F695879577956795B0
:1050A000B795F111F8CFFAF4BB0F11F460FF1BC0F4
:1050B0006F5F7F4F8F4F9F4F16C0882311F096E987
:1050C00011C0772321F09EE8872F762F05C0662335
:1050D00071F096E8862F70E060E02AF09A95660FEE
:1050E000771F881FDAF7880F9695879597F90895A7
:1050F000990F0008550FAA0BE0E8FEEF16161706E9
:10510000E807F907C0F012161306E407F50798F050
:10511000621B730B840B950B39F40A2661F0232B69
:10512000242B252B21F408950A2609F4A140A695E5
:105130008FEF811D811D089597F99F6780E870E0CA
:1051400060E008959FEF80EC089500240A941616FD
:10515000170618060906089500240A941216130665
:10516000140605060895092E0394000C11F48823F3
:1051700052F0BB0F40F4BF2B11F460FF04C06F5F0F
:105180007F4F8F4F9F4F089557FD9058440F551FE5
:1051900059F05F3F71F04795880F97FB991F61F0B9
:1051A0009F3F79F087950895121613061406551F30
:1051B000F2CF4695F1DF08C0161617061806991F9C
:1051C000F1CF86957105610508940895E894BB2791
:1051D00066277727CB0197F908950E94782808F46D
:1051E0008FEF08950E9405290C94B3280E94A528EA
:1051F00038F00E94AC2820F0952311F00C949C28E4
:105200000C94A22811240C94E7280E94C42870F35F
:10521000959FC1F3950F50E0551F629FF001729F5B
:10522000BB27F00DB11D639FAA27F00DB11DAA1F6A
:10523000649F6627B00DA11D661F829F2227B00DB7
:10524000A11D621F739FB00DA11D621F839FA00D42
:10525000611D221F749F3327A00D611D231F849F92
:10526000600D211D822F762F6A2F11249F575040E9
:105270009AF0F1F088234AF0EE0FFF1FBB1F661F64
:10528000771F881F91505040A9F79E3F510580F02D
:105290000C949C280C94E7285F3FE4F3983ED4F3E9
:1052A000869577956795B795F795E7959F5FC1F7D1
:1052B000FE2B880F911D9695879597F908950E946A
:1052C0007828880B990B0895DB018F939F930E9498
:1052D000EC26BF91AF91A29F800D911DA39F900DD1
:1052E000B29F900D11240895991B79E004C0991F75
:1052F000961708F0961B881F7A95C9F78095089530
:1053000097FB072E16F4009407D077FD09D00E9472
:10531000942907FC05D03EF4909581959F4F089500
:10532000709561957F4F0895AA1BBB1B51E107C083
:10533000AA1FBB1FA617B70710F0A61BB70B881F25
:10534000991F5A95A9F780959095BC01CD010895B4
:10535000EE0FFF1F0590F491E02D0994FB01DC0195
:1053600002C001900D9241505040D8F70895F89432
:02537000FFCF6D
:105372000113010A010101F800EF00E600DD00D48B
:1053820000CB00C200B900B000A7009E0095008CBF
:105392000083007A007100680000000000B4041469
:1053A200044104010572045004640400000000B6C4
:1053B2001014047F0C7E0C0D0A006E616E00696E83
:0E53C20066006F7666004C4F41444552000075
:00000001FF
